{
	"SafeMath/ejemplos.sol": {
		"CalculoSeguro": {
			"abi": [
				{
					"inputs": [
						{
							"internalType": "uint256",
							"name": "_a",
							"type": "uint256"
						},
						{
							"internalType": "uint256",
							"name": "_b",
							"type": "uint256"
						}
					],
					"name": "dividir",
					"outputs": [
						{
							"internalType": "uint256",
							"name": "",
							"type": "uint256"
						}
					],
					"stateMutability": "pure",
					"type": "function"
				},
				{
					"inputs": [
						{
							"internalType": "uint256",
							"name": "_a",
							"type": "uint256"
						},
						{
							"internalType": "uint256",
							"name": "_b",
							"type": "uint256"
						}
					],
					"name": "resta",
					"outputs": [
						{
							"internalType": "uint256",
							"name": "",
							"type": "uint256"
						}
					],
					"stateMutability": "pure",
					"type": "function"
				},
				{
					"inputs": [
						{
							"internalType": "uint256",
							"name": "_a",
							"type": "uint256"
						},
						{
							"internalType": "uint256",
							"name": "_b",
							"type": "uint256"
						}
					],
					"name": "suma",
					"outputs": [
						{
							"internalType": "uint256",
							"name": "",
							"type": "uint256"
						}
					],
					"stateMutability": "pure",
					"type": "function"
				}
			],
			"devdoc": {
				"kind": "dev",
				"methods": {},
				"version": 1
			},
			"evm": {
				"assembly": "    /* \"SafeMath/ejemplos.sol\":94:469  contract CalculoSeguro {\r... */\n  mstore(0x40, 0x80)\n  callvalue\n  dup1\n  iszero\n  tag_1\n  jumpi\n  0x00\n  dup1\n  revert\ntag_1:\n  pop\n  dataSize(sub_0)\n  dup1\n  dataOffset(sub_0)\n  0x00\n  codecopy\n  0x00\n  return\nstop\n\nsub_0: assembly {\n        /* \"SafeMath/ejemplos.sol\":94:469  contract CalculoSeguro {\r... */\n      mstore(0x40, 0x80)\n      callvalue\n      dup1\n      iszero\n      tag_1\n      jumpi\n      0x00\n      dup1\n      revert\n    tag_1:\n      pop\n      jumpi(tag_2, lt(calldatasize, 0x04))\n      shr(0xe0, calldataload(0x00))\n      dup1\n      0x1bdbe55d\n      eq\n      tag_3\n      jumpi\n      dup1\n      0x52f294bc\n      eq\n      tag_4\n      jumpi\n      dup1\n      0xb1b45b1b\n      eq\n      tag_5\n      jumpi\n    tag_2:\n      0x00\n      dup1\n      revert\n        /* \"SafeMath/ejemplos.sol\":367:464  function dividir(uint _a, uint _b) public pure returns (uint){\r... */\n    tag_3:\n      tag_6\n      0x04\n      dup1\n      calldatasize\n      sub\n      0x40\n      dup2\n      lt\n      iszero\n      tag_7\n      jumpi\n      0x00\n      dup1\n      revert\n    tag_7:\n      dup2\n      add\n      swap1\n      dup1\n      dup1\n      calldataload\n      swap1\n      0x20\n      add\n      swap1\n      swap3\n      swap2\n      swap1\n      dup1\n      calldataload\n      swap1\n      0x20\n      add\n      swap1\n      swap3\n      swap2\n      swap1\n      pop\n      pop\n      pop\n      tag_8\n      jump\t// in\n    tag_6:\n      mload(0x40)\n      dup1\n      dup3\n      dup2\n      mstore\n      0x20\n      add\n      swap2\n      pop\n      pop\n      mload(0x40)\n      dup1\n      swap2\n      sub\n      swap1\n      return\n        /* \"SafeMath/ejemplos.sol\":260:355  function resta(uint _a, uint _b) public pure returns (uint){\r... */\n    tag_4:\n      tag_9\n      0x04\n      dup1\n      calldatasize\n      sub\n      0x40\n      dup2\n      lt\n      iszero\n      tag_10\n      jumpi\n      0x00\n      dup1\n      revert\n    tag_10:\n      dup2\n      add\n      swap1\n      dup1\n      dup1\n      calldataload\n      swap1\n      0x20\n      add\n      swap1\n      swap3\n      swap2\n      swap1\n      dup1\n      calldataload\n      swap1\n      0x20\n      add\n      swap1\n      swap3\n      swap2\n      swap1\n      pop\n      pop\n      pop\n      tag_11\n      jump\t// in\n    tag_9:\n      mload(0x40)\n      dup1\n      dup3\n      dup2\n      mstore\n      0x20\n      add\n      swap2\n      pop\n      pop\n      mload(0x40)\n      dup1\n      swap2\n      sub\n      swap1\n      return\n        /* \"SafeMath/ejemplos.sol\":158:252  function suma(uint _a, uint _b) public pure returns (uint){\r... */\n    tag_5:\n      tag_12\n      0x04\n      dup1\n      calldatasize\n      sub\n      0x40\n      dup2\n      lt\n      iszero\n      tag_13\n      jumpi\n      0x00\n      dup1\n      revert\n    tag_13:\n      dup2\n      add\n      swap1\n      dup1\n      dup1\n      calldataload\n      swap1\n      0x20\n      add\n      swap1\n      swap3\n      swap2\n      swap1\n      dup1\n      calldataload\n      swap1\n      0x20\n      add\n      swap1\n      swap3\n      swap2\n      swap1\n      pop\n      pop\n      pop\n      tag_14\n      jump\t// in\n    tag_12:\n      mload(0x40)\n      dup1\n      dup3\n      dup2\n      mstore\n      0x20\n      add\n      swap2\n      pop\n      pop\n      mload(0x40)\n      dup1\n      swap2\n      sub\n      swap1\n      return\n        /* \"SafeMath/ejemplos.sol\":367:464  function dividir(uint _a, uint _b) public pure returns (uint){\r... */\n    tag_8:\n        /* \"SafeMath/ejemplos.sol\":423:427  uint */\n      0x00\n        /* \"SafeMath/ejemplos.sol\":446:456  _a.div(_b) */\n      tag_16\n        /* \"SafeMath/ejemplos.sol\":453:455  _b */\n      dup3\n        /* \"SafeMath/ejemplos.sol\":446:448  _a */\n      dup5\n        /* \"SafeMath/ejemplos.sol\":446:452  _a.div */\n      tag_17\n      swap1\n        /* \"SafeMath/ejemplos.sol\":446:456  _a.div(_b) */\n      swap2\n      swap1\n      0xffffffff\n      and\n      jump\t// in\n    tag_16:\n        /* \"SafeMath/ejemplos.sol\":439:456  return _a.div(_b) */\n      swap1\n      pop\n        /* \"SafeMath/ejemplos.sol\":367:464  function dividir(uint _a, uint _b) public pure returns (uint){\r... */\n      swap3\n      swap2\n      pop\n      pop\n      jump\t// out\n        /* \"SafeMath/ejemplos.sol\":260:355  function resta(uint _a, uint _b) public pure returns (uint){\r... */\n    tag_11:\n        /* \"SafeMath/ejemplos.sol\":314:318  uint */\n      0x00\n        /* \"SafeMath/ejemplos.sol\":337:347  _a.sub(_b) */\n      tag_19\n        /* \"SafeMath/ejemplos.sol\":344:346  _b */\n      dup3\n        /* \"SafeMath/ejemplos.sol\":337:339  _a */\n      dup5\n        /* \"SafeMath/ejemplos.sol\":337:343  _a.sub */\n      tag_20\n      swap1\n        /* \"SafeMath/ejemplos.sol\":337:347  _a.sub(_b) */\n      swap2\n      swap1\n      0xffffffff\n      and\n      jump\t// in\n    tag_19:\n        /* \"SafeMath/ejemplos.sol\":330:347  return _a.sub(_b) */\n      swap1\n      pop\n        /* \"SafeMath/ejemplos.sol\":260:355  function resta(uint _a, uint _b) public pure returns (uint){\r... */\n      swap3\n      swap2\n      pop\n      pop\n      jump\t// out\n        /* \"SafeMath/ejemplos.sol\":158:252  function suma(uint _a, uint _b) public pure returns (uint){\r... */\n    tag_14:\n        /* \"SafeMath/ejemplos.sol\":211:215  uint */\n      0x00\n        /* \"SafeMath/ejemplos.sol\":234:244  _a.add(_b) */\n      tag_22\n        /* \"SafeMath/ejemplos.sol\":241:243  _b */\n      dup3\n        /* \"SafeMath/ejemplos.sol\":234:236  _a */\n      dup5\n        /* \"SafeMath/ejemplos.sol\":234:240  _a.add */\n      tag_23\n      swap1\n        /* \"SafeMath/ejemplos.sol\":234:244  _a.add(_b) */\n      swap2\n      swap1\n      0xffffffff\n      and\n      jump\t// in\n    tag_22:\n        /* \"SafeMath/ejemplos.sol\":227:244  return _a.add(_b) */\n      swap1\n      pop\n        /* \"SafeMath/ejemplos.sol\":158:252  function suma(uint _a, uint _b) public pure returns (uint){\r... */\n      swap3\n      swap2\n      pop\n      pop\n      jump\t// out\n        /* \"SafeMath/SafeMath.sol\":4351:4504  function div(uint256 a, uint256 b) internal pure returns (uint256) {\r... */\n    tag_17:\n        /* \"SafeMath/SafeMath.sol\":4409:4416  uint256 */\n      0x00\n        /* \"SafeMath/SafeMath.sol\":4441:4442  0 */\n      dup1\n        /* \"SafeMath/SafeMath.sol\":4437:4438  b */\n      dup3\n        /* \"SafeMath/SafeMath.sol\":4437:4442  b > 0 */\n      gt\n        /* \"SafeMath/SafeMath.sol\":4429:4473  require(b > 0, \"SafeMath: division by zero\") */\n      tag_25\n      jumpi\n      mload(0x40)\n      0x08c379a000000000000000000000000000000000000000000000000000000000\n      dup2\n      mstore\n      0x04\n      add\n      dup1\n      dup1\n      0x20\n      add\n      dup3\n      dup2\n      sub\n      dup3\n      mstore\n      0x1a\n      dup2\n      mstore\n      0x20\n      add\n      dup1\n      0x536166654d6174683a206469766973696f6e206279207a65726f000000000000\n      dup2\n      mstore\n      pop\n      0x20\n      add\n      swap2\n      pop\n      pop\n      mload(0x40)\n      dup1\n      swap2\n      sub\n      swap1\n      revert\n    tag_25:\n        /* \"SafeMath/SafeMath.sol\":4495:4496  b */\n      dup2\n        /* \"SafeMath/SafeMath.sol\":4491:4492  a */\n      dup4\n        /* \"SafeMath/SafeMath.sol\":4491:4496  a / b */\n      dup2\n      tag_26\n      jumpi\n      invalid\n    tag_26:\n      div\n        /* \"SafeMath/SafeMath.sol\":4484:4496  return a / b */\n      swap1\n      pop\n        /* \"SafeMath/SafeMath.sol\":4351:4504  function div(uint256 a, uint256 b) internal pure returns (uint256) {\r... */\n      swap3\n      swap2\n      pop\n      pop\n      jump\t// out\n        /* \"SafeMath/SafeMath.sol\":3236:3394  function sub(uint256 a, uint256 b) internal pure returns (uint256) {\r... */\n    tag_20:\n        /* \"SafeMath/SafeMath.sol\":3294:3301  uint256 */\n      0x00\n        /* \"SafeMath/SafeMath.sol\":3327:3328  a */\n      dup3\n        /* \"SafeMath/SafeMath.sol\":3322:3323  b */\n      dup3\n        /* \"SafeMath/SafeMath.sol\":3322:3328  b <= a */\n      gt\n      iszero\n        /* \"SafeMath/SafeMath.sol\":3314:3363  require(b <= a, \"SafeMath: subtraction overflow\") */\n      tag_28\n      jumpi\n      mload(0x40)\n      0x08c379a000000000000000000000000000000000000000000000000000000000\n      dup2\n      mstore\n      0x04\n      add\n      dup1\n      dup1\n      0x20\n      add\n      dup3\n      dup2\n      sub\n      dup3\n      mstore\n      0x1e\n      dup2\n      mstore\n      0x20\n      add\n      dup1\n      0x536166654d6174683a207375627472616374696f6e206f766572666c6f770000\n      dup2\n      mstore\n      pop\n      0x20\n      add\n      swap2\n      pop\n      pop\n      mload(0x40)\n      dup1\n      swap2\n      sub\n      swap1\n      revert\n    tag_28:\n        /* \"SafeMath/SafeMath.sol\":3385:3386  b */\n      dup2\n        /* \"SafeMath/SafeMath.sol\":3381:3382  a */\n      dup4\n        /* \"SafeMath/SafeMath.sol\":3381:3386  a - b */\n      sub\n        /* \"SafeMath/SafeMath.sol\":3374:3386  return a - b */\n      swap1\n      pop\n        /* \"SafeMath/SafeMath.sol\":3236:3394  function sub(uint256 a, uint256 b) internal pure returns (uint256) {\r... */\n      swap3\n      swap2\n      pop\n      pop\n      jump\t// out\n        /* \"SafeMath/SafeMath.sol\":2774:2953  function add(uint256 a, uint256 b) internal pure returns (uint256) {\r... */\n    tag_23:\n        /* \"SafeMath/SafeMath.sol\":2832:2839  uint256 */\n      0x00\n        /* \"SafeMath/SafeMath.sol\":2852:2861  uint256 c */\n      dup1\n        /* \"SafeMath/SafeMath.sol\":2868:2869  b */\n      dup3\n        /* \"SafeMath/SafeMath.sol\":2864:2865  a */\n      dup5\n        /* \"SafeMath/SafeMath.sol\":2864:2869  a + b */\n      add\n        /* \"SafeMath/SafeMath.sol\":2852:2869  uint256 c = a + b */\n      swap1\n      pop\n        /* \"SafeMath/SafeMath.sol\":2893:2894  a */\n      dup4\n        /* \"SafeMath/SafeMath.sol\":2888:2889  c */\n      dup2\n        /* \"SafeMath/SafeMath.sol\":2888:2894  c >= a */\n      lt\n      iszero\n        /* \"SafeMath/SafeMath.sol\":2880:2926  require(c >= a, \"SafeMath: addition overflow\") */\n      tag_30\n      jumpi\n      mload(0x40)\n      0x08c379a000000000000000000000000000000000000000000000000000000000\n      dup2\n      mstore\n      0x04\n      add\n      dup1\n      dup1\n      0x20\n      add\n      dup3\n      dup2\n      sub\n      dup3\n      mstore\n      0x1b\n      dup2\n      mstore\n      0x20\n      add\n      dup1\n      0x536166654d6174683a206164646974696f6e206f766572666c6f770000000000\n      dup2\n      mstore\n      pop\n      0x20\n      add\n      swap2\n      pop\n      pop\n      mload(0x40)\n      dup1\n      swap2\n      sub\n      swap1\n      revert\n    tag_30:\n        /* \"SafeMath/SafeMath.sol\":2944:2945  c */\n      dup1\n        /* \"SafeMath/SafeMath.sol\":2937:2945  return c */\n      swap2\n      pop\n      pop\n        /* \"SafeMath/SafeMath.sol\":2774:2953  function add(uint256 a, uint256 b) internal pure returns (uint256) {\r... */\n      swap3\n      swap2\n      pop\n      pop\n      jump\t// out\n\n    auxdata: 0xa2646970667358221220d99ce1bbb7d39b35115c871074cc4ae2744ab0971b8c8c6c1440928794d235cf64736f6c63430007060033\n}\n",
				"bytecode": {
					"linkReferences": {},
					"object": "608060405234801561001057600080fd5b5061034b806100206000396000f3fe608060405234801561001057600080fd5b50600436106100415760003560e01c80631bdbe55d1461004657806352f294bc14610092578063b1b45b1b146100de575b600080fd5b61007c6004803603604081101561005c57600080fd5b81019080803590602001909291908035906020019092919050505061012a565b6040518082815260200191505060405180910390f35b6100c8600480360360408110156100a857600080fd5b810190808035906020019092919080359060200190929190505050610147565b6040518082815260200191505060405180910390f35b610114600480360360408110156100f457600080fd5b810190808035906020019092919080359060200190929190505050610164565b6040518082815260200191505060405180910390f35b600061013f828461018190919063ffffffff16565b905092915050565b600061015c828461020a90919063ffffffff16565b905092915050565b6000610179828461028d90919063ffffffff16565b905092915050565b60008082116101f8576040517f08c379a000000000000000000000000000000000000000000000000000000000815260040180806020018281038252601a8152602001807f536166654d6174683a206469766973696f6e206279207a65726f00000000000081525060200191505060405180910390fd5b81838161020157fe5b04905092915050565b600082821115610282576040517f08c379a000000000000000000000000000000000000000000000000000000000815260040180806020018281038252601e8152602001807f536166654d6174683a207375627472616374696f6e206f766572666c6f77000081525060200191505060405180910390fd5b818303905092915050565b60008082840190508381101561030b576040517f08c379a000000000000000000000000000000000000000000000000000000000815260040180806020018281038252601b8152602001807f536166654d6174683a206164646974696f6e206f766572666c6f77000000000081525060200191505060405180910390fd5b809150509291505056fea2646970667358221220d99ce1bbb7d39b35115c871074cc4ae2744ab0971b8c8c6c1440928794d235cf64736f6c63430007060033",
					"opcodes": "PUSH1 0x80 PUSH1 0x40 MSTORE CALLVALUE DUP1 ISZERO PUSH2 0x10 JUMPI PUSH1 0x0 DUP1 REVERT JUMPDEST POP PUSH2 0x34B DUP1 PUSH2 0x20 PUSH1 0x0 CODECOPY PUSH1 0x0 RETURN INVALID PUSH1 0x80 PUSH1 0x40 MSTORE CALLVALUE DUP1 ISZERO PUSH2 0x10 JUMPI PUSH1 0x0 DUP1 REVERT JUMPDEST POP PUSH1 0x4 CALLDATASIZE LT PUSH2 0x41 JUMPI PUSH1 0x0 CALLDATALOAD PUSH1 0xE0 SHR DUP1 PUSH4 0x1BDBE55D EQ PUSH2 0x46 JUMPI DUP1 PUSH4 0x52F294BC EQ PUSH2 0x92 JUMPI DUP1 PUSH4 0xB1B45B1B EQ PUSH2 0xDE JUMPI JUMPDEST PUSH1 0x0 DUP1 REVERT JUMPDEST PUSH2 0x7C PUSH1 0x4 DUP1 CALLDATASIZE SUB PUSH1 0x40 DUP2 LT ISZERO PUSH2 0x5C JUMPI PUSH1 0x0 DUP1 REVERT JUMPDEST DUP2 ADD SWAP1 DUP1 DUP1 CALLDATALOAD SWAP1 PUSH1 0x20 ADD SWAP1 SWAP3 SWAP2 SWAP1 DUP1 CALLDATALOAD SWAP1 PUSH1 0x20 ADD SWAP1 SWAP3 SWAP2 SWAP1 POP POP POP PUSH2 0x12A JUMP JUMPDEST PUSH1 0x40 MLOAD DUP1 DUP3 DUP2 MSTORE PUSH1 0x20 ADD SWAP2 POP POP PUSH1 0x40 MLOAD DUP1 SWAP2 SUB SWAP1 RETURN JUMPDEST PUSH2 0xC8 PUSH1 0x4 DUP1 CALLDATASIZE SUB PUSH1 0x40 DUP2 LT ISZERO PUSH2 0xA8 JUMPI PUSH1 0x0 DUP1 REVERT JUMPDEST DUP2 ADD SWAP1 DUP1 DUP1 CALLDATALOAD SWAP1 PUSH1 0x20 ADD SWAP1 SWAP3 SWAP2 SWAP1 DUP1 CALLDATALOAD SWAP1 PUSH1 0x20 ADD SWAP1 SWAP3 SWAP2 SWAP1 POP POP POP PUSH2 0x147 JUMP JUMPDEST PUSH1 0x40 MLOAD DUP1 DUP3 DUP2 MSTORE PUSH1 0x20 ADD SWAP2 POP POP PUSH1 0x40 MLOAD DUP1 SWAP2 SUB SWAP1 RETURN JUMPDEST PUSH2 0x114 PUSH1 0x4 DUP1 CALLDATASIZE SUB PUSH1 0x40 DUP2 LT ISZERO PUSH2 0xF4 JUMPI PUSH1 0x0 DUP1 REVERT JUMPDEST DUP2 ADD SWAP1 DUP1 DUP1 CALLDATALOAD SWAP1 PUSH1 0x20 ADD SWAP1 SWAP3 SWAP2 SWAP1 DUP1 CALLDATALOAD SWAP1 PUSH1 0x20 ADD SWAP1 SWAP3 SWAP2 SWAP1 POP POP POP PUSH2 0x164 JUMP JUMPDEST PUSH1 0x40 MLOAD DUP1 DUP3 DUP2 MSTORE PUSH1 0x20 ADD SWAP2 POP POP PUSH1 0x40 MLOAD DUP1 SWAP2 SUB SWAP1 RETURN JUMPDEST PUSH1 0x0 PUSH2 0x13F DUP3 DUP5 PUSH2 0x181 SWAP1 SWAP2 SWAP1 PUSH4 0xFFFFFFFF AND JUMP JUMPDEST SWAP1 POP SWAP3 SWAP2 POP POP JUMP JUMPDEST PUSH1 0x0 PUSH2 0x15C DUP3 DUP5 PUSH2 0x20A SWAP1 SWAP2 SWAP1 PUSH4 0xFFFFFFFF AND JUMP JUMPDEST SWAP1 POP SWAP3 SWAP2 POP POP JUMP JUMPDEST PUSH1 0x0 PUSH2 0x179 DUP3 DUP5 PUSH2 0x28D SWAP1 SWAP2 SWAP1 PUSH4 0xFFFFFFFF AND JUMP JUMPDEST SWAP1 POP SWAP3 SWAP2 POP POP JUMP JUMPDEST PUSH1 0x0 DUP1 DUP3 GT PUSH2 0x1F8 JUMPI PUSH1 0x40 MLOAD PUSH32 0x8C379A000000000000000000000000000000000000000000000000000000000 DUP2 MSTORE PUSH1 0x4 ADD DUP1 DUP1 PUSH1 0x20 ADD DUP3 DUP2 SUB DUP3 MSTORE PUSH1 0x1A DUP2 MSTORE PUSH1 0x20 ADD DUP1 PUSH32 0x536166654D6174683A206469766973696F6E206279207A65726F000000000000 DUP2 MSTORE POP PUSH1 0x20 ADD SWAP2 POP POP PUSH1 0x40 MLOAD DUP1 SWAP2 SUB SWAP1 REVERT JUMPDEST DUP2 DUP4 DUP2 PUSH2 0x201 JUMPI INVALID JUMPDEST DIV SWAP1 POP SWAP3 SWAP2 POP POP JUMP JUMPDEST PUSH1 0x0 DUP3 DUP3 GT ISZERO PUSH2 0x282 JUMPI PUSH1 0x40 MLOAD PUSH32 0x8C379A000000000000000000000000000000000000000000000000000000000 DUP2 MSTORE PUSH1 0x4 ADD DUP1 DUP1 PUSH1 0x20 ADD DUP3 DUP2 SUB DUP3 MSTORE PUSH1 0x1E DUP2 MSTORE PUSH1 0x20 ADD DUP1 PUSH32 0x536166654D6174683A207375627472616374696F6E206F766572666C6F770000 DUP2 MSTORE POP PUSH1 0x20 ADD SWAP2 POP POP PUSH1 0x40 MLOAD DUP1 SWAP2 SUB SWAP1 REVERT JUMPDEST DUP2 DUP4 SUB SWAP1 POP SWAP3 SWAP2 POP POP JUMP JUMPDEST PUSH1 0x0 DUP1 DUP3 DUP5 ADD SWAP1 POP DUP4 DUP2 LT ISZERO PUSH2 0x30B JUMPI PUSH1 0x40 MLOAD PUSH32 0x8C379A000000000000000000000000000000000000000000000000000000000 DUP2 MSTORE PUSH1 0x4 ADD DUP1 DUP1 PUSH1 0x20 ADD DUP3 DUP2 SUB DUP3 MSTORE PUSH1 0x1B DUP2 MSTORE PUSH1 0x20 ADD DUP1 PUSH32 0x536166654D6174683A206164646974696F6E206F766572666C6F770000000000 DUP2 MSTORE POP PUSH1 0x20 ADD SWAP2 POP POP PUSH1 0x40 MLOAD DUP1 SWAP2 SUB SWAP1 REVERT JUMPDEST DUP1 SWAP2 POP POP SWAP3 SWAP2 POP POP JUMP INVALID LOG2 PUSH5 0x6970667358 0x22 SLT KECCAK256 0xD9 SWAP13 0xE1 0xBB 0xB7 0xD3 SWAP12 CALLDATALOAD GT 0x5C DUP8 LT PUSH21 0xCC4AE2744AB0971B8C8C6C1440928794D235CF6473 PUSH16 0x6C634300070600330000000000000000 "
				},
				"gasEstimates": {
					"creation": {
						"codeDepositCost": "168600",
						"executionCost": "214",
						"totalCost": "168814"
					},
					"external": {
						"dividir(uint256,uint256)": "infinite",
						"resta(uint256,uint256)": "infinite",
						"suma(uint256,uint256)": "infinite"
					}
				},
				"methodIdentifiers": {
					"dividir(uint256,uint256)": "1bdbe55d",
					"resta(uint256,uint256)": "52f294bc",
					"suma(uint256,uint256)": "b1b45b1b"
				}
			},
			"storageLayout": {
				"storage": [],
				"types": null
			},
			"userdoc": {
				"kind": "user",
				"methods": {},
				"version": 1
			}
		}
	}
}