{
	"Funciones/ong.sol": {
		"CausasBeneficas": {
			"abi": [
				{
					"inputs": [
						{
							"internalType": "string",
							"name": "_nombre",
							"type": "string"
						},
						{
							"internalType": "uint256",
							"name": "_precio_objetivo",
							"type": "uint256"
						}
					],
					"name": "crearCausa",
					"outputs": [],
					"stateMutability": "payable",
					"type": "function"
				},
				{
					"inputs": [
						{
							"internalType": "string",
							"name": "_nombre",
							"type": "string"
						},
						{
							"internalType": "uint256",
							"name": "_cantidad",
							"type": "uint256"
						}
					],
					"name": "donar",
					"outputs": [
						{
							"internalType": "bool",
							"name": "",
							"type": "bool"
						}
					],
					"stateMutability": "nonpayable",
					"type": "function"
				}
			],
			"devdoc": {
				"methods": {}
			},
			"evm": {
				"assembly": "    /* \"Funciones/ong.sol\":62:1143  contract CausasBeneficas{\r... */\n  mstore(0x40, 0x80)\n    /* \"Funciones/ong.sol\":253:254  0 */\n  0x00\n    /* \"Funciones/ong.sol\":230:254  uint contador_causas = 0 */\n  dup1\n  sstore\n    /* \"Funciones/ong.sol\":62:1143  contract CausasBeneficas{\r... */\n  callvalue\n    /* \"--CODEGEN--\":8:17   */\n  dup1\n    /* \"--CODEGEN--\":5:7   */\n  iszero\n  tag_1\n  jumpi\n    /* \"--CODEGEN--\":30:31   */\n  0x00\n    /* \"--CODEGEN--\":27:28   */\n  dup1\n    /* \"--CODEGEN--\":20:32   */\n  revert\n    /* \"--CODEGEN--\":5:7   */\ntag_1:\n    /* \"Funciones/ong.sol\":62:1143  contract CausasBeneficas{\r... */\n  pop\n  dataSize(sub_0)\n  dup1\n  dataOffset(sub_0)\n  0x00\n  codecopy\n  0x00\n  return\nstop\n\nsub_0: assembly {\n        /* \"Funciones/ong.sol\":62:1143  contract CausasBeneficas{\r... */\n      mstore(0x40, 0x80)\n      jumpi(tag_1, lt(calldatasize, 0x04))\n      shr(0xe0, calldataload(0x00))\n      dup1\n      0x45cd81b3\n      eq\n      tag_2\n      jumpi\n      dup1\n      0x9dbc7609\n      eq\n      tag_3\n      jumpi\n    tag_1:\n      0x00\n      dup1\n      revert\n        /* \"Funciones/ong.sol\":835:1132  function donar(string memory _nombre, uint _cantidad) public returns(bool){\r... */\n    tag_2:\n      callvalue\n        /* \"--CODEGEN--\":8:17   */\n      dup1\n        /* \"--CODEGEN--\":5:7   */\n      iszero\n      tag_4\n      jumpi\n        /* \"--CODEGEN--\":30:31   */\n      0x00\n        /* \"--CODEGEN--\":27:28   */\n      dup1\n        /* \"--CODEGEN--\":20:32   */\n      revert\n        /* \"--CODEGEN--\":5:7   */\n    tag_4:\n        /* \"Funciones/ong.sol\":835:1132  function donar(string memory _nombre, uint _cantidad) public returns(bool){\r... */\n      pop\n      tag_5\n      0x04\n      dup1\n      calldatasize\n      sub\n      tag_6\n      swap2\n      swap1\n      dup2\n      add\n      swap1\n      jump(tag_7)\n    tag_6:\n      tag_8\n      jump\t// in\n    tag_5:\n      mload(0x40)\n      tag_9\n      swap2\n      swap1\n      jump(tag_10)\n    tag_9:\n      mload(0x40)\n      dup1\n      swap2\n      sub\n      swap1\n      return\n        /* \"Funciones/ong.sol\":302:510  function crearCausa(string memory _nombre, uint _precio_objetivo) public payable {\r... */\n    tag_3:\n      tag_11\n      0x04\n      dup1\n      calldatasize\n      sub\n      tag_12\n      swap2\n      swap1\n      dup2\n      add\n      swap1\n      jump(tag_7)\n    tag_12:\n      tag_13\n      jump\t// in\n    tag_11:\n      stop\n        /* \"Funciones/ong.sol\":835:1132  function donar(string memory _nombre, uint _cantidad) public returns(bool){\r... */\n    tag_8:\n        /* \"Funciones/ong.sol\":904:908  bool */\n      0x00\n        /* \"Funciones/ong.sol\":925:961  ObjetivoCumplido(_nombre, _cantidad) */\n      tag_15\n        /* \"Funciones/ong.sol\":942:949  _nombre */\n      dup4\n        /* \"Funciones/ong.sol\":951:960  _cantidad */\n      dup4\n        /* \"Funciones/ong.sol\":925:941  ObjetivoCumplido */\n      tag_16\n        /* \"Funciones/ong.sol\":925:961  ObjetivoCumplido(_nombre, _cantidad) */\n      jump\t// in\n    tag_15:\n        /* \"Funciones/ong.sol\":922:1098  if(ObjetivoCumplido(_nombre, _cantidad)){\r... */\n      iszero\n      tag_17\n      jumpi\n        /* \"Funciones/ong.sol\":1051:1060  _cantidad */\n      dup2\n        /* \"Funciones/ong.sol\":1014:1020  causas */\n      0x01\n        /* \"Funciones/ong.sol\":1021:1028  _nombre */\n      dup5\n        /* \"Funciones/ong.sol\":1014:1029  causas[_nombre] */\n      mload(0x40)\n      tag_18\n      swap2\n      swap1\n      jump(tag_19)\n    tag_18:\n      swap1\n      dup2\n      mstore\n      0x20\n      add\n      mload(0x40)\n      dup1\n      swap2\n      sub\n      swap1\n      keccak256\n        /* \"Funciones/ong.sol\":1014:1048  causas[_nombre].cantidad_recaudada */\n      0x03\n      add\n      sload\n        /* \"Funciones/ong.sol\":1014:1060  causas[_nombre].cantidad_recaudada + _cantidad */\n      add\n        /* \"Funciones/ong.sol\":977:983  causas */\n      0x01\n        /* \"Funciones/ong.sol\":984:991  _nombre */\n      dup5\n        /* \"Funciones/ong.sol\":977:992  causas[_nombre] */\n      mload(0x40)\n      tag_20\n      swap2\n      swap1\n      jump(tag_19)\n    tag_20:\n      swap1\n      dup2\n      mstore\n      0x20\n      add\n      mload(0x40)\n      dup1\n      swap2\n      sub\n      swap1\n      keccak256\n        /* \"Funciones/ong.sol\":977:1011  causas[_nombre].cantidad_recaudada */\n      0x03\n      add\n        /* \"Funciones/ong.sol\":977:1060  causas[_nombre].cantidad_recaudada = causas[_nombre].cantidad_recaudada + _cantidad */\n      dup2\n      swap1\n      sstore\n      pop\n        /* \"Funciones/ong.sol\":1082:1086  true */\n      0x01\n        /* \"Funciones/ong.sol\":1075:1086  return true */\n      swap1\n      pop\n      jump(tag_14)\n        /* \"Funciones/ong.sol\":922:1098  if(ObjetivoCumplido(_nombre, _cantidad)){\r... */\n    tag_17:\n        /* \"Funciones/ong.sol\":1119:1124  false */\n      0x00\n        /* \"Funciones/ong.sol\":1112:1124  return false */\n      swap1\n      pop\n        /* \"Funciones/ong.sol\":835:1132  function donar(string memory _nombre, uint _cantidad) public returns(bool){\r... */\n    tag_14:\n      swap3\n      swap2\n      pop\n      pop\n      jump\t// out\n        /* \"Funciones/ong.sol\":302:510  function crearCausa(string memory _nombre, uint _precio_objetivo) public payable {\r... */\n    tag_13:\n        /* \"Funciones/ong.sol\":422:474  Causa(contador_causas, _nombre, _precio_objetivo, 0) */\n      mload(0x40)\n      dup1\n      0x80\n      add\n      0x40\n      mstore\n      dup1\n        /* \"Funciones/ong.sol\":428:443  contador_causas */\n      sload(0x00)\n        /* \"Funciones/ong.sol\":422:474  Causa(contador_causas, _nombre, _precio_objetivo, 0) */\n      dup2\n      mstore\n      0x20\n      add\n        /* \"Funciones/ong.sol\":445:452  _nombre */\n      dup4\n        /* \"Funciones/ong.sol\":422:474  Causa(contador_causas, _nombre, _precio_objetivo, 0) */\n      dup2\n      mstore\n      0x20\n      add\n        /* \"Funciones/ong.sol\":454:470  _precio_objetivo */\n      dup3\n        /* \"Funciones/ong.sol\":422:474  Causa(contador_causas, _nombre, _precio_objetivo, 0) */\n      dup2\n      mstore\n      0x20\n      add\n        /* \"Funciones/ong.sol\":472:473  0 */\n      0x00\n        /* \"Funciones/ong.sol\":422:474  Causa(contador_causas, _nombre, _precio_objetivo, 0) */\n      dup2\n      mstore\n      pop\n        /* \"Funciones/ong.sol\":404:410  causas */\n      0x01\n        /* \"Funciones/ong.sol\":411:418  _nombre */\n      dup4\n        /* \"Funciones/ong.sol\":404:419  causas[_nombre] */\n      mload(0x40)\n      tag_22\n      swap2\n      swap1\n      jump(tag_19)\n    tag_22:\n      swap1\n      dup2\n      mstore\n      0x20\n      add\n      mload(0x40)\n      dup1\n      swap2\n      sub\n      swap1\n      keccak256\n        /* \"Funciones/ong.sol\":404:474  causas[_nombre] = Causa(contador_causas, _nombre, _precio_objetivo, 0) */\n      0x00\n      dup3\n      add\n      mload\n      dup2\n      0x00\n      add\n      sstore\n      0x20\n      dup3\n      add\n      mload\n      dup2\n      0x01\n      add\n      swap1\n      dup1\n      mload\n      swap1\n      0x20\n      add\n      swap1\n      tag_23\n      swap3\n      swap2\n      swap1\n      tag_24\n      jump\t// in\n    tag_23:\n      pop\n      0x40\n      dup3\n      add\n      mload\n      dup2\n      0x02\n      add\n      sstore\n      0x60\n      dup3\n      add\n      mload\n      dup2\n      0x03\n      add\n      sstore\n      swap1\n      pop\n      pop\n        /* \"Funciones/ong.sol\":485:500  contador_causas */\n      0x00\n      dup1\n        /* \"Funciones/ong.sol\":485:502  contador_causas++ */\n      dup2\n      sload\n      dup1\n      swap3\n      swap2\n      swap1\n      0x01\n      add\n      swap2\n      swap1\n      pop\n      sstore\n      pop\n        /* \"Funciones/ong.sol\":302:510  function crearCausa(string memory _nombre, uint _precio_objetivo) public payable {\r... */\n      pop\n      pop\n      jump\t// out\n        /* \"Funciones/ong.sol\":518:827  function ObjetivoCumplido(string memory _nombre, uint _donar) private returns(bool){\r... */\n    tag_16:\n        /* \"Funciones/ong.sol\":596:600  bool */\n      0x00\n        /* \"Funciones/ong.sol\":614:623  bool flag */\n      dup1\n        /* \"Funciones/ong.sol\":626:631  false */\n      0x00\n        /* \"Funciones/ong.sol\":614:631  bool flag = false */\n      swap1\n      pop\n        /* \"Funciones/ong.sol\":642:660  Causa memory causa */\n      tag_26\n      tag_27\n      jump\t// in\n    tag_26:\n        /* \"Funciones/ong.sol\":663:669  causas */\n      0x01\n        /* \"Funciones/ong.sol\":670:677  _nombre */\n      dup6\n        /* \"Funciones/ong.sol\":663:678  causas[_nombre] */\n      mload(0x40)\n      tag_28\n      swap2\n      swap1\n      jump(tag_19)\n    tag_28:\n      swap1\n      dup2\n      mstore\n      0x20\n      add\n      mload(0x40)\n      dup1\n      swap2\n      sub\n      swap1\n      keccak256\n        /* \"Funciones/ong.sol\":642:678  Causa memory causa = causas[_nombre] */\n      mload(0x40)\n      dup1\n      0x80\n      add\n      0x40\n      mstore\n      swap1\n      dup2\n      0x00\n      dup3\n      add\n      sload\n      dup2\n      mstore\n      0x20\n      add\n      0x01\n      dup3\n      add\n      dup1\n      sload\n      0x01\n      dup2\n      0x01\n      and\n      iszero\n      0x0100\n      mul\n      sub\n      and\n      0x02\n      swap1\n      div\n      dup1\n      0x1f\n      add\n      0x20\n      dup1\n      swap2\n      div\n      mul\n      0x20\n      add\n      mload(0x40)\n      swap1\n      dup2\n      add\n      0x40\n      mstore\n      dup1\n      swap3\n      swap2\n      swap1\n      dup2\n      dup2\n      mstore\n      0x20\n      add\n      dup3\n      dup1\n      sload\n      0x01\n      dup2\n      0x01\n      and\n      iszero\n      0x0100\n      mul\n      sub\n      and\n      0x02\n      swap1\n      div\n      dup1\n      iszero\n      tag_29\n      jumpi\n      dup1\n      0x1f\n      lt\n      tag_30\n      jumpi\n      0x0100\n      dup1\n      dup4\n      sload\n      div\n      mul\n      dup4\n      mstore\n      swap2\n      0x20\n      add\n      swap2\n      jump(tag_29)\n    tag_30:\n      dup3\n      add\n      swap2\n      swap1\n      0x00\n      mstore\n      keccak256(0x00, 0x20)\n      swap1\n    tag_31:\n      dup2\n      sload\n      dup2\n      mstore\n      swap1\n      0x01\n      add\n      swap1\n      0x20\n      add\n      dup1\n      dup4\n      gt\n      tag_31\n      jumpi\n      dup3\n      swap1\n      sub\n      0x1f\n      and\n      dup3\n      add\n      swap2\n    tag_29:\n      pop\n      pop\n      pop\n      pop\n      pop\n      dup2\n      mstore\n      0x20\n      add\n      0x02\n      dup3\n      add\n      sload\n      dup2\n      mstore\n      0x20\n      add\n      0x03\n      dup3\n      add\n      sload\n      dup2\n      mstore\n      pop\n      pop\n      swap1\n      pop\n        /* \"Funciones/ong.sol\":747:753  _donar */\n      dup4\n        /* \"Funciones/ong.sol\":720:725  causa */\n      dup2\n        /* \"Funciones/ong.sol\":720:744  causa.cantidad_recaudada */\n      0x60\n      add\n      mload\n        /* \"Funciones/ong.sol\":720:753  causa.cantidad_recaudada + _donar */\n      add\n        /* \"Funciones/ong.sol\":694:699  causa */\n      dup2\n        /* \"Funciones/ong.sol\":694:715  causa.precio_objetivo */\n      0x40\n      add\n      mload\n        /* \"Funciones/ong.sol\":694:754  causa.precio_objetivo >= (causa.cantidad_recaudada + _donar) */\n      lt\n        /* \"Funciones/ong.sol\":691:793  if(causa.precio_objetivo >= (causa.cantidad_recaudada + _donar)){\r... */\n      tag_32\n      jumpi\n        /* \"Funciones/ong.sol\":777:781  true */\n      0x01\n        /* \"Funciones/ong.sol\":770:781  return true */\n      swap3\n      pop\n      pop\n      pop\n      jump(tag_25)\n        /* \"Funciones/ong.sol\":691:793  if(causa.precio_objetivo >= (causa.cantidad_recaudada + _donar)){\r... */\n    tag_32:\n        /* \"Funciones/ong.sol\":812:817  false */\n      0x00\n        /* \"Funciones/ong.sol\":805:817  return false */\n      swap3\n      pop\n      pop\n      pop\n        /* \"Funciones/ong.sol\":518:827  function ObjetivoCumplido(string memory _nombre, uint _donar) private returns(bool){\r... */\n    tag_25:\n      swap3\n      swap2\n      pop\n      pop\n      jump\t// out\n        /* \"Funciones/ong.sol\":62:1143  contract CausasBeneficas{\r... */\n    tag_24:\n      dup3\n      dup1\n      sload\n      0x01\n      dup2\n      0x01\n      and\n      iszero\n      0x0100\n      mul\n      sub\n      and\n      0x02\n      swap1\n      div\n      swap1\n      0x00\n      mstore\n      keccak256(0x00, 0x20)\n      swap1\n      0x1f\n      add\n      0x20\n      swap1\n      div\n      dup2\n      add\n      swap3\n      dup3\n      0x1f\n      lt\n      tag_34\n      jumpi\n      dup1\n      mload\n      not(0xff)\n      and\n      dup4\n      dup1\n      add\n      or\n      dup6\n      sstore\n      jump(tag_33)\n    tag_34:\n      dup3\n      dup1\n      add\n      0x01\n      add\n      dup6\n      sstore\n      dup3\n      iszero\n      tag_33\n      jumpi\n      swap2\n      dup3\n      add\n    tag_35:\n      dup3\n      dup2\n      gt\n      iszero\n      tag_36\n      jumpi\n      dup3\n      mload\n      dup3\n      sstore\n      swap2\n      0x20\n      add\n      swap2\n      swap1\n      0x01\n      add\n      swap1\n      jump(tag_35)\n    tag_36:\n    tag_33:\n      pop\n      swap1\n      pop\n      tag_37\n      swap2\n      swap1\n      tag_38\n      jump\t// in\n    tag_37:\n      pop\n      swap1\n      jump\t// out\n    tag_27:\n      mload(0x40)\n      dup1\n      0x80\n      add\n      0x40\n      mstore\n      dup1\n      0x00\n      dup2\n      mstore\n      0x20\n      add\n      0x60\n      dup2\n      mstore\n      0x20\n      add\n      0x00\n      dup2\n      mstore\n      0x20\n      add\n      0x00\n      dup2\n      mstore\n      pop\n      swap1\n      jump\t// out\n    tag_38:\n      tag_39\n      swap2\n      swap1\n    tag_40:\n      dup1\n      dup3\n      gt\n      iszero\n      tag_41\n      jumpi\n      0x00\n      dup2\n      0x00\n      swap1\n      sstore\n      pop\n      0x01\n      add\n      jump(tag_40)\n    tag_41:\n      pop\n      swap1\n      jump\n    tag_39:\n      swap1\n      jump\t// out\n        /* \"--CODEGEN--\":6:448   */\n    tag_43:\n      0x00\n        /* \"--CODEGEN--\":108:111   */\n      dup3\n        /* \"--CODEGEN--\":101:105   */\n      0x1f\n        /* \"--CODEGEN--\":93:99   */\n      dup4\n        /* \"--CODEGEN--\":89:106   */\n      add\n        /* \"--CODEGEN--\":85:112   */\n      slt\n        /* \"--CODEGEN--\":75:77   */\n      tag_45\n      jumpi\n        /* \"--CODEGEN--\":126:127   */\n      0x00\n        /* \"--CODEGEN--\":123:124   */\n      dup1\n        /* \"--CODEGEN--\":116:128   */\n      revert\n        /* \"--CODEGEN--\":75:77   */\n    tag_45:\n        /* \"--CODEGEN--\":163:169   */\n      dup2\n        /* \"--CODEGEN--\":150:170   */\n      calldataload\n        /* \"--CODEGEN--\":185:250   */\n      tag_46\n        /* \"--CODEGEN--\":200:249   */\n      tag_47\n        /* \"--CODEGEN--\":242:248   */\n      dup3\n        /* \"--CODEGEN--\":200:249   */\n      jump(tag_48)\n    tag_47:\n        /* \"--CODEGEN--\":185:250   */\n      jump(tag_49)\n    tag_46:\n        /* \"--CODEGEN--\":176:250   */\n      swap2\n      pop\n        /* \"--CODEGEN--\":270:276   */\n      dup1\n        /* \"--CODEGEN--\":263:268   */\n      dup3\n        /* \"--CODEGEN--\":256:277   */\n      mstore\n        /* \"--CODEGEN--\":306:310   */\n      0x20\n        /* \"--CODEGEN--\":298:304   */\n      dup4\n        /* \"--CODEGEN--\":294:311   */\n      add\n        /* \"--CODEGEN--\":339:343   */\n      0x20\n        /* \"--CODEGEN--\":332:337   */\n      dup4\n        /* \"--CODEGEN--\":328:344   */\n      add\n        /* \"--CODEGEN--\":374:377   */\n      dup6\n        /* \"--CODEGEN--\":365:371   */\n      dup4\n        /* \"--CODEGEN--\":360:363   */\n      dup4\n        /* \"--CODEGEN--\":356:372   */\n      add\n        /* \"--CODEGEN--\":353:378   */\n      gt\n        /* \"--CODEGEN--\":350:352   */\n      iszero\n      tag_50\n      jumpi\n        /* \"--CODEGEN--\":391:392   */\n      0x00\n        /* \"--CODEGEN--\":388:389   */\n      dup1\n        /* \"--CODEGEN--\":381:393   */\n      revert\n        /* \"--CODEGEN--\":350:352   */\n    tag_50:\n        /* \"--CODEGEN--\":401:442   */\n      tag_51\n        /* \"--CODEGEN--\":435:441   */\n      dup4\n        /* \"--CODEGEN--\":430:433   */\n      dup3\n        /* \"--CODEGEN--\":425:428   */\n      dup5\n        /* \"--CODEGEN--\":401:442   */\n      jump(tag_52)\n    tag_51:\n        /* \"--CODEGEN--\":68:448   */\n      pop\n      pop\n      pop\n      swap3\n      swap2\n      pop\n      pop\n      jump\n        /* \"--CODEGEN--\":456:586   */\n    tag_53:\n      0x00\n        /* \"--CODEGEN--\":536:542   */\n      dup2\n        /* \"--CODEGEN--\":523:543   */\n      calldataload\n        /* \"--CODEGEN--\":514:543   */\n      swap1\n      pop\n        /* \"--CODEGEN--\":548:581   */\n      tag_55\n        /* \"--CODEGEN--\":575:580   */\n      dup2\n        /* \"--CODEGEN--\":548:581   */\n      jump(tag_56)\n    tag_55:\n        /* \"--CODEGEN--\":508:586   */\n      swap3\n      swap2\n      pop\n      pop\n      jump\n        /* \"--CODEGEN--\":593:1065   */\n    tag_7:\n      0x00\n      dup1\n        /* \"--CODEGEN--\":724:726   */\n      0x40\n        /* \"--CODEGEN--\":712:721   */\n      dup4\n        /* \"--CODEGEN--\":703:710   */\n      dup6\n        /* \"--CODEGEN--\":699:722   */\n      sub\n        /* \"--CODEGEN--\":695:727   */\n      slt\n        /* \"--CODEGEN--\":692:694   */\n      iszero\n      tag_58\n      jumpi\n        /* \"--CODEGEN--\":740:741   */\n      0x00\n        /* \"--CODEGEN--\":737:738   */\n      dup1\n        /* \"--CODEGEN--\":730:742   */\n      revert\n        /* \"--CODEGEN--\":692:694   */\n    tag_58:\n        /* \"--CODEGEN--\":803:804   */\n      0x00\n        /* \"--CODEGEN--\":792:801   */\n      dup4\n        /* \"--CODEGEN--\":788:805   */\n      add\n        /* \"--CODEGEN--\":775:806   */\n      calldataload\n        /* \"--CODEGEN--\":826:844   */\n      0xffffffffffffffff\n        /* \"--CODEGEN--\":818:824   */\n      dup2\n        /* \"--CODEGEN--\":815:845   */\n      gt\n        /* \"--CODEGEN--\":812:814   */\n      iszero\n      tag_59\n      jumpi\n        /* \"--CODEGEN--\":858:859   */\n      0x00\n        /* \"--CODEGEN--\":855:856   */\n      dup1\n        /* \"--CODEGEN--\":848:860   */\n      revert\n        /* \"--CODEGEN--\":812:814   */\n    tag_59:\n        /* \"--CODEGEN--\":878:941   */\n      tag_60\n        /* \"--CODEGEN--\":933:940   */\n      dup6\n        /* \"--CODEGEN--\":924:930   */\n      dup3\n        /* \"--CODEGEN--\":913:922   */\n      dup7\n        /* \"--CODEGEN--\":909:931   */\n      add\n        /* \"--CODEGEN--\":878:941   */\n      jump(tag_43)\n    tag_60:\n        /* \"--CODEGEN--\":868:941   */\n      swap3\n      pop\n        /* \"--CODEGEN--\":754:947   */\n      pop\n        /* \"--CODEGEN--\":978:980   */\n      0x20\n        /* \"--CODEGEN--\":996:1049   */\n      tag_61\n        /* \"--CODEGEN--\":1041:1048   */\n      dup6\n        /* \"--CODEGEN--\":1032:1038   */\n      dup3\n        /* \"--CODEGEN--\":1021:1030   */\n      dup7\n        /* \"--CODEGEN--\":1017:1039   */\n      add\n        /* \"--CODEGEN--\":996:1049   */\n      jump(tag_53)\n    tag_61:\n        /* \"--CODEGEN--\":986:1049   */\n      swap2\n      pop\n        /* \"--CODEGEN--\":957:1055   */\n      pop\n        /* \"--CODEGEN--\":686:1065   */\n      swap3\n      pop\n      swap3\n      swap1\n      pop\n      jump\n        /* \"--CODEGEN--\":1072:1176   */\n    tag_62:\n        /* \"--CODEGEN--\":1149:1170   */\n      tag_64\n        /* \"--CODEGEN--\":1164:1169   */\n      dup2\n        /* \"--CODEGEN--\":1149:1170   */\n      jump(tag_65)\n    tag_64:\n        /* \"--CODEGEN--\":1144:1147   */\n      dup3\n        /* \"--CODEGEN--\":1137:1171   */\n      mstore\n        /* \"--CODEGEN--\":1131:1176   */\n      pop\n      pop\n      jump\n        /* \"--CODEGEN--\":1183:1543   */\n    tag_66:\n      0x00\n        /* \"--CODEGEN--\":1313:1352   */\n      tag_68\n        /* \"--CODEGEN--\":1346:1351   */\n      dup3\n        /* \"--CODEGEN--\":1313:1352   */\n      jump(tag_69)\n    tag_68:\n        /* \"--CODEGEN--\":1364:1453   */\n      tag_70\n        /* \"--CODEGEN--\":1446:1452   */\n      dup2\n        /* \"--CODEGEN--\":1441:1444   */\n      dup6\n        /* \"--CODEGEN--\":1364:1453   */\n      jump(tag_71)\n    tag_70:\n        /* \"--CODEGEN--\":1357:1453   */\n      swap4\n      pop\n        /* \"--CODEGEN--\":1458:1510   */\n      tag_72\n        /* \"--CODEGEN--\":1503:1509   */\n      dup2\n        /* \"--CODEGEN--\":1498:1501   */\n      dup6\n        /* \"--CODEGEN--\":1491:1495   */\n      0x20\n        /* \"--CODEGEN--\":1484:1489   */\n      dup7\n        /* \"--CODEGEN--\":1480:1496   */\n      add\n        /* \"--CODEGEN--\":1458:1510   */\n      jump(tag_73)\n    tag_72:\n        /* \"--CODEGEN--\":1531:1537   */\n      dup1\n        /* \"--CODEGEN--\":1526:1529   */\n      dup5\n        /* \"--CODEGEN--\":1522:1538   */\n      add\n        /* \"--CODEGEN--\":1515:1538   */\n      swap2\n      pop\n        /* \"--CODEGEN--\":1293:1543   */\n      pop\n      swap3\n      swap2\n      pop\n      pop\n      jump\n        /* \"--CODEGEN--\":1550:1816   */\n    tag_19:\n      0x00\n        /* \"--CODEGEN--\":1696:1791   */\n      tag_75\n        /* \"--CODEGEN--\":1787:1790   */\n      dup3\n        /* \"--CODEGEN--\":1778:1784   */\n      dup5\n        /* \"--CODEGEN--\":1696:1791   */\n      jump(tag_66)\n    tag_75:\n        /* \"--CODEGEN--\":1689:1791   */\n      swap2\n      pop\n        /* \"--CODEGEN--\":1808:1811   */\n      dup2\n        /* \"--CODEGEN--\":1801:1811   */\n      swap1\n      pop\n        /* \"--CODEGEN--\":1677:1816   */\n      swap3\n      swap2\n      pop\n      pop\n      jump\n        /* \"--CODEGEN--\":1823:2024   */\n    tag_10:\n      0x00\n        /* \"--CODEGEN--\":1935:1937   */\n      0x20\n        /* \"--CODEGEN--\":1924:1933   */\n      dup3\n        /* \"--CODEGEN--\":1920:1938   */\n      add\n        /* \"--CODEGEN--\":1912:1938   */\n      swap1\n      pop\n        /* \"--CODEGEN--\":1949:2014   */\n      tag_77\n        /* \"--CODEGEN--\":2011:2012   */\n      0x00\n        /* \"--CODEGEN--\":2000:2009   */\n      dup4\n        /* \"--CODEGEN--\":1996:2013   */\n      add\n        /* \"--CODEGEN--\":1987:1993   */\n      dup5\n        /* \"--CODEGEN--\":1949:2014   */\n      jump(tag_62)\n    tag_77:\n        /* \"--CODEGEN--\":1906:2024   */\n      swap3\n      swap2\n      pop\n      pop\n      jump\n        /* \"--CODEGEN--\":2031:2287   */\n    tag_49:\n      0x00\n        /* \"--CODEGEN--\":2093:2095   */\n      0x40\n        /* \"--CODEGEN--\":2087:2096   */\n      mload\n        /* \"--CODEGEN--\":2077:2096   */\n      swap1\n      pop\n        /* \"--CODEGEN--\":2131:2135   */\n      dup2\n        /* \"--CODEGEN--\":2123:2129   */\n      dup2\n        /* \"--CODEGEN--\":2119:2136   */\n      add\n        /* \"--CODEGEN--\":2230:2236   */\n      dup2\n        /* \"--CODEGEN--\":2218:2228   */\n      dup2\n        /* \"--CODEGEN--\":2215:2237   */\n      lt\n        /* \"--CODEGEN--\":2194:2212   */\n      0xffffffffffffffff\n        /* \"--CODEGEN--\":2182:2192   */\n      dup3\n        /* \"--CODEGEN--\":2179:2213   */\n      gt\n        /* \"--CODEGEN--\":2176:2238   */\n      or\n        /* \"--CODEGEN--\":2173:2175   */\n      iszero\n      tag_79\n      jumpi\n        /* \"--CODEGEN--\":2251:2252   */\n      0x00\n        /* \"--CODEGEN--\":2248:2249   */\n      dup1\n        /* \"--CODEGEN--\":2241:2253   */\n      revert\n        /* \"--CODEGEN--\":2173:2175   */\n    tag_79:\n        /* \"--CODEGEN--\":2271:2281   */\n      dup1\n        /* \"--CODEGEN--\":2267:2269   */\n      0x40\n        /* \"--CODEGEN--\":2260:2282   */\n      mstore\n        /* \"--CODEGEN--\":2071:2287   */\n      pop\n      swap2\n      swap1\n      pop\n      jump\n        /* \"--CODEGEN--\":2294:2616   */\n    tag_48:\n      0x00\n        /* \"--CODEGEN--\":2438:2456   */\n      0xffffffffffffffff\n        /* \"--CODEGEN--\":2430:2436   */\n      dup3\n        /* \"--CODEGEN--\":2427:2457   */\n      gt\n        /* \"--CODEGEN--\":2424:2426   */\n      iszero\n      tag_81\n      jumpi\n        /* \"--CODEGEN--\":2470:2471   */\n      0x00\n        /* \"--CODEGEN--\":2467:2468   */\n      dup1\n        /* \"--CODEGEN--\":2460:2472   */\n      revert\n        /* \"--CODEGEN--\":2424:2426   */\n    tag_81:\n        /* \"--CODEGEN--\":2537:2541   */\n      0x1f\n        /* \"--CODEGEN--\":2533:2542   */\n      not\n        /* \"--CODEGEN--\":2526:2530   */\n      0x1f\n        /* \"--CODEGEN--\":2518:2524   */\n      dup4\n        /* \"--CODEGEN--\":2514:2531   */\n      add\n        /* \"--CODEGEN--\":2510:2543   */\n      and\n        /* \"--CODEGEN--\":2502:2543   */\n      swap1\n      pop\n        /* \"--CODEGEN--\":2601:2605   */\n      0x20\n        /* \"--CODEGEN--\":2595:2599   */\n      dup2\n        /* \"--CODEGEN--\":2591:2606   */\n      add\n        /* \"--CODEGEN--\":2583:2606   */\n      swap1\n      pop\n        /* \"--CODEGEN--\":2361:2616   */\n      swap2\n      swap1\n      pop\n      jump\n        /* \"--CODEGEN--\":2623:2745   */\n    tag_69:\n      0x00\n        /* \"--CODEGEN--\":2717:2722   */\n      dup2\n        /* \"--CODEGEN--\":2711:2723   */\n      mload\n        /* \"--CODEGEN--\":2701:2723   */\n      swap1\n      pop\n        /* \"--CODEGEN--\":2682:2745   */\n      swap2\n      swap1\n      pop\n      jump\n        /* \"--CODEGEN--\":2753:2898   */\n    tag_71:\n      0x00\n        /* \"--CODEGEN--\":2889:2892   */\n      dup2\n        /* \"--CODEGEN--\":2874:2892   */\n      swap1\n      pop\n        /* \"--CODEGEN--\":2867:2898   */\n      swap3\n      swap2\n      pop\n      pop\n      jump\n        /* \"--CODEGEN--\":2906:2991   */\n    tag_65:\n      0x00\n        /* \"--CODEGEN--\":2979:2984   */\n      dup2\n        /* \"--CODEGEN--\":2972:2985   */\n      iszero\n        /* \"--CODEGEN--\":2965:2986   */\n      iszero\n        /* \"--CODEGEN--\":2954:2986   */\n      swap1\n      pop\n        /* \"--CODEGEN--\":2948:2991   */\n      swap2\n      swap1\n      pop\n      jump\n        /* \"--CODEGEN--\":2998:3070   */\n    tag_85:\n      0x00\n        /* \"--CODEGEN--\":3060:3065   */\n      dup2\n        /* \"--CODEGEN--\":3049:3065   */\n      swap1\n      pop\n        /* \"--CODEGEN--\":3043:3070   */\n      swap2\n      swap1\n      pop\n      jump\n        /* \"--CODEGEN--\":3078:3223   */\n    tag_52:\n        /* \"--CODEGEN--\":3159:3165   */\n      dup3\n        /* \"--CODEGEN--\":3154:3157   */\n      dup2\n        /* \"--CODEGEN--\":3149:3152   */\n      dup4\n        /* \"--CODEGEN--\":3136:3166   */\n      calldatacopy\n        /* \"--CODEGEN--\":3215:3216   */\n      0x00\n        /* \"--CODEGEN--\":3206:3212   */\n      dup4\n        /* \"--CODEGEN--\":3201:3204   */\n      dup4\n        /* \"--CODEGEN--\":3197:3213   */\n      add\n        /* \"--CODEGEN--\":3190:3217   */\n      mstore\n        /* \"--CODEGEN--\":3129:3223   */\n      pop\n      pop\n      pop\n      jump\n        /* \"--CODEGEN--\":3232:3500   */\n    tag_73:\n        /* \"--CODEGEN--\":3297:3298   */\n      0x00\n        /* \"--CODEGEN--\":3304:3405   */\n    tag_89:\n        /* \"--CODEGEN--\":3318:3324   */\n      dup4\n        /* \"--CODEGEN--\":3315:3316   */\n      dup2\n        /* \"--CODEGEN--\":3312:3325   */\n      lt\n        /* \"--CODEGEN--\":3304:3405   */\n      iszero\n      tag_91\n      jumpi\n        /* \"--CODEGEN--\":3394:3395   */\n      dup1\n        /* \"--CODEGEN--\":3389:3392   */\n      dup3\n        /* \"--CODEGEN--\":3385:3396   */\n      add\n        /* \"--CODEGEN--\":3379:3397   */\n      mload\n        /* \"--CODEGEN--\":3375:3376   */\n      dup2\n        /* \"--CODEGEN--\":3370:3373   */\n      dup5\n        /* \"--CODEGEN--\":3366:3377   */\n      add\n        /* \"--CODEGEN--\":3359:3398   */\n      mstore\n        /* \"--CODEGEN--\":3340:3342   */\n      0x20\n        /* \"--CODEGEN--\":3337:3338   */\n      dup2\n        /* \"--CODEGEN--\":3333:3343   */\n      add\n        /* \"--CODEGEN--\":3328:3343   */\n      swap1\n      pop\n        /* \"--CODEGEN--\":3304:3405   */\n      jump(tag_89)\n    tag_91:\n        /* \"--CODEGEN--\":3420:3426   */\n      dup4\n        /* \"--CODEGEN--\":3417:3418   */\n      dup2\n        /* \"--CODEGEN--\":3414:3427   */\n      gt\n        /* \"--CODEGEN--\":3411:3413   */\n      iszero\n      tag_92\n      jumpi\n        /* \"--CODEGEN--\":3485:3486   */\n      0x00\n        /* \"--CODEGEN--\":3476:3482   */\n      dup5\n        /* \"--CODEGEN--\":3471:3474   */\n      dup5\n        /* \"--CODEGEN--\":3467:3483   */\n      add\n        /* \"--CODEGEN--\":3460:3487   */\n      mstore\n        /* \"--CODEGEN--\":3411:3413   */\n    tag_92:\n        /* \"--CODEGEN--\":3281:3500   */\n      pop\n      pop\n      pop\n      pop\n      jump\n        /* \"--CODEGEN--\":3508:3625   */\n    tag_56:\n        /* \"--CODEGEN--\":3577:3601   */\n      tag_94\n        /* \"--CODEGEN--\":3595:3600   */\n      dup2\n        /* \"--CODEGEN--\":3577:3601   */\n      jump(tag_85)\n    tag_94:\n        /* \"--CODEGEN--\":3570:3575   */\n      dup2\n        /* \"--CODEGEN--\":3567:3602   */\n      eq\n        /* \"--CODEGEN--\":3557:3559   */\n      tag_95\n      jumpi\n        /* \"--CODEGEN--\":3616:3617   */\n      0x00\n        /* \"--CODEGEN--\":3613:3614   */\n      dup1\n        /* \"--CODEGEN--\":3606:3618   */\n      revert\n        /* \"--CODEGEN--\":3557:3559   */\n    tag_95:\n        /* \"--CODEGEN--\":3551:3625   */\n      pop\n      jump\n\n    auxdata: 0xa26469706673582212200024e7cb2829eb1ad9dbfc3cb42b2fc4e271b45309a3bfbeafa54337ffaa0fa464736f6c63430006000033\n}\n",
				"bytecode": {
					"linkReferences": {},
					"object": "60806040526000805534801561001457600080fd5b506105bd806100246000396000f3fe6080604052600436106100295760003560e01c806345cd81b31461002e5780639dbc76091461006b575b600080fd5b34801561003a57600080fd5b50610055600480360361005091908101906103e3565b610087565b604051610062919061048e565b60405180910390f35b610085600480360361008091908101906103e3565b6100f5565b005b6000610093838361018a565b156100ea57816001846040516100a99190610477565b908152602001604051809103902060030154016001846040516100cc9190610477565b908152602001604051809103902060030181905550600190506100ef565b600090505b92915050565b6040518060800160405280600054815260200183815260200182815260200160008152506001836040516101299190610477565b908152602001604051809103902060008201518160000155602082015181600101908051906020019061015d9291906102ad565b50604082015181600201556060820151816003015590505060008081548092919060010191905055505050565b6000806000905061019961032d565b6001856040516101a99190610477565b908152602001604051809103902060405180608001604052908160008201548152602001600182018054600181600116156101000203166002900480601f0160208091040260200160405190810160405280929190818152602001828054600181600116156101000203166002900480156102655780601f1061023a57610100808354040283529160200191610265565b820191906000526020600020905b81548152906001019060200180831161024857829003601f168201915b50505050508152602001600282015481526020016003820154815250509050838160600151018160400151106102a0576001925050506102a7565b6000925050505b92915050565b828054600181600116156101000203166002900490600052602060002090601f016020900481019282601f106102ee57805160ff191683800117855561031c565b8280016001018555821561031c579182015b8281111561031b578251825591602001919060010190610300565b5b5090506103299190610355565b5090565b6040518060800160405280600081526020016060815260200160008152602001600081525090565b61037791905b8082111561037357600081600090555060010161035b565b5090565b90565b600082601f83011261038b57600080fd5b813561039e610399826104d6565b6104a9565b915080825260208301602083018583830111156103ba57600080fd5b6103c583828461052e565b50505092915050565b6000813590506103dd81610570565b92915050565b600080604083850312156103f657600080fd5b600083013567ffffffffffffffff81111561041057600080fd5b61041c8582860161037a565b925050602061042d858286016103ce565b9150509250929050565b61044081610518565b82525050565b600061045182610502565b61045b818561050d565b935061046b81856020860161053d565b80840191505092915050565b60006104838284610446565b915081905092915050565b60006020820190506104a36000830184610437565b92915050565b6000604051905081810181811067ffffffffffffffff821117156104cc57600080fd5b8060405250919050565b600067ffffffffffffffff8211156104ed57600080fd5b601f19601f8301169050602081019050919050565b600081519050919050565b600081905092915050565b60008115159050919050565b6000819050919050565b82818337600083830152505050565b60005b8381101561055b578082015181840152602081019050610540565b8381111561056a576000848401525b50505050565b61057981610524565b811461058457600080fd5b5056fea26469706673582212200024e7cb2829eb1ad9dbfc3cb42b2fc4e271b45309a3bfbeafa54337ffaa0fa464736f6c63430006000033",
					"opcodes": "PUSH1 0x80 PUSH1 0x40 MSTORE PUSH1 0x0 DUP1 SSTORE CALLVALUE DUP1 ISZERO PUSH2 0x14 JUMPI PUSH1 0x0 DUP1 REVERT JUMPDEST POP PUSH2 0x5BD DUP1 PUSH2 0x24 PUSH1 0x0 CODECOPY PUSH1 0x0 RETURN INVALID PUSH1 0x80 PUSH1 0x40 MSTORE PUSH1 0x4 CALLDATASIZE LT PUSH2 0x29 JUMPI PUSH1 0x0 CALLDATALOAD PUSH1 0xE0 SHR DUP1 PUSH4 0x45CD81B3 EQ PUSH2 0x2E JUMPI DUP1 PUSH4 0x9DBC7609 EQ PUSH2 0x6B JUMPI JUMPDEST PUSH1 0x0 DUP1 REVERT JUMPDEST CALLVALUE DUP1 ISZERO PUSH2 0x3A JUMPI PUSH1 0x0 DUP1 REVERT JUMPDEST POP PUSH2 0x55 PUSH1 0x4 DUP1 CALLDATASIZE SUB PUSH2 0x50 SWAP2 SWAP1 DUP2 ADD SWAP1 PUSH2 0x3E3 JUMP JUMPDEST PUSH2 0x87 JUMP JUMPDEST PUSH1 0x40 MLOAD PUSH2 0x62 SWAP2 SWAP1 PUSH2 0x48E JUMP JUMPDEST PUSH1 0x40 MLOAD DUP1 SWAP2 SUB SWAP1 RETURN JUMPDEST PUSH2 0x85 PUSH1 0x4 DUP1 CALLDATASIZE SUB PUSH2 0x80 SWAP2 SWAP1 DUP2 ADD SWAP1 PUSH2 0x3E3 JUMP JUMPDEST PUSH2 0xF5 JUMP JUMPDEST STOP JUMPDEST PUSH1 0x0 PUSH2 0x93 DUP4 DUP4 PUSH2 0x18A JUMP JUMPDEST ISZERO PUSH2 0xEA JUMPI DUP2 PUSH1 0x1 DUP5 PUSH1 0x40 MLOAD PUSH2 0xA9 SWAP2 SWAP1 PUSH2 0x477 JUMP JUMPDEST SWAP1 DUP2 MSTORE PUSH1 0x20 ADD PUSH1 0x40 MLOAD DUP1 SWAP2 SUB SWAP1 KECCAK256 PUSH1 0x3 ADD SLOAD ADD PUSH1 0x1 DUP5 PUSH1 0x40 MLOAD PUSH2 0xCC SWAP2 SWAP1 PUSH2 0x477 JUMP JUMPDEST SWAP1 DUP2 MSTORE PUSH1 0x20 ADD PUSH1 0x40 MLOAD DUP1 SWAP2 SUB SWAP1 KECCAK256 PUSH1 0x3 ADD DUP2 SWAP1 SSTORE POP PUSH1 0x1 SWAP1 POP PUSH2 0xEF JUMP JUMPDEST PUSH1 0x0 SWAP1 POP JUMPDEST SWAP3 SWAP2 POP POP JUMP JUMPDEST PUSH1 0x40 MLOAD DUP1 PUSH1 0x80 ADD PUSH1 0x40 MSTORE DUP1 PUSH1 0x0 SLOAD DUP2 MSTORE PUSH1 0x20 ADD DUP4 DUP2 MSTORE PUSH1 0x20 ADD DUP3 DUP2 MSTORE PUSH1 0x20 ADD PUSH1 0x0 DUP2 MSTORE POP PUSH1 0x1 DUP4 PUSH1 0x40 MLOAD PUSH2 0x129 SWAP2 SWAP1 PUSH2 0x477 JUMP JUMPDEST SWAP1 DUP2 MSTORE PUSH1 0x20 ADD PUSH1 0x40 MLOAD DUP1 SWAP2 SUB SWAP1 KECCAK256 PUSH1 0x0 DUP3 ADD MLOAD DUP2 PUSH1 0x0 ADD SSTORE PUSH1 0x20 DUP3 ADD MLOAD DUP2 PUSH1 0x1 ADD SWAP1 DUP1 MLOAD SWAP1 PUSH1 0x20 ADD SWAP1 PUSH2 0x15D SWAP3 SWAP2 SWAP1 PUSH2 0x2AD JUMP JUMPDEST POP PUSH1 0x40 DUP3 ADD MLOAD DUP2 PUSH1 0x2 ADD SSTORE PUSH1 0x60 DUP3 ADD MLOAD DUP2 PUSH1 0x3 ADD SSTORE SWAP1 POP POP PUSH1 0x0 DUP1 DUP2 SLOAD DUP1 SWAP3 SWAP2 SWAP1 PUSH1 0x1 ADD SWAP2 SWAP1 POP SSTORE POP POP POP JUMP JUMPDEST PUSH1 0x0 DUP1 PUSH1 0x0 SWAP1 POP PUSH2 0x199 PUSH2 0x32D JUMP JUMPDEST PUSH1 0x1 DUP6 PUSH1 0x40 MLOAD PUSH2 0x1A9 SWAP2 SWAP1 PUSH2 0x477 JUMP JUMPDEST SWAP1 DUP2 MSTORE PUSH1 0x20 ADD PUSH1 0x40 MLOAD DUP1 SWAP2 SUB SWAP1 KECCAK256 PUSH1 0x40 MLOAD DUP1 PUSH1 0x80 ADD PUSH1 0x40 MSTORE SWAP1 DUP2 PUSH1 0x0 DUP3 ADD SLOAD DUP2 MSTORE PUSH1 0x20 ADD PUSH1 0x1 DUP3 ADD DUP1 SLOAD PUSH1 0x1 DUP2 PUSH1 0x1 AND ISZERO PUSH2 0x100 MUL SUB AND PUSH1 0x2 SWAP1 DIV DUP1 PUSH1 0x1F ADD PUSH1 0x20 DUP1 SWAP2 DIV MUL PUSH1 0x20 ADD PUSH1 0x40 MLOAD SWAP1 DUP2 ADD PUSH1 0x40 MSTORE DUP1 SWAP3 SWAP2 SWAP1 DUP2 DUP2 MSTORE PUSH1 0x20 ADD DUP3 DUP1 SLOAD PUSH1 0x1 DUP2 PUSH1 0x1 AND ISZERO PUSH2 0x100 MUL SUB AND PUSH1 0x2 SWAP1 DIV DUP1 ISZERO PUSH2 0x265 JUMPI DUP1 PUSH1 0x1F LT PUSH2 0x23A JUMPI PUSH2 0x100 DUP1 DUP4 SLOAD DIV MUL DUP4 MSTORE SWAP2 PUSH1 0x20 ADD SWAP2 PUSH2 0x265 JUMP JUMPDEST DUP3 ADD SWAP2 SWAP1 PUSH1 0x0 MSTORE PUSH1 0x20 PUSH1 0x0 KECCAK256 SWAP1 JUMPDEST DUP2 SLOAD DUP2 MSTORE SWAP1 PUSH1 0x1 ADD SWAP1 PUSH1 0x20 ADD DUP1 DUP4 GT PUSH2 0x248 JUMPI DUP3 SWAP1 SUB PUSH1 0x1F AND DUP3 ADD SWAP2 JUMPDEST POP POP POP POP POP DUP2 MSTORE PUSH1 0x20 ADD PUSH1 0x2 DUP3 ADD SLOAD DUP2 MSTORE PUSH1 0x20 ADD PUSH1 0x3 DUP3 ADD SLOAD DUP2 MSTORE POP POP SWAP1 POP DUP4 DUP2 PUSH1 0x60 ADD MLOAD ADD DUP2 PUSH1 0x40 ADD MLOAD LT PUSH2 0x2A0 JUMPI PUSH1 0x1 SWAP3 POP POP POP PUSH2 0x2A7 JUMP JUMPDEST PUSH1 0x0 SWAP3 POP POP POP JUMPDEST SWAP3 SWAP2 POP POP JUMP JUMPDEST DUP3 DUP1 SLOAD PUSH1 0x1 DUP2 PUSH1 0x1 AND ISZERO PUSH2 0x100 MUL SUB AND PUSH1 0x2 SWAP1 DIV SWAP1 PUSH1 0x0 MSTORE PUSH1 0x20 PUSH1 0x0 KECCAK256 SWAP1 PUSH1 0x1F ADD PUSH1 0x20 SWAP1 DIV DUP2 ADD SWAP3 DUP3 PUSH1 0x1F LT PUSH2 0x2EE JUMPI DUP1 MLOAD PUSH1 0xFF NOT AND DUP4 DUP1 ADD OR DUP6 SSTORE PUSH2 0x31C JUMP JUMPDEST DUP3 DUP1 ADD PUSH1 0x1 ADD DUP6 SSTORE DUP3 ISZERO PUSH2 0x31C JUMPI SWAP2 DUP3 ADD JUMPDEST DUP3 DUP2 GT ISZERO PUSH2 0x31B JUMPI DUP3 MLOAD DUP3 SSTORE SWAP2 PUSH1 0x20 ADD SWAP2 SWAP1 PUSH1 0x1 ADD SWAP1 PUSH2 0x300 JUMP JUMPDEST JUMPDEST POP SWAP1 POP PUSH2 0x329 SWAP2 SWAP1 PUSH2 0x355 JUMP JUMPDEST POP SWAP1 JUMP JUMPDEST PUSH1 0x40 MLOAD DUP1 PUSH1 0x80 ADD PUSH1 0x40 MSTORE DUP1 PUSH1 0x0 DUP2 MSTORE PUSH1 0x20 ADD PUSH1 0x60 DUP2 MSTORE PUSH1 0x20 ADD PUSH1 0x0 DUP2 MSTORE PUSH1 0x20 ADD PUSH1 0x0 DUP2 MSTORE POP SWAP1 JUMP JUMPDEST PUSH2 0x377 SWAP2 SWAP1 JUMPDEST DUP1 DUP3 GT ISZERO PUSH2 0x373 JUMPI PUSH1 0x0 DUP2 PUSH1 0x0 SWAP1 SSTORE POP PUSH1 0x1 ADD PUSH2 0x35B JUMP JUMPDEST POP SWAP1 JUMP JUMPDEST SWAP1 JUMP JUMPDEST PUSH1 0x0 DUP3 PUSH1 0x1F DUP4 ADD SLT PUSH2 0x38B JUMPI PUSH1 0x0 DUP1 REVERT JUMPDEST DUP2 CALLDATALOAD PUSH2 0x39E PUSH2 0x399 DUP3 PUSH2 0x4D6 JUMP JUMPDEST PUSH2 0x4A9 JUMP JUMPDEST SWAP2 POP DUP1 DUP3 MSTORE PUSH1 0x20 DUP4 ADD PUSH1 0x20 DUP4 ADD DUP6 DUP4 DUP4 ADD GT ISZERO PUSH2 0x3BA JUMPI PUSH1 0x0 DUP1 REVERT JUMPDEST PUSH2 0x3C5 DUP4 DUP3 DUP5 PUSH2 0x52E JUMP JUMPDEST POP POP POP SWAP3 SWAP2 POP POP JUMP JUMPDEST PUSH1 0x0 DUP2 CALLDATALOAD SWAP1 POP PUSH2 0x3DD DUP2 PUSH2 0x570 JUMP JUMPDEST SWAP3 SWAP2 POP POP JUMP JUMPDEST PUSH1 0x0 DUP1 PUSH1 0x40 DUP4 DUP6 SUB SLT ISZERO PUSH2 0x3F6 JUMPI PUSH1 0x0 DUP1 REVERT JUMPDEST PUSH1 0x0 DUP4 ADD CALLDATALOAD PUSH8 0xFFFFFFFFFFFFFFFF DUP2 GT ISZERO PUSH2 0x410 JUMPI PUSH1 0x0 DUP1 REVERT JUMPDEST PUSH2 0x41C DUP6 DUP3 DUP7 ADD PUSH2 0x37A JUMP JUMPDEST SWAP3 POP POP PUSH1 0x20 PUSH2 0x42D DUP6 DUP3 DUP7 ADD PUSH2 0x3CE JUMP JUMPDEST SWAP2 POP POP SWAP3 POP SWAP3 SWAP1 POP JUMP JUMPDEST PUSH2 0x440 DUP2 PUSH2 0x518 JUMP JUMPDEST DUP3 MSTORE POP POP JUMP JUMPDEST PUSH1 0x0 PUSH2 0x451 DUP3 PUSH2 0x502 JUMP JUMPDEST PUSH2 0x45B DUP2 DUP6 PUSH2 0x50D JUMP JUMPDEST SWAP4 POP PUSH2 0x46B DUP2 DUP6 PUSH1 0x20 DUP7 ADD PUSH2 0x53D JUMP JUMPDEST DUP1 DUP5 ADD SWAP2 POP POP SWAP3 SWAP2 POP POP JUMP JUMPDEST PUSH1 0x0 PUSH2 0x483 DUP3 DUP5 PUSH2 0x446 JUMP JUMPDEST SWAP2 POP DUP2 SWAP1 POP SWAP3 SWAP2 POP POP JUMP JUMPDEST PUSH1 0x0 PUSH1 0x20 DUP3 ADD SWAP1 POP PUSH2 0x4A3 PUSH1 0x0 DUP4 ADD DUP5 PUSH2 0x437 JUMP JUMPDEST SWAP3 SWAP2 POP POP JUMP JUMPDEST PUSH1 0x0 PUSH1 0x40 MLOAD SWAP1 POP DUP2 DUP2 ADD DUP2 DUP2 LT PUSH8 0xFFFFFFFFFFFFFFFF DUP3 GT OR ISZERO PUSH2 0x4CC JUMPI PUSH1 0x0 DUP1 REVERT JUMPDEST DUP1 PUSH1 0x40 MSTORE POP SWAP2 SWAP1 POP JUMP JUMPDEST PUSH1 0x0 PUSH8 0xFFFFFFFFFFFFFFFF DUP3 GT ISZERO PUSH2 0x4ED JUMPI PUSH1 0x0 DUP1 REVERT JUMPDEST PUSH1 0x1F NOT PUSH1 0x1F DUP4 ADD AND SWAP1 POP PUSH1 0x20 DUP2 ADD SWAP1 POP SWAP2 SWAP1 POP JUMP JUMPDEST PUSH1 0x0 DUP2 MLOAD SWAP1 POP SWAP2 SWAP1 POP JUMP JUMPDEST PUSH1 0x0 DUP2 SWAP1 POP SWAP3 SWAP2 POP POP JUMP JUMPDEST PUSH1 0x0 DUP2 ISZERO ISZERO SWAP1 POP SWAP2 SWAP1 POP JUMP JUMPDEST PUSH1 0x0 DUP2 SWAP1 POP SWAP2 SWAP1 POP JUMP JUMPDEST DUP3 DUP2 DUP4 CALLDATACOPY PUSH1 0x0 DUP4 DUP4 ADD MSTORE POP POP POP JUMP JUMPDEST PUSH1 0x0 JUMPDEST DUP4 DUP2 LT ISZERO PUSH2 0x55B JUMPI DUP1 DUP3 ADD MLOAD DUP2 DUP5 ADD MSTORE PUSH1 0x20 DUP2 ADD SWAP1 POP PUSH2 0x540 JUMP JUMPDEST DUP4 DUP2 GT ISZERO PUSH2 0x56A JUMPI PUSH1 0x0 DUP5 DUP5 ADD MSTORE JUMPDEST POP POP POP POP JUMP JUMPDEST PUSH2 0x579 DUP2 PUSH2 0x524 JUMP JUMPDEST DUP2 EQ PUSH2 0x584 JUMPI PUSH1 0x0 DUP1 REVERT JUMPDEST POP JUMP INVALID LOG2 PUSH5 0x6970667358 0x22 SLT KECCAK256 STOP 0x24 0xE7 0xCB 0x28 0x29 0xEB BYTE 0xD9 0xDB 0xFC EXTCODECOPY 0xB4 0x2B 0x2F 0xC4 0xE2 PUSH18 0xB45309A3BFBEAFA54337FFAA0FA464736F6C PUSH4 0x43000600 STOP CALLER "
				},
				"gasEstimates": {
					"creation": {
						"codeDepositCost": "293800",
						"executionCost": "5337",
						"totalCost": "299137"
					},
					"external": {
						"crearCausa(string,uint256)": "infinite",
						"donar(string,uint256)": "infinite"
					},
					"internal": {
						"ObjetivoCumplido(string memory,uint256)": "infinite"
					}
				},
				"methodIdentifiers": {
					"crearCausa(string,uint256)": "9dbc7609",
					"donar(string,uint256)": "45cd81b3"
				}
			},
			"storageLayout": {
				"storage": [
					{
						"astId": 14,
						"contract": "Funciones/ong.sol:CausasBeneficas",
						"label": "contador_causas",
						"offset": 0,
						"slot": "0",
						"type": "t_uint256"
					},
					{
						"astId": 18,
						"contract": "Funciones/ong.sol:CausasBeneficas",
						"label": "causas",
						"offset": 0,
						"slot": "1",
						"type": "t_mapping(t_string_memory,t_struct(Causa)11_storage)"
					}
				],
				"types": {
					"t_mapping(t_string_memory,t_struct(Causa)11_storage)": {
						"encoding": "mapping",
						"key": "t_string_memory",
						"label": "mapping(string => struct CausasBeneficas.Causa)",
						"numberOfBytes": "32",
						"value": "t_struct(Causa)11_storage"
					},
					"t_string_memory": {
						"encoding": "bytes",
						"label": "string",
						"numberOfBytes": "32"
					},
					"t_string_storage": {
						"encoding": "bytes",
						"label": "string",
						"numberOfBytes": "32"
					},
					"t_struct(Causa)11_storage": {
						"encoding": "inplace",
						"label": "struct CausasBeneficas.Causa",
						"members": [
							{
								"astId": 4,
								"contract": "Funciones/ong.sol:CausasBeneficas",
								"label": "id",
								"offset": 0,
								"slot": "0",
								"type": "t_uint256"
							},
							{
								"astId": 6,
								"contract": "Funciones/ong.sol:CausasBeneficas",
								"label": "nombre",
								"offset": 0,
								"slot": "1",
								"type": "t_string_storage"
							},
							{
								"astId": 8,
								"contract": "Funciones/ong.sol:CausasBeneficas",
								"label": "precio_objetivo",
								"offset": 0,
								"slot": "2",
								"type": "t_uint256"
							},
							{
								"astId": 10,
								"contract": "Funciones/ong.sol:CausasBeneficas",
								"label": "cantidad_recaudada",
								"offset": 0,
								"slot": "3",
								"type": "t_uint256"
							}
						],
						"numberOfBytes": "128"
					},
					"t_uint256": {
						"encoding": "inplace",
						"label": "uint256",
						"numberOfBytes": "32"
					}
				}
			},
			"userdoc": {
				"methods": {}
			}
		}
	}
}