{
	"Funciones/ong.sol": {
		"CausasBeneficas": {
			"abi": [
				{
					"inputs": [
						{
							"internalType": "string",
							"name": "_nombre",
							"type": "string"
						},
						{
							"internalType": "uint256",
							"name": "_precio_objetivo",
							"type": "uint256"
						}
					],
					"name": "crearCausa",
					"outputs": [],
					"stateMutability": "payable",
					"type": "function"
				}
			],
			"devdoc": {
				"methods": {}
			},
			"evm": {
				"assembly": "    /* \"Funciones/ong.sol\":62:511  contract CausasBeneficas{\r... */\n  mstore(0x40, 0x80)\n    /* \"Funciones/ong.sol\":251:252  0 */\n  0x00\n    /* \"Funciones/ong.sol\":228:252  uint contador_causas = 0 */\n  dup1\n  sstore\n    /* \"Funciones/ong.sol\":62:511  contract CausasBeneficas{\r... */\n  callvalue\n    /* \"--CODEGEN--\":8:17   */\n  dup1\n    /* \"--CODEGEN--\":5:7   */\n  iszero\n  tag_1\n  jumpi\n    /* \"--CODEGEN--\":30:31   */\n  0x00\n    /* \"--CODEGEN--\":27:28   */\n  dup1\n    /* \"--CODEGEN--\":20:32   */\n  revert\n    /* \"--CODEGEN--\":5:7   */\ntag_1:\n    /* \"Funciones/ong.sol\":62:511  contract CausasBeneficas{\r... */\n  pop\n  dataSize(sub_0)\n  dup1\n  dataOffset(sub_0)\n  0x00\n  codecopy\n  0x00\n  return\nstop\n\nsub_0: assembly {\n        /* \"Funciones/ong.sol\":62:511  contract CausasBeneficas{\r... */\n      mstore(0x40, 0x80)\n      jumpi(tag_1, lt(calldatasize, 0x04))\n      shr(0xe0, calldataload(0x00))\n      dup1\n      0x9dbc7609\n      eq\n      tag_2\n      jumpi\n    tag_1:\n      0x00\n      dup1\n      revert\n        /* \"Funciones/ong.sol\":300:508  function crearCausa(string memory _nombre, uint _precio_objetivo) public payable {\r... */\n    tag_2:\n      tag_3\n      0x04\n      dup1\n      calldatasize\n      sub\n      tag_4\n      swap2\n      swap1\n      dup2\n      add\n      swap1\n      jump(tag_5)\n    tag_4:\n      tag_6\n      jump\t// in\n    tag_3:\n      stop\n    tag_6:\n        /* \"Funciones/ong.sol\":420:472  Causa(contador_causas, _nombre, _precio_objetivo, 0) */\n      mload(0x40)\n      dup1\n      0x80\n      add\n      0x40\n      mstore\n      dup1\n        /* \"Funciones/ong.sol\":426:441  contador_causas */\n      sload(0x00)\n        /* \"Funciones/ong.sol\":420:472  Causa(contador_causas, _nombre, _precio_objetivo, 0) */\n      dup2\n      mstore\n      0x20\n      add\n        /* \"Funciones/ong.sol\":443:450  _nombre */\n      dup4\n        /* \"Funciones/ong.sol\":420:472  Causa(contador_causas, _nombre, _precio_objetivo, 0) */\n      dup2\n      mstore\n      0x20\n      add\n        /* \"Funciones/ong.sol\":452:468  _precio_objetivo */\n      dup3\n        /* \"Funciones/ong.sol\":420:472  Causa(contador_causas, _nombre, _precio_objetivo, 0) */\n      dup2\n      mstore\n      0x20\n      add\n        /* \"Funciones/ong.sol\":470:471  0 */\n      0x00\n        /* \"Funciones/ong.sol\":420:472  Causa(contador_causas, _nombre, _precio_objetivo, 0) */\n      dup2\n      mstore\n      pop\n        /* \"Funciones/ong.sol\":402:408  causas */\n      0x01\n        /* \"Funciones/ong.sol\":409:416  _nombre */\n      dup4\n        /* \"Funciones/ong.sol\":402:417  causas[_nombre] */\n      mload(0x40)\n      tag_8\n      swap2\n      swap1\n      jump(tag_9)\n    tag_8:\n      swap1\n      dup2\n      mstore\n      0x20\n      add\n      mload(0x40)\n      dup1\n      swap2\n      sub\n      swap1\n      keccak256\n        /* \"Funciones/ong.sol\":402:472  causas[_nombre] = Causa(contador_causas, _nombre, _precio_objetivo, 0) */\n      0x00\n      dup3\n      add\n      mload\n      dup2\n      0x00\n      add\n      sstore\n      0x20\n      dup3\n      add\n      mload\n      dup2\n      0x01\n      add\n      swap1\n      dup1\n      mload\n      swap1\n      0x20\n      add\n      swap1\n      tag_10\n      swap3\n      swap2\n      swap1\n      tag_11\n      jump\t// in\n    tag_10:\n      pop\n      0x40\n      dup3\n      add\n      mload\n      dup2\n      0x02\n      add\n      sstore\n      0x60\n      dup3\n      add\n      mload\n      dup2\n      0x03\n      add\n      sstore\n      swap1\n      pop\n      pop\n        /* \"Funciones/ong.sol\":483:498  contador_causas */\n      0x00\n      dup1\n        /* \"Funciones/ong.sol\":483:500  contador_causas++ */\n      dup2\n      sload\n      dup1\n      swap3\n      swap2\n      swap1\n      0x01\n      add\n      swap2\n      swap1\n      pop\n      sstore\n      pop\n        /* \"Funciones/ong.sol\":300:508  function crearCausa(string memory _nombre, uint _precio_objetivo) public payable {\r... */\n      pop\n      pop\n      jump\t// out\n        /* \"Funciones/ong.sol\":62:511  contract CausasBeneficas{\r... */\n    tag_11:\n      dup3\n      dup1\n      sload\n      0x01\n      dup2\n      0x01\n      and\n      iszero\n      0x0100\n      mul\n      sub\n      and\n      0x02\n      swap1\n      div\n      swap1\n      0x00\n      mstore\n      keccak256(0x00, 0x20)\n      swap1\n      0x1f\n      add\n      0x20\n      swap1\n      div\n      dup2\n      add\n      swap3\n      dup3\n      0x1f\n      lt\n      tag_13\n      jumpi\n      dup1\n      mload\n      not(0xff)\n      and\n      dup4\n      dup1\n      add\n      or\n      dup6\n      sstore\n      jump(tag_12)\n    tag_13:\n      dup3\n      dup1\n      add\n      0x01\n      add\n      dup6\n      sstore\n      dup3\n      iszero\n      tag_12\n      jumpi\n      swap2\n      dup3\n      add\n    tag_14:\n      dup3\n      dup2\n      gt\n      iszero\n      tag_15\n      jumpi\n      dup3\n      mload\n      dup3\n      sstore\n      swap2\n      0x20\n      add\n      swap2\n      swap1\n      0x01\n      add\n      swap1\n      jump(tag_14)\n    tag_15:\n    tag_12:\n      pop\n      swap1\n      pop\n      tag_16\n      swap2\n      swap1\n      tag_17\n      jump\t// in\n    tag_16:\n      pop\n      swap1\n      jump\t// out\n    tag_17:\n      tag_18\n      swap2\n      swap1\n    tag_19:\n      dup1\n      dup3\n      gt\n      iszero\n      tag_20\n      jumpi\n      0x00\n      dup2\n      0x00\n      swap1\n      sstore\n      pop\n      0x01\n      add\n      jump(tag_19)\n    tag_20:\n      pop\n      swap1\n      jump\n    tag_18:\n      swap1\n      jump\t// out\n        /* \"--CODEGEN--\":6:448   */\n    tag_22:\n      0x00\n        /* \"--CODEGEN--\":108:111   */\n      dup3\n        /* \"--CODEGEN--\":101:105   */\n      0x1f\n        /* \"--CODEGEN--\":93:99   */\n      dup4\n        /* \"--CODEGEN--\":89:106   */\n      add\n        /* \"--CODEGEN--\":85:112   */\n      slt\n        /* \"--CODEGEN--\":75:77   */\n      tag_24\n      jumpi\n        /* \"--CODEGEN--\":126:127   */\n      0x00\n        /* \"--CODEGEN--\":123:124   */\n      dup1\n        /* \"--CODEGEN--\":116:128   */\n      revert\n        /* \"--CODEGEN--\":75:77   */\n    tag_24:\n        /* \"--CODEGEN--\":163:169   */\n      dup2\n        /* \"--CODEGEN--\":150:170   */\n      calldataload\n        /* \"--CODEGEN--\":185:250   */\n      tag_25\n        /* \"--CODEGEN--\":200:249   */\n      tag_26\n        /* \"--CODEGEN--\":242:248   */\n      dup3\n        /* \"--CODEGEN--\":200:249   */\n      jump(tag_27)\n    tag_26:\n        /* \"--CODEGEN--\":185:250   */\n      jump(tag_28)\n    tag_25:\n        /* \"--CODEGEN--\":176:250   */\n      swap2\n      pop\n        /* \"--CODEGEN--\":270:276   */\n      dup1\n        /* \"--CODEGEN--\":263:268   */\n      dup3\n        /* \"--CODEGEN--\":256:277   */\n      mstore\n        /* \"--CODEGEN--\":306:310   */\n      0x20\n        /* \"--CODEGEN--\":298:304   */\n      dup4\n        /* \"--CODEGEN--\":294:311   */\n      add\n        /* \"--CODEGEN--\":339:343   */\n      0x20\n        /* \"--CODEGEN--\":332:337   */\n      dup4\n        /* \"--CODEGEN--\":328:344   */\n      add\n        /* \"--CODEGEN--\":374:377   */\n      dup6\n        /* \"--CODEGEN--\":365:371   */\n      dup4\n        /* \"--CODEGEN--\":360:363   */\n      dup4\n        /* \"--CODEGEN--\":356:372   */\n      add\n        /* \"--CODEGEN--\":353:378   */\n      gt\n        /* \"--CODEGEN--\":350:352   */\n      iszero\n      tag_29\n      jumpi\n        /* \"--CODEGEN--\":391:392   */\n      0x00\n        /* \"--CODEGEN--\":388:389   */\n      dup1\n        /* \"--CODEGEN--\":381:393   */\n      revert\n        /* \"--CODEGEN--\":350:352   */\n    tag_29:\n        /* \"--CODEGEN--\":401:442   */\n      tag_30\n        /* \"--CODEGEN--\":435:441   */\n      dup4\n        /* \"--CODEGEN--\":430:433   */\n      dup3\n        /* \"--CODEGEN--\":425:428   */\n      dup5\n        /* \"--CODEGEN--\":401:442   */\n      jump(tag_31)\n    tag_30:\n        /* \"--CODEGEN--\":68:448   */\n      pop\n      pop\n      pop\n      swap3\n      swap2\n      pop\n      pop\n      jump\n        /* \"--CODEGEN--\":456:586   */\n    tag_32:\n      0x00\n        /* \"--CODEGEN--\":536:542   */\n      dup2\n        /* \"--CODEGEN--\":523:543   */\n      calldataload\n        /* \"--CODEGEN--\":514:543   */\n      swap1\n      pop\n        /* \"--CODEGEN--\":548:581   */\n      tag_34\n        /* \"--CODEGEN--\":575:580   */\n      dup2\n        /* \"--CODEGEN--\":548:581   */\n      jump(tag_35)\n    tag_34:\n        /* \"--CODEGEN--\":508:586   */\n      swap3\n      swap2\n      pop\n      pop\n      jump\n        /* \"--CODEGEN--\":593:1065   */\n    tag_5:\n      0x00\n      dup1\n        /* \"--CODEGEN--\":724:726   */\n      0x40\n        /* \"--CODEGEN--\":712:721   */\n      dup4\n        /* \"--CODEGEN--\":703:710   */\n      dup6\n        /* \"--CODEGEN--\":699:722   */\n      sub\n        /* \"--CODEGEN--\":695:727   */\n      slt\n        /* \"--CODEGEN--\":692:694   */\n      iszero\n      tag_37\n      jumpi\n        /* \"--CODEGEN--\":740:741   */\n      0x00\n        /* \"--CODEGEN--\":737:738   */\n      dup1\n        /* \"--CODEGEN--\":730:742   */\n      revert\n        /* \"--CODEGEN--\":692:694   */\n    tag_37:\n        /* \"--CODEGEN--\":803:804   */\n      0x00\n        /* \"--CODEGEN--\":792:801   */\n      dup4\n        /* \"--CODEGEN--\":788:805   */\n      add\n        /* \"--CODEGEN--\":775:806   */\n      calldataload\n        /* \"--CODEGEN--\":826:844   */\n      0xffffffffffffffff\n        /* \"--CODEGEN--\":818:824   */\n      dup2\n        /* \"--CODEGEN--\":815:845   */\n      gt\n        /* \"--CODEGEN--\":812:814   */\n      iszero\n      tag_38\n      jumpi\n        /* \"--CODEGEN--\":858:859   */\n      0x00\n        /* \"--CODEGEN--\":855:856   */\n      dup1\n        /* \"--CODEGEN--\":848:860   */\n      revert\n        /* \"--CODEGEN--\":812:814   */\n    tag_38:\n        /* \"--CODEGEN--\":878:941   */\n      tag_39\n        /* \"--CODEGEN--\":933:940   */\n      dup6\n        /* \"--CODEGEN--\":924:930   */\n      dup3\n        /* \"--CODEGEN--\":913:922   */\n      dup7\n        /* \"--CODEGEN--\":909:931   */\n      add\n        /* \"--CODEGEN--\":878:941   */\n      jump(tag_22)\n    tag_39:\n        /* \"--CODEGEN--\":868:941   */\n      swap3\n      pop\n        /* \"--CODEGEN--\":754:947   */\n      pop\n        /* \"--CODEGEN--\":978:980   */\n      0x20\n        /* \"--CODEGEN--\":996:1049   */\n      tag_40\n        /* \"--CODEGEN--\":1041:1048   */\n      dup6\n        /* \"--CODEGEN--\":1032:1038   */\n      dup3\n        /* \"--CODEGEN--\":1021:1030   */\n      dup7\n        /* \"--CODEGEN--\":1017:1039   */\n      add\n        /* \"--CODEGEN--\":996:1049   */\n      jump(tag_32)\n    tag_40:\n        /* \"--CODEGEN--\":986:1049   */\n      swap2\n      pop\n        /* \"--CODEGEN--\":957:1055   */\n      pop\n        /* \"--CODEGEN--\":686:1065   */\n      swap3\n      pop\n      swap3\n      swap1\n      pop\n      jump\n        /* \"--CODEGEN--\":1072:1432   */\n    tag_41:\n      0x00\n        /* \"--CODEGEN--\":1202:1241   */\n      tag_43\n        /* \"--CODEGEN--\":1235:1240   */\n      dup3\n        /* \"--CODEGEN--\":1202:1241   */\n      jump(tag_44)\n    tag_43:\n        /* \"--CODEGEN--\":1253:1342   */\n      tag_45\n        /* \"--CODEGEN--\":1335:1341   */\n      dup2\n        /* \"--CODEGEN--\":1330:1333   */\n      dup6\n        /* \"--CODEGEN--\":1253:1342   */\n      jump(tag_46)\n    tag_45:\n        /* \"--CODEGEN--\":1246:1342   */\n      swap4\n      pop\n        /* \"--CODEGEN--\":1347:1399   */\n      tag_47\n        /* \"--CODEGEN--\":1392:1398   */\n      dup2\n        /* \"--CODEGEN--\":1387:1390   */\n      dup6\n        /* \"--CODEGEN--\":1380:1384   */\n      0x20\n        /* \"--CODEGEN--\":1373:1378   */\n      dup7\n        /* \"--CODEGEN--\":1369:1385   */\n      add\n        /* \"--CODEGEN--\":1347:1399   */\n      jump(tag_48)\n    tag_47:\n        /* \"--CODEGEN--\":1420:1426   */\n      dup1\n        /* \"--CODEGEN--\":1415:1418   */\n      dup5\n        /* \"--CODEGEN--\":1411:1427   */\n      add\n        /* \"--CODEGEN--\":1404:1427   */\n      swap2\n      pop\n        /* \"--CODEGEN--\":1182:1432   */\n      pop\n      swap3\n      swap2\n      pop\n      pop\n      jump\n        /* \"--CODEGEN--\":1439:1705   */\n    tag_9:\n      0x00\n        /* \"--CODEGEN--\":1585:1680   */\n      tag_50\n        /* \"--CODEGEN--\":1676:1679   */\n      dup3\n        /* \"--CODEGEN--\":1667:1673   */\n      dup5\n        /* \"--CODEGEN--\":1585:1680   */\n      jump(tag_41)\n    tag_50:\n        /* \"--CODEGEN--\":1578:1680   */\n      swap2\n      pop\n        /* \"--CODEGEN--\":1697:1700   */\n      dup2\n        /* \"--CODEGEN--\":1690:1700   */\n      swap1\n      pop\n        /* \"--CODEGEN--\":1566:1705   */\n      swap3\n      swap2\n      pop\n      pop\n      jump\n        /* \"--CODEGEN--\":1712:1968   */\n    tag_28:\n      0x00\n        /* \"--CODEGEN--\":1774:1776   */\n      0x40\n        /* \"--CODEGEN--\":1768:1777   */\n      mload\n        /* \"--CODEGEN--\":1758:1777   */\n      swap1\n      pop\n        /* \"--CODEGEN--\":1812:1816   */\n      dup2\n        /* \"--CODEGEN--\":1804:1810   */\n      dup2\n        /* \"--CODEGEN--\":1800:1817   */\n      add\n        /* \"--CODEGEN--\":1911:1917   */\n      dup2\n        /* \"--CODEGEN--\":1899:1909   */\n      dup2\n        /* \"--CODEGEN--\":1896:1918   */\n      lt\n        /* \"--CODEGEN--\":1875:1893   */\n      0xffffffffffffffff\n        /* \"--CODEGEN--\":1863:1873   */\n      dup3\n        /* \"--CODEGEN--\":1860:1894   */\n      gt\n        /* \"--CODEGEN--\":1857:1919   */\n      or\n        /* \"--CODEGEN--\":1854:1856   */\n      iszero\n      tag_52\n      jumpi\n        /* \"--CODEGEN--\":1932:1933   */\n      0x00\n        /* \"--CODEGEN--\":1929:1930   */\n      dup1\n        /* \"--CODEGEN--\":1922:1934   */\n      revert\n        /* \"--CODEGEN--\":1854:1856   */\n    tag_52:\n        /* \"--CODEGEN--\":1952:1962   */\n      dup1\n        /* \"--CODEGEN--\":1948:1950   */\n      0x40\n        /* \"--CODEGEN--\":1941:1963   */\n      mstore\n        /* \"--CODEGEN--\":1752:1968   */\n      pop\n      swap2\n      swap1\n      pop\n      jump\n        /* \"--CODEGEN--\":1975:2297   */\n    tag_27:\n      0x00\n        /* \"--CODEGEN--\":2119:2137   */\n      0xffffffffffffffff\n        /* \"--CODEGEN--\":2111:2117   */\n      dup3\n        /* \"--CODEGEN--\":2108:2138   */\n      gt\n        /* \"--CODEGEN--\":2105:2107   */\n      iszero\n      tag_54\n      jumpi\n        /* \"--CODEGEN--\":2151:2152   */\n      0x00\n        /* \"--CODEGEN--\":2148:2149   */\n      dup1\n        /* \"--CODEGEN--\":2141:2153   */\n      revert\n        /* \"--CODEGEN--\":2105:2107   */\n    tag_54:\n        /* \"--CODEGEN--\":2218:2222   */\n      0x1f\n        /* \"--CODEGEN--\":2214:2223   */\n      not\n        /* \"--CODEGEN--\":2207:2211   */\n      0x1f\n        /* \"--CODEGEN--\":2199:2205   */\n      dup4\n        /* \"--CODEGEN--\":2195:2212   */\n      add\n        /* \"--CODEGEN--\":2191:2224   */\n      and\n        /* \"--CODEGEN--\":2183:2224   */\n      swap1\n      pop\n        /* \"--CODEGEN--\":2282:2286   */\n      0x20\n        /* \"--CODEGEN--\":2276:2280   */\n      dup2\n        /* \"--CODEGEN--\":2272:2287   */\n      add\n        /* \"--CODEGEN--\":2264:2287   */\n      swap1\n      pop\n        /* \"--CODEGEN--\":2042:2297   */\n      swap2\n      swap1\n      pop\n      jump\n        /* \"--CODEGEN--\":2304:2426   */\n    tag_44:\n      0x00\n        /* \"--CODEGEN--\":2398:2403   */\n      dup2\n        /* \"--CODEGEN--\":2392:2404   */\n      mload\n        /* \"--CODEGEN--\":2382:2404   */\n      swap1\n      pop\n        /* \"--CODEGEN--\":2363:2426   */\n      swap2\n      swap1\n      pop\n      jump\n        /* \"--CODEGEN--\":2434:2579   */\n    tag_46:\n      0x00\n        /* \"--CODEGEN--\":2570:2573   */\n      dup2\n        /* \"--CODEGEN--\":2555:2573   */\n      swap1\n      pop\n        /* \"--CODEGEN--\":2548:2579   */\n      swap3\n      swap2\n      pop\n      pop\n      jump\n        /* \"--CODEGEN--\":2587:2659   */\n    tag_57:\n      0x00\n        /* \"--CODEGEN--\":2649:2654   */\n      dup2\n        /* \"--CODEGEN--\":2638:2654   */\n      swap1\n      pop\n        /* \"--CODEGEN--\":2632:2659   */\n      swap2\n      swap1\n      pop\n      jump\n        /* \"--CODEGEN--\":2667:2812   */\n    tag_31:\n        /* \"--CODEGEN--\":2748:2754   */\n      dup3\n        /* \"--CODEGEN--\":2743:2746   */\n      dup2\n        /* \"--CODEGEN--\":2738:2741   */\n      dup4\n        /* \"--CODEGEN--\":2725:2755   */\n      calldatacopy\n        /* \"--CODEGEN--\":2804:2805   */\n      0x00\n        /* \"--CODEGEN--\":2795:2801   */\n      dup4\n        /* \"--CODEGEN--\":2790:2793   */\n      dup4\n        /* \"--CODEGEN--\":2786:2802   */\n      add\n        /* \"--CODEGEN--\":2779:2806   */\n      mstore\n        /* \"--CODEGEN--\":2718:2812   */\n      pop\n      pop\n      pop\n      jump\n        /* \"--CODEGEN--\":2821:3089   */\n    tag_48:\n        /* \"--CODEGEN--\":2886:2887   */\n      0x00\n        /* \"--CODEGEN--\":2893:2994   */\n    tag_61:\n        /* \"--CODEGEN--\":2907:2913   */\n      dup4\n        /* \"--CODEGEN--\":2904:2905   */\n      dup2\n        /* \"--CODEGEN--\":2901:2914   */\n      lt\n        /* \"--CODEGEN--\":2893:2994   */\n      iszero\n      tag_63\n      jumpi\n        /* \"--CODEGEN--\":2983:2984   */\n      dup1\n        /* \"--CODEGEN--\":2978:2981   */\n      dup3\n        /* \"--CODEGEN--\":2974:2985   */\n      add\n        /* \"--CODEGEN--\":2968:2986   */\n      mload\n        /* \"--CODEGEN--\":2964:2965   */\n      dup2\n        /* \"--CODEGEN--\":2959:2962   */\n      dup5\n        /* \"--CODEGEN--\":2955:2966   */\n      add\n        /* \"--CODEGEN--\":2948:2987   */\n      mstore\n        /* \"--CODEGEN--\":2929:2931   */\n      0x20\n        /* \"--CODEGEN--\":2926:2927   */\n      dup2\n        /* \"--CODEGEN--\":2922:2932   */\n      add\n        /* \"--CODEGEN--\":2917:2932   */\n      swap1\n      pop\n        /* \"--CODEGEN--\":2893:2994   */\n      jump(tag_61)\n    tag_63:\n        /* \"--CODEGEN--\":3009:3015   */\n      dup4\n        /* \"--CODEGEN--\":3006:3007   */\n      dup2\n        /* \"--CODEGEN--\":3003:3016   */\n      gt\n        /* \"--CODEGEN--\":3000:3002   */\n      iszero\n      tag_64\n      jumpi\n        /* \"--CODEGEN--\":3074:3075   */\n      0x00\n        /* \"--CODEGEN--\":3065:3071   */\n      dup5\n        /* \"--CODEGEN--\":3060:3063   */\n      dup5\n        /* \"--CODEGEN--\":3056:3072   */\n      add\n        /* \"--CODEGEN--\":3049:3076   */\n      mstore\n        /* \"--CODEGEN--\":3000:3002   */\n    tag_64:\n        /* \"--CODEGEN--\":2870:3089   */\n      pop\n      pop\n      pop\n      pop\n      jump\n        /* \"--CODEGEN--\":3097:3214   */\n    tag_35:\n        /* \"--CODEGEN--\":3166:3190   */\n      tag_66\n        /* \"--CODEGEN--\":3184:3189   */\n      dup2\n        /* \"--CODEGEN--\":3166:3190   */\n      jump(tag_57)\n    tag_66:\n        /* \"--CODEGEN--\":3159:3164   */\n      dup2\n        /* \"--CODEGEN--\":3156:3191   */\n      eq\n        /* \"--CODEGEN--\":3146:3148   */\n      tag_67\n      jumpi\n        /* \"--CODEGEN--\":3205:3206   */\n      0x00\n        /* \"--CODEGEN--\":3202:3203   */\n      dup1\n        /* \"--CODEGEN--\":3195:3207   */\n      revert\n        /* \"--CODEGEN--\":3146:3148   */\n    tag_67:\n        /* \"--CODEGEN--\":3140:3214   */\n      pop\n      jump\n\n    auxdata: 0xa26469706673582212200bdc7a2a7115ead3f0d4e1f3f3b99b7190691a4553fbbffa3c90b54ec6560c3164736f6c63430006000033\n}\n",
				"bytecode": {
					"linkReferences": {},
					"object": "60806040526000805534801561001457600080fd5b50610386806100246000396000f3fe60806040526004361061001e5760003560e01c80639dbc760914610023575b600080fd5b61003d600480360361003891908101906101e2565b61003f565b005b6040518060800160405280600054815260200183815260200182815260200160008152506001836040516100739190610267565b90815260200160405180910390206000820151816000015560208201518160010190805190602001906100a79291906100d4565b50604082015181600201556060820151816003015590505060008081548092919060010191905055505050565b828054600181600116156101000203166002900490600052602060002090601f016020900481019282601f1061011557805160ff1916838001178555610143565b82800160010185558215610143579182015b82811115610142578251825591602001919060010190610127565b5b5090506101509190610154565b5090565b61017691905b8082111561017257600081600090555060010161015a565b5090565b90565b600082601f83011261018a57600080fd5b813561019d610198826102ab565b61027e565b915080825260208301602083018583830111156101b957600080fd5b6101c48382846102f7565b50505092915050565b6000813590506101dc81610339565b92915050565b600080604083850312156101f557600080fd5b600083013567ffffffffffffffff81111561020f57600080fd5b61021b85828601610179565b925050602061022c858286016101cd565b9150509250929050565b6000610241826102d7565b61024b81856102e2565b935061025b818560208601610306565b80840191505092915050565b60006102738284610236565b915081905092915050565b6000604051905081810181811067ffffffffffffffff821117156102a157600080fd5b8060405250919050565b600067ffffffffffffffff8211156102c257600080fd5b601f19601f8301169050602081019050919050565b600081519050919050565b600081905092915050565b6000819050919050565b82818337600083830152505050565b60005b83811015610324578082015181840152602081019050610309565b83811115610333576000848401525b50505050565b610342816102ed565b811461034d57600080fd5b5056fea26469706673582212200bdc7a2a7115ead3f0d4e1f3f3b99b7190691a4553fbbffa3c90b54ec6560c3164736f6c63430006000033",
					"opcodes": "PUSH1 0x80 PUSH1 0x40 MSTORE PUSH1 0x0 DUP1 SSTORE CALLVALUE DUP1 ISZERO PUSH2 0x14 JUMPI PUSH1 0x0 DUP1 REVERT JUMPDEST POP PUSH2 0x386 DUP1 PUSH2 0x24 PUSH1 0x0 CODECOPY PUSH1 0x0 RETURN INVALID PUSH1 0x80 PUSH1 0x40 MSTORE PUSH1 0x4 CALLDATASIZE LT PUSH2 0x1E JUMPI PUSH1 0x0 CALLDATALOAD PUSH1 0xE0 SHR DUP1 PUSH4 0x9DBC7609 EQ PUSH2 0x23 JUMPI JUMPDEST PUSH1 0x0 DUP1 REVERT JUMPDEST PUSH2 0x3D PUSH1 0x4 DUP1 CALLDATASIZE SUB PUSH2 0x38 SWAP2 SWAP1 DUP2 ADD SWAP1 PUSH2 0x1E2 JUMP JUMPDEST PUSH2 0x3F JUMP JUMPDEST STOP JUMPDEST PUSH1 0x40 MLOAD DUP1 PUSH1 0x80 ADD PUSH1 0x40 MSTORE DUP1 PUSH1 0x0 SLOAD DUP2 MSTORE PUSH1 0x20 ADD DUP4 DUP2 MSTORE PUSH1 0x20 ADD DUP3 DUP2 MSTORE PUSH1 0x20 ADD PUSH1 0x0 DUP2 MSTORE POP PUSH1 0x1 DUP4 PUSH1 0x40 MLOAD PUSH2 0x73 SWAP2 SWAP1 PUSH2 0x267 JUMP JUMPDEST SWAP1 DUP2 MSTORE PUSH1 0x20 ADD PUSH1 0x40 MLOAD DUP1 SWAP2 SUB SWAP1 KECCAK256 PUSH1 0x0 DUP3 ADD MLOAD DUP2 PUSH1 0x0 ADD SSTORE PUSH1 0x20 DUP3 ADD MLOAD DUP2 PUSH1 0x1 ADD SWAP1 DUP1 MLOAD SWAP1 PUSH1 0x20 ADD SWAP1 PUSH2 0xA7 SWAP3 SWAP2 SWAP1 PUSH2 0xD4 JUMP JUMPDEST POP PUSH1 0x40 DUP3 ADD MLOAD DUP2 PUSH1 0x2 ADD SSTORE PUSH1 0x60 DUP3 ADD MLOAD DUP2 PUSH1 0x3 ADD SSTORE SWAP1 POP POP PUSH1 0x0 DUP1 DUP2 SLOAD DUP1 SWAP3 SWAP2 SWAP1 PUSH1 0x1 ADD SWAP2 SWAP1 POP SSTORE POP POP POP JUMP JUMPDEST DUP3 DUP1 SLOAD PUSH1 0x1 DUP2 PUSH1 0x1 AND ISZERO PUSH2 0x100 MUL SUB AND PUSH1 0x2 SWAP1 DIV SWAP1 PUSH1 0x0 MSTORE PUSH1 0x20 PUSH1 0x0 KECCAK256 SWAP1 PUSH1 0x1F ADD PUSH1 0x20 SWAP1 DIV DUP2 ADD SWAP3 DUP3 PUSH1 0x1F LT PUSH2 0x115 JUMPI DUP1 MLOAD PUSH1 0xFF NOT AND DUP4 DUP1 ADD OR DUP6 SSTORE PUSH2 0x143 JUMP JUMPDEST DUP3 DUP1 ADD PUSH1 0x1 ADD DUP6 SSTORE DUP3 ISZERO PUSH2 0x143 JUMPI SWAP2 DUP3 ADD JUMPDEST DUP3 DUP2 GT ISZERO PUSH2 0x142 JUMPI DUP3 MLOAD DUP3 SSTORE SWAP2 PUSH1 0x20 ADD SWAP2 SWAP1 PUSH1 0x1 ADD SWAP1 PUSH2 0x127 JUMP JUMPDEST JUMPDEST POP SWAP1 POP PUSH2 0x150 SWAP2 SWAP1 PUSH2 0x154 JUMP JUMPDEST POP SWAP1 JUMP JUMPDEST PUSH2 0x176 SWAP2 SWAP1 JUMPDEST DUP1 DUP3 GT ISZERO PUSH2 0x172 JUMPI PUSH1 0x0 DUP2 PUSH1 0x0 SWAP1 SSTORE POP PUSH1 0x1 ADD PUSH2 0x15A JUMP JUMPDEST POP SWAP1 JUMP JUMPDEST SWAP1 JUMP JUMPDEST PUSH1 0x0 DUP3 PUSH1 0x1F DUP4 ADD SLT PUSH2 0x18A JUMPI PUSH1 0x0 DUP1 REVERT JUMPDEST DUP2 CALLDATALOAD PUSH2 0x19D PUSH2 0x198 DUP3 PUSH2 0x2AB JUMP JUMPDEST PUSH2 0x27E JUMP JUMPDEST SWAP2 POP DUP1 DUP3 MSTORE PUSH1 0x20 DUP4 ADD PUSH1 0x20 DUP4 ADD DUP6 DUP4 DUP4 ADD GT ISZERO PUSH2 0x1B9 JUMPI PUSH1 0x0 DUP1 REVERT JUMPDEST PUSH2 0x1C4 DUP4 DUP3 DUP5 PUSH2 0x2F7 JUMP JUMPDEST POP POP POP SWAP3 SWAP2 POP POP JUMP JUMPDEST PUSH1 0x0 DUP2 CALLDATALOAD SWAP1 POP PUSH2 0x1DC DUP2 PUSH2 0x339 JUMP JUMPDEST SWAP3 SWAP2 POP POP JUMP JUMPDEST PUSH1 0x0 DUP1 PUSH1 0x40 DUP4 DUP6 SUB SLT ISZERO PUSH2 0x1F5 JUMPI PUSH1 0x0 DUP1 REVERT JUMPDEST PUSH1 0x0 DUP4 ADD CALLDATALOAD PUSH8 0xFFFFFFFFFFFFFFFF DUP2 GT ISZERO PUSH2 0x20F JUMPI PUSH1 0x0 DUP1 REVERT JUMPDEST PUSH2 0x21B DUP6 DUP3 DUP7 ADD PUSH2 0x179 JUMP JUMPDEST SWAP3 POP POP PUSH1 0x20 PUSH2 0x22C DUP6 DUP3 DUP7 ADD PUSH2 0x1CD JUMP JUMPDEST SWAP2 POP POP SWAP3 POP SWAP3 SWAP1 POP JUMP JUMPDEST PUSH1 0x0 PUSH2 0x241 DUP3 PUSH2 0x2D7 JUMP JUMPDEST PUSH2 0x24B DUP2 DUP6 PUSH2 0x2E2 JUMP JUMPDEST SWAP4 POP PUSH2 0x25B DUP2 DUP6 PUSH1 0x20 DUP7 ADD PUSH2 0x306 JUMP JUMPDEST DUP1 DUP5 ADD SWAP2 POP POP SWAP3 SWAP2 POP POP JUMP JUMPDEST PUSH1 0x0 PUSH2 0x273 DUP3 DUP5 PUSH2 0x236 JUMP JUMPDEST SWAP2 POP DUP2 SWAP1 POP SWAP3 SWAP2 POP POP JUMP JUMPDEST PUSH1 0x0 PUSH1 0x40 MLOAD SWAP1 POP DUP2 DUP2 ADD DUP2 DUP2 LT PUSH8 0xFFFFFFFFFFFFFFFF DUP3 GT OR ISZERO PUSH2 0x2A1 JUMPI PUSH1 0x0 DUP1 REVERT JUMPDEST DUP1 PUSH1 0x40 MSTORE POP SWAP2 SWAP1 POP JUMP JUMPDEST PUSH1 0x0 PUSH8 0xFFFFFFFFFFFFFFFF DUP3 GT ISZERO PUSH2 0x2C2 JUMPI PUSH1 0x0 DUP1 REVERT JUMPDEST PUSH1 0x1F NOT PUSH1 0x1F DUP4 ADD AND SWAP1 POP PUSH1 0x20 DUP2 ADD SWAP1 POP SWAP2 SWAP1 POP JUMP JUMPDEST PUSH1 0x0 DUP2 MLOAD SWAP1 POP SWAP2 SWAP1 POP JUMP JUMPDEST PUSH1 0x0 DUP2 SWAP1 POP SWAP3 SWAP2 POP POP JUMP JUMPDEST PUSH1 0x0 DUP2 SWAP1 POP SWAP2 SWAP1 POP JUMP JUMPDEST DUP3 DUP2 DUP4 CALLDATACOPY PUSH1 0x0 DUP4 DUP4 ADD MSTORE POP POP POP JUMP JUMPDEST PUSH1 0x0 JUMPDEST DUP4 DUP2 LT ISZERO PUSH2 0x324 JUMPI DUP1 DUP3 ADD MLOAD DUP2 DUP5 ADD MSTORE PUSH1 0x20 DUP2 ADD SWAP1 POP PUSH2 0x309 JUMP JUMPDEST DUP4 DUP2 GT ISZERO PUSH2 0x333 JUMPI PUSH1 0x0 DUP5 DUP5 ADD MSTORE JUMPDEST POP POP POP POP JUMP JUMPDEST PUSH2 0x342 DUP2 PUSH2 0x2ED JUMP JUMPDEST DUP2 EQ PUSH2 0x34D JUMPI PUSH1 0x0 DUP1 REVERT JUMPDEST POP JUMP INVALID LOG2 PUSH5 0x6970667358 0x22 SLT KECCAK256 SIGNEXTEND 0xDC PUSH27 0x2A7115EAD3F0D4E1F3F3B99B7190691A4553FBBFFA3C90B54EC656 0xC BALANCE PUSH5 0x736F6C6343 STOP MOD STOP STOP CALLER "
				},
				"gasEstimates": {
					"creation": {
						"codeDepositCost": "180400",
						"executionCost": "5232",
						"totalCost": "185632"
					},
					"external": {
						"crearCausa(string,uint256)": "infinite"
					}
				},
				"methodIdentifiers": {
					"crearCausa(string,uint256)": "9dbc7609"
				}
			},
			"storageLayout": {
				"storage": [
					{
						"astId": 14,
						"contract": "Funciones/ong.sol:CausasBeneficas",
						"label": "contador_causas",
						"offset": 0,
						"slot": "0",
						"type": "t_uint256"
					},
					{
						"astId": 18,
						"contract": "Funciones/ong.sol:CausasBeneficas",
						"label": "causas",
						"offset": 0,
						"slot": "1",
						"type": "t_mapping(t_string_memory,t_struct(Causa)11_storage)"
					}
				],
				"types": {
					"t_mapping(t_string_memory,t_struct(Causa)11_storage)": {
						"encoding": "mapping",
						"key": "t_string_memory",
						"label": "mapping(string => struct CausasBeneficas.Causa)",
						"numberOfBytes": "32",
						"value": "t_struct(Causa)11_storage"
					},
					"t_string_memory": {
						"encoding": "bytes",
						"label": "string",
						"numberOfBytes": "32"
					},
					"t_string_storage": {
						"encoding": "bytes",
						"label": "string",
						"numberOfBytes": "32"
					},
					"t_struct(Causa)11_storage": {
						"encoding": "inplace",
						"label": "struct CausasBeneficas.Causa",
						"members": [
							{
								"astId": 4,
								"contract": "Funciones/ong.sol:CausasBeneficas",
								"label": "id",
								"offset": 0,
								"slot": "0",
								"type": "t_uint256"
							},
							{
								"astId": 6,
								"contract": "Funciones/ong.sol:CausasBeneficas",
								"label": "name",
								"offset": 0,
								"slot": "1",
								"type": "t_string_storage"
							},
							{
								"astId": 8,
								"contract": "Funciones/ong.sol:CausasBeneficas",
								"label": "precio_objetivo",
								"offset": 0,
								"slot": "2",
								"type": "t_uint256"
							},
							{
								"astId": 10,
								"contract": "Funciones/ong.sol:CausasBeneficas",
								"label": "cantidad_recaudada",
								"offset": 0,
								"slot": "3",
								"type": "t_uint256"
							}
						],
						"numberOfBytes": "128"
					},
					"t_uint256": {
						"encoding": "inplace",
						"label": "uint256",
						"numberOfBytes": "32"
					}
				}
			},
			"userdoc": {
				"methods": {}
			}
		}
	}
}