{
	"Funciones/funciones.sol": {
		"funciones": {
			"abi": [
				{
					"inputs": [],
					"name": "addAdress",
					"outputs": [],
					"stateMutability": "nonpayable",
					"type": "function"
				},
				{
					"inputs": [
						{
							"internalType": "uint256",
							"name": "",
							"type": "uint256"
						}
					],
					"name": "direcciones",
					"outputs": [
						{
							"internalType": "address",
							"name": "",
							"type": "address"
						}
					],
					"stateMutability": "view",
					"type": "function"
				}
			],
			"devdoc": {
				"methods": {}
			},
			"evm": {
				"assembly": "    /* \"Funciones/funciones.sol\":62:207  contract funciones{\r... */\n  mstore(0x40, 0x80)\n  callvalue\n    /* \"--CODEGEN--\":8:17   */\n  dup1\n    /* \"--CODEGEN--\":5:7   */\n  iszero\n  tag_1\n  jumpi\n    /* \"--CODEGEN--\":30:31   */\n  0x00\n    /* \"--CODEGEN--\":27:28   */\n  dup1\n    /* \"--CODEGEN--\":20:32   */\n  revert\n    /* \"--CODEGEN--\":5:7   */\ntag_1:\n    /* \"Funciones/funciones.sol\":62:207  contract funciones{\r... */\n  pop\n  dataSize(sub_0)\n  dup1\n  dataOffset(sub_0)\n  0x00\n  codecopy\n  0x00\n  return\nstop\n\nsub_0: assembly {\n        /* \"Funciones/funciones.sol\":62:207  contract funciones{\r... */\n      mstore(0x40, 0x80)\n      callvalue\n        /* \"--CODEGEN--\":8:17   */\n      dup1\n        /* \"--CODEGEN--\":5:7   */\n      iszero\n      tag_1\n      jumpi\n        /* \"--CODEGEN--\":30:31   */\n      0x00\n        /* \"--CODEGEN--\":27:28   */\n      dup1\n        /* \"--CODEGEN--\":20:32   */\n      revert\n        /* \"--CODEGEN--\":5:7   */\n    tag_1:\n        /* \"Funciones/funciones.sol\":62:207  contract funciones{\r... */\n      pop\n      jumpi(tag_2, lt(calldatasize, 0x04))\n      shr(0xe0, calldataload(0x00))\n      dup1\n      0x29cb843a\n      eq\n      tag_3\n      jumpi\n      dup1\n      0x547cbcad\n      eq\n      tag_4\n      jumpi\n    tag_2:\n      0x00\n      dup1\n      revert\n        /* \"Funciones/funciones.sol\":127:204  function addAdress () public{\r... */\n    tag_3:\n      tag_5\n      tag_6\n      jump\t// in\n    tag_5:\n      stop\n        /* \"Funciones/funciones.sol\":89:118  address [] public direcciones */\n    tag_4:\n      tag_7\n      0x04\n      dup1\n      calldatasize\n      sub\n      tag_8\n      swap2\n      swap1\n      dup2\n      add\n      swap1\n      jump(tag_9)\n    tag_8:\n      tag_10\n      jump\t// in\n    tag_7:\n      mload(0x40)\n      tag_11\n      swap2\n      swap1\n      jump(tag_12)\n    tag_11:\n      mload(0x40)\n      dup1\n      swap2\n      sub\n      swap1\n      return\n        /* \"Funciones/funciones.sol\":127:204  function addAdress () public{\r... */\n    tag_6:\n        /* \"Funciones/funciones.sol\":168:179  direcciones */\n      0x00\n        /* \"Funciones/funciones.sol\":185:195  msg.sender */\n      caller\n        /* \"Funciones/funciones.sol\":168:196  direcciones.push(msg.sender) */\n      swap1\n      dup1\n        /* \"--CODEGEN--\":39:40   */\n      0x01\n        /* \"--CODEGEN--\":33:36   */\n      dup2\n        /* \"--CODEGEN--\":27:37   */\n      sload\n        /* \"--CODEGEN--\":23:41   */\n      add\n        /* \"--CODEGEN--\":57:67   */\n      dup1\n        /* \"--CODEGEN--\":52:55   */\n      dup3\n        /* \"--CODEGEN--\":45:68   */\n      sstore\n        /* \"--CODEGEN--\":79:89   */\n      dup1\n        /* \"--CODEGEN--\":72:89   */\n      swap2\n      pop\n        /* \"--CODEGEN--\":0:93   */\n      pop\n        /* \"Funciones/funciones.sol\":168:196  direcciones.push(msg.sender) */\n      0x01\n      swap1\n      sub\n      swap1\n      0x00\n      mstore\n      keccak256(0x00, 0x20)\n      add\n      0x00\n      swap1\n      swap2\n      swap1\n      swap2\n      swap1\n      swap2\n      0x0100\n      exp\n      dup2\n      sload\n      dup2\n      0xffffffffffffffffffffffffffffffffffffffff\n      mul\n      not\n      and\n      swap1\n      dup4\n      0xffffffffffffffffffffffffffffffffffffffff\n      and\n      mul\n      or\n      swap1\n      sstore\n      pop\n        /* \"Funciones/funciones.sol\":127:204  function addAdress () public{\r... */\n      jump\t// out\n        /* \"Funciones/funciones.sol\":89:118  address [] public direcciones */\n    tag_10:\n      0x00\n      dup2\n      dup2\n      sload\n      dup2\n      lt\n      tag_15\n      jumpi\n      invalid\n    tag_15:\n      swap1\n      0x00\n      mstore\n      keccak256(0x00, 0x20)\n      add\n      0x00\n      swap2\n      pop\n      sload\n      swap1\n      0x0100\n      exp\n      swap1\n      div\n      0xffffffffffffffffffffffffffffffffffffffff\n      and\n      dup2\n      jump\t// out\n        /* \"--CODEGEN--\":5:135   */\n    tag_18:\n      0x00\n        /* \"--CODEGEN--\":85:91   */\n      dup2\n        /* \"--CODEGEN--\":72:92   */\n      calldataload\n        /* \"--CODEGEN--\":63:92   */\n      swap1\n      pop\n        /* \"--CODEGEN--\":97:130   */\n      tag_20\n        /* \"--CODEGEN--\":124:129   */\n      dup2\n        /* \"--CODEGEN--\":97:130   */\n      jump(tag_21)\n    tag_20:\n        /* \"--CODEGEN--\":57:135   */\n      swap3\n      swap2\n      pop\n      pop\n      jump\n        /* \"--CODEGEN--\":142:383   */\n    tag_9:\n      0x00\n        /* \"--CODEGEN--\":246:248   */\n      0x20\n        /* \"--CODEGEN--\":234:243   */\n      dup3\n        /* \"--CODEGEN--\":225:232   */\n      dup5\n        /* \"--CODEGEN--\":221:244   */\n      sub\n        /* \"--CODEGEN--\":217:249   */\n      slt\n        /* \"--CODEGEN--\":214:216   */\n      iszero\n      tag_23\n      jumpi\n        /* \"--CODEGEN--\":262:263   */\n      0x00\n        /* \"--CODEGEN--\":259:260   */\n      dup1\n        /* \"--CODEGEN--\":252:264   */\n      revert\n        /* \"--CODEGEN--\":214:216   */\n    tag_23:\n        /* \"--CODEGEN--\":297:298   */\n      0x00\n        /* \"--CODEGEN--\":314:367   */\n      tag_24\n        /* \"--CODEGEN--\":359:366   */\n      dup5\n        /* \"--CODEGEN--\":350:356   */\n      dup3\n        /* \"--CODEGEN--\":339:348   */\n      dup6\n        /* \"--CODEGEN--\":335:357   */\n      add\n        /* \"--CODEGEN--\":314:367   */\n      jump(tag_18)\n    tag_24:\n        /* \"--CODEGEN--\":304:367   */\n      swap2\n      pop\n        /* \"--CODEGEN--\":276:373   */\n      pop\n        /* \"--CODEGEN--\":208:383   */\n      swap3\n      swap2\n      pop\n      pop\n      jump\n        /* \"--CODEGEN--\":390:503   */\n    tag_25:\n        /* \"--CODEGEN--\":473:497   */\n      tag_27\n        /* \"--CODEGEN--\":491:496   */\n      dup2\n        /* \"--CODEGEN--\":473:497   */\n      jump(tag_28)\n    tag_27:\n        /* \"--CODEGEN--\":468:471   */\n      dup3\n        /* \"--CODEGEN--\":461:498   */\n      mstore\n        /* \"--CODEGEN--\":455:503   */\n      pop\n      pop\n      jump\n        /* \"--CODEGEN--\":510:723   */\n    tag_12:\n      0x00\n        /* \"--CODEGEN--\":628:630   */\n      0x20\n        /* \"--CODEGEN--\":617:626   */\n      dup3\n        /* \"--CODEGEN--\":613:631   */\n      add\n        /* \"--CODEGEN--\":605:631   */\n      swap1\n      pop\n        /* \"--CODEGEN--\":642:713   */\n      tag_30\n        /* \"--CODEGEN--\":710:711   */\n      0x00\n        /* \"--CODEGEN--\":699:708   */\n      dup4\n        /* \"--CODEGEN--\":695:712   */\n      add\n        /* \"--CODEGEN--\":686:692   */\n      dup5\n        /* \"--CODEGEN--\":642:713   */\n      jump(tag_25)\n    tag_30:\n        /* \"--CODEGEN--\":599:723   */\n      swap3\n      swap2\n      pop\n      pop\n      jump\n        /* \"--CODEGEN--\":730:821   */\n    tag_28:\n      0x00\n        /* \"--CODEGEN--\":792:816   */\n      tag_32\n        /* \"--CODEGEN--\":810:815   */\n      dup3\n        /* \"--CODEGEN--\":792:816   */\n      jump(tag_33)\n    tag_32:\n        /* \"--CODEGEN--\":781:816   */\n      swap1\n      pop\n        /* \"--CODEGEN--\":775:821   */\n      swap2\n      swap1\n      pop\n      jump\n        /* \"--CODEGEN--\":828:949   */\n    tag_33:\n      0x00\n        /* \"--CODEGEN--\":901:943   */\n      0xffffffffffffffffffffffffffffffffffffffff\n        /* \"--CODEGEN--\":894:899   */\n      dup3\n        /* \"--CODEGEN--\":890:944   */\n      and\n        /* \"--CODEGEN--\":879:944   */\n      swap1\n      pop\n        /* \"--CODEGEN--\":873:949   */\n      swap2\n      swap1\n      pop\n      jump\n        /* \"--CODEGEN--\":956:1028   */\n    tag_35:\n      0x00\n        /* \"--CODEGEN--\":1018:1023   */\n      dup2\n        /* \"--CODEGEN--\":1007:1023   */\n      swap1\n      pop\n        /* \"--CODEGEN--\":1001:1028   */\n      swap2\n      swap1\n      pop\n      jump\n        /* \"--CODEGEN--\":1035:1152   */\n    tag_21:\n        /* \"--CODEGEN--\":1104:1128   */\n      tag_38\n        /* \"--CODEGEN--\":1122:1127   */\n      dup2\n        /* \"--CODEGEN--\":1104:1128   */\n      jump(tag_35)\n    tag_38:\n        /* \"--CODEGEN--\":1097:1102   */\n      dup2\n        /* \"--CODEGEN--\":1094:1129   */\n      eq\n        /* \"--CODEGEN--\":1084:1086   */\n      tag_39\n      jumpi\n        /* \"--CODEGEN--\":1143:1144   */\n      0x00\n        /* \"--CODEGEN--\":1140:1141   */\n      dup1\n        /* \"--CODEGEN--\":1133:1145   */\n      revert\n        /* \"--CODEGEN--\":1084:1086   */\n    tag_39:\n        /* \"--CODEGEN--\":1078:1152   */\n      pop\n      jump\n\n    auxdata: 0xa26469706673582212203d2bf59fc675349b6d56dfeaafc0b45d744b8ce54e578107008821816004a26564736f6c63430006000033\n}\n",
				"bytecode": {
					"linkReferences": {},
					"object": "608060405234801561001057600080fd5b50610207806100206000396000f3fe608060405234801561001057600080fd5b50600436106100365760003560e01c806329cb843a1461003b578063547cbcad14610045575b600080fd5b610043610075565b005b61005f600480360361005a919081019061012b565b6100da565b60405161006c9190610163565b60405180910390f35b6000339080600181540180825580915050600190039060005260206000200160009091909190916101000a81548173ffffffffffffffffffffffffffffffffffffffff021916908373ffffffffffffffffffffffffffffffffffffffff160217905550565b600081815481106100e757fe5b906000526020600020016000915054906101000a900473ffffffffffffffffffffffffffffffffffffffff1681565b600081359050610125816101ba565b92915050565b60006020828403121561013d57600080fd5b600061014b84828501610116565b91505092915050565b61015d8161017e565b82525050565b60006020820190506101786000830184610154565b92915050565b600061018982610190565b9050919050565b600073ffffffffffffffffffffffffffffffffffffffff82169050919050565b6000819050919050565b6101c3816101b0565b81146101ce57600080fd5b5056fea26469706673582212203d2bf59fc675349b6d56dfeaafc0b45d744b8ce54e578107008821816004a26564736f6c63430006000033",
					"opcodes": "PUSH1 0x80 PUSH1 0x40 MSTORE CALLVALUE DUP1 ISZERO PUSH2 0x10 JUMPI PUSH1 0x0 DUP1 REVERT JUMPDEST POP PUSH2 0x207 DUP1 PUSH2 0x20 PUSH1 0x0 CODECOPY PUSH1 0x0 RETURN INVALID PUSH1 0x80 PUSH1 0x40 MSTORE CALLVALUE DUP1 ISZERO PUSH2 0x10 JUMPI PUSH1 0x0 DUP1 REVERT JUMPDEST POP PUSH1 0x4 CALLDATASIZE LT PUSH2 0x36 JUMPI PUSH1 0x0 CALLDATALOAD PUSH1 0xE0 SHR DUP1 PUSH4 0x29CB843A EQ PUSH2 0x3B JUMPI DUP1 PUSH4 0x547CBCAD EQ PUSH2 0x45 JUMPI JUMPDEST PUSH1 0x0 DUP1 REVERT JUMPDEST PUSH2 0x43 PUSH2 0x75 JUMP JUMPDEST STOP JUMPDEST PUSH2 0x5F PUSH1 0x4 DUP1 CALLDATASIZE SUB PUSH2 0x5A SWAP2 SWAP1 DUP2 ADD SWAP1 PUSH2 0x12B JUMP JUMPDEST PUSH2 0xDA JUMP JUMPDEST PUSH1 0x40 MLOAD PUSH2 0x6C SWAP2 SWAP1 PUSH2 0x163 JUMP JUMPDEST PUSH1 0x40 MLOAD DUP1 SWAP2 SUB SWAP1 RETURN JUMPDEST PUSH1 0x0 CALLER SWAP1 DUP1 PUSH1 0x1 DUP2 SLOAD ADD DUP1 DUP3 SSTORE DUP1 SWAP2 POP POP PUSH1 0x1 SWAP1 SUB SWAP1 PUSH1 0x0 MSTORE PUSH1 0x20 PUSH1 0x0 KECCAK256 ADD PUSH1 0x0 SWAP1 SWAP2 SWAP1 SWAP2 SWAP1 SWAP2 PUSH2 0x100 EXP DUP2 SLOAD DUP2 PUSH20 0xFFFFFFFFFFFFFFFFFFFFFFFFFFFFFFFFFFFFFFFF MUL NOT AND SWAP1 DUP4 PUSH20 0xFFFFFFFFFFFFFFFFFFFFFFFFFFFFFFFFFFFFFFFF AND MUL OR SWAP1 SSTORE POP JUMP JUMPDEST PUSH1 0x0 DUP2 DUP2 SLOAD DUP2 LT PUSH2 0xE7 JUMPI INVALID JUMPDEST SWAP1 PUSH1 0x0 MSTORE PUSH1 0x20 PUSH1 0x0 KECCAK256 ADD PUSH1 0x0 SWAP2 POP SLOAD SWAP1 PUSH2 0x100 EXP SWAP1 DIV PUSH20 0xFFFFFFFFFFFFFFFFFFFFFFFFFFFFFFFFFFFFFFFF AND DUP2 JUMP JUMPDEST PUSH1 0x0 DUP2 CALLDATALOAD SWAP1 POP PUSH2 0x125 DUP2 PUSH2 0x1BA JUMP JUMPDEST SWAP3 SWAP2 POP POP JUMP JUMPDEST PUSH1 0x0 PUSH1 0x20 DUP3 DUP5 SUB SLT ISZERO PUSH2 0x13D JUMPI PUSH1 0x0 DUP1 REVERT JUMPDEST PUSH1 0x0 PUSH2 0x14B DUP5 DUP3 DUP6 ADD PUSH2 0x116 JUMP JUMPDEST SWAP2 POP POP SWAP3 SWAP2 POP POP JUMP JUMPDEST PUSH2 0x15D DUP2 PUSH2 0x17E JUMP JUMPDEST DUP3 MSTORE POP POP JUMP JUMPDEST PUSH1 0x0 PUSH1 0x20 DUP3 ADD SWAP1 POP PUSH2 0x178 PUSH1 0x0 DUP4 ADD DUP5 PUSH2 0x154 JUMP JUMPDEST SWAP3 SWAP2 POP POP JUMP JUMPDEST PUSH1 0x0 PUSH2 0x189 DUP3 PUSH2 0x190 JUMP JUMPDEST SWAP1 POP SWAP2 SWAP1 POP JUMP JUMPDEST PUSH1 0x0 PUSH20 0xFFFFFFFFFFFFFFFFFFFFFFFFFFFFFFFFFFFFFFFF DUP3 AND SWAP1 POP SWAP2 SWAP1 POP JUMP JUMPDEST PUSH1 0x0 DUP2 SWAP1 POP SWAP2 SWAP1 POP JUMP JUMPDEST PUSH2 0x1C3 DUP2 PUSH2 0x1B0 JUMP JUMPDEST DUP2 EQ PUSH2 0x1CE JUMPI PUSH1 0x0 DUP1 REVERT JUMPDEST POP JUMP INVALID LOG2 PUSH5 0x6970667358 0x22 SLT KECCAK256 RETURNDATASIZE 0x2B CREATE2 SWAP16 0xC6 PUSH22 0x349B6D56DFEAAFC0B45D744B8CE54E57810700882181 PUSH1 0x4 LOG2 PUSH6 0x64736F6C6343 STOP MOD STOP STOP CALLER "
				},
				"gasEstimates": {
					"creation": {
						"codeDepositCost": "103800",
						"executionCost": "153",
						"totalCost": "103953"
					},
					"external": {
						"addAdress()": "41900",
						"direcciones(uint256)": "2356"
					}
				},
				"methodIdentifiers": {
					"addAdress()": "29cb843a",
					"direcciones(uint256)": "547cbcad"
				}
			},
			"storageLayout": {
				"storage": [
					{
						"astId": 5,
						"contract": "Funciones/funciones.sol:funciones",
						"label": "direcciones",
						"offset": 0,
						"slot": "0",
						"type": "t_array(t_address)dyn_storage"
					}
				],
				"types": {
					"t_address": {
						"encoding": "inplace",
						"label": "address",
						"numberOfBytes": "20"
					},
					"t_array(t_address)dyn_storage": {
						"base": "t_address",
						"encoding": "dynamic_array",
						"label": "address[]",
						"numberOfBytes": "32"
					}
				}
			},
			"userdoc": {
				"methods": {}
			}
		}
	}
}