{
	"Funciones/eventos.sol": {
		"Eventos": {
			"abi": [
				{
					"anonymous": false,
					"inputs": [
						{
							"indexed": false,
							"internalType": "string",
							"name": "_nombrePersona",
							"type": "string"
						}
					],
					"name": "eventito",
					"type": "event"
				},
				{
					"anonymous": false,
					"inputs": [
						{
							"indexed": false,
							"internalType": "string",
							"name": "_nombrePersona",
							"type": "string"
						}
					],
					"name": "eventito2",
					"type": "event"
				},
				{
					"inputs": [
						{
							"internalType": "string",
							"name": "_nombrePersona",
							"type": "string"
						}
					],
					"name": "EmitirEvento",
					"outputs": [],
					"stateMutability": "nonpayable",
					"type": "function"
				},
				{
					"inputs": [
						{
							"internalType": "string",
							"name": "_nombrePersona",
							"type": "string"
						}
					],
					"name": "EmitirEvento2",
					"outputs": [],
					"stateMutability": "nonpayable",
					"type": "function"
				}
			],
			"devdoc": {
				"methods": {}
			},
			"evm": {
				"assembly": "    /* \"Funciones/eventos.sol\":62:422  contract Eventos{\r... */\n  mstore(0x40, 0x80)\n  callvalue\n    /* \"--CODEGEN--\":8:17   */\n  dup1\n    /* \"--CODEGEN--\":5:7   */\n  iszero\n  tag_1\n  jumpi\n    /* \"--CODEGEN--\":30:31   */\n  0x00\n    /* \"--CODEGEN--\":27:28   */\n  dup1\n    /* \"--CODEGEN--\":20:32   */\n  revert\n    /* \"--CODEGEN--\":5:7   */\ntag_1:\n    /* \"Funciones/eventos.sol\":62:422  contract Eventos{\r... */\n  pop\n  dataSize(sub_0)\n  dup1\n  dataOffset(sub_0)\n  0x00\n  codecopy\n  0x00\n  return\nstop\n\nsub_0: assembly {\n        /* \"Funciones/eventos.sol\":62:422  contract Eventos{\r... */\n      mstore(0x40, 0x80)\n      callvalue\n        /* \"--CODEGEN--\":8:17   */\n      dup1\n        /* \"--CODEGEN--\":5:7   */\n      iszero\n      tag_1\n      jumpi\n        /* \"--CODEGEN--\":30:31   */\n      0x00\n        /* \"--CODEGEN--\":27:28   */\n      dup1\n        /* \"--CODEGEN--\":20:32   */\n      revert\n        /* \"--CODEGEN--\":5:7   */\n    tag_1:\n        /* \"Funciones/eventos.sol\":62:422  contract Eventos{\r... */\n      pop\n      jumpi(tag_2, lt(calldatasize, 0x04))\n      shr(0xe0, calldataload(0x00))\n      dup1\n      0x3fbbd8ee\n      eq\n      tag_3\n      jumpi\n      dup1\n      0xda7fc1f1\n      eq\n      tag_4\n      jumpi\n    tag_2:\n      0x00\n      dup1\n      revert\n        /* \"Funciones/eventos.sol\":301:409  function EmitirEvento2(string memory _nombrePersona) public {\r... */\n    tag_3:\n      tag_5\n      0x04\n      dup1\n      calldatasize\n      sub\n      tag_6\n      swap2\n      swap1\n      dup2\n      add\n      swap1\n      jump(tag_7)\n    tag_6:\n      tag_8\n      jump\t// in\n    tag_5:\n      stop\n        /* \"Funciones/eventos.sol\":186:293  function EmitirEvento(string memory _nombrePersona) public {\r... */\n    tag_4:\n      tag_9\n      0x04\n      dup1\n      calldatasize\n      sub\n      tag_10\n      swap2\n      swap1\n      dup2\n      add\n      swap1\n      jump(tag_7)\n    tag_10:\n      tag_11\n      jump\t// in\n    tag_9:\n      stop\n        /* \"Funciones/eventos.sol\":301:409  function EmitirEvento2(string memory _nombrePersona) public {\r... */\n    tag_8:\n        /* \"Funciones/eventos.sol\":377:401  eventito(_nombrePersona) */\n      0x6391dcd39ec1eccb6cae5c104bbe0df2c4159afd331b17a0d0223024df9de608\n        /* \"Funciones/eventos.sol\":386:400  _nombrePersona */\n      dup2\n        /* \"Funciones/eventos.sol\":377:401  eventito(_nombrePersona) */\n      mload(0x40)\n      tag_13\n      swap2\n      swap1\n      jump(tag_14)\n    tag_13:\n      mload(0x40)\n      dup1\n      swap2\n      sub\n      swap1\n      log1\n        /* \"Funciones/eventos.sol\":301:409  function EmitirEvento2(string memory _nombrePersona) public {\r... */\n      pop\n      jump\t// out\n        /* \"Funciones/eventos.sol\":186:293  function EmitirEvento(string memory _nombrePersona) public {\r... */\n    tag_11:\n        /* \"Funciones/eventos.sol\":261:285  eventito(_nombrePersona) */\n      0x6391dcd39ec1eccb6cae5c104bbe0df2c4159afd331b17a0d0223024df9de608\n        /* \"Funciones/eventos.sol\":270:284  _nombrePersona */\n      dup2\n        /* \"Funciones/eventos.sol\":261:285  eventito(_nombrePersona) */\n      mload(0x40)\n      tag_16\n      swap2\n      swap1\n      jump(tag_14)\n    tag_16:\n      mload(0x40)\n      dup1\n      swap2\n      sub\n      swap1\n      log1\n        /* \"Funciones/eventos.sol\":186:293  function EmitirEvento(string memory _nombrePersona) public {\r... */\n      pop\n      jump\t// out\n        /* \"--CODEGEN--\":6:448   */\n    tag_18:\n      0x00\n        /* \"--CODEGEN--\":108:111   */\n      dup3\n        /* \"--CODEGEN--\":101:105   */\n      0x1f\n        /* \"--CODEGEN--\":93:99   */\n      dup4\n        /* \"--CODEGEN--\":89:106   */\n      add\n        /* \"--CODEGEN--\":85:112   */\n      slt\n        /* \"--CODEGEN--\":75:77   */\n      tag_20\n      jumpi\n        /* \"--CODEGEN--\":126:127   */\n      0x00\n        /* \"--CODEGEN--\":123:124   */\n      dup1\n        /* \"--CODEGEN--\":116:128   */\n      revert\n        /* \"--CODEGEN--\":75:77   */\n    tag_20:\n        /* \"--CODEGEN--\":163:169   */\n      dup2\n        /* \"--CODEGEN--\":150:170   */\n      calldataload\n        /* \"--CODEGEN--\":185:250   */\n      tag_21\n        /* \"--CODEGEN--\":200:249   */\n      tag_22\n        /* \"--CODEGEN--\":242:248   */\n      dup3\n        /* \"--CODEGEN--\":200:249   */\n      jump(tag_23)\n    tag_22:\n        /* \"--CODEGEN--\":185:250   */\n      jump(tag_24)\n    tag_21:\n        /* \"--CODEGEN--\":176:250   */\n      swap2\n      pop\n        /* \"--CODEGEN--\":270:276   */\n      dup1\n        /* \"--CODEGEN--\":263:268   */\n      dup3\n        /* \"--CODEGEN--\":256:277   */\n      mstore\n        /* \"--CODEGEN--\":306:310   */\n      0x20\n        /* \"--CODEGEN--\":298:304   */\n      dup4\n        /* \"--CODEGEN--\":294:311   */\n      add\n        /* \"--CODEGEN--\":339:343   */\n      0x20\n        /* \"--CODEGEN--\":332:337   */\n      dup4\n        /* \"--CODEGEN--\":328:344   */\n      add\n        /* \"--CODEGEN--\":374:377   */\n      dup6\n        /* \"--CODEGEN--\":365:371   */\n      dup4\n        /* \"--CODEGEN--\":360:363   */\n      dup4\n        /* \"--CODEGEN--\":356:372   */\n      add\n        /* \"--CODEGEN--\":353:378   */\n      gt\n        /* \"--CODEGEN--\":350:352   */\n      iszero\n      tag_25\n      jumpi\n        /* \"--CODEGEN--\":391:392   */\n      0x00\n        /* \"--CODEGEN--\":388:389   */\n      dup1\n        /* \"--CODEGEN--\":381:393   */\n      revert\n        /* \"--CODEGEN--\":350:352   */\n    tag_25:\n        /* \"--CODEGEN--\":401:442   */\n      tag_26\n        /* \"--CODEGEN--\":435:441   */\n      dup4\n        /* \"--CODEGEN--\":430:433   */\n      dup3\n        /* \"--CODEGEN--\":425:428   */\n      dup5\n        /* \"--CODEGEN--\":401:442   */\n      jump(tag_27)\n    tag_26:\n        /* \"--CODEGEN--\":68:448   */\n      pop\n      pop\n      pop\n      swap3\n      swap2\n      pop\n      pop\n      jump\n        /* \"--CODEGEN--\":456:803   */\n    tag_7:\n      0x00\n        /* \"--CODEGEN--\":570:572   */\n      0x20\n        /* \"--CODEGEN--\":558:567   */\n      dup3\n        /* \"--CODEGEN--\":549:556   */\n      dup5\n        /* \"--CODEGEN--\":545:568   */\n      sub\n        /* \"--CODEGEN--\":541:573   */\n      slt\n        /* \"--CODEGEN--\":538:540   */\n      iszero\n      tag_29\n      jumpi\n        /* \"--CODEGEN--\":586:587   */\n      0x00\n        /* \"--CODEGEN--\":583:584   */\n      dup1\n        /* \"--CODEGEN--\":576:588   */\n      revert\n        /* \"--CODEGEN--\":538:540   */\n    tag_29:\n        /* \"--CODEGEN--\":649:650   */\n      0x00\n        /* \"--CODEGEN--\":638:647   */\n      dup3\n        /* \"--CODEGEN--\":634:651   */\n      add\n        /* \"--CODEGEN--\":621:652   */\n      calldataload\n        /* \"--CODEGEN--\":672:690   */\n      0xffffffffffffffff\n        /* \"--CODEGEN--\":664:670   */\n      dup2\n        /* \"--CODEGEN--\":661:691   */\n      gt\n        /* \"--CODEGEN--\":658:660   */\n      iszero\n      tag_30\n      jumpi\n        /* \"--CODEGEN--\":704:705   */\n      0x00\n        /* \"--CODEGEN--\":701:702   */\n      dup1\n        /* \"--CODEGEN--\":694:706   */\n      revert\n        /* \"--CODEGEN--\":658:660   */\n    tag_30:\n        /* \"--CODEGEN--\":724:787   */\n      tag_31\n        /* \"--CODEGEN--\":779:786   */\n      dup5\n        /* \"--CODEGEN--\":770:776   */\n      dup3\n        /* \"--CODEGEN--\":759:768   */\n      dup6\n        /* \"--CODEGEN--\":755:777   */\n      add\n        /* \"--CODEGEN--\":724:787   */\n      jump(tag_18)\n    tag_31:\n        /* \"--CODEGEN--\":714:787   */\n      swap2\n      pop\n        /* \"--CODEGEN--\":600:793   */\n      pop\n        /* \"--CODEGEN--\":532:803   */\n      swap3\n      swap2\n      pop\n      pop\n      jump\n        /* \"--CODEGEN--\":810:1157   */\n    tag_32:\n      0x00\n        /* \"--CODEGEN--\":922:961   */\n      tag_34\n        /* \"--CODEGEN--\":955:960   */\n      dup3\n        /* \"--CODEGEN--\":922:961   */\n      jump(tag_35)\n    tag_34:\n        /* \"--CODEGEN--\":973:1044   */\n      tag_36\n        /* \"--CODEGEN--\":1037:1043   */\n      dup2\n        /* \"--CODEGEN--\":1032:1035   */\n      dup6\n        /* \"--CODEGEN--\":973:1044   */\n      jump(tag_37)\n    tag_36:\n        /* \"--CODEGEN--\":966:1044   */\n      swap4\n      pop\n        /* \"--CODEGEN--\":1049:1101   */\n      tag_38\n        /* \"--CODEGEN--\":1094:1100   */\n      dup2\n        /* \"--CODEGEN--\":1089:1092   */\n      dup6\n        /* \"--CODEGEN--\":1082:1086   */\n      0x20\n        /* \"--CODEGEN--\":1075:1080   */\n      dup7\n        /* \"--CODEGEN--\":1071:1087   */\n      add\n        /* \"--CODEGEN--\":1049:1101   */\n      jump(tag_39)\n    tag_38:\n        /* \"--CODEGEN--\":1122:1151   */\n      tag_40\n        /* \"--CODEGEN--\":1144:1150   */\n      dup2\n        /* \"--CODEGEN--\":1122:1151   */\n      jump(tag_41)\n    tag_40:\n        /* \"--CODEGEN--\":1117:1120   */\n      dup5\n        /* \"--CODEGEN--\":1113:1152   */\n      add\n        /* \"--CODEGEN--\":1106:1152   */\n      swap2\n      pop\n        /* \"--CODEGEN--\":902:1157   */\n      pop\n      swap3\n      swap2\n      pop\n      pop\n      jump\n        /* \"--CODEGEN--\":1164:1465   */\n    tag_14:\n      0x00\n        /* \"--CODEGEN--\":1302:1304   */\n      0x20\n        /* \"--CODEGEN--\":1291:1300   */\n      dup3\n        /* \"--CODEGEN--\":1287:1305   */\n      add\n        /* \"--CODEGEN--\":1279:1305   */\n      swap1\n      pop\n        /* \"--CODEGEN--\":1352:1361   */\n      dup2\n        /* \"--CODEGEN--\":1346:1350   */\n      dup2\n        /* \"--CODEGEN--\":1342:1362   */\n      sub\n        /* \"--CODEGEN--\":1338:1339   */\n      0x00\n        /* \"--CODEGEN--\":1327:1336   */\n      dup4\n        /* \"--CODEGEN--\":1323:1340   */\n      add\n        /* \"--CODEGEN--\":1316:1363   */\n      mstore\n        /* \"--CODEGEN--\":1377:1455   */\n      tag_43\n        /* \"--CODEGEN--\":1450:1454   */\n      dup2\n        /* \"--CODEGEN--\":1441:1447   */\n      dup5\n        /* \"--CODEGEN--\":1377:1455   */\n      jump(tag_32)\n    tag_43:\n        /* \"--CODEGEN--\":1369:1455   */\n      swap1\n      pop\n        /* \"--CODEGEN--\":1273:1465   */\n      swap3\n      swap2\n      pop\n      pop\n      jump\n        /* \"--CODEGEN--\":1472:1728   */\n    tag_24:\n      0x00\n        /* \"--CODEGEN--\":1534:1536   */\n      0x40\n        /* \"--CODEGEN--\":1528:1537   */\n      mload\n        /* \"--CODEGEN--\":1518:1537   */\n      swap1\n      pop\n        /* \"--CODEGEN--\":1572:1576   */\n      dup2\n        /* \"--CODEGEN--\":1564:1570   */\n      dup2\n        /* \"--CODEGEN--\":1560:1577   */\n      add\n        /* \"--CODEGEN--\":1671:1677   */\n      dup2\n        /* \"--CODEGEN--\":1659:1669   */\n      dup2\n        /* \"--CODEGEN--\":1656:1678   */\n      lt\n        /* \"--CODEGEN--\":1635:1653   */\n      0xffffffffffffffff\n        /* \"--CODEGEN--\":1623:1633   */\n      dup3\n        /* \"--CODEGEN--\":1620:1654   */\n      gt\n        /* \"--CODEGEN--\":1617:1679   */\n      or\n        /* \"--CODEGEN--\":1614:1616   */\n      iszero\n      tag_45\n      jumpi\n        /* \"--CODEGEN--\":1692:1693   */\n      0x00\n        /* \"--CODEGEN--\":1689:1690   */\n      dup1\n        /* \"--CODEGEN--\":1682:1694   */\n      revert\n        /* \"--CODEGEN--\":1614:1616   */\n    tag_45:\n        /* \"--CODEGEN--\":1712:1722   */\n      dup1\n        /* \"--CODEGEN--\":1708:1710   */\n      0x40\n        /* \"--CODEGEN--\":1701:1723   */\n      mstore\n        /* \"--CODEGEN--\":1512:1728   */\n      pop\n      swap2\n      swap1\n      pop\n      jump\n        /* \"--CODEGEN--\":1735:2057   */\n    tag_23:\n      0x00\n        /* \"--CODEGEN--\":1879:1897   */\n      0xffffffffffffffff\n        /* \"--CODEGEN--\":1871:1877   */\n      dup3\n        /* \"--CODEGEN--\":1868:1898   */\n      gt\n        /* \"--CODEGEN--\":1865:1867   */\n      iszero\n      tag_47\n      jumpi\n        /* \"--CODEGEN--\":1911:1912   */\n      0x00\n        /* \"--CODEGEN--\":1908:1909   */\n      dup1\n        /* \"--CODEGEN--\":1901:1913   */\n      revert\n        /* \"--CODEGEN--\":1865:1867   */\n    tag_47:\n        /* \"--CODEGEN--\":1978:1982   */\n      0x1f\n        /* \"--CODEGEN--\":1974:1983   */\n      not\n        /* \"--CODEGEN--\":1967:1971   */\n      0x1f\n        /* \"--CODEGEN--\":1959:1965   */\n      dup4\n        /* \"--CODEGEN--\":1955:1972   */\n      add\n        /* \"--CODEGEN--\":1951:1984   */\n      and\n        /* \"--CODEGEN--\":1943:1984   */\n      swap1\n      pop\n        /* \"--CODEGEN--\":2042:2046   */\n      0x20\n        /* \"--CODEGEN--\":2036:2040   */\n      dup2\n        /* \"--CODEGEN--\":2032:2047   */\n      add\n        /* \"--CODEGEN--\":2024:2047   */\n      swap1\n      pop\n        /* \"--CODEGEN--\":1802:2057   */\n      swap2\n      swap1\n      pop\n      jump\n        /* \"--CODEGEN--\":2064:2186   */\n    tag_35:\n      0x00\n        /* \"--CODEGEN--\":2158:2163   */\n      dup2\n        /* \"--CODEGEN--\":2152:2164   */\n      mload\n        /* \"--CODEGEN--\":2142:2164   */\n      swap1\n      pop\n        /* \"--CODEGEN--\":2123:2186   */\n      swap2\n      swap1\n      pop\n      jump\n        /* \"--CODEGEN--\":2194:2357   */\n    tag_37:\n      0x00\n        /* \"--CODEGEN--\":2309:2315   */\n      dup3\n        /* \"--CODEGEN--\":2304:2307   */\n      dup3\n        /* \"--CODEGEN--\":2297:2316   */\n      mstore\n        /* \"--CODEGEN--\":2346:2350   */\n      0x20\n        /* \"--CODEGEN--\":2341:2344   */\n      dup3\n        /* \"--CODEGEN--\":2337:2351   */\n      add\n        /* \"--CODEGEN--\":2322:2351   */\n      swap1\n      pop\n        /* \"--CODEGEN--\":2290:2357   */\n      swap3\n      swap2\n      pop\n      pop\n      jump\n        /* \"--CODEGEN--\":2366:2511   */\n    tag_27:\n        /* \"--CODEGEN--\":2447:2453   */\n      dup3\n        /* \"--CODEGEN--\":2442:2445   */\n      dup2\n        /* \"--CODEGEN--\":2437:2440   */\n      dup4\n        /* \"--CODEGEN--\":2424:2454   */\n      calldatacopy\n        /* \"--CODEGEN--\":2503:2504   */\n      0x00\n        /* \"--CODEGEN--\":2494:2500   */\n      dup4\n        /* \"--CODEGEN--\":2489:2492   */\n      dup4\n        /* \"--CODEGEN--\":2485:2501   */\n      add\n        /* \"--CODEGEN--\":2478:2505   */\n      mstore\n        /* \"--CODEGEN--\":2417:2511   */\n      pop\n      pop\n      pop\n      jump\n        /* \"--CODEGEN--\":2520:2788   */\n    tag_39:\n        /* \"--CODEGEN--\":2585:2586   */\n      0x00\n        /* \"--CODEGEN--\":2592:2693   */\n    tag_52:\n        /* \"--CODEGEN--\":2606:2612   */\n      dup4\n        /* \"--CODEGEN--\":2603:2604   */\n      dup2\n        /* \"--CODEGEN--\":2600:2613   */\n      lt\n        /* \"--CODEGEN--\":2592:2693   */\n      iszero\n      tag_54\n      jumpi\n        /* \"--CODEGEN--\":2682:2683   */\n      dup1\n        /* \"--CODEGEN--\":2677:2680   */\n      dup3\n        /* \"--CODEGEN--\":2673:2684   */\n      add\n        /* \"--CODEGEN--\":2667:2685   */\n      mload\n        /* \"--CODEGEN--\":2663:2664   */\n      dup2\n        /* \"--CODEGEN--\":2658:2661   */\n      dup5\n        /* \"--CODEGEN--\":2654:2665   */\n      add\n        /* \"--CODEGEN--\":2647:2686   */\n      mstore\n        /* \"--CODEGEN--\":2628:2630   */\n      0x20\n        /* \"--CODEGEN--\":2625:2626   */\n      dup2\n        /* \"--CODEGEN--\":2621:2631   */\n      add\n        /* \"--CODEGEN--\":2616:2631   */\n      swap1\n      pop\n        /* \"--CODEGEN--\":2592:2693   */\n      jump(tag_52)\n    tag_54:\n        /* \"--CODEGEN--\":2708:2714   */\n      dup4\n        /* \"--CODEGEN--\":2705:2706   */\n      dup2\n        /* \"--CODEGEN--\":2702:2715   */\n      gt\n        /* \"--CODEGEN--\":2699:2701   */\n      iszero\n      tag_55\n      jumpi\n        /* \"--CODEGEN--\":2773:2774   */\n      0x00\n        /* \"--CODEGEN--\":2764:2770   */\n      dup5\n        /* \"--CODEGEN--\":2759:2762   */\n      dup5\n        /* \"--CODEGEN--\":2755:2771   */\n      add\n        /* \"--CODEGEN--\":2748:2775   */\n      mstore\n        /* \"--CODEGEN--\":2699:2701   */\n    tag_55:\n        /* \"--CODEGEN--\":2569:2788   */\n      pop\n      pop\n      pop\n      pop\n      jump\n        /* \"--CODEGEN--\":2796:2893   */\n    tag_41:\n      0x00\n        /* \"--CODEGEN--\":2884:2886   */\n      0x1f\n        /* \"--CODEGEN--\":2880:2887   */\n      not\n        /* \"--CODEGEN--\":2875:2877   */\n      0x1f\n        /* \"--CODEGEN--\":2868:2873   */\n      dup4\n        /* \"--CODEGEN--\":2864:2878   */\n      add\n        /* \"--CODEGEN--\":2860:2888   */\n      and\n        /* \"--CODEGEN--\":2850:2888   */\n      swap1\n      pop\n        /* \"--CODEGEN--\":2844:2893   */\n      swap2\n      swap1\n      pop\n      jump\n\n    auxdata: 0xa26469706673582212202db1a1bf1f7f8bc9388ac94e2f859a8f6f9ebbb3fb832b054891799dbc5157bd64736f6c63430006000033\n}\n",
				"bytecode": {
					"linkReferences": {},
					"object": "608060405234801561001057600080fd5b506102d5806100206000396000f3fe608060405234801561001057600080fd5b50600436106100365760003560e01c80633fbbd8ee1461003b578063da7fc1f114610057575b600080fd5b6100556004803603610050919081019061013b565b610073565b005b610071600480360361006c919081019061013b565b6100ad565b005b7f6391dcd39ec1eccb6cae5c104bbe0df2c4159afd331b17a0d0223024df9de608816040516100a291906101b5565b60405180910390a150565b7f6391dcd39ec1eccb6cae5c104bbe0df2c4159afd331b17a0d0223024df9de608816040516100dc91906101b5565b60405180910390a150565b600082601f8301126100f857600080fd5b813561010b61010682610204565b6101d7565b9150808252602083016020830185838301111561012757600080fd5b61013283828461024c565b50505092915050565b60006020828403121561014d57600080fd5b600082013567ffffffffffffffff81111561016757600080fd5b610173848285016100e7565b91505092915050565b600061018782610230565b610191818561023b565b93506101a181856020860161025b565b6101aa8161028e565b840191505092915050565b600060208201905081810360008301526101cf818461017c565b905092915050565b6000604051905081810181811067ffffffffffffffff821117156101fa57600080fd5b8060405250919050565b600067ffffffffffffffff82111561021b57600080fd5b601f19601f8301169050602081019050919050565b600081519050919050565b600082825260208201905092915050565b82818337600083830152505050565b60005b8381101561027957808201518184015260208101905061025e565b83811115610288576000848401525b50505050565b6000601f19601f830116905091905056fea26469706673582212202db1a1bf1f7f8bc9388ac94e2f859a8f6f9ebbb3fb832b054891799dbc5157bd64736f6c63430006000033",
					"opcodes": "PUSH1 0x80 PUSH1 0x40 MSTORE CALLVALUE DUP1 ISZERO PUSH2 0x10 JUMPI PUSH1 0x0 DUP1 REVERT JUMPDEST POP PUSH2 0x2D5 DUP1 PUSH2 0x20 PUSH1 0x0 CODECOPY PUSH1 0x0 RETURN INVALID PUSH1 0x80 PUSH1 0x40 MSTORE CALLVALUE DUP1 ISZERO PUSH2 0x10 JUMPI PUSH1 0x0 DUP1 REVERT JUMPDEST POP PUSH1 0x4 CALLDATASIZE LT PUSH2 0x36 JUMPI PUSH1 0x0 CALLDATALOAD PUSH1 0xE0 SHR DUP1 PUSH4 0x3FBBD8EE EQ PUSH2 0x3B JUMPI DUP1 PUSH4 0xDA7FC1F1 EQ PUSH2 0x57 JUMPI JUMPDEST PUSH1 0x0 DUP1 REVERT JUMPDEST PUSH2 0x55 PUSH1 0x4 DUP1 CALLDATASIZE SUB PUSH2 0x50 SWAP2 SWAP1 DUP2 ADD SWAP1 PUSH2 0x13B JUMP JUMPDEST PUSH2 0x73 JUMP JUMPDEST STOP JUMPDEST PUSH2 0x71 PUSH1 0x4 DUP1 CALLDATASIZE SUB PUSH2 0x6C SWAP2 SWAP1 DUP2 ADD SWAP1 PUSH2 0x13B JUMP JUMPDEST PUSH2 0xAD JUMP JUMPDEST STOP JUMPDEST PUSH32 0x6391DCD39EC1ECCB6CAE5C104BBE0DF2C4159AFD331B17A0D0223024DF9DE608 DUP2 PUSH1 0x40 MLOAD PUSH2 0xA2 SWAP2 SWAP1 PUSH2 0x1B5 JUMP JUMPDEST PUSH1 0x40 MLOAD DUP1 SWAP2 SUB SWAP1 LOG1 POP JUMP JUMPDEST PUSH32 0x6391DCD39EC1ECCB6CAE5C104BBE0DF2C4159AFD331B17A0D0223024DF9DE608 DUP2 PUSH1 0x40 MLOAD PUSH2 0xDC SWAP2 SWAP1 PUSH2 0x1B5 JUMP JUMPDEST PUSH1 0x40 MLOAD DUP1 SWAP2 SUB SWAP1 LOG1 POP JUMP JUMPDEST PUSH1 0x0 DUP3 PUSH1 0x1F DUP4 ADD SLT PUSH2 0xF8 JUMPI PUSH1 0x0 DUP1 REVERT JUMPDEST DUP2 CALLDATALOAD PUSH2 0x10B PUSH2 0x106 DUP3 PUSH2 0x204 JUMP JUMPDEST PUSH2 0x1D7 JUMP JUMPDEST SWAP2 POP DUP1 DUP3 MSTORE PUSH1 0x20 DUP4 ADD PUSH1 0x20 DUP4 ADD DUP6 DUP4 DUP4 ADD GT ISZERO PUSH2 0x127 JUMPI PUSH1 0x0 DUP1 REVERT JUMPDEST PUSH2 0x132 DUP4 DUP3 DUP5 PUSH2 0x24C JUMP JUMPDEST POP POP POP SWAP3 SWAP2 POP POP JUMP JUMPDEST PUSH1 0x0 PUSH1 0x20 DUP3 DUP5 SUB SLT ISZERO PUSH2 0x14D JUMPI PUSH1 0x0 DUP1 REVERT JUMPDEST PUSH1 0x0 DUP3 ADD CALLDATALOAD PUSH8 0xFFFFFFFFFFFFFFFF DUP2 GT ISZERO PUSH2 0x167 JUMPI PUSH1 0x0 DUP1 REVERT JUMPDEST PUSH2 0x173 DUP5 DUP3 DUP6 ADD PUSH2 0xE7 JUMP JUMPDEST SWAP2 POP POP SWAP3 SWAP2 POP POP JUMP JUMPDEST PUSH1 0x0 PUSH2 0x187 DUP3 PUSH2 0x230 JUMP JUMPDEST PUSH2 0x191 DUP2 DUP6 PUSH2 0x23B JUMP JUMPDEST SWAP4 POP PUSH2 0x1A1 DUP2 DUP6 PUSH1 0x20 DUP7 ADD PUSH2 0x25B JUMP JUMPDEST PUSH2 0x1AA DUP2 PUSH2 0x28E JUMP JUMPDEST DUP5 ADD SWAP2 POP POP SWAP3 SWAP2 POP POP JUMP JUMPDEST PUSH1 0x0 PUSH1 0x20 DUP3 ADD SWAP1 POP DUP2 DUP2 SUB PUSH1 0x0 DUP4 ADD MSTORE PUSH2 0x1CF DUP2 DUP5 PUSH2 0x17C JUMP JUMPDEST SWAP1 POP SWAP3 SWAP2 POP POP JUMP JUMPDEST PUSH1 0x0 PUSH1 0x40 MLOAD SWAP1 POP DUP2 DUP2 ADD DUP2 DUP2 LT PUSH8 0xFFFFFFFFFFFFFFFF DUP3 GT OR ISZERO PUSH2 0x1FA JUMPI PUSH1 0x0 DUP1 REVERT JUMPDEST DUP1 PUSH1 0x40 MSTORE POP SWAP2 SWAP1 POP JUMP JUMPDEST PUSH1 0x0 PUSH8 0xFFFFFFFFFFFFFFFF DUP3 GT ISZERO PUSH2 0x21B JUMPI PUSH1 0x0 DUP1 REVERT JUMPDEST PUSH1 0x1F NOT PUSH1 0x1F DUP4 ADD AND SWAP1 POP PUSH1 0x20 DUP2 ADD SWAP1 POP SWAP2 SWAP1 POP JUMP JUMPDEST PUSH1 0x0 DUP2 MLOAD SWAP1 POP SWAP2 SWAP1 POP JUMP JUMPDEST PUSH1 0x0 DUP3 DUP3 MSTORE PUSH1 0x20 DUP3 ADD SWAP1 POP SWAP3 SWAP2 POP POP JUMP JUMPDEST DUP3 DUP2 DUP4 CALLDATACOPY PUSH1 0x0 DUP4 DUP4 ADD MSTORE POP POP POP JUMP JUMPDEST PUSH1 0x0 JUMPDEST DUP4 DUP2 LT ISZERO PUSH2 0x279 JUMPI DUP1 DUP3 ADD MLOAD DUP2 DUP5 ADD MSTORE PUSH1 0x20 DUP2 ADD SWAP1 POP PUSH2 0x25E JUMP JUMPDEST DUP4 DUP2 GT ISZERO PUSH2 0x288 JUMPI PUSH1 0x0 DUP5 DUP5 ADD MSTORE JUMPDEST POP POP POP POP JUMP JUMPDEST PUSH1 0x0 PUSH1 0x1F NOT PUSH1 0x1F DUP4 ADD AND SWAP1 POP SWAP2 SWAP1 POP JUMP INVALID LOG2 PUSH5 0x6970667358 0x22 SLT KECCAK256 0x2D 0xB1 LOG1 0xBF 0x1F PUSH32 0x8BC9388AC94E2F859A8F6F9EBBB3FB832B054891799DBC5157BD64736F6C6343 STOP MOD STOP STOP CALLER "
				},
				"gasEstimates": {
					"creation": {
						"codeDepositCost": "145000",
						"executionCost": "190",
						"totalCost": "145190"
					},
					"external": {
						"EmitirEvento(string)": "infinite",
						"EmitirEvento2(string)": "infinite"
					}
				},
				"methodIdentifiers": {
					"EmitirEvento(string)": "da7fc1f1",
					"EmitirEvento2(string)": "3fbbd8ee"
				}
			},
			"storageLayout": {
				"storage": [],
				"types": null
			},
			"userdoc": {
				"methods": {}
			}
		}
	}
}