{
	"Funciones/retorno.sol": {
		"retornos": {
			"abi": [
				{
					"inputs": [],
					"name": "saludo",
					"outputs": [
						{
							"internalType": "string",
							"name": "",
							"type": "string"
						}
					],
					"stateMutability": "pure",
					"type": "function"
				}
			],
			"devdoc": {
				"methods": {}
			},
			"evm": {
				"assembly": "    /* \"Funciones/retorno.sol\":62:179  contract retornos{\r... */\n  mstore(0x40, 0x80)\n  callvalue\n    /* \"--CODEGEN--\":8:17   */\n  dup1\n    /* \"--CODEGEN--\":5:7   */\n  iszero\n  tag_1\n  jumpi\n    /* \"--CODEGEN--\":30:31   */\n  0x00\n    /* \"--CODEGEN--\":27:28   */\n  dup1\n    /* \"--CODEGEN--\":20:32   */\n  revert\n    /* \"--CODEGEN--\":5:7   */\ntag_1:\n    /* \"Funciones/retorno.sol\":62:179  contract retornos{\r... */\n  pop\n  dataSize(sub_0)\n  dup1\n  dataOffset(sub_0)\n  0x00\n  codecopy\n  0x00\n  return\nstop\n\nsub_0: assembly {\n        /* \"Funciones/retorno.sol\":62:179  contract retornos{\r... */\n      mstore(0x40, 0x80)\n      callvalue\n        /* \"--CODEGEN--\":8:17   */\n      dup1\n        /* \"--CODEGEN--\":5:7   */\n      iszero\n      tag_1\n      jumpi\n        /* \"--CODEGEN--\":30:31   */\n      0x00\n        /* \"--CODEGEN--\":27:28   */\n      dup1\n        /* \"--CODEGEN--\":20:32   */\n      revert\n        /* \"--CODEGEN--\":5:7   */\n    tag_1:\n        /* \"Funciones/retorno.sol\":62:179  contract retornos{\r... */\n      pop\n      jumpi(tag_2, lt(calldatasize, 0x04))\n      shr(0xe0, calldataload(0x00))\n      dup1\n      0x0a3a9d63\n      eq\n      tag_3\n      jumpi\n    tag_2:\n      0x00\n      dup1\n      revert\n        /* \"Funciones/retorno.sol\":88:176  function saludo() public pure returns (string memory){\r... */\n    tag_3:\n      tag_4\n      tag_5\n      jump\t// in\n    tag_4:\n      mload(0x40)\n      tag_6\n      swap2\n      swap1\n      jump(tag_7)\n    tag_6:\n      mload(0x40)\n      dup1\n      swap2\n      sub\n      swap1\n      return\n    tag_5:\n        /* \"Funciones/retorno.sol\":127:140  string memory */\n      0x60\n        /* \"Funciones/retorno.sol\":152:168  return \"saludos\" */\n      mload(0x40)\n      dup1\n      0x40\n      add\n      0x40\n      mstore\n      dup1\n      0x07\n      dup2\n      mstore\n      0x20\n      add\n      0x73616c75646f7300000000000000000000000000000000000000000000000000\n      dup2\n      mstore\n      pop\n      swap1\n      pop\n        /* \"Funciones/retorno.sol\":88:176  function saludo() public pure returns (string memory){\r... */\n      swap1\n      jump\t// out\n        /* \"--CODEGEN--\":5:352   */\n    tag_10:\n      0x00\n        /* \"--CODEGEN--\":117:156   */\n      tag_12\n        /* \"--CODEGEN--\":150:155   */\n      dup3\n        /* \"--CODEGEN--\":117:156   */\n      jump(tag_13)\n    tag_12:\n        /* \"--CODEGEN--\":168:239   */\n      tag_14\n        /* \"--CODEGEN--\":232:238   */\n      dup2\n        /* \"--CODEGEN--\":227:230   */\n      dup6\n        /* \"--CODEGEN--\":168:239   */\n      jump(tag_15)\n    tag_14:\n        /* \"--CODEGEN--\":161:239   */\n      swap4\n      pop\n        /* \"--CODEGEN--\":244:296   */\n      tag_16\n        /* \"--CODEGEN--\":289:295   */\n      dup2\n        /* \"--CODEGEN--\":284:287   */\n      dup6\n        /* \"--CODEGEN--\":277:281   */\n      0x20\n        /* \"--CODEGEN--\":270:275   */\n      dup7\n        /* \"--CODEGEN--\":266:282   */\n      add\n        /* \"--CODEGEN--\":244:296   */\n      jump(tag_17)\n    tag_16:\n        /* \"--CODEGEN--\":317:346   */\n      tag_18\n        /* \"--CODEGEN--\":339:345   */\n      dup2\n        /* \"--CODEGEN--\":317:346   */\n      jump(tag_19)\n    tag_18:\n        /* \"--CODEGEN--\":312:315   */\n      dup5\n        /* \"--CODEGEN--\":308:347   */\n      add\n        /* \"--CODEGEN--\":301:347   */\n      swap2\n      pop\n        /* \"--CODEGEN--\":97:352   */\n      pop\n      swap3\n      swap2\n      pop\n      pop\n      jump\n        /* \"--CODEGEN--\":359:660   */\n    tag_7:\n      0x00\n        /* \"--CODEGEN--\":497:499   */\n      0x20\n        /* \"--CODEGEN--\":486:495   */\n      dup3\n        /* \"--CODEGEN--\":482:500   */\n      add\n        /* \"--CODEGEN--\":474:500   */\n      swap1\n      pop\n        /* \"--CODEGEN--\":547:556   */\n      dup2\n        /* \"--CODEGEN--\":541:545   */\n      dup2\n        /* \"--CODEGEN--\":537:557   */\n      sub\n        /* \"--CODEGEN--\":533:534   */\n      0x00\n        /* \"--CODEGEN--\":522:531   */\n      dup4\n        /* \"--CODEGEN--\":518:535   */\n      add\n        /* \"--CODEGEN--\":511:558   */\n      mstore\n        /* \"--CODEGEN--\":572:650   */\n      tag_21\n        /* \"--CODEGEN--\":645:649   */\n      dup2\n        /* \"--CODEGEN--\":636:642   */\n      dup5\n        /* \"--CODEGEN--\":572:650   */\n      jump(tag_10)\n    tag_21:\n        /* \"--CODEGEN--\":564:650   */\n      swap1\n      pop\n        /* \"--CODEGEN--\":468:660   */\n      swap3\n      swap2\n      pop\n      pop\n      jump\n        /* \"--CODEGEN--\":667:789   */\n    tag_13:\n      0x00\n        /* \"--CODEGEN--\":761:766   */\n      dup2\n        /* \"--CODEGEN--\":755:767   */\n      mload\n        /* \"--CODEGEN--\":745:767   */\n      swap1\n      pop\n        /* \"--CODEGEN--\":726:789   */\n      swap2\n      swap1\n      pop\n      jump\n        /* \"--CODEGEN--\":797:960   */\n    tag_15:\n      0x00\n        /* \"--CODEGEN--\":912:918   */\n      dup3\n        /* \"--CODEGEN--\":907:910   */\n      dup3\n        /* \"--CODEGEN--\":900:919   */\n      mstore\n        /* \"--CODEGEN--\":949:953   */\n      0x20\n        /* \"--CODEGEN--\":944:947   */\n      dup3\n        /* \"--CODEGEN--\":940:954   */\n      add\n        /* \"--CODEGEN--\":925:954   */\n      swap1\n      pop\n        /* \"--CODEGEN--\":893:960   */\n      swap3\n      swap2\n      pop\n      pop\n      jump\n        /* \"--CODEGEN--\":969:1237   */\n    tag_17:\n        /* \"--CODEGEN--\":1034:1035   */\n      0x00\n        /* \"--CODEGEN--\":1041:1142   */\n    tag_25:\n        /* \"--CODEGEN--\":1055:1061   */\n      dup4\n        /* \"--CODEGEN--\":1052:1053   */\n      dup2\n        /* \"--CODEGEN--\":1049:1062   */\n      lt\n        /* \"--CODEGEN--\":1041:1142   */\n      iszero\n      tag_27\n      jumpi\n        /* \"--CODEGEN--\":1131:1132   */\n      dup1\n        /* \"--CODEGEN--\":1126:1129   */\n      dup3\n        /* \"--CODEGEN--\":1122:1133   */\n      add\n        /* \"--CODEGEN--\":1116:1134   */\n      mload\n        /* \"--CODEGEN--\":1112:1113   */\n      dup2\n        /* \"--CODEGEN--\":1107:1110   */\n      dup5\n        /* \"--CODEGEN--\":1103:1114   */\n      add\n        /* \"--CODEGEN--\":1096:1135   */\n      mstore\n        /* \"--CODEGEN--\":1077:1079   */\n      0x20\n        /* \"--CODEGEN--\":1074:1075   */\n      dup2\n        /* \"--CODEGEN--\":1070:1080   */\n      add\n        /* \"--CODEGEN--\":1065:1080   */\n      swap1\n      pop\n        /* \"--CODEGEN--\":1041:1142   */\n      jump(tag_25)\n    tag_27:\n        /* \"--CODEGEN--\":1157:1163   */\n      dup4\n        /* \"--CODEGEN--\":1154:1155   */\n      dup2\n        /* \"--CODEGEN--\":1151:1164   */\n      gt\n        /* \"--CODEGEN--\":1148:1150   */\n      iszero\n      tag_28\n      jumpi\n        /* \"--CODEGEN--\":1222:1223   */\n      0x00\n        /* \"--CODEGEN--\":1213:1219   */\n      dup5\n        /* \"--CODEGEN--\":1208:1211   */\n      dup5\n        /* \"--CODEGEN--\":1204:1220   */\n      add\n        /* \"--CODEGEN--\":1197:1224   */\n      mstore\n        /* \"--CODEGEN--\":1148:1150   */\n    tag_28:\n        /* \"--CODEGEN--\":1018:1237   */\n      pop\n      pop\n      pop\n      pop\n      jump\n        /* \"--CODEGEN--\":1245:1342   */\n    tag_19:\n      0x00\n        /* \"--CODEGEN--\":1333:1335   */\n      0x1f\n        /* \"--CODEGEN--\":1329:1336   */\n      not\n        /* \"--CODEGEN--\":1324:1326   */\n      0x1f\n        /* \"--CODEGEN--\":1317:1322   */\n      dup4\n        /* \"--CODEGEN--\":1313:1327   */\n      add\n        /* \"--CODEGEN--\":1309:1337   */\n      and\n        /* \"--CODEGEN--\":1299:1337   */\n      swap1\n      pop\n        /* \"--CODEGEN--\":1293:1342   */\n      swap2\n      swap1\n      pop\n      jump\n\n    auxdata: 0xa2646970667358221220d7d7cd6f557ea450b70b6ba8831b6c58130b7acb52fd226bada19ddbb325624464736f6c63430006000033\n}\n",
				"bytecode": {
					"linkReferences": {},
					"object": "608060405234801561001057600080fd5b5061017c806100206000396000f3fe608060405234801561001057600080fd5b506004361061002b5760003560e01c80630a3a9d6314610030575b600080fd5b61003861004e565b60405161004591906100c4565b60405180910390f35b60606040518060400160405280600781526020017f73616c75646f7300000000000000000000000000000000000000000000000000815250905090565b6000610096826100e6565b6100a081856100f1565b93506100b0818560208601610102565b6100b981610135565b840191505092915050565b600060208201905081810360008301526100de818461008b565b905092915050565b600081519050919050565b600082825260208201905092915050565b60005b83811015610120578082015181840152602081019050610105565b8381111561012f576000848401525b50505050565b6000601f19601f830116905091905056fea2646970667358221220d7d7cd6f557ea450b70b6ba8831b6c58130b7acb52fd226bada19ddbb325624464736f6c63430006000033",
					"opcodes": "PUSH1 0x80 PUSH1 0x40 MSTORE CALLVALUE DUP1 ISZERO PUSH2 0x10 JUMPI PUSH1 0x0 DUP1 REVERT JUMPDEST POP PUSH2 0x17C DUP1 PUSH2 0x20 PUSH1 0x0 CODECOPY PUSH1 0x0 RETURN INVALID PUSH1 0x80 PUSH1 0x40 MSTORE CALLVALUE DUP1 ISZERO PUSH2 0x10 JUMPI PUSH1 0x0 DUP1 REVERT JUMPDEST POP PUSH1 0x4 CALLDATASIZE LT PUSH2 0x2B JUMPI PUSH1 0x0 CALLDATALOAD PUSH1 0xE0 SHR DUP1 PUSH4 0xA3A9D63 EQ PUSH2 0x30 JUMPI JUMPDEST PUSH1 0x0 DUP1 REVERT JUMPDEST PUSH2 0x38 PUSH2 0x4E JUMP JUMPDEST PUSH1 0x40 MLOAD PUSH2 0x45 SWAP2 SWAP1 PUSH2 0xC4 JUMP JUMPDEST PUSH1 0x40 MLOAD DUP1 SWAP2 SUB SWAP1 RETURN JUMPDEST PUSH1 0x60 PUSH1 0x40 MLOAD DUP1 PUSH1 0x40 ADD PUSH1 0x40 MSTORE DUP1 PUSH1 0x7 DUP2 MSTORE PUSH1 0x20 ADD PUSH32 0x73616C75646F7300000000000000000000000000000000000000000000000000 DUP2 MSTORE POP SWAP1 POP SWAP1 JUMP JUMPDEST PUSH1 0x0 PUSH2 0x96 DUP3 PUSH2 0xE6 JUMP JUMPDEST PUSH2 0xA0 DUP2 DUP6 PUSH2 0xF1 JUMP JUMPDEST SWAP4 POP PUSH2 0xB0 DUP2 DUP6 PUSH1 0x20 DUP7 ADD PUSH2 0x102 JUMP JUMPDEST PUSH2 0xB9 DUP2 PUSH2 0x135 JUMP JUMPDEST DUP5 ADD SWAP2 POP POP SWAP3 SWAP2 POP POP JUMP JUMPDEST PUSH1 0x0 PUSH1 0x20 DUP3 ADD SWAP1 POP DUP2 DUP2 SUB PUSH1 0x0 DUP4 ADD MSTORE PUSH2 0xDE DUP2 DUP5 PUSH2 0x8B JUMP JUMPDEST SWAP1 POP SWAP3 SWAP2 POP POP JUMP JUMPDEST PUSH1 0x0 DUP2 MLOAD SWAP1 POP SWAP2 SWAP1 POP JUMP JUMPDEST PUSH1 0x0 DUP3 DUP3 MSTORE PUSH1 0x20 DUP3 ADD SWAP1 POP SWAP3 SWAP2 POP POP JUMP JUMPDEST PUSH1 0x0 JUMPDEST DUP4 DUP2 LT ISZERO PUSH2 0x120 JUMPI DUP1 DUP3 ADD MLOAD DUP2 DUP5 ADD MSTORE PUSH1 0x20 DUP2 ADD SWAP1 POP PUSH2 0x105 JUMP JUMPDEST DUP4 DUP2 GT ISZERO PUSH2 0x12F JUMPI PUSH1 0x0 DUP5 DUP5 ADD MSTORE JUMPDEST POP POP POP POP JUMP JUMPDEST PUSH1 0x0 PUSH1 0x1F NOT PUSH1 0x1F DUP4 ADD AND SWAP1 POP SWAP2 SWAP1 POP JUMP INVALID LOG2 PUSH5 0x6970667358 0x22 SLT KECCAK256 0xD7 0xD7 0xCD PUSH16 0x557EA450B70B6BA8831B6C58130B7ACB MSTORE REVERT 0x22 PUSH12 0xADA19DDBB325624464736F6C PUSH4 0x43000600 STOP CALLER "
				},
				"gasEstimates": {
					"creation": {
						"codeDepositCost": "76000",
						"executionCost": "123",
						"totalCost": "76123"
					},
					"external": {
						"saludo()": "infinite"
					}
				},
				"methodIdentifiers": {
					"saludo()": "0a3a9d63"
				}
			},
			"storageLayout": {
				"storage": [],
				"types": null
			},
			"userdoc": {
				"methods": {}
			}
		}
	}
}