{
	"Funciones/eventos.sol": {
		"Eventos": {
			"abi": [
				{
					"anonymous": false,
					"inputs": [
						{
							"indexed": false,
							"internalType": "string",
							"name": "_nombrePersona",
							"type": "string"
						}
					],
					"name": "eventito",
					"type": "event"
				},
				{
					"anonymous": false,
					"inputs": [
						{
							"indexed": false,
							"internalType": "string",
							"name": "_nombrePersona",
							"type": "string"
						},
						{
							"indexed": false,
							"internalType": "uint256",
							"name": "edad",
							"type": "uint256"
						}
					],
					"name": "eventito2",
					"type": "event"
				},
				{
					"anonymous": false,
					"inputs": [
						{
							"indexed": false,
							"internalType": "string",
							"name": "",
							"type": "string"
						},
						{
							"indexed": false,
							"internalType": "uint256",
							"name": "",
							"type": "uint256"
						},
						{
							"indexed": false,
							"internalType": "address",
							"name": "",
							"type": "address"
						},
						{
							"indexed": false,
							"internalType": "bytes32",
							"name": "",
							"type": "bytes32"
						}
					],
					"name": "eventito3",
					"type": "event"
				},
				{
					"inputs": [
						{
							"internalType": "string",
							"name": "_nombrePersona",
							"type": "string"
						}
					],
					"name": "EmitirEvento",
					"outputs": [],
					"stateMutability": "nonpayable",
					"type": "function"
				},
				{
					"inputs": [
						{
							"internalType": "string",
							"name": "_nombrePersona",
							"type": "string"
						},
						{
							"internalType": "uint256",
							"name": "_edad",
							"type": "uint256"
						}
					],
					"name": "EmitirEvento2",
					"outputs": [],
					"stateMutability": "nonpayable",
					"type": "function"
				}
			],
			"devdoc": {
				"methods": {}
			},
			"evm": {
				"assembly": "    /* \"Funciones/eventos.sol\":62:507  contract Eventos{\r... */\n  mstore(0x40, 0x80)\n  callvalue\n    /* \"--CODEGEN--\":8:17   */\n  dup1\n    /* \"--CODEGEN--\":5:7   */\n  iszero\n  tag_1\n  jumpi\n    /* \"--CODEGEN--\":30:31   */\n  0x00\n    /* \"--CODEGEN--\":27:28   */\n  dup1\n    /* \"--CODEGEN--\":20:32   */\n  revert\n    /* \"--CODEGEN--\":5:7   */\ntag_1:\n    /* \"Funciones/eventos.sol\":62:507  contract Eventos{\r... */\n  pop\n  dataSize(sub_0)\n  dup1\n  dataOffset(sub_0)\n  0x00\n  codecopy\n  0x00\n  return\nstop\n\nsub_0: assembly {\n        /* \"Funciones/eventos.sol\":62:507  contract Eventos{\r... */\n      mstore(0x40, 0x80)\n      callvalue\n        /* \"--CODEGEN--\":8:17   */\n      dup1\n        /* \"--CODEGEN--\":5:7   */\n      iszero\n      tag_1\n      jumpi\n        /* \"--CODEGEN--\":30:31   */\n      0x00\n        /* \"--CODEGEN--\":27:28   */\n      dup1\n        /* \"--CODEGEN--\":20:32   */\n      revert\n        /* \"--CODEGEN--\":5:7   */\n    tag_1:\n        /* \"Funciones/eventos.sol\":62:507  contract Eventos{\r... */\n      pop\n      jumpi(tag_2, lt(calldatasize, 0x04))\n      shr(0xe0, calldataload(0x00))\n      dup1\n      0xc355a3e5\n      eq\n      tag_3\n      jumpi\n      dup1\n      0xda7fc1f1\n      eq\n      tag_4\n      jumpi\n    tag_2:\n      0x00\n      dup1\n      revert\n        /* \"Funciones/eventos.sol\":366:494  function EmitirEvento2(string memory _nombrePersona, uint _edad) public {\r... */\n    tag_3:\n      tag_5\n      0x04\n      dup1\n      calldatasize\n      sub\n      tag_6\n      swap2\n      swap1\n      dup2\n      add\n      swap1\n      jump(tag_7)\n    tag_6:\n      tag_8\n      jump\t// in\n    tag_5:\n      stop\n        /* \"Funciones/eventos.sol\":251:358  function EmitirEvento(string memory _nombrePersona) public {\r... */\n    tag_4:\n      tag_9\n      0x04\n      dup1\n      calldatasize\n      sub\n      tag_10\n      swap2\n      swap1\n      dup2\n      add\n      swap1\n      jump(tag_11)\n    tag_10:\n      tag_12\n      jump\t// in\n    tag_9:\n      stop\n        /* \"Funciones/eventos.sol\":366:494  function EmitirEvento2(string memory _nombrePersona, uint _edad) public {\r... */\n    tag_8:\n        /* \"Funciones/eventos.sol\":454:486  eventito2(_nombrePersona, _edad) */\n      0x2b9e5e55909e031f4762cad07e8c2949a5d9788eeb9578dc09e087a97893f67f\n        /* \"Funciones/eventos.sol\":464:478  _nombrePersona */\n      dup3\n        /* \"Funciones/eventos.sol\":480:485  _edad */\n      dup3\n        /* \"Funciones/eventos.sol\":454:486  eventito2(_nombrePersona, _edad) */\n      mload(0x40)\n      tag_14\n      swap3\n      swap2\n      swap1\n      jump(tag_15)\n    tag_14:\n      mload(0x40)\n      dup1\n      swap2\n      sub\n      swap1\n      log1\n        /* \"Funciones/eventos.sol\":366:494  function EmitirEvento2(string memory _nombrePersona, uint _edad) public {\r... */\n      pop\n      pop\n      jump\t// out\n        /* \"Funciones/eventos.sol\":251:358  function EmitirEvento(string memory _nombrePersona) public {\r... */\n    tag_12:\n        /* \"Funciones/eventos.sol\":326:350  eventito(_nombrePersona) */\n      0x6391dcd39ec1eccb6cae5c104bbe0df2c4159afd331b17a0d0223024df9de608\n        /* \"Funciones/eventos.sol\":335:349  _nombrePersona */\n      dup2\n        /* \"Funciones/eventos.sol\":326:350  eventito(_nombrePersona) */\n      mload(0x40)\n      tag_17\n      swap2\n      swap1\n      jump(tag_18)\n    tag_17:\n      mload(0x40)\n      dup1\n      swap2\n      sub\n      swap1\n      log1\n        /* \"Funciones/eventos.sol\":251:358  function EmitirEvento(string memory _nombrePersona) public {\r... */\n      pop\n      jump\t// out\n        /* \"--CODEGEN--\":6:448   */\n    tag_20:\n      0x00\n        /* \"--CODEGEN--\":108:111   */\n      dup3\n        /* \"--CODEGEN--\":101:105   */\n      0x1f\n        /* \"--CODEGEN--\":93:99   */\n      dup4\n        /* \"--CODEGEN--\":89:106   */\n      add\n        /* \"--CODEGEN--\":85:112   */\n      slt\n        /* \"--CODEGEN--\":75:77   */\n      tag_22\n      jumpi\n        /* \"--CODEGEN--\":126:127   */\n      0x00\n        /* \"--CODEGEN--\":123:124   */\n      dup1\n        /* \"--CODEGEN--\":116:128   */\n      revert\n        /* \"--CODEGEN--\":75:77   */\n    tag_22:\n        /* \"--CODEGEN--\":163:169   */\n      dup2\n        /* \"--CODEGEN--\":150:170   */\n      calldataload\n        /* \"--CODEGEN--\":185:250   */\n      tag_23\n        /* \"--CODEGEN--\":200:249   */\n      tag_24\n        /* \"--CODEGEN--\":242:248   */\n      dup3\n        /* \"--CODEGEN--\":200:249   */\n      jump(tag_25)\n    tag_24:\n        /* \"--CODEGEN--\":185:250   */\n      jump(tag_26)\n    tag_23:\n        /* \"--CODEGEN--\":176:250   */\n      swap2\n      pop\n        /* \"--CODEGEN--\":270:276   */\n      dup1\n        /* \"--CODEGEN--\":263:268   */\n      dup3\n        /* \"--CODEGEN--\":256:277   */\n      mstore\n        /* \"--CODEGEN--\":306:310   */\n      0x20\n        /* \"--CODEGEN--\":298:304   */\n      dup4\n        /* \"--CODEGEN--\":294:311   */\n      add\n        /* \"--CODEGEN--\":339:343   */\n      0x20\n        /* \"--CODEGEN--\":332:337   */\n      dup4\n        /* \"--CODEGEN--\":328:344   */\n      add\n        /* \"--CODEGEN--\":374:377   */\n      dup6\n        /* \"--CODEGEN--\":365:371   */\n      dup4\n        /* \"--CODEGEN--\":360:363   */\n      dup4\n        /* \"--CODEGEN--\":356:372   */\n      add\n        /* \"--CODEGEN--\":353:378   */\n      gt\n        /* \"--CODEGEN--\":350:352   */\n      iszero\n      tag_27\n      jumpi\n        /* \"--CODEGEN--\":391:392   */\n      0x00\n        /* \"--CODEGEN--\":388:389   */\n      dup1\n        /* \"--CODEGEN--\":381:393   */\n      revert\n        /* \"--CODEGEN--\":350:352   */\n    tag_27:\n        /* \"--CODEGEN--\":401:442   */\n      tag_28\n        /* \"--CODEGEN--\":435:441   */\n      dup4\n        /* \"--CODEGEN--\":430:433   */\n      dup3\n        /* \"--CODEGEN--\":425:428   */\n      dup5\n        /* \"--CODEGEN--\":401:442   */\n      jump(tag_29)\n    tag_28:\n        /* \"--CODEGEN--\":68:448   */\n      pop\n      pop\n      pop\n      swap3\n      swap2\n      pop\n      pop\n      jump\n        /* \"--CODEGEN--\":456:586   */\n    tag_30:\n      0x00\n        /* \"--CODEGEN--\":536:542   */\n      dup2\n        /* \"--CODEGEN--\":523:543   */\n      calldataload\n        /* \"--CODEGEN--\":514:543   */\n      swap1\n      pop\n        /* \"--CODEGEN--\":548:581   */\n      tag_32\n        /* \"--CODEGEN--\":575:580   */\n      dup2\n        /* \"--CODEGEN--\":548:581   */\n      jump(tag_33)\n    tag_32:\n        /* \"--CODEGEN--\":508:586   */\n      swap3\n      swap2\n      pop\n      pop\n      jump\n        /* \"--CODEGEN--\":593:940   */\n    tag_11:\n      0x00\n        /* \"--CODEGEN--\":707:709   */\n      0x20\n        /* \"--CODEGEN--\":695:704   */\n      dup3\n        /* \"--CODEGEN--\":686:693   */\n      dup5\n        /* \"--CODEGEN--\":682:705   */\n      sub\n        /* \"--CODEGEN--\":678:710   */\n      slt\n        /* \"--CODEGEN--\":675:677   */\n      iszero\n      tag_35\n      jumpi\n        /* \"--CODEGEN--\":723:724   */\n      0x00\n        /* \"--CODEGEN--\":720:721   */\n      dup1\n        /* \"--CODEGEN--\":713:725   */\n      revert\n        /* \"--CODEGEN--\":675:677   */\n    tag_35:\n        /* \"--CODEGEN--\":786:787   */\n      0x00\n        /* \"--CODEGEN--\":775:784   */\n      dup3\n        /* \"--CODEGEN--\":771:788   */\n      add\n        /* \"--CODEGEN--\":758:789   */\n      calldataload\n        /* \"--CODEGEN--\":809:827   */\n      0xffffffffffffffff\n        /* \"--CODEGEN--\":801:807   */\n      dup2\n        /* \"--CODEGEN--\":798:828   */\n      gt\n        /* \"--CODEGEN--\":795:797   */\n      iszero\n      tag_36\n      jumpi\n        /* \"--CODEGEN--\":841:842   */\n      0x00\n        /* \"--CODEGEN--\":838:839   */\n      dup1\n        /* \"--CODEGEN--\":831:843   */\n      revert\n        /* \"--CODEGEN--\":795:797   */\n    tag_36:\n        /* \"--CODEGEN--\":861:924   */\n      tag_37\n        /* \"--CODEGEN--\":916:923   */\n      dup5\n        /* \"--CODEGEN--\":907:913   */\n      dup3\n        /* \"--CODEGEN--\":896:905   */\n      dup6\n        /* \"--CODEGEN--\":892:914   */\n      add\n        /* \"--CODEGEN--\":861:924   */\n      jump(tag_20)\n    tag_37:\n        /* \"--CODEGEN--\":851:924   */\n      swap2\n      pop\n        /* \"--CODEGEN--\":737:930   */\n      pop\n        /* \"--CODEGEN--\":669:940   */\n      swap3\n      swap2\n      pop\n      pop\n      jump\n        /* \"--CODEGEN--\":947:1419   */\n    tag_7:\n      0x00\n      dup1\n        /* \"--CODEGEN--\":1078:1080   */\n      0x40\n        /* \"--CODEGEN--\":1066:1075   */\n      dup4\n        /* \"--CODEGEN--\":1057:1064   */\n      dup6\n        /* \"--CODEGEN--\":1053:1076   */\n      sub\n        /* \"--CODEGEN--\":1049:1081   */\n      slt\n        /* \"--CODEGEN--\":1046:1048   */\n      iszero\n      tag_39\n      jumpi\n        /* \"--CODEGEN--\":1094:1095   */\n      0x00\n        /* \"--CODEGEN--\":1091:1092   */\n      dup1\n        /* \"--CODEGEN--\":1084:1096   */\n      revert\n        /* \"--CODEGEN--\":1046:1048   */\n    tag_39:\n        /* \"--CODEGEN--\":1157:1158   */\n      0x00\n        /* \"--CODEGEN--\":1146:1155   */\n      dup4\n        /* \"--CODEGEN--\":1142:1159   */\n      add\n        /* \"--CODEGEN--\":1129:1160   */\n      calldataload\n        /* \"--CODEGEN--\":1180:1198   */\n      0xffffffffffffffff\n        /* \"--CODEGEN--\":1172:1178   */\n      dup2\n        /* \"--CODEGEN--\":1169:1199   */\n      gt\n        /* \"--CODEGEN--\":1166:1168   */\n      iszero\n      tag_40\n      jumpi\n        /* \"--CODEGEN--\":1212:1213   */\n      0x00\n        /* \"--CODEGEN--\":1209:1210   */\n      dup1\n        /* \"--CODEGEN--\":1202:1214   */\n      revert\n        /* \"--CODEGEN--\":1166:1168   */\n    tag_40:\n        /* \"--CODEGEN--\":1232:1295   */\n      tag_41\n        /* \"--CODEGEN--\":1287:1294   */\n      dup6\n        /* \"--CODEGEN--\":1278:1284   */\n      dup3\n        /* \"--CODEGEN--\":1267:1276   */\n      dup7\n        /* \"--CODEGEN--\":1263:1285   */\n      add\n        /* \"--CODEGEN--\":1232:1295   */\n      jump(tag_20)\n    tag_41:\n        /* \"--CODEGEN--\":1222:1295   */\n      swap3\n      pop\n        /* \"--CODEGEN--\":1108:1301   */\n      pop\n        /* \"--CODEGEN--\":1332:1334   */\n      0x20\n        /* \"--CODEGEN--\":1350:1403   */\n      tag_42\n        /* \"--CODEGEN--\":1395:1402   */\n      dup6\n        /* \"--CODEGEN--\":1386:1392   */\n      dup3\n        /* \"--CODEGEN--\":1375:1384   */\n      dup7\n        /* \"--CODEGEN--\":1371:1393   */\n      add\n        /* \"--CODEGEN--\":1350:1403   */\n      jump(tag_30)\n    tag_42:\n        /* \"--CODEGEN--\":1340:1403   */\n      swap2\n      pop\n        /* \"--CODEGEN--\":1311:1409   */\n      pop\n        /* \"--CODEGEN--\":1040:1419   */\n      swap3\n      pop\n      swap3\n      swap1\n      pop\n      jump\n        /* \"--CODEGEN--\":1426:1773   */\n    tag_43:\n      0x00\n        /* \"--CODEGEN--\":1538:1577   */\n      tag_45\n        /* \"--CODEGEN--\":1571:1576   */\n      dup3\n        /* \"--CODEGEN--\":1538:1577   */\n      jump(tag_46)\n    tag_45:\n        /* \"--CODEGEN--\":1589:1660   */\n      tag_47\n        /* \"--CODEGEN--\":1653:1659   */\n      dup2\n        /* \"--CODEGEN--\":1648:1651   */\n      dup6\n        /* \"--CODEGEN--\":1589:1660   */\n      jump(tag_48)\n    tag_47:\n        /* \"--CODEGEN--\":1582:1660   */\n      swap4\n      pop\n        /* \"--CODEGEN--\":1665:1717   */\n      tag_49\n        /* \"--CODEGEN--\":1710:1716   */\n      dup2\n        /* \"--CODEGEN--\":1705:1708   */\n      dup6\n        /* \"--CODEGEN--\":1698:1702   */\n      0x20\n        /* \"--CODEGEN--\":1691:1696   */\n      dup7\n        /* \"--CODEGEN--\":1687:1703   */\n      add\n        /* \"--CODEGEN--\":1665:1717   */\n      jump(tag_50)\n    tag_49:\n        /* \"--CODEGEN--\":1738:1767   */\n      tag_51\n        /* \"--CODEGEN--\":1760:1766   */\n      dup2\n        /* \"--CODEGEN--\":1738:1767   */\n      jump(tag_52)\n    tag_51:\n        /* \"--CODEGEN--\":1733:1736   */\n      dup5\n        /* \"--CODEGEN--\":1729:1768   */\n      add\n        /* \"--CODEGEN--\":1722:1768   */\n      swap2\n      pop\n        /* \"--CODEGEN--\":1518:1773   */\n      pop\n      swap3\n      swap2\n      pop\n      pop\n      jump\n        /* \"--CODEGEN--\":1780:1893   */\n    tag_53:\n        /* \"--CODEGEN--\":1863:1887   */\n      tag_55\n        /* \"--CODEGEN--\":1881:1886   */\n      dup2\n        /* \"--CODEGEN--\":1863:1887   */\n      jump(tag_56)\n    tag_55:\n        /* \"--CODEGEN--\":1858:1861   */\n      dup3\n        /* \"--CODEGEN--\":1851:1888   */\n      mstore\n        /* \"--CODEGEN--\":1845:1893   */\n      pop\n      pop\n      jump\n        /* \"--CODEGEN--\":1900:2201   */\n    tag_18:\n      0x00\n        /* \"--CODEGEN--\":2038:2040   */\n      0x20\n        /* \"--CODEGEN--\":2027:2036   */\n      dup3\n        /* \"--CODEGEN--\":2023:2041   */\n      add\n        /* \"--CODEGEN--\":2015:2041   */\n      swap1\n      pop\n        /* \"--CODEGEN--\":2088:2097   */\n      dup2\n        /* \"--CODEGEN--\":2082:2086   */\n      dup2\n        /* \"--CODEGEN--\":2078:2098   */\n      sub\n        /* \"--CODEGEN--\":2074:2075   */\n      0x00\n        /* \"--CODEGEN--\":2063:2072   */\n      dup4\n        /* \"--CODEGEN--\":2059:2076   */\n      add\n        /* \"--CODEGEN--\":2052:2099   */\n      mstore\n        /* \"--CODEGEN--\":2113:2191   */\n      tag_58\n        /* \"--CODEGEN--\":2186:2190   */\n      dup2\n        /* \"--CODEGEN--\":2177:2183   */\n      dup5\n        /* \"--CODEGEN--\":2113:2191   */\n      jump(tag_43)\n    tag_58:\n        /* \"--CODEGEN--\":2105:2191   */\n      swap1\n      pop\n        /* \"--CODEGEN--\":2009:2201   */\n      swap3\n      swap2\n      pop\n      pop\n      jump\n        /* \"--CODEGEN--\":2208:2620   */\n    tag_15:\n      0x00\n        /* \"--CODEGEN--\":2374:2376   */\n      0x40\n        /* \"--CODEGEN--\":2363:2372   */\n      dup3\n        /* \"--CODEGEN--\":2359:2377   */\n      add\n        /* \"--CODEGEN--\":2351:2377   */\n      swap1\n      pop\n        /* \"--CODEGEN--\":2424:2433   */\n      dup2\n        /* \"--CODEGEN--\":2418:2422   */\n      dup2\n        /* \"--CODEGEN--\":2414:2434   */\n      sub\n        /* \"--CODEGEN--\":2410:2411   */\n      0x00\n        /* \"--CODEGEN--\":2399:2408   */\n      dup4\n        /* \"--CODEGEN--\":2395:2412   */\n      add\n        /* \"--CODEGEN--\":2388:2435   */\n      mstore\n        /* \"--CODEGEN--\":2449:2527   */\n      tag_60\n        /* \"--CODEGEN--\":2522:2526   */\n      dup2\n        /* \"--CODEGEN--\":2513:2519   */\n      dup6\n        /* \"--CODEGEN--\":2449:2527   */\n      jump(tag_43)\n    tag_60:\n        /* \"--CODEGEN--\":2441:2527   */\n      swap1\n      pop\n        /* \"--CODEGEN--\":2538:2610   */\n      tag_61\n        /* \"--CODEGEN--\":2606:2608   */\n      0x20\n        /* \"--CODEGEN--\":2595:2604   */\n      dup4\n        /* \"--CODEGEN--\":2591:2609   */\n      add\n        /* \"--CODEGEN--\":2582:2588   */\n      dup5\n        /* \"--CODEGEN--\":2538:2610   */\n      jump(tag_53)\n    tag_61:\n        /* \"--CODEGEN--\":2345:2620   */\n      swap4\n      swap3\n      pop\n      pop\n      pop\n      jump\n        /* \"--CODEGEN--\":2627:2883   */\n    tag_26:\n      0x00\n        /* \"--CODEGEN--\":2689:2691   */\n      0x40\n        /* \"--CODEGEN--\":2683:2692   */\n      mload\n        /* \"--CODEGEN--\":2673:2692   */\n      swap1\n      pop\n        /* \"--CODEGEN--\":2727:2731   */\n      dup2\n        /* \"--CODEGEN--\":2719:2725   */\n      dup2\n        /* \"--CODEGEN--\":2715:2732   */\n      add\n        /* \"--CODEGEN--\":2826:2832   */\n      dup2\n        /* \"--CODEGEN--\":2814:2824   */\n      dup2\n        /* \"--CODEGEN--\":2811:2833   */\n      lt\n        /* \"--CODEGEN--\":2790:2808   */\n      0xffffffffffffffff\n        /* \"--CODEGEN--\":2778:2788   */\n      dup3\n        /* \"--CODEGEN--\":2775:2809   */\n      gt\n        /* \"--CODEGEN--\":2772:2834   */\n      or\n        /* \"--CODEGEN--\":2769:2771   */\n      iszero\n      tag_63\n      jumpi\n        /* \"--CODEGEN--\":2847:2848   */\n      0x00\n        /* \"--CODEGEN--\":2844:2845   */\n      dup1\n        /* \"--CODEGEN--\":2837:2849   */\n      revert\n        /* \"--CODEGEN--\":2769:2771   */\n    tag_63:\n        /* \"--CODEGEN--\":2867:2877   */\n      dup1\n        /* \"--CODEGEN--\":2863:2865   */\n      0x40\n        /* \"--CODEGEN--\":2856:2878   */\n      mstore\n        /* \"--CODEGEN--\":2667:2883   */\n      pop\n      swap2\n      swap1\n      pop\n      jump\n        /* \"--CODEGEN--\":2890:3212   */\n    tag_25:\n      0x00\n        /* \"--CODEGEN--\":3034:3052   */\n      0xffffffffffffffff\n        /* \"--CODEGEN--\":3026:3032   */\n      dup3\n        /* \"--CODEGEN--\":3023:3053   */\n      gt\n        /* \"--CODEGEN--\":3020:3022   */\n      iszero\n      tag_65\n      jumpi\n        /* \"--CODEGEN--\":3066:3067   */\n      0x00\n        /* \"--CODEGEN--\":3063:3064   */\n      dup1\n        /* \"--CODEGEN--\":3056:3068   */\n      revert\n        /* \"--CODEGEN--\":3020:3022   */\n    tag_65:\n        /* \"--CODEGEN--\":3133:3137   */\n      0x1f\n        /* \"--CODEGEN--\":3129:3138   */\n      not\n        /* \"--CODEGEN--\":3122:3126   */\n      0x1f\n        /* \"--CODEGEN--\":3114:3120   */\n      dup4\n        /* \"--CODEGEN--\":3110:3127   */\n      add\n        /* \"--CODEGEN--\":3106:3139   */\n      and\n        /* \"--CODEGEN--\":3098:3139   */\n      swap1\n      pop\n        /* \"--CODEGEN--\":3197:3201   */\n      0x20\n        /* \"--CODEGEN--\":3191:3195   */\n      dup2\n        /* \"--CODEGEN--\":3187:3202   */\n      add\n        /* \"--CODEGEN--\":3179:3202   */\n      swap1\n      pop\n        /* \"--CODEGEN--\":2957:3212   */\n      swap2\n      swap1\n      pop\n      jump\n        /* \"--CODEGEN--\":3219:3341   */\n    tag_46:\n      0x00\n        /* \"--CODEGEN--\":3313:3318   */\n      dup2\n        /* \"--CODEGEN--\":3307:3319   */\n      mload\n        /* \"--CODEGEN--\":3297:3319   */\n      swap1\n      pop\n        /* \"--CODEGEN--\":3278:3341   */\n      swap2\n      swap1\n      pop\n      jump\n        /* \"--CODEGEN--\":3349:3512   */\n    tag_48:\n      0x00\n        /* \"--CODEGEN--\":3464:3470   */\n      dup3\n        /* \"--CODEGEN--\":3459:3462   */\n      dup3\n        /* \"--CODEGEN--\":3452:3471   */\n      mstore\n        /* \"--CODEGEN--\":3501:3505   */\n      0x20\n        /* \"--CODEGEN--\":3496:3499   */\n      dup3\n        /* \"--CODEGEN--\":3492:3506   */\n      add\n        /* \"--CODEGEN--\":3477:3506   */\n      swap1\n      pop\n        /* \"--CODEGEN--\":3445:3512   */\n      swap3\n      swap2\n      pop\n      pop\n      jump\n        /* \"--CODEGEN--\":3520:3592   */\n    tag_56:\n      0x00\n        /* \"--CODEGEN--\":3582:3587   */\n      dup2\n        /* \"--CODEGEN--\":3571:3587   */\n      swap1\n      pop\n        /* \"--CODEGEN--\":3565:3592   */\n      swap2\n      swap1\n      pop\n      jump\n        /* \"--CODEGEN--\":3600:3745   */\n    tag_29:\n        /* \"--CODEGEN--\":3681:3687   */\n      dup3\n        /* \"--CODEGEN--\":3676:3679   */\n      dup2\n        /* \"--CODEGEN--\":3671:3674   */\n      dup4\n        /* \"--CODEGEN--\":3658:3688   */\n      calldatacopy\n        /* \"--CODEGEN--\":3737:3738   */\n      0x00\n        /* \"--CODEGEN--\":3728:3734   */\n      dup4\n        /* \"--CODEGEN--\":3723:3726   */\n      dup4\n        /* \"--CODEGEN--\":3719:3735   */\n      add\n        /* \"--CODEGEN--\":3712:3739   */\n      mstore\n        /* \"--CODEGEN--\":3651:3745   */\n      pop\n      pop\n      pop\n      jump\n        /* \"--CODEGEN--\":3754:4022   */\n    tag_50:\n        /* \"--CODEGEN--\":3819:3820   */\n      0x00\n        /* \"--CODEGEN--\":3826:3927   */\n    tag_71:\n        /* \"--CODEGEN--\":3840:3846   */\n      dup4\n        /* \"--CODEGEN--\":3837:3838   */\n      dup2\n        /* \"--CODEGEN--\":3834:3847   */\n      lt\n        /* \"--CODEGEN--\":3826:3927   */\n      iszero\n      tag_73\n      jumpi\n        /* \"--CODEGEN--\":3916:3917   */\n      dup1\n        /* \"--CODEGEN--\":3911:3914   */\n      dup3\n        /* \"--CODEGEN--\":3907:3918   */\n      add\n        /* \"--CODEGEN--\":3901:3919   */\n      mload\n        /* \"--CODEGEN--\":3897:3898   */\n      dup2\n        /* \"--CODEGEN--\":3892:3895   */\n      dup5\n        /* \"--CODEGEN--\":3888:3899   */\n      add\n        /* \"--CODEGEN--\":3881:3920   */\n      mstore\n        /* \"--CODEGEN--\":3862:3864   */\n      0x20\n        /* \"--CODEGEN--\":3859:3860   */\n      dup2\n        /* \"--CODEGEN--\":3855:3865   */\n      add\n        /* \"--CODEGEN--\":3850:3865   */\n      swap1\n      pop\n        /* \"--CODEGEN--\":3826:3927   */\n      jump(tag_71)\n    tag_73:\n        /* \"--CODEGEN--\":3942:3948   */\n      dup4\n        /* \"--CODEGEN--\":3939:3940   */\n      dup2\n        /* \"--CODEGEN--\":3936:3949   */\n      gt\n        /* \"--CODEGEN--\":3933:3935   */\n      iszero\n      tag_74\n      jumpi\n        /* \"--CODEGEN--\":4007:4008   */\n      0x00\n        /* \"--CODEGEN--\":3998:4004   */\n      dup5\n        /* \"--CODEGEN--\":3993:3996   */\n      dup5\n        /* \"--CODEGEN--\":3989:4005   */\n      add\n        /* \"--CODEGEN--\":3982:4009   */\n      mstore\n        /* \"--CODEGEN--\":3933:3935   */\n    tag_74:\n        /* \"--CODEGEN--\":3803:4022   */\n      pop\n      pop\n      pop\n      pop\n      jump\n        /* \"--CODEGEN--\":4030:4127   */\n    tag_52:\n      0x00\n        /* \"--CODEGEN--\":4118:4120   */\n      0x1f\n        /* \"--CODEGEN--\":4114:4121   */\n      not\n        /* \"--CODEGEN--\":4109:4111   */\n      0x1f\n        /* \"--CODEGEN--\":4102:4107   */\n      dup4\n        /* \"--CODEGEN--\":4098:4112   */\n      add\n        /* \"--CODEGEN--\":4094:4122   */\n      and\n        /* \"--CODEGEN--\":4084:4122   */\n      swap1\n      pop\n        /* \"--CODEGEN--\":4078:4127   */\n      swap2\n      swap1\n      pop\n      jump\n        /* \"--CODEGEN--\":4135:4252   */\n    tag_33:\n        /* \"--CODEGEN--\":4204:4228   */\n      tag_77\n        /* \"--CODEGEN--\":4222:4227   */\n      dup2\n        /* \"--CODEGEN--\":4204:4228   */\n      jump(tag_56)\n    tag_77:\n        /* \"--CODEGEN--\":4197:4202   */\n      dup2\n        /* \"--CODEGEN--\":4194:4229   */\n      eq\n        /* \"--CODEGEN--\":4184:4186   */\n      tag_78\n      jumpi\n        /* \"--CODEGEN--\":4243:4244   */\n      0x00\n        /* \"--CODEGEN--\":4240:4241   */\n      dup1\n        /* \"--CODEGEN--\":4233:4245   */\n      revert\n        /* \"--CODEGEN--\":4184:4186   */\n    tag_78:\n        /* \"--CODEGEN--\":4178:4252   */\n      pop\n      jump\n\n    auxdata: 0xa2646970667358221220a62f6f1521a651de0fbd95dba9bb498a7bfa308e9bcc4a4e10bf4692013011d964736f6c63430006000033\n}\n",
				"bytecode": {
					"linkReferences": {},
					"object": "608060405234801561001057600080fd5b506103a1806100206000396000f3fe608060405234801561001057600080fd5b50600436106100365760003560e01c8063c355a3e51461003b578063da7fc1f114610057575b600080fd5b61005560048036036100509190810190610194565b610073565b005b610071600480360361006c9190810190610153565b6100b0565b005b7f2b9e5e55909e031f4762cad07e8c2949a5d9788eeb9578dc09e087a97893f67f82826040516100a4929190610252565b60405180910390a15050565b7f6391dcd39ec1eccb6cae5c104bbe0df2c4159afd331b17a0d0223024df9de608816040516100df9190610230565b60405180910390a150565b600082601f8301126100fb57600080fd5b813561010e610109826102af565b610282565b9150808252602083016020830185838301111561012a57600080fd5b610135838284610301565b50505092915050565b60008135905061014d81610354565b92915050565b60006020828403121561016557600080fd5b600082013567ffffffffffffffff81111561017f57600080fd5b61018b848285016100ea565b91505092915050565b600080604083850312156101a757600080fd5b600083013567ffffffffffffffff8111156101c157600080fd5b6101cd858286016100ea565b92505060206101de8582860161013e565b9150509250929050565b60006101f3826102db565b6101fd81856102e6565b935061020d818560208601610310565b61021681610343565b840191505092915050565b61022a816102f7565b82525050565b6000602082019050818103600083015261024a81846101e8565b905092915050565b6000604082019050818103600083015261026c81856101e8565b905061027b6020830184610221565b9392505050565b6000604051905081810181811067ffffffffffffffff821117156102a557600080fd5b8060405250919050565b600067ffffffffffffffff8211156102c657600080fd5b601f19601f8301169050602081019050919050565b600081519050919050565b600082825260208201905092915050565b6000819050919050565b82818337600083830152505050565b60005b8381101561032e578082015181840152602081019050610313565b8381111561033d576000848401525b50505050565b6000601f19601f8301169050919050565b61035d816102f7565b811461036857600080fd5b5056fea2646970667358221220a62f6f1521a651de0fbd95dba9bb498a7bfa308e9bcc4a4e10bf4692013011d964736f6c63430006000033",
					"opcodes": "PUSH1 0x80 PUSH1 0x40 MSTORE CALLVALUE DUP1 ISZERO PUSH2 0x10 JUMPI PUSH1 0x0 DUP1 REVERT JUMPDEST POP PUSH2 0x3A1 DUP1 PUSH2 0x20 PUSH1 0x0 CODECOPY PUSH1 0x0 RETURN INVALID PUSH1 0x80 PUSH1 0x40 MSTORE CALLVALUE DUP1 ISZERO PUSH2 0x10 JUMPI PUSH1 0x0 DUP1 REVERT JUMPDEST POP PUSH1 0x4 CALLDATASIZE LT PUSH2 0x36 JUMPI PUSH1 0x0 CALLDATALOAD PUSH1 0xE0 SHR DUP1 PUSH4 0xC355A3E5 EQ PUSH2 0x3B JUMPI DUP1 PUSH4 0xDA7FC1F1 EQ PUSH2 0x57 JUMPI JUMPDEST PUSH1 0x0 DUP1 REVERT JUMPDEST PUSH2 0x55 PUSH1 0x4 DUP1 CALLDATASIZE SUB PUSH2 0x50 SWAP2 SWAP1 DUP2 ADD SWAP1 PUSH2 0x194 JUMP JUMPDEST PUSH2 0x73 JUMP JUMPDEST STOP JUMPDEST PUSH2 0x71 PUSH1 0x4 DUP1 CALLDATASIZE SUB PUSH2 0x6C SWAP2 SWAP1 DUP2 ADD SWAP1 PUSH2 0x153 JUMP JUMPDEST PUSH2 0xB0 JUMP JUMPDEST STOP JUMPDEST PUSH32 0x2B9E5E55909E031F4762CAD07E8C2949A5D9788EEB9578DC09E087A97893F67F DUP3 DUP3 PUSH1 0x40 MLOAD PUSH2 0xA4 SWAP3 SWAP2 SWAP1 PUSH2 0x252 JUMP JUMPDEST PUSH1 0x40 MLOAD DUP1 SWAP2 SUB SWAP1 LOG1 POP POP JUMP JUMPDEST PUSH32 0x6391DCD39EC1ECCB6CAE5C104BBE0DF2C4159AFD331B17A0D0223024DF9DE608 DUP2 PUSH1 0x40 MLOAD PUSH2 0xDF SWAP2 SWAP1 PUSH2 0x230 JUMP JUMPDEST PUSH1 0x40 MLOAD DUP1 SWAP2 SUB SWAP1 LOG1 POP JUMP JUMPDEST PUSH1 0x0 DUP3 PUSH1 0x1F DUP4 ADD SLT PUSH2 0xFB JUMPI PUSH1 0x0 DUP1 REVERT JUMPDEST DUP2 CALLDATALOAD PUSH2 0x10E PUSH2 0x109 DUP3 PUSH2 0x2AF JUMP JUMPDEST PUSH2 0x282 JUMP JUMPDEST SWAP2 POP DUP1 DUP3 MSTORE PUSH1 0x20 DUP4 ADD PUSH1 0x20 DUP4 ADD DUP6 DUP4 DUP4 ADD GT ISZERO PUSH2 0x12A JUMPI PUSH1 0x0 DUP1 REVERT JUMPDEST PUSH2 0x135 DUP4 DUP3 DUP5 PUSH2 0x301 JUMP JUMPDEST POP POP POP SWAP3 SWAP2 POP POP JUMP JUMPDEST PUSH1 0x0 DUP2 CALLDATALOAD SWAP1 POP PUSH2 0x14D DUP2 PUSH2 0x354 JUMP JUMPDEST SWAP3 SWAP2 POP POP JUMP JUMPDEST PUSH1 0x0 PUSH1 0x20 DUP3 DUP5 SUB SLT ISZERO PUSH2 0x165 JUMPI PUSH1 0x0 DUP1 REVERT JUMPDEST PUSH1 0x0 DUP3 ADD CALLDATALOAD PUSH8 0xFFFFFFFFFFFFFFFF DUP2 GT ISZERO PUSH2 0x17F JUMPI PUSH1 0x0 DUP1 REVERT JUMPDEST PUSH2 0x18B DUP5 DUP3 DUP6 ADD PUSH2 0xEA JUMP JUMPDEST SWAP2 POP POP SWAP3 SWAP2 POP POP JUMP JUMPDEST PUSH1 0x0 DUP1 PUSH1 0x40 DUP4 DUP6 SUB SLT ISZERO PUSH2 0x1A7 JUMPI PUSH1 0x0 DUP1 REVERT JUMPDEST PUSH1 0x0 DUP4 ADD CALLDATALOAD PUSH8 0xFFFFFFFFFFFFFFFF DUP2 GT ISZERO PUSH2 0x1C1 JUMPI PUSH1 0x0 DUP1 REVERT JUMPDEST PUSH2 0x1CD DUP6 DUP3 DUP7 ADD PUSH2 0xEA JUMP JUMPDEST SWAP3 POP POP PUSH1 0x20 PUSH2 0x1DE DUP6 DUP3 DUP7 ADD PUSH2 0x13E JUMP JUMPDEST SWAP2 POP POP SWAP3 POP SWAP3 SWAP1 POP JUMP JUMPDEST PUSH1 0x0 PUSH2 0x1F3 DUP3 PUSH2 0x2DB JUMP JUMPDEST PUSH2 0x1FD DUP2 DUP6 PUSH2 0x2E6 JUMP JUMPDEST SWAP4 POP PUSH2 0x20D DUP2 DUP6 PUSH1 0x20 DUP7 ADD PUSH2 0x310 JUMP JUMPDEST PUSH2 0x216 DUP2 PUSH2 0x343 JUMP JUMPDEST DUP5 ADD SWAP2 POP POP SWAP3 SWAP2 POP POP JUMP JUMPDEST PUSH2 0x22A DUP2 PUSH2 0x2F7 JUMP JUMPDEST DUP3 MSTORE POP POP JUMP JUMPDEST PUSH1 0x0 PUSH1 0x20 DUP3 ADD SWAP1 POP DUP2 DUP2 SUB PUSH1 0x0 DUP4 ADD MSTORE PUSH2 0x24A DUP2 DUP5 PUSH2 0x1E8 JUMP JUMPDEST SWAP1 POP SWAP3 SWAP2 POP POP JUMP JUMPDEST PUSH1 0x0 PUSH1 0x40 DUP3 ADD SWAP1 POP DUP2 DUP2 SUB PUSH1 0x0 DUP4 ADD MSTORE PUSH2 0x26C DUP2 DUP6 PUSH2 0x1E8 JUMP JUMPDEST SWAP1 POP PUSH2 0x27B PUSH1 0x20 DUP4 ADD DUP5 PUSH2 0x221 JUMP JUMPDEST SWAP4 SWAP3 POP POP POP JUMP JUMPDEST PUSH1 0x0 PUSH1 0x40 MLOAD SWAP1 POP DUP2 DUP2 ADD DUP2 DUP2 LT PUSH8 0xFFFFFFFFFFFFFFFF DUP3 GT OR ISZERO PUSH2 0x2A5 JUMPI PUSH1 0x0 DUP1 REVERT JUMPDEST DUP1 PUSH1 0x40 MSTORE POP SWAP2 SWAP1 POP JUMP JUMPDEST PUSH1 0x0 PUSH8 0xFFFFFFFFFFFFFFFF DUP3 GT ISZERO PUSH2 0x2C6 JUMPI PUSH1 0x0 DUP1 REVERT JUMPDEST PUSH1 0x1F NOT PUSH1 0x1F DUP4 ADD AND SWAP1 POP PUSH1 0x20 DUP2 ADD SWAP1 POP SWAP2 SWAP1 POP JUMP JUMPDEST PUSH1 0x0 DUP2 MLOAD SWAP1 POP SWAP2 SWAP1 POP JUMP JUMPDEST PUSH1 0x0 DUP3 DUP3 MSTORE PUSH1 0x20 DUP3 ADD SWAP1 POP SWAP3 SWAP2 POP POP JUMP JUMPDEST PUSH1 0x0 DUP2 SWAP1 POP SWAP2 SWAP1 POP JUMP JUMPDEST DUP3 DUP2 DUP4 CALLDATACOPY PUSH1 0x0 DUP4 DUP4 ADD MSTORE POP POP POP JUMP JUMPDEST PUSH1 0x0 JUMPDEST DUP4 DUP2 LT ISZERO PUSH2 0x32E JUMPI DUP1 DUP3 ADD MLOAD DUP2 DUP5 ADD MSTORE PUSH1 0x20 DUP2 ADD SWAP1 POP PUSH2 0x313 JUMP JUMPDEST DUP4 DUP2 GT ISZERO PUSH2 0x33D JUMPI PUSH1 0x0 DUP5 DUP5 ADD MSTORE JUMPDEST POP POP POP POP JUMP JUMPDEST PUSH1 0x0 PUSH1 0x1F NOT PUSH1 0x1F DUP4 ADD AND SWAP1 POP SWAP2 SWAP1 POP JUMP JUMPDEST PUSH2 0x35D DUP2 PUSH2 0x2F7 JUMP JUMPDEST DUP2 EQ PUSH2 0x368 JUMPI PUSH1 0x0 DUP1 REVERT JUMPDEST POP JUMP INVALID LOG2 PUSH5 0x6970667358 0x22 SLT KECCAK256 0xA6 0x2F PUSH16 0x1521A651DE0FBD95DBA9BB498A7BFA30 DUP15 SWAP12 0xCC 0x4A 0x4E LT 0xBF CHAINID SWAP3 ADD ADDRESS GT 0xD9 PUSH5 0x736F6C6343 STOP MOD STOP STOP CALLER "
				},
				"gasEstimates": {
					"creation": {
						"codeDepositCost": "185800",
						"executionCost": "232",
						"totalCost": "186032"
					},
					"external": {
						"EmitirEvento(string)": "infinite",
						"EmitirEvento2(string,uint256)": "infinite"
					}
				},
				"methodIdentifiers": {
					"EmitirEvento(string)": "da7fc1f1",
					"EmitirEvento2(string,uint256)": "c355a3e5"
				}
			},
			"storageLayout": {
				"storage": [],
				"types": null
			},
			"userdoc": {
				"methods": {}
			}
		}
	}
}