{
	"Funciones/ong.sol": {
		"CausasBeneficas": {
			"abi": [
				{
					"inputs": [
						{
							"internalType": "string",
							"name": "_nombre",
							"type": "string"
						}
					],
					"name": "comprobar_causa",
					"outputs": [
						{
							"internalType": "bool",
							"name": "",
							"type": "bool"
						},
						{
							"internalType": "uint256",
							"name": "",
							"type": "uint256"
						}
					],
					"stateMutability": "nonpayable",
					"type": "function"
				},
				{
					"inputs": [
						{
							"internalType": "string",
							"name": "_nombre",
							"type": "string"
						},
						{
							"internalType": "uint256",
							"name": "_precio_objetivo",
							"type": "uint256"
						}
					],
					"name": "crearCausa",
					"outputs": [],
					"stateMutability": "payable",
					"type": "function"
				},
				{
					"inputs": [
						{
							"internalType": "string",
							"name": "_nombre",
							"type": "string"
						},
						{
							"internalType": "uint256",
							"name": "_cantidad",
							"type": "uint256"
						}
					],
					"name": "donar",
					"outputs": [
						{
							"internalType": "bool",
							"name": "",
							"type": "bool"
						}
					],
					"stateMutability": "nonpayable",
					"type": "function"
				}
			],
			"devdoc": {
				"methods": {}
			},
			"evm": {
				"assembly": "    /* \"Funciones/ong.sol\":62:1448  contract CausasBeneficas{\r... */\n  mstore(0x40, 0x80)\n    /* \"Funciones/ong.sol\":253:254  0 */\n  0x00\n    /* \"Funciones/ong.sol\":230:254  uint contador_causas = 0 */\n  dup1\n  sstore\n    /* \"Funciones/ong.sol\":62:1448  contract CausasBeneficas{\r... */\n  callvalue\n    /* \"--CODEGEN--\":8:17   */\n  dup1\n    /* \"--CODEGEN--\":5:7   */\n  iszero\n  tag_1\n  jumpi\n    /* \"--CODEGEN--\":30:31   */\n  0x00\n    /* \"--CODEGEN--\":27:28   */\n  dup1\n    /* \"--CODEGEN--\":20:32   */\n  revert\n    /* \"--CODEGEN--\":5:7   */\ntag_1:\n    /* \"Funciones/ong.sol\":62:1448  contract CausasBeneficas{\r... */\n  pop\n  dataSize(sub_0)\n  dup1\n  dataOffset(sub_0)\n  0x00\n  codecopy\n  0x00\n  return\nstop\n\nsub_0: assembly {\n        /* \"Funciones/ong.sol\":62:1448  contract CausasBeneficas{\r... */\n      mstore(0x40, 0x80)\n      jumpi(tag_1, lt(calldatasize, 0x04))\n      shr(0xe0, calldataload(0x00))\n      dup1\n      0x1a2c9b6a\n      eq\n      tag_2\n      jumpi\n      dup1\n      0x45cd81b3\n      eq\n      tag_3\n      jumpi\n      dup1\n      0x9dbc7609\n      eq\n      tag_4\n      jumpi\n    tag_1:\n      0x00\n      dup1\n      revert\n        /* \"Funciones/ong.sol\":1120:1445  function comprobar_causa(string memory _nombre) public returns(bool, uint){\r... */\n    tag_2:\n      callvalue\n        /* \"--CODEGEN--\":8:17   */\n      dup1\n        /* \"--CODEGEN--\":5:7   */\n      iszero\n      tag_5\n      jumpi\n        /* \"--CODEGEN--\":30:31   */\n      0x00\n        /* \"--CODEGEN--\":27:28   */\n      dup1\n        /* \"--CODEGEN--\":20:32   */\n      revert\n        /* \"--CODEGEN--\":5:7   */\n    tag_5:\n        /* \"Funciones/ong.sol\":1120:1445  function comprobar_causa(string memory _nombre) public returns(bool, uint){\r... */\n      pop\n      tag_6\n      0x04\n      dup1\n      calldatasize\n      sub\n      tag_7\n      swap2\n      swap1\n      dup2\n      add\n      swap1\n      jump(tag_8)\n    tag_7:\n      tag_9\n      jump\t// in\n    tag_6:\n      mload(0x40)\n      tag_10\n      swap3\n      swap2\n      swap1\n      jump(tag_11)\n    tag_10:\n      mload(0x40)\n      dup1\n      swap2\n      sub\n      swap1\n      return\n        /* \"Funciones/ong.sol\":815:1112  function donar(string memory _nombre, uint _cantidad) public returns(bool){\r... */\n    tag_3:\n      callvalue\n        /* \"--CODEGEN--\":8:17   */\n      dup1\n        /* \"--CODEGEN--\":5:7   */\n      iszero\n      tag_12\n      jumpi\n        /* \"--CODEGEN--\":30:31   */\n      0x00\n        /* \"--CODEGEN--\":27:28   */\n      dup1\n        /* \"--CODEGEN--\":20:32   */\n      revert\n        /* \"--CODEGEN--\":5:7   */\n    tag_12:\n        /* \"Funciones/ong.sol\":815:1112  function donar(string memory _nombre, uint _cantidad) public returns(bool){\r... */\n      pop\n      tag_13\n      0x04\n      dup1\n      calldatasize\n      sub\n      tag_14\n      swap2\n      swap1\n      dup2\n      add\n      swap1\n      jump(tag_15)\n    tag_14:\n      tag_16\n      jump\t// in\n    tag_13:\n      mload(0x40)\n      tag_17\n      swap2\n      swap1\n      jump(tag_18)\n    tag_17:\n      mload(0x40)\n      dup1\n      swap2\n      sub\n      swap1\n      return\n        /* \"Funciones/ong.sol\":302:510  function crearCausa(string memory _nombre, uint _precio_objetivo) public payable {\r... */\n    tag_4:\n      tag_19\n      0x04\n      dup1\n      calldatasize\n      sub\n      tag_20\n      swap2\n      swap1\n      dup2\n      add\n      swap1\n      jump(tag_15)\n    tag_20:\n      tag_21\n      jump\t// in\n    tag_19:\n      stop\n        /* \"Funciones/ong.sol\":1120:1445  function comprobar_causa(string memory _nombre) public returns(bool, uint){\r... */\n    tag_9:\n        /* \"Funciones/ong.sol\":1183:1187  bool */\n      0x00\n        /* \"Funciones/ong.sol\":1189:1193  uint */\n      dup1\n        /* \"Funciones/ong.sol\":1215:1233  Causa memory causa */\n      tag_23\n      tag_24\n      jump\t// in\n    tag_23:\n        /* \"Funciones/ong.sol\":1236:1242  causas */\n      0x01\n        /* \"Funciones/ong.sol\":1243:1250  _nombre */\n      dup5\n        /* \"Funciones/ong.sol\":1236:1251  causas[_nombre] */\n      mload(0x40)\n      tag_25\n      swap2\n      swap1\n      jump(tag_26)\n    tag_25:\n      swap1\n      dup2\n      mstore\n      0x20\n      add\n      mload(0x40)\n      dup1\n      swap2\n      sub\n      swap1\n      keccak256\n        /* \"Funciones/ong.sol\":1215:1251  Causa memory causa = causas[_nombre] */\n      mload(0x40)\n      dup1\n      0x80\n      add\n      0x40\n      mstore\n      swap1\n      dup2\n      0x00\n      dup3\n      add\n      sload\n      dup2\n      mstore\n      0x20\n      add\n      0x01\n      dup3\n      add\n      dup1\n      sload\n      0x01\n      dup2\n      0x01\n      and\n      iszero\n      0x0100\n      mul\n      sub\n      and\n      0x02\n      swap1\n      div\n      dup1\n      0x1f\n      add\n      0x20\n      dup1\n      swap2\n      div\n      mul\n      0x20\n      add\n      mload(0x40)\n      swap1\n      dup2\n      add\n      0x40\n      mstore\n      dup1\n      swap3\n      swap2\n      swap1\n      dup2\n      dup2\n      mstore\n      0x20\n      add\n      dup3\n      dup1\n      sload\n      0x01\n      dup2\n      0x01\n      and\n      iszero\n      0x0100\n      mul\n      sub\n      and\n      0x02\n      swap1\n      div\n      dup1\n      iszero\n      tag_27\n      jumpi\n      dup1\n      0x1f\n      lt\n      tag_28\n      jumpi\n      0x0100\n      dup1\n      dup4\n      sload\n      div\n      mul\n      dup4\n      mstore\n      swap2\n      0x20\n      add\n      swap2\n      jump(tag_27)\n    tag_28:\n      dup3\n      add\n      swap2\n      swap1\n      0x00\n      mstore\n      keccak256(0x00, 0x20)\n      swap1\n    tag_29:\n      dup2\n      sload\n      dup2\n      mstore\n      swap1\n      0x01\n      add\n      swap1\n      0x20\n      add\n      dup1\n      dup4\n      gt\n      tag_29\n      jumpi\n      dup3\n      swap1\n      sub\n      0x1f\n      and\n      dup3\n      add\n      swap2\n    tag_27:\n      pop\n      pop\n      pop\n      pop\n      pop\n      dup2\n      mstore\n      0x20\n      add\n      0x02\n      dup3\n      add\n      sload\n      dup2\n      mstore\n      0x20\n      add\n      0x03\n      dup3\n      add\n      sload\n      dup2\n      mstore\n      pop\n      pop\n      swap1\n      pop\n        /* \"Funciones/ong.sol\":1295:1300  causa */\n      dup1\n        /* \"Funciones/ong.sol\":1295:1316  causa.precio_objetivo */\n      0x40\n      add\n      mload\n        /* \"Funciones/ong.sol\":1267:1272  causa */\n      dup2\n        /* \"Funciones/ong.sol\":1267:1291  causa.cantidad_recaudada */\n      0x60\n      add\n      mload\n        /* \"Funciones/ong.sol\":1267:1316  causa.cantidad_recaudada >= causa.precio_objetivo */\n      lt\n        /* \"Funciones/ong.sol\":1264:1383  if(causa.cantidad_recaudada >= causa.precio_objetivo){\r... */\n      tag_30\n      jumpi\n        /* \"Funciones/ong.sol\":1340:1344  true */\n      0x01\n        /* \"Funciones/ong.sol\":1346:1351  causa */\n      dup2\n        /* \"Funciones/ong.sol\":1346:1370  causa.cantidad_recaudada */\n      0x60\n      add\n      mload\n        /* \"Funciones/ong.sol\":1332:1371  return (true, causa.cantidad_recaudada) */\n      swap3\n      pop\n      swap3\n      pop\n      pop\n      jump(tag_22)\n        /* \"Funciones/ong.sol\":1264:1383  if(causa.cantidad_recaudada >= causa.precio_objetivo){\r... */\n    tag_30:\n        /* \"Funciones/ong.sol\":1405:1410  false */\n      0x00\n        /* \"Funciones/ong.sol\":1412:1417  causa */\n      dup2\n        /* \"Funciones/ong.sol\":1412:1436  causa.cantidad_recaudada */\n      0x60\n      add\n      mload\n        /* \"Funciones/ong.sol\":1397:1437  return (false, causa.cantidad_recaudada) */\n      swap3\n      pop\n      swap3\n      pop\n      pop\n        /* \"Funciones/ong.sol\":1120:1445  function comprobar_causa(string memory _nombre) public returns(bool, uint){\r... */\n    tag_22:\n      swap2\n      pop\n      swap2\n      jump\t// out\n        /* \"Funciones/ong.sol\":815:1112  function donar(string memory _nombre, uint _cantidad) public returns(bool){\r... */\n    tag_16:\n        /* \"Funciones/ong.sol\":884:888  bool */\n      0x00\n        /* \"Funciones/ong.sol\":905:941  ObjetivoCumplido(_nombre, _cantidad) */\n      tag_32\n        /* \"Funciones/ong.sol\":922:929  _nombre */\n      dup4\n        /* \"Funciones/ong.sol\":931:940  _cantidad */\n      dup4\n        /* \"Funciones/ong.sol\":905:921  ObjetivoCumplido */\n      tag_33\n        /* \"Funciones/ong.sol\":905:941  ObjetivoCumplido(_nombre, _cantidad) */\n      jump\t// in\n    tag_32:\n        /* \"Funciones/ong.sol\":902:1078  if(ObjetivoCumplido(_nombre, _cantidad)){\r... */\n      iszero\n      tag_34\n      jumpi\n        /* \"Funciones/ong.sol\":1031:1040  _cantidad */\n      dup2\n        /* \"Funciones/ong.sol\":994:1000  causas */\n      0x01\n        /* \"Funciones/ong.sol\":1001:1008  _nombre */\n      dup5\n        /* \"Funciones/ong.sol\":994:1009  causas[_nombre] */\n      mload(0x40)\n      tag_35\n      swap2\n      swap1\n      jump(tag_26)\n    tag_35:\n      swap1\n      dup2\n      mstore\n      0x20\n      add\n      mload(0x40)\n      dup1\n      swap2\n      sub\n      swap1\n      keccak256\n        /* \"Funciones/ong.sol\":994:1028  causas[_nombre].cantidad_recaudada */\n      0x03\n      add\n      sload\n        /* \"Funciones/ong.sol\":994:1040  causas[_nombre].cantidad_recaudada + _cantidad */\n      add\n        /* \"Funciones/ong.sol\":957:963  causas */\n      0x01\n        /* \"Funciones/ong.sol\":964:971  _nombre */\n      dup5\n        /* \"Funciones/ong.sol\":957:972  causas[_nombre] */\n      mload(0x40)\n      tag_36\n      swap2\n      swap1\n      jump(tag_26)\n    tag_36:\n      swap1\n      dup2\n      mstore\n      0x20\n      add\n      mload(0x40)\n      dup1\n      swap2\n      sub\n      swap1\n      keccak256\n        /* \"Funciones/ong.sol\":957:991  causas[_nombre].cantidad_recaudada */\n      0x03\n      add\n        /* \"Funciones/ong.sol\":957:1040  causas[_nombre].cantidad_recaudada = causas[_nombre].cantidad_recaudada + _cantidad */\n      dup2\n      swap1\n      sstore\n      pop\n        /* \"Funciones/ong.sol\":1062:1066  true */\n      0x01\n        /* \"Funciones/ong.sol\":1055:1066  return true */\n      swap1\n      pop\n      jump(tag_31)\n        /* \"Funciones/ong.sol\":902:1078  if(ObjetivoCumplido(_nombre, _cantidad)){\r... */\n    tag_34:\n        /* \"Funciones/ong.sol\":1099:1104  false */\n      0x00\n        /* \"Funciones/ong.sol\":1092:1104  return false */\n      swap1\n      pop\n        /* \"Funciones/ong.sol\":815:1112  function donar(string memory _nombre, uint _cantidad) public returns(bool){\r... */\n    tag_31:\n      swap3\n      swap2\n      pop\n      pop\n      jump\t// out\n        /* \"Funciones/ong.sol\":302:510  function crearCausa(string memory _nombre, uint _precio_objetivo) public payable {\r... */\n    tag_21:\n        /* \"Funciones/ong.sol\":422:474  Causa(contador_causas, _nombre, _precio_objetivo, 0) */\n      mload(0x40)\n      dup1\n      0x80\n      add\n      0x40\n      mstore\n      dup1\n        /* \"Funciones/ong.sol\":428:443  contador_causas */\n      sload(0x00)\n        /* \"Funciones/ong.sol\":422:474  Causa(contador_causas, _nombre, _precio_objetivo, 0) */\n      dup2\n      mstore\n      0x20\n      add\n        /* \"Funciones/ong.sol\":445:452  _nombre */\n      dup4\n        /* \"Funciones/ong.sol\":422:474  Causa(contador_causas, _nombre, _precio_objetivo, 0) */\n      dup2\n      mstore\n      0x20\n      add\n        /* \"Funciones/ong.sol\":454:470  _precio_objetivo */\n      dup3\n        /* \"Funciones/ong.sol\":422:474  Causa(contador_causas, _nombre, _precio_objetivo, 0) */\n      dup2\n      mstore\n      0x20\n      add\n        /* \"Funciones/ong.sol\":472:473  0 */\n      0x00\n        /* \"Funciones/ong.sol\":422:474  Causa(contador_causas, _nombre, _precio_objetivo, 0) */\n      dup2\n      mstore\n      pop\n        /* \"Funciones/ong.sol\":404:410  causas */\n      0x01\n        /* \"Funciones/ong.sol\":411:418  _nombre */\n      dup4\n        /* \"Funciones/ong.sol\":404:419  causas[_nombre] */\n      mload(0x40)\n      tag_38\n      swap2\n      swap1\n      jump(tag_26)\n    tag_38:\n      swap1\n      dup2\n      mstore\n      0x20\n      add\n      mload(0x40)\n      dup1\n      swap2\n      sub\n      swap1\n      keccak256\n        /* \"Funciones/ong.sol\":404:474  causas[_nombre] = Causa(contador_causas, _nombre, _precio_objetivo, 0) */\n      0x00\n      dup3\n      add\n      mload\n      dup2\n      0x00\n      add\n      sstore\n      0x20\n      dup3\n      add\n      mload\n      dup2\n      0x01\n      add\n      swap1\n      dup1\n      mload\n      swap1\n      0x20\n      add\n      swap1\n      tag_39\n      swap3\n      swap2\n      swap1\n      tag_40\n      jump\t// in\n    tag_39:\n      pop\n      0x40\n      dup3\n      add\n      mload\n      dup2\n      0x02\n      add\n      sstore\n      0x60\n      dup3\n      add\n      mload\n      dup2\n      0x03\n      add\n      sstore\n      swap1\n      pop\n      pop\n        /* \"Funciones/ong.sol\":485:500  contador_causas */\n      0x00\n      dup1\n        /* \"Funciones/ong.sol\":485:502  contador_causas++ */\n      dup2\n      sload\n      dup1\n      swap3\n      swap2\n      swap1\n      0x01\n      add\n      swap2\n      swap1\n      pop\n      sstore\n      pop\n        /* \"Funciones/ong.sol\":302:510  function crearCausa(string memory _nombre, uint _precio_objetivo) public payable {\r... */\n      pop\n      pop\n      jump\t// out\n        /* \"Funciones/ong.sol\":518:807  function ObjetivoCumplido(string memory _nombre, uint _donar) private view returns(bool){\r... */\n    tag_33:\n        /* \"Funciones/ong.sol\":601:605  bool */\n      0x00\n        /* \"Funciones/ong.sol\":621:639  Causa memory causa */\n      tag_42\n      tag_24\n      jump\t// in\n    tag_42:\n        /* \"Funciones/ong.sol\":642:648  causas */\n      0x01\n        /* \"Funciones/ong.sol\":649:656  _nombre */\n      dup5\n        /* \"Funciones/ong.sol\":642:657  causas[_nombre] */\n      mload(0x40)\n      tag_43\n      swap2\n      swap1\n      jump(tag_26)\n    tag_43:\n      swap1\n      dup2\n      mstore\n      0x20\n      add\n      mload(0x40)\n      dup1\n      swap2\n      sub\n      swap1\n      keccak256\n        /* \"Funciones/ong.sol\":621:657  Causa memory causa = causas[_nombre] */\n      mload(0x40)\n      dup1\n      0x80\n      add\n      0x40\n      mstore\n      swap1\n      dup2\n      0x00\n      dup3\n      add\n      sload\n      dup2\n      mstore\n      0x20\n      add\n      0x01\n      dup3\n      add\n      dup1\n      sload\n      0x01\n      dup2\n      0x01\n      and\n      iszero\n      0x0100\n      mul\n      sub\n      and\n      0x02\n      swap1\n      div\n      dup1\n      0x1f\n      add\n      0x20\n      dup1\n      swap2\n      div\n      mul\n      0x20\n      add\n      mload(0x40)\n      swap1\n      dup2\n      add\n      0x40\n      mstore\n      dup1\n      swap3\n      swap2\n      swap1\n      dup2\n      dup2\n      mstore\n      0x20\n      add\n      dup3\n      dup1\n      sload\n      0x01\n      dup2\n      0x01\n      and\n      iszero\n      0x0100\n      mul\n      sub\n      and\n      0x02\n      swap1\n      div\n      dup1\n      iszero\n      tag_44\n      jumpi\n      dup1\n      0x1f\n      lt\n      tag_45\n      jumpi\n      0x0100\n      dup1\n      dup4\n      sload\n      div\n      mul\n      dup4\n      mstore\n      swap2\n      0x20\n      add\n      swap2\n      jump(tag_44)\n    tag_45:\n      dup3\n      add\n      swap2\n      swap1\n      0x00\n      mstore\n      keccak256(0x00, 0x20)\n      swap1\n    tag_46:\n      dup2\n      sload\n      dup2\n      mstore\n      swap1\n      0x01\n      add\n      swap1\n      0x20\n      add\n      dup1\n      dup4\n      gt\n      tag_46\n      jumpi\n      dup3\n      swap1\n      sub\n      0x1f\n      and\n      dup3\n      add\n      swap2\n    tag_44:\n      pop\n      pop\n      pop\n      pop\n      pop\n      dup2\n      mstore\n      0x20\n      add\n      0x02\n      dup3\n      add\n      sload\n      dup2\n      mstore\n      0x20\n      add\n      0x03\n      dup3\n      add\n      sload\n      dup2\n      mstore\n      pop\n      pop\n      swap1\n      pop\n        /* \"Funciones/ong.sol\":726:732  _donar */\n      dup3\n        /* \"Funciones/ong.sol\":699:704  causa */\n      dup2\n        /* \"Funciones/ong.sol\":699:723  causa.cantidad_recaudada */\n      0x60\n      add\n      mload\n        /* \"Funciones/ong.sol\":699:732  causa.cantidad_recaudada + _donar */\n      add\n        /* \"Funciones/ong.sol\":673:678  causa */\n      dup2\n        /* \"Funciones/ong.sol\":673:694  causa.precio_objetivo */\n      0x40\n      add\n      mload\n        /* \"Funciones/ong.sol\":673:733  causa.precio_objetivo >= (causa.cantidad_recaudada + _donar) */\n      lt\n        /* \"Funciones/ong.sol\":670:772  if(causa.precio_objetivo >= (causa.cantidad_recaudada + _donar)){\r... */\n      tag_47\n      jumpi\n        /* \"Funciones/ong.sol\":756:760  true */\n      0x01\n        /* \"Funciones/ong.sol\":749:760  return true */\n      swap2\n      pop\n      pop\n      jump(tag_41)\n        /* \"Funciones/ong.sol\":670:772  if(causa.precio_objetivo >= (causa.cantidad_recaudada + _donar)){\r... */\n    tag_47:\n        /* \"Funciones/ong.sol\":792:797  false */\n      0x00\n        /* \"Funciones/ong.sol\":785:797  return false */\n      swap2\n      pop\n      pop\n        /* \"Funciones/ong.sol\":518:807  function ObjetivoCumplido(string memory _nombre, uint _donar) private view returns(bool){\r... */\n    tag_41:\n      swap3\n      swap2\n      pop\n      pop\n      jump\t// out\n        /* \"Funciones/ong.sol\":62:1448  contract CausasBeneficas{\r... */\n    tag_24:\n      mload(0x40)\n      dup1\n      0x80\n      add\n      0x40\n      mstore\n      dup1\n      0x00\n      dup2\n      mstore\n      0x20\n      add\n      0x60\n      dup2\n      mstore\n      0x20\n      add\n      0x00\n      dup2\n      mstore\n      0x20\n      add\n      0x00\n      dup2\n      mstore\n      pop\n      swap1\n      jump\t// out\n    tag_40:\n      dup3\n      dup1\n      sload\n      0x01\n      dup2\n      0x01\n      and\n      iszero\n      0x0100\n      mul\n      sub\n      and\n      0x02\n      swap1\n      div\n      swap1\n      0x00\n      mstore\n      keccak256(0x00, 0x20)\n      swap1\n      0x1f\n      add\n      0x20\n      swap1\n      div\n      dup2\n      add\n      swap3\n      dup3\n      0x1f\n      lt\n      tag_49\n      jumpi\n      dup1\n      mload\n      not(0xff)\n      and\n      dup4\n      dup1\n      add\n      or\n      dup6\n      sstore\n      jump(tag_48)\n    tag_49:\n      dup3\n      dup1\n      add\n      0x01\n      add\n      dup6\n      sstore\n      dup3\n      iszero\n      tag_48\n      jumpi\n      swap2\n      dup3\n      add\n    tag_50:\n      dup3\n      dup2\n      gt\n      iszero\n      tag_51\n      jumpi\n      dup3\n      mload\n      dup3\n      sstore\n      swap2\n      0x20\n      add\n      swap2\n      swap1\n      0x01\n      add\n      swap1\n      jump(tag_50)\n    tag_51:\n    tag_48:\n      pop\n      swap1\n      pop\n      tag_52\n      swap2\n      swap1\n      tag_53\n      jump\t// in\n    tag_52:\n      pop\n      swap1\n      jump\t// out\n    tag_53:\n      tag_54\n      swap2\n      swap1\n    tag_55:\n      dup1\n      dup3\n      gt\n      iszero\n      tag_56\n      jumpi\n      0x00\n      dup2\n      0x00\n      swap1\n      sstore\n      pop\n      0x01\n      add\n      jump(tag_55)\n    tag_56:\n      pop\n      swap1\n      jump\n    tag_54:\n      swap1\n      jump\t// out\n        /* \"--CODEGEN--\":6:448   */\n    tag_58:\n      0x00\n        /* \"--CODEGEN--\":108:111   */\n      dup3\n        /* \"--CODEGEN--\":101:105   */\n      0x1f\n        /* \"--CODEGEN--\":93:99   */\n      dup4\n        /* \"--CODEGEN--\":89:106   */\n      add\n        /* \"--CODEGEN--\":85:112   */\n      slt\n        /* \"--CODEGEN--\":75:77   */\n      tag_60\n      jumpi\n        /* \"--CODEGEN--\":126:127   */\n      0x00\n        /* \"--CODEGEN--\":123:124   */\n      dup1\n        /* \"--CODEGEN--\":116:128   */\n      revert\n        /* \"--CODEGEN--\":75:77   */\n    tag_60:\n        /* \"--CODEGEN--\":163:169   */\n      dup2\n        /* \"--CODEGEN--\":150:170   */\n      calldataload\n        /* \"--CODEGEN--\":185:250   */\n      tag_61\n        /* \"--CODEGEN--\":200:249   */\n      tag_62\n        /* \"--CODEGEN--\":242:248   */\n      dup3\n        /* \"--CODEGEN--\":200:249   */\n      jump(tag_63)\n    tag_62:\n        /* \"--CODEGEN--\":185:250   */\n      jump(tag_64)\n    tag_61:\n        /* \"--CODEGEN--\":176:250   */\n      swap2\n      pop\n        /* \"--CODEGEN--\":270:276   */\n      dup1\n        /* \"--CODEGEN--\":263:268   */\n      dup3\n        /* \"--CODEGEN--\":256:277   */\n      mstore\n        /* \"--CODEGEN--\":306:310   */\n      0x20\n        /* \"--CODEGEN--\":298:304   */\n      dup4\n        /* \"--CODEGEN--\":294:311   */\n      add\n        /* \"--CODEGEN--\":339:343   */\n      0x20\n        /* \"--CODEGEN--\":332:337   */\n      dup4\n        /* \"--CODEGEN--\":328:344   */\n      add\n        /* \"--CODEGEN--\":374:377   */\n      dup6\n        /* \"--CODEGEN--\":365:371   */\n      dup4\n        /* \"--CODEGEN--\":360:363   */\n      dup4\n        /* \"--CODEGEN--\":356:372   */\n      add\n        /* \"--CODEGEN--\":353:378   */\n      gt\n        /* \"--CODEGEN--\":350:352   */\n      iszero\n      tag_65\n      jumpi\n        /* \"--CODEGEN--\":391:392   */\n      0x00\n        /* \"--CODEGEN--\":388:389   */\n      dup1\n        /* \"--CODEGEN--\":381:393   */\n      revert\n        /* \"--CODEGEN--\":350:352   */\n    tag_65:\n        /* \"--CODEGEN--\":401:442   */\n      tag_66\n        /* \"--CODEGEN--\":435:441   */\n      dup4\n        /* \"--CODEGEN--\":430:433   */\n      dup3\n        /* \"--CODEGEN--\":425:428   */\n      dup5\n        /* \"--CODEGEN--\":401:442   */\n      jump(tag_67)\n    tag_66:\n        /* \"--CODEGEN--\":68:448   */\n      pop\n      pop\n      pop\n      swap3\n      swap2\n      pop\n      pop\n      jump\n        /* \"--CODEGEN--\":456:586   */\n    tag_68:\n      0x00\n        /* \"--CODEGEN--\":536:542   */\n      dup2\n        /* \"--CODEGEN--\":523:543   */\n      calldataload\n        /* \"--CODEGEN--\":514:543   */\n      swap1\n      pop\n        /* \"--CODEGEN--\":548:581   */\n      tag_70\n        /* \"--CODEGEN--\":575:580   */\n      dup2\n        /* \"--CODEGEN--\":548:581   */\n      jump(tag_71)\n    tag_70:\n        /* \"--CODEGEN--\":508:586   */\n      swap3\n      swap2\n      pop\n      pop\n      jump\n        /* \"--CODEGEN--\":593:940   */\n    tag_8:\n      0x00\n        /* \"--CODEGEN--\":707:709   */\n      0x20\n        /* \"--CODEGEN--\":695:704   */\n      dup3\n        /* \"--CODEGEN--\":686:693   */\n      dup5\n        /* \"--CODEGEN--\":682:705   */\n      sub\n        /* \"--CODEGEN--\":678:710   */\n      slt\n        /* \"--CODEGEN--\":675:677   */\n      iszero\n      tag_73\n      jumpi\n        /* \"--CODEGEN--\":723:724   */\n      0x00\n        /* \"--CODEGEN--\":720:721   */\n      dup1\n        /* \"--CODEGEN--\":713:725   */\n      revert\n        /* \"--CODEGEN--\":675:677   */\n    tag_73:\n        /* \"--CODEGEN--\":786:787   */\n      0x00\n        /* \"--CODEGEN--\":775:784   */\n      dup3\n        /* \"--CODEGEN--\":771:788   */\n      add\n        /* \"--CODEGEN--\":758:789   */\n      calldataload\n        /* \"--CODEGEN--\":809:827   */\n      0xffffffffffffffff\n        /* \"--CODEGEN--\":801:807   */\n      dup2\n        /* \"--CODEGEN--\":798:828   */\n      gt\n        /* \"--CODEGEN--\":795:797   */\n      iszero\n      tag_74\n      jumpi\n        /* \"--CODEGEN--\":841:842   */\n      0x00\n        /* \"--CODEGEN--\":838:839   */\n      dup1\n        /* \"--CODEGEN--\":831:843   */\n      revert\n        /* \"--CODEGEN--\":795:797   */\n    tag_74:\n        /* \"--CODEGEN--\":861:924   */\n      tag_75\n        /* \"--CODEGEN--\":916:923   */\n      dup5\n        /* \"--CODEGEN--\":907:913   */\n      dup3\n        /* \"--CODEGEN--\":896:905   */\n      dup6\n        /* \"--CODEGEN--\":892:914   */\n      add\n        /* \"--CODEGEN--\":861:924   */\n      jump(tag_58)\n    tag_75:\n        /* \"--CODEGEN--\":851:924   */\n      swap2\n      pop\n        /* \"--CODEGEN--\":737:930   */\n      pop\n        /* \"--CODEGEN--\":669:940   */\n      swap3\n      swap2\n      pop\n      pop\n      jump\n        /* \"--CODEGEN--\":947:1419   */\n    tag_15:\n      0x00\n      dup1\n        /* \"--CODEGEN--\":1078:1080   */\n      0x40\n        /* \"--CODEGEN--\":1066:1075   */\n      dup4\n        /* \"--CODEGEN--\":1057:1064   */\n      dup6\n        /* \"--CODEGEN--\":1053:1076   */\n      sub\n        /* \"--CODEGEN--\":1049:1081   */\n      slt\n        /* \"--CODEGEN--\":1046:1048   */\n      iszero\n      tag_77\n      jumpi\n        /* \"--CODEGEN--\":1094:1095   */\n      0x00\n        /* \"--CODEGEN--\":1091:1092   */\n      dup1\n        /* \"--CODEGEN--\":1084:1096   */\n      revert\n        /* \"--CODEGEN--\":1046:1048   */\n    tag_77:\n        /* \"--CODEGEN--\":1157:1158   */\n      0x00\n        /* \"--CODEGEN--\":1146:1155   */\n      dup4\n        /* \"--CODEGEN--\":1142:1159   */\n      add\n        /* \"--CODEGEN--\":1129:1160   */\n      calldataload\n        /* \"--CODEGEN--\":1180:1198   */\n      0xffffffffffffffff\n        /* \"--CODEGEN--\":1172:1178   */\n      dup2\n        /* \"--CODEGEN--\":1169:1199   */\n      gt\n        /* \"--CODEGEN--\":1166:1168   */\n      iszero\n      tag_78\n      jumpi\n        /* \"--CODEGEN--\":1212:1213   */\n      0x00\n        /* \"--CODEGEN--\":1209:1210   */\n      dup1\n        /* \"--CODEGEN--\":1202:1214   */\n      revert\n        /* \"--CODEGEN--\":1166:1168   */\n    tag_78:\n        /* \"--CODEGEN--\":1232:1295   */\n      tag_79\n        /* \"--CODEGEN--\":1287:1294   */\n      dup6\n        /* \"--CODEGEN--\":1278:1284   */\n      dup3\n        /* \"--CODEGEN--\":1267:1276   */\n      dup7\n        /* \"--CODEGEN--\":1263:1285   */\n      add\n        /* \"--CODEGEN--\":1232:1295   */\n      jump(tag_58)\n    tag_79:\n        /* \"--CODEGEN--\":1222:1295   */\n      swap3\n      pop\n        /* \"--CODEGEN--\":1108:1301   */\n      pop\n        /* \"--CODEGEN--\":1332:1334   */\n      0x20\n        /* \"--CODEGEN--\":1350:1403   */\n      tag_80\n        /* \"--CODEGEN--\":1395:1402   */\n      dup6\n        /* \"--CODEGEN--\":1386:1392   */\n      dup3\n        /* \"--CODEGEN--\":1375:1384   */\n      dup7\n        /* \"--CODEGEN--\":1371:1393   */\n      add\n        /* \"--CODEGEN--\":1350:1403   */\n      jump(tag_68)\n    tag_80:\n        /* \"--CODEGEN--\":1340:1403   */\n      swap2\n      pop\n        /* \"--CODEGEN--\":1311:1409   */\n      pop\n        /* \"--CODEGEN--\":1040:1419   */\n      swap3\n      pop\n      swap3\n      swap1\n      pop\n      jump\n        /* \"--CODEGEN--\":1426:1530   */\n    tag_81:\n        /* \"--CODEGEN--\":1503:1524   */\n      tag_83\n        /* \"--CODEGEN--\":1518:1523   */\n      dup2\n        /* \"--CODEGEN--\":1503:1524   */\n      jump(tag_84)\n    tag_83:\n        /* \"--CODEGEN--\":1498:1501   */\n      dup3\n        /* \"--CODEGEN--\":1491:1525   */\n      mstore\n        /* \"--CODEGEN--\":1485:1530   */\n      pop\n      pop\n      jump\n        /* \"--CODEGEN--\":1537:1897   */\n    tag_85:\n      0x00\n        /* \"--CODEGEN--\":1667:1706   */\n      tag_87\n        /* \"--CODEGEN--\":1700:1705   */\n      dup3\n        /* \"--CODEGEN--\":1667:1706   */\n      jump(tag_88)\n    tag_87:\n        /* \"--CODEGEN--\":1718:1807   */\n      tag_89\n        /* \"--CODEGEN--\":1800:1806   */\n      dup2\n        /* \"--CODEGEN--\":1795:1798   */\n      dup6\n        /* \"--CODEGEN--\":1718:1807   */\n      jump(tag_90)\n    tag_89:\n        /* \"--CODEGEN--\":1711:1807   */\n      swap4\n      pop\n        /* \"--CODEGEN--\":1812:1864   */\n      tag_91\n        /* \"--CODEGEN--\":1857:1863   */\n      dup2\n        /* \"--CODEGEN--\":1852:1855   */\n      dup6\n        /* \"--CODEGEN--\":1845:1849   */\n      0x20\n        /* \"--CODEGEN--\":1838:1843   */\n      dup7\n        /* \"--CODEGEN--\":1834:1850   */\n      add\n        /* \"--CODEGEN--\":1812:1864   */\n      jump(tag_92)\n    tag_91:\n        /* \"--CODEGEN--\":1885:1891   */\n      dup1\n        /* \"--CODEGEN--\":1880:1883   */\n      dup5\n        /* \"--CODEGEN--\":1876:1892   */\n      add\n        /* \"--CODEGEN--\":1869:1892   */\n      swap2\n      pop\n        /* \"--CODEGEN--\":1647:1897   */\n      pop\n      swap3\n      swap2\n      pop\n      pop\n      jump\n        /* \"--CODEGEN--\":1904:2017   */\n    tag_93:\n        /* \"--CODEGEN--\":1987:2011   */\n      tag_95\n        /* \"--CODEGEN--\":2005:2010   */\n      dup2\n        /* \"--CODEGEN--\":1987:2011   */\n      jump(tag_96)\n    tag_95:\n        /* \"--CODEGEN--\":1982:1985   */\n      dup3\n        /* \"--CODEGEN--\":1975:2012   */\n      mstore\n        /* \"--CODEGEN--\":1969:2017   */\n      pop\n      pop\n      jump\n        /* \"--CODEGEN--\":2024:2290   */\n    tag_26:\n      0x00\n        /* \"--CODEGEN--\":2170:2265   */\n      tag_98\n        /* \"--CODEGEN--\":2261:2264   */\n      dup3\n        /* \"--CODEGEN--\":2252:2258   */\n      dup5\n        /* \"--CODEGEN--\":2170:2265   */\n      jump(tag_85)\n    tag_98:\n        /* \"--CODEGEN--\":2163:2265   */\n      swap2\n      pop\n        /* \"--CODEGEN--\":2282:2285   */\n      dup2\n        /* \"--CODEGEN--\":2275:2285   */\n      swap1\n      pop\n        /* \"--CODEGEN--\":2151:2290   */\n      swap3\n      swap2\n      pop\n      pop\n      jump\n        /* \"--CODEGEN--\":2297:2498   */\n    tag_18:\n      0x00\n        /* \"--CODEGEN--\":2409:2411   */\n      0x20\n        /* \"--CODEGEN--\":2398:2407   */\n      dup3\n        /* \"--CODEGEN--\":2394:2412   */\n      add\n        /* \"--CODEGEN--\":2386:2412   */\n      swap1\n      pop\n        /* \"--CODEGEN--\":2423:2488   */\n      tag_100\n        /* \"--CODEGEN--\":2485:2486   */\n      0x00\n        /* \"--CODEGEN--\":2474:2483   */\n      dup4\n        /* \"--CODEGEN--\":2470:2487   */\n      add\n        /* \"--CODEGEN--\":2461:2467   */\n      dup5\n        /* \"--CODEGEN--\":2423:2488   */\n      jump(tag_81)\n    tag_100:\n        /* \"--CODEGEN--\":2380:2498   */\n      swap3\n      swap2\n      pop\n      pop\n      jump\n        /* \"--CODEGEN--\":2505:2817   */\n    tag_11:\n      0x00\n        /* \"--CODEGEN--\":2645:2647   */\n      0x40\n        /* \"--CODEGEN--\":2634:2643   */\n      dup3\n        /* \"--CODEGEN--\":2630:2648   */\n      add\n        /* \"--CODEGEN--\":2622:2648   */\n      swap1\n      pop\n        /* \"--CODEGEN--\":2659:2724   */\n      tag_102\n        /* \"--CODEGEN--\":2721:2722   */\n      0x00\n        /* \"--CODEGEN--\":2710:2719   */\n      dup4\n        /* \"--CODEGEN--\":2706:2723   */\n      add\n        /* \"--CODEGEN--\":2697:2703   */\n      dup6\n        /* \"--CODEGEN--\":2659:2724   */\n      jump(tag_81)\n    tag_102:\n        /* \"--CODEGEN--\":2735:2807   */\n      tag_103\n        /* \"--CODEGEN--\":2803:2805   */\n      0x20\n        /* \"--CODEGEN--\":2792:2801   */\n      dup4\n        /* \"--CODEGEN--\":2788:2806   */\n      add\n        /* \"--CODEGEN--\":2779:2785   */\n      dup5\n        /* \"--CODEGEN--\":2735:2807   */\n      jump(tag_93)\n    tag_103:\n        /* \"--CODEGEN--\":2616:2817   */\n      swap4\n      swap3\n      pop\n      pop\n      pop\n      jump\n        /* \"--CODEGEN--\":2824:3080   */\n    tag_64:\n      0x00\n        /* \"--CODEGEN--\":2886:2888   */\n      0x40\n        /* \"--CODEGEN--\":2880:2889   */\n      mload\n        /* \"--CODEGEN--\":2870:2889   */\n      swap1\n      pop\n        /* \"--CODEGEN--\":2924:2928   */\n      dup2\n        /* \"--CODEGEN--\":2916:2922   */\n      dup2\n        /* \"--CODEGEN--\":2912:2929   */\n      add\n        /* \"--CODEGEN--\":3023:3029   */\n      dup2\n        /* \"--CODEGEN--\":3011:3021   */\n      dup2\n        /* \"--CODEGEN--\":3008:3030   */\n      lt\n        /* \"--CODEGEN--\":2987:3005   */\n      0xffffffffffffffff\n        /* \"--CODEGEN--\":2975:2985   */\n      dup3\n        /* \"--CODEGEN--\":2972:3006   */\n      gt\n        /* \"--CODEGEN--\":2969:3031   */\n      or\n        /* \"--CODEGEN--\":2966:2968   */\n      iszero\n      tag_105\n      jumpi\n        /* \"--CODEGEN--\":3044:3045   */\n      0x00\n        /* \"--CODEGEN--\":3041:3042   */\n      dup1\n        /* \"--CODEGEN--\":3034:3046   */\n      revert\n        /* \"--CODEGEN--\":2966:2968   */\n    tag_105:\n        /* \"--CODEGEN--\":3064:3074   */\n      dup1\n        /* \"--CODEGEN--\":3060:3062   */\n      0x40\n        /* \"--CODEGEN--\":3053:3075   */\n      mstore\n        /* \"--CODEGEN--\":2864:3080   */\n      pop\n      swap2\n      swap1\n      pop\n      jump\n        /* \"--CODEGEN--\":3087:3409   */\n    tag_63:\n      0x00\n        /* \"--CODEGEN--\":3231:3249   */\n      0xffffffffffffffff\n        /* \"--CODEGEN--\":3223:3229   */\n      dup3\n        /* \"--CODEGEN--\":3220:3250   */\n      gt\n        /* \"--CODEGEN--\":3217:3219   */\n      iszero\n      tag_107\n      jumpi\n        /* \"--CODEGEN--\":3263:3264   */\n      0x00\n        /* \"--CODEGEN--\":3260:3261   */\n      dup1\n        /* \"--CODEGEN--\":3253:3265   */\n      revert\n        /* \"--CODEGEN--\":3217:3219   */\n    tag_107:\n        /* \"--CODEGEN--\":3330:3334   */\n      0x1f\n        /* \"--CODEGEN--\":3326:3335   */\n      not\n        /* \"--CODEGEN--\":3319:3323   */\n      0x1f\n        /* \"--CODEGEN--\":3311:3317   */\n      dup4\n        /* \"--CODEGEN--\":3307:3324   */\n      add\n        /* \"--CODEGEN--\":3303:3336   */\n      and\n        /* \"--CODEGEN--\":3295:3336   */\n      swap1\n      pop\n        /* \"--CODEGEN--\":3394:3398   */\n      0x20\n        /* \"--CODEGEN--\":3388:3392   */\n      dup2\n        /* \"--CODEGEN--\":3384:3399   */\n      add\n        /* \"--CODEGEN--\":3376:3399   */\n      swap1\n      pop\n        /* \"--CODEGEN--\":3154:3409   */\n      swap2\n      swap1\n      pop\n      jump\n        /* \"--CODEGEN--\":3416:3538   */\n    tag_88:\n      0x00\n        /* \"--CODEGEN--\":3510:3515   */\n      dup2\n        /* \"--CODEGEN--\":3504:3516   */\n      mload\n        /* \"--CODEGEN--\":3494:3516   */\n      swap1\n      pop\n        /* \"--CODEGEN--\":3475:3538   */\n      swap2\n      swap1\n      pop\n      jump\n        /* \"--CODEGEN--\":3546:3691   */\n    tag_90:\n      0x00\n        /* \"--CODEGEN--\":3682:3685   */\n      dup2\n        /* \"--CODEGEN--\":3667:3685   */\n      swap1\n      pop\n        /* \"--CODEGEN--\":3660:3691   */\n      swap3\n      swap2\n      pop\n      pop\n      jump\n        /* \"--CODEGEN--\":3699:3784   */\n    tag_84:\n      0x00\n        /* \"--CODEGEN--\":3772:3777   */\n      dup2\n        /* \"--CODEGEN--\":3765:3778   */\n      iszero\n        /* \"--CODEGEN--\":3758:3779   */\n      iszero\n        /* \"--CODEGEN--\":3747:3779   */\n      swap1\n      pop\n        /* \"--CODEGEN--\":3741:3784   */\n      swap2\n      swap1\n      pop\n      jump\n        /* \"--CODEGEN--\":3791:3863   */\n    tag_96:\n      0x00\n        /* \"--CODEGEN--\":3853:3858   */\n      dup2\n        /* \"--CODEGEN--\":3842:3858   */\n      swap1\n      pop\n        /* \"--CODEGEN--\":3836:3863   */\n      swap2\n      swap1\n      pop\n      jump\n        /* \"--CODEGEN--\":3871:4016   */\n    tag_67:\n        /* \"--CODEGEN--\":3952:3958   */\n      dup3\n        /* \"--CODEGEN--\":3947:3950   */\n      dup2\n        /* \"--CODEGEN--\":3942:3945   */\n      dup4\n        /* \"--CODEGEN--\":3929:3959   */\n      calldatacopy\n        /* \"--CODEGEN--\":4008:4009   */\n      0x00\n        /* \"--CODEGEN--\":3999:4005   */\n      dup4\n        /* \"--CODEGEN--\":3994:3997   */\n      dup4\n        /* \"--CODEGEN--\":3990:4006   */\n      add\n        /* \"--CODEGEN--\":3983:4010   */\n      mstore\n        /* \"--CODEGEN--\":3922:4016   */\n      pop\n      pop\n      pop\n      jump\n        /* \"--CODEGEN--\":4025:4293   */\n    tag_92:\n        /* \"--CODEGEN--\":4090:4091   */\n      0x00\n        /* \"--CODEGEN--\":4097:4198   */\n    tag_114:\n        /* \"--CODEGEN--\":4111:4117   */\n      dup4\n        /* \"--CODEGEN--\":4108:4109   */\n      dup2\n        /* \"--CODEGEN--\":4105:4118   */\n      lt\n        /* \"--CODEGEN--\":4097:4198   */\n      iszero\n      tag_116\n      jumpi\n        /* \"--CODEGEN--\":4187:4188   */\n      dup1\n        /* \"--CODEGEN--\":4182:4185   */\n      dup3\n        /* \"--CODEGEN--\":4178:4189   */\n      add\n        /* \"--CODEGEN--\":4172:4190   */\n      mload\n        /* \"--CODEGEN--\":4168:4169   */\n      dup2\n        /* \"--CODEGEN--\":4163:4166   */\n      dup5\n        /* \"--CODEGEN--\":4159:4170   */\n      add\n        /* \"--CODEGEN--\":4152:4191   */\n      mstore\n        /* \"--CODEGEN--\":4133:4135   */\n      0x20\n        /* \"--CODEGEN--\":4130:4131   */\n      dup2\n        /* \"--CODEGEN--\":4126:4136   */\n      add\n        /* \"--CODEGEN--\":4121:4136   */\n      swap1\n      pop\n        /* \"--CODEGEN--\":4097:4198   */\n      jump(tag_114)\n    tag_116:\n        /* \"--CODEGEN--\":4213:4219   */\n      dup4\n        /* \"--CODEGEN--\":4210:4211   */\n      dup2\n        /* \"--CODEGEN--\":4207:4220   */\n      gt\n        /* \"--CODEGEN--\":4204:4206   */\n      iszero\n      tag_117\n      jumpi\n        /* \"--CODEGEN--\":4278:4279   */\n      0x00\n        /* \"--CODEGEN--\":4269:4275   */\n      dup5\n        /* \"--CODEGEN--\":4264:4267   */\n      dup5\n        /* \"--CODEGEN--\":4260:4276   */\n      add\n        /* \"--CODEGEN--\":4253:4280   */\n      mstore\n        /* \"--CODEGEN--\":4204:4206   */\n    tag_117:\n        /* \"--CODEGEN--\":4074:4293   */\n      pop\n      pop\n      pop\n      pop\n      jump\n        /* \"--CODEGEN--\":4301:4418   */\n    tag_71:\n        /* \"--CODEGEN--\":4370:4394   */\n      tag_119\n        /* \"--CODEGEN--\":4388:4393   */\n      dup2\n        /* \"--CODEGEN--\":4370:4394   */\n      jump(tag_96)\n    tag_119:\n        /* \"--CODEGEN--\":4363:4368   */\n      dup2\n        /* \"--CODEGEN--\":4360:4395   */\n      eq\n        /* \"--CODEGEN--\":4350:4352   */\n      tag_120\n      jumpi\n        /* \"--CODEGEN--\":4409:4410   */\n      0x00\n        /* \"--CODEGEN--\":4406:4407   */\n      dup1\n        /* \"--CODEGEN--\":4399:4411   */\n      revert\n        /* \"--CODEGEN--\":4350:4352   */\n    tag_120:\n        /* \"--CODEGEN--\":4344:4418   */\n      pop\n      jump\n\n    auxdata: 0xa26469706673582212201c82f80e032929aefc8eb63031544803c83cb49bd48acb074db165945e2b9a8764736f6c63430006000033\n}\n",
				"bytecode": {
					"linkReferences": {},
					"object": "60806040526000805534801561001457600080fd5b506107a0806100246000396000f3fe6080604052600436106100345760003560e01c80631a2c9b6a1461003957806345cd81b3146100775780639dbc7609146100b4575b600080fd5b34801561004557600080fd5b50610060600480360361005b919081019061054d565b6100d0565b60405161006e929190610663565b60405180910390f35b34801561008357600080fd5b5061009e6004803603610099919081019061058e565b6101f8565b6040516100ab9190610648565b60405180910390f35b6100ce60048036036100c9919081019061058e565b610266565b005b6000806100db610417565b6001846040516100eb9190610631565b908152602001604051809103902060405180608001604052908160008201548152602001600182018054600181600116156101000203166002900480601f0160208091040260200160405190810160405280929190818152602001828054600181600116156101000203166002900480156101a75780601f1061017c576101008083540402835291602001916101a7565b820191906000526020600020905b81548152906001019060200180831161018a57829003601f168201915b5050505050815260200160028201548152602001600382015481525050905080604001518160600151106101e6576001816060015192509250506101f3565b6000816060015192509250505b915091565b600061020483836102fb565b1561025b578160018460405161021a9190610631565b9081526020016040518091039020600301540160018460405161023d9190610631565b90815260200160405180910390206003018190555060019050610260565b600090505b92915050565b60405180608001604052806000548152602001838152602001828152602001600081525060018360405161029a9190610631565b90815260200160405180910390206000820151816000015560208201518160010190805190602001906102ce92919061043f565b50604082015181600201556060820151816003015590505060008081548092919060010191905055505050565b6000610305610417565b6001846040516103159190610631565b908152602001604051809103902060405180608001604052908160008201548152602001600182018054600181600116156101000203166002900480601f0160208091040260200160405190810160405280929190818152602001828054600181600116156101000203166002900480156103d15780601f106103a6576101008083540402835291602001916103d1565b820191906000526020600020905b8154815290600101906020018083116103b457829003601f168201915b505050505081526020016002820154815260200160038201548152505090508281606001510181604001511061040b576001915050610411565b60009150505b92915050565b6040518060800160405280600081526020016060815260200160008152602001600081525090565b828054600181600116156101000203166002900490600052602060002090601f016020900481019282601f1061048057805160ff19168380011785556104ae565b828001600101855582156104ae579182015b828111156104ad578251825591602001919060010190610492565b5b5090506104bb91906104bf565b5090565b6104e191905b808211156104dd5760008160009055506001016104c5565b5090565b90565b600082601f8301126104f557600080fd5b8135610508610503826106b9565b61068c565b9150808252602083016020830185838301111561052457600080fd5b61052f838284610711565b50505092915050565b60008135905061054781610753565b92915050565b60006020828403121561055f57600080fd5b600082013567ffffffffffffffff81111561057957600080fd5b610585848285016104e4565b91505092915050565b600080604083850312156105a157600080fd5b600083013567ffffffffffffffff8111156105bb57600080fd5b6105c7858286016104e4565b92505060206105d885828601610538565b9150509250929050565b6105eb816106fb565b82525050565b60006105fc826106e5565b61060681856106f0565b9350610616818560208601610720565b80840191505092915050565b61062b81610707565b82525050565b600061063d82846105f1565b915081905092915050565b600060208201905061065d60008301846105e2565b92915050565b600060408201905061067860008301856105e2565b6106856020830184610622565b9392505050565b6000604051905081810181811067ffffffffffffffff821117156106af57600080fd5b8060405250919050565b600067ffffffffffffffff8211156106d057600080fd5b601f19601f8301169050602081019050919050565b600081519050919050565b600081905092915050565b60008115159050919050565b6000819050919050565b82818337600083830152505050565b60005b8381101561073e578082015181840152602081019050610723565b8381111561074d576000848401525b50505050565b61075c81610707565b811461076757600080fd5b5056fea26469706673582212201c82f80e032929aefc8eb63031544803c83cb49bd48acb074db165945e2b9a8764736f6c63430006000033",
					"opcodes": "PUSH1 0x80 PUSH1 0x40 MSTORE PUSH1 0x0 DUP1 SSTORE CALLVALUE DUP1 ISZERO PUSH2 0x14 JUMPI PUSH1 0x0 DUP1 REVERT JUMPDEST POP PUSH2 0x7A0 DUP1 PUSH2 0x24 PUSH1 0x0 CODECOPY PUSH1 0x0 RETURN INVALID PUSH1 0x80 PUSH1 0x40 MSTORE PUSH1 0x4 CALLDATASIZE LT PUSH2 0x34 JUMPI PUSH1 0x0 CALLDATALOAD PUSH1 0xE0 SHR DUP1 PUSH4 0x1A2C9B6A EQ PUSH2 0x39 JUMPI DUP1 PUSH4 0x45CD81B3 EQ PUSH2 0x77 JUMPI DUP1 PUSH4 0x9DBC7609 EQ PUSH2 0xB4 JUMPI JUMPDEST PUSH1 0x0 DUP1 REVERT JUMPDEST CALLVALUE DUP1 ISZERO PUSH2 0x45 JUMPI PUSH1 0x0 DUP1 REVERT JUMPDEST POP PUSH2 0x60 PUSH1 0x4 DUP1 CALLDATASIZE SUB PUSH2 0x5B SWAP2 SWAP1 DUP2 ADD SWAP1 PUSH2 0x54D JUMP JUMPDEST PUSH2 0xD0 JUMP JUMPDEST PUSH1 0x40 MLOAD PUSH2 0x6E SWAP3 SWAP2 SWAP1 PUSH2 0x663 JUMP JUMPDEST PUSH1 0x40 MLOAD DUP1 SWAP2 SUB SWAP1 RETURN JUMPDEST CALLVALUE DUP1 ISZERO PUSH2 0x83 JUMPI PUSH1 0x0 DUP1 REVERT JUMPDEST POP PUSH2 0x9E PUSH1 0x4 DUP1 CALLDATASIZE SUB PUSH2 0x99 SWAP2 SWAP1 DUP2 ADD SWAP1 PUSH2 0x58E JUMP JUMPDEST PUSH2 0x1F8 JUMP JUMPDEST PUSH1 0x40 MLOAD PUSH2 0xAB SWAP2 SWAP1 PUSH2 0x648 JUMP JUMPDEST PUSH1 0x40 MLOAD DUP1 SWAP2 SUB SWAP1 RETURN JUMPDEST PUSH2 0xCE PUSH1 0x4 DUP1 CALLDATASIZE SUB PUSH2 0xC9 SWAP2 SWAP1 DUP2 ADD SWAP1 PUSH2 0x58E JUMP JUMPDEST PUSH2 0x266 JUMP JUMPDEST STOP JUMPDEST PUSH1 0x0 DUP1 PUSH2 0xDB PUSH2 0x417 JUMP JUMPDEST PUSH1 0x1 DUP5 PUSH1 0x40 MLOAD PUSH2 0xEB SWAP2 SWAP1 PUSH2 0x631 JUMP JUMPDEST SWAP1 DUP2 MSTORE PUSH1 0x20 ADD PUSH1 0x40 MLOAD DUP1 SWAP2 SUB SWAP1 KECCAK256 PUSH1 0x40 MLOAD DUP1 PUSH1 0x80 ADD PUSH1 0x40 MSTORE SWAP1 DUP2 PUSH1 0x0 DUP3 ADD SLOAD DUP2 MSTORE PUSH1 0x20 ADD PUSH1 0x1 DUP3 ADD DUP1 SLOAD PUSH1 0x1 DUP2 PUSH1 0x1 AND ISZERO PUSH2 0x100 MUL SUB AND PUSH1 0x2 SWAP1 DIV DUP1 PUSH1 0x1F ADD PUSH1 0x20 DUP1 SWAP2 DIV MUL PUSH1 0x20 ADD PUSH1 0x40 MLOAD SWAP1 DUP2 ADD PUSH1 0x40 MSTORE DUP1 SWAP3 SWAP2 SWAP1 DUP2 DUP2 MSTORE PUSH1 0x20 ADD DUP3 DUP1 SLOAD PUSH1 0x1 DUP2 PUSH1 0x1 AND ISZERO PUSH2 0x100 MUL SUB AND PUSH1 0x2 SWAP1 DIV DUP1 ISZERO PUSH2 0x1A7 JUMPI DUP1 PUSH1 0x1F LT PUSH2 0x17C JUMPI PUSH2 0x100 DUP1 DUP4 SLOAD DIV MUL DUP4 MSTORE SWAP2 PUSH1 0x20 ADD SWAP2 PUSH2 0x1A7 JUMP JUMPDEST DUP3 ADD SWAP2 SWAP1 PUSH1 0x0 MSTORE PUSH1 0x20 PUSH1 0x0 KECCAK256 SWAP1 JUMPDEST DUP2 SLOAD DUP2 MSTORE SWAP1 PUSH1 0x1 ADD SWAP1 PUSH1 0x20 ADD DUP1 DUP4 GT PUSH2 0x18A JUMPI DUP3 SWAP1 SUB PUSH1 0x1F AND DUP3 ADD SWAP2 JUMPDEST POP POP POP POP POP DUP2 MSTORE PUSH1 0x20 ADD PUSH1 0x2 DUP3 ADD SLOAD DUP2 MSTORE PUSH1 0x20 ADD PUSH1 0x3 DUP3 ADD SLOAD DUP2 MSTORE POP POP SWAP1 POP DUP1 PUSH1 0x40 ADD MLOAD DUP2 PUSH1 0x60 ADD MLOAD LT PUSH2 0x1E6 JUMPI PUSH1 0x1 DUP2 PUSH1 0x60 ADD MLOAD SWAP3 POP SWAP3 POP POP PUSH2 0x1F3 JUMP JUMPDEST PUSH1 0x0 DUP2 PUSH1 0x60 ADD MLOAD SWAP3 POP SWAP3 POP POP JUMPDEST SWAP2 POP SWAP2 JUMP JUMPDEST PUSH1 0x0 PUSH2 0x204 DUP4 DUP4 PUSH2 0x2FB JUMP JUMPDEST ISZERO PUSH2 0x25B JUMPI DUP2 PUSH1 0x1 DUP5 PUSH1 0x40 MLOAD PUSH2 0x21A SWAP2 SWAP1 PUSH2 0x631 JUMP JUMPDEST SWAP1 DUP2 MSTORE PUSH1 0x20 ADD PUSH1 0x40 MLOAD DUP1 SWAP2 SUB SWAP1 KECCAK256 PUSH1 0x3 ADD SLOAD ADD PUSH1 0x1 DUP5 PUSH1 0x40 MLOAD PUSH2 0x23D SWAP2 SWAP1 PUSH2 0x631 JUMP JUMPDEST SWAP1 DUP2 MSTORE PUSH1 0x20 ADD PUSH1 0x40 MLOAD DUP1 SWAP2 SUB SWAP1 KECCAK256 PUSH1 0x3 ADD DUP2 SWAP1 SSTORE POP PUSH1 0x1 SWAP1 POP PUSH2 0x260 JUMP JUMPDEST PUSH1 0x0 SWAP1 POP JUMPDEST SWAP3 SWAP2 POP POP JUMP JUMPDEST PUSH1 0x40 MLOAD DUP1 PUSH1 0x80 ADD PUSH1 0x40 MSTORE DUP1 PUSH1 0x0 SLOAD DUP2 MSTORE PUSH1 0x20 ADD DUP4 DUP2 MSTORE PUSH1 0x20 ADD DUP3 DUP2 MSTORE PUSH1 0x20 ADD PUSH1 0x0 DUP2 MSTORE POP PUSH1 0x1 DUP4 PUSH1 0x40 MLOAD PUSH2 0x29A SWAP2 SWAP1 PUSH2 0x631 JUMP JUMPDEST SWAP1 DUP2 MSTORE PUSH1 0x20 ADD PUSH1 0x40 MLOAD DUP1 SWAP2 SUB SWAP1 KECCAK256 PUSH1 0x0 DUP3 ADD MLOAD DUP2 PUSH1 0x0 ADD SSTORE PUSH1 0x20 DUP3 ADD MLOAD DUP2 PUSH1 0x1 ADD SWAP1 DUP1 MLOAD SWAP1 PUSH1 0x20 ADD SWAP1 PUSH2 0x2CE SWAP3 SWAP2 SWAP1 PUSH2 0x43F JUMP JUMPDEST POP PUSH1 0x40 DUP3 ADD MLOAD DUP2 PUSH1 0x2 ADD SSTORE PUSH1 0x60 DUP3 ADD MLOAD DUP2 PUSH1 0x3 ADD SSTORE SWAP1 POP POP PUSH1 0x0 DUP1 DUP2 SLOAD DUP1 SWAP3 SWAP2 SWAP1 PUSH1 0x1 ADD SWAP2 SWAP1 POP SSTORE POP POP POP JUMP JUMPDEST PUSH1 0x0 PUSH2 0x305 PUSH2 0x417 JUMP JUMPDEST PUSH1 0x1 DUP5 PUSH1 0x40 MLOAD PUSH2 0x315 SWAP2 SWAP1 PUSH2 0x631 JUMP JUMPDEST SWAP1 DUP2 MSTORE PUSH1 0x20 ADD PUSH1 0x40 MLOAD DUP1 SWAP2 SUB SWAP1 KECCAK256 PUSH1 0x40 MLOAD DUP1 PUSH1 0x80 ADD PUSH1 0x40 MSTORE SWAP1 DUP2 PUSH1 0x0 DUP3 ADD SLOAD DUP2 MSTORE PUSH1 0x20 ADD PUSH1 0x1 DUP3 ADD DUP1 SLOAD PUSH1 0x1 DUP2 PUSH1 0x1 AND ISZERO PUSH2 0x100 MUL SUB AND PUSH1 0x2 SWAP1 DIV DUP1 PUSH1 0x1F ADD PUSH1 0x20 DUP1 SWAP2 DIV MUL PUSH1 0x20 ADD PUSH1 0x40 MLOAD SWAP1 DUP2 ADD PUSH1 0x40 MSTORE DUP1 SWAP3 SWAP2 SWAP1 DUP2 DUP2 MSTORE PUSH1 0x20 ADD DUP3 DUP1 SLOAD PUSH1 0x1 DUP2 PUSH1 0x1 AND ISZERO PUSH2 0x100 MUL SUB AND PUSH1 0x2 SWAP1 DIV DUP1 ISZERO PUSH2 0x3D1 JUMPI DUP1 PUSH1 0x1F LT PUSH2 0x3A6 JUMPI PUSH2 0x100 DUP1 DUP4 SLOAD DIV MUL DUP4 MSTORE SWAP2 PUSH1 0x20 ADD SWAP2 PUSH2 0x3D1 JUMP JUMPDEST DUP3 ADD SWAP2 SWAP1 PUSH1 0x0 MSTORE PUSH1 0x20 PUSH1 0x0 KECCAK256 SWAP1 JUMPDEST DUP2 SLOAD DUP2 MSTORE SWAP1 PUSH1 0x1 ADD SWAP1 PUSH1 0x20 ADD DUP1 DUP4 GT PUSH2 0x3B4 JUMPI DUP3 SWAP1 SUB PUSH1 0x1F AND DUP3 ADD SWAP2 JUMPDEST POP POP POP POP POP DUP2 MSTORE PUSH1 0x20 ADD PUSH1 0x2 DUP3 ADD SLOAD DUP2 MSTORE PUSH1 0x20 ADD PUSH1 0x3 DUP3 ADD SLOAD DUP2 MSTORE POP POP SWAP1 POP DUP3 DUP2 PUSH1 0x60 ADD MLOAD ADD DUP2 PUSH1 0x40 ADD MLOAD LT PUSH2 0x40B JUMPI PUSH1 0x1 SWAP2 POP POP PUSH2 0x411 JUMP JUMPDEST PUSH1 0x0 SWAP2 POP POP JUMPDEST SWAP3 SWAP2 POP POP JUMP JUMPDEST PUSH1 0x40 MLOAD DUP1 PUSH1 0x80 ADD PUSH1 0x40 MSTORE DUP1 PUSH1 0x0 DUP2 MSTORE PUSH1 0x20 ADD PUSH1 0x60 DUP2 MSTORE PUSH1 0x20 ADD PUSH1 0x0 DUP2 MSTORE PUSH1 0x20 ADD PUSH1 0x0 DUP2 MSTORE POP SWAP1 JUMP JUMPDEST DUP3 DUP1 SLOAD PUSH1 0x1 DUP2 PUSH1 0x1 AND ISZERO PUSH2 0x100 MUL SUB AND PUSH1 0x2 SWAP1 DIV SWAP1 PUSH1 0x0 MSTORE PUSH1 0x20 PUSH1 0x0 KECCAK256 SWAP1 PUSH1 0x1F ADD PUSH1 0x20 SWAP1 DIV DUP2 ADD SWAP3 DUP3 PUSH1 0x1F LT PUSH2 0x480 JUMPI DUP1 MLOAD PUSH1 0xFF NOT AND DUP4 DUP1 ADD OR DUP6 SSTORE PUSH2 0x4AE JUMP JUMPDEST DUP3 DUP1 ADD PUSH1 0x1 ADD DUP6 SSTORE DUP3 ISZERO PUSH2 0x4AE JUMPI SWAP2 DUP3 ADD JUMPDEST DUP3 DUP2 GT ISZERO PUSH2 0x4AD JUMPI DUP3 MLOAD DUP3 SSTORE SWAP2 PUSH1 0x20 ADD SWAP2 SWAP1 PUSH1 0x1 ADD SWAP1 PUSH2 0x492 JUMP JUMPDEST JUMPDEST POP SWAP1 POP PUSH2 0x4BB SWAP2 SWAP1 PUSH2 0x4BF JUMP JUMPDEST POP SWAP1 JUMP JUMPDEST PUSH2 0x4E1 SWAP2 SWAP1 JUMPDEST DUP1 DUP3 GT ISZERO PUSH2 0x4DD JUMPI PUSH1 0x0 DUP2 PUSH1 0x0 SWAP1 SSTORE POP PUSH1 0x1 ADD PUSH2 0x4C5 JUMP JUMPDEST POP SWAP1 JUMP JUMPDEST SWAP1 JUMP JUMPDEST PUSH1 0x0 DUP3 PUSH1 0x1F DUP4 ADD SLT PUSH2 0x4F5 JUMPI PUSH1 0x0 DUP1 REVERT JUMPDEST DUP2 CALLDATALOAD PUSH2 0x508 PUSH2 0x503 DUP3 PUSH2 0x6B9 JUMP JUMPDEST PUSH2 0x68C JUMP JUMPDEST SWAP2 POP DUP1 DUP3 MSTORE PUSH1 0x20 DUP4 ADD PUSH1 0x20 DUP4 ADD DUP6 DUP4 DUP4 ADD GT ISZERO PUSH2 0x524 JUMPI PUSH1 0x0 DUP1 REVERT JUMPDEST PUSH2 0x52F DUP4 DUP3 DUP5 PUSH2 0x711 JUMP JUMPDEST POP POP POP SWAP3 SWAP2 POP POP JUMP JUMPDEST PUSH1 0x0 DUP2 CALLDATALOAD SWAP1 POP PUSH2 0x547 DUP2 PUSH2 0x753 JUMP JUMPDEST SWAP3 SWAP2 POP POP JUMP JUMPDEST PUSH1 0x0 PUSH1 0x20 DUP3 DUP5 SUB SLT ISZERO PUSH2 0x55F JUMPI PUSH1 0x0 DUP1 REVERT JUMPDEST PUSH1 0x0 DUP3 ADD CALLDATALOAD PUSH8 0xFFFFFFFFFFFFFFFF DUP2 GT ISZERO PUSH2 0x579 JUMPI PUSH1 0x0 DUP1 REVERT JUMPDEST PUSH2 0x585 DUP5 DUP3 DUP6 ADD PUSH2 0x4E4 JUMP JUMPDEST SWAP2 POP POP SWAP3 SWAP2 POP POP JUMP JUMPDEST PUSH1 0x0 DUP1 PUSH1 0x40 DUP4 DUP6 SUB SLT ISZERO PUSH2 0x5A1 JUMPI PUSH1 0x0 DUP1 REVERT JUMPDEST PUSH1 0x0 DUP4 ADD CALLDATALOAD PUSH8 0xFFFFFFFFFFFFFFFF DUP2 GT ISZERO PUSH2 0x5BB JUMPI PUSH1 0x0 DUP1 REVERT JUMPDEST PUSH2 0x5C7 DUP6 DUP3 DUP7 ADD PUSH2 0x4E4 JUMP JUMPDEST SWAP3 POP POP PUSH1 0x20 PUSH2 0x5D8 DUP6 DUP3 DUP7 ADD PUSH2 0x538 JUMP JUMPDEST SWAP2 POP POP SWAP3 POP SWAP3 SWAP1 POP JUMP JUMPDEST PUSH2 0x5EB DUP2 PUSH2 0x6FB JUMP JUMPDEST DUP3 MSTORE POP POP JUMP JUMPDEST PUSH1 0x0 PUSH2 0x5FC DUP3 PUSH2 0x6E5 JUMP JUMPDEST PUSH2 0x606 DUP2 DUP6 PUSH2 0x6F0 JUMP JUMPDEST SWAP4 POP PUSH2 0x616 DUP2 DUP6 PUSH1 0x20 DUP7 ADD PUSH2 0x720 JUMP JUMPDEST DUP1 DUP5 ADD SWAP2 POP POP SWAP3 SWAP2 POP POP JUMP JUMPDEST PUSH2 0x62B DUP2 PUSH2 0x707 JUMP JUMPDEST DUP3 MSTORE POP POP JUMP JUMPDEST PUSH1 0x0 PUSH2 0x63D DUP3 DUP5 PUSH2 0x5F1 JUMP JUMPDEST SWAP2 POP DUP2 SWAP1 POP SWAP3 SWAP2 POP POP JUMP JUMPDEST PUSH1 0x0 PUSH1 0x20 DUP3 ADD SWAP1 POP PUSH2 0x65D PUSH1 0x0 DUP4 ADD DUP5 PUSH2 0x5E2 JUMP JUMPDEST SWAP3 SWAP2 POP POP JUMP JUMPDEST PUSH1 0x0 PUSH1 0x40 DUP3 ADD SWAP1 POP PUSH2 0x678 PUSH1 0x0 DUP4 ADD DUP6 PUSH2 0x5E2 JUMP JUMPDEST PUSH2 0x685 PUSH1 0x20 DUP4 ADD DUP5 PUSH2 0x622 JUMP JUMPDEST SWAP4 SWAP3 POP POP POP JUMP JUMPDEST PUSH1 0x0 PUSH1 0x40 MLOAD SWAP1 POP DUP2 DUP2 ADD DUP2 DUP2 LT PUSH8 0xFFFFFFFFFFFFFFFF DUP3 GT OR ISZERO PUSH2 0x6AF JUMPI PUSH1 0x0 DUP1 REVERT JUMPDEST DUP1 PUSH1 0x40 MSTORE POP SWAP2 SWAP1 POP JUMP JUMPDEST PUSH1 0x0 PUSH8 0xFFFFFFFFFFFFFFFF DUP3 GT ISZERO PUSH2 0x6D0 JUMPI PUSH1 0x0 DUP1 REVERT JUMPDEST PUSH1 0x1F NOT PUSH1 0x1F DUP4 ADD AND SWAP1 POP PUSH1 0x20 DUP2 ADD SWAP1 POP SWAP2 SWAP1 POP JUMP JUMPDEST PUSH1 0x0 DUP2 MLOAD SWAP1 POP SWAP2 SWAP1 POP JUMP JUMPDEST PUSH1 0x0 DUP2 SWAP1 POP SWAP3 SWAP2 POP POP JUMP JUMPDEST PUSH1 0x0 DUP2 ISZERO ISZERO SWAP1 POP SWAP2 SWAP1 POP JUMP JUMPDEST PUSH1 0x0 DUP2 SWAP1 POP SWAP2 SWAP1 POP JUMP JUMPDEST DUP3 DUP2 DUP4 CALLDATACOPY PUSH1 0x0 DUP4 DUP4 ADD MSTORE POP POP POP JUMP JUMPDEST PUSH1 0x0 JUMPDEST DUP4 DUP2 LT ISZERO PUSH2 0x73E JUMPI DUP1 DUP3 ADD MLOAD DUP2 DUP5 ADD MSTORE PUSH1 0x20 DUP2 ADD SWAP1 POP PUSH2 0x723 JUMP JUMPDEST DUP4 DUP2 GT ISZERO PUSH2 0x74D JUMPI PUSH1 0x0 DUP5 DUP5 ADD MSTORE JUMPDEST POP POP POP POP JUMP JUMPDEST PUSH2 0x75C DUP2 PUSH2 0x707 JUMP JUMPDEST DUP2 EQ PUSH2 0x767 JUMPI PUSH1 0x0 DUP1 REVERT JUMPDEST POP JUMP INVALID LOG2 PUSH5 0x6970667358 0x22 SLT KECCAK256 SHR DUP3 0xF8 0xE SUB 0x29 0x29 0xAE 0xFC DUP15 0xB6 ADDRESS BALANCE SLOAD 0x48 SUB 0xC8 EXTCODECOPY 0xB4 SWAP12 0xD4 DUP11 0xCB SMOD 0x4D 0xB1 PUSH6 0x945E2B9A8764 PUSH20 0x6F6C634300060000330000000000000000000000 "
				},
				"gasEstimates": {
					"creation": {
						"codeDepositCost": "390400",
						"executionCost": "5430",
						"totalCost": "395830"
					},
					"external": {
						"comprobar_causa(string)": "infinite",
						"crearCausa(string,uint256)": "infinite",
						"donar(string,uint256)": "infinite"
					},
					"internal": {
						"ObjetivoCumplido(string memory,uint256)": "infinite"
					}
				},
				"methodIdentifiers": {
					"comprobar_causa(string)": "1a2c9b6a",
					"crearCausa(string,uint256)": "9dbc7609",
					"donar(string,uint256)": "45cd81b3"
				}
			},
			"storageLayout": {
				"storage": [
					{
						"astId": 14,
						"contract": "Funciones/ong.sol:CausasBeneficas",
						"label": "contador_causas",
						"offset": 0,
						"slot": "0",
						"type": "t_uint256"
					},
					{
						"astId": 18,
						"contract": "Funciones/ong.sol:CausasBeneficas",
						"label": "causas",
						"offset": 0,
						"slot": "1",
						"type": "t_mapping(t_string_memory,t_struct(Causa)11_storage)"
					}
				],
				"types": {
					"t_mapping(t_string_memory,t_struct(Causa)11_storage)": {
						"encoding": "mapping",
						"key": "t_string_memory",
						"label": "mapping(string => struct CausasBeneficas.Causa)",
						"numberOfBytes": "32",
						"value": "t_struct(Causa)11_storage"
					},
					"t_string_memory": {
						"encoding": "bytes",
						"label": "string",
						"numberOfBytes": "32"
					},
					"t_string_storage": {
						"encoding": "bytes",
						"label": "string",
						"numberOfBytes": "32"
					},
					"t_struct(Causa)11_storage": {
						"encoding": "inplace",
						"label": "struct CausasBeneficas.Causa",
						"members": [
							{
								"astId": 4,
								"contract": "Funciones/ong.sol:CausasBeneficas",
								"label": "id",
								"offset": 0,
								"slot": "0",
								"type": "t_uint256"
							},
							{
								"astId": 6,
								"contract": "Funciones/ong.sol:CausasBeneficas",
								"label": "nombre",
								"offset": 0,
								"slot": "1",
								"type": "t_string_storage"
							},
							{
								"astId": 8,
								"contract": "Funciones/ong.sol:CausasBeneficas",
								"label": "precio_objetivo",
								"offset": 0,
								"slot": "2",
								"type": "t_uint256"
							},
							{
								"astId": 10,
								"contract": "Funciones/ong.sol:CausasBeneficas",
								"label": "cantidad_recaudada",
								"offset": 0,
								"slot": "3",
								"type": "t_uint256"
							}
						],
						"numberOfBytes": "128"
					},
					"t_uint256": {
						"encoding": "inplace",
						"label": "uint256",
						"numberOfBytes": "32"
					}
				}
			},
			"userdoc": {
				"methods": {}
			}
		}
	}
}