{
	"Funciones/ong.sol": {
		"causas_beneficas": {
			"abi": [
				{
					"inputs": [
						{
							"internalType": "string",
							"name": "_nombre",
							"type": "string"
						},
						{
							"internalType": "uint256",
							"name": "_precio_objetivo",
							"type": "uint256"
						}
					],
					"name": "crearCausa",
					"outputs": [],
					"stateMutability": "payable",
					"type": "function"
				}
			],
			"devdoc": {
				"methods": {}
			},
			"evm": {
				"assembly": "    /* \"Funciones/ong.sol\":62:348  contract causas_beneficas{\r... */\n  mstore(0x40, 0x80)\n    /* \"Funciones/ong.sol\":252:253  0 */\n  0x00\n    /* \"Funciones/ong.sol\":229:253  uint contador_causas = 0 */\n  dup1\n  sstore\n    /* \"Funciones/ong.sol\":62:348  contract causas_beneficas{\r... */\n  callvalue\n    /* \"--CODEGEN--\":8:17   */\n  dup1\n    /* \"--CODEGEN--\":5:7   */\n  iszero\n  tag_1\n  jumpi\n    /* \"--CODEGEN--\":30:31   */\n  0x00\n    /* \"--CODEGEN--\":27:28   */\n  dup1\n    /* \"--CODEGEN--\":20:32   */\n  revert\n    /* \"--CODEGEN--\":5:7   */\ntag_1:\n    /* \"Funciones/ong.sol\":62:348  contract causas_beneficas{\r... */\n  pop\n  dataSize(sub_0)\n  dup1\n  dataOffset(sub_0)\n  0x00\n  codecopy\n  0x00\n  return\nstop\n\nsub_0: assembly {\n        /* \"Funciones/ong.sol\":62:348  contract causas_beneficas{\r... */\n      mstore(0x40, 0x80)\n      jumpi(tag_1, lt(calldatasize, 0x04))\n      shr(0xe0, calldataload(0x00))\n      dup1\n      0x9dbc7609\n      eq\n      tag_2\n      jumpi\n    tag_1:\n      0x00\n      dup1\n      revert\n        /* \"Funciones/ong.sol\":262:345  function crearCausa(string memory _nombre, uint _precio_objetivo) public payable {} */\n    tag_2:\n      tag_3\n      0x04\n      dup1\n      calldatasize\n      sub\n      tag_4\n      swap2\n      swap1\n      dup2\n      add\n      swap1\n      jump(tag_5)\n    tag_4:\n      tag_6\n      jump\t// in\n    tag_3:\n      stop\n    tag_6:\n      pop\n      pop\n      jump\t// out\n        /* \"--CODEGEN--\":6:448   */\n    tag_9:\n      0x00\n        /* \"--CODEGEN--\":108:111   */\n      dup3\n        /* \"--CODEGEN--\":101:105   */\n      0x1f\n        /* \"--CODEGEN--\":93:99   */\n      dup4\n        /* \"--CODEGEN--\":89:106   */\n      add\n        /* \"--CODEGEN--\":85:112   */\n      slt\n        /* \"--CODEGEN--\":75:77   */\n      tag_11\n      jumpi\n        /* \"--CODEGEN--\":126:127   */\n      0x00\n        /* \"--CODEGEN--\":123:124   */\n      dup1\n        /* \"--CODEGEN--\":116:128   */\n      revert\n        /* \"--CODEGEN--\":75:77   */\n    tag_11:\n        /* \"--CODEGEN--\":163:169   */\n      dup2\n        /* \"--CODEGEN--\":150:170   */\n      calldataload\n        /* \"--CODEGEN--\":185:250   */\n      tag_12\n        /* \"--CODEGEN--\":200:249   */\n      tag_13\n        /* \"--CODEGEN--\":242:248   */\n      dup3\n        /* \"--CODEGEN--\":200:249   */\n      jump(tag_14)\n    tag_13:\n        /* \"--CODEGEN--\":185:250   */\n      jump(tag_15)\n    tag_12:\n        /* \"--CODEGEN--\":176:250   */\n      swap2\n      pop\n        /* \"--CODEGEN--\":270:276   */\n      dup1\n        /* \"--CODEGEN--\":263:268   */\n      dup3\n        /* \"--CODEGEN--\":256:277   */\n      mstore\n        /* \"--CODEGEN--\":306:310   */\n      0x20\n        /* \"--CODEGEN--\":298:304   */\n      dup4\n        /* \"--CODEGEN--\":294:311   */\n      add\n        /* \"--CODEGEN--\":339:343   */\n      0x20\n        /* \"--CODEGEN--\":332:337   */\n      dup4\n        /* \"--CODEGEN--\":328:344   */\n      add\n        /* \"--CODEGEN--\":374:377   */\n      dup6\n        /* \"--CODEGEN--\":365:371   */\n      dup4\n        /* \"--CODEGEN--\":360:363   */\n      dup4\n        /* \"--CODEGEN--\":356:372   */\n      add\n        /* \"--CODEGEN--\":353:378   */\n      gt\n        /* \"--CODEGEN--\":350:352   */\n      iszero\n      tag_16\n      jumpi\n        /* \"--CODEGEN--\":391:392   */\n      0x00\n        /* \"--CODEGEN--\":388:389   */\n      dup1\n        /* \"--CODEGEN--\":381:393   */\n      revert\n        /* \"--CODEGEN--\":350:352   */\n    tag_16:\n        /* \"--CODEGEN--\":401:442   */\n      tag_17\n        /* \"--CODEGEN--\":435:441   */\n      dup4\n        /* \"--CODEGEN--\":430:433   */\n      dup3\n        /* \"--CODEGEN--\":425:428   */\n      dup5\n        /* \"--CODEGEN--\":401:442   */\n      jump(tag_18)\n    tag_17:\n        /* \"--CODEGEN--\":68:448   */\n      pop\n      pop\n      pop\n      swap3\n      swap2\n      pop\n      pop\n      jump\n        /* \"--CODEGEN--\":456:586   */\n    tag_19:\n      0x00\n        /* \"--CODEGEN--\":536:542   */\n      dup2\n        /* \"--CODEGEN--\":523:543   */\n      calldataload\n        /* \"--CODEGEN--\":514:543   */\n      swap1\n      pop\n        /* \"--CODEGEN--\":548:581   */\n      tag_21\n        /* \"--CODEGEN--\":575:580   */\n      dup2\n        /* \"--CODEGEN--\":548:581   */\n      jump(tag_22)\n    tag_21:\n        /* \"--CODEGEN--\":508:586   */\n      swap3\n      swap2\n      pop\n      pop\n      jump\n        /* \"--CODEGEN--\":593:1065   */\n    tag_5:\n      0x00\n      dup1\n        /* \"--CODEGEN--\":724:726   */\n      0x40\n        /* \"--CODEGEN--\":712:721   */\n      dup4\n        /* \"--CODEGEN--\":703:710   */\n      dup6\n        /* \"--CODEGEN--\":699:722   */\n      sub\n        /* \"--CODEGEN--\":695:727   */\n      slt\n        /* \"--CODEGEN--\":692:694   */\n      iszero\n      tag_24\n      jumpi\n        /* \"--CODEGEN--\":740:741   */\n      0x00\n        /* \"--CODEGEN--\":737:738   */\n      dup1\n        /* \"--CODEGEN--\":730:742   */\n      revert\n        /* \"--CODEGEN--\":692:694   */\n    tag_24:\n        /* \"--CODEGEN--\":803:804   */\n      0x00\n        /* \"--CODEGEN--\":792:801   */\n      dup4\n        /* \"--CODEGEN--\":788:805   */\n      add\n        /* \"--CODEGEN--\":775:806   */\n      calldataload\n        /* \"--CODEGEN--\":826:844   */\n      0xffffffffffffffff\n        /* \"--CODEGEN--\":818:824   */\n      dup2\n        /* \"--CODEGEN--\":815:845   */\n      gt\n        /* \"--CODEGEN--\":812:814   */\n      iszero\n      tag_25\n      jumpi\n        /* \"--CODEGEN--\":858:859   */\n      0x00\n        /* \"--CODEGEN--\":855:856   */\n      dup1\n        /* \"--CODEGEN--\":848:860   */\n      revert\n        /* \"--CODEGEN--\":812:814   */\n    tag_25:\n        /* \"--CODEGEN--\":878:941   */\n      tag_26\n        /* \"--CODEGEN--\":933:940   */\n      dup6\n        /* \"--CODEGEN--\":924:930   */\n      dup3\n        /* \"--CODEGEN--\":913:922   */\n      dup7\n        /* \"--CODEGEN--\":909:931   */\n      add\n        /* \"--CODEGEN--\":878:941   */\n      jump(tag_9)\n    tag_26:\n        /* \"--CODEGEN--\":868:941   */\n      swap3\n      pop\n        /* \"--CODEGEN--\":754:947   */\n      pop\n        /* \"--CODEGEN--\":978:980   */\n      0x20\n        /* \"--CODEGEN--\":996:1049   */\n      tag_27\n        /* \"--CODEGEN--\":1041:1048   */\n      dup6\n        /* \"--CODEGEN--\":1032:1038   */\n      dup3\n        /* \"--CODEGEN--\":1021:1030   */\n      dup7\n        /* \"--CODEGEN--\":1017:1039   */\n      add\n        /* \"--CODEGEN--\":996:1049   */\n      jump(tag_19)\n    tag_27:\n        /* \"--CODEGEN--\":986:1049   */\n      swap2\n      pop\n        /* \"--CODEGEN--\":957:1055   */\n      pop\n        /* \"--CODEGEN--\":686:1065   */\n      swap3\n      pop\n      swap3\n      swap1\n      pop\n      jump\n        /* \"--CODEGEN--\":1072:1328   */\n    tag_15:\n      0x00\n        /* \"--CODEGEN--\":1134:1136   */\n      0x40\n        /* \"--CODEGEN--\":1128:1137   */\n      mload\n        /* \"--CODEGEN--\":1118:1137   */\n      swap1\n      pop\n        /* \"--CODEGEN--\":1172:1176   */\n      dup2\n        /* \"--CODEGEN--\":1164:1170   */\n      dup2\n        /* \"--CODEGEN--\":1160:1177   */\n      add\n        /* \"--CODEGEN--\":1271:1277   */\n      dup2\n        /* \"--CODEGEN--\":1259:1269   */\n      dup2\n        /* \"--CODEGEN--\":1256:1278   */\n      lt\n        /* \"--CODEGEN--\":1235:1253   */\n      0xffffffffffffffff\n        /* \"--CODEGEN--\":1223:1233   */\n      dup3\n        /* \"--CODEGEN--\":1220:1254   */\n      gt\n        /* \"--CODEGEN--\":1217:1279   */\n      or\n        /* \"--CODEGEN--\":1214:1216   */\n      iszero\n      tag_29\n      jumpi\n        /* \"--CODEGEN--\":1292:1293   */\n      0x00\n        /* \"--CODEGEN--\":1289:1290   */\n      dup1\n        /* \"--CODEGEN--\":1282:1294   */\n      revert\n        /* \"--CODEGEN--\":1214:1216   */\n    tag_29:\n        /* \"--CODEGEN--\":1312:1322   */\n      dup1\n        /* \"--CODEGEN--\":1308:1310   */\n      0x40\n        /* \"--CODEGEN--\":1301:1323   */\n      mstore\n        /* \"--CODEGEN--\":1112:1328   */\n      pop\n      swap2\n      swap1\n      pop\n      jump\n        /* \"--CODEGEN--\":1335:1657   */\n    tag_14:\n      0x00\n        /* \"--CODEGEN--\":1479:1497   */\n      0xffffffffffffffff\n        /* \"--CODEGEN--\":1471:1477   */\n      dup3\n        /* \"--CODEGEN--\":1468:1498   */\n      gt\n        /* \"--CODEGEN--\":1465:1467   */\n      iszero\n      tag_31\n      jumpi\n        /* \"--CODEGEN--\":1511:1512   */\n      0x00\n        /* \"--CODEGEN--\":1508:1509   */\n      dup1\n        /* \"--CODEGEN--\":1501:1513   */\n      revert\n        /* \"--CODEGEN--\":1465:1467   */\n    tag_31:\n        /* \"--CODEGEN--\":1578:1582   */\n      0x1f\n        /* \"--CODEGEN--\":1574:1583   */\n      not\n        /* \"--CODEGEN--\":1567:1571   */\n      0x1f\n        /* \"--CODEGEN--\":1559:1565   */\n      dup4\n        /* \"--CODEGEN--\":1555:1572   */\n      add\n        /* \"--CODEGEN--\":1551:1584   */\n      and\n        /* \"--CODEGEN--\":1543:1584   */\n      swap1\n      pop\n        /* \"--CODEGEN--\":1642:1646   */\n      0x20\n        /* \"--CODEGEN--\":1636:1640   */\n      dup2\n        /* \"--CODEGEN--\":1632:1647   */\n      add\n        /* \"--CODEGEN--\":1624:1647   */\n      swap1\n      pop\n        /* \"--CODEGEN--\":1402:1657   */\n      swap2\n      swap1\n      pop\n      jump\n        /* \"--CODEGEN--\":1664:1736   */\n    tag_32:\n      0x00\n        /* \"--CODEGEN--\":1726:1731   */\n      dup2\n        /* \"--CODEGEN--\":1715:1731   */\n      swap1\n      pop\n        /* \"--CODEGEN--\":1709:1736   */\n      swap2\n      swap1\n      pop\n      jump\n        /* \"--CODEGEN--\":1744:1889   */\n    tag_18:\n        /* \"--CODEGEN--\":1825:1831   */\n      dup3\n        /* \"--CODEGEN--\":1820:1823   */\n      dup2\n        /* \"--CODEGEN--\":1815:1818   */\n      dup4\n        /* \"--CODEGEN--\":1802:1832   */\n      calldatacopy\n        /* \"--CODEGEN--\":1881:1882   */\n      0x00\n        /* \"--CODEGEN--\":1872:1878   */\n      dup4\n        /* \"--CODEGEN--\":1867:1870   */\n      dup4\n        /* \"--CODEGEN--\":1863:1879   */\n      add\n        /* \"--CODEGEN--\":1856:1883   */\n      mstore\n        /* \"--CODEGEN--\":1795:1889   */\n      pop\n      pop\n      pop\n      jump\n        /* \"--CODEGEN--\":1897:2014   */\n    tag_22:\n        /* \"--CODEGEN--\":1966:1990   */\n      tag_36\n        /* \"--CODEGEN--\":1984:1989   */\n      dup2\n        /* \"--CODEGEN--\":1966:1990   */\n      jump(tag_32)\n    tag_36:\n        /* \"--CODEGEN--\":1959:1964   */\n      dup2\n        /* \"--CODEGEN--\":1956:1991   */\n      eq\n        /* \"--CODEGEN--\":1946:1948   */\n      tag_37\n      jumpi\n        /* \"--CODEGEN--\":2005:2006   */\n      0x00\n        /* \"--CODEGEN--\":2002:2003   */\n      dup1\n        /* \"--CODEGEN--\":1995:2007   */\n      revert\n        /* \"--CODEGEN--\":1946:1948   */\n    tag_37:\n        /* \"--CODEGEN--\":1940:2014   */\n      pop\n      jump\n\n    auxdata: 0xa2646970667358221220ce754521c37b4fcd4758cdf6ae0a05d8cd4337c84506739f4355fb546711829d64736f6c63430006000033\n}\n",
				"bytecode": {
					"linkReferences": {},
					"object": "60806040526000805534801561001457600080fd5b506101bf806100246000396000f3fe60806040526004361061001e5760003560e01c80639dbc760914610023575b600080fd5b61003d600480360361003891908101906100ac565b61003f565b005b5050565b600082601f83011261005457600080fd5b81356100676100628261012d565b610100565b9150808252602083016020830185838301111561008357600080fd5b61008e838284610163565b50505092915050565b6000813590506100a681610172565b92915050565b600080604083850312156100bf57600080fd5b600083013567ffffffffffffffff8111156100d957600080fd5b6100e585828601610043565b92505060206100f685828601610097565b9150509250929050565b6000604051905081810181811067ffffffffffffffff8211171561012357600080fd5b8060405250919050565b600067ffffffffffffffff82111561014457600080fd5b601f19601f8301169050602081019050919050565b6000819050919050565b82818337600083830152505050565b61017b81610159565b811461018657600080fd5b5056fea2646970667358221220ce754521c37b4fcd4758cdf6ae0a05d8cd4337c84506739f4355fb546711829d64736f6c63430006000033",
					"opcodes": "PUSH1 0x80 PUSH1 0x40 MSTORE PUSH1 0x0 DUP1 SSTORE CALLVALUE DUP1 ISZERO PUSH2 0x14 JUMPI PUSH1 0x0 DUP1 REVERT JUMPDEST POP PUSH2 0x1BF DUP1 PUSH2 0x24 PUSH1 0x0 CODECOPY PUSH1 0x0 RETURN INVALID PUSH1 0x80 PUSH1 0x40 MSTORE PUSH1 0x4 CALLDATASIZE LT PUSH2 0x1E JUMPI PUSH1 0x0 CALLDATALOAD PUSH1 0xE0 SHR DUP1 PUSH4 0x9DBC7609 EQ PUSH2 0x23 JUMPI JUMPDEST PUSH1 0x0 DUP1 REVERT JUMPDEST PUSH2 0x3D PUSH1 0x4 DUP1 CALLDATASIZE SUB PUSH2 0x38 SWAP2 SWAP1 DUP2 ADD SWAP1 PUSH2 0xAC JUMP JUMPDEST PUSH2 0x3F JUMP JUMPDEST STOP JUMPDEST POP POP JUMP JUMPDEST PUSH1 0x0 DUP3 PUSH1 0x1F DUP4 ADD SLT PUSH2 0x54 JUMPI PUSH1 0x0 DUP1 REVERT JUMPDEST DUP2 CALLDATALOAD PUSH2 0x67 PUSH2 0x62 DUP3 PUSH2 0x12D JUMP JUMPDEST PUSH2 0x100 JUMP JUMPDEST SWAP2 POP DUP1 DUP3 MSTORE PUSH1 0x20 DUP4 ADD PUSH1 0x20 DUP4 ADD DUP6 DUP4 DUP4 ADD GT ISZERO PUSH2 0x83 JUMPI PUSH1 0x0 DUP1 REVERT JUMPDEST PUSH2 0x8E DUP4 DUP3 DUP5 PUSH2 0x163 JUMP JUMPDEST POP POP POP SWAP3 SWAP2 POP POP JUMP JUMPDEST PUSH1 0x0 DUP2 CALLDATALOAD SWAP1 POP PUSH2 0xA6 DUP2 PUSH2 0x172 JUMP JUMPDEST SWAP3 SWAP2 POP POP JUMP JUMPDEST PUSH1 0x0 DUP1 PUSH1 0x40 DUP4 DUP6 SUB SLT ISZERO PUSH2 0xBF JUMPI PUSH1 0x0 DUP1 REVERT JUMPDEST PUSH1 0x0 DUP4 ADD CALLDATALOAD PUSH8 0xFFFFFFFFFFFFFFFF DUP2 GT ISZERO PUSH2 0xD9 JUMPI PUSH1 0x0 DUP1 REVERT JUMPDEST PUSH2 0xE5 DUP6 DUP3 DUP7 ADD PUSH2 0x43 JUMP JUMPDEST SWAP3 POP POP PUSH1 0x20 PUSH2 0xF6 DUP6 DUP3 DUP7 ADD PUSH2 0x97 JUMP JUMPDEST SWAP2 POP POP SWAP3 POP SWAP3 SWAP1 POP JUMP JUMPDEST PUSH1 0x0 PUSH1 0x40 MLOAD SWAP1 POP DUP2 DUP2 ADD DUP2 DUP2 LT PUSH8 0xFFFFFFFFFFFFFFFF DUP3 GT OR ISZERO PUSH2 0x123 JUMPI PUSH1 0x0 DUP1 REVERT JUMPDEST DUP1 PUSH1 0x40 MSTORE POP SWAP2 SWAP1 POP JUMP JUMPDEST PUSH1 0x0 PUSH8 0xFFFFFFFFFFFFFFFF DUP3 GT ISZERO PUSH2 0x144 JUMPI PUSH1 0x0 DUP1 REVERT JUMPDEST PUSH1 0x1F NOT PUSH1 0x1F DUP4 ADD AND SWAP1 POP PUSH1 0x20 DUP2 ADD SWAP1 POP SWAP2 SWAP1 POP JUMP JUMPDEST PUSH1 0x0 DUP2 SWAP1 POP SWAP2 SWAP1 POP JUMP JUMPDEST DUP3 DUP2 DUP4 CALLDATACOPY PUSH1 0x0 DUP4 DUP4 ADD MSTORE POP POP POP JUMP JUMPDEST PUSH2 0x17B DUP2 PUSH2 0x159 JUMP JUMPDEST DUP2 EQ PUSH2 0x186 JUMPI PUSH1 0x0 DUP1 REVERT JUMPDEST POP JUMP INVALID LOG2 PUSH5 0x6970667358 0x22 SLT KECCAK256 0xCE PUSH22 0x4521C37B4FCD4758CDF6AE0A05D8CD4337C84506739F NUMBER SSTORE 0xFB SLOAD PUSH8 0x11829D64736F6C63 NUMBER STOP MOD STOP STOP CALLER "
				},
				"gasEstimates": {
					"creation": {
						"codeDepositCost": "89400",
						"executionCost": "5141",
						"totalCost": "94541"
					},
					"external": {
						"crearCausa(string,uint256)": "infinite"
					}
				},
				"methodIdentifiers": {
					"crearCausa(string,uint256)": "9dbc7609"
				}
			},
			"storageLayout": {
				"storage": [
					{
						"astId": 14,
						"contract": "Funciones/ong.sol:causas_beneficas",
						"label": "contador_causas",
						"offset": 0,
						"slot": "0",
						"type": "t_uint256"
					}
				],
				"types": {
					"t_uint256": {
						"encoding": "inplace",
						"label": "uint256",
						"numberOfBytes": "32"
					}
				}
			},
			"userdoc": {
				"methods": {}
			}
		}
	}
}