{
	"Funciones/eventos.sol": {
		"Eventos": {
			"abi": [
				{
					"anonymous": false,
					"inputs": [
						{
							"indexed": false,
							"internalType": "string",
							"name": "_nombrePersona",
							"type": "string"
						}
					],
					"name": "eventito",
					"type": "event"
				},
				{
					"anonymous": false,
					"inputs": [
						{
							"indexed": false,
							"internalType": "string",
							"name": "_nombrePersona",
							"type": "string"
						}
					],
					"name": "eventito2",
					"type": "event"
				},
				{
					"inputs": [
						{
							"internalType": "string",
							"name": "_nombrePersona",
							"type": "string"
						}
					],
					"name": "EmitirEvento",
					"outputs": [],
					"stateMutability": "nonpayable",
					"type": "function"
				},
				{
					"inputs": [
						{
							"internalType": "string",
							"name": "_nombrePersona",
							"type": "string"
						},
						{
							"internalType": "uint256",
							"name": "e",
							"type": "uint256"
						}
					],
					"name": "EmitirEvento2",
					"outputs": [],
					"stateMutability": "nonpayable",
					"type": "function"
				}
			],
			"devdoc": {
				"methods": {}
			},
			"evm": {
				"assembly": "    /* \"Funciones/eventos.sol\":62:426  contract Eventos{\r... */\n  mstore(0x40, 0x80)\n  callvalue\n    /* \"--CODEGEN--\":8:17   */\n  dup1\n    /* \"--CODEGEN--\":5:7   */\n  iszero\n  tag_1\n  jumpi\n    /* \"--CODEGEN--\":30:31   */\n  0x00\n    /* \"--CODEGEN--\":27:28   */\n  dup1\n    /* \"--CODEGEN--\":20:32   */\n  revert\n    /* \"--CODEGEN--\":5:7   */\ntag_1:\n    /* \"Funciones/eventos.sol\":62:426  contract Eventos{\r... */\n  pop\n  dataSize(sub_0)\n  dup1\n  dataOffset(sub_0)\n  0x00\n  codecopy\n  0x00\n  return\nstop\n\nsub_0: assembly {\n        /* \"Funciones/eventos.sol\":62:426  contract Eventos{\r... */\n      mstore(0x40, 0x80)\n      callvalue\n        /* \"--CODEGEN--\":8:17   */\n      dup1\n        /* \"--CODEGEN--\":5:7   */\n      iszero\n      tag_1\n      jumpi\n        /* \"--CODEGEN--\":30:31   */\n      0x00\n        /* \"--CODEGEN--\":27:28   */\n      dup1\n        /* \"--CODEGEN--\":20:32   */\n      revert\n        /* \"--CODEGEN--\":5:7   */\n    tag_1:\n        /* \"Funciones/eventos.sol\":62:426  contract Eventos{\r... */\n      pop\n      jumpi(tag_2, lt(calldatasize, 0x04))\n      shr(0xe0, calldataload(0x00))\n      dup1\n      0xc355a3e5\n      eq\n      tag_3\n      jumpi\n      dup1\n      0xda7fc1f1\n      eq\n      tag_4\n      jumpi\n    tag_2:\n      0x00\n      dup1\n      revert\n        /* \"Funciones/eventos.sol\":301:417  function EmitirEvento2(string memory _nombrePersona, uint e) public {\r... */\n    tag_3:\n      tag_5\n      0x04\n      dup1\n      calldatasize\n      sub\n      tag_6\n      swap2\n      swap1\n      dup2\n      add\n      swap1\n      jump(tag_7)\n    tag_6:\n      tag_8\n      jump\t// in\n    tag_5:\n      stop\n        /* \"Funciones/eventos.sol\":186:293  function EmitirEvento(string memory _nombrePersona) public {\r... */\n    tag_4:\n      tag_9\n      0x04\n      dup1\n      calldatasize\n      sub\n      tag_10\n      swap2\n      swap1\n      dup2\n      add\n      swap1\n      jump(tag_11)\n    tag_10:\n      tag_12\n      jump\t// in\n    tag_9:\n      stop\n        /* \"Funciones/eventos.sol\":301:417  function EmitirEvento2(string memory _nombrePersona, uint e) public {\r... */\n    tag_8:\n        /* \"Funciones/eventos.sol\":385:409  eventito(_nombrePersona) */\n      0x6391dcd39ec1eccb6cae5c104bbe0df2c4159afd331b17a0d0223024df9de608\n        /* \"Funciones/eventos.sol\":394:408  _nombrePersona */\n      dup3\n        /* \"Funciones/eventos.sol\":385:409  eventito(_nombrePersona) */\n      mload(0x40)\n      tag_14\n      swap2\n      swap1\n      jump(tag_15)\n    tag_14:\n      mload(0x40)\n      dup1\n      swap2\n      sub\n      swap1\n      log1\n        /* \"Funciones/eventos.sol\":301:417  function EmitirEvento2(string memory _nombrePersona, uint e) public {\r... */\n      pop\n      pop\n      jump\t// out\n        /* \"Funciones/eventos.sol\":186:293  function EmitirEvento(string memory _nombrePersona) public {\r... */\n    tag_12:\n        /* \"Funciones/eventos.sol\":261:285  eventito(_nombrePersona) */\n      0x6391dcd39ec1eccb6cae5c104bbe0df2c4159afd331b17a0d0223024df9de608\n        /* \"Funciones/eventos.sol\":270:284  _nombrePersona */\n      dup2\n        /* \"Funciones/eventos.sol\":261:285  eventito(_nombrePersona) */\n      mload(0x40)\n      tag_17\n      swap2\n      swap1\n      jump(tag_15)\n    tag_17:\n      mload(0x40)\n      dup1\n      swap2\n      sub\n      swap1\n      log1\n        /* \"Funciones/eventos.sol\":186:293  function EmitirEvento(string memory _nombrePersona) public {\r... */\n      pop\n      jump\t// out\n        /* \"--CODEGEN--\":6:448   */\n    tag_19:\n      0x00\n        /* \"--CODEGEN--\":108:111   */\n      dup3\n        /* \"--CODEGEN--\":101:105   */\n      0x1f\n        /* \"--CODEGEN--\":93:99   */\n      dup4\n        /* \"--CODEGEN--\":89:106   */\n      add\n        /* \"--CODEGEN--\":85:112   */\n      slt\n        /* \"--CODEGEN--\":75:77   */\n      tag_21\n      jumpi\n        /* \"--CODEGEN--\":126:127   */\n      0x00\n        /* \"--CODEGEN--\":123:124   */\n      dup1\n        /* \"--CODEGEN--\":116:128   */\n      revert\n        /* \"--CODEGEN--\":75:77   */\n    tag_21:\n        /* \"--CODEGEN--\":163:169   */\n      dup2\n        /* \"--CODEGEN--\":150:170   */\n      calldataload\n        /* \"--CODEGEN--\":185:250   */\n      tag_22\n        /* \"--CODEGEN--\":200:249   */\n      tag_23\n        /* \"--CODEGEN--\":242:248   */\n      dup3\n        /* \"--CODEGEN--\":200:249   */\n      jump(tag_24)\n    tag_23:\n        /* \"--CODEGEN--\":185:250   */\n      jump(tag_25)\n    tag_22:\n        /* \"--CODEGEN--\":176:250   */\n      swap2\n      pop\n        /* \"--CODEGEN--\":270:276   */\n      dup1\n        /* \"--CODEGEN--\":263:268   */\n      dup3\n        /* \"--CODEGEN--\":256:277   */\n      mstore\n        /* \"--CODEGEN--\":306:310   */\n      0x20\n        /* \"--CODEGEN--\":298:304   */\n      dup4\n        /* \"--CODEGEN--\":294:311   */\n      add\n        /* \"--CODEGEN--\":339:343   */\n      0x20\n        /* \"--CODEGEN--\":332:337   */\n      dup4\n        /* \"--CODEGEN--\":328:344   */\n      add\n        /* \"--CODEGEN--\":374:377   */\n      dup6\n        /* \"--CODEGEN--\":365:371   */\n      dup4\n        /* \"--CODEGEN--\":360:363   */\n      dup4\n        /* \"--CODEGEN--\":356:372   */\n      add\n        /* \"--CODEGEN--\":353:378   */\n      gt\n        /* \"--CODEGEN--\":350:352   */\n      iszero\n      tag_26\n      jumpi\n        /* \"--CODEGEN--\":391:392   */\n      0x00\n        /* \"--CODEGEN--\":388:389   */\n      dup1\n        /* \"--CODEGEN--\":381:393   */\n      revert\n        /* \"--CODEGEN--\":350:352   */\n    tag_26:\n        /* \"--CODEGEN--\":401:442   */\n      tag_27\n        /* \"--CODEGEN--\":435:441   */\n      dup4\n        /* \"--CODEGEN--\":430:433   */\n      dup3\n        /* \"--CODEGEN--\":425:428   */\n      dup5\n        /* \"--CODEGEN--\":401:442   */\n      jump(tag_28)\n    tag_27:\n        /* \"--CODEGEN--\":68:448   */\n      pop\n      pop\n      pop\n      swap3\n      swap2\n      pop\n      pop\n      jump\n        /* \"--CODEGEN--\":456:586   */\n    tag_29:\n      0x00\n        /* \"--CODEGEN--\":536:542   */\n      dup2\n        /* \"--CODEGEN--\":523:543   */\n      calldataload\n        /* \"--CODEGEN--\":514:543   */\n      swap1\n      pop\n        /* \"--CODEGEN--\":548:581   */\n      tag_31\n        /* \"--CODEGEN--\":575:580   */\n      dup2\n        /* \"--CODEGEN--\":548:581   */\n      jump(tag_32)\n    tag_31:\n        /* \"--CODEGEN--\":508:586   */\n      swap3\n      swap2\n      pop\n      pop\n      jump\n        /* \"--CODEGEN--\":593:940   */\n    tag_11:\n      0x00\n        /* \"--CODEGEN--\":707:709   */\n      0x20\n        /* \"--CODEGEN--\":695:704   */\n      dup3\n        /* \"--CODEGEN--\":686:693   */\n      dup5\n        /* \"--CODEGEN--\":682:705   */\n      sub\n        /* \"--CODEGEN--\":678:710   */\n      slt\n        /* \"--CODEGEN--\":675:677   */\n      iszero\n      tag_34\n      jumpi\n        /* \"--CODEGEN--\":723:724   */\n      0x00\n        /* \"--CODEGEN--\":720:721   */\n      dup1\n        /* \"--CODEGEN--\":713:725   */\n      revert\n        /* \"--CODEGEN--\":675:677   */\n    tag_34:\n        /* \"--CODEGEN--\":786:787   */\n      0x00\n        /* \"--CODEGEN--\":775:784   */\n      dup3\n        /* \"--CODEGEN--\":771:788   */\n      add\n        /* \"--CODEGEN--\":758:789   */\n      calldataload\n        /* \"--CODEGEN--\":809:827   */\n      0xffffffffffffffff\n        /* \"--CODEGEN--\":801:807   */\n      dup2\n        /* \"--CODEGEN--\":798:828   */\n      gt\n        /* \"--CODEGEN--\":795:797   */\n      iszero\n      tag_35\n      jumpi\n        /* \"--CODEGEN--\":841:842   */\n      0x00\n        /* \"--CODEGEN--\":838:839   */\n      dup1\n        /* \"--CODEGEN--\":831:843   */\n      revert\n        /* \"--CODEGEN--\":795:797   */\n    tag_35:\n        /* \"--CODEGEN--\":861:924   */\n      tag_36\n        /* \"--CODEGEN--\":916:923   */\n      dup5\n        /* \"--CODEGEN--\":907:913   */\n      dup3\n        /* \"--CODEGEN--\":896:905   */\n      dup6\n        /* \"--CODEGEN--\":892:914   */\n      add\n        /* \"--CODEGEN--\":861:924   */\n      jump(tag_19)\n    tag_36:\n        /* \"--CODEGEN--\":851:924   */\n      swap2\n      pop\n        /* \"--CODEGEN--\":737:930   */\n      pop\n        /* \"--CODEGEN--\":669:940   */\n      swap3\n      swap2\n      pop\n      pop\n      jump\n        /* \"--CODEGEN--\":947:1419   */\n    tag_7:\n      0x00\n      dup1\n        /* \"--CODEGEN--\":1078:1080   */\n      0x40\n        /* \"--CODEGEN--\":1066:1075   */\n      dup4\n        /* \"--CODEGEN--\":1057:1064   */\n      dup6\n        /* \"--CODEGEN--\":1053:1076   */\n      sub\n        /* \"--CODEGEN--\":1049:1081   */\n      slt\n        /* \"--CODEGEN--\":1046:1048   */\n      iszero\n      tag_38\n      jumpi\n        /* \"--CODEGEN--\":1094:1095   */\n      0x00\n        /* \"--CODEGEN--\":1091:1092   */\n      dup1\n        /* \"--CODEGEN--\":1084:1096   */\n      revert\n        /* \"--CODEGEN--\":1046:1048   */\n    tag_38:\n        /* \"--CODEGEN--\":1157:1158   */\n      0x00\n        /* \"--CODEGEN--\":1146:1155   */\n      dup4\n        /* \"--CODEGEN--\":1142:1159   */\n      add\n        /* \"--CODEGEN--\":1129:1160   */\n      calldataload\n        /* \"--CODEGEN--\":1180:1198   */\n      0xffffffffffffffff\n        /* \"--CODEGEN--\":1172:1178   */\n      dup2\n        /* \"--CODEGEN--\":1169:1199   */\n      gt\n        /* \"--CODEGEN--\":1166:1168   */\n      iszero\n      tag_39\n      jumpi\n        /* \"--CODEGEN--\":1212:1213   */\n      0x00\n        /* \"--CODEGEN--\":1209:1210   */\n      dup1\n        /* \"--CODEGEN--\":1202:1214   */\n      revert\n        /* \"--CODEGEN--\":1166:1168   */\n    tag_39:\n        /* \"--CODEGEN--\":1232:1295   */\n      tag_40\n        /* \"--CODEGEN--\":1287:1294   */\n      dup6\n        /* \"--CODEGEN--\":1278:1284   */\n      dup3\n        /* \"--CODEGEN--\":1267:1276   */\n      dup7\n        /* \"--CODEGEN--\":1263:1285   */\n      add\n        /* \"--CODEGEN--\":1232:1295   */\n      jump(tag_19)\n    tag_40:\n        /* \"--CODEGEN--\":1222:1295   */\n      swap3\n      pop\n        /* \"--CODEGEN--\":1108:1301   */\n      pop\n        /* \"--CODEGEN--\":1332:1334   */\n      0x20\n        /* \"--CODEGEN--\":1350:1403   */\n      tag_41\n        /* \"--CODEGEN--\":1395:1402   */\n      dup6\n        /* \"--CODEGEN--\":1386:1392   */\n      dup3\n        /* \"--CODEGEN--\":1375:1384   */\n      dup7\n        /* \"--CODEGEN--\":1371:1393   */\n      add\n        /* \"--CODEGEN--\":1350:1403   */\n      jump(tag_29)\n    tag_41:\n        /* \"--CODEGEN--\":1340:1403   */\n      swap2\n      pop\n        /* \"--CODEGEN--\":1311:1409   */\n      pop\n        /* \"--CODEGEN--\":1040:1419   */\n      swap3\n      pop\n      swap3\n      swap1\n      pop\n      jump\n        /* \"--CODEGEN--\":1426:1773   */\n    tag_42:\n      0x00\n        /* \"--CODEGEN--\":1538:1577   */\n      tag_44\n        /* \"--CODEGEN--\":1571:1576   */\n      dup3\n        /* \"--CODEGEN--\":1538:1577   */\n      jump(tag_45)\n    tag_44:\n        /* \"--CODEGEN--\":1589:1660   */\n      tag_46\n        /* \"--CODEGEN--\":1653:1659   */\n      dup2\n        /* \"--CODEGEN--\":1648:1651   */\n      dup6\n        /* \"--CODEGEN--\":1589:1660   */\n      jump(tag_47)\n    tag_46:\n        /* \"--CODEGEN--\":1582:1660   */\n      swap4\n      pop\n        /* \"--CODEGEN--\":1665:1717   */\n      tag_48\n        /* \"--CODEGEN--\":1710:1716   */\n      dup2\n        /* \"--CODEGEN--\":1705:1708   */\n      dup6\n        /* \"--CODEGEN--\":1698:1702   */\n      0x20\n        /* \"--CODEGEN--\":1691:1696   */\n      dup7\n        /* \"--CODEGEN--\":1687:1703   */\n      add\n        /* \"--CODEGEN--\":1665:1717   */\n      jump(tag_49)\n    tag_48:\n        /* \"--CODEGEN--\":1738:1767   */\n      tag_50\n        /* \"--CODEGEN--\":1760:1766   */\n      dup2\n        /* \"--CODEGEN--\":1738:1767   */\n      jump(tag_51)\n    tag_50:\n        /* \"--CODEGEN--\":1733:1736   */\n      dup5\n        /* \"--CODEGEN--\":1729:1768   */\n      add\n        /* \"--CODEGEN--\":1722:1768   */\n      swap2\n      pop\n        /* \"--CODEGEN--\":1518:1773   */\n      pop\n      swap3\n      swap2\n      pop\n      pop\n      jump\n        /* \"--CODEGEN--\":1780:2081   */\n    tag_15:\n      0x00\n        /* \"--CODEGEN--\":1918:1920   */\n      0x20\n        /* \"--CODEGEN--\":1907:1916   */\n      dup3\n        /* \"--CODEGEN--\":1903:1921   */\n      add\n        /* \"--CODEGEN--\":1895:1921   */\n      swap1\n      pop\n        /* \"--CODEGEN--\":1968:1977   */\n      dup2\n        /* \"--CODEGEN--\":1962:1966   */\n      dup2\n        /* \"--CODEGEN--\":1958:1978   */\n      sub\n        /* \"--CODEGEN--\":1954:1955   */\n      0x00\n        /* \"--CODEGEN--\":1943:1952   */\n      dup4\n        /* \"--CODEGEN--\":1939:1956   */\n      add\n        /* \"--CODEGEN--\":1932:1979   */\n      mstore\n        /* \"--CODEGEN--\":1993:2071   */\n      tag_53\n        /* \"--CODEGEN--\":2066:2070   */\n      dup2\n        /* \"--CODEGEN--\":2057:2063   */\n      dup5\n        /* \"--CODEGEN--\":1993:2071   */\n      jump(tag_42)\n    tag_53:\n        /* \"--CODEGEN--\":1985:2071   */\n      swap1\n      pop\n        /* \"--CODEGEN--\":1889:2081   */\n      swap3\n      swap2\n      pop\n      pop\n      jump\n        /* \"--CODEGEN--\":2088:2344   */\n    tag_25:\n      0x00\n        /* \"--CODEGEN--\":2150:2152   */\n      0x40\n        /* \"--CODEGEN--\":2144:2153   */\n      mload\n        /* \"--CODEGEN--\":2134:2153   */\n      swap1\n      pop\n        /* \"--CODEGEN--\":2188:2192   */\n      dup2\n        /* \"--CODEGEN--\":2180:2186   */\n      dup2\n        /* \"--CODEGEN--\":2176:2193   */\n      add\n        /* \"--CODEGEN--\":2287:2293   */\n      dup2\n        /* \"--CODEGEN--\":2275:2285   */\n      dup2\n        /* \"--CODEGEN--\":2272:2294   */\n      lt\n        /* \"--CODEGEN--\":2251:2269   */\n      0xffffffffffffffff\n        /* \"--CODEGEN--\":2239:2249   */\n      dup3\n        /* \"--CODEGEN--\":2236:2270   */\n      gt\n        /* \"--CODEGEN--\":2233:2295   */\n      or\n        /* \"--CODEGEN--\":2230:2232   */\n      iszero\n      tag_55\n      jumpi\n        /* \"--CODEGEN--\":2308:2309   */\n      0x00\n        /* \"--CODEGEN--\":2305:2306   */\n      dup1\n        /* \"--CODEGEN--\":2298:2310   */\n      revert\n        /* \"--CODEGEN--\":2230:2232   */\n    tag_55:\n        /* \"--CODEGEN--\":2328:2338   */\n      dup1\n        /* \"--CODEGEN--\":2324:2326   */\n      0x40\n        /* \"--CODEGEN--\":2317:2339   */\n      mstore\n        /* \"--CODEGEN--\":2128:2344   */\n      pop\n      swap2\n      swap1\n      pop\n      jump\n        /* \"--CODEGEN--\":2351:2673   */\n    tag_24:\n      0x00\n        /* \"--CODEGEN--\":2495:2513   */\n      0xffffffffffffffff\n        /* \"--CODEGEN--\":2487:2493   */\n      dup3\n        /* \"--CODEGEN--\":2484:2514   */\n      gt\n        /* \"--CODEGEN--\":2481:2483   */\n      iszero\n      tag_57\n      jumpi\n        /* \"--CODEGEN--\":2527:2528   */\n      0x00\n        /* \"--CODEGEN--\":2524:2525   */\n      dup1\n        /* \"--CODEGEN--\":2517:2529   */\n      revert\n        /* \"--CODEGEN--\":2481:2483   */\n    tag_57:\n        /* \"--CODEGEN--\":2594:2598   */\n      0x1f\n        /* \"--CODEGEN--\":2590:2599   */\n      not\n        /* \"--CODEGEN--\":2583:2587   */\n      0x1f\n        /* \"--CODEGEN--\":2575:2581   */\n      dup4\n        /* \"--CODEGEN--\":2571:2588   */\n      add\n        /* \"--CODEGEN--\":2567:2600   */\n      and\n        /* \"--CODEGEN--\":2559:2600   */\n      swap1\n      pop\n        /* \"--CODEGEN--\":2658:2662   */\n      0x20\n        /* \"--CODEGEN--\":2652:2656   */\n      dup2\n        /* \"--CODEGEN--\":2648:2663   */\n      add\n        /* \"--CODEGEN--\":2640:2663   */\n      swap1\n      pop\n        /* \"--CODEGEN--\":2418:2673   */\n      swap2\n      swap1\n      pop\n      jump\n        /* \"--CODEGEN--\":2680:2802   */\n    tag_45:\n      0x00\n        /* \"--CODEGEN--\":2774:2779   */\n      dup2\n        /* \"--CODEGEN--\":2768:2780   */\n      mload\n        /* \"--CODEGEN--\":2758:2780   */\n      swap1\n      pop\n        /* \"--CODEGEN--\":2739:2802   */\n      swap2\n      swap1\n      pop\n      jump\n        /* \"--CODEGEN--\":2810:2973   */\n    tag_47:\n      0x00\n        /* \"--CODEGEN--\":2925:2931   */\n      dup3\n        /* \"--CODEGEN--\":2920:2923   */\n      dup3\n        /* \"--CODEGEN--\":2913:2932   */\n      mstore\n        /* \"--CODEGEN--\":2962:2966   */\n      0x20\n        /* \"--CODEGEN--\":2957:2960   */\n      dup3\n        /* \"--CODEGEN--\":2953:2967   */\n      add\n        /* \"--CODEGEN--\":2938:2967   */\n      swap1\n      pop\n        /* \"--CODEGEN--\":2906:2973   */\n      swap3\n      swap2\n      pop\n      pop\n      jump\n        /* \"--CODEGEN--\":2981:3053   */\n    tag_60:\n      0x00\n        /* \"--CODEGEN--\":3043:3048   */\n      dup2\n        /* \"--CODEGEN--\":3032:3048   */\n      swap1\n      pop\n        /* \"--CODEGEN--\":3026:3053   */\n      swap2\n      swap1\n      pop\n      jump\n        /* \"--CODEGEN--\":3061:3206   */\n    tag_28:\n        /* \"--CODEGEN--\":3142:3148   */\n      dup3\n        /* \"--CODEGEN--\":3137:3140   */\n      dup2\n        /* \"--CODEGEN--\":3132:3135   */\n      dup4\n        /* \"--CODEGEN--\":3119:3149   */\n      calldatacopy\n        /* \"--CODEGEN--\":3198:3199   */\n      0x00\n        /* \"--CODEGEN--\":3189:3195   */\n      dup4\n        /* \"--CODEGEN--\":3184:3187   */\n      dup4\n        /* \"--CODEGEN--\":3180:3196   */\n      add\n        /* \"--CODEGEN--\":3173:3200   */\n      mstore\n        /* \"--CODEGEN--\":3112:3206   */\n      pop\n      pop\n      pop\n      jump\n        /* \"--CODEGEN--\":3215:3483   */\n    tag_49:\n        /* \"--CODEGEN--\":3280:3281   */\n      0x00\n        /* \"--CODEGEN--\":3287:3388   */\n    tag_64:\n        /* \"--CODEGEN--\":3301:3307   */\n      dup4\n        /* \"--CODEGEN--\":3298:3299   */\n      dup2\n        /* \"--CODEGEN--\":3295:3308   */\n      lt\n        /* \"--CODEGEN--\":3287:3388   */\n      iszero\n      tag_66\n      jumpi\n        /* \"--CODEGEN--\":3377:3378   */\n      dup1\n        /* \"--CODEGEN--\":3372:3375   */\n      dup3\n        /* \"--CODEGEN--\":3368:3379   */\n      add\n        /* \"--CODEGEN--\":3362:3380   */\n      mload\n        /* \"--CODEGEN--\":3358:3359   */\n      dup2\n        /* \"--CODEGEN--\":3353:3356   */\n      dup5\n        /* \"--CODEGEN--\":3349:3360   */\n      add\n        /* \"--CODEGEN--\":3342:3381   */\n      mstore\n        /* \"--CODEGEN--\":3323:3325   */\n      0x20\n        /* \"--CODEGEN--\":3320:3321   */\n      dup2\n        /* \"--CODEGEN--\":3316:3326   */\n      add\n        /* \"--CODEGEN--\":3311:3326   */\n      swap1\n      pop\n        /* \"--CODEGEN--\":3287:3388   */\n      jump(tag_64)\n    tag_66:\n        /* \"--CODEGEN--\":3403:3409   */\n      dup4\n        /* \"--CODEGEN--\":3400:3401   */\n      dup2\n        /* \"--CODEGEN--\":3397:3410   */\n      gt\n        /* \"--CODEGEN--\":3394:3396   */\n      iszero\n      tag_67\n      jumpi\n        /* \"--CODEGEN--\":3468:3469   */\n      0x00\n        /* \"--CODEGEN--\":3459:3465   */\n      dup5\n        /* \"--CODEGEN--\":3454:3457   */\n      dup5\n        /* \"--CODEGEN--\":3450:3466   */\n      add\n        /* \"--CODEGEN--\":3443:3470   */\n      mstore\n        /* \"--CODEGEN--\":3394:3396   */\n    tag_67:\n        /* \"--CODEGEN--\":3264:3483   */\n      pop\n      pop\n      pop\n      pop\n      jump\n        /* \"--CODEGEN--\":3491:3588   */\n    tag_51:\n      0x00\n        /* \"--CODEGEN--\":3579:3581   */\n      0x1f\n        /* \"--CODEGEN--\":3575:3582   */\n      not\n        /* \"--CODEGEN--\":3570:3572   */\n      0x1f\n        /* \"--CODEGEN--\":3563:3568   */\n      dup4\n        /* \"--CODEGEN--\":3559:3573   */\n      add\n        /* \"--CODEGEN--\":3555:3583   */\n      and\n        /* \"--CODEGEN--\":3545:3583   */\n      swap1\n      pop\n        /* \"--CODEGEN--\":3539:3588   */\n      swap2\n      swap1\n      pop\n      jump\n        /* \"--CODEGEN--\":3596:3713   */\n    tag_32:\n        /* \"--CODEGEN--\":3665:3689   */\n      tag_70\n        /* \"--CODEGEN--\":3683:3688   */\n      dup2\n        /* \"--CODEGEN--\":3665:3689   */\n      jump(tag_60)\n    tag_70:\n        /* \"--CODEGEN--\":3658:3663   */\n      dup2\n        /* \"--CODEGEN--\":3655:3690   */\n      eq\n        /* \"--CODEGEN--\":3645:3647   */\n      tag_71\n      jumpi\n        /* \"--CODEGEN--\":3704:3705   */\n      0x00\n        /* \"--CODEGEN--\":3701:3702   */\n      dup1\n        /* \"--CODEGEN--\":3694:3706   */\n      revert\n        /* \"--CODEGEN--\":3645:3647   */\n    tag_71:\n        /* \"--CODEGEN--\":3639:3713   */\n      pop\n      jump\n\n    auxdata: 0xa2646970667358221220b03e96a9e93ac29ba00691593be9f596ab221e49a387749ec1d8827ec318cfc264736f6c63430006000033\n}\n",
				"bytecode": {
					"linkReferences": {},
					"object": "608060405234801561001057600080fd5b50610360806100206000396000f3fe608060405234801561001057600080fd5b50600436106100365760003560e01c8063c355a3e51461003b578063da7fc1f114610057575b600080fd5b61005560048036036100509190810190610192565b610073565b005b610071600480360361006c9190810190610151565b6100ae565b005b7f6391dcd39ec1eccb6cae5c104bbe0df2c4159afd331b17a0d0223024df9de608826040516100a2919061021f565b60405180910390a15050565b7f6391dcd39ec1eccb6cae5c104bbe0df2c4159afd331b17a0d0223024df9de608816040516100dd919061021f565b60405180910390a150565b600082601f8301126100f957600080fd5b813561010c6101078261026e565b610241565b9150808252602083016020830185838301111561012857600080fd5b6101338382846102c0565b50505092915050565b60008135905061014b81610313565b92915050565b60006020828403121561016357600080fd5b600082013567ffffffffffffffff81111561017d57600080fd5b610189848285016100e8565b91505092915050565b600080604083850312156101a557600080fd5b600083013567ffffffffffffffff8111156101bf57600080fd5b6101cb858286016100e8565b92505060206101dc8582860161013c565b9150509250929050565b60006101f18261029a565b6101fb81856102a5565b935061020b8185602086016102cf565b61021481610302565b840191505092915050565b6000602082019050818103600083015261023981846101e6565b905092915050565b6000604051905081810181811067ffffffffffffffff8211171561026457600080fd5b8060405250919050565b600067ffffffffffffffff82111561028557600080fd5b601f19601f8301169050602081019050919050565b600081519050919050565b600082825260208201905092915050565b6000819050919050565b82818337600083830152505050565b60005b838110156102ed5780820151818401526020810190506102d2565b838111156102fc576000848401525b50505050565b6000601f19601f8301169050919050565b61031c816102b6565b811461032757600080fd5b5056fea2646970667358221220b03e96a9e93ac29ba00691593be9f596ab221e49a387749ec1d8827ec318cfc264736f6c63430006000033",
					"opcodes": "PUSH1 0x80 PUSH1 0x40 MSTORE CALLVALUE DUP1 ISZERO PUSH2 0x10 JUMPI PUSH1 0x0 DUP1 REVERT JUMPDEST POP PUSH2 0x360 DUP1 PUSH2 0x20 PUSH1 0x0 CODECOPY PUSH1 0x0 RETURN INVALID PUSH1 0x80 PUSH1 0x40 MSTORE CALLVALUE DUP1 ISZERO PUSH2 0x10 JUMPI PUSH1 0x0 DUP1 REVERT JUMPDEST POP PUSH1 0x4 CALLDATASIZE LT PUSH2 0x36 JUMPI PUSH1 0x0 CALLDATALOAD PUSH1 0xE0 SHR DUP1 PUSH4 0xC355A3E5 EQ PUSH2 0x3B JUMPI DUP1 PUSH4 0xDA7FC1F1 EQ PUSH2 0x57 JUMPI JUMPDEST PUSH1 0x0 DUP1 REVERT JUMPDEST PUSH2 0x55 PUSH1 0x4 DUP1 CALLDATASIZE SUB PUSH2 0x50 SWAP2 SWAP1 DUP2 ADD SWAP1 PUSH2 0x192 JUMP JUMPDEST PUSH2 0x73 JUMP JUMPDEST STOP JUMPDEST PUSH2 0x71 PUSH1 0x4 DUP1 CALLDATASIZE SUB PUSH2 0x6C SWAP2 SWAP1 DUP2 ADD SWAP1 PUSH2 0x151 JUMP JUMPDEST PUSH2 0xAE JUMP JUMPDEST STOP JUMPDEST PUSH32 0x6391DCD39EC1ECCB6CAE5C104BBE0DF2C4159AFD331B17A0D0223024DF9DE608 DUP3 PUSH1 0x40 MLOAD PUSH2 0xA2 SWAP2 SWAP1 PUSH2 0x21F JUMP JUMPDEST PUSH1 0x40 MLOAD DUP1 SWAP2 SUB SWAP1 LOG1 POP POP JUMP JUMPDEST PUSH32 0x6391DCD39EC1ECCB6CAE5C104BBE0DF2C4159AFD331B17A0D0223024DF9DE608 DUP2 PUSH1 0x40 MLOAD PUSH2 0xDD SWAP2 SWAP1 PUSH2 0x21F JUMP JUMPDEST PUSH1 0x40 MLOAD DUP1 SWAP2 SUB SWAP1 LOG1 POP JUMP JUMPDEST PUSH1 0x0 DUP3 PUSH1 0x1F DUP4 ADD SLT PUSH2 0xF9 JUMPI PUSH1 0x0 DUP1 REVERT JUMPDEST DUP2 CALLDATALOAD PUSH2 0x10C PUSH2 0x107 DUP3 PUSH2 0x26E JUMP JUMPDEST PUSH2 0x241 JUMP JUMPDEST SWAP2 POP DUP1 DUP3 MSTORE PUSH1 0x20 DUP4 ADD PUSH1 0x20 DUP4 ADD DUP6 DUP4 DUP4 ADD GT ISZERO PUSH2 0x128 JUMPI PUSH1 0x0 DUP1 REVERT JUMPDEST PUSH2 0x133 DUP4 DUP3 DUP5 PUSH2 0x2C0 JUMP JUMPDEST POP POP POP SWAP3 SWAP2 POP POP JUMP JUMPDEST PUSH1 0x0 DUP2 CALLDATALOAD SWAP1 POP PUSH2 0x14B DUP2 PUSH2 0x313 JUMP JUMPDEST SWAP3 SWAP2 POP POP JUMP JUMPDEST PUSH1 0x0 PUSH1 0x20 DUP3 DUP5 SUB SLT ISZERO PUSH2 0x163 JUMPI PUSH1 0x0 DUP1 REVERT JUMPDEST PUSH1 0x0 DUP3 ADD CALLDATALOAD PUSH8 0xFFFFFFFFFFFFFFFF DUP2 GT ISZERO PUSH2 0x17D JUMPI PUSH1 0x0 DUP1 REVERT JUMPDEST PUSH2 0x189 DUP5 DUP3 DUP6 ADD PUSH2 0xE8 JUMP JUMPDEST SWAP2 POP POP SWAP3 SWAP2 POP POP JUMP JUMPDEST PUSH1 0x0 DUP1 PUSH1 0x40 DUP4 DUP6 SUB SLT ISZERO PUSH2 0x1A5 JUMPI PUSH1 0x0 DUP1 REVERT JUMPDEST PUSH1 0x0 DUP4 ADD CALLDATALOAD PUSH8 0xFFFFFFFFFFFFFFFF DUP2 GT ISZERO PUSH2 0x1BF JUMPI PUSH1 0x0 DUP1 REVERT JUMPDEST PUSH2 0x1CB DUP6 DUP3 DUP7 ADD PUSH2 0xE8 JUMP JUMPDEST SWAP3 POP POP PUSH1 0x20 PUSH2 0x1DC DUP6 DUP3 DUP7 ADD PUSH2 0x13C JUMP JUMPDEST SWAP2 POP POP SWAP3 POP SWAP3 SWAP1 POP JUMP JUMPDEST PUSH1 0x0 PUSH2 0x1F1 DUP3 PUSH2 0x29A JUMP JUMPDEST PUSH2 0x1FB DUP2 DUP6 PUSH2 0x2A5 JUMP JUMPDEST SWAP4 POP PUSH2 0x20B DUP2 DUP6 PUSH1 0x20 DUP7 ADD PUSH2 0x2CF JUMP JUMPDEST PUSH2 0x214 DUP2 PUSH2 0x302 JUMP JUMPDEST DUP5 ADD SWAP2 POP POP SWAP3 SWAP2 POP POP JUMP JUMPDEST PUSH1 0x0 PUSH1 0x20 DUP3 ADD SWAP1 POP DUP2 DUP2 SUB PUSH1 0x0 DUP4 ADD MSTORE PUSH2 0x239 DUP2 DUP5 PUSH2 0x1E6 JUMP JUMPDEST SWAP1 POP SWAP3 SWAP2 POP POP JUMP JUMPDEST PUSH1 0x0 PUSH1 0x40 MLOAD SWAP1 POP DUP2 DUP2 ADD DUP2 DUP2 LT PUSH8 0xFFFFFFFFFFFFFFFF DUP3 GT OR ISZERO PUSH2 0x264 JUMPI PUSH1 0x0 DUP1 REVERT JUMPDEST DUP1 PUSH1 0x40 MSTORE POP SWAP2 SWAP1 POP JUMP JUMPDEST PUSH1 0x0 PUSH8 0xFFFFFFFFFFFFFFFF DUP3 GT ISZERO PUSH2 0x285 JUMPI PUSH1 0x0 DUP1 REVERT JUMPDEST PUSH1 0x1F NOT PUSH1 0x1F DUP4 ADD AND SWAP1 POP PUSH1 0x20 DUP2 ADD SWAP1 POP SWAP2 SWAP1 POP JUMP JUMPDEST PUSH1 0x0 DUP2 MLOAD SWAP1 POP SWAP2 SWAP1 POP JUMP JUMPDEST PUSH1 0x0 DUP3 DUP3 MSTORE PUSH1 0x20 DUP3 ADD SWAP1 POP SWAP3 SWAP2 POP POP JUMP JUMPDEST PUSH1 0x0 DUP2 SWAP1 POP SWAP2 SWAP1 POP JUMP JUMPDEST DUP3 DUP2 DUP4 CALLDATACOPY PUSH1 0x0 DUP4 DUP4 ADD MSTORE POP POP POP JUMP JUMPDEST PUSH1 0x0 JUMPDEST DUP4 DUP2 LT ISZERO PUSH2 0x2ED JUMPI DUP1 DUP3 ADD MLOAD DUP2 DUP5 ADD MSTORE PUSH1 0x20 DUP2 ADD SWAP1 POP PUSH2 0x2D2 JUMP JUMPDEST DUP4 DUP2 GT ISZERO PUSH2 0x2FC JUMPI PUSH1 0x0 DUP5 DUP5 ADD MSTORE JUMPDEST POP POP POP POP JUMP JUMPDEST PUSH1 0x0 PUSH1 0x1F NOT PUSH1 0x1F DUP4 ADD AND SWAP1 POP SWAP2 SWAP1 POP JUMP JUMPDEST PUSH2 0x31C DUP2 PUSH2 0x2B6 JUMP JUMPDEST DUP2 EQ PUSH2 0x327 JUMPI PUSH1 0x0 DUP1 REVERT JUMPDEST POP JUMP INVALID LOG2 PUSH5 0x6970667358 0x22 SLT KECCAK256 0xB0 RETURNDATACOPY SWAP7 0xA9 0xE9 GASPRICE 0xC2 SWAP12 LOG0 MOD SWAP2 MSIZE EXTCODESIZE 0xE9 CREATE2 SWAP7 0xAB 0x22 0x1E 0x49 LOG3 DUP8 PUSH21 0x9EC1D8827EC318CFC264736F6C6343000600003300 "
				},
				"gasEstimates": {
					"creation": {
						"codeDepositCost": "172800",
						"executionCost": "214",
						"totalCost": "173014"
					},
					"external": {
						"EmitirEvento(string)": "infinite",
						"EmitirEvento2(string,uint256)": "infinite"
					}
				},
				"methodIdentifiers": {
					"EmitirEvento(string)": "da7fc1f1",
					"EmitirEvento2(string,uint256)": "c355a3e5"
				}
			},
			"storageLayout": {
				"storage": [],
				"types": null
			},
			"userdoc": {
				"methods": {}
			}
		}
	}
}