{
	"Tipos de variables y operadores/tiempo.sol": {
		"tiempo": {
			"abi": [
				{
					"constant": true,
					"inputs": [],
					"name": "minuto",
					"outputs": [
						{
							"internalType": "uint256",
							"name": "",
							"type": "uint256"
						}
					],
					"payable": false,
					"stateMutability": "view",
					"type": "function"
				},
				{
					"constant": true,
					"inputs": [],
					"name": "tiempo_actual",
					"outputs": [
						{
							"internalType": "uint256",
							"name": "",
							"type": "uint256"
						}
					],
					"payable": false,
					"stateMutability": "view",
					"type": "function"
				}
			],
			"devdoc": {
				"methods": {}
			},
			"evm": {
				"assembly": "    /* \"Tipos de variables y operadores/tiempo.sol\":27:155  contract tiempo{\r... */\n  mstore(0x40, 0x80)\n    /* \"Tipos de variables y operadores/tiempo.sol\":83:86  now */\n  timestamp\n    /* \"Tipos de variables y operadores/tiempo.sol\":55:86  uint public tiempo_actual = now */\n  0x00\n  sstore\n    /* \"Tipos de variables y operadores/tiempo.sol\":114:123  1 minutes */\n  0x3c\n    /* \"Tipos de variables y operadores/tiempo.sol\":93:123  uint public minuto = 1 minutes */\n  0x01\n  sstore\n    /* \"Tipos de variables y operadores/tiempo.sol\":142:149  1 hours */\n  0x0e10\n    /* \"Tipos de variables y operadores/tiempo.sol\":130:149  uint hora = 1 hours */\n  0x02\n  sstore\n    /* \"Tipos de variables y operadores/tiempo.sol\":27:155  contract tiempo{\r... */\n  callvalue\n    /* \"--CODEGEN--\":8:17   */\n  dup1\n    /* \"--CODEGEN--\":5:7   */\n  iszero\n  tag_1\n  jumpi\n    /* \"--CODEGEN--\":30:31   */\n  0x00\n    /* \"--CODEGEN--\":27:28   */\n  dup1\n    /* \"--CODEGEN--\":20:32   */\n  revert\n    /* \"--CODEGEN--\":5:7   */\ntag_1:\n    /* \"Tipos de variables y operadores/tiempo.sol\":27:155  contract tiempo{\r... */\n  pop\n  dataSize(sub_0)\n  dup1\n  dataOffset(sub_0)\n  0x00\n  codecopy\n  0x00\n  return\nstop\n\nsub_0: assembly {\n        /* \"Tipos de variables y operadores/tiempo.sol\":27:155  contract tiempo{\r... */\n      mstore(0x40, 0x80)\n      callvalue\n        /* \"--CODEGEN--\":8:17   */\n      dup1\n        /* \"--CODEGEN--\":5:7   */\n      iszero\n      tag_1\n      jumpi\n        /* \"--CODEGEN--\":30:31   */\n      0x00\n        /* \"--CODEGEN--\":27:28   */\n      dup1\n        /* \"--CODEGEN--\":20:32   */\n      revert\n        /* \"--CODEGEN--\":5:7   */\n    tag_1:\n        /* \"Tipos de variables y operadores/tiempo.sol\":27:155  contract tiempo{\r... */\n      pop\n      jumpi(tag_2, lt(calldatasize, 0x04))\n      shr(0xe0, calldataload(0x00))\n      dup1\n      0x5a9606a4\n      eq\n      tag_3\n      jumpi\n      dup1\n      0xe70ce4f3\n      eq\n      tag_4\n      jumpi\n    tag_2:\n      0x00\n      dup1\n      revert\n        /* \"Tipos de variables y operadores/tiempo.sol\":55:86  uint public tiempo_actual = now */\n    tag_3:\n      tag_5\n      tag_6\n      jump\t// in\n    tag_5:\n      mload(0x40)\n      dup1\n      dup3\n      dup2\n      mstore\n      0x20\n      add\n      swap2\n      pop\n      pop\n      mload(0x40)\n      dup1\n      swap2\n      sub\n      swap1\n      return\n        /* \"Tipos de variables y operadores/tiempo.sol\":93:123  uint public minuto = 1 minutes */\n    tag_4:\n      tag_7\n      tag_8\n      jump\t// in\n    tag_7:\n      mload(0x40)\n      dup1\n      dup3\n      dup2\n      mstore\n      0x20\n      add\n      swap2\n      pop\n      pop\n      mload(0x40)\n      dup1\n      swap2\n      sub\n      swap1\n      return\n        /* \"Tipos de variables y operadores/tiempo.sol\":55:86  uint public tiempo_actual = now */\n    tag_6:\n      sload(0x00)\n      dup2\n      jump\t// out\n        /* \"Tipos de variables y operadores/tiempo.sol\":93:123  uint public minuto = 1 minutes */\n    tag_8:\n      sload(0x01)\n      dup2\n      jump\t// out\n\n    auxdata: 0xa265627a7a72315820abcee404f12749d108a9f9aef2f424afe555b060b7043d1e5549162d94c2dc3264736f6c63430005110032\n}\n",
				"bytecode": {
					"linkReferences": {},
					"object": "608060405242600055603c600155610e1060025534801561001f57600080fd5b5060b08061002e6000396000f3fe6080604052348015600f57600080fd5b506004361060325760003560e01c80635a9606a4146037578063e70ce4f3146053575b600080fd5b603d606f565b6040518082815260200191505060405180910390f35b60596075565b6040518082815260200191505060405180910390f35b60005481565b6001548156fea265627a7a72315820abcee404f12749d108a9f9aef2f424afe555b060b7043d1e5549162d94c2dc3264736f6c63430005110032",
					"opcodes": "PUSH1 0x80 PUSH1 0x40 MSTORE TIMESTAMP PUSH1 0x0 SSTORE PUSH1 0x3C PUSH1 0x1 SSTORE PUSH2 0xE10 PUSH1 0x2 SSTORE CALLVALUE DUP1 ISZERO PUSH2 0x1F JUMPI PUSH1 0x0 DUP1 REVERT JUMPDEST POP PUSH1 0xB0 DUP1 PUSH2 0x2E PUSH1 0x0 CODECOPY PUSH1 0x0 RETURN INVALID PUSH1 0x80 PUSH1 0x40 MSTORE CALLVALUE DUP1 ISZERO PUSH1 0xF JUMPI PUSH1 0x0 DUP1 REVERT JUMPDEST POP PUSH1 0x4 CALLDATASIZE LT PUSH1 0x32 JUMPI PUSH1 0x0 CALLDATALOAD PUSH1 0xE0 SHR DUP1 PUSH4 0x5A9606A4 EQ PUSH1 0x37 JUMPI DUP1 PUSH4 0xE70CE4F3 EQ PUSH1 0x53 JUMPI JUMPDEST PUSH1 0x0 DUP1 REVERT JUMPDEST PUSH1 0x3D PUSH1 0x6F JUMP JUMPDEST PUSH1 0x40 MLOAD DUP1 DUP3 DUP2 MSTORE PUSH1 0x20 ADD SWAP2 POP POP PUSH1 0x40 MLOAD DUP1 SWAP2 SUB SWAP1 RETURN JUMPDEST PUSH1 0x59 PUSH1 0x75 JUMP JUMPDEST PUSH1 0x40 MLOAD DUP1 DUP3 DUP2 MSTORE PUSH1 0x20 ADD SWAP2 POP POP PUSH1 0x40 MLOAD DUP1 SWAP2 SUB SWAP1 RETURN JUMPDEST PUSH1 0x0 SLOAD DUP2 JUMP JUMPDEST PUSH1 0x1 SLOAD DUP2 JUMP INVALID LOG2 PUSH6 0x627A7A723158 KECCAK256 0xAB 0xCE 0xE4 DIV CALL 0x27 0x49 0xD1 ADDMOD 0xA9 0xF9 0xAE CALLCODE DELEGATECALL 0x24 0xAF 0xE5 SSTORE 0xB0 PUSH1 0xB7 DIV RETURNDATASIZE 0x1E SSTORE 0x49 AND 0x2D SWAP5 0xC2 0xDC ORIGIN PUSH5 0x736F6C6343 STOP SDIV GT STOP ORIGIN "
				},
				"gasEstimates": {
					"creation": {
						"codeDepositCost": "35200",
						"executionCost": "60104",
						"totalCost": "95304"
					},
					"external": {
						"minuto()": "1005",
						"tiempo_actual()": "983"
					}
				},
				"methodIdentifiers": {
					"minuto()": "e70ce4f3",
					"tiempo_actual()": "5a9606a4"
				}
			},
			"storageLayout": {
				"storage": [
					{
						"astId": 4,
						"contract": "Tipos de variables y operadores/tiempo.sol:tiempo",
						"label": "tiempo_actual",
						"offset": 0,
						"slot": "0",
						"type": "t_uint256"
					},
					{
						"astId": 7,
						"contract": "Tipos de variables y operadores/tiempo.sol:tiempo",
						"label": "minuto",
						"offset": 0,
						"slot": "1",
						"type": "t_uint256"
					},
					{
						"astId": 10,
						"contract": "Tipos de variables y operadores/tiempo.sol:tiempo",
						"label": "hora",
						"offset": 0,
						"slot": "2",
						"type": "t_uint256"
					}
				],
				"types": {
					"t_uint256": {
						"encoding": "inplace",
						"label": "uint256",
						"numberOfBytes": "32"
					}
				}
			},
			"userdoc": {
				"methods": {}
			}
		}
	}
}