{
	"Tipos de variables y operadores/tiempo.sol": {
		"tiempo": {
			"abi": [
				{
					"constant": true,
					"inputs": [],
					"name": "dia",
					"outputs": [
						{
							"internalType": "uint256",
							"name": "",
							"type": "uint256"
						}
					],
					"payable": false,
					"stateMutability": "view",
					"type": "function"
				},
				{
					"constant": true,
					"inputs": [],
					"name": "getTimePlusDay",
					"outputs": [
						{
							"internalType": "uint256",
							"name": "",
							"type": "uint256"
						}
					],
					"payable": false,
					"stateMutability": "view",
					"type": "function"
				},
				{
					"constant": true,
					"inputs": [],
					"name": "getTimePlusSec",
					"outputs": [
						{
							"internalType": "uint256",
							"name": "",
							"type": "uint256"
						}
					],
					"payable": false,
					"stateMutability": "view",
					"type": "function"
				},
				{
					"constant": true,
					"inputs": [],
					"name": "hora",
					"outputs": [
						{
							"internalType": "uint256",
							"name": "",
							"type": "uint256"
						}
					],
					"payable": false,
					"stateMutability": "view",
					"type": "function"
				},
				{
					"constant": true,
					"inputs": [],
					"name": "minuto",
					"outputs": [
						{
							"internalType": "uint256",
							"name": "",
							"type": "uint256"
						}
					],
					"payable": false,
					"stateMutability": "view",
					"type": "function"
				},
				{
					"constant": true,
					"inputs": [],
					"name": "segundo",
					"outputs": [
						{
							"internalType": "uint256",
							"name": "",
							"type": "uint256"
						}
					],
					"payable": false,
					"stateMutability": "view",
					"type": "function"
				},
				{
					"constant": true,
					"inputs": [],
					"name": "tiempo_actual",
					"outputs": [
						{
							"internalType": "uint256",
							"name": "",
							"type": "uint256"
						}
					],
					"payable": false,
					"stateMutability": "view",
					"type": "function"
				}
			],
			"devdoc": {
				"methods": {}
			},
			"evm": {
				"assembly": "    /* \"Tipos de variables y operadores/tiempo.sol\":27:446  contract tiempo{\r... */\n  mstore(0x40, 0x80)\n    /* \"Tipos de variables y operadores/tiempo.sol\":83:86  now */\n  timestamp\n    /* \"Tipos de variables y operadores/tiempo.sol\":55:86  uint public tiempo_actual = now */\n  0x00\n  sstore\n    /* \"Tipos de variables y operadores/tiempo.sol\":115:124  1 seconds */\n  0x01\n    /* \"Tipos de variables y operadores/tiempo.sol\":93:124  uint public segundo = 1 seconds */\n  dup1\n  sstore\n    /* \"Tipos de variables y operadores/tiempo.sol\":152:161  1 minutes */\n  0x3c\n    /* \"Tipos de variables y operadores/tiempo.sol\":131:161  uint public minuto = 1 minutes */\n  0x02\n  sstore\n    /* \"Tipos de variables y operadores/tiempo.sol\":187:194  1 hours */\n  0x0e10\n    /* \"Tipos de variables y operadores/tiempo.sol\":168:194  uint public hora = 1 hours */\n  0x03\n  sstore\n    /* \"Tipos de variables y operadores/tiempo.sol\":219:225  1 days */\n  0x015180\n    /* \"Tipos de variables y operadores/tiempo.sol\":201:225  uint public dia = 1 days */\n  0x04\n  sstore\n    /* \"Tipos de variables y operadores/tiempo.sol\":27:446  contract tiempo{\r... */\n  callvalue\n    /* \"--CODEGEN--\":8:17   */\n  dup1\n    /* \"--CODEGEN--\":5:7   */\n  iszero\n  tag_1\n  jumpi\n    /* \"--CODEGEN--\":30:31   */\n  0x00\n    /* \"--CODEGEN--\":27:28   */\n  dup1\n    /* \"--CODEGEN--\":20:32   */\n  revert\n    /* \"--CODEGEN--\":5:7   */\ntag_1:\n    /* \"Tipos de variables y operadores/tiempo.sol\":27:446  contract tiempo{\r... */\n  pop\n  dataSize(sub_0)\n  dup1\n  dataOffset(sub_0)\n  0x00\n  codecopy\n  0x00\n  return\nstop\n\nsub_0: assembly {\n        /* \"Tipos de variables y operadores/tiempo.sol\":27:446  contract tiempo{\r... */\n      mstore(0x40, 0x80)\n      callvalue\n        /* \"--CODEGEN--\":8:17   */\n      dup1\n        /* \"--CODEGEN--\":5:7   */\n      iszero\n      tag_1\n      jumpi\n        /* \"--CODEGEN--\":30:31   */\n      0x00\n        /* \"--CODEGEN--\":27:28   */\n      dup1\n        /* \"--CODEGEN--\":20:32   */\n      revert\n        /* \"--CODEGEN--\":5:7   */\n    tag_1:\n        /* \"Tipos de variables y operadores/tiempo.sol\":27:446  contract tiempo{\r... */\n      pop\n      jumpi(tag_2, lt(calldatasize, 0x04))\n      shr(0xe0, calldataload(0x00))\n      dup1\n      0x5a9606a4\n      gt\n      tag_10\n      jumpi\n      dup1\n      0x5a9606a4\n      eq\n      tag_6\n      jumpi\n      dup1\n      0xc3b17fdf\n      eq\n      tag_7\n      jumpi\n      dup1\n      0xc77e3e98\n      eq\n      tag_8\n      jumpi\n      dup1\n      0xe70ce4f3\n      eq\n      tag_9\n      jumpi\n      jump(tag_2)\n    tag_10:\n      dup1\n      0x2ae9277b\n      eq\n      tag_3\n      jumpi\n      dup1\n      0x30488a1d\n      eq\n      tag_4\n      jumpi\n      dup1\n      0x56b09482\n      eq\n      tag_5\n      jumpi\n    tag_2:\n      0x00\n      dup1\n      revert\n        /* \"Tipos de variables y operadores/tiempo.sol\":234:338  function getTimePlusSec() public view returns(uint){\r... */\n    tag_3:\n      tag_11\n      tag_12\n      jump\t// in\n    tag_11:\n      mload(0x40)\n      dup1\n      dup3\n      dup2\n      mstore\n      0x20\n      add\n      swap2\n      pop\n      pop\n      mload(0x40)\n      dup1\n      swap2\n      sub\n      swap1\n      return\n        /* \"Tipos de variables y operadores/tiempo.sol\":93:124  uint public segundo = 1 seconds */\n    tag_4:\n      tag_13\n      tag_14\n      jump\t// in\n    tag_13:\n      mload(0x40)\n      dup1\n      dup3\n      dup2\n      mstore\n      0x20\n      add\n      swap2\n      pop\n      pop\n      mload(0x40)\n      dup1\n      swap2\n      sub\n      swap1\n      return\n        /* \"Tipos de variables y operadores/tiempo.sol\":168:194  uint public hora = 1 hours */\n    tag_5:\n      tag_15\n      tag_16\n      jump\t// in\n    tag_15:\n      mload(0x40)\n      dup1\n      dup3\n      dup2\n      mstore\n      0x20\n      add\n      swap2\n      pop\n      pop\n      mload(0x40)\n      dup1\n      swap2\n      sub\n      swap1\n      return\n        /* \"Tipos de variables y operadores/tiempo.sol\":55:86  uint public tiempo_actual = now */\n    tag_6:\n      tag_17\n      tag_18\n      jump\t// in\n    tag_17:\n      mload(0x40)\n      dup1\n      dup3\n      dup2\n      mstore\n      0x20\n      add\n      swap2\n      pop\n      pop\n      mload(0x40)\n      dup1\n      swap2\n      sub\n      swap1\n      return\n        /* \"Tipos de variables y operadores/tiempo.sol\":350:441  function getTimePlusDay() public view returns(uint){\r... */\n    tag_7:\n      tag_19\n      tag_20\n      jump\t// in\n    tag_19:\n      mload(0x40)\n      dup1\n      dup3\n      dup2\n      mstore\n      0x20\n      add\n      swap2\n      pop\n      pop\n      mload(0x40)\n      dup1\n      swap2\n      sub\n      swap1\n      return\n        /* \"Tipos de variables y operadores/tiempo.sol\":201:225  uint public dia = 1 days */\n    tag_8:\n      tag_21\n      tag_22\n      jump\t// in\n    tag_21:\n      mload(0x40)\n      dup1\n      dup3\n      dup2\n      mstore\n      0x20\n      add\n      swap2\n      pop\n      pop\n      mload(0x40)\n      dup1\n      swap2\n      sub\n      swap1\n      return\n        /* \"Tipos de variables y operadores/tiempo.sol\":131:161  uint public minuto = 1 minutes */\n    tag_9:\n      tag_23\n      tag_24\n      jump\t// in\n    tag_23:\n      mload(0x40)\n      dup1\n      dup3\n      dup2\n      mstore\n      0x20\n      add\n      swap2\n      pop\n      pop\n      mload(0x40)\n      dup1\n      swap2\n      sub\n      swap1\n      return\n        /* \"Tipos de variables y operadores/tiempo.sol\":234:338  function getTimePlusSec() public view returns(uint){\r... */\n    tag_12:\n        /* \"Tipos de variables y operadores/tiempo.sol\":280:284  uint */\n      0x00\n        /* \"Tipos de variables y operadores/tiempo.sol\":321:330  1 seconds */\n      0x01\n        /* \"Tipos de variables y operadores/tiempo.sol\":305:318  tiempo_actual */\n      sload(0x00)\n        /* \"Tipos de variables y operadores/tiempo.sol\":305:330  tiempo_actual + 1 seconds */\n      add\n        /* \"Tipos de variables y operadores/tiempo.sol\":298:330  return tiempo_actual + 1 seconds */\n      swap1\n      pop\n        /* \"Tipos de variables y operadores/tiempo.sol\":234:338  function getTimePlusSec() public view returns(uint){\r... */\n      swap1\n      jump\t// out\n        /* \"Tipos de variables y operadores/tiempo.sol\":93:124  uint public segundo = 1 seconds */\n    tag_14:\n      sload(0x01)\n      dup2\n      jump\t// out\n        /* \"Tipos de variables y operadores/tiempo.sol\":168:194  uint public hora = 1 hours */\n    tag_16:\n      sload(0x03)\n      dup2\n      jump\t// out\n        /* \"Tipos de variables y operadores/tiempo.sol\":55:86  uint public tiempo_actual = now */\n    tag_18:\n      sload(0x00)\n      dup2\n      jump\t// out\n        /* \"Tipos de variables y operadores/tiempo.sol\":350:441  function getTimePlusDay() public view returns(uint){\r... */\n    tag_20:\n        /* \"Tipos de variables y operadores/tiempo.sol\":396:400  uint */\n      0x00\n        /* \"Tipos de variables y operadores/tiempo.sol\":427:433  1 days */\n      0x015180\n        /* \"Tipos de variables y operadores/tiempo.sol\":421:424  now */\n      timestamp\n        /* \"Tipos de variables y operadores/tiempo.sol\":421:433  now + 1 days */\n      add\n        /* \"Tipos de variables y operadores/tiempo.sol\":414:433  return now + 1 days */\n      swap1\n      pop\n        /* \"Tipos de variables y operadores/tiempo.sol\":350:441  function getTimePlusDay() public view returns(uint){\r... */\n      swap1\n      jump\t// out\n        /* \"Tipos de variables y operadores/tiempo.sol\":201:225  uint public dia = 1 days */\n    tag_22:\n      sload(0x04)\n      dup2\n      jump\t// out\n        /* \"Tipos de variables y operadores/tiempo.sol\":131:161  uint public minuto = 1 minutes */\n    tag_24:\n      sload(0x02)\n      dup2\n      jump\t// out\n\n    auxdata: 0xa265627a7a72315820a7c8d7b5ab370099d42c4394d6f62b9e3fa7f6e721e2e05adbe7afc2eb2c57ba64736f6c63430005110032\n}\n",
				"bytecode": {
					"linkReferences": {},
					"object": "60806040524260005560018055603c600255610e106003556201518060045534801561002a57600080fd5b506101c18061003a6000396000f3fe608060405234801561001057600080fd5b506004361061007d5760003560e01c80635a9606a41161005b5780635a9606a4146100dc578063c3b17fdf146100fa578063c77e3e9814610118578063e70ce4f3146101365761007d565b80632ae9277b1461008257806330488a1d146100a057806356b09482146100be575b600080fd5b61008a610154565b6040518082815260200191505060405180910390f35b6100a8610161565b6040518082815260200191505060405180910390f35b6100c6610167565b6040518082815260200191505060405180910390f35b6100e461016d565b6040518082815260200191505060405180910390f35b610102610173565b6040518082815260200191505060405180910390f35b610120610180565b6040518082815260200191505060405180910390f35b61013e610186565b6040518082815260200191505060405180910390f35b6000600160005401905090565b60015481565b60035481565b60005481565b6000620151804201905090565b60045481565b6002548156fea265627a7a72315820a7c8d7b5ab370099d42c4394d6f62b9e3fa7f6e721e2e05adbe7afc2eb2c57ba64736f6c63430005110032",
					"opcodes": "PUSH1 0x80 PUSH1 0x40 MSTORE TIMESTAMP PUSH1 0x0 SSTORE PUSH1 0x1 DUP1 SSTORE PUSH1 0x3C PUSH1 0x2 SSTORE PUSH2 0xE10 PUSH1 0x3 SSTORE PUSH3 0x15180 PUSH1 0x4 SSTORE CALLVALUE DUP1 ISZERO PUSH2 0x2A JUMPI PUSH1 0x0 DUP1 REVERT JUMPDEST POP PUSH2 0x1C1 DUP1 PUSH2 0x3A PUSH1 0x0 CODECOPY PUSH1 0x0 RETURN INVALID PUSH1 0x80 PUSH1 0x40 MSTORE CALLVALUE DUP1 ISZERO PUSH2 0x10 JUMPI PUSH1 0x0 DUP1 REVERT JUMPDEST POP PUSH1 0x4 CALLDATASIZE LT PUSH2 0x7D JUMPI PUSH1 0x0 CALLDATALOAD PUSH1 0xE0 SHR DUP1 PUSH4 0x5A9606A4 GT PUSH2 0x5B JUMPI DUP1 PUSH4 0x5A9606A4 EQ PUSH2 0xDC JUMPI DUP1 PUSH4 0xC3B17FDF EQ PUSH2 0xFA JUMPI DUP1 PUSH4 0xC77E3E98 EQ PUSH2 0x118 JUMPI DUP1 PUSH4 0xE70CE4F3 EQ PUSH2 0x136 JUMPI PUSH2 0x7D JUMP JUMPDEST DUP1 PUSH4 0x2AE9277B EQ PUSH2 0x82 JUMPI DUP1 PUSH4 0x30488A1D EQ PUSH2 0xA0 JUMPI DUP1 PUSH4 0x56B09482 EQ PUSH2 0xBE JUMPI JUMPDEST PUSH1 0x0 DUP1 REVERT JUMPDEST PUSH2 0x8A PUSH2 0x154 JUMP JUMPDEST PUSH1 0x40 MLOAD DUP1 DUP3 DUP2 MSTORE PUSH1 0x20 ADD SWAP2 POP POP PUSH1 0x40 MLOAD DUP1 SWAP2 SUB SWAP1 RETURN JUMPDEST PUSH2 0xA8 PUSH2 0x161 JUMP JUMPDEST PUSH1 0x40 MLOAD DUP1 DUP3 DUP2 MSTORE PUSH1 0x20 ADD SWAP2 POP POP PUSH1 0x40 MLOAD DUP1 SWAP2 SUB SWAP1 RETURN JUMPDEST PUSH2 0xC6 PUSH2 0x167 JUMP JUMPDEST PUSH1 0x40 MLOAD DUP1 DUP3 DUP2 MSTORE PUSH1 0x20 ADD SWAP2 POP POP PUSH1 0x40 MLOAD DUP1 SWAP2 SUB SWAP1 RETURN JUMPDEST PUSH2 0xE4 PUSH2 0x16D JUMP JUMPDEST PUSH1 0x40 MLOAD DUP1 DUP3 DUP2 MSTORE PUSH1 0x20 ADD SWAP2 POP POP PUSH1 0x40 MLOAD DUP1 SWAP2 SUB SWAP1 RETURN JUMPDEST PUSH2 0x102 PUSH2 0x173 JUMP JUMPDEST PUSH1 0x40 MLOAD DUP1 DUP3 DUP2 MSTORE PUSH1 0x20 ADD SWAP2 POP POP PUSH1 0x40 MLOAD DUP1 SWAP2 SUB SWAP1 RETURN JUMPDEST PUSH2 0x120 PUSH2 0x180 JUMP JUMPDEST PUSH1 0x40 MLOAD DUP1 DUP3 DUP2 MSTORE PUSH1 0x20 ADD SWAP2 POP POP PUSH1 0x40 MLOAD DUP1 SWAP2 SUB SWAP1 RETURN JUMPDEST PUSH2 0x13E PUSH2 0x186 JUMP JUMPDEST PUSH1 0x40 MLOAD DUP1 DUP3 DUP2 MSTORE PUSH1 0x20 ADD SWAP2 POP POP PUSH1 0x40 MLOAD DUP1 SWAP2 SUB SWAP1 RETURN JUMPDEST PUSH1 0x0 PUSH1 0x1 PUSH1 0x0 SLOAD ADD SWAP1 POP SWAP1 JUMP JUMPDEST PUSH1 0x1 SLOAD DUP2 JUMP JUMPDEST PUSH1 0x3 SLOAD DUP2 JUMP JUMPDEST PUSH1 0x0 SLOAD DUP2 JUMP JUMPDEST PUSH1 0x0 PUSH3 0x15180 TIMESTAMP ADD SWAP1 POP SWAP1 JUMP JUMPDEST PUSH1 0x4 SLOAD DUP2 JUMP JUMPDEST PUSH1 0x2 SLOAD DUP2 JUMP INVALID LOG2 PUSH6 0x627A7A723158 KECCAK256 0xA7 0xC8 0xD7 0xB5 0xAB CALLDATACOPY STOP SWAP10 0xD4 0x2C NUMBER SWAP5 0xD6 0xF6 0x2B SWAP15 EXTCODEHASH 0xA7 0xF6 0xE7 0x21 0xE2 0xE0 GAS 0xDB 0xE7 0xAF 0xC2 0xEB 0x2C JUMPI 0xBA PUSH5 0x736F6C6343 STOP SDIV GT STOP ORIGIN "
				},
				"gasEstimates": {
					"creation": {
						"codeDepositCost": "89800",
						"executionCost": "100170",
						"totalCost": "189970"
					},
					"external": {
						"dia()": "1049",
						"getTimePlusDay()": "240",
						"getTimePlusSec()": "1020",
						"hora()": "1050",
						"minuto()": "1071",
						"segundo()": "1028",
						"tiempo_actual()": "1005"
					}
				},
				"methodIdentifiers": {
					"dia()": "c77e3e98",
					"getTimePlusDay()": "c3b17fdf",
					"getTimePlusSec()": "2ae9277b",
					"hora()": "56b09482",
					"minuto()": "e70ce4f3",
					"segundo()": "30488a1d",
					"tiempo_actual()": "5a9606a4"
				}
			},
			"storageLayout": {
				"storage": [
					{
						"astId": 4,
						"contract": "Tipos de variables y operadores/tiempo.sol:tiempo",
						"label": "tiempo_actual",
						"offset": 0,
						"slot": "0",
						"type": "t_uint256"
					},
					{
						"astId": 7,
						"contract": "Tipos de variables y operadores/tiempo.sol:tiempo",
						"label": "segundo",
						"offset": 0,
						"slot": "1",
						"type": "t_uint256"
					},
					{
						"astId": 10,
						"contract": "Tipos de variables y operadores/tiempo.sol:tiempo",
						"label": "minuto",
						"offset": 0,
						"slot": "2",
						"type": "t_uint256"
					},
					{
						"astId": 13,
						"contract": "Tipos de variables y operadores/tiempo.sol:tiempo",
						"label": "hora",
						"offset": 0,
						"slot": "3",
						"type": "t_uint256"
					},
					{
						"astId": 16,
						"contract": "Tipos de variables y operadores/tiempo.sol:tiempo",
						"label": "dia",
						"offset": 0,
						"slot": "4",
						"type": "t_uint256"
					}
				],
				"types": {
					"t_uint256": {
						"encoding": "inplace",
						"label": "uint256",
						"numberOfBytes": "32"
					}
				}
			},
			"userdoc": {
				"methods": {}
			}
		}
	}
}