{
	"Tipos de variables y operadores/enums.sol": {
		"ejemplos_enumeraciones": {
			"abi": [
				{
					"constant": false,
					"inputs": [
						{
							"internalType": "uint256",
							"name": "_k",
							"type": "uint256"
						}
					],
					"name": "encender",
					"outputs": [],
					"payable": false,
					"stateMutability": "nonpayable",
					"type": "function"
				},
				{
					"constant": false,
					"inputs": [],
					"name": "encender",
					"outputs": [],
					"payable": false,
					"stateMutability": "nonpayable",
					"type": "function"
				}
			],
			"devdoc": {
				"methods": {}
			},
			"evm": {
				"assembly": "    /* \"Tipos de variables y operadores/enums.sol\":27:262  contract ejemplos_enumeraciones{\r... */\n  mstore(0x40, 0x80)\n  callvalue\n    /* \"--CODEGEN--\":8:17   */\n  dup1\n    /* \"--CODEGEN--\":5:7   */\n  iszero\n  tag_1\n  jumpi\n    /* \"--CODEGEN--\":30:31   */\n  0x00\n    /* \"--CODEGEN--\":27:28   */\n  dup1\n    /* \"--CODEGEN--\":20:32   */\n  revert\n    /* \"--CODEGEN--\":5:7   */\ntag_1:\n    /* \"Tipos de variables y operadores/enums.sol\":27:262  contract ejemplos_enumeraciones{\r... */\n  pop\n  dataSize(sub_0)\n  dup1\n  dataOffset(sub_0)\n  0x00\n  codecopy\n  0x00\n  return\nstop\n\nsub_0: assembly {\n        /* \"Tipos de variables y operadores/enums.sol\":27:262  contract ejemplos_enumeraciones{\r... */\n      mstore(0x40, 0x80)\n      callvalue\n        /* \"--CODEGEN--\":8:17   */\n      dup1\n        /* \"--CODEGEN--\":5:7   */\n      iszero\n      tag_1\n      jumpi\n        /* \"--CODEGEN--\":30:31   */\n      0x00\n        /* \"--CODEGEN--\":27:28   */\n      dup1\n        /* \"--CODEGEN--\":20:32   */\n      revert\n        /* \"--CODEGEN--\":5:7   */\n    tag_1:\n        /* \"Tipos de variables y operadores/enums.sol\":27:262  contract ejemplos_enumeraciones{\r... */\n      pop\n      jumpi(tag_2, lt(calldatasize, 0x04))\n      shr(0xe0, calldataload(0x00))\n      dup1\n      0x40204110\n      eq\n      tag_3\n      jumpi\n      dup1\n      0xe9073c33\n      eq\n      tag_4\n      jumpi\n    tag_2:\n      0x00\n      dup1\n      revert\n        /* \"Tipos de variables y operadores/enums.sol\":190:259  function encender(uint _k) public{\r... */\n    tag_3:\n      tag_5\n      0x04\n      dup1\n      calldatasize\n      sub\n        /* \"--CODEGEN--\":13:15   */\n      0x20\n        /* \"--CODEGEN--\":8:11   */\n      dup2\n        /* \"--CODEGEN--\":5:16   */\n      lt\n        /* \"--CODEGEN--\":2:4   */\n      iszero\n      tag_6\n      jumpi\n        /* \"--CODEGEN--\":29:30   */\n      0x00\n        /* \"--CODEGEN--\":26:27   */\n      dup1\n        /* \"--CODEGEN--\":19:31   */\n      revert\n        /* \"--CODEGEN--\":2:4   */\n    tag_6:\n        /* \"Tipos de variables y operadores/enums.sol\":190:259  function encender(uint _k) public{\r... */\n      dup2\n      add\n      swap1\n      dup1\n      dup1\n      calldataload\n      swap1\n      0x20\n      add\n      swap1\n      swap3\n      swap2\n      swap1\n      pop\n      pop\n      pop\n      tag_7\n      jump\t// in\n    tag_5:\n      stop\n        /* \"Tipos de variables y operadores/enums.sol\":116:178  function encender() public{\r... */\n    tag_4:\n      tag_8\n      tag_9\n      jump\t// in\n    tag_8:\n      stop\n        /* \"Tipos de variables y operadores/enums.sol\":190:259  function encender(uint _k) public{\r... */\n    tag_7:\n        /* \"Tipos de variables y operadores/enums.sol\":242:251  estado.ON */\n      0x00\n        /* \"Tipos de variables y operadores/enums.sol\":234:239  state */\n      dup1\n      0x00\n        /* \"Tipos de variables y operadores/enums.sol\":234:251  state = estado.ON */\n      0x0100\n      exp\n      dup2\n      sload\n      dup2\n      0xff\n      mul\n      not\n      and\n      swap1\n      dup4\n      0x01\n      dup2\n      gt\n      iszero\n      tag_11\n      jumpi\n      invalid\n    tag_11:\n      mul\n      or\n      swap1\n      sstore\n      pop\n        /* \"Tipos de variables y operadores/enums.sol\":190:259  function encender(uint _k) public{\r... */\n      pop\n      jump\t// out\n        /* \"Tipos de variables y operadores/enums.sol\":116:178  function encender() public{\r... */\n    tag_9:\n        /* \"Tipos de variables y operadores/enums.sol\":161:170  estado.ON */\n      0x00\n        /* \"Tipos de variables y operadores/enums.sol\":153:158  state */\n      dup1\n      0x00\n        /* \"Tipos de variables y operadores/enums.sol\":153:170  state = estado.ON */\n      0x0100\n      exp\n      dup2\n      sload\n      dup2\n      0xff\n      mul\n      not\n      and\n      swap1\n      dup4\n      0x01\n      dup2\n      gt\n      iszero\n      tag_13\n      jumpi\n      invalid\n    tag_13:\n      mul\n      or\n      swap1\n      sstore\n      pop\n        /* \"Tipos de variables y operadores/enums.sol\":116:178  function encender() public{\r... */\n      jump\t// out\n\n    auxdata: 0xa265627a7a72315820c2e09554dd8c0dccdcfe17d3f4c4cc44942291442c7545a006b637d5192d364064736f6c63430005110032\n}\n",
				"bytecode": {
					"linkReferences": {},
					"object": "608060405234801561001057600080fd5b5060e88061001f6000396000f3fe6080604052348015600f57600080fd5b506004361060325760003560e01c806340204110146037578063e9073c33146062575b600080fd5b606060048036036020811015604b57600080fd5b8101908080359060200190929190505050606a565b005b6068608f565b005b60008060006101000a81548160ff02191690836001811115608757fe5b021790555050565b60008060006101000a81548160ff0219169083600181111560ac57fe5b021790555056fea265627a7a72315820c2e09554dd8c0dccdcfe17d3f4c4cc44942291442c7545a006b637d5192d364064736f6c63430005110032",
					"opcodes": "PUSH1 0x80 PUSH1 0x40 MSTORE CALLVALUE DUP1 ISZERO PUSH2 0x10 JUMPI PUSH1 0x0 DUP1 REVERT JUMPDEST POP PUSH1 0xE8 DUP1 PUSH2 0x1F PUSH1 0x0 CODECOPY PUSH1 0x0 RETURN INVALID PUSH1 0x80 PUSH1 0x40 MSTORE CALLVALUE DUP1 ISZERO PUSH1 0xF JUMPI PUSH1 0x0 DUP1 REVERT JUMPDEST POP PUSH1 0x4 CALLDATASIZE LT PUSH1 0x32 JUMPI PUSH1 0x0 CALLDATALOAD PUSH1 0xE0 SHR DUP1 PUSH4 0x40204110 EQ PUSH1 0x37 JUMPI DUP1 PUSH4 0xE9073C33 EQ PUSH1 0x62 JUMPI JUMPDEST PUSH1 0x0 DUP1 REVERT JUMPDEST PUSH1 0x60 PUSH1 0x4 DUP1 CALLDATASIZE SUB PUSH1 0x20 DUP2 LT ISZERO PUSH1 0x4B JUMPI PUSH1 0x0 DUP1 REVERT JUMPDEST DUP2 ADD SWAP1 DUP1 DUP1 CALLDATALOAD SWAP1 PUSH1 0x20 ADD SWAP1 SWAP3 SWAP2 SWAP1 POP POP POP PUSH1 0x6A JUMP JUMPDEST STOP JUMPDEST PUSH1 0x68 PUSH1 0x8F JUMP JUMPDEST STOP JUMPDEST PUSH1 0x0 DUP1 PUSH1 0x0 PUSH2 0x100 EXP DUP2 SLOAD DUP2 PUSH1 0xFF MUL NOT AND SWAP1 DUP4 PUSH1 0x1 DUP2 GT ISZERO PUSH1 0x87 JUMPI INVALID JUMPDEST MUL OR SWAP1 SSTORE POP POP JUMP JUMPDEST PUSH1 0x0 DUP1 PUSH1 0x0 PUSH2 0x100 EXP DUP2 SLOAD DUP2 PUSH1 0xFF MUL NOT AND SWAP1 DUP4 PUSH1 0x1 DUP2 GT ISZERO PUSH1 0xAC JUMPI INVALID JUMPDEST MUL OR SWAP1 SSTORE POP JUMP INVALID LOG2 PUSH6 0x627A7A723158 KECCAK256 0xC2 0xE0 SWAP6 SLOAD 0xDD DUP13 0xD 0xCC 0xDC INVALID OR 0xD3 DELEGATECALL 0xC4 0xCC DIFFICULTY SWAP5 0x22 SWAP2 DIFFICULTY 0x2C PUSH22 0x45A006B637D5192D364064736F6C6343000511003200 "
				},
				"gasEstimates": {
					"creation": {
						"codeDepositCost": "46400",
						"executionCost": "99",
						"totalCost": "46499"
					},
					"external": {
						"encender()": "21031",
						"encender(uint256)": "21093"
					}
				},
				"methodIdentifiers": {
					"encender()": "e9073c33",
					"encender(uint256)": "40204110"
				}
			},
			"storageLayout": {
				"storage": [
					{
						"astId": 6,
						"contract": "Tipos de variables y operadores/enums.sol:ejemplos_enumeraciones",
						"label": "state",
						"offset": 0,
						"slot": "0",
						"type": "t_enum(estado)4"
					}
				],
				"types": {
					"t_enum(estado)4": {
						"encoding": "inplace",
						"label": "enum ejemplos_enumeraciones.estado",
						"numberOfBytes": "1"
					}
				}
			},
			"userdoc": {
				"methods": {}
			}
		}
	}
}