{
	"Tipos de variables y operadores/enums.sol": {
		"ejemplos_enumeraciones": {
			"abi": [
				{
					"constant": false,
					"inputs": [],
					"name": "encender",
					"outputs": [],
					"payable": false,
					"stateMutability": "nonpayable",
					"type": "function"
				},
				{
					"constant": true,
					"inputs": [],
					"name": "getEstado",
					"outputs": [
						{
							"internalType": "enum ejemplos_enumeraciones.estado",
							"name": "",
							"type": "uint8"
						}
					],
					"payable": false,
					"stateMutability": "view",
					"type": "function"
				},
				{
					"constant": false,
					"inputs": [
						{
							"internalType": "uint256",
							"name": "_k",
							"type": "uint256"
						}
					],
					"name": "setEstado",
					"outputs": [],
					"payable": false,
					"stateMutability": "nonpayable",
					"type": "function"
				}
			],
			"devdoc": {
				"methods": {}
			},
			"evm": {
				"assembly": "    /* \"Tipos de variables y operadores/enums.sol\":27:423  contract ejemplos_enumeraciones{\r... */\n  mstore(0x40, 0x80)\n  callvalue\n    /* \"--CODEGEN--\":8:17   */\n  dup1\n    /* \"--CODEGEN--\":5:7   */\n  iszero\n  tag_1\n  jumpi\n    /* \"--CODEGEN--\":30:31   */\n  0x00\n    /* \"--CODEGEN--\":27:28   */\n  dup1\n    /* \"--CODEGEN--\":20:32   */\n  revert\n    /* \"--CODEGEN--\":5:7   */\ntag_1:\n    /* \"Tipos de variables y operadores/enums.sol\":27:423  contract ejemplos_enumeraciones{\r... */\n  pop\n  dataSize(sub_0)\n  dup1\n  dataOffset(sub_0)\n  0x00\n  codecopy\n  0x00\n  return\nstop\n\nsub_0: assembly {\n        /* \"Tipos de variables y operadores/enums.sol\":27:423  contract ejemplos_enumeraciones{\r... */\n      mstore(0x40, 0x80)\n      callvalue\n        /* \"--CODEGEN--\":8:17   */\n      dup1\n        /* \"--CODEGEN--\":5:7   */\n      iszero\n      tag_1\n      jumpi\n        /* \"--CODEGEN--\":30:31   */\n      0x00\n        /* \"--CODEGEN--\":27:28   */\n      dup1\n        /* \"--CODEGEN--\":20:32   */\n      revert\n        /* \"--CODEGEN--\":5:7   */\n    tag_1:\n        /* \"Tipos de variables y operadores/enums.sol\":27:423  contract ejemplos_enumeraciones{\r... */\n      pop\n      jumpi(tag_2, lt(calldatasize, 0x04))\n      shr(0xe0, calldataload(0x00))\n      dup1\n      0x6d07d7e3\n      eq\n      tag_3\n      jumpi\n      dup1\n      0x78366e8e\n      eq\n      tag_4\n      jumpi\n      dup1\n      0xe9073c33\n      eq\n      tag_5\n      jumpi\n    tag_2:\n      0x00\n      dup1\n      revert\n        /* \"Tipos de variables y operadores/enums.sol\":265:344  function getEstado() public view returns(estado){\r... */\n    tag_3:\n      tag_6\n      tag_7\n      jump\t// in\n    tag_6:\n      mload(0x40)\n      dup1\n      dup3\n      0x01\n      dup2\n      gt\n      iszero\n      tag_8\n      jumpi\n      invalid\n    tag_8:\n      0xff\n      and\n      dup2\n      mstore\n      0x20\n      add\n      swap2\n      pop\n      pop\n      mload(0x40)\n      dup1\n      swap2\n      sub\n      swap1\n      return\n        /* \"Tipos de variables y operadores/enums.sol\":186:257  function setEstado(uint _k) public{\r... */\n    tag_4:\n      tag_9\n      0x04\n      dup1\n      calldatasize\n      sub\n        /* \"--CODEGEN--\":13:15   */\n      0x20\n        /* \"--CODEGEN--\":8:11   */\n      dup2\n        /* \"--CODEGEN--\":5:16   */\n      lt\n        /* \"--CODEGEN--\":2:4   */\n      iszero\n      tag_10\n      jumpi\n        /* \"--CODEGEN--\":29:30   */\n      0x00\n        /* \"--CODEGEN--\":26:27   */\n      dup1\n        /* \"--CODEGEN--\":19:31   */\n      revert\n        /* \"--CODEGEN--\":2:4   */\n    tag_10:\n        /* \"Tipos de variables y operadores/enums.sol\":186:257  function setEstado(uint _k) public{\r... */\n      dup2\n      add\n      swap1\n      dup1\n      dup1\n      calldataload\n      swap1\n      0x20\n      add\n      swap1\n      swap3\n      swap2\n      swap1\n      pop\n      pop\n      pop\n      tag_11\n      jump\t// in\n    tag_9:\n      stop\n        /* \"Tipos de variables y operadores/enums.sol\":116:178  function encender() public{\r... */\n    tag_5:\n      tag_12\n      tag_13\n      jump\t// in\n    tag_12:\n      stop\n        /* \"Tipos de variables y operadores/enums.sol\":265:344  function getEstado() public view returns(estado){\r... */\n    tag_7:\n        /* \"Tipos de variables y operadores/enums.sol\":306:312  estado */\n      0x00\n        /* \"Tipos de variables y operadores/enums.sol\":331:336  state */\n      dup1\n      0x00\n      swap1\n      sload\n      swap1\n      0x0100\n      exp\n      swap1\n      div\n      0xff\n      and\n        /* \"Tipos de variables y operadores/enums.sol\":324:336  return state */\n      swap1\n      pop\n        /* \"Tipos de variables y operadores/enums.sol\":265:344  function getEstado() public view returns(estado){\r... */\n      swap1\n      jump\t// out\n        /* \"Tipos de variables y operadores/enums.sol\":186:257  function setEstado(uint _k) public{\r... */\n    tag_11:\n        /* \"Tipos de variables y operadores/enums.sol\":246:248  _k */\n      dup1\n        /* \"Tipos de variables y operadores/enums.sol\":239:249  estado(_k) */\n      0x01\n      dup2\n      gt\n      iszero\n      tag_16\n      jumpi\n      invalid\n    tag_16:\n        /* \"Tipos de variables y operadores/enums.sol\":231:236  state */\n      0x00\n      dup1\n        /* \"Tipos de variables y operadores/enums.sol\":231:249  state = estado(_k) */\n      0x0100\n      exp\n      dup2\n      sload\n      dup2\n      0xff\n      mul\n      not\n      and\n      swap1\n      dup4\n      0x01\n      dup2\n      gt\n      iszero\n      tag_17\n      jumpi\n      invalid\n    tag_17:\n      mul\n      or\n      swap1\n      sstore\n      pop\n        /* \"Tipos de variables y operadores/enums.sol\":186:257  function setEstado(uint _k) public{\r... */\n      pop\n      jump\t// out\n        /* \"Tipos de variables y operadores/enums.sol\":116:178  function encender() public{\r... */\n    tag_13:\n        /* \"Tipos de variables y operadores/enums.sol\":161:170  estado.ON */\n      0x00\n        /* \"Tipos de variables y operadores/enums.sol\":153:158  state */\n      dup1\n      0x00\n        /* \"Tipos de variables y operadores/enums.sol\":153:170  state = estado.ON */\n      0x0100\n      exp\n      dup2\n      sload\n      dup2\n      0xff\n      mul\n      not\n      and\n      swap1\n      dup4\n      0x01\n      dup2\n      gt\n      iszero\n      tag_19\n      jumpi\n      invalid\n    tag_19:\n      mul\n      or\n      swap1\n      sstore\n      pop\n        /* \"Tipos de variables y operadores/enums.sol\":116:178  function encender() public{\r... */\n      jump\t// out\n\n    auxdata: 0xa265627a7a723158204a37b821aa7d5adf2522934b132a13f45dec11315a0137d02ee654d4eed063d164736f6c63430005110032\n}\n",
				"bytecode": {
					"linkReferences": {},
					"object": "608060405234801561001057600080fd5b5061014a806100206000396000f3fe608060405234801561001057600080fd5b50600436106100415760003560e01c80636d07d7e31461004657806378366e8e14610072578063e9073c33146100a0575b600080fd5b61004e6100aa565b6040518082600181111561005e57fe5b60ff16815260200191505060405180910390f35b61009e6004803603602081101561008857600080fd5b81019080803590602001909291905050506100c0565b005b6100a86100f0565b005b60008060009054906101000a900460ff16905090565b8060018111156100cc57fe5b6000806101000a81548160ff021916908360018111156100e857fe5b021790555050565b60008060006101000a81548160ff0219169083600181111561010e57fe5b021790555056fea265627a7a723158204a37b821aa7d5adf2522934b132a13f45dec11315a0137d02ee654d4eed063d164736f6c63430005110032",
					"opcodes": "PUSH1 0x80 PUSH1 0x40 MSTORE CALLVALUE DUP1 ISZERO PUSH2 0x10 JUMPI PUSH1 0x0 DUP1 REVERT JUMPDEST POP PUSH2 0x14A DUP1 PUSH2 0x20 PUSH1 0x0 CODECOPY PUSH1 0x0 RETURN INVALID PUSH1 0x80 PUSH1 0x40 MSTORE CALLVALUE DUP1 ISZERO PUSH2 0x10 JUMPI PUSH1 0x0 DUP1 REVERT JUMPDEST POP PUSH1 0x4 CALLDATASIZE LT PUSH2 0x41 JUMPI PUSH1 0x0 CALLDATALOAD PUSH1 0xE0 SHR DUP1 PUSH4 0x6D07D7E3 EQ PUSH2 0x46 JUMPI DUP1 PUSH4 0x78366E8E EQ PUSH2 0x72 JUMPI DUP1 PUSH4 0xE9073C33 EQ PUSH2 0xA0 JUMPI JUMPDEST PUSH1 0x0 DUP1 REVERT JUMPDEST PUSH2 0x4E PUSH2 0xAA JUMP JUMPDEST PUSH1 0x40 MLOAD DUP1 DUP3 PUSH1 0x1 DUP2 GT ISZERO PUSH2 0x5E JUMPI INVALID JUMPDEST PUSH1 0xFF AND DUP2 MSTORE PUSH1 0x20 ADD SWAP2 POP POP PUSH1 0x40 MLOAD DUP1 SWAP2 SUB SWAP1 RETURN JUMPDEST PUSH2 0x9E PUSH1 0x4 DUP1 CALLDATASIZE SUB PUSH1 0x20 DUP2 LT ISZERO PUSH2 0x88 JUMPI PUSH1 0x0 DUP1 REVERT JUMPDEST DUP2 ADD SWAP1 DUP1 DUP1 CALLDATALOAD SWAP1 PUSH1 0x20 ADD SWAP1 SWAP3 SWAP2 SWAP1 POP POP POP PUSH2 0xC0 JUMP JUMPDEST STOP JUMPDEST PUSH2 0xA8 PUSH2 0xF0 JUMP JUMPDEST STOP JUMPDEST PUSH1 0x0 DUP1 PUSH1 0x0 SWAP1 SLOAD SWAP1 PUSH2 0x100 EXP SWAP1 DIV PUSH1 0xFF AND SWAP1 POP SWAP1 JUMP JUMPDEST DUP1 PUSH1 0x1 DUP2 GT ISZERO PUSH2 0xCC JUMPI INVALID JUMPDEST PUSH1 0x0 DUP1 PUSH2 0x100 EXP DUP2 SLOAD DUP2 PUSH1 0xFF MUL NOT AND SWAP1 DUP4 PUSH1 0x1 DUP2 GT ISZERO PUSH2 0xE8 JUMPI INVALID JUMPDEST MUL OR SWAP1 SSTORE POP POP JUMP JUMPDEST PUSH1 0x0 DUP1 PUSH1 0x0 PUSH2 0x100 EXP DUP2 SLOAD DUP2 PUSH1 0xFF MUL NOT AND SWAP1 DUP4 PUSH1 0x1 DUP2 GT ISZERO PUSH2 0x10E JUMPI INVALID JUMPDEST MUL OR SWAP1 SSTORE POP JUMP INVALID LOG2 PUSH6 0x627A7A723158 KECCAK256 0x4A CALLDATACOPY 0xB8 0x21 0xAA PUSH30 0x5ADF2522934B132A13F45DEC11315A0137D02EE654D4EED063D164736F6C PUSH4 0x43000511 STOP ORIGIN "
				},
				"gasEstimates": {
					"creation": {
						"codeDepositCost": "66000",
						"executionCost": "117",
						"totalCost": "66117"
					},
					"external": {
						"encender()": "21053",
						"getEstado()": "1059",
						"setEstado(uint256)": "21141"
					}
				},
				"methodIdentifiers": {
					"encender()": "e9073c33",
					"getEstado()": "6d07d7e3",
					"setEstado(uint256)": "78366e8e"
				}
			},
			"storageLayout": {
				"storage": [
					{
						"astId": 6,
						"contract": "Tipos de variables y operadores/enums.sol:ejemplos_enumeraciones",
						"label": "state",
						"offset": 0,
						"slot": "0",
						"type": "t_enum(estado)4"
					}
				],
				"types": {
					"t_enum(estado)4": {
						"encoding": "inplace",
						"label": "enum ejemplos_enumeraciones.estado",
						"numberOfBytes": "1"
					}
				}
			},
			"userdoc": {
				"methods": {}
			}
		}
	}
}