{
	"Tipos de variables y operadores/modificadores.sol": {
		"public_private_internal": {
			"abi": [
				{
					"inputs": [],
					"name": "mi_entero",
					"outputs": [
						{
							"internalType": "uint256",
							"name": "",
							"type": "uint256"
						}
					],
					"stateMutability": "view",
					"type": "function"
				}
			],
			"devdoc": {
				"methods": {}
			},
			"evm": {
				"assembly": "    /* \"Tipos de variables y operadores/modificadores.sol\":27:100  contract public_private_internal{\r... */\n  mstore(0x40, 0x80)\n    /* \"Tipos de variables y operadores/modificadores.sol\":92:94  43 */\n  0x2b\n    /* \"Tipos de variables y operadores/modificadores.sol\":68:94  uint public mi_entero = 43 */\n  0x00\n  sstore\n    /* \"Tipos de variables y operadores/modificadores.sol\":27:100  contract public_private_internal{\r... */\n  callvalue\n    /* \"--CODEGEN--\":8:17   */\n  dup1\n    /* \"--CODEGEN--\":5:7   */\n  iszero\n  tag_1\n  jumpi\n    /* \"--CODEGEN--\":30:31   */\n  0x00\n    /* \"--CODEGEN--\":27:28   */\n  dup1\n    /* \"--CODEGEN--\":20:32   */\n  revert\n    /* \"--CODEGEN--\":5:7   */\ntag_1:\n    /* \"Tipos de variables y operadores/modificadores.sol\":27:100  contract public_private_internal{\r... */\n  pop\n  dataSize(sub_0)\n  dup1\n  dataOffset(sub_0)\n  0x00\n  codecopy\n  0x00\n  return\nstop\n\nsub_0: assembly {\n        /* \"Tipos de variables y operadores/modificadores.sol\":27:100  contract public_private_internal{\r... */\n      mstore(0x40, 0x80)\n      callvalue\n        /* \"--CODEGEN--\":8:17   */\n      dup1\n        /* \"--CODEGEN--\":5:7   */\n      iszero\n      tag_1\n      jumpi\n        /* \"--CODEGEN--\":30:31   */\n      0x00\n        /* \"--CODEGEN--\":27:28   */\n      dup1\n        /* \"--CODEGEN--\":20:32   */\n      revert\n        /* \"--CODEGEN--\":5:7   */\n    tag_1:\n        /* \"Tipos de variables y operadores/modificadores.sol\":27:100  contract public_private_internal{\r... */\n      pop\n      jumpi(tag_2, lt(calldatasize, 0x04))\n      shr(0xe0, calldataload(0x00))\n      dup1\n      0x91a1f789\n      eq\n      tag_3\n      jumpi\n    tag_2:\n      0x00\n      dup1\n      revert\n        /* \"Tipos de variables y operadores/modificadores.sol\":68:94  uint public mi_entero = 43 */\n    tag_3:\n      tag_4\n      tag_5\n      jump\t// in\n    tag_4:\n      mload(0x40)\n      dup1\n      dup3\n      dup2\n      mstore\n      0x20\n      add\n      swap2\n      pop\n      pop\n      mload(0x40)\n      dup1\n      swap2\n      sub\n      swap1\n      return\n    tag_5:\n      sload(0x00)\n      dup2\n      jump\t// out\n\n    auxdata: 0xa2646970667358221220bd157d60688c6eb78a1132eba2444c427eb5a1566a3b16e9309f0807df04e07f64736f6c63430006000033\n}\n",
				"bytecode": {
					"linkReferences": {},
					"object": "6080604052602b600055348015601457600080fd5b506085806100236000396000f3fe6080604052348015600f57600080fd5b506004361060285760003560e01c806391a1f78914602d575b600080fd5b60336049565b6040518082815260200191505060405180910390f35b6000548156fea2646970667358221220bd157d60688c6eb78a1132eba2444c427eb5a1566a3b16e9309f0807df04e07f64736f6c63430006000033",
					"opcodes": "PUSH1 0x80 PUSH1 0x40 MSTORE PUSH1 0x2B PUSH1 0x0 SSTORE CALLVALUE DUP1 ISZERO PUSH1 0x14 JUMPI PUSH1 0x0 DUP1 REVERT JUMPDEST POP PUSH1 0x85 DUP1 PUSH2 0x23 PUSH1 0x0 CODECOPY PUSH1 0x0 RETURN INVALID PUSH1 0x80 PUSH1 0x40 MSTORE CALLVALUE DUP1 ISZERO PUSH1 0xF JUMPI PUSH1 0x0 DUP1 REVERT JUMPDEST POP PUSH1 0x4 CALLDATASIZE LT PUSH1 0x28 JUMPI PUSH1 0x0 CALLDATALOAD PUSH1 0xE0 SHR DUP1 PUSH4 0x91A1F789 EQ PUSH1 0x2D JUMPI JUMPDEST PUSH1 0x0 DUP1 REVERT JUMPDEST PUSH1 0x33 PUSH1 0x49 JUMP JUMPDEST PUSH1 0x40 MLOAD DUP1 DUP3 DUP2 MSTORE PUSH1 0x20 ADD SWAP2 POP POP PUSH1 0x40 MLOAD DUP1 SWAP2 SUB SWAP1 RETURN JUMPDEST PUSH1 0x0 SLOAD DUP2 JUMP INVALID LOG2 PUSH5 0x6970667358 0x22 SLT KECCAK256 0xBD ISZERO PUSH30 0x60688C6EB78A1132EBA2444C427EB5A1566A3B16E9309F0807DF04E07F64 PUSH20 0x6F6C634300060000330000000000000000000000 "
				},
				"gasEstimates": {
					"creation": {
						"codeDepositCost": "26600",
						"executionCost": "20087",
						"totalCost": "46687"
					},
					"external": {
						"mi_entero()": "983"
					}
				},
				"methodIdentifiers": {
					"mi_entero()": "91a1f789"
				}
			},
			"storageLayout": {
				"storage": [
					{
						"astId": 4,
						"contract": "Tipos de variables y operadores/modificadores.sol:public_private_internal",
						"label": "mi_entero",
						"offset": 0,
						"slot": "0",
						"type": "t_uint256"
					}
				],
				"types": {
					"t_uint256": {
						"encoding": "inplace",
						"label": "uint256",
						"numberOfBytes": "32"
					}
				}
			},
			"userdoc": {
				"methods": {}
			}
		}
	}
}