{
	"Tipos de variables y operadores/enums.sol": {
		"ejemplos_enumeraciones": {
			"abi": [
				{
					"constant": false,
					"inputs": [
						{
							"internalType": "uint256",
							"name": "_k",
							"type": "uint256"
						}
					],
					"name": "encender",
					"outputs": [],
					"payable": false,
					"stateMutability": "nonpayable",
					"type": "function"
				},
				{
					"constant": false,
					"inputs": [],
					"name": "encender",
					"outputs": [],
					"payable": false,
					"stateMutability": "nonpayable",
					"type": "function"
				},
				{
					"constant": true,
					"inputs": [],
					"name": "getEstado",
					"outputs": [
						{
							"internalType": "enum ejemplos_enumeraciones.estado",
							"name": "",
							"type": "uint8"
						}
					],
					"payable": false,
					"stateMutability": "view",
					"type": "function"
				}
			],
			"devdoc": {
				"methods": {}
			},
			"evm": {
				"assembly": "    /* \"Tipos de variables y operadores/enums.sol\":27:405  contract ejemplos_enumeraciones{\r... */\n  mstore(0x40, 0x80)\n  callvalue\n    /* \"--CODEGEN--\":8:17   */\n  dup1\n    /* \"--CODEGEN--\":5:7   */\n  iszero\n  tag_1\n  jumpi\n    /* \"--CODEGEN--\":30:31   */\n  0x00\n    /* \"--CODEGEN--\":27:28   */\n  dup1\n    /* \"--CODEGEN--\":20:32   */\n  revert\n    /* \"--CODEGEN--\":5:7   */\ntag_1:\n    /* \"Tipos de variables y operadores/enums.sol\":27:405  contract ejemplos_enumeraciones{\r... */\n  pop\n  dataSize(sub_0)\n  dup1\n  dataOffset(sub_0)\n  0x00\n  codecopy\n  0x00\n  return\nstop\n\nsub_0: assembly {\n        /* \"Tipos de variables y operadores/enums.sol\":27:405  contract ejemplos_enumeraciones{\r... */\n      mstore(0x40, 0x80)\n      callvalue\n        /* \"--CODEGEN--\":8:17   */\n      dup1\n        /* \"--CODEGEN--\":5:7   */\n      iszero\n      tag_1\n      jumpi\n        /* \"--CODEGEN--\":30:31   */\n      0x00\n        /* \"--CODEGEN--\":27:28   */\n      dup1\n        /* \"--CODEGEN--\":20:32   */\n      revert\n        /* \"--CODEGEN--\":5:7   */\n    tag_1:\n        /* \"Tipos de variables y operadores/enums.sol\":27:405  contract ejemplos_enumeraciones{\r... */\n      pop\n      jumpi(tag_2, lt(calldatasize, 0x04))\n      shr(0xe0, calldataload(0x00))\n      dup1\n      0x40204110\n      eq\n      tag_3\n      jumpi\n      dup1\n      0x6d07d7e3\n      eq\n      tag_4\n      jumpi\n      dup1\n      0xe9073c33\n      eq\n      tag_5\n      jumpi\n    tag_2:\n      0x00\n      dup1\n      revert\n        /* \"Tipos de variables y operadores/enums.sol\":186:256  function encender(uint _k) public{\r... */\n    tag_3:\n      tag_6\n      0x04\n      dup1\n      calldatasize\n      sub\n        /* \"--CODEGEN--\":13:15   */\n      0x20\n        /* \"--CODEGEN--\":8:11   */\n      dup2\n        /* \"--CODEGEN--\":5:16   */\n      lt\n        /* \"--CODEGEN--\":2:4   */\n      iszero\n      tag_7\n      jumpi\n        /* \"--CODEGEN--\":29:30   */\n      0x00\n        /* \"--CODEGEN--\":26:27   */\n      dup1\n        /* \"--CODEGEN--\":19:31   */\n      revert\n        /* \"--CODEGEN--\":2:4   */\n    tag_7:\n        /* \"Tipos de variables y operadores/enums.sol\":186:256  function encender(uint _k) public{\r... */\n      dup2\n      add\n      swap1\n      dup1\n      dup1\n      calldataload\n      swap1\n      0x20\n      add\n      swap1\n      swap3\n      swap2\n      swap1\n      pop\n      pop\n      pop\n      tag_8\n      jump\t// in\n    tag_6:\n      stop\n        /* \"Tipos de variables y operadores/enums.sol\":264:343  function getEstado() public view returns(estado){\r... */\n    tag_4:\n      tag_9\n      tag_10\n      jump\t// in\n    tag_9:\n      mload(0x40)\n      dup1\n      dup3\n      0x01\n      dup2\n      gt\n      iszero\n      tag_11\n      jumpi\n      invalid\n    tag_11:\n      0xff\n      and\n      dup2\n      mstore\n      0x20\n      add\n      swap2\n      pop\n      pop\n      mload(0x40)\n      dup1\n      swap2\n      sub\n      swap1\n      return\n        /* \"Tipos de variables y operadores/enums.sol\":116:178  function encender() public{\r... */\n    tag_5:\n      tag_12\n      tag_13\n      jump\t// in\n    tag_12:\n      stop\n        /* \"Tipos de variables y operadores/enums.sol\":186:256  function encender(uint _k) public{\r... */\n    tag_8:\n        /* \"Tipos de variables y operadores/enums.sol\":245:247  _k */\n      dup1\n        /* \"Tipos de variables y operadores/enums.sol\":238:248  estado(_k) */\n      0x01\n      dup2\n      gt\n      iszero\n      tag_15\n      jumpi\n      invalid\n    tag_15:\n        /* \"Tipos de variables y operadores/enums.sol\":230:235  state */\n      0x00\n      dup1\n        /* \"Tipos de variables y operadores/enums.sol\":230:248  state = estado(_k) */\n      0x0100\n      exp\n      dup2\n      sload\n      dup2\n      0xff\n      mul\n      not\n      and\n      swap1\n      dup4\n      0x01\n      dup2\n      gt\n      iszero\n      tag_16\n      jumpi\n      invalid\n    tag_16:\n      mul\n      or\n      swap1\n      sstore\n      pop\n        /* \"Tipos de variables y operadores/enums.sol\":186:256  function encender(uint _k) public{\r... */\n      pop\n      jump\t// out\n        /* \"Tipos de variables y operadores/enums.sol\":264:343  function getEstado() public view returns(estado){\r... */\n    tag_10:\n        /* \"Tipos de variables y operadores/enums.sol\":305:311  estado */\n      0x00\n        /* \"Tipos de variables y operadores/enums.sol\":330:335  state */\n      dup1\n      0x00\n      swap1\n      sload\n      swap1\n      0x0100\n      exp\n      swap1\n      div\n      0xff\n      and\n        /* \"Tipos de variables y operadores/enums.sol\":323:335  return state */\n      swap1\n      pop\n        /* \"Tipos de variables y operadores/enums.sol\":264:343  function getEstado() public view returns(estado){\r... */\n      swap1\n      jump\t// out\n        /* \"Tipos de variables y operadores/enums.sol\":116:178  function encender() public{\r... */\n    tag_13:\n        /* \"Tipos de variables y operadores/enums.sol\":161:170  estado.ON */\n      0x00\n        /* \"Tipos de variables y operadores/enums.sol\":153:158  state */\n      dup1\n      0x00\n        /* \"Tipos de variables y operadores/enums.sol\":153:170  state = estado.ON */\n      0x0100\n      exp\n      dup2\n      sload\n      dup2\n      0xff\n      mul\n      not\n      and\n      swap1\n      dup4\n      0x01\n      dup2\n      gt\n      iszero\n      tag_19\n      jumpi\n      invalid\n    tag_19:\n      mul\n      or\n      swap1\n      sstore\n      pop\n        /* \"Tipos de variables y operadores/enums.sol\":116:178  function encender() public{\r... */\n      jump\t// out\n\n    auxdata: 0xa265627a7a72315820b90946e506af68847c38f3b0c6cc6a60855bc962fa2a31f59bdc26b5dfededc464736f6c63430005110032\n}\n",
				"bytecode": {
					"linkReferences": {},
					"object": "608060405234801561001057600080fd5b5061014a806100206000396000f3fe608060405234801561001057600080fd5b50600436106100415760003560e01c806340204110146100465780636d07d7e314610074578063e9073c33146100a0575b600080fd5b6100726004803603602081101561005c57600080fd5b81019080803590602001909291905050506100aa565b005b61007c6100da565b6040518082600181111561008c57fe5b60ff16815260200191505060405180910390f35b6100a86100f0565b005b8060018111156100b657fe5b6000806101000a81548160ff021916908360018111156100d257fe5b021790555050565b60008060009054906101000a900460ff16905090565b60008060006101000a81548160ff0219169083600181111561010e57fe5b021790555056fea265627a7a72315820b90946e506af68847c38f3b0c6cc6a60855bc962fa2a31f59bdc26b5dfededc464736f6c63430005110032",
					"opcodes": "PUSH1 0x80 PUSH1 0x40 MSTORE CALLVALUE DUP1 ISZERO PUSH2 0x10 JUMPI PUSH1 0x0 DUP1 REVERT JUMPDEST POP PUSH2 0x14A DUP1 PUSH2 0x20 PUSH1 0x0 CODECOPY PUSH1 0x0 RETURN INVALID PUSH1 0x80 PUSH1 0x40 MSTORE CALLVALUE DUP1 ISZERO PUSH2 0x10 JUMPI PUSH1 0x0 DUP1 REVERT JUMPDEST POP PUSH1 0x4 CALLDATASIZE LT PUSH2 0x41 JUMPI PUSH1 0x0 CALLDATALOAD PUSH1 0xE0 SHR DUP1 PUSH4 0x40204110 EQ PUSH2 0x46 JUMPI DUP1 PUSH4 0x6D07D7E3 EQ PUSH2 0x74 JUMPI DUP1 PUSH4 0xE9073C33 EQ PUSH2 0xA0 JUMPI JUMPDEST PUSH1 0x0 DUP1 REVERT JUMPDEST PUSH2 0x72 PUSH1 0x4 DUP1 CALLDATASIZE SUB PUSH1 0x20 DUP2 LT ISZERO PUSH2 0x5C JUMPI PUSH1 0x0 DUP1 REVERT JUMPDEST DUP2 ADD SWAP1 DUP1 DUP1 CALLDATALOAD SWAP1 PUSH1 0x20 ADD SWAP1 SWAP3 SWAP2 SWAP1 POP POP POP PUSH2 0xAA JUMP JUMPDEST STOP JUMPDEST PUSH2 0x7C PUSH2 0xDA JUMP JUMPDEST PUSH1 0x40 MLOAD DUP1 DUP3 PUSH1 0x1 DUP2 GT ISZERO PUSH2 0x8C JUMPI INVALID JUMPDEST PUSH1 0xFF AND DUP2 MSTORE PUSH1 0x20 ADD SWAP2 POP POP PUSH1 0x40 MLOAD DUP1 SWAP2 SUB SWAP1 RETURN JUMPDEST PUSH2 0xA8 PUSH2 0xF0 JUMP JUMPDEST STOP JUMPDEST DUP1 PUSH1 0x1 DUP2 GT ISZERO PUSH2 0xB6 JUMPI INVALID JUMPDEST PUSH1 0x0 DUP1 PUSH2 0x100 EXP DUP2 SLOAD DUP2 PUSH1 0xFF MUL NOT AND SWAP1 DUP4 PUSH1 0x1 DUP2 GT ISZERO PUSH2 0xD2 JUMPI INVALID JUMPDEST MUL OR SWAP1 SSTORE POP POP JUMP JUMPDEST PUSH1 0x0 DUP1 PUSH1 0x0 SWAP1 SLOAD SWAP1 PUSH2 0x100 EXP SWAP1 DIV PUSH1 0xFF AND SWAP1 POP SWAP1 JUMP JUMPDEST PUSH1 0x0 DUP1 PUSH1 0x0 PUSH2 0x100 EXP DUP2 SLOAD DUP2 PUSH1 0xFF MUL NOT AND SWAP1 DUP4 PUSH1 0x1 DUP2 GT ISZERO PUSH2 0x10E JUMPI INVALID JUMPDEST MUL OR SWAP1 SSTORE POP JUMP INVALID LOG2 PUSH6 0x627A7A723158 KECCAK256 0xB9 MULMOD CHAINID 0xE5 MOD 0xAF PUSH9 0x847C38F3B0C6CC6A60 DUP6 JUMPDEST 0xC9 PUSH3 0xFA2A31 CREATE2 SWAP12 0xDC 0x26 0xB5 0xDF 0xED 0xED 0xC4 PUSH5 0x736F6C6343 STOP SDIV GT STOP ORIGIN "
				},
				"gasEstimates": {
					"creation": {
						"codeDepositCost": "66000",
						"executionCost": "117",
						"totalCost": "66117"
					},
					"external": {
						"encender()": "21053",
						"encender(uint256)": "21119",
						"getEstado()": "1081"
					}
				},
				"methodIdentifiers": {
					"encender()": "e9073c33",
					"encender(uint256)": "40204110",
					"getEstado()": "6d07d7e3"
				}
			},
			"storageLayout": {
				"storage": [
					{
						"astId": 6,
						"contract": "Tipos de variables y operadores/enums.sol:ejemplos_enumeraciones",
						"label": "state",
						"offset": 0,
						"slot": "0",
						"type": "t_enum(estado)4"
					}
				],
				"types": {
					"t_enum(estado)4": {
						"encoding": "inplace",
						"label": "enum ejemplos_enumeraciones.estado",
						"numberOfBytes": "1"
					}
				}
			},
			"userdoc": {
				"methods": {}
			}
		}
	}
}