{
	"Tipos de variables y operadores/tiempo.sol": {
		"tiempo": {
			"abi": [
				{
					"constant": true,
					"inputs": [],
					"name": "dia",
					"outputs": [
						{
							"internalType": "uint256",
							"name": "",
							"type": "uint256"
						}
					],
					"payable": false,
					"stateMutability": "view",
					"type": "function"
				},
				{
					"constant": true,
					"inputs": [],
					"name": "hora",
					"outputs": [
						{
							"internalType": "uint256",
							"name": "",
							"type": "uint256"
						}
					],
					"payable": false,
					"stateMutability": "view",
					"type": "function"
				},
				{
					"constant": true,
					"inputs": [],
					"name": "minuto",
					"outputs": [
						{
							"internalType": "uint256",
							"name": "",
							"type": "uint256"
						}
					],
					"payable": false,
					"stateMutability": "view",
					"type": "function"
				},
				{
					"constant": true,
					"inputs": [],
					"name": "tiempo_actual",
					"outputs": [
						{
							"internalType": "uint256",
							"name": "",
							"type": "uint256"
						}
					],
					"payable": false,
					"stateMutability": "view",
					"type": "function"
				}
			],
			"devdoc": {
				"methods": {}
			},
			"evm": {
				"assembly": "    /* \"Tipos de variables y operadores/tiempo.sol\":27:194  contract tiempo{\r... */\n  mstore(0x40, 0x80)\n    /* \"Tipos de variables y operadores/tiempo.sol\":83:86  now */\n  timestamp\n    /* \"Tipos de variables y operadores/tiempo.sol\":55:86  uint public tiempo_actual = now */\n  0x00\n  sstore\n    /* \"Tipos de variables y operadores/tiempo.sol\":114:123  1 minutes */\n  0x3c\n    /* \"Tipos de variables y operadores/tiempo.sol\":93:123  uint public minuto = 1 minutes */\n  0x01\n  sstore\n    /* \"Tipos de variables y operadores/tiempo.sol\":149:156  1 hours */\n  0x0e10\n    /* \"Tipos de variables y operadores/tiempo.sol\":130:156  uint public hora = 1 hours */\n  0x02\n  sstore\n    /* \"Tipos de variables y operadores/tiempo.sol\":181:188  1 hours */\n  0x0e10\n    /* \"Tipos de variables y operadores/tiempo.sol\":163:188  uint public dia = 1 hours */\n  0x03\n  sstore\n    /* \"Tipos de variables y operadores/tiempo.sol\":27:194  contract tiempo{\r... */\n  callvalue\n    /* \"--CODEGEN--\":8:17   */\n  dup1\n    /* \"--CODEGEN--\":5:7   */\n  iszero\n  tag_1\n  jumpi\n    /* \"--CODEGEN--\":30:31   */\n  0x00\n    /* \"--CODEGEN--\":27:28   */\n  dup1\n    /* \"--CODEGEN--\":20:32   */\n  revert\n    /* \"--CODEGEN--\":5:7   */\ntag_1:\n    /* \"Tipos de variables y operadores/tiempo.sol\":27:194  contract tiempo{\r... */\n  pop\n  dataSize(sub_0)\n  dup1\n  dataOffset(sub_0)\n  0x00\n  codecopy\n  0x00\n  return\nstop\n\nsub_0: assembly {\n        /* \"Tipos de variables y operadores/tiempo.sol\":27:194  contract tiempo{\r... */\n      mstore(0x40, 0x80)\n      callvalue\n        /* \"--CODEGEN--\":8:17   */\n      dup1\n        /* \"--CODEGEN--\":5:7   */\n      iszero\n      tag_1\n      jumpi\n        /* \"--CODEGEN--\":30:31   */\n      0x00\n        /* \"--CODEGEN--\":27:28   */\n      dup1\n        /* \"--CODEGEN--\":20:32   */\n      revert\n        /* \"--CODEGEN--\":5:7   */\n    tag_1:\n        /* \"Tipos de variables y operadores/tiempo.sol\":27:194  contract tiempo{\r... */\n      pop\n      jumpi(tag_2, lt(calldatasize, 0x04))\n      shr(0xe0, calldataload(0x00))\n      dup1\n      0x56b09482\n      eq\n      tag_3\n      jumpi\n      dup1\n      0x5a9606a4\n      eq\n      tag_4\n      jumpi\n      dup1\n      0xc77e3e98\n      eq\n      tag_5\n      jumpi\n      dup1\n      0xe70ce4f3\n      eq\n      tag_6\n      jumpi\n    tag_2:\n      0x00\n      dup1\n      revert\n        /* \"Tipos de variables y operadores/tiempo.sol\":130:156  uint public hora = 1 hours */\n    tag_3:\n      tag_7\n      tag_8\n      jump\t// in\n    tag_7:\n      mload(0x40)\n      dup1\n      dup3\n      dup2\n      mstore\n      0x20\n      add\n      swap2\n      pop\n      pop\n      mload(0x40)\n      dup1\n      swap2\n      sub\n      swap1\n      return\n        /* \"Tipos de variables y operadores/tiempo.sol\":55:86  uint public tiempo_actual = now */\n    tag_4:\n      tag_9\n      tag_10\n      jump\t// in\n    tag_9:\n      mload(0x40)\n      dup1\n      dup3\n      dup2\n      mstore\n      0x20\n      add\n      swap2\n      pop\n      pop\n      mload(0x40)\n      dup1\n      swap2\n      sub\n      swap1\n      return\n        /* \"Tipos de variables y operadores/tiempo.sol\":163:188  uint public dia = 1 hours */\n    tag_5:\n      tag_11\n      tag_12\n      jump\t// in\n    tag_11:\n      mload(0x40)\n      dup1\n      dup3\n      dup2\n      mstore\n      0x20\n      add\n      swap2\n      pop\n      pop\n      mload(0x40)\n      dup1\n      swap2\n      sub\n      swap1\n      return\n        /* \"Tipos de variables y operadores/tiempo.sol\":93:123  uint public minuto = 1 minutes */\n    tag_6:\n      tag_13\n      tag_14\n      jump\t// in\n    tag_13:\n      mload(0x40)\n      dup1\n      dup3\n      dup2\n      mstore\n      0x20\n      add\n      swap2\n      pop\n      pop\n      mload(0x40)\n      dup1\n      swap2\n      sub\n      swap1\n      return\n        /* \"Tipos de variables y operadores/tiempo.sol\":130:156  uint public hora = 1 hours */\n    tag_8:\n      sload(0x02)\n      dup2\n      jump\t// out\n        /* \"Tipos de variables y operadores/tiempo.sol\":55:86  uint public tiempo_actual = now */\n    tag_10:\n      sload(0x00)\n      dup2\n      jump\t// out\n        /* \"Tipos de variables y operadores/tiempo.sol\":163:188  uint public dia = 1 hours */\n    tag_12:\n      sload(0x03)\n      dup2\n      jump\t// out\n        /* \"Tipos de variables y operadores/tiempo.sol\":93:123  uint public minuto = 1 minutes */\n    tag_14:\n      sload(0x01)\n      dup2\n      jump\t// out\n\n    auxdata: 0xa265627a7a72315820d19d53dcc2904a6cf696d1215fb96a0f6e6185ee06262eb9ca6ce703e46826b564736f6c63430005110032\n}\n",
				"bytecode": {
					"linkReferences": {},
					"object": "608060405242600055603c600155610e10600255610e1060035534801561002557600080fd5b50610108806100356000396000f3fe6080604052348015600f57600080fd5b506004361060465760003560e01c806356b0948214604b5780635a9606a4146067578063c77e3e98146083578063e70ce4f314609f575b600080fd5b605160bb565b6040518082815260200191505060405180910390f35b606d60c1565b6040518082815260200191505060405180910390f35b608960c7565b6040518082815260200191505060405180910390f35b60a560cd565b6040518082815260200191505060405180910390f35b60025481565b60005481565b60035481565b6001548156fea265627a7a72315820d19d53dcc2904a6cf696d1215fb96a0f6e6185ee06262eb9ca6ce703e46826b564736f6c63430005110032",
					"opcodes": "PUSH1 0x80 PUSH1 0x40 MSTORE TIMESTAMP PUSH1 0x0 SSTORE PUSH1 0x3C PUSH1 0x1 SSTORE PUSH2 0xE10 PUSH1 0x2 SSTORE PUSH2 0xE10 PUSH1 0x3 SSTORE CALLVALUE DUP1 ISZERO PUSH2 0x25 JUMPI PUSH1 0x0 DUP1 REVERT JUMPDEST POP PUSH2 0x108 DUP1 PUSH2 0x35 PUSH1 0x0 CODECOPY PUSH1 0x0 RETURN INVALID PUSH1 0x80 PUSH1 0x40 MSTORE CALLVALUE DUP1 ISZERO PUSH1 0xF JUMPI PUSH1 0x0 DUP1 REVERT JUMPDEST POP PUSH1 0x4 CALLDATASIZE LT PUSH1 0x46 JUMPI PUSH1 0x0 CALLDATALOAD PUSH1 0xE0 SHR DUP1 PUSH4 0x56B09482 EQ PUSH1 0x4B JUMPI DUP1 PUSH4 0x5A9606A4 EQ PUSH1 0x67 JUMPI DUP1 PUSH4 0xC77E3E98 EQ PUSH1 0x83 JUMPI DUP1 PUSH4 0xE70CE4F3 EQ PUSH1 0x9F JUMPI JUMPDEST PUSH1 0x0 DUP1 REVERT JUMPDEST PUSH1 0x51 PUSH1 0xBB JUMP JUMPDEST PUSH1 0x40 MLOAD DUP1 DUP3 DUP2 MSTORE PUSH1 0x20 ADD SWAP2 POP POP PUSH1 0x40 MLOAD DUP1 SWAP2 SUB SWAP1 RETURN JUMPDEST PUSH1 0x6D PUSH1 0xC1 JUMP JUMPDEST PUSH1 0x40 MLOAD DUP1 DUP3 DUP2 MSTORE PUSH1 0x20 ADD SWAP2 POP POP PUSH1 0x40 MLOAD DUP1 SWAP2 SUB SWAP1 RETURN JUMPDEST PUSH1 0x89 PUSH1 0xC7 JUMP JUMPDEST PUSH1 0x40 MLOAD DUP1 DUP3 DUP2 MSTORE PUSH1 0x20 ADD SWAP2 POP POP PUSH1 0x40 MLOAD DUP1 SWAP2 SUB SWAP1 RETURN JUMPDEST PUSH1 0xA5 PUSH1 0xCD JUMP JUMPDEST PUSH1 0x40 MLOAD DUP1 DUP3 DUP2 MSTORE PUSH1 0x20 ADD SWAP2 POP POP PUSH1 0x40 MLOAD DUP1 SWAP2 SUB SWAP1 RETURN JUMPDEST PUSH1 0x2 SLOAD DUP2 JUMP JUMPDEST PUSH1 0x0 SLOAD DUP2 JUMP JUMPDEST PUSH1 0x3 SLOAD DUP2 JUMP JUMPDEST PUSH1 0x1 SLOAD DUP2 JUMP INVALID LOG2 PUSH6 0x627A7A723158 KECCAK256 0xD1 SWAP14 MSTORE8 0xDC 0xC2 SWAP1 0x4A PUSH13 0xF696D1215FB96A0F6E6185EE06 0x26 0x2E 0xB9 0xCA PUSH13 0xE703E46826B564736F6C634300 SDIV GT STOP ORIGIN "
				},
				"gasEstimates": {
					"creation": {
						"codeDepositCost": "52800",
						"executionCost": "80128",
						"totalCost": "132928"
					},
					"external": {
						"dia()": "1027",
						"hora()": "983",
						"minuto()": "1049",
						"tiempo_actual()": "1005"
					}
				},
				"methodIdentifiers": {
					"dia()": "c77e3e98",
					"hora()": "56b09482",
					"minuto()": "e70ce4f3",
					"tiempo_actual()": "5a9606a4"
				}
			},
			"storageLayout": {
				"storage": [
					{
						"astId": 4,
						"contract": "Tipos de variables y operadores/tiempo.sol:tiempo",
						"label": "tiempo_actual",
						"offset": 0,
						"slot": "0",
						"type": "t_uint256"
					},
					{
						"astId": 7,
						"contract": "Tipos de variables y operadores/tiempo.sol:tiempo",
						"label": "minuto",
						"offset": 0,
						"slot": "1",
						"type": "t_uint256"
					},
					{
						"astId": 10,
						"contract": "Tipos de variables y operadores/tiempo.sol:tiempo",
						"label": "hora",
						"offset": 0,
						"slot": "2",
						"type": "t_uint256"
					},
					{
						"astId": 13,
						"contract": "Tipos de variables y operadores/tiempo.sol:tiempo",
						"label": "dia",
						"offset": 0,
						"slot": "3",
						"type": "t_uint256"
					}
				],
				"types": {
					"t_uint256": {
						"encoding": "inplace",
						"label": "uint256",
						"numberOfBytes": "32"
					}
				}
			},
			"userdoc": {
				"methods": {}
			}
		}
	}
}