{
	"Tipos de variables y operadores/comparar_strings.sol": {
		"compararStrings": {
			"abi": [
				{
					"inputs": [
						{
							"internalType": "string",
							"name": "_a",
							"type": "string"
						},
						{
							"internalType": "string",
							"name": "_b",
							"type": "string"
						}
					],
					"name": "comparar",
					"outputs": [
						{
							"internalType": "bool",
							"name": "",
							"type": "bool"
						}
					],
					"stateMutability": "view",
					"type": "function"
				}
			],
			"devdoc": {
				"methods": {}
			},
			"evm": {
				"assembly": "    /* \"Tipos de variables y operadores/comparar_strings.sol\":62:245  contract compararStrings{\r... */\n  mstore(0x40, 0x80)\n  callvalue\n    /* \"--CODEGEN--\":8:17   */\n  dup1\n    /* \"--CODEGEN--\":5:7   */\n  iszero\n  tag_1\n  jumpi\n    /* \"--CODEGEN--\":30:31   */\n  0x00\n    /* \"--CODEGEN--\":27:28   */\n  dup1\n    /* \"--CODEGEN--\":20:32   */\n  revert\n    /* \"--CODEGEN--\":5:7   */\ntag_1:\n    /* \"Tipos de variables y operadores/comparar_strings.sol\":62:245  contract compararStrings{\r... */\n  pop\n  dataSize(sub_0)\n  dup1\n  dataOffset(sub_0)\n  0x00\n  codecopy\n  0x00\n  return\nstop\n\nsub_0: assembly {\n        /* \"Tipos de variables y operadores/comparar_strings.sol\":62:245  contract compararStrings{\r... */\n      mstore(0x40, 0x80)\n      callvalue\n        /* \"--CODEGEN--\":8:17   */\n      dup1\n        /* \"--CODEGEN--\":5:7   */\n      iszero\n      tag_1\n      jumpi\n        /* \"--CODEGEN--\":30:31   */\n      0x00\n        /* \"--CODEGEN--\":27:28   */\n      dup1\n        /* \"--CODEGEN--\":20:32   */\n      revert\n        /* \"--CODEGEN--\":5:7   */\n    tag_1:\n        /* \"Tipos de variables y operadores/comparar_strings.sol\":62:245  contract compararStrings{\r... */\n      pop\n      jumpi(tag_2, lt(calldatasize, 0x04))\n      shr(0xe0, calldataload(0x00))\n      dup1\n      0x32af93f7\n      eq\n      tag_3\n      jumpi\n    tag_2:\n      0x00\n      dup1\n      revert\n        /* \"Tipos de variables y operadores/comparar_strings.sol\":95:242  function comparar(string memory _a, string memory _b) public view returns (bool){\r... */\n    tag_3:\n      tag_4\n      0x04\n      dup1\n      calldatasize\n      sub\n      tag_5\n      swap2\n      swap1\n      dup2\n      add\n      swap1\n      jump(tag_6)\n    tag_5:\n      tag_7\n      jump\t// in\n    tag_4:\n      mload(0x40)\n      tag_8\n      swap2\n      swap1\n      jump(tag_9)\n    tag_8:\n      mload(0x40)\n      dup1\n      swap2\n      sub\n      swap1\n      return\n    tag_7:\n        /* \"Tipos de variables y operadores/comparar_strings.sol\":170:174  bool */\n      0x00\n        /* \"Tipos de variables y operadores/comparar_strings.sol\":186:200  bytes32 hash_a */\n      dup1\n        /* \"Tipos de variables y operadores/comparar_strings.sol\":230:232  _a */\n      dup4\n        /* \"Tipos de variables y operadores/comparar_strings.sol\":213:233  abi.encodePacked(_a) */\n      add(0x20, mload(0x40))\n      tag_11\n      swap2\n      swap1\n      jump(tag_12)\n    tag_11:\n      mload(0x40)\n        /* \"--CODEGEN--\":49:53   */\n      0x20\n        /* \"--CODEGEN--\":39:46   */\n      dup2\n        /* \"--CODEGEN--\":30:37   */\n      dup4\n        /* \"--CODEGEN--\":26:47   */\n      sub\n        /* \"--CODEGEN--\":22:54   */\n      sub\n        /* \"--CODEGEN--\":13:20   */\n      dup2\n        /* \"--CODEGEN--\":6:55   */\n      mstore\n        /* \"Tipos de variables y operadores/comparar_strings.sol\":213:233  abi.encodePacked(_a) */\n      swap1\n      0x40\n      mstore\n        /* \"Tipos de variables y operadores/comparar_strings.sol\":203:234  keccak256(abi.encodePacked(_a)) */\n      dup1\n      mload\n      swap1\n      0x20\n      add\n      keccak256\n        /* \"Tipos de variables y operadores/comparar_strings.sol\":186:234  bytes32 hash_a = keccak256(abi.encodePacked(_a)) */\n      swap1\n      pop\n        /* \"Tipos de variables y operadores/comparar_strings.sol\":95:242  function comparar(string memory _a, string memory _b) public view returns (bool){\r... */\n      pop\n      swap3\n      swap2\n      pop\n      pop\n      jump\t// out\n        /* \"--CODEGEN--\":6:448   */\n    tag_14:\n      0x00\n        /* \"--CODEGEN--\":108:111   */\n      dup3\n        /* \"--CODEGEN--\":101:105   */\n      0x1f\n        /* \"--CODEGEN--\":93:99   */\n      dup4\n        /* \"--CODEGEN--\":89:106   */\n      add\n        /* \"--CODEGEN--\":85:112   */\n      slt\n        /* \"--CODEGEN--\":75:77   */\n      tag_16\n      jumpi\n        /* \"--CODEGEN--\":126:127   */\n      0x00\n        /* \"--CODEGEN--\":123:124   */\n      dup1\n        /* \"--CODEGEN--\":116:128   */\n      revert\n        /* \"--CODEGEN--\":75:77   */\n    tag_16:\n        /* \"--CODEGEN--\":163:169   */\n      dup2\n        /* \"--CODEGEN--\":150:170   */\n      calldataload\n        /* \"--CODEGEN--\":185:250   */\n      tag_17\n        /* \"--CODEGEN--\":200:249   */\n      tag_18\n        /* \"--CODEGEN--\":242:248   */\n      dup3\n        /* \"--CODEGEN--\":200:249   */\n      jump(tag_19)\n    tag_18:\n        /* \"--CODEGEN--\":185:250   */\n      jump(tag_20)\n    tag_17:\n        /* \"--CODEGEN--\":176:250   */\n      swap2\n      pop\n        /* \"--CODEGEN--\":270:276   */\n      dup1\n        /* \"--CODEGEN--\":263:268   */\n      dup3\n        /* \"--CODEGEN--\":256:277   */\n      mstore\n        /* \"--CODEGEN--\":306:310   */\n      0x20\n        /* \"--CODEGEN--\":298:304   */\n      dup4\n        /* \"--CODEGEN--\":294:311   */\n      add\n        /* \"--CODEGEN--\":339:343   */\n      0x20\n        /* \"--CODEGEN--\":332:337   */\n      dup4\n        /* \"--CODEGEN--\":328:344   */\n      add\n        /* \"--CODEGEN--\":374:377   */\n      dup6\n        /* \"--CODEGEN--\":365:371   */\n      dup4\n        /* \"--CODEGEN--\":360:363   */\n      dup4\n        /* \"--CODEGEN--\":356:372   */\n      add\n        /* \"--CODEGEN--\":353:378   */\n      gt\n        /* \"--CODEGEN--\":350:352   */\n      iszero\n      tag_21\n      jumpi\n        /* \"--CODEGEN--\":391:392   */\n      0x00\n        /* \"--CODEGEN--\":388:389   */\n      dup1\n        /* \"--CODEGEN--\":381:393   */\n      revert\n        /* \"--CODEGEN--\":350:352   */\n    tag_21:\n        /* \"--CODEGEN--\":401:442   */\n      tag_22\n        /* \"--CODEGEN--\":435:441   */\n      dup4\n        /* \"--CODEGEN--\":430:433   */\n      dup3\n        /* \"--CODEGEN--\":425:428   */\n      dup5\n        /* \"--CODEGEN--\":401:442   */\n      jump(tag_23)\n    tag_22:\n        /* \"--CODEGEN--\":68:448   */\n      pop\n      pop\n      pop\n      swap3\n      swap2\n      pop\n      pop\n      jump\n        /* \"--CODEGEN--\":456:1034   */\n    tag_6:\n      0x00\n      dup1\n        /* \"--CODEGEN--\":597:599   */\n      0x40\n        /* \"--CODEGEN--\":585:594   */\n      dup4\n        /* \"--CODEGEN--\":576:583   */\n      dup6\n        /* \"--CODEGEN--\":572:595   */\n      sub\n        /* \"--CODEGEN--\":568:600   */\n      slt\n        /* \"--CODEGEN--\":565:567   */\n      iszero\n      tag_25\n      jumpi\n        /* \"--CODEGEN--\":613:614   */\n      0x00\n        /* \"--CODEGEN--\":610:611   */\n      dup1\n        /* \"--CODEGEN--\":603:615   */\n      revert\n        /* \"--CODEGEN--\":565:567   */\n    tag_25:\n        /* \"--CODEGEN--\":676:677   */\n      0x00\n        /* \"--CODEGEN--\":665:674   */\n      dup4\n        /* \"--CODEGEN--\":661:678   */\n      add\n        /* \"--CODEGEN--\":648:679   */\n      calldataload\n        /* \"--CODEGEN--\":699:717   */\n      0xffffffffffffffff\n        /* \"--CODEGEN--\":691:697   */\n      dup2\n        /* \"--CODEGEN--\":688:718   */\n      gt\n        /* \"--CODEGEN--\":685:687   */\n      iszero\n      tag_26\n      jumpi\n        /* \"--CODEGEN--\":731:732   */\n      0x00\n        /* \"--CODEGEN--\":728:729   */\n      dup1\n        /* \"--CODEGEN--\":721:733   */\n      revert\n        /* \"--CODEGEN--\":685:687   */\n    tag_26:\n        /* \"--CODEGEN--\":751:814   */\n      tag_27\n        /* \"--CODEGEN--\":806:813   */\n      dup6\n        /* \"--CODEGEN--\":797:803   */\n      dup3\n        /* \"--CODEGEN--\":786:795   */\n      dup7\n        /* \"--CODEGEN--\":782:804   */\n      add\n        /* \"--CODEGEN--\":751:814   */\n      jump(tag_14)\n    tag_27:\n        /* \"--CODEGEN--\":741:814   */\n      swap3\n      pop\n        /* \"--CODEGEN--\":627:820   */\n      pop\n        /* \"--CODEGEN--\":879:881   */\n      0x20\n        /* \"--CODEGEN--\":868:877   */\n      dup4\n        /* \"--CODEGEN--\":864:882   */\n      add\n        /* \"--CODEGEN--\":851:883   */\n      calldataload\n        /* \"--CODEGEN--\":903:921   */\n      0xffffffffffffffff\n        /* \"--CODEGEN--\":895:901   */\n      dup2\n        /* \"--CODEGEN--\":892:922   */\n      gt\n        /* \"--CODEGEN--\":889:891   */\n      iszero\n      tag_28\n      jumpi\n        /* \"--CODEGEN--\":935:936   */\n      0x00\n        /* \"--CODEGEN--\":932:933   */\n      dup1\n        /* \"--CODEGEN--\":925:937   */\n      revert\n        /* \"--CODEGEN--\":889:891   */\n    tag_28:\n        /* \"--CODEGEN--\":955:1018   */\n      tag_29\n        /* \"--CODEGEN--\":1010:1017   */\n      dup6\n        /* \"--CODEGEN--\":1001:1007   */\n      dup3\n        /* \"--CODEGEN--\":990:999   */\n      dup7\n        /* \"--CODEGEN--\":986:1008   */\n      add\n        /* \"--CODEGEN--\":955:1018   */\n      jump(tag_14)\n    tag_29:\n        /* \"--CODEGEN--\":945:1018   */\n      swap2\n      pop\n        /* \"--CODEGEN--\":830:1024   */\n      pop\n        /* \"--CODEGEN--\":559:1034   */\n      swap3\n      pop\n      swap3\n      swap1\n      pop\n      jump\n        /* \"--CODEGEN--\":1041:1145   */\n    tag_30:\n        /* \"--CODEGEN--\":1118:1139   */\n      tag_32\n        /* \"--CODEGEN--\":1133:1138   */\n      dup2\n        /* \"--CODEGEN--\":1118:1139   */\n      jump(tag_33)\n    tag_32:\n        /* \"--CODEGEN--\":1113:1116   */\n      dup3\n        /* \"--CODEGEN--\":1106:1140   */\n      mstore\n        /* \"--CODEGEN--\":1100:1145   */\n      pop\n      pop\n      jump\n        /* \"--CODEGEN--\":1152:1512   */\n    tag_34:\n      0x00\n        /* \"--CODEGEN--\":1282:1321   */\n      tag_36\n        /* \"--CODEGEN--\":1315:1320   */\n      dup3\n        /* \"--CODEGEN--\":1282:1321   */\n      jump(tag_37)\n    tag_36:\n        /* \"--CODEGEN--\":1333:1422   */\n      tag_38\n        /* \"--CODEGEN--\":1415:1421   */\n      dup2\n        /* \"--CODEGEN--\":1410:1413   */\n      dup6\n        /* \"--CODEGEN--\":1333:1422   */\n      jump(tag_39)\n    tag_38:\n        /* \"--CODEGEN--\":1326:1422   */\n      swap4\n      pop\n        /* \"--CODEGEN--\":1427:1479   */\n      tag_40\n        /* \"--CODEGEN--\":1472:1478   */\n      dup2\n        /* \"--CODEGEN--\":1467:1470   */\n      dup6\n        /* \"--CODEGEN--\":1460:1464   */\n      0x20\n        /* \"--CODEGEN--\":1453:1458   */\n      dup7\n        /* \"--CODEGEN--\":1449:1465   */\n      add\n        /* \"--CODEGEN--\":1427:1479   */\n      jump(tag_41)\n    tag_40:\n        /* \"--CODEGEN--\":1500:1506   */\n      dup1\n        /* \"--CODEGEN--\":1495:1498   */\n      dup5\n        /* \"--CODEGEN--\":1491:1507   */\n      add\n        /* \"--CODEGEN--\":1484:1507   */\n      swap2\n      pop\n        /* \"--CODEGEN--\":1262:1512   */\n      pop\n      swap3\n      swap2\n      pop\n      pop\n      jump\n        /* \"--CODEGEN--\":1519:1785   */\n    tag_12:\n      0x00\n        /* \"--CODEGEN--\":1665:1760   */\n      tag_43\n        /* \"--CODEGEN--\":1756:1759   */\n      dup3\n        /* \"--CODEGEN--\":1747:1753   */\n      dup5\n        /* \"--CODEGEN--\":1665:1760   */\n      jump(tag_34)\n    tag_43:\n        /* \"--CODEGEN--\":1658:1760   */\n      swap2\n      pop\n        /* \"--CODEGEN--\":1777:1780   */\n      dup2\n        /* \"--CODEGEN--\":1770:1780   */\n      swap1\n      pop\n        /* \"--CODEGEN--\":1646:1785   */\n      swap3\n      swap2\n      pop\n      pop\n      jump\n        /* \"--CODEGEN--\":1792:1993   */\n    tag_9:\n      0x00\n        /* \"--CODEGEN--\":1904:1906   */\n      0x20\n        /* \"--CODEGEN--\":1893:1902   */\n      dup3\n        /* \"--CODEGEN--\":1889:1907   */\n      add\n        /* \"--CODEGEN--\":1881:1907   */\n      swap1\n      pop\n        /* \"--CODEGEN--\":1918:1983   */\n      tag_45\n        /* \"--CODEGEN--\":1980:1981   */\n      0x00\n        /* \"--CODEGEN--\":1969:1978   */\n      dup4\n        /* \"--CODEGEN--\":1965:1982   */\n      add\n        /* \"--CODEGEN--\":1956:1962   */\n      dup5\n        /* \"--CODEGEN--\":1918:1983   */\n      jump(tag_30)\n    tag_45:\n        /* \"--CODEGEN--\":1875:1993   */\n      swap3\n      swap2\n      pop\n      pop\n      jump\n        /* \"--CODEGEN--\":2000:2256   */\n    tag_20:\n      0x00\n        /* \"--CODEGEN--\":2062:2064   */\n      0x40\n        /* \"--CODEGEN--\":2056:2065   */\n      mload\n        /* \"--CODEGEN--\":2046:2065   */\n      swap1\n      pop\n        /* \"--CODEGEN--\":2100:2104   */\n      dup2\n        /* \"--CODEGEN--\":2092:2098   */\n      dup2\n        /* \"--CODEGEN--\":2088:2105   */\n      add\n        /* \"--CODEGEN--\":2199:2205   */\n      dup2\n        /* \"--CODEGEN--\":2187:2197   */\n      dup2\n        /* \"--CODEGEN--\":2184:2206   */\n      lt\n        /* \"--CODEGEN--\":2163:2181   */\n      0xffffffffffffffff\n        /* \"--CODEGEN--\":2151:2161   */\n      dup3\n        /* \"--CODEGEN--\":2148:2182   */\n      gt\n        /* \"--CODEGEN--\":2145:2207   */\n      or\n        /* \"--CODEGEN--\":2142:2144   */\n      iszero\n      tag_47\n      jumpi\n        /* \"--CODEGEN--\":2220:2221   */\n      0x00\n        /* \"--CODEGEN--\":2217:2218   */\n      dup1\n        /* \"--CODEGEN--\":2210:2222   */\n      revert\n        /* \"--CODEGEN--\":2142:2144   */\n    tag_47:\n        /* \"--CODEGEN--\":2240:2250   */\n      dup1\n        /* \"--CODEGEN--\":2236:2238   */\n      0x40\n        /* \"--CODEGEN--\":2229:2251   */\n      mstore\n        /* \"--CODEGEN--\":2040:2256   */\n      pop\n      swap2\n      swap1\n      pop\n      jump\n        /* \"--CODEGEN--\":2263:2585   */\n    tag_19:\n      0x00\n        /* \"--CODEGEN--\":2407:2425   */\n      0xffffffffffffffff\n        /* \"--CODEGEN--\":2399:2405   */\n      dup3\n        /* \"--CODEGEN--\":2396:2426   */\n      gt\n        /* \"--CODEGEN--\":2393:2395   */\n      iszero\n      tag_49\n      jumpi\n        /* \"--CODEGEN--\":2439:2440   */\n      0x00\n        /* \"--CODEGEN--\":2436:2437   */\n      dup1\n        /* \"--CODEGEN--\":2429:2441   */\n      revert\n        /* \"--CODEGEN--\":2393:2395   */\n    tag_49:\n        /* \"--CODEGEN--\":2506:2510   */\n      0x1f\n        /* \"--CODEGEN--\":2502:2511   */\n      not\n        /* \"--CODEGEN--\":2495:2499   */\n      0x1f\n        /* \"--CODEGEN--\":2487:2493   */\n      dup4\n        /* \"--CODEGEN--\":2483:2500   */\n      add\n        /* \"--CODEGEN--\":2479:2512   */\n      and\n        /* \"--CODEGEN--\":2471:2512   */\n      swap1\n      pop\n        /* \"--CODEGEN--\":2570:2574   */\n      0x20\n        /* \"--CODEGEN--\":2564:2568   */\n      dup2\n        /* \"--CODEGEN--\":2560:2575   */\n      add\n        /* \"--CODEGEN--\":2552:2575   */\n      swap1\n      pop\n        /* \"--CODEGEN--\":2330:2585   */\n      swap2\n      swap1\n      pop\n      jump\n        /* \"--CODEGEN--\":2592:2714   */\n    tag_37:\n      0x00\n        /* \"--CODEGEN--\":2686:2691   */\n      dup2\n        /* \"--CODEGEN--\":2680:2692   */\n      mload\n        /* \"--CODEGEN--\":2670:2692   */\n      swap1\n      pop\n        /* \"--CODEGEN--\":2651:2714   */\n      swap2\n      swap1\n      pop\n      jump\n        /* \"--CODEGEN--\":2722:2867   */\n    tag_39:\n      0x00\n        /* \"--CODEGEN--\":2858:2861   */\n      dup2\n        /* \"--CODEGEN--\":2843:2861   */\n      swap1\n      pop\n        /* \"--CODEGEN--\":2836:2867   */\n      swap3\n      swap2\n      pop\n      pop\n      jump\n        /* \"--CODEGEN--\":2875:2960   */\n    tag_33:\n      0x00\n        /* \"--CODEGEN--\":2948:2953   */\n      dup2\n        /* \"--CODEGEN--\":2941:2954   */\n      iszero\n        /* \"--CODEGEN--\":2934:2955   */\n      iszero\n        /* \"--CODEGEN--\":2923:2955   */\n      swap1\n      pop\n        /* \"--CODEGEN--\":2917:2960   */\n      swap2\n      swap1\n      pop\n      jump\n        /* \"--CODEGEN--\":2968:3113   */\n    tag_23:\n        /* \"--CODEGEN--\":3049:3055   */\n      dup3\n        /* \"--CODEGEN--\":3044:3047   */\n      dup2\n        /* \"--CODEGEN--\":3039:3042   */\n      dup4\n        /* \"--CODEGEN--\":3026:3056   */\n      calldatacopy\n        /* \"--CODEGEN--\":3105:3106   */\n      0x00\n        /* \"--CODEGEN--\":3096:3102   */\n      dup4\n        /* \"--CODEGEN--\":3091:3094   */\n      dup4\n        /* \"--CODEGEN--\":3087:3103   */\n      add\n        /* \"--CODEGEN--\":3080:3107   */\n      mstore\n        /* \"--CODEGEN--\":3019:3113   */\n      pop\n      pop\n      pop\n      jump\n        /* \"--CODEGEN--\":3122:3390   */\n    tag_41:\n        /* \"--CODEGEN--\":3187:3188   */\n      0x00\n        /* \"--CODEGEN--\":3194:3295   */\n    tag_55:\n        /* \"--CODEGEN--\":3208:3214   */\n      dup4\n        /* \"--CODEGEN--\":3205:3206   */\n      dup2\n        /* \"--CODEGEN--\":3202:3215   */\n      lt\n        /* \"--CODEGEN--\":3194:3295   */\n      iszero\n      tag_57\n      jumpi\n        /* \"--CODEGEN--\":3284:3285   */\n      dup1\n        /* \"--CODEGEN--\":3279:3282   */\n      dup3\n        /* \"--CODEGEN--\":3275:3286   */\n      add\n        /* \"--CODEGEN--\":3269:3287   */\n      mload\n        /* \"--CODEGEN--\":3265:3266   */\n      dup2\n        /* \"--CODEGEN--\":3260:3263   */\n      dup5\n        /* \"--CODEGEN--\":3256:3267   */\n      add\n        /* \"--CODEGEN--\":3249:3288   */\n      mstore\n        /* \"--CODEGEN--\":3230:3232   */\n      0x20\n        /* \"--CODEGEN--\":3227:3228   */\n      dup2\n        /* \"--CODEGEN--\":3223:3233   */\n      add\n        /* \"--CODEGEN--\":3218:3233   */\n      swap1\n      pop\n        /* \"--CODEGEN--\":3194:3295   */\n      jump(tag_55)\n    tag_57:\n        /* \"--CODEGEN--\":3310:3316   */\n      dup4\n        /* \"--CODEGEN--\":3307:3308   */\n      dup2\n        /* \"--CODEGEN--\":3304:3317   */\n      gt\n        /* \"--CODEGEN--\":3301:3303   */\n      iszero\n      tag_58\n      jumpi\n        /* \"--CODEGEN--\":3375:3376   */\n      0x00\n        /* \"--CODEGEN--\":3366:3372   */\n      dup5\n        /* \"--CODEGEN--\":3361:3364   */\n      dup5\n        /* \"--CODEGEN--\":3357:3373   */\n      add\n        /* \"--CODEGEN--\":3350:3377   */\n      mstore\n        /* \"--CODEGEN--\":3301:3303   */\n    tag_58:\n        /* \"--CODEGEN--\":3171:3390   */\n      pop\n      pop\n      pop\n      pop\n      jump\n\n    auxdata: 0xa26469706673582212200265496601abaa6e30627c6df2bd0e79d289be6e09a4100b1fd3eecb8578eb7064736f6c63430006000033\n}\n",
				"bytecode": {
					"linkReferences": {},
					"object": "608060405234801561001057600080fd5b506102b8806100206000396000f3fe608060405234801561001057600080fd5b506004361061002b5760003560e01c806332af93f714610030575b600080fd5b61004a600480360361004591908101906100e7565b610060565b60405161005791906101aa565b60405180910390f35b600080836040516020016100749190610193565b6040516020818303038152906040528051906020012090505092915050565b600082601f8301126100a457600080fd5b81356100b76100b2826101f2565b6101c5565b915080825260208301602083018583830111156100d357600080fd5b6100de838284610240565b50505092915050565b600080604083850312156100fa57600080fd5b600083013567ffffffffffffffff81111561011457600080fd5b61012085828601610093565b925050602083013567ffffffffffffffff81111561013d57600080fd5b61014985828601610093565b9150509250929050565b61015c81610234565b82525050565b600061016d8261021e565b6101778185610229565b935061018781856020860161024f565b80840191505092915050565b600061019f8284610162565b915081905092915050565b60006020820190506101bf6000830184610153565b92915050565b6000604051905081810181811067ffffffffffffffff821117156101e857600080fd5b8060405250919050565b600067ffffffffffffffff82111561020957600080fd5b601f19601f8301169050602081019050919050565b600081519050919050565b600081905092915050565b60008115159050919050565b82818337600083830152505050565b60005b8381101561026d578082015181840152602081019050610252565b8381111561027c576000848401525b5050505056fea26469706673582212200265496601abaa6e30627c6df2bd0e79d289be6e09a4100b1fd3eecb8578eb7064736f6c63430006000033",
					"opcodes": "PUSH1 0x80 PUSH1 0x40 MSTORE CALLVALUE DUP1 ISZERO PUSH2 0x10 JUMPI PUSH1 0x0 DUP1 REVERT JUMPDEST POP PUSH2 0x2B8 DUP1 PUSH2 0x20 PUSH1 0x0 CODECOPY PUSH1 0x0 RETURN INVALID PUSH1 0x80 PUSH1 0x40 MSTORE CALLVALUE DUP1 ISZERO PUSH2 0x10 JUMPI PUSH1 0x0 DUP1 REVERT JUMPDEST POP PUSH1 0x4 CALLDATASIZE LT PUSH2 0x2B JUMPI PUSH1 0x0 CALLDATALOAD PUSH1 0xE0 SHR DUP1 PUSH4 0x32AF93F7 EQ PUSH2 0x30 JUMPI JUMPDEST PUSH1 0x0 DUP1 REVERT JUMPDEST PUSH2 0x4A PUSH1 0x4 DUP1 CALLDATASIZE SUB PUSH2 0x45 SWAP2 SWAP1 DUP2 ADD SWAP1 PUSH2 0xE7 JUMP JUMPDEST PUSH2 0x60 JUMP JUMPDEST PUSH1 0x40 MLOAD PUSH2 0x57 SWAP2 SWAP1 PUSH2 0x1AA JUMP JUMPDEST PUSH1 0x40 MLOAD DUP1 SWAP2 SUB SWAP1 RETURN JUMPDEST PUSH1 0x0 DUP1 DUP4 PUSH1 0x40 MLOAD PUSH1 0x20 ADD PUSH2 0x74 SWAP2 SWAP1 PUSH2 0x193 JUMP JUMPDEST PUSH1 0x40 MLOAD PUSH1 0x20 DUP2 DUP4 SUB SUB DUP2 MSTORE SWAP1 PUSH1 0x40 MSTORE DUP1 MLOAD SWAP1 PUSH1 0x20 ADD KECCAK256 SWAP1 POP POP SWAP3 SWAP2 POP POP JUMP JUMPDEST PUSH1 0x0 DUP3 PUSH1 0x1F DUP4 ADD SLT PUSH2 0xA4 JUMPI PUSH1 0x0 DUP1 REVERT JUMPDEST DUP2 CALLDATALOAD PUSH2 0xB7 PUSH2 0xB2 DUP3 PUSH2 0x1F2 JUMP JUMPDEST PUSH2 0x1C5 JUMP JUMPDEST SWAP2 POP DUP1 DUP3 MSTORE PUSH1 0x20 DUP4 ADD PUSH1 0x20 DUP4 ADD DUP6 DUP4 DUP4 ADD GT ISZERO PUSH2 0xD3 JUMPI PUSH1 0x0 DUP1 REVERT JUMPDEST PUSH2 0xDE DUP4 DUP3 DUP5 PUSH2 0x240 JUMP JUMPDEST POP POP POP SWAP3 SWAP2 POP POP JUMP JUMPDEST PUSH1 0x0 DUP1 PUSH1 0x40 DUP4 DUP6 SUB SLT ISZERO PUSH2 0xFA JUMPI PUSH1 0x0 DUP1 REVERT JUMPDEST PUSH1 0x0 DUP4 ADD CALLDATALOAD PUSH8 0xFFFFFFFFFFFFFFFF DUP2 GT ISZERO PUSH2 0x114 JUMPI PUSH1 0x0 DUP1 REVERT JUMPDEST PUSH2 0x120 DUP6 DUP3 DUP7 ADD PUSH2 0x93 JUMP JUMPDEST SWAP3 POP POP PUSH1 0x20 DUP4 ADD CALLDATALOAD PUSH8 0xFFFFFFFFFFFFFFFF DUP2 GT ISZERO PUSH2 0x13D JUMPI PUSH1 0x0 DUP1 REVERT JUMPDEST PUSH2 0x149 DUP6 DUP3 DUP7 ADD PUSH2 0x93 JUMP JUMPDEST SWAP2 POP POP SWAP3 POP SWAP3 SWAP1 POP JUMP JUMPDEST PUSH2 0x15C DUP2 PUSH2 0x234 JUMP JUMPDEST DUP3 MSTORE POP POP JUMP JUMPDEST PUSH1 0x0 PUSH2 0x16D DUP3 PUSH2 0x21E JUMP JUMPDEST PUSH2 0x177 DUP2 DUP6 PUSH2 0x229 JUMP JUMPDEST SWAP4 POP PUSH2 0x187 DUP2 DUP6 PUSH1 0x20 DUP7 ADD PUSH2 0x24F JUMP JUMPDEST DUP1 DUP5 ADD SWAP2 POP POP SWAP3 SWAP2 POP POP JUMP JUMPDEST PUSH1 0x0 PUSH2 0x19F DUP3 DUP5 PUSH2 0x162 JUMP JUMPDEST SWAP2 POP DUP2 SWAP1 POP SWAP3 SWAP2 POP POP JUMP JUMPDEST PUSH1 0x0 PUSH1 0x20 DUP3 ADD SWAP1 POP PUSH2 0x1BF PUSH1 0x0 DUP4 ADD DUP5 PUSH2 0x153 JUMP JUMPDEST SWAP3 SWAP2 POP POP JUMP JUMPDEST PUSH1 0x0 PUSH1 0x40 MLOAD SWAP1 POP DUP2 DUP2 ADD DUP2 DUP2 LT PUSH8 0xFFFFFFFFFFFFFFFF DUP3 GT OR ISZERO PUSH2 0x1E8 JUMPI PUSH1 0x0 DUP1 REVERT JUMPDEST DUP1 PUSH1 0x40 MSTORE POP SWAP2 SWAP1 POP JUMP JUMPDEST PUSH1 0x0 PUSH8 0xFFFFFFFFFFFFFFFF DUP3 GT ISZERO PUSH2 0x209 JUMPI PUSH1 0x0 DUP1 REVERT JUMPDEST PUSH1 0x1F NOT PUSH1 0x1F DUP4 ADD AND SWAP1 POP PUSH1 0x20 DUP2 ADD SWAP1 POP SWAP2 SWAP1 POP JUMP JUMPDEST PUSH1 0x0 DUP2 MLOAD SWAP1 POP SWAP2 SWAP1 POP JUMP JUMPDEST PUSH1 0x0 DUP2 SWAP1 POP SWAP3 SWAP2 POP POP JUMP JUMPDEST PUSH1 0x0 DUP2 ISZERO ISZERO SWAP1 POP SWAP2 SWAP1 POP JUMP JUMPDEST DUP3 DUP2 DUP4 CALLDATACOPY PUSH1 0x0 DUP4 DUP4 ADD MSTORE POP POP POP JUMP JUMPDEST PUSH1 0x0 JUMPDEST DUP4 DUP2 LT ISZERO PUSH2 0x26D JUMPI DUP1 DUP3 ADD MLOAD DUP2 DUP5 ADD MSTORE PUSH1 0x20 DUP2 ADD SWAP1 POP PUSH2 0x252 JUMP JUMPDEST DUP4 DUP2 GT ISZERO PUSH2 0x27C JUMPI PUSH1 0x0 DUP5 DUP5 ADD MSTORE JUMPDEST POP POP POP POP JUMP INVALID LOG2 PUSH5 0x6970667358 0x22 SLT KECCAK256 MUL PUSH6 0x496601ABAA6E ADDRESS PUSH3 0x7C6DF2 0xBD 0xE PUSH26 0xD289BE6E09A4100B1FD3EECB8578EB7064736F6C634300060000 CALLER "
				},
				"gasEstimates": {
					"creation": {
						"codeDepositCost": "139200",
						"executionCost": "183",
						"totalCost": "139383"
					},
					"external": {
						"comparar(string,string)": "infinite"
					}
				},
				"methodIdentifiers": {
					"comparar(string,string)": "32af93f7"
				}
			},
			"storageLayout": {
				"storage": [],
				"types": null
			},
			"userdoc": {
				"methods": {}
			}
		}
	}
}