{
	"Tipos de variables y operadores/tiempo.sol": {
		"tiempo": {
			"abi": [
				{
					"constant": true,
					"inputs": [],
					"name": "dia",
					"outputs": [
						{
							"internalType": "uint256",
							"name": "",
							"type": "uint256"
						}
					],
					"payable": false,
					"stateMutability": "view",
					"type": "function"
				},
				{
					"constant": true,
					"inputs": [],
					"name": "getTimePlusSec",
					"outputs": [
						{
							"internalType": "uint256",
							"name": "",
							"type": "uint256"
						}
					],
					"payable": false,
					"stateMutability": "view",
					"type": "function"
				},
				{
					"constant": true,
					"inputs": [],
					"name": "hora",
					"outputs": [
						{
							"internalType": "uint256",
							"name": "",
							"type": "uint256"
						}
					],
					"payable": false,
					"stateMutability": "view",
					"type": "function"
				},
				{
					"constant": true,
					"inputs": [],
					"name": "minuto",
					"outputs": [
						{
							"internalType": "uint256",
							"name": "",
							"type": "uint256"
						}
					],
					"payable": false,
					"stateMutability": "view",
					"type": "function"
				},
				{
					"constant": true,
					"inputs": [],
					"name": "segundo",
					"outputs": [
						{
							"internalType": "uint256",
							"name": "",
							"type": "uint256"
						}
					],
					"payable": false,
					"stateMutability": "view",
					"type": "function"
				},
				{
					"constant": true,
					"inputs": [],
					"name": "tiempo_actual",
					"outputs": [
						{
							"internalType": "uint256",
							"name": "",
							"type": "uint256"
						}
					],
					"payable": false,
					"stateMutability": "view",
					"type": "function"
				}
			],
			"devdoc": {
				"methods": {}
			},
			"evm": {
				"assembly": "    /* \"Tipos de variables y operadores/tiempo.sol\":27:333  contract tiempo{\r... */\n  mstore(0x40, 0x80)\n    /* \"Tipos de variables y operadores/tiempo.sol\":83:86  now */\n  timestamp\n    /* \"Tipos de variables y operadores/tiempo.sol\":55:86  uint public tiempo_actual = now */\n  0x00\n  sstore\n    /* \"Tipos de variables y operadores/tiempo.sol\":115:124  1 seconds */\n  0x01\n    /* \"Tipos de variables y operadores/tiempo.sol\":93:124  uint public segundo = 1 seconds */\n  dup1\n  sstore\n    /* \"Tipos de variables y operadores/tiempo.sol\":152:161  1 minutes */\n  0x3c\n    /* \"Tipos de variables y operadores/tiempo.sol\":131:161  uint public minuto = 1 minutes */\n  0x02\n  sstore\n    /* \"Tipos de variables y operadores/tiempo.sol\":187:194  1 hours */\n  0x0e10\n    /* \"Tipos de variables y operadores/tiempo.sol\":168:194  uint public hora = 1 hours */\n  0x03\n  sstore\n    /* \"Tipos de variables y operadores/tiempo.sol\":219:225  1 days */\n  0x015180\n    /* \"Tipos de variables y operadores/tiempo.sol\":201:225  uint public dia = 1 days */\n  0x04\n  sstore\n    /* \"Tipos de variables y operadores/tiempo.sol\":27:333  contract tiempo{\r... */\n  callvalue\n    /* \"--CODEGEN--\":8:17   */\n  dup1\n    /* \"--CODEGEN--\":5:7   */\n  iszero\n  tag_1\n  jumpi\n    /* \"--CODEGEN--\":30:31   */\n  0x00\n    /* \"--CODEGEN--\":27:28   */\n  dup1\n    /* \"--CODEGEN--\":20:32   */\n  revert\n    /* \"--CODEGEN--\":5:7   */\ntag_1:\n    /* \"Tipos de variables y operadores/tiempo.sol\":27:333  contract tiempo{\r... */\n  pop\n  dataSize(sub_0)\n  dup1\n  dataOffset(sub_0)\n  0x00\n  codecopy\n  0x00\n  return\nstop\n\nsub_0: assembly {\n        /* \"Tipos de variables y operadores/tiempo.sol\":27:333  contract tiempo{\r... */\n      mstore(0x40, 0x80)\n      callvalue\n        /* \"--CODEGEN--\":8:17   */\n      dup1\n        /* \"--CODEGEN--\":5:7   */\n      iszero\n      tag_1\n      jumpi\n        /* \"--CODEGEN--\":30:31   */\n      0x00\n        /* \"--CODEGEN--\":27:28   */\n      dup1\n        /* \"--CODEGEN--\":20:32   */\n      revert\n        /* \"--CODEGEN--\":5:7   */\n    tag_1:\n        /* \"Tipos de variables y operadores/tiempo.sol\":27:333  contract tiempo{\r... */\n      pop\n      jumpi(tag_2, lt(calldatasize, 0x04))\n      shr(0xe0, calldataload(0x00))\n      dup1\n      0x2ae9277b\n      eq\n      tag_3\n      jumpi\n      dup1\n      0x30488a1d\n      eq\n      tag_4\n      jumpi\n      dup1\n      0x56b09482\n      eq\n      tag_5\n      jumpi\n      dup1\n      0x5a9606a4\n      eq\n      tag_6\n      jumpi\n      dup1\n      0xc77e3e98\n      eq\n      tag_7\n      jumpi\n      dup1\n      0xe70ce4f3\n      eq\n      tag_8\n      jumpi\n    tag_2:\n      0x00\n      dup1\n      revert\n        /* \"Tipos de variables y operadores/tiempo.sol\":234:328  function getTimePlusSec() public view returns(uint){\r... */\n    tag_3:\n      tag_9\n      tag_10\n      jump\t// in\n    tag_9:\n      mload(0x40)\n      dup1\n      dup3\n      dup2\n      mstore\n      0x20\n      add\n      swap2\n      pop\n      pop\n      mload(0x40)\n      dup1\n      swap2\n      sub\n      swap1\n      return\n        /* \"Tipos de variables y operadores/tiempo.sol\":93:124  uint public segundo = 1 seconds */\n    tag_4:\n      tag_11\n      tag_12\n      jump\t// in\n    tag_11:\n      mload(0x40)\n      dup1\n      dup3\n      dup2\n      mstore\n      0x20\n      add\n      swap2\n      pop\n      pop\n      mload(0x40)\n      dup1\n      swap2\n      sub\n      swap1\n      return\n        /* \"Tipos de variables y operadores/tiempo.sol\":168:194  uint public hora = 1 hours */\n    tag_5:\n      tag_13\n      tag_14\n      jump\t// in\n    tag_13:\n      mload(0x40)\n      dup1\n      dup3\n      dup2\n      mstore\n      0x20\n      add\n      swap2\n      pop\n      pop\n      mload(0x40)\n      dup1\n      swap2\n      sub\n      swap1\n      return\n        /* \"Tipos de variables y operadores/tiempo.sol\":55:86  uint public tiempo_actual = now */\n    tag_6:\n      tag_15\n      tag_16\n      jump\t// in\n    tag_15:\n      mload(0x40)\n      dup1\n      dup3\n      dup2\n      mstore\n      0x20\n      add\n      swap2\n      pop\n      pop\n      mload(0x40)\n      dup1\n      swap2\n      sub\n      swap1\n      return\n        /* \"Tipos de variables y operadores/tiempo.sol\":201:225  uint public dia = 1 days */\n    tag_7:\n      tag_17\n      tag_18\n      jump\t// in\n    tag_17:\n      mload(0x40)\n      dup1\n      dup3\n      dup2\n      mstore\n      0x20\n      add\n      swap2\n      pop\n      pop\n      mload(0x40)\n      dup1\n      swap2\n      sub\n      swap1\n      return\n        /* \"Tipos de variables y operadores/tiempo.sol\":131:161  uint public minuto = 1 minutes */\n    tag_8:\n      tag_19\n      tag_20\n      jump\t// in\n    tag_19:\n      mload(0x40)\n      dup1\n      dup3\n      dup2\n      mstore\n      0x20\n      add\n      swap2\n      pop\n      pop\n      mload(0x40)\n      dup1\n      swap2\n      sub\n      swap1\n      return\n        /* \"Tipos de variables y operadores/tiempo.sol\":234:328  function getTimePlusSec() public view returns(uint){\r... */\n    tag_10:\n        /* \"Tipos de variables y operadores/tiempo.sol\":280:284  uint */\n      0x00\n        /* \"Tipos de variables y operadores/tiempo.sol\":311:320  1 seconds */\n      0x01\n        /* \"Tipos de variables y operadores/tiempo.sol\":305:308  now */\n      timestamp\n        /* \"Tipos de variables y operadores/tiempo.sol\":305:320  now + 1 seconds */\n      add\n        /* \"Tipos de variables y operadores/tiempo.sol\":298:320  return now + 1 seconds */\n      swap1\n      pop\n        /* \"Tipos de variables y operadores/tiempo.sol\":234:328  function getTimePlusSec() public view returns(uint){\r... */\n      swap1\n      jump\t// out\n        /* \"Tipos de variables y operadores/tiempo.sol\":93:124  uint public segundo = 1 seconds */\n    tag_12:\n      sload(0x01)\n      dup2\n      jump\t// out\n        /* \"Tipos de variables y operadores/tiempo.sol\":168:194  uint public hora = 1 hours */\n    tag_14:\n      sload(0x03)\n      dup2\n      jump\t// out\n        /* \"Tipos de variables y operadores/tiempo.sol\":55:86  uint public tiempo_actual = now */\n    tag_16:\n      sload(0x00)\n      dup2\n      jump\t// out\n        /* \"Tipos de variables y operadores/tiempo.sol\":201:225  uint public dia = 1 days */\n    tag_18:\n      sload(0x04)\n      dup2\n      jump\t// out\n        /* \"Tipos de variables y operadores/tiempo.sol\":131:161  uint public minuto = 1 minutes */\n    tag_20:\n      sload(0x02)\n      dup2\n      jump\t// out\n\n    auxdata: 0xa265627a7a72315820c29519da5ae998cf1f091de010f3e2f3308ba94168829264a9b138122032806d64736f6c63430005110032\n}\n",
				"bytecode": {
					"linkReferences": {},
					"object": "60806040524260005560018055603c600255610e106003556201518060045534801561002a57600080fd5b506101798061003a6000396000f3fe608060405234801561001057600080fd5b50600436106100625760003560e01c80632ae9277b1461006757806330488a1d1461008557806356b09482146100a35780635a9606a4146100c1578063c77e3e98146100df578063e70ce4f3146100fd575b600080fd5b61006f61011b565b6040518082815260200191505060405180910390f35b61008d610126565b6040518082815260200191505060405180910390f35b6100ab61012c565b6040518082815260200191505060405180910390f35b6100c9610132565b6040518082815260200191505060405180910390f35b6100e7610138565b6040518082815260200191505060405180910390f35b61010561013e565b6040518082815260200191505060405180910390f35b600060014201905090565b60015481565b60035481565b60005481565b60045481565b6002548156fea265627a7a72315820c29519da5ae998cf1f091de010f3e2f3308ba94168829264a9b138122032806d64736f6c63430005110032",
					"opcodes": "PUSH1 0x80 PUSH1 0x40 MSTORE TIMESTAMP PUSH1 0x0 SSTORE PUSH1 0x1 DUP1 SSTORE PUSH1 0x3C PUSH1 0x2 SSTORE PUSH2 0xE10 PUSH1 0x3 SSTORE PUSH3 0x15180 PUSH1 0x4 SSTORE CALLVALUE DUP1 ISZERO PUSH2 0x2A JUMPI PUSH1 0x0 DUP1 REVERT JUMPDEST POP PUSH2 0x179 DUP1 PUSH2 0x3A PUSH1 0x0 CODECOPY PUSH1 0x0 RETURN INVALID PUSH1 0x80 PUSH1 0x40 MSTORE CALLVALUE DUP1 ISZERO PUSH2 0x10 JUMPI PUSH1 0x0 DUP1 REVERT JUMPDEST POP PUSH1 0x4 CALLDATASIZE LT PUSH2 0x62 JUMPI PUSH1 0x0 CALLDATALOAD PUSH1 0xE0 SHR DUP1 PUSH4 0x2AE9277B EQ PUSH2 0x67 JUMPI DUP1 PUSH4 0x30488A1D EQ PUSH2 0x85 JUMPI DUP1 PUSH4 0x56B09482 EQ PUSH2 0xA3 JUMPI DUP1 PUSH4 0x5A9606A4 EQ PUSH2 0xC1 JUMPI DUP1 PUSH4 0xC77E3E98 EQ PUSH2 0xDF JUMPI DUP1 PUSH4 0xE70CE4F3 EQ PUSH2 0xFD JUMPI JUMPDEST PUSH1 0x0 DUP1 REVERT JUMPDEST PUSH2 0x6F PUSH2 0x11B JUMP JUMPDEST PUSH1 0x40 MLOAD DUP1 DUP3 DUP2 MSTORE PUSH1 0x20 ADD SWAP2 POP POP PUSH1 0x40 MLOAD DUP1 SWAP2 SUB SWAP1 RETURN JUMPDEST PUSH2 0x8D PUSH2 0x126 JUMP JUMPDEST PUSH1 0x40 MLOAD DUP1 DUP3 DUP2 MSTORE PUSH1 0x20 ADD SWAP2 POP POP PUSH1 0x40 MLOAD DUP1 SWAP2 SUB SWAP1 RETURN JUMPDEST PUSH2 0xAB PUSH2 0x12C JUMP JUMPDEST PUSH1 0x40 MLOAD DUP1 DUP3 DUP2 MSTORE PUSH1 0x20 ADD SWAP2 POP POP PUSH1 0x40 MLOAD DUP1 SWAP2 SUB SWAP1 RETURN JUMPDEST PUSH2 0xC9 PUSH2 0x132 JUMP JUMPDEST PUSH1 0x40 MLOAD DUP1 DUP3 DUP2 MSTORE PUSH1 0x20 ADD SWAP2 POP POP PUSH1 0x40 MLOAD DUP1 SWAP2 SUB SWAP1 RETURN JUMPDEST PUSH2 0xE7 PUSH2 0x138 JUMP JUMPDEST PUSH1 0x40 MLOAD DUP1 DUP3 DUP2 MSTORE PUSH1 0x20 ADD SWAP2 POP POP PUSH1 0x40 MLOAD DUP1 SWAP2 SUB SWAP1 RETURN JUMPDEST PUSH2 0x105 PUSH2 0x13E JUMP JUMPDEST PUSH1 0x40 MLOAD DUP1 DUP3 DUP2 MSTORE PUSH1 0x20 ADD SWAP2 POP POP PUSH1 0x40 MLOAD DUP1 SWAP2 SUB SWAP1 RETURN JUMPDEST PUSH1 0x0 PUSH1 0x1 TIMESTAMP ADD SWAP1 POP SWAP1 JUMP JUMPDEST PUSH1 0x1 SLOAD DUP2 JUMP JUMPDEST PUSH1 0x3 SLOAD DUP2 JUMP JUMPDEST PUSH1 0x0 SLOAD DUP2 JUMP JUMPDEST PUSH1 0x4 SLOAD DUP2 JUMP JUMPDEST PUSH1 0x2 SLOAD DUP2 JUMP INVALID LOG2 PUSH6 0x627A7A723158 KECCAK256 0xC2 SWAP6 NOT 0xDA GAS 0xE9 SWAP9 0xCF 0x1F MULMOD SAR 0xE0 LT RETURN 0xE2 RETURN ADDRESS DUP12 0xA9 COINBASE PUSH9 0x829264A9B138122032 DUP1 PUSH14 0x64736F6C63430005110032000000 "
				},
				"gasEstimates": {
					"creation": {
						"codeDepositCost": "75400",
						"executionCost": "100152",
						"totalCost": "175552"
					},
					"external": {
						"dia()": "1071",
						"getTimePlusSec()": "196",
						"hora()": "1027",
						"minuto()": "1093",
						"segundo()": "1005",
						"tiempo_actual()": "1049"
					}
				},
				"methodIdentifiers": {
					"dia()": "c77e3e98",
					"getTimePlusSec()": "2ae9277b",
					"hora()": "56b09482",
					"minuto()": "e70ce4f3",
					"segundo()": "30488a1d",
					"tiempo_actual()": "5a9606a4"
				}
			},
			"storageLayout": {
				"storage": [
					{
						"astId": 4,
						"contract": "Tipos de variables y operadores/tiempo.sol:tiempo",
						"label": "tiempo_actual",
						"offset": 0,
						"slot": "0",
						"type": "t_uint256"
					},
					{
						"astId": 7,
						"contract": "Tipos de variables y operadores/tiempo.sol:tiempo",
						"label": "segundo",
						"offset": 0,
						"slot": "1",
						"type": "t_uint256"
					},
					{
						"astId": 10,
						"contract": "Tipos de variables y operadores/tiempo.sol:tiempo",
						"label": "minuto",
						"offset": 0,
						"slot": "2",
						"type": "t_uint256"
					},
					{
						"astId": 13,
						"contract": "Tipos de variables y operadores/tiempo.sol:tiempo",
						"label": "hora",
						"offset": 0,
						"slot": "3",
						"type": "t_uint256"
					},
					{
						"astId": 16,
						"contract": "Tipos de variables y operadores/tiempo.sol:tiempo",
						"label": "dia",
						"offset": 0,
						"slot": "4",
						"type": "t_uint256"
					}
				],
				"types": {
					"t_uint256": {
						"encoding": "inplace",
						"label": "uint256",
						"numberOfBytes": "32"
					}
				}
			},
			"userdoc": {
				"methods": {}
			}
		}
	}
}