{
	"Tipos de variables y operadores/enums.sol": {
		"ejemplos_enumeraciones": {
			"abi": [
				{
					"constant": false,
					"inputs": [
						{
							"internalType": "uint256",
							"name": "_k",
							"type": "uint256"
						}
					],
					"name": "encender",
					"outputs": [],
					"payable": false,
					"stateMutability": "nonpayable",
					"type": "function"
				},
				{
					"constant": false,
					"inputs": [],
					"name": "encender",
					"outputs": [],
					"payable": false,
					"stateMutability": "nonpayable",
					"type": "function"
				},
				{
					"constant": true,
					"inputs": [],
					"name": "getEstado",
					"outputs": [
						{
							"internalType": "enum ejemplos_enumeraciones.estado",
							"name": "",
							"type": "uint8"
						}
					],
					"payable": false,
					"stateMutability": "view",
					"type": "function"
				}
			],
			"devdoc": {
				"methods": {}
			},
			"evm": {
				"assembly": "    /* \"Tipos de variables y operadores/enums.sol\":27:317  contract ejemplos_enumeraciones{\r... */\n  mstore(0x40, 0x80)\n  callvalue\n    /* \"--CODEGEN--\":8:17   */\n  dup1\n    /* \"--CODEGEN--\":5:7   */\n  iszero\n  tag_1\n  jumpi\n    /* \"--CODEGEN--\":30:31   */\n  0x00\n    /* \"--CODEGEN--\":27:28   */\n  dup1\n    /* \"--CODEGEN--\":20:32   */\n  revert\n    /* \"--CODEGEN--\":5:7   */\ntag_1:\n    /* \"Tipos de variables y operadores/enums.sol\":27:317  contract ejemplos_enumeraciones{\r... */\n  pop\n  dataSize(sub_0)\n  dup1\n  dataOffset(sub_0)\n  0x00\n  codecopy\n  0x00\n  return\nstop\n\nsub_0: assembly {\n        /* \"Tipos de variables y operadores/enums.sol\":27:317  contract ejemplos_enumeraciones{\r... */\n      mstore(0x40, 0x80)\n      callvalue\n        /* \"--CODEGEN--\":8:17   */\n      dup1\n        /* \"--CODEGEN--\":5:7   */\n      iszero\n      tag_1\n      jumpi\n        /* \"--CODEGEN--\":30:31   */\n      0x00\n        /* \"--CODEGEN--\":27:28   */\n      dup1\n        /* \"--CODEGEN--\":20:32   */\n      revert\n        /* \"--CODEGEN--\":5:7   */\n    tag_1:\n        /* \"Tipos de variables y operadores/enums.sol\":27:317  contract ejemplos_enumeraciones{\r... */\n      pop\n      jumpi(tag_2, lt(calldatasize, 0x04))\n      shr(0xe0, calldataload(0x00))\n      dup1\n      0x40204110\n      eq\n      tag_3\n      jumpi\n      dup1\n      0x6d07d7e3\n      eq\n      tag_4\n      jumpi\n      dup1\n      0xe9073c33\n      eq\n      tag_5\n      jumpi\n    tag_2:\n      0x00\n      dup1\n      revert\n        /* \"Tipos de variables y operadores/enums.sol\":186:256  function encender(uint _k) public{\r... */\n    tag_3:\n      tag_6\n      0x04\n      dup1\n      calldatasize\n      sub\n        /* \"--CODEGEN--\":13:15   */\n      0x20\n        /* \"--CODEGEN--\":8:11   */\n      dup2\n        /* \"--CODEGEN--\":5:16   */\n      lt\n        /* \"--CODEGEN--\":2:4   */\n      iszero\n      tag_7\n      jumpi\n        /* \"--CODEGEN--\":29:30   */\n      0x00\n        /* \"--CODEGEN--\":26:27   */\n      dup1\n        /* \"--CODEGEN--\":19:31   */\n      revert\n        /* \"--CODEGEN--\":2:4   */\n    tag_7:\n        /* \"Tipos de variables y operadores/enums.sol\":186:256  function encender(uint _k) public{\r... */\n      dup2\n      add\n      swap1\n      dup1\n      dup1\n      calldataload\n      swap1\n      0x20\n      add\n      swap1\n      swap3\n      swap2\n      swap1\n      pop\n      pop\n      pop\n      tag_8\n      jump\t// in\n    tag_6:\n      stop\n        /* \"Tipos de variables y operadores/enums.sol\":264:314  function getEstado() public view returns(estado){} */\n    tag_4:\n      tag_9\n      tag_10\n      jump\t// in\n    tag_9:\n      mload(0x40)\n      dup1\n      dup3\n      0x01\n      dup2\n      gt\n      iszero\n      tag_11\n      jumpi\n      invalid\n    tag_11:\n      0xff\n      and\n      dup2\n      mstore\n      0x20\n      add\n      swap2\n      pop\n      pop\n      mload(0x40)\n      dup1\n      swap2\n      sub\n      swap1\n      return\n        /* \"Tipos de variables y operadores/enums.sol\":116:178  function encender() public{\r... */\n    tag_5:\n      tag_12\n      tag_13\n      jump\t// in\n    tag_12:\n      stop\n        /* \"Tipos de variables y operadores/enums.sol\":186:256  function encender(uint _k) public{\r... */\n    tag_8:\n        /* \"Tipos de variables y operadores/enums.sol\":245:247  _k */\n      dup1\n        /* \"Tipos de variables y operadores/enums.sol\":238:248  estado(_k) */\n      0x01\n      dup2\n      gt\n      iszero\n      tag_15\n      jumpi\n      invalid\n    tag_15:\n        /* \"Tipos de variables y operadores/enums.sol\":230:235  state */\n      0x00\n      dup1\n        /* \"Tipos de variables y operadores/enums.sol\":230:248  state = estado(_k) */\n      0x0100\n      exp\n      dup2\n      sload\n      dup2\n      0xff\n      mul\n      not\n      and\n      swap1\n      dup4\n      0x01\n      dup2\n      gt\n      iszero\n      tag_16\n      jumpi\n      invalid\n    tag_16:\n      mul\n      or\n      swap1\n      sstore\n      pop\n        /* \"Tipos de variables y operadores/enums.sol\":186:256  function encender(uint _k) public{\r... */\n      pop\n      jump\t// out\n        /* \"Tipos de variables y operadores/enums.sol\":264:314  function getEstado() public view returns(estado){} */\n    tag_10:\n        /* \"Tipos de variables y operadores/enums.sol\":305:311  estado */\n      0x00\n        /* \"Tipos de variables y operadores/enums.sol\":264:314  function getEstado() public view returns(estado){} */\n      swap1\n      jump\t// out\n        /* \"Tipos de variables y operadores/enums.sol\":116:178  function encender() public{\r... */\n    tag_13:\n        /* \"Tipos de variables y operadores/enums.sol\":161:170  estado.ON */\n      0x00\n        /* \"Tipos de variables y operadores/enums.sol\":153:158  state */\n      dup1\n      0x00\n        /* \"Tipos de variables y operadores/enums.sol\":153:170  state = estado.ON */\n      0x0100\n      exp\n      dup2\n      sload\n      dup2\n      0xff\n      mul\n      not\n      and\n      swap1\n      dup4\n      0x01\n      dup2\n      gt\n      iszero\n      tag_19\n      jumpi\n      invalid\n    tag_19:\n      mul\n      or\n      swap1\n      sstore\n      pop\n        /* \"Tipos de variables y operadores/enums.sol\":116:178  function encender() public{\r... */\n      jump\t// out\n\n    auxdata: 0xa265627a7a723158207cc53a7ae7d6952d0f9b0ec038b7225cd1f7bfa44109f02d49d711aa2ca731d764736f6c63430005110032\n}\n",
				"bytecode": {
					"linkReferences": {},
					"object": "608060405234801561001057600080fd5b50610129806100206000396000f3fe6080604052348015600f57600080fd5b5060043610603c5760003560e01c8063402041101460415780636d07d7e314606c578063e9073c33146095575b600080fd5b606a60048036036020811015605557600080fd5b8101908080359060200190929190505050609d565b005b607260cb565b60405180826001811115608157fe5b60ff16815260200191505060405180910390f35b609b60d0565b005b80600181111560a857fe5b6000806101000a81548160ff0219169083600181111560c357fe5b021790555050565b600090565b60008060006101000a81548160ff0219169083600181111560ed57fe5b021790555056fea265627a7a723158207cc53a7ae7d6952d0f9b0ec038b7225cd1f7bfa44109f02d49d711aa2ca731d764736f6c63430005110032",
					"opcodes": "PUSH1 0x80 PUSH1 0x40 MSTORE CALLVALUE DUP1 ISZERO PUSH2 0x10 JUMPI PUSH1 0x0 DUP1 REVERT JUMPDEST POP PUSH2 0x129 DUP1 PUSH2 0x20 PUSH1 0x0 CODECOPY PUSH1 0x0 RETURN INVALID PUSH1 0x80 PUSH1 0x40 MSTORE CALLVALUE DUP1 ISZERO PUSH1 0xF JUMPI PUSH1 0x0 DUP1 REVERT JUMPDEST POP PUSH1 0x4 CALLDATASIZE LT PUSH1 0x3C JUMPI PUSH1 0x0 CALLDATALOAD PUSH1 0xE0 SHR DUP1 PUSH4 0x40204110 EQ PUSH1 0x41 JUMPI DUP1 PUSH4 0x6D07D7E3 EQ PUSH1 0x6C JUMPI DUP1 PUSH4 0xE9073C33 EQ PUSH1 0x95 JUMPI JUMPDEST PUSH1 0x0 DUP1 REVERT JUMPDEST PUSH1 0x6A PUSH1 0x4 DUP1 CALLDATASIZE SUB PUSH1 0x20 DUP2 LT ISZERO PUSH1 0x55 JUMPI PUSH1 0x0 DUP1 REVERT JUMPDEST DUP2 ADD SWAP1 DUP1 DUP1 CALLDATALOAD SWAP1 PUSH1 0x20 ADD SWAP1 SWAP3 SWAP2 SWAP1 POP POP POP PUSH1 0x9D JUMP JUMPDEST STOP JUMPDEST PUSH1 0x72 PUSH1 0xCB JUMP JUMPDEST PUSH1 0x40 MLOAD DUP1 DUP3 PUSH1 0x1 DUP2 GT ISZERO PUSH1 0x81 JUMPI INVALID JUMPDEST PUSH1 0xFF AND DUP2 MSTORE PUSH1 0x20 ADD SWAP2 POP POP PUSH1 0x40 MLOAD DUP1 SWAP2 SUB SWAP1 RETURN JUMPDEST PUSH1 0x9B PUSH1 0xD0 JUMP JUMPDEST STOP JUMPDEST DUP1 PUSH1 0x1 DUP2 GT ISZERO PUSH1 0xA8 JUMPI INVALID JUMPDEST PUSH1 0x0 DUP1 PUSH2 0x100 EXP DUP2 SLOAD DUP2 PUSH1 0xFF MUL NOT AND SWAP1 DUP4 PUSH1 0x1 DUP2 GT ISZERO PUSH1 0xC3 JUMPI INVALID JUMPDEST MUL OR SWAP1 SSTORE POP POP JUMP JUMPDEST PUSH1 0x0 SWAP1 JUMP JUMPDEST PUSH1 0x0 DUP1 PUSH1 0x0 PUSH2 0x100 EXP DUP2 SLOAD DUP2 PUSH1 0xFF MUL NOT AND SWAP1 DUP4 PUSH1 0x1 DUP2 GT ISZERO PUSH1 0xED JUMPI INVALID JUMPDEST MUL OR SWAP1 SSTORE POP JUMP INVALID LOG2 PUSH6 0x627A7A723158 KECCAK256 PUSH29 0xC53A7AE7D6952D0F9B0EC038B7225CD1F7BFA44109F02D49D711AA2CA7 BALANCE 0xD7 PUSH5 0x736F6C6343 STOP SDIV GT STOP ORIGIN "
				},
				"gasEstimates": {
					"creation": {
						"codeDepositCost": "59400",
						"executionCost": "111",
						"totalCost": "59511"
					},
					"external": {
						"encender()": "21053",
						"encender(uint256)": "21119",
						"getEstado()": "237"
					}
				},
				"methodIdentifiers": {
					"encender()": "e9073c33",
					"encender(uint256)": "40204110",
					"getEstado()": "6d07d7e3"
				}
			},
			"storageLayout": {
				"storage": [
					{
						"astId": 6,
						"contract": "Tipos de variables y operadores/enums.sol:ejemplos_enumeraciones",
						"label": "state",
						"offset": 0,
						"slot": "0",
						"type": "t_enum(estado)4"
					}
				],
				"types": {
					"t_enum(estado)4": {
						"encoding": "inplace",
						"label": "enum ejemplos_enumeraciones.estado",
						"numberOfBytes": "1"
					}
				}
			},
			"userdoc": {
				"methods": {}
			}
		}
	}
}