{
	"Tipos de variables y operadores/comparar_strings.sol": {
		"compararStrings": {
			"abi": [
				{
					"inputs": [
						{
							"internalType": "string",
							"name": "_a",
							"type": "string"
						},
						{
							"internalType": "string",
							"name": "_b",
							"type": "string"
						}
					],
					"name": "comparar",
					"outputs": [
						{
							"internalType": "bool",
							"name": "",
							"type": "bool"
						}
					],
					"stateMutability": "view",
					"type": "function"
				}
			],
			"devdoc": {
				"methods": {}
			},
			"evm": {
				"assembly": "    /* \"Tipos de variables y operadores/comparar_strings.sol\":62:196  contract compararStrings{\r... */\n  mstore(0x40, 0x80)\n  callvalue\n    /* \"--CODEGEN--\":8:17   */\n  dup1\n    /* \"--CODEGEN--\":5:7   */\n  iszero\n  tag_1\n  jumpi\n    /* \"--CODEGEN--\":30:31   */\n  0x00\n    /* \"--CODEGEN--\":27:28   */\n  dup1\n    /* \"--CODEGEN--\":20:32   */\n  revert\n    /* \"--CODEGEN--\":5:7   */\ntag_1:\n    /* \"Tipos de variables y operadores/comparar_strings.sol\":62:196  contract compararStrings{\r... */\n  pop\n  dataSize(sub_0)\n  dup1\n  dataOffset(sub_0)\n  0x00\n  codecopy\n  0x00\n  return\nstop\n\nsub_0: assembly {\n        /* \"Tipos de variables y operadores/comparar_strings.sol\":62:196  contract compararStrings{\r... */\n      mstore(0x40, 0x80)\n      callvalue\n        /* \"--CODEGEN--\":8:17   */\n      dup1\n        /* \"--CODEGEN--\":5:7   */\n      iszero\n      tag_1\n      jumpi\n        /* \"--CODEGEN--\":30:31   */\n      0x00\n        /* \"--CODEGEN--\":27:28   */\n      dup1\n        /* \"--CODEGEN--\":20:32   */\n      revert\n        /* \"--CODEGEN--\":5:7   */\n    tag_1:\n        /* \"Tipos de variables y operadores/comparar_strings.sol\":62:196  contract compararStrings{\r... */\n      pop\n      jumpi(tag_2, lt(calldatasize, 0x04))\n      shr(0xe0, calldataload(0x00))\n      dup1\n      0x32af93f7\n      eq\n      tag_3\n      jumpi\n    tag_2:\n      0x00\n      dup1\n      revert\n        /* \"Tipos de variables y operadores/comparar_strings.sol\":95:193  function comparar(string memory _a, string memory _b) public view returns (bool){\r... */\n    tag_3:\n      tag_4\n      0x04\n      dup1\n      calldatasize\n      sub\n      tag_5\n      swap2\n      swap1\n      dup2\n      add\n      swap1\n      jump(tag_6)\n    tag_5:\n      tag_7\n      jump\t// in\n    tag_4:\n      mload(0x40)\n      tag_8\n      swap2\n      swap1\n      jump(tag_9)\n    tag_8:\n      mload(0x40)\n      dup1\n      swap2\n      sub\n      swap1\n      return\n    tag_7:\n        /* \"Tipos de variables y operadores/comparar_strings.sol\":170:174  bool */\n      0x00\n        /* \"Tipos de variables y operadores/comparar_strings.sol\":95:193  function comparar(string memory _a, string memory _b) public view returns (bool){\r... */\n      swap3\n      swap2\n      pop\n      pop\n      jump\t// out\n        /* \"--CODEGEN--\":6:448   */\n    tag_12:\n      0x00\n        /* \"--CODEGEN--\":108:111   */\n      dup3\n        /* \"--CODEGEN--\":101:105   */\n      0x1f\n        /* \"--CODEGEN--\":93:99   */\n      dup4\n        /* \"--CODEGEN--\":89:106   */\n      add\n        /* \"--CODEGEN--\":85:112   */\n      slt\n        /* \"--CODEGEN--\":75:77   */\n      tag_14\n      jumpi\n        /* \"--CODEGEN--\":126:127   */\n      0x00\n        /* \"--CODEGEN--\":123:124   */\n      dup1\n        /* \"--CODEGEN--\":116:128   */\n      revert\n        /* \"--CODEGEN--\":75:77   */\n    tag_14:\n        /* \"--CODEGEN--\":163:169   */\n      dup2\n        /* \"--CODEGEN--\":150:170   */\n      calldataload\n        /* \"--CODEGEN--\":185:250   */\n      tag_15\n        /* \"--CODEGEN--\":200:249   */\n      tag_16\n        /* \"--CODEGEN--\":242:248   */\n      dup3\n        /* \"--CODEGEN--\":200:249   */\n      jump(tag_17)\n    tag_16:\n        /* \"--CODEGEN--\":185:250   */\n      jump(tag_18)\n    tag_15:\n        /* \"--CODEGEN--\":176:250   */\n      swap2\n      pop\n        /* \"--CODEGEN--\":270:276   */\n      dup1\n        /* \"--CODEGEN--\":263:268   */\n      dup3\n        /* \"--CODEGEN--\":256:277   */\n      mstore\n        /* \"--CODEGEN--\":306:310   */\n      0x20\n        /* \"--CODEGEN--\":298:304   */\n      dup4\n        /* \"--CODEGEN--\":294:311   */\n      add\n        /* \"--CODEGEN--\":339:343   */\n      0x20\n        /* \"--CODEGEN--\":332:337   */\n      dup4\n        /* \"--CODEGEN--\":328:344   */\n      add\n        /* \"--CODEGEN--\":374:377   */\n      dup6\n        /* \"--CODEGEN--\":365:371   */\n      dup4\n        /* \"--CODEGEN--\":360:363   */\n      dup4\n        /* \"--CODEGEN--\":356:372   */\n      add\n        /* \"--CODEGEN--\":353:378   */\n      gt\n        /* \"--CODEGEN--\":350:352   */\n      iszero\n      tag_19\n      jumpi\n        /* \"--CODEGEN--\":391:392   */\n      0x00\n        /* \"--CODEGEN--\":388:389   */\n      dup1\n        /* \"--CODEGEN--\":381:393   */\n      revert\n        /* \"--CODEGEN--\":350:352   */\n    tag_19:\n        /* \"--CODEGEN--\":401:442   */\n      tag_20\n        /* \"--CODEGEN--\":435:441   */\n      dup4\n        /* \"--CODEGEN--\":430:433   */\n      dup3\n        /* \"--CODEGEN--\":425:428   */\n      dup5\n        /* \"--CODEGEN--\":401:442   */\n      jump(tag_21)\n    tag_20:\n        /* \"--CODEGEN--\":68:448   */\n      pop\n      pop\n      pop\n      swap3\n      swap2\n      pop\n      pop\n      jump\n        /* \"--CODEGEN--\":456:1034   */\n    tag_6:\n      0x00\n      dup1\n        /* \"--CODEGEN--\":597:599   */\n      0x40\n        /* \"--CODEGEN--\":585:594   */\n      dup4\n        /* \"--CODEGEN--\":576:583   */\n      dup6\n        /* \"--CODEGEN--\":572:595   */\n      sub\n        /* \"--CODEGEN--\":568:600   */\n      slt\n        /* \"--CODEGEN--\":565:567   */\n      iszero\n      tag_23\n      jumpi\n        /* \"--CODEGEN--\":613:614   */\n      0x00\n        /* \"--CODEGEN--\":610:611   */\n      dup1\n        /* \"--CODEGEN--\":603:615   */\n      revert\n        /* \"--CODEGEN--\":565:567   */\n    tag_23:\n        /* \"--CODEGEN--\":676:677   */\n      0x00\n        /* \"--CODEGEN--\":665:674   */\n      dup4\n        /* \"--CODEGEN--\":661:678   */\n      add\n        /* \"--CODEGEN--\":648:679   */\n      calldataload\n        /* \"--CODEGEN--\":699:717   */\n      0xffffffffffffffff\n        /* \"--CODEGEN--\":691:697   */\n      dup2\n        /* \"--CODEGEN--\":688:718   */\n      gt\n        /* \"--CODEGEN--\":685:687   */\n      iszero\n      tag_24\n      jumpi\n        /* \"--CODEGEN--\":731:732   */\n      0x00\n        /* \"--CODEGEN--\":728:729   */\n      dup1\n        /* \"--CODEGEN--\":721:733   */\n      revert\n        /* \"--CODEGEN--\":685:687   */\n    tag_24:\n        /* \"--CODEGEN--\":751:814   */\n      tag_25\n        /* \"--CODEGEN--\":806:813   */\n      dup6\n        /* \"--CODEGEN--\":797:803   */\n      dup3\n        /* \"--CODEGEN--\":786:795   */\n      dup7\n        /* \"--CODEGEN--\":782:804   */\n      add\n        /* \"--CODEGEN--\":751:814   */\n      jump(tag_12)\n    tag_25:\n        /* \"--CODEGEN--\":741:814   */\n      swap3\n      pop\n        /* \"--CODEGEN--\":627:820   */\n      pop\n        /* \"--CODEGEN--\":879:881   */\n      0x20\n        /* \"--CODEGEN--\":868:877   */\n      dup4\n        /* \"--CODEGEN--\":864:882   */\n      add\n        /* \"--CODEGEN--\":851:883   */\n      calldataload\n        /* \"--CODEGEN--\":903:921   */\n      0xffffffffffffffff\n        /* \"--CODEGEN--\":895:901   */\n      dup2\n        /* \"--CODEGEN--\":892:922   */\n      gt\n        /* \"--CODEGEN--\":889:891   */\n      iszero\n      tag_26\n      jumpi\n        /* \"--CODEGEN--\":935:936   */\n      0x00\n        /* \"--CODEGEN--\":932:933   */\n      dup1\n        /* \"--CODEGEN--\":925:937   */\n      revert\n        /* \"--CODEGEN--\":889:891   */\n    tag_26:\n        /* \"--CODEGEN--\":955:1018   */\n      tag_27\n        /* \"--CODEGEN--\":1010:1017   */\n      dup6\n        /* \"--CODEGEN--\":1001:1007   */\n      dup3\n        /* \"--CODEGEN--\":990:999   */\n      dup7\n        /* \"--CODEGEN--\":986:1008   */\n      add\n        /* \"--CODEGEN--\":955:1018   */\n      jump(tag_12)\n    tag_27:\n        /* \"--CODEGEN--\":945:1018   */\n      swap2\n      pop\n        /* \"--CODEGEN--\":830:1024   */\n      pop\n        /* \"--CODEGEN--\":559:1034   */\n      swap3\n      pop\n      swap3\n      swap1\n      pop\n      jump\n        /* \"--CODEGEN--\":1041:1145   */\n    tag_28:\n        /* \"--CODEGEN--\":1118:1139   */\n      tag_30\n        /* \"--CODEGEN--\":1133:1138   */\n      dup2\n        /* \"--CODEGEN--\":1118:1139   */\n      jump(tag_31)\n    tag_30:\n        /* \"--CODEGEN--\":1113:1116   */\n      dup3\n        /* \"--CODEGEN--\":1106:1140   */\n      mstore\n        /* \"--CODEGEN--\":1100:1145   */\n      pop\n      pop\n      jump\n        /* \"--CODEGEN--\":1152:1353   */\n    tag_9:\n      0x00\n        /* \"--CODEGEN--\":1264:1266   */\n      0x20\n        /* \"--CODEGEN--\":1253:1262   */\n      dup3\n        /* \"--CODEGEN--\":1249:1267   */\n      add\n        /* \"--CODEGEN--\":1241:1267   */\n      swap1\n      pop\n        /* \"--CODEGEN--\":1278:1343   */\n      tag_33\n        /* \"--CODEGEN--\":1340:1341   */\n      0x00\n        /* \"--CODEGEN--\":1329:1338   */\n      dup4\n        /* \"--CODEGEN--\":1325:1342   */\n      add\n        /* \"--CODEGEN--\":1316:1322   */\n      dup5\n        /* \"--CODEGEN--\":1278:1343   */\n      jump(tag_28)\n    tag_33:\n        /* \"--CODEGEN--\":1235:1353   */\n      swap3\n      swap2\n      pop\n      pop\n      jump\n        /* \"--CODEGEN--\":1360:1616   */\n    tag_18:\n      0x00\n        /* \"--CODEGEN--\":1422:1424   */\n      0x40\n        /* \"--CODEGEN--\":1416:1425   */\n      mload\n        /* \"--CODEGEN--\":1406:1425   */\n      swap1\n      pop\n        /* \"--CODEGEN--\":1460:1464   */\n      dup2\n        /* \"--CODEGEN--\":1452:1458   */\n      dup2\n        /* \"--CODEGEN--\":1448:1465   */\n      add\n        /* \"--CODEGEN--\":1559:1565   */\n      dup2\n        /* \"--CODEGEN--\":1547:1557   */\n      dup2\n        /* \"--CODEGEN--\":1544:1566   */\n      lt\n        /* \"--CODEGEN--\":1523:1541   */\n      0xffffffffffffffff\n        /* \"--CODEGEN--\":1511:1521   */\n      dup3\n        /* \"--CODEGEN--\":1508:1542   */\n      gt\n        /* \"--CODEGEN--\":1505:1567   */\n      or\n        /* \"--CODEGEN--\":1502:1504   */\n      iszero\n      tag_35\n      jumpi\n        /* \"--CODEGEN--\":1580:1581   */\n      0x00\n        /* \"--CODEGEN--\":1577:1578   */\n      dup1\n        /* \"--CODEGEN--\":1570:1582   */\n      revert\n        /* \"--CODEGEN--\":1502:1504   */\n    tag_35:\n        /* \"--CODEGEN--\":1600:1610   */\n      dup1\n        /* \"--CODEGEN--\":1596:1598   */\n      0x40\n        /* \"--CODEGEN--\":1589:1611   */\n      mstore\n        /* \"--CODEGEN--\":1400:1616   */\n      pop\n      swap2\n      swap1\n      pop\n      jump\n        /* \"--CODEGEN--\":1623:1945   */\n    tag_17:\n      0x00\n        /* \"--CODEGEN--\":1767:1785   */\n      0xffffffffffffffff\n        /* \"--CODEGEN--\":1759:1765   */\n      dup3\n        /* \"--CODEGEN--\":1756:1786   */\n      gt\n        /* \"--CODEGEN--\":1753:1755   */\n      iszero\n      tag_37\n      jumpi\n        /* \"--CODEGEN--\":1799:1800   */\n      0x00\n        /* \"--CODEGEN--\":1796:1797   */\n      dup1\n        /* \"--CODEGEN--\":1789:1801   */\n      revert\n        /* \"--CODEGEN--\":1753:1755   */\n    tag_37:\n        /* \"--CODEGEN--\":1866:1870   */\n      0x1f\n        /* \"--CODEGEN--\":1862:1871   */\n      not\n        /* \"--CODEGEN--\":1855:1859   */\n      0x1f\n        /* \"--CODEGEN--\":1847:1853   */\n      dup4\n        /* \"--CODEGEN--\":1843:1860   */\n      add\n        /* \"--CODEGEN--\":1839:1872   */\n      and\n        /* \"--CODEGEN--\":1831:1872   */\n      swap1\n      pop\n        /* \"--CODEGEN--\":1930:1934   */\n      0x20\n        /* \"--CODEGEN--\":1924:1928   */\n      dup2\n        /* \"--CODEGEN--\":1920:1935   */\n      add\n        /* \"--CODEGEN--\":1912:1935   */\n      swap1\n      pop\n        /* \"--CODEGEN--\":1690:1945   */\n      swap2\n      swap1\n      pop\n      jump\n        /* \"--CODEGEN--\":1952:2037   */\n    tag_31:\n      0x00\n        /* \"--CODEGEN--\":2025:2030   */\n      dup2\n        /* \"--CODEGEN--\":2018:2031   */\n      iszero\n        /* \"--CODEGEN--\":2011:2032   */\n      iszero\n        /* \"--CODEGEN--\":2000:2032   */\n      swap1\n      pop\n        /* \"--CODEGEN--\":1994:2037   */\n      swap2\n      swap1\n      pop\n      jump\n        /* \"--CODEGEN--\":2045:2190   */\n    tag_21:\n        /* \"--CODEGEN--\":2126:2132   */\n      dup3\n        /* \"--CODEGEN--\":2121:2124   */\n      dup2\n        /* \"--CODEGEN--\":2116:2119   */\n      dup4\n        /* \"--CODEGEN--\":2103:2133   */\n      calldatacopy\n        /* \"--CODEGEN--\":2182:2183   */\n      0x00\n        /* \"--CODEGEN--\":2173:2179   */\n      dup4\n        /* \"--CODEGEN--\":2168:2171   */\n      dup4\n        /* \"--CODEGEN--\":2164:2180   */\n      add\n        /* \"--CODEGEN--\":2157:2184   */\n      mstore\n        /* \"--CODEGEN--\":2096:2190   */\n      pop\n      pop\n      pop\n      jump\n\n    auxdata: 0xa26469706673582212201ea1d85d62e1e434a459eac2a3dbaf6b7a6c4fa0e2c9ef3a617350c2e03e8c0964736f6c63430006000033\n}\n",
				"bytecode": {
					"linkReferences": {},
					"object": "608060405234801561001057600080fd5b506101fc806100206000396000f3fe608060405234801561001057600080fd5b506004361061002b5760003560e01c806332af93f714610030575b600080fd5b61004a600480360361004591908101906100bc565b610060565b6040516100579190610137565b60405180910390f35b600092915050565b600082601f83011261007957600080fd5b813561008c6100878261017f565b610152565b915080825260208301602083018583830111156100a857600080fd5b6100b38382846101b7565b50505092915050565b600080604083850312156100cf57600080fd5b600083013567ffffffffffffffff8111156100e957600080fd5b6100f585828601610068565b925050602083013567ffffffffffffffff81111561011257600080fd5b61011e85828601610068565b9150509250929050565b610131816101ab565b82525050565b600060208201905061014c6000830184610128565b92915050565b6000604051905081810181811067ffffffffffffffff8211171561017557600080fd5b8060405250919050565b600067ffffffffffffffff82111561019657600080fd5b601f19601f8301169050602081019050919050565b60008115159050919050565b8281833760008383015250505056fea26469706673582212201ea1d85d62e1e434a459eac2a3dbaf6b7a6c4fa0e2c9ef3a617350c2e03e8c0964736f6c63430006000033",
					"opcodes": "PUSH1 0x80 PUSH1 0x40 MSTORE CALLVALUE DUP1 ISZERO PUSH2 0x10 JUMPI PUSH1 0x0 DUP1 REVERT JUMPDEST POP PUSH2 0x1FC DUP1 PUSH2 0x20 PUSH1 0x0 CODECOPY PUSH1 0x0 RETURN INVALID PUSH1 0x80 PUSH1 0x40 MSTORE CALLVALUE DUP1 ISZERO PUSH2 0x10 JUMPI PUSH1 0x0 DUP1 REVERT JUMPDEST POP PUSH1 0x4 CALLDATASIZE LT PUSH2 0x2B JUMPI PUSH1 0x0 CALLDATALOAD PUSH1 0xE0 SHR DUP1 PUSH4 0x32AF93F7 EQ PUSH2 0x30 JUMPI JUMPDEST PUSH1 0x0 DUP1 REVERT JUMPDEST PUSH2 0x4A PUSH1 0x4 DUP1 CALLDATASIZE SUB PUSH2 0x45 SWAP2 SWAP1 DUP2 ADD SWAP1 PUSH2 0xBC JUMP JUMPDEST PUSH2 0x60 JUMP JUMPDEST PUSH1 0x40 MLOAD PUSH2 0x57 SWAP2 SWAP1 PUSH2 0x137 JUMP JUMPDEST PUSH1 0x40 MLOAD DUP1 SWAP2 SUB SWAP1 RETURN JUMPDEST PUSH1 0x0 SWAP3 SWAP2 POP POP JUMP JUMPDEST PUSH1 0x0 DUP3 PUSH1 0x1F DUP4 ADD SLT PUSH2 0x79 JUMPI PUSH1 0x0 DUP1 REVERT JUMPDEST DUP2 CALLDATALOAD PUSH2 0x8C PUSH2 0x87 DUP3 PUSH2 0x17F JUMP JUMPDEST PUSH2 0x152 JUMP JUMPDEST SWAP2 POP DUP1 DUP3 MSTORE PUSH1 0x20 DUP4 ADD PUSH1 0x20 DUP4 ADD DUP6 DUP4 DUP4 ADD GT ISZERO PUSH2 0xA8 JUMPI PUSH1 0x0 DUP1 REVERT JUMPDEST PUSH2 0xB3 DUP4 DUP3 DUP5 PUSH2 0x1B7 JUMP JUMPDEST POP POP POP SWAP3 SWAP2 POP POP JUMP JUMPDEST PUSH1 0x0 DUP1 PUSH1 0x40 DUP4 DUP6 SUB SLT ISZERO PUSH2 0xCF JUMPI PUSH1 0x0 DUP1 REVERT JUMPDEST PUSH1 0x0 DUP4 ADD CALLDATALOAD PUSH8 0xFFFFFFFFFFFFFFFF DUP2 GT ISZERO PUSH2 0xE9 JUMPI PUSH1 0x0 DUP1 REVERT JUMPDEST PUSH2 0xF5 DUP6 DUP3 DUP7 ADD PUSH2 0x68 JUMP JUMPDEST SWAP3 POP POP PUSH1 0x20 DUP4 ADD CALLDATALOAD PUSH8 0xFFFFFFFFFFFFFFFF DUP2 GT ISZERO PUSH2 0x112 JUMPI PUSH1 0x0 DUP1 REVERT JUMPDEST PUSH2 0x11E DUP6 DUP3 DUP7 ADD PUSH2 0x68 JUMP JUMPDEST SWAP2 POP POP SWAP3 POP SWAP3 SWAP1 POP JUMP JUMPDEST PUSH2 0x131 DUP2 PUSH2 0x1AB JUMP JUMPDEST DUP3 MSTORE POP POP JUMP JUMPDEST PUSH1 0x0 PUSH1 0x20 DUP3 ADD SWAP1 POP PUSH2 0x14C PUSH1 0x0 DUP4 ADD DUP5 PUSH2 0x128 JUMP JUMPDEST SWAP3 SWAP2 POP POP JUMP JUMPDEST PUSH1 0x0 PUSH1 0x40 MLOAD SWAP1 POP DUP2 DUP2 ADD DUP2 DUP2 LT PUSH8 0xFFFFFFFFFFFFFFFF DUP3 GT OR ISZERO PUSH2 0x175 JUMPI PUSH1 0x0 DUP1 REVERT JUMPDEST DUP1 PUSH1 0x40 MSTORE POP SWAP2 SWAP1 POP JUMP JUMPDEST PUSH1 0x0 PUSH8 0xFFFFFFFFFFFFFFFF DUP3 GT ISZERO PUSH2 0x196 JUMPI PUSH1 0x0 DUP1 REVERT JUMPDEST PUSH1 0x1F NOT PUSH1 0x1F DUP4 ADD AND SWAP1 POP PUSH1 0x20 DUP2 ADD SWAP1 POP SWAP2 SWAP1 POP JUMP JUMPDEST PUSH1 0x0 DUP2 ISZERO ISZERO SWAP1 POP SWAP2 SWAP1 POP JUMP JUMPDEST DUP3 DUP2 DUP4 CALLDATACOPY PUSH1 0x0 DUP4 DUP4 ADD MSTORE POP POP POP JUMP INVALID LOG2 PUSH5 0x6970667358 0x22 SLT KECCAK256 0x1E LOG1 0xD8 0x5D PUSH3 0xE1E434 LOG4 MSIZE 0xEA 0xC2 LOG3 0xDB 0xAF PUSH12 0x7A6C4FA0E2C9EF3A617350C2 0xE0 RETURNDATACOPY DUP13 MULMOD PUSH5 0x736F6C6343 STOP MOD STOP STOP CALLER "
				},
				"gasEstimates": {
					"creation": {
						"codeDepositCost": "101600",
						"executionCost": "147",
						"totalCost": "101747"
					},
					"external": {
						"comparar(string,string)": "infinite"
					}
				},
				"methodIdentifiers": {
					"comparar(string,string)": "32af93f7"
				}
			},
			"storageLayout": {
				"storage": [],
				"types": null
			},
			"userdoc": {
				"methods": {}
			}
		}
	}
}