{
	"Tipos de variables y operadores/casteo.sol": {
		"casteo": {
			"abi": [
				{
					"inputs": [],
					"name": "casteo_a",
					"outputs": [
						{
							"internalType": "uint64",
							"name": "",
							"type": "uint64"
						}
					],
					"stateMutability": "view",
					"type": "function"
				}
			],
			"devdoc": {
				"methods": {}
			},
			"evm": {
				"assembly": "    /* \"Tipos de variables y operadores/casteo.sol\":27:173  contract casteo{\r... */\n  mstore(0x40, 0x80)\n    /* \"Tipos de variables y operadores/casteo.sol\":63:65  42 */\n  0x2a\n    /* \"Tipos de variables y operadores/casteo.sol\":53:65  uint8 a = 42 */\n  0x00\n  dup1\n  0x0100\n  exp\n  dup2\n  sload\n  dup2\n  0xff\n  mul\n  not\n  and\n  swap1\n  dup4\n  0xff\n  and\n  mul\n  or\n  swap1\n  sstore\n  pop\n    /* \"Tipos de variables y operadores/casteo.sol\":82:93  10101010101 */\n  0x025a112eb5\n    /* \"Tipos de variables y operadores/casteo.sol\":72:93  int64 b = 10101010101 */\n  0x00\n  exp(0x0100, 0x01)\n  dup2\n  sload\n  dup2\n  0xffffffffffffffff\n  mul\n  not\n  and\n  swap1\n  dup4\n  0x07\n  signextend\n  0xffffffffffffffff\n  and\n  mul\n  or\n  swap1\n  sstore\n  pop\n    /* \"Tipos de variables y operadores/casteo.sol\":109:114  23232 */\n  0x5ac0\n    /* \"Tipos de variables y operadores/casteo.sol\":100:114  uint c = 23232 */\n  0x01\n  sstore\n    /* \"Tipos de variables y operadores/casteo.sol\":155:156  a */\n  0x00\n  dup1\n  swap1\n  sload\n  swap1\n  0x0100\n  exp\n  swap1\n  div\n  0xff\n  and\n    /* \"Tipos de variables y operadores/casteo.sol\":148:157  uint64(a) */\n  0xff\n  and\n    /* \"Tipos de variables y operadores/casteo.sol\":123:157  uint64 public casteo_a = uint64(a) */\n  0x02\n  exp(0x0100, 0x00)\n  dup2\n  sload\n  dup2\n  0xffffffffffffffff\n  mul\n  not\n  and\n  swap1\n  dup4\n  0xffffffffffffffff\n  and\n  mul\n  or\n  swap1\n  sstore\n  pop\n    /* \"Tipos de variables y operadores/casteo.sol\":27:173  contract casteo{\r... */\n  callvalue\n    /* \"--CODEGEN--\":8:17   */\n  dup1\n    /* \"--CODEGEN--\":5:7   */\n  iszero\n  tag_1\n  jumpi\n    /* \"--CODEGEN--\":30:31   */\n  0x00\n    /* \"--CODEGEN--\":27:28   */\n  dup1\n    /* \"--CODEGEN--\":20:32   */\n  revert\n    /* \"--CODEGEN--\":5:7   */\ntag_1:\n    /* \"Tipos de variables y operadores/casteo.sol\":27:173  contract casteo{\r... */\n  pop\n  dataSize(sub_0)\n  dup1\n  dataOffset(sub_0)\n  0x00\n  codecopy\n  0x00\n  return\nstop\n\nsub_0: assembly {\n        /* \"Tipos de variables y operadores/casteo.sol\":27:173  contract casteo{\r... */\n      mstore(0x40, 0x80)\n      callvalue\n        /* \"--CODEGEN--\":8:17   */\n      dup1\n        /* \"--CODEGEN--\":5:7   */\n      iszero\n      tag_1\n      jumpi\n        /* \"--CODEGEN--\":30:31   */\n      0x00\n        /* \"--CODEGEN--\":27:28   */\n      dup1\n        /* \"--CODEGEN--\":20:32   */\n      revert\n        /* \"--CODEGEN--\":5:7   */\n    tag_1:\n        /* \"Tipos de variables y operadores/casteo.sol\":27:173  contract casteo{\r... */\n      pop\n      jumpi(tag_2, lt(calldatasize, 0x04))\n      shr(0xe0, calldataload(0x00))\n      dup1\n      0x9d47dfca\n      eq\n      tag_3\n      jumpi\n    tag_2:\n      0x00\n      dup1\n      revert\n        /* \"Tipos de variables y operadores/casteo.sol\":123:157  uint64 public casteo_a = uint64(a) */\n    tag_3:\n      tag_4\n      tag_5\n      jump\t// in\n    tag_4:\n      mload(0x40)\n      dup1\n      dup3\n      0xffffffffffffffff\n      and\n      0xffffffffffffffff\n      and\n      dup2\n      mstore\n      0x20\n      add\n      swap2\n      pop\n      pop\n      mload(0x40)\n      dup1\n      swap2\n      sub\n      swap1\n      return\n    tag_5:\n      0x02\n      0x00\n      swap1\n      sload\n      swap1\n      0x0100\n      exp\n      swap1\n      div\n      0xffffffffffffffff\n      and\n      dup2\n      jump\t// out\n\n    auxdata: 0xa2646970667358221220e55410033df192dcfe6f12efac005bdcda1c73d90610d869f6ef20374951d13564736f6c63430006000033\n}\n",
				"bytecode": {
					"linkReferences": {},
					"object": "6080604052602a6000806101000a81548160ff021916908360ff16021790555064025a112eb5600060016101000a81548167ffffffffffffffff021916908360070b67ffffffffffffffff160217905550615ac06001556000809054906101000a900460ff1660ff16600260006101000a81548167ffffffffffffffff021916908367ffffffffffffffff16021790555034801561009c57600080fd5b5060ad806100ab6000396000f3fe6080604052348015600f57600080fd5b506004361060285760003560e01c80639d47dfca14602d575b600080fd5b6033605d565b604051808267ffffffffffffffff1667ffffffffffffffff16815260200191505060405180910390f35b600260009054906101000a900467ffffffffffffffff168156fea2646970667358221220e55410033df192dcfe6f12efac005bdcda1c73d90610d869f6ef20374951d13564736f6c63430006000033",
					"opcodes": "PUSH1 0x80 PUSH1 0x40 MSTORE PUSH1 0x2A PUSH1 0x0 DUP1 PUSH2 0x100 EXP DUP2 SLOAD DUP2 PUSH1 0xFF MUL NOT AND SWAP1 DUP4 PUSH1 0xFF AND MUL OR SWAP1 SSTORE POP PUSH5 0x25A112EB5 PUSH1 0x0 PUSH1 0x1 PUSH2 0x100 EXP DUP2 SLOAD DUP2 PUSH8 0xFFFFFFFFFFFFFFFF MUL NOT AND SWAP1 DUP4 PUSH1 0x7 SIGNEXTEND PUSH8 0xFFFFFFFFFFFFFFFF AND MUL OR SWAP1 SSTORE POP PUSH2 0x5AC0 PUSH1 0x1 SSTORE PUSH1 0x0 DUP1 SWAP1 SLOAD SWAP1 PUSH2 0x100 EXP SWAP1 DIV PUSH1 0xFF AND PUSH1 0xFF AND PUSH1 0x2 PUSH1 0x0 PUSH2 0x100 EXP DUP2 SLOAD DUP2 PUSH8 0xFFFFFFFFFFFFFFFF MUL NOT AND SWAP1 DUP4 PUSH8 0xFFFFFFFFFFFFFFFF AND MUL OR SWAP1 SSTORE POP CALLVALUE DUP1 ISZERO PUSH2 0x9C JUMPI PUSH1 0x0 DUP1 REVERT JUMPDEST POP PUSH1 0xAD DUP1 PUSH2 0xAB PUSH1 0x0 CODECOPY PUSH1 0x0 RETURN INVALID PUSH1 0x80 PUSH1 0x40 MSTORE CALLVALUE DUP1 ISZERO PUSH1 0xF JUMPI PUSH1 0x0 DUP1 REVERT JUMPDEST POP PUSH1 0x4 CALLDATASIZE LT PUSH1 0x28 JUMPI PUSH1 0x0 CALLDATALOAD PUSH1 0xE0 SHR DUP1 PUSH4 0x9D47DFCA EQ PUSH1 0x2D JUMPI JUMPDEST PUSH1 0x0 DUP1 REVERT JUMPDEST PUSH1 0x33 PUSH1 0x5D JUMP JUMPDEST PUSH1 0x40 MLOAD DUP1 DUP3 PUSH8 0xFFFFFFFFFFFFFFFF AND PUSH8 0xFFFFFFFFFFFFFFFF AND DUP2 MSTORE PUSH1 0x20 ADD SWAP2 POP POP PUSH1 0x40 MLOAD DUP1 SWAP2 SUB SWAP1 RETURN JUMPDEST PUSH1 0x2 PUSH1 0x0 SWAP1 SLOAD SWAP1 PUSH2 0x100 EXP SWAP1 DIV PUSH8 0xFFFFFFFFFFFFFFFF AND DUP2 JUMP INVALID LOG2 PUSH5 0x6970667358 0x22 SLT KECCAK256 0xE5 SLOAD LT SUB RETURNDATASIZE CALL SWAP3 0xDC INVALID PUSH16 0x12EFAC005BDCDA1C73D90610D869F6EF KECCAK256 CALLDATACOPY 0x49 MLOAD 0xD1 CALLDATALOAD PUSH5 0x736F6C6343 STOP MOD STOP STOP CALLER "
				},
				"gasEstimates": {
					"creation": {
						"codeDepositCost": "34600",
						"executionCost": "83594",
						"totalCost": "118194"
					},
					"external": {
						"casteo_a()": "1031"
					}
				},
				"methodIdentifiers": {
					"casteo_a()": "9d47dfca"
				}
			},
			"storageLayout": {
				"storage": [
					{
						"astId": 4,
						"contract": "Tipos de variables y operadores/casteo.sol:casteo",
						"label": "a",
						"offset": 0,
						"slot": "0",
						"type": "t_uint8"
					},
					{
						"astId": 7,
						"contract": "Tipos de variables y operadores/casteo.sol:casteo",
						"label": "b",
						"offset": 1,
						"slot": "0",
						"type": "t_int64"
					},
					{
						"astId": 10,
						"contract": "Tipos de variables y operadores/casteo.sol:casteo",
						"label": "c",
						"offset": 0,
						"slot": "1",
						"type": "t_uint256"
					},
					{
						"astId": 16,
						"contract": "Tipos de variables y operadores/casteo.sol:casteo",
						"label": "casteo_a",
						"offset": 0,
						"slot": "2",
						"type": "t_uint64"
					}
				],
				"types": {
					"t_int64": {
						"encoding": "inplace",
						"label": "int64",
						"numberOfBytes": "8"
					},
					"t_uint256": {
						"encoding": "inplace",
						"label": "uint256",
						"numberOfBytes": "32"
					},
					"t_uint64": {
						"encoding": "inplace",
						"label": "uint64",
						"numberOfBytes": "8"
					},
					"t_uint8": {
						"encoding": "inplace",
						"label": "uint8",
						"numberOfBytes": "1"
					}
				}
			},
			"userdoc": {
				"methods": {}
			}
		}
	}
}