{
	"Propiedades de transacciones y bloques/keccak.sol": {
		"hash": {
			"abi": [
				{
					"inputs": [
						{
							"internalType": "string",
							"name": "_cadena",
							"type": "string"
						}
					],
					"name": "CalcularHash",
					"outputs": [
						{
							"internalType": "bytes32",
							"name": "",
							"type": "bytes32"
						}
					],
					"stateMutability": "pure",
					"type": "function"
				}
			],
			"devdoc": {
				"kind": "dev",
				"methods": {},
				"version": 1
			},
			"evm": {
				"assembly": "    /* \"Propiedades de transacciones y bloques/keccak.sol\":67:225  contract hash{   \r... */\n  mstore(0x40, 0x80)\n  callvalue\n  dup1\n  iszero\n  tag_1\n  jumpi\n  0x00\n  dup1\n  revert\ntag_1:\n  pop\n  dataSize(sub_0)\n  dup1\n  dataOffset(sub_0)\n  0x00\n  codecopy\n  0x00\n  return\nstop\n\nsub_0: assembly {\n        /* \"Propiedades de transacciones y bloques/keccak.sol\":67:225  contract hash{   \r... */\n      mstore(0x40, 0x80)\n      callvalue\n      dup1\n      iszero\n      tag_1\n      jumpi\n      0x00\n      dup1\n      revert\n    tag_1:\n      pop\n      jumpi(tag_2, lt(calldatasize, 0x04))\n      shr(0xe0, calldataload(0x00))\n      dup1\n      0x6922e186\n      eq\n      tag_3\n      jumpi\n    tag_2:\n      0x00\n      dup1\n      revert\n        /* \"Propiedades de transacciones y bloques/keccak.sol\":95:216  function CalcularHash(string memory _cadena) public pure returns(bytes32){\r... */\n    tag_3:\n      tag_4\n      0x04\n      dup1\n      calldatasize\n      sub\n      dup2\n      add\n      swap1\n      tag_5\n      swap2\n      swap1\n      tag_6\n      jump\t// in\n    tag_5:\n      tag_7\n      jump\t// in\n    tag_4:\n      mload(0x40)\n      tag_8\n      swap2\n      swap1\n      tag_9\n      jump\t// in\n    tag_8:\n      mload(0x40)\n      dup1\n      swap2\n      sub\n      swap1\n      return\n    tag_7:\n        /* \"Propiedades de transacciones y bloques/keccak.sol\":160:167  bytes32 */\n      0x00\n        /* \"Propiedades de transacciones y bloques/keccak.sol\":189:207  abi.encodePacked() */\n      add(0x20, mload(0x40))\n      mload(0x40)\n      0x20\n      dup2\n      dup4\n      sub\n      sub\n      dup2\n      mstore\n      swap1\n      0x40\n      mstore\n        /* \"Propiedades de transacciones y bloques/keccak.sol\":179:208  keccak256(abi.encodePacked()) */\n      dup1\n      mload\n      swap1\n      0x20\n      add\n      keccak256\n      pop\n        /* \"Propiedades de transacciones y bloques/keccak.sol\":95:216  function CalcularHash(string memory _cadena) public pure returns(bytes32){\r... */\n      swap2\n      swap1\n      pop\n      jump\t// out\n        /* \"--CODEGEN--\":6:448   */\n    tag_12:\n      0x00\n        /* \"--CODEGEN--\":108:111   */\n      dup3\n        /* \"--CODEGEN--\":101:105   */\n      0x1f\n        /* \"--CODEGEN--\":93:99   */\n      dup4\n        /* \"--CODEGEN--\":89:106   */\n      add\n        /* \"--CODEGEN--\":85:112   */\n      slt\n        /* \"--CODEGEN--\":75:77   */\n      tag_14\n      jumpi\n        /* \"--CODEGEN--\":126:127   */\n      0x00\n        /* \"--CODEGEN--\":123:124   */\n      dup1\n        /* \"--CODEGEN--\":116:128   */\n      revert\n        /* \"--CODEGEN--\":75:77   */\n    tag_14:\n        /* \"--CODEGEN--\":163:169   */\n      dup2\n        /* \"--CODEGEN--\":150:170   */\n      calldataload\n        /* \"--CODEGEN--\":185:250   */\n      tag_15\n        /* \"--CODEGEN--\":200:249   */\n      tag_16\n        /* \"--CODEGEN--\":242:248   */\n      dup3\n        /* \"--CODEGEN--\":200:249   */\n      tag_17\n      jump\t// in\n    tag_16:\n        /* \"--CODEGEN--\":185:250   */\n      tag_18\n      jump\t// in\n    tag_15:\n        /* \"--CODEGEN--\":176:250   */\n      swap2\n      pop\n        /* \"--CODEGEN--\":270:276   */\n      dup1\n        /* \"--CODEGEN--\":263:268   */\n      dup3\n        /* \"--CODEGEN--\":256:277   */\n      mstore\n        /* \"--CODEGEN--\":306:310   */\n      0x20\n        /* \"--CODEGEN--\":298:304   */\n      dup4\n        /* \"--CODEGEN--\":294:311   */\n      add\n        /* \"--CODEGEN--\":339:343   */\n      0x20\n        /* \"--CODEGEN--\":332:337   */\n      dup4\n        /* \"--CODEGEN--\":328:344   */\n      add\n        /* \"--CODEGEN--\":374:377   */\n      dup6\n        /* \"--CODEGEN--\":365:371   */\n      dup4\n        /* \"--CODEGEN--\":360:363   */\n      dup4\n        /* \"--CODEGEN--\":356:372   */\n      add\n        /* \"--CODEGEN--\":353:378   */\n      gt\n        /* \"--CODEGEN--\":350:352   */\n      iszero\n      tag_19\n      jumpi\n        /* \"--CODEGEN--\":391:392   */\n      0x00\n        /* \"--CODEGEN--\":388:389   */\n      dup1\n        /* \"--CODEGEN--\":381:393   */\n      revert\n        /* \"--CODEGEN--\":350:352   */\n    tag_19:\n        /* \"--CODEGEN--\":401:442   */\n      tag_20\n        /* \"--CODEGEN--\":435:441   */\n      dup4\n        /* \"--CODEGEN--\":430:433   */\n      dup3\n        /* \"--CODEGEN--\":425:428   */\n      dup5\n        /* \"--CODEGEN--\":401:442   */\n      tag_21\n      jump\t// in\n    tag_20:\n        /* \"--CODEGEN--\":68:448   */\n      pop\n      pop\n      pop\n      swap3\n      swap2\n      pop\n      pop\n      jump\t// out\n        /* \"--CODEGEN--\":456:803   */\n    tag_6:\n      0x00\n        /* \"--CODEGEN--\":570:572   */\n      0x20\n        /* \"--CODEGEN--\":558:567   */\n      dup3\n        /* \"--CODEGEN--\":549:556   */\n      dup5\n        /* \"--CODEGEN--\":545:568   */\n      sub\n        /* \"--CODEGEN--\":541:573   */\n      slt\n        /* \"--CODEGEN--\":538:540   */\n      iszero\n      tag_23\n      jumpi\n        /* \"--CODEGEN--\":586:587   */\n      0x00\n        /* \"--CODEGEN--\":583:584   */\n      dup1\n        /* \"--CODEGEN--\":576:588   */\n      revert\n        /* \"--CODEGEN--\":538:540   */\n    tag_23:\n        /* \"--CODEGEN--\":649:650   */\n      0x00\n        /* \"--CODEGEN--\":638:647   */\n      dup3\n        /* \"--CODEGEN--\":634:651   */\n      add\n        /* \"--CODEGEN--\":621:652   */\n      calldataload\n        /* \"--CODEGEN--\":672:690   */\n      0xffffffffffffffff\n        /* \"--CODEGEN--\":664:670   */\n      dup2\n        /* \"--CODEGEN--\":661:691   */\n      gt\n        /* \"--CODEGEN--\":658:660   */\n      iszero\n      tag_24\n      jumpi\n        /* \"--CODEGEN--\":704:705   */\n      0x00\n        /* \"--CODEGEN--\":701:702   */\n      dup1\n        /* \"--CODEGEN--\":694:706   */\n      revert\n        /* \"--CODEGEN--\":658:660   */\n    tag_24:\n        /* \"--CODEGEN--\":724:787   */\n      tag_25\n        /* \"--CODEGEN--\":779:786   */\n      dup5\n        /* \"--CODEGEN--\":770:776   */\n      dup3\n        /* \"--CODEGEN--\":759:768   */\n      dup6\n        /* \"--CODEGEN--\":755:777   */\n      add\n        /* \"--CODEGEN--\":724:787   */\n      tag_12\n      jump\t// in\n    tag_25:\n        /* \"--CODEGEN--\":714:787   */\n      swap2\n      pop\n        /* \"--CODEGEN--\":600:793   */\n      pop\n        /* \"--CODEGEN--\":532:803   */\n      swap3\n      swap2\n      pop\n      pop\n      jump\t// out\n        /* \"--CODEGEN--\":810:923   */\n    tag_26:\n        /* \"--CODEGEN--\":893:917   */\n      tag_28\n        /* \"--CODEGEN--\":911:916   */\n      dup2\n        /* \"--CODEGEN--\":893:917   */\n      tag_29\n      jump\t// in\n    tag_28:\n        /* \"--CODEGEN--\":888:891   */\n      dup3\n        /* \"--CODEGEN--\":881:918   */\n      mstore\n        /* \"--CODEGEN--\":875:923   */\n      pop\n      pop\n      jump\t// out\n        /* \"--CODEGEN--\":930:1152   */\n    tag_9:\n      0x00\n        /* \"--CODEGEN--\":1057:1059   */\n      0x20\n        /* \"--CODEGEN--\":1046:1055   */\n      dup3\n        /* \"--CODEGEN--\":1042:1060   */\n      add\n        /* \"--CODEGEN--\":1034:1060   */\n      swap1\n      pop\n        /* \"--CODEGEN--\":1071:1142   */\n      tag_31\n        /* \"--CODEGEN--\":1139:1140   */\n      0x00\n        /* \"--CODEGEN--\":1128:1137   */\n      dup4\n        /* \"--CODEGEN--\":1124:1141   */\n      add\n        /* \"--CODEGEN--\":1115:1121   */\n      dup5\n        /* \"--CODEGEN--\":1071:1142   */\n      tag_26\n      jump\t// in\n    tag_31:\n        /* \"--CODEGEN--\":1028:1152   */\n      swap3\n      swap2\n      pop\n      pop\n      jump\t// out\n        /* \"--CODEGEN--\":1159:1415   */\n    tag_18:\n      0x00\n        /* \"--CODEGEN--\":1221:1223   */\n      0x40\n        /* \"--CODEGEN--\":1215:1224   */\n      mload\n        /* \"--CODEGEN--\":1205:1224   */\n      swap1\n      pop\n        /* \"--CODEGEN--\":1259:1263   */\n      dup2\n        /* \"--CODEGEN--\":1251:1257   */\n      dup2\n        /* \"--CODEGEN--\":1247:1264   */\n      add\n        /* \"--CODEGEN--\":1358:1364   */\n      dup2\n        /* \"--CODEGEN--\":1346:1356   */\n      dup2\n        /* \"--CODEGEN--\":1343:1365   */\n      lt\n        /* \"--CODEGEN--\":1322:1340   */\n      0xffffffffffffffff\n        /* \"--CODEGEN--\":1310:1320   */\n      dup3\n        /* \"--CODEGEN--\":1307:1341   */\n      gt\n        /* \"--CODEGEN--\":1304:1366   */\n      or\n        /* \"--CODEGEN--\":1301:1303   */\n      iszero\n      tag_33\n      jumpi\n        /* \"--CODEGEN--\":1379:1380   */\n      0x00\n        /* \"--CODEGEN--\":1376:1377   */\n      dup1\n        /* \"--CODEGEN--\":1369:1381   */\n      revert\n        /* \"--CODEGEN--\":1301:1303   */\n    tag_33:\n        /* \"--CODEGEN--\":1399:1409   */\n      dup1\n        /* \"--CODEGEN--\":1395:1397   */\n      0x40\n        /* \"--CODEGEN--\":1388:1410   */\n      mstore\n        /* \"--CODEGEN--\":1199:1415   */\n      pop\n      swap2\n      swap1\n      pop\n      jump\t// out\n        /* \"--CODEGEN--\":1422:1744   */\n    tag_17:\n      0x00\n        /* \"--CODEGEN--\":1566:1584   */\n      0xffffffffffffffff\n        /* \"--CODEGEN--\":1558:1564   */\n      dup3\n        /* \"--CODEGEN--\":1555:1585   */\n      gt\n        /* \"--CODEGEN--\":1552:1554   */\n      iszero\n      tag_35\n      jumpi\n        /* \"--CODEGEN--\":1598:1599   */\n      0x00\n        /* \"--CODEGEN--\":1595:1596   */\n      dup1\n        /* \"--CODEGEN--\":1588:1600   */\n      revert\n        /* \"--CODEGEN--\":1552:1554   */\n    tag_35:\n        /* \"--CODEGEN--\":1665:1669   */\n      0x1f\n        /* \"--CODEGEN--\":1661:1670   */\n      not\n        /* \"--CODEGEN--\":1654:1658   */\n      0x1f\n        /* \"--CODEGEN--\":1646:1652   */\n      dup4\n        /* \"--CODEGEN--\":1642:1659   */\n      add\n        /* \"--CODEGEN--\":1638:1671   */\n      and\n        /* \"--CODEGEN--\":1630:1671   */\n      swap1\n      pop\n        /* \"--CODEGEN--\":1729:1733   */\n      0x20\n        /* \"--CODEGEN--\":1723:1727   */\n      dup2\n        /* \"--CODEGEN--\":1719:1734   */\n      add\n        /* \"--CODEGEN--\":1711:1734   */\n      swap1\n      pop\n        /* \"--CODEGEN--\":1489:1744   */\n      swap2\n      swap1\n      pop\n      jump\t// out\n        /* \"--CODEGEN--\":1751:1823   */\n    tag_29:\n      0x00\n        /* \"--CODEGEN--\":1813:1818   */\n      dup2\n        /* \"--CODEGEN--\":1802:1818   */\n      swap1\n      pop\n        /* \"--CODEGEN--\":1796:1823   */\n      swap2\n      swap1\n      pop\n      jump\t// out\n        /* \"--CODEGEN--\":1831:1976   */\n    tag_21:\n        /* \"--CODEGEN--\":1912:1918   */\n      dup3\n        /* \"--CODEGEN--\":1907:1910   */\n      dup2\n        /* \"--CODEGEN--\":1902:1905   */\n      dup4\n        /* \"--CODEGEN--\":1889:1919   */\n      calldatacopy\n        /* \"--CODEGEN--\":1968:1969   */\n      0x00\n        /* \"--CODEGEN--\":1959:1965   */\n      dup4\n        /* \"--CODEGEN--\":1954:1957   */\n      dup4\n        /* \"--CODEGEN--\":1950:1966   */\n      add\n        /* \"--CODEGEN--\":1943:1970   */\n      mstore\n        /* \"--CODEGEN--\":1882:1976   */\n      pop\n      pop\n      pop\n      jump\t// out\n\n    auxdata: 0xa2646970667358221220132e84512159e656ae129915dce7b8718a1ce74b7a2a7765f39cb59560c269b864736f6c634300060c0033\n}\n",
				"bytecode": {
					"linkReferences": {},
					"object": "608060405234801561001057600080fd5b506101eb806100206000396000f3fe608060405234801561001057600080fd5b506004361061002b5760003560e01c80636922e18614610030575b600080fd5b61004a600480360381019061004591906100d8565b610060565b6040516100579190610128565b60405180910390f35b60006040516020016040516020818303038152906040528051906020012050919050565b600082601f83011261009557600080fd5b81356100a86100a382610170565b610143565b915080825260208301602083018583830111156100c457600080fd5b6100cf8382846101a6565b50505092915050565b6000602082840312156100ea57600080fd5b600082013567ffffffffffffffff81111561010457600080fd5b61011084828501610084565b91505092915050565b6101228161019c565b82525050565b600060208201905061013d6000830184610119565b92915050565b6000604051905081810181811067ffffffffffffffff8211171561016657600080fd5b8060405250919050565b600067ffffffffffffffff82111561018757600080fd5b601f19601f8301169050602081019050919050565b6000819050919050565b8281833760008383015250505056fea2646970667358221220132e84512159e656ae129915dce7b8718a1ce74b7a2a7765f39cb59560c269b864736f6c634300060c0033",
					"opcodes": "PUSH1 0x80 PUSH1 0x40 MSTORE CALLVALUE DUP1 ISZERO PUSH2 0x10 JUMPI PUSH1 0x0 DUP1 REVERT JUMPDEST POP PUSH2 0x1EB DUP1 PUSH2 0x20 PUSH1 0x0 CODECOPY PUSH1 0x0 RETURN INVALID PUSH1 0x80 PUSH1 0x40 MSTORE CALLVALUE DUP1 ISZERO PUSH2 0x10 JUMPI PUSH1 0x0 DUP1 REVERT JUMPDEST POP PUSH1 0x4 CALLDATASIZE LT PUSH2 0x2B JUMPI PUSH1 0x0 CALLDATALOAD PUSH1 0xE0 SHR DUP1 PUSH4 0x6922E186 EQ PUSH2 0x30 JUMPI JUMPDEST PUSH1 0x0 DUP1 REVERT JUMPDEST PUSH2 0x4A PUSH1 0x4 DUP1 CALLDATASIZE SUB DUP2 ADD SWAP1 PUSH2 0x45 SWAP2 SWAP1 PUSH2 0xD8 JUMP JUMPDEST PUSH2 0x60 JUMP JUMPDEST PUSH1 0x40 MLOAD PUSH2 0x57 SWAP2 SWAP1 PUSH2 0x128 JUMP JUMPDEST PUSH1 0x40 MLOAD DUP1 SWAP2 SUB SWAP1 RETURN JUMPDEST PUSH1 0x0 PUSH1 0x40 MLOAD PUSH1 0x20 ADD PUSH1 0x40 MLOAD PUSH1 0x20 DUP2 DUP4 SUB SUB DUP2 MSTORE SWAP1 PUSH1 0x40 MSTORE DUP1 MLOAD SWAP1 PUSH1 0x20 ADD KECCAK256 POP SWAP2 SWAP1 POP JUMP JUMPDEST PUSH1 0x0 DUP3 PUSH1 0x1F DUP4 ADD SLT PUSH2 0x95 JUMPI PUSH1 0x0 DUP1 REVERT JUMPDEST DUP2 CALLDATALOAD PUSH2 0xA8 PUSH2 0xA3 DUP3 PUSH2 0x170 JUMP JUMPDEST PUSH2 0x143 JUMP JUMPDEST SWAP2 POP DUP1 DUP3 MSTORE PUSH1 0x20 DUP4 ADD PUSH1 0x20 DUP4 ADD DUP6 DUP4 DUP4 ADD GT ISZERO PUSH2 0xC4 JUMPI PUSH1 0x0 DUP1 REVERT JUMPDEST PUSH2 0xCF DUP4 DUP3 DUP5 PUSH2 0x1A6 JUMP JUMPDEST POP POP POP SWAP3 SWAP2 POP POP JUMP JUMPDEST PUSH1 0x0 PUSH1 0x20 DUP3 DUP5 SUB SLT ISZERO PUSH2 0xEA JUMPI PUSH1 0x0 DUP1 REVERT JUMPDEST PUSH1 0x0 DUP3 ADD CALLDATALOAD PUSH8 0xFFFFFFFFFFFFFFFF DUP2 GT ISZERO PUSH2 0x104 JUMPI PUSH1 0x0 DUP1 REVERT JUMPDEST PUSH2 0x110 DUP5 DUP3 DUP6 ADD PUSH2 0x84 JUMP JUMPDEST SWAP2 POP POP SWAP3 SWAP2 POP POP JUMP JUMPDEST PUSH2 0x122 DUP2 PUSH2 0x19C JUMP JUMPDEST DUP3 MSTORE POP POP JUMP JUMPDEST PUSH1 0x0 PUSH1 0x20 DUP3 ADD SWAP1 POP PUSH2 0x13D PUSH1 0x0 DUP4 ADD DUP5 PUSH2 0x119 JUMP JUMPDEST SWAP3 SWAP2 POP POP JUMP JUMPDEST PUSH1 0x0 PUSH1 0x40 MLOAD SWAP1 POP DUP2 DUP2 ADD DUP2 DUP2 LT PUSH8 0xFFFFFFFFFFFFFFFF DUP3 GT OR ISZERO PUSH2 0x166 JUMPI PUSH1 0x0 DUP1 REVERT JUMPDEST DUP1 PUSH1 0x40 MSTORE POP SWAP2 SWAP1 POP JUMP JUMPDEST PUSH1 0x0 PUSH8 0xFFFFFFFFFFFFFFFF DUP3 GT ISZERO PUSH2 0x187 JUMPI PUSH1 0x0 DUP1 REVERT JUMPDEST PUSH1 0x1F NOT PUSH1 0x1F DUP4 ADD AND SWAP1 POP PUSH1 0x20 DUP2 ADD SWAP1 POP SWAP2 SWAP1 POP JUMP JUMPDEST PUSH1 0x0 DUP2 SWAP1 POP SWAP2 SWAP1 POP JUMP JUMPDEST DUP3 DUP2 DUP4 CALLDATACOPY PUSH1 0x0 DUP4 DUP4 ADD MSTORE POP POP POP JUMP INVALID LOG2 PUSH5 0x6970667358 0x22 SLT KECCAK256 SGT 0x2E DUP5 MLOAD 0x21 MSIZE 0xE6 JUMP 0xAE SLT SWAP10 ISZERO 0xDC 0xE7 0xB8 PUSH18 0x8A1CE74B7A2A7765F39CB59560C269B86473 PUSH16 0x6C634300060C00330000000000000000 "
				},
				"gasEstimates": {
					"creation": {
						"codeDepositCost": "98200",
						"executionCost": "147",
						"totalCost": "98347"
					},
					"external": {
						"CalcularHash(string)": "infinite"
					}
				},
				"methodIdentifiers": {
					"CalcularHash(string)": "6922e186"
				}
			},
			"storageLayout": {
				"storage": [],
				"types": null
			},
			"userdoc": {
				"kind": "user",
				"methods": {},
				"version": 1
			}
		}
	}
}