{
	"Propiedades de transacciones y bloques/funciones_globales.sol": {
		"funciones_globales": {
			"abi": [
				{
					"inputs": [],
					"name": "BlockCoinbase",
					"outputs": [
						{
							"internalType": "address",
							"name": "",
							"type": "address"
						}
					],
					"stateMutability": "view",
					"type": "function"
				},
				{
					"inputs": [],
					"name": "BlockDifficulty",
					"outputs": [
						{
							"internalType": "uint256",
							"name": "",
							"type": "uint256"
						}
					],
					"stateMutability": "view",
					"type": "function"
				},
				{
					"inputs": [],
					"name": "BlockNumber",
					"outputs": [
						{
							"internalType": "uint256",
							"name": "",
							"type": "uint256"
						}
					],
					"stateMutability": "view",
					"type": "function"
				},
				{
					"inputs": [],
					"name": "MsgSender",
					"outputs": [
						{
							"internalType": "address",
							"name": "",
							"type": "address"
						}
					],
					"stateMutability": "view",
					"type": "function"
				},
				{
					"inputs": [],
					"name": "MsgSig",
					"outputs": [
						{
							"internalType": "bytes4",
							"name": "",
							"type": "bytes4"
						}
					],
					"stateMutability": "view",
					"type": "function"
				},
				{
					"inputs": [],
					"name": "now",
					"outputs": [
						{
							"internalType": "uint256",
							"name": "",
							"type": "uint256"
						}
					],
					"stateMutability": "view",
					"type": "function"
				}
			],
			"devdoc": {
				"kind": "dev",
				"methods": {},
				"version": 1
			},
			"evm": {
				"assembly": "    /* \"Propiedades de transacciones y bloques/funciones_globales.sol\":27:598  contract funciones_globales{\r... */\n  mstore(0x40, 0x80)\n  callvalue\n  dup1\n  iszero\n  tag_1\n  jumpi\n  0x00\n  dup1\n  revert\ntag_1:\n  pop\n  dataSize(sub_0)\n  dup1\n  dataOffset(sub_0)\n  0x00\n  codecopy\n  0x00\n  return\nstop\n\nsub_0: assembly {\n        /* \"Propiedades de transacciones y bloques/funciones_globales.sol\":27:598  contract funciones_globales{\r... */\n      mstore(0x40, 0x80)\n      callvalue\n      dup1\n      iszero\n      tag_1\n      jumpi\n      0x00\n      dup1\n      revert\n    tag_1:\n      pop\n      jumpi(tag_2, lt(calldatasize, 0x04))\n      shr(0xe0, calldataload(0x00))\n      dup1\n      0x083f3ec4\n      eq\n      tag_3\n      jumpi\n      dup1\n      0x0a649267\n      eq\n      tag_4\n      jumpi\n      dup1\n      0x64868510\n      eq\n      tag_5\n      jumpi\n      dup1\n      0x84d63e12\n      eq\n      tag_6\n      jumpi\n      dup1\n      0x8abe09f2\n      eq\n      tag_7\n      jumpi\n      dup1\n      0xe6c595c0\n      eq\n      tag_8\n      jumpi\n    tag_2:\n      0x00\n      dup1\n      revert\n        /* \"Propiedades de transacciones y bloques/funciones_globales.sol\":449:527  function MsgSig() public view returns(bytes4){\r... */\n    tag_3:\n      tag_9\n      tag_10\n      jump\t// in\n    tag_9:\n      mload(0x40)\n      dup1\n      dup3\n      not(0xffffffffffffffffffffffffffffffffffffffffffffffffffffffff)\n      and\n      dup2\n      mstore\n      0x20\n      add\n      swap2\n      pop\n      pop\n      mload(0x40)\n      dup1\n      swap2\n      sub\n      swap1\n      return\n        /* \"Propiedades de transacciones y bloques/funciones_globales.sol\":156:249  function BlockCoinbase() public view returns(address){\r... */\n    tag_4:\n      tag_11\n      tag_12\n      jump\t// in\n    tag_11:\n      mload(0x40)\n      dup1\n      dup3\n      0xffffffffffffffffffffffffffffffffffffffff\n      and\n      dup2\n      mstore\n      0x20\n      add\n      swap2\n      pop\n      pop\n      mload(0x40)\n      dup1\n      swap2\n      sub\n      swap1\n      return\n        /* \"Propiedades de transacciones y bloques/funciones_globales.sol\":359:441  function BlockNumber() public view returns(uint){\r... */\n    tag_5:\n      tag_13\n      tag_14\n      jump\t// in\n    tag_13:\n      mload(0x40)\n      dup1\n      dup3\n      dup2\n      mstore\n      0x20\n      add\n      swap2\n      pop\n      pop\n      mload(0x40)\n      dup1\n      swap2\n      sub\n      swap1\n      return\n        /* \"Propiedades de transacciones y bloques/funciones_globales.sol\":63:148  function MsgSender() public view returns(address){\r... */\n    tag_6:\n      tag_15\n      tag_16\n      jump\t// in\n    tag_15:\n      mload(0x40)\n      dup1\n      dup3\n      0xffffffffffffffffffffffffffffffffffffffff\n      and\n      dup2\n      mstore\n      0x20\n      add\n      swap2\n      pop\n      pop\n      mload(0x40)\n      dup1\n      swap2\n      sub\n      swap1\n      return\n        /* \"Propiedades de transacciones y bloques/funciones_globales.sol\":535:593  function now() public view returns(uint){\r... */\n    tag_7:\n      tag_17\n      tag_18\n      jump\t// in\n    tag_17:\n      mload(0x40)\n      dup1\n      dup3\n      dup2\n      mstore\n      0x20\n      add\n      swap2\n      pop\n      pop\n      mload(0x40)\n      dup1\n      swap2\n      sub\n      swap1\n      return\n        /* \"Propiedades de transacciones y bloques/funciones_globales.sol\":257:351  function BlockDifficulty() public view returns(uint){\r... */\n    tag_8:\n      tag_19\n      tag_20\n      jump\t// in\n    tag_19:\n      mload(0x40)\n      dup1\n      dup3\n      dup2\n      mstore\n      0x20\n      add\n      swap2\n      pop\n      pop\n      mload(0x40)\n      dup1\n      swap2\n      sub\n      swap1\n      return\n        /* \"Propiedades de transacciones y bloques/funciones_globales.sol\":449:527  function MsgSig() public view returns(bytes4){\r... */\n    tag_10:\n        /* \"Propiedades de transacciones y bloques/funciones_globales.sol\":487:493  bytes4 */\n      0x00\n        /* \"Propiedades de transacciones y bloques/funciones_globales.sol\":512:519  msg.sig */\n      dup1\n      calldataload\n      0xffffffff00000000000000000000000000000000000000000000000000000000\n      and\n        /* \"Propiedades de transacciones y bloques/funciones_globales.sol\":505:519  return msg.sig */\n      swap1\n      pop\n        /* \"Propiedades de transacciones y bloques/funciones_globales.sol\":449:527  function MsgSig() public view returns(bytes4){\r... */\n      swap1\n      jump\t// out\n        /* \"Propiedades de transacciones y bloques/funciones_globales.sol\":156:249  function BlockCoinbase() public view returns(address){\r... */\n    tag_12:\n        /* \"Propiedades de transacciones y bloques/funciones_globales.sol\":201:208  address */\n      0x00\n        /* \"Propiedades de transacciones y bloques/funciones_globales.sol\":227:241  block.coinbase */\n      coinbase\n        /* \"Propiedades de transacciones y bloques/funciones_globales.sol\":220:241  return block.coinbase */\n      swap1\n      pop\n        /* \"Propiedades de transacciones y bloques/funciones_globales.sol\":156:249  function BlockCoinbase() public view returns(address){\r... */\n      swap1\n      jump\t// out\n        /* \"Propiedades de transacciones y bloques/funciones_globales.sol\":359:441  function BlockNumber() public view returns(uint){\r... */\n    tag_14:\n        /* \"Propiedades de transacciones y bloques/funciones_globales.sol\":402:406  uint */\n      0x00\n        /* \"Propiedades de transacciones y bloques/funciones_globales.sol\":425:437  block.number */\n      number\n        /* \"Propiedades de transacciones y bloques/funciones_globales.sol\":418:437  return block.number */\n      swap1\n      pop\n        /* \"Propiedades de transacciones y bloques/funciones_globales.sol\":359:441  function BlockNumber() public view returns(uint){\r... */\n      swap1\n      jump\t// out\n        /* \"Propiedades de transacciones y bloques/funciones_globales.sol\":63:148  function MsgSender() public view returns(address){\r... */\n    tag_16:\n        /* \"Propiedades de transacciones y bloques/funciones_globales.sol\":104:111  address */\n      0x00\n        /* \"Propiedades de transacciones y bloques/funciones_globales.sol\":130:140  msg.sender */\n      caller\n        /* \"Propiedades de transacciones y bloques/funciones_globales.sol\":123:140  return msg.sender */\n      swap1\n      pop\n        /* \"Propiedades de transacciones y bloques/funciones_globales.sol\":63:148  function MsgSender() public view returns(address){\r... */\n      swap1\n      jump\t// out\n        /* \"Propiedades de transacciones y bloques/funciones_globales.sol\":535:593  function now() public view returns(uint){\r... */\n    tag_18:\n        /* \"Propiedades de transacciones y bloques/funciones_globales.sol\":570:574  uint */\n      0x00\n        /* \"Propiedades de transacciones y bloques/funciones_globales.sol\":535:593  function now() public view returns(uint){\r... */\n      swap1\n      jump\t// out\n        /* \"Propiedades de transacciones y bloques/funciones_globales.sol\":257:351  function BlockDifficulty() public view returns(uint){\r... */\n    tag_20:\n        /* \"Propiedades de transacciones y bloques/funciones_globales.sol\":304:308  uint */\n      0x00\n        /* \"Propiedades de transacciones y bloques/funciones_globales.sol\":327:343  block.difficulty */\n      difficulty\n        /* \"Propiedades de transacciones y bloques/funciones_globales.sol\":320:343  return block.difficulty */\n      swap1\n      pop\n        /* \"Propiedades de transacciones y bloques/funciones_globales.sol\":257:351  function BlockDifficulty() public view returns(uint){\r... */\n      swap1\n      jump\t// out\n\n    auxdata: 0xa264697066735822122078c347b429ccd3d6b14a4485b1ce367ee0bf4057ba4aa3344ab15960f66ddc7464736f6c634300060c0033\n}\n",
				"bytecode": {
					"linkReferences": {},
					"object": "608060405234801561001057600080fd5b506101ec806100206000396000f3fe608060405234801561001057600080fd5b50600436106100625760003560e01c8063083f3ec4146100675780630a649267146100a457806364868510146100d857806384d63e12146100f65780638abe09f21461012a578063e6c595c014610148575b600080fd5b61006f610166565b60405180827bffffffffffffffffffffffffffffffffffffffffffffffffffffffff1916815260200191505060405180910390f35b6100ac610191565b604051808273ffffffffffffffffffffffffffffffffffffffff16815260200191505060405180910390f35b6100e0610199565b6040518082815260200191505060405180910390f35b6100fe6101a1565b604051808273ffffffffffffffffffffffffffffffffffffffff16815260200191505060405180910390f35b6101326101a9565b6040518082815260200191505060405180910390f35b6101506101ae565b6040518082815260200191505060405180910390f35b600080357fffffffff0000000000000000000000000000000000000000000000000000000016905090565b600041905090565b600043905090565b600033905090565b600090565b60004490509056fea264697066735822122078c347b429ccd3d6b14a4485b1ce367ee0bf4057ba4aa3344ab15960f66ddc7464736f6c634300060c0033",
					"opcodes": "PUSH1 0x80 PUSH1 0x40 MSTORE CALLVALUE DUP1 ISZERO PUSH2 0x10 JUMPI PUSH1 0x0 DUP1 REVERT JUMPDEST POP PUSH2 0x1EC DUP1 PUSH2 0x20 PUSH1 0x0 CODECOPY PUSH1 0x0 RETURN INVALID PUSH1 0x80 PUSH1 0x40 MSTORE CALLVALUE DUP1 ISZERO PUSH2 0x10 JUMPI PUSH1 0x0 DUP1 REVERT JUMPDEST POP PUSH1 0x4 CALLDATASIZE LT PUSH2 0x62 JUMPI PUSH1 0x0 CALLDATALOAD PUSH1 0xE0 SHR DUP1 PUSH4 0x83F3EC4 EQ PUSH2 0x67 JUMPI DUP1 PUSH4 0xA649267 EQ PUSH2 0xA4 JUMPI DUP1 PUSH4 0x64868510 EQ PUSH2 0xD8 JUMPI DUP1 PUSH4 0x84D63E12 EQ PUSH2 0xF6 JUMPI DUP1 PUSH4 0x8ABE09F2 EQ PUSH2 0x12A JUMPI DUP1 PUSH4 0xE6C595C0 EQ PUSH2 0x148 JUMPI JUMPDEST PUSH1 0x0 DUP1 REVERT JUMPDEST PUSH2 0x6F PUSH2 0x166 JUMP JUMPDEST PUSH1 0x40 MLOAD DUP1 DUP3 PUSH28 0xFFFFFFFFFFFFFFFFFFFFFFFFFFFFFFFFFFFFFFFFFFFFFFFFFFFFFFFF NOT AND DUP2 MSTORE PUSH1 0x20 ADD SWAP2 POP POP PUSH1 0x40 MLOAD DUP1 SWAP2 SUB SWAP1 RETURN JUMPDEST PUSH2 0xAC PUSH2 0x191 JUMP JUMPDEST PUSH1 0x40 MLOAD DUP1 DUP3 PUSH20 0xFFFFFFFFFFFFFFFFFFFFFFFFFFFFFFFFFFFFFFFF AND DUP2 MSTORE PUSH1 0x20 ADD SWAP2 POP POP PUSH1 0x40 MLOAD DUP1 SWAP2 SUB SWAP1 RETURN JUMPDEST PUSH2 0xE0 PUSH2 0x199 JUMP JUMPDEST PUSH1 0x40 MLOAD DUP1 DUP3 DUP2 MSTORE PUSH1 0x20 ADD SWAP2 POP POP PUSH1 0x40 MLOAD DUP1 SWAP2 SUB SWAP1 RETURN JUMPDEST PUSH2 0xFE PUSH2 0x1A1 JUMP JUMPDEST PUSH1 0x40 MLOAD DUP1 DUP3 PUSH20 0xFFFFFFFFFFFFFFFFFFFFFFFFFFFFFFFFFFFFFFFF AND DUP2 MSTORE PUSH1 0x20 ADD SWAP2 POP POP PUSH1 0x40 MLOAD DUP1 SWAP2 SUB SWAP1 RETURN JUMPDEST PUSH2 0x132 PUSH2 0x1A9 JUMP JUMPDEST PUSH1 0x40 MLOAD DUP1 DUP3 DUP2 MSTORE PUSH1 0x20 ADD SWAP2 POP POP PUSH1 0x40 MLOAD DUP1 SWAP2 SUB SWAP1 RETURN JUMPDEST PUSH2 0x150 PUSH2 0x1AE JUMP JUMPDEST PUSH1 0x40 MLOAD DUP1 DUP3 DUP2 MSTORE PUSH1 0x20 ADD SWAP2 POP POP PUSH1 0x40 MLOAD DUP1 SWAP2 SUB SWAP1 RETURN JUMPDEST PUSH1 0x0 DUP1 CALLDATALOAD PUSH32 0xFFFFFFFF00000000000000000000000000000000000000000000000000000000 AND SWAP1 POP SWAP1 JUMP JUMPDEST PUSH1 0x0 COINBASE SWAP1 POP SWAP1 JUMP JUMPDEST PUSH1 0x0 NUMBER SWAP1 POP SWAP1 JUMP JUMPDEST PUSH1 0x0 CALLER SWAP1 POP SWAP1 JUMP JUMPDEST PUSH1 0x0 SWAP1 JUMP JUMPDEST PUSH1 0x0 DIFFICULTY SWAP1 POP SWAP1 JUMP INVALID LOG2 PUSH5 0x6970667358 0x22 SLT KECCAK256 PUSH25 0xC347B429CCD3D6B14A4485B1CE367EE0BF4057BA4AA3344AB1 MSIZE PUSH1 0xF6 PUSH14 0xDC7464736F6C634300060C003300 "
				},
				"gasEstimates": {
					"creation": {
						"codeDepositCost": "98400",
						"executionCost": "147",
						"totalCost": "98547"
					},
					"external": {
						"BlockCoinbase()": "218",
						"BlockDifficulty()": "300",
						"BlockNumber()": "234",
						"MsgSender()": "262",
						"MsgSig()": "209",
						"now()": "271"
					}
				},
				"methodIdentifiers": {
					"BlockCoinbase()": "0a649267",
					"BlockDifficulty()": "e6c595c0",
					"BlockNumber()": "64868510",
					"MsgSender()": "84d63e12",
					"MsgSig()": "083f3ec4",
					"now()": "8abe09f2"
				}
			},
			"storageLayout": {
				"storage": [],
				"types": null
			},
			"userdoc": {
				"kind": "user",
				"methods": {},
				"version": 1
			}
		}
	}
}