{
	"Propiedades de transacciones y bloques/keccak.sol": {
		"hash": {
			"abi": [
				{
					"inputs": [
						{
							"internalType": "string",
							"name": "_cadena",
							"type": "string"
						},
						{
							"internalType": "uint256",
							"name": "k",
							"type": "uint256"
						}
					],
					"name": "CalcularHash",
					"outputs": [
						{
							"internalType": "bytes32",
							"name": "",
							"type": "bytes32"
						}
					],
					"stateMutability": "pure",
					"type": "function"
				},
				{
					"inputs": [
						{
							"internalType": "string",
							"name": "_cadena",
							"type": "string"
						}
					],
					"name": "CalcularHash",
					"outputs": [
						{
							"internalType": "bytes32",
							"name": "",
							"type": "bytes32"
						}
					],
					"stateMutability": "pure",
					"type": "function"
				}
			],
			"devdoc": {
				"kind": "dev",
				"methods": {},
				"version": 1
			},
			"evm": {
				"assembly": "    /* \"Propiedades de transacciones y bloques/keccak.sol\":67:380  contract hash{   \r... */\n  mstore(0x40, 0x80)\n  callvalue\n  dup1\n  iszero\n  tag_1\n  jumpi\n  0x00\n  dup1\n  revert\ntag_1:\n  pop\n  dataSize(sub_0)\n  dup1\n  dataOffset(sub_0)\n  0x00\n  codecopy\n  0x00\n  return\nstop\n\nsub_0: assembly {\n        /* \"Propiedades de transacciones y bloques/keccak.sol\":67:380  contract hash{   \r... */\n      mstore(0x40, 0x80)\n      callvalue\n      dup1\n      iszero\n      tag_1\n      jumpi\n      0x00\n      dup1\n      revert\n    tag_1:\n      pop\n      jumpi(tag_2, lt(calldatasize, 0x04))\n      shr(0xe0, calldataload(0x00))\n      dup1\n      0x4362c437\n      eq\n      tag_3\n      jumpi\n      dup1\n      0x6922e186\n      eq\n      tag_4\n      jumpi\n    tag_2:\n      0x00\n      dup1\n      revert\n        /* \"Propiedades de transacciones y bloques/keccak.sol\":235:371  function CalcularHash(string memory _cadena, uint k) public pure returns(bytes32){\r... */\n    tag_3:\n      tag_5\n      0x04\n      dup1\n      calldatasize\n      sub\n      dup2\n      add\n      swap1\n      tag_6\n      swap2\n      swap1\n      tag_7\n      jump\t// in\n    tag_6:\n      tag_8\n      jump\t// in\n    tag_5:\n      mload(0x40)\n      tag_9\n      swap2\n      swap1\n      tag_10\n      jump\t// in\n    tag_9:\n      mload(0x40)\n      dup1\n      swap2\n      sub\n      swap1\n      return\n        /* \"Propiedades de transacciones y bloques/keccak.sol\":95:223  function CalcularHash(string memory _cadena) public pure returns(bytes32){\r... */\n    tag_4:\n      tag_11\n      0x04\n      dup1\n      calldatasize\n      sub\n      dup2\n      add\n      swap1\n      tag_12\n      swap2\n      swap1\n      tag_13\n      jump\t// in\n    tag_12:\n      tag_14\n      jump\t// in\n    tag_11:\n      mload(0x40)\n      tag_15\n      swap2\n      swap1\n      tag_10\n      jump\t// in\n    tag_15:\n      mload(0x40)\n      dup1\n      swap2\n      sub\n      swap1\n      return\n        /* \"Propiedades de transacciones y bloques/keccak.sol\":235:371  function CalcularHash(string memory _cadena, uint k) public pure returns(bytes32){\r... */\n    tag_8:\n        /* \"Propiedades de transacciones y bloques/keccak.sol\":308:315  bytes32 */\n      0x00\n        /* \"Propiedades de transacciones y bloques/keccak.sol\":354:361  _cadena */\n      dup3\n        /* \"Propiedades de transacciones y bloques/keccak.sol\":337:362  abi.encodePacked(_cadena) */\n      add(0x20, mload(0x40))\n      tag_17\n      swap2\n      swap1\n      tag_18\n      jump\t// in\n    tag_17:\n      mload(0x40)\n      0x20\n      dup2\n      dup4\n      sub\n      sub\n      dup2\n      mstore\n      swap1\n      0x40\n      mstore\n        /* \"Propiedades de transacciones y bloques/keccak.sol\":327:363  keccak256(abi.encodePacked(_cadena)) */\n      dup1\n      mload\n      swap1\n      0x20\n      add\n      keccak256\n      pop\n        /* \"Propiedades de transacciones y bloques/keccak.sol\":235:371  function CalcularHash(string memory _cadena, uint k) public pure returns(bytes32){\r... */\n      swap3\n      swap2\n      pop\n      pop\n      jump\t// out\n        /* \"Propiedades de transacciones y bloques/keccak.sol\":95:223  function CalcularHash(string memory _cadena) public pure returns(bytes32){\r... */\n    tag_14:\n        /* \"Propiedades de transacciones y bloques/keccak.sol\":160:167  bytes32 */\n      0x00\n        /* \"Propiedades de transacciones y bloques/keccak.sol\":206:213  _cadena */\n      dup2\n        /* \"Propiedades de transacciones y bloques/keccak.sol\":189:214  abi.encodePacked(_cadena) */\n      add(0x20, mload(0x40))\n      tag_20\n      swap2\n      swap1\n      tag_18\n      jump\t// in\n    tag_20:\n      mload(0x40)\n      0x20\n      dup2\n      dup4\n      sub\n      sub\n      dup2\n      mstore\n      swap1\n      0x40\n      mstore\n        /* \"Propiedades de transacciones y bloques/keccak.sol\":179:215  keccak256(abi.encodePacked(_cadena)) */\n      dup1\n      mload\n      swap1\n      0x20\n      add\n      keccak256\n      pop\n        /* \"Propiedades de transacciones y bloques/keccak.sol\":95:223  function CalcularHash(string memory _cadena) public pure returns(bytes32){\r... */\n      swap2\n      swap1\n      pop\n      jump\t// out\n        /* \"--CODEGEN--\":6:448   */\n    tag_22:\n      0x00\n        /* \"--CODEGEN--\":108:111   */\n      dup3\n        /* \"--CODEGEN--\":101:105   */\n      0x1f\n        /* \"--CODEGEN--\":93:99   */\n      dup4\n        /* \"--CODEGEN--\":89:106   */\n      add\n        /* \"--CODEGEN--\":85:112   */\n      slt\n        /* \"--CODEGEN--\":75:77   */\n      tag_24\n      jumpi\n        /* \"--CODEGEN--\":126:127   */\n      0x00\n        /* \"--CODEGEN--\":123:124   */\n      dup1\n        /* \"--CODEGEN--\":116:128   */\n      revert\n        /* \"--CODEGEN--\":75:77   */\n    tag_24:\n        /* \"--CODEGEN--\":163:169   */\n      dup2\n        /* \"--CODEGEN--\":150:170   */\n      calldataload\n        /* \"--CODEGEN--\":185:250   */\n      tag_25\n        /* \"--CODEGEN--\":200:249   */\n      tag_26\n        /* \"--CODEGEN--\":242:248   */\n      dup3\n        /* \"--CODEGEN--\":200:249   */\n      tag_27\n      jump\t// in\n    tag_26:\n        /* \"--CODEGEN--\":185:250   */\n      tag_28\n      jump\t// in\n    tag_25:\n        /* \"--CODEGEN--\":176:250   */\n      swap2\n      pop\n        /* \"--CODEGEN--\":270:276   */\n      dup1\n        /* \"--CODEGEN--\":263:268   */\n      dup3\n        /* \"--CODEGEN--\":256:277   */\n      mstore\n        /* \"--CODEGEN--\":306:310   */\n      0x20\n        /* \"--CODEGEN--\":298:304   */\n      dup4\n        /* \"--CODEGEN--\":294:311   */\n      add\n        /* \"--CODEGEN--\":339:343   */\n      0x20\n        /* \"--CODEGEN--\":332:337   */\n      dup4\n        /* \"--CODEGEN--\":328:344   */\n      add\n        /* \"--CODEGEN--\":374:377   */\n      dup6\n        /* \"--CODEGEN--\":365:371   */\n      dup4\n        /* \"--CODEGEN--\":360:363   */\n      dup4\n        /* \"--CODEGEN--\":356:372   */\n      add\n        /* \"--CODEGEN--\":353:378   */\n      gt\n        /* \"--CODEGEN--\":350:352   */\n      iszero\n      tag_29\n      jumpi\n        /* \"--CODEGEN--\":391:392   */\n      0x00\n        /* \"--CODEGEN--\":388:389   */\n      dup1\n        /* \"--CODEGEN--\":381:393   */\n      revert\n        /* \"--CODEGEN--\":350:352   */\n    tag_29:\n        /* \"--CODEGEN--\":401:442   */\n      tag_30\n        /* \"--CODEGEN--\":435:441   */\n      dup4\n        /* \"--CODEGEN--\":430:433   */\n      dup3\n        /* \"--CODEGEN--\":425:428   */\n      dup5\n        /* \"--CODEGEN--\":401:442   */\n      tag_31\n      jump\t// in\n    tag_30:\n        /* \"--CODEGEN--\":68:448   */\n      pop\n      pop\n      pop\n      swap3\n      swap2\n      pop\n      pop\n      jump\t// out\n        /* \"--CODEGEN--\":456:586   */\n    tag_32:\n      0x00\n        /* \"--CODEGEN--\":536:542   */\n      dup2\n        /* \"--CODEGEN--\":523:543   */\n      calldataload\n        /* \"--CODEGEN--\":514:543   */\n      swap1\n      pop\n        /* \"--CODEGEN--\":548:581   */\n      tag_34\n        /* \"--CODEGEN--\":575:580   */\n      dup2\n        /* \"--CODEGEN--\":548:581   */\n      tag_35\n      jump\t// in\n    tag_34:\n        /* \"--CODEGEN--\":508:586   */\n      swap3\n      swap2\n      pop\n      pop\n      jump\t// out\n        /* \"--CODEGEN--\":593:940   */\n    tag_13:\n      0x00\n        /* \"--CODEGEN--\":707:709   */\n      0x20\n        /* \"--CODEGEN--\":695:704   */\n      dup3\n        /* \"--CODEGEN--\":686:693   */\n      dup5\n        /* \"--CODEGEN--\":682:705   */\n      sub\n        /* \"--CODEGEN--\":678:710   */\n      slt\n        /* \"--CODEGEN--\":675:677   */\n      iszero\n      tag_37\n      jumpi\n        /* \"--CODEGEN--\":723:724   */\n      0x00\n        /* \"--CODEGEN--\":720:721   */\n      dup1\n        /* \"--CODEGEN--\":713:725   */\n      revert\n        /* \"--CODEGEN--\":675:677   */\n    tag_37:\n        /* \"--CODEGEN--\":786:787   */\n      0x00\n        /* \"--CODEGEN--\":775:784   */\n      dup3\n        /* \"--CODEGEN--\":771:788   */\n      add\n        /* \"--CODEGEN--\":758:789   */\n      calldataload\n        /* \"--CODEGEN--\":809:827   */\n      0xffffffffffffffff\n        /* \"--CODEGEN--\":801:807   */\n      dup2\n        /* \"--CODEGEN--\":798:828   */\n      gt\n        /* \"--CODEGEN--\":795:797   */\n      iszero\n      tag_38\n      jumpi\n        /* \"--CODEGEN--\":841:842   */\n      0x00\n        /* \"--CODEGEN--\":838:839   */\n      dup1\n        /* \"--CODEGEN--\":831:843   */\n      revert\n        /* \"--CODEGEN--\":795:797   */\n    tag_38:\n        /* \"--CODEGEN--\":861:924   */\n      tag_39\n        /* \"--CODEGEN--\":916:923   */\n      dup5\n        /* \"--CODEGEN--\":907:913   */\n      dup3\n        /* \"--CODEGEN--\":896:905   */\n      dup6\n        /* \"--CODEGEN--\":892:914   */\n      add\n        /* \"--CODEGEN--\":861:924   */\n      tag_22\n      jump\t// in\n    tag_39:\n        /* \"--CODEGEN--\":851:924   */\n      swap2\n      pop\n        /* \"--CODEGEN--\":737:930   */\n      pop\n        /* \"--CODEGEN--\":669:940   */\n      swap3\n      swap2\n      pop\n      pop\n      jump\t// out\n        /* \"--CODEGEN--\":947:1419   */\n    tag_7:\n      0x00\n      dup1\n        /* \"--CODEGEN--\":1078:1080   */\n      0x40\n        /* \"--CODEGEN--\":1066:1075   */\n      dup4\n        /* \"--CODEGEN--\":1057:1064   */\n      dup6\n        /* \"--CODEGEN--\":1053:1076   */\n      sub\n        /* \"--CODEGEN--\":1049:1081   */\n      slt\n        /* \"--CODEGEN--\":1046:1048   */\n      iszero\n      tag_41\n      jumpi\n        /* \"--CODEGEN--\":1094:1095   */\n      0x00\n        /* \"--CODEGEN--\":1091:1092   */\n      dup1\n        /* \"--CODEGEN--\":1084:1096   */\n      revert\n        /* \"--CODEGEN--\":1046:1048   */\n    tag_41:\n        /* \"--CODEGEN--\":1157:1158   */\n      0x00\n        /* \"--CODEGEN--\":1146:1155   */\n      dup4\n        /* \"--CODEGEN--\":1142:1159   */\n      add\n        /* \"--CODEGEN--\":1129:1160   */\n      calldataload\n        /* \"--CODEGEN--\":1180:1198   */\n      0xffffffffffffffff\n        /* \"--CODEGEN--\":1172:1178   */\n      dup2\n        /* \"--CODEGEN--\":1169:1199   */\n      gt\n        /* \"--CODEGEN--\":1166:1168   */\n      iszero\n      tag_42\n      jumpi\n        /* \"--CODEGEN--\":1212:1213   */\n      0x00\n        /* \"--CODEGEN--\":1209:1210   */\n      dup1\n        /* \"--CODEGEN--\":1202:1214   */\n      revert\n        /* \"--CODEGEN--\":1166:1168   */\n    tag_42:\n        /* \"--CODEGEN--\":1232:1295   */\n      tag_43\n        /* \"--CODEGEN--\":1287:1294   */\n      dup6\n        /* \"--CODEGEN--\":1278:1284   */\n      dup3\n        /* \"--CODEGEN--\":1267:1276   */\n      dup7\n        /* \"--CODEGEN--\":1263:1285   */\n      add\n        /* \"--CODEGEN--\":1232:1295   */\n      tag_22\n      jump\t// in\n    tag_43:\n        /* \"--CODEGEN--\":1222:1295   */\n      swap3\n      pop\n        /* \"--CODEGEN--\":1108:1301   */\n      pop\n        /* \"--CODEGEN--\":1332:1334   */\n      0x20\n        /* \"--CODEGEN--\":1350:1403   */\n      tag_44\n        /* \"--CODEGEN--\":1395:1402   */\n      dup6\n        /* \"--CODEGEN--\":1386:1392   */\n      dup3\n        /* \"--CODEGEN--\":1375:1384   */\n      dup7\n        /* \"--CODEGEN--\":1371:1393   */\n      add\n        /* \"--CODEGEN--\":1350:1403   */\n      tag_32\n      jump\t// in\n    tag_44:\n        /* \"--CODEGEN--\":1340:1403   */\n      swap2\n      pop\n        /* \"--CODEGEN--\":1311:1409   */\n      pop\n        /* \"--CODEGEN--\":1040:1419   */\n      swap3\n      pop\n      swap3\n      swap1\n      pop\n      jump\t// out\n        /* \"--CODEGEN--\":1426:1539   */\n    tag_45:\n        /* \"--CODEGEN--\":1509:1533   */\n      tag_47\n        /* \"--CODEGEN--\":1527:1532   */\n      dup2\n        /* \"--CODEGEN--\":1509:1533   */\n      tag_48\n      jump\t// in\n    tag_47:\n        /* \"--CODEGEN--\":1504:1507   */\n      dup3\n        /* \"--CODEGEN--\":1497:1534   */\n      mstore\n        /* \"--CODEGEN--\":1491:1539   */\n      pop\n      pop\n      jump\t// out\n        /* \"--CODEGEN--\":1546:1906   */\n    tag_49:\n      0x00\n        /* \"--CODEGEN--\":1676:1715   */\n      tag_51\n        /* \"--CODEGEN--\":1709:1714   */\n      dup3\n        /* \"--CODEGEN--\":1676:1715   */\n      tag_52\n      jump\t// in\n    tag_51:\n        /* \"--CODEGEN--\":1727:1816   */\n      tag_53\n        /* \"--CODEGEN--\":1809:1815   */\n      dup2\n        /* \"--CODEGEN--\":1804:1807   */\n      dup6\n        /* \"--CODEGEN--\":1727:1816   */\n      tag_54\n      jump\t// in\n    tag_53:\n        /* \"--CODEGEN--\":1720:1816   */\n      swap4\n      pop\n        /* \"--CODEGEN--\":1821:1873   */\n      tag_55\n        /* \"--CODEGEN--\":1866:1872   */\n      dup2\n        /* \"--CODEGEN--\":1861:1864   */\n      dup6\n        /* \"--CODEGEN--\":1854:1858   */\n      0x20\n        /* \"--CODEGEN--\":1847:1852   */\n      dup7\n        /* \"--CODEGEN--\":1843:1859   */\n      add\n        /* \"--CODEGEN--\":1821:1873   */\n      tag_56\n      jump\t// in\n    tag_55:\n        /* \"--CODEGEN--\":1894:1900   */\n      dup1\n        /* \"--CODEGEN--\":1889:1892   */\n      dup5\n        /* \"--CODEGEN--\":1885:1901   */\n      add\n        /* \"--CODEGEN--\":1878:1901   */\n      swap2\n      pop\n        /* \"--CODEGEN--\":1656:1906   */\n      pop\n      swap3\n      swap2\n      pop\n      pop\n      jump\t// out\n        /* \"--CODEGEN--\":1913:2188   */\n    tag_18:\n      0x00\n        /* \"--CODEGEN--\":2068:2163   */\n      tag_58\n        /* \"--CODEGEN--\":2159:2162   */\n      dup3\n        /* \"--CODEGEN--\":2150:2156   */\n      dup5\n        /* \"--CODEGEN--\":2068:2163   */\n      tag_49\n      jump\t// in\n    tag_58:\n        /* \"--CODEGEN--\":2061:2163   */\n      swap2\n      pop\n        /* \"--CODEGEN--\":2180:2183   */\n      dup2\n        /* \"--CODEGEN--\":2173:2183   */\n      swap1\n      pop\n        /* \"--CODEGEN--\":2049:2188   */\n      swap3\n      swap2\n      pop\n      pop\n      jump\t// out\n        /* \"--CODEGEN--\":2195:2417   */\n    tag_10:\n      0x00\n        /* \"--CODEGEN--\":2322:2324   */\n      0x20\n        /* \"--CODEGEN--\":2311:2320   */\n      dup3\n        /* \"--CODEGEN--\":2307:2325   */\n      add\n        /* \"--CODEGEN--\":2299:2325   */\n      swap1\n      pop\n        /* \"--CODEGEN--\":2336:2407   */\n      tag_60\n        /* \"--CODEGEN--\":2404:2405   */\n      0x00\n        /* \"--CODEGEN--\":2393:2402   */\n      dup4\n        /* \"--CODEGEN--\":2389:2406   */\n      add\n        /* \"--CODEGEN--\":2380:2386   */\n      dup5\n        /* \"--CODEGEN--\":2336:2407   */\n      tag_45\n      jump\t// in\n    tag_60:\n        /* \"--CODEGEN--\":2293:2417   */\n      swap3\n      swap2\n      pop\n      pop\n      jump\t// out\n        /* \"--CODEGEN--\":2424:2680   */\n    tag_28:\n      0x00\n        /* \"--CODEGEN--\":2486:2488   */\n      0x40\n        /* \"--CODEGEN--\":2480:2489   */\n      mload\n        /* \"--CODEGEN--\":2470:2489   */\n      swap1\n      pop\n        /* \"--CODEGEN--\":2524:2528   */\n      dup2\n        /* \"--CODEGEN--\":2516:2522   */\n      dup2\n        /* \"--CODEGEN--\":2512:2529   */\n      add\n        /* \"--CODEGEN--\":2623:2629   */\n      dup2\n        /* \"--CODEGEN--\":2611:2621   */\n      dup2\n        /* \"--CODEGEN--\":2608:2630   */\n      lt\n        /* \"--CODEGEN--\":2587:2605   */\n      0xffffffffffffffff\n        /* \"--CODEGEN--\":2575:2585   */\n      dup3\n        /* \"--CODEGEN--\":2572:2606   */\n      gt\n        /* \"--CODEGEN--\":2569:2631   */\n      or\n        /* \"--CODEGEN--\":2566:2568   */\n      iszero\n      tag_62\n      jumpi\n        /* \"--CODEGEN--\":2644:2645   */\n      0x00\n        /* \"--CODEGEN--\":2641:2642   */\n      dup1\n        /* \"--CODEGEN--\":2634:2646   */\n      revert\n        /* \"--CODEGEN--\":2566:2568   */\n    tag_62:\n        /* \"--CODEGEN--\":2664:2674   */\n      dup1\n        /* \"--CODEGEN--\":2660:2662   */\n      0x40\n        /* \"--CODEGEN--\":2653:2675   */\n      mstore\n        /* \"--CODEGEN--\":2464:2680   */\n      pop\n      swap2\n      swap1\n      pop\n      jump\t// out\n        /* \"--CODEGEN--\":2687:3009   */\n    tag_27:\n      0x00\n        /* \"--CODEGEN--\":2831:2849   */\n      0xffffffffffffffff\n        /* \"--CODEGEN--\":2823:2829   */\n      dup3\n        /* \"--CODEGEN--\":2820:2850   */\n      gt\n        /* \"--CODEGEN--\":2817:2819   */\n      iszero\n      tag_64\n      jumpi\n        /* \"--CODEGEN--\":2863:2864   */\n      0x00\n        /* \"--CODEGEN--\":2860:2861   */\n      dup1\n        /* \"--CODEGEN--\":2853:2865   */\n      revert\n        /* \"--CODEGEN--\":2817:2819   */\n    tag_64:\n        /* \"--CODEGEN--\":2930:2934   */\n      0x1f\n        /* \"--CODEGEN--\":2926:2935   */\n      not\n        /* \"--CODEGEN--\":2919:2923   */\n      0x1f\n        /* \"--CODEGEN--\":2911:2917   */\n      dup4\n        /* \"--CODEGEN--\":2907:2924   */\n      add\n        /* \"--CODEGEN--\":2903:2936   */\n      and\n        /* \"--CODEGEN--\":2895:2936   */\n      swap1\n      pop\n        /* \"--CODEGEN--\":2994:2998   */\n      0x20\n        /* \"--CODEGEN--\":2988:2992   */\n      dup2\n        /* \"--CODEGEN--\":2984:2999   */\n      add\n        /* \"--CODEGEN--\":2976:2999   */\n      swap1\n      pop\n        /* \"--CODEGEN--\":2754:3009   */\n      swap2\n      swap1\n      pop\n      jump\t// out\n        /* \"--CODEGEN--\":3016:3138   */\n    tag_52:\n      0x00\n        /* \"--CODEGEN--\":3110:3115   */\n      dup2\n        /* \"--CODEGEN--\":3104:3116   */\n      mload\n        /* \"--CODEGEN--\":3094:3116   */\n      swap1\n      pop\n        /* \"--CODEGEN--\":3075:3138   */\n      swap2\n      swap1\n      pop\n      jump\t// out\n        /* \"--CODEGEN--\":3146:3291   */\n    tag_54:\n      0x00\n        /* \"--CODEGEN--\":3282:3285   */\n      dup2\n        /* \"--CODEGEN--\":3267:3285   */\n      swap1\n      pop\n        /* \"--CODEGEN--\":3260:3291   */\n      swap3\n      swap2\n      pop\n      pop\n      jump\t// out\n        /* \"--CODEGEN--\":3299:3371   */\n    tag_48:\n      0x00\n        /* \"--CODEGEN--\":3361:3366   */\n      dup2\n        /* \"--CODEGEN--\":3350:3366   */\n      swap1\n      pop\n        /* \"--CODEGEN--\":3344:3371   */\n      swap2\n      swap1\n      pop\n      jump\t// out\n        /* \"--CODEGEN--\":3378:3450   */\n    tag_68:\n      0x00\n        /* \"--CODEGEN--\":3440:3445   */\n      dup2\n        /* \"--CODEGEN--\":3429:3445   */\n      swap1\n      pop\n        /* \"--CODEGEN--\":3423:3450   */\n      swap2\n      swap1\n      pop\n      jump\t// out\n        /* \"--CODEGEN--\":3458:3603   */\n    tag_31:\n        /* \"--CODEGEN--\":3539:3545   */\n      dup3\n        /* \"--CODEGEN--\":3534:3537   */\n      dup2\n        /* \"--CODEGEN--\":3529:3532   */\n      dup4\n        /* \"--CODEGEN--\":3516:3546   */\n      calldatacopy\n        /* \"--CODEGEN--\":3595:3596   */\n      0x00\n        /* \"--CODEGEN--\":3586:3592   */\n      dup4\n        /* \"--CODEGEN--\":3581:3584   */\n      dup4\n        /* \"--CODEGEN--\":3577:3593   */\n      add\n        /* \"--CODEGEN--\":3570:3597   */\n      mstore\n        /* \"--CODEGEN--\":3509:3603   */\n      pop\n      pop\n      pop\n      jump\t// out\n        /* \"--CODEGEN--\":3612:3880   */\n    tag_56:\n        /* \"--CODEGEN--\":3677:3678   */\n      0x00\n        /* \"--CODEGEN--\":3684:3785   */\n    tag_72:\n        /* \"--CODEGEN--\":3698:3704   */\n      dup4\n        /* \"--CODEGEN--\":3695:3696   */\n      dup2\n        /* \"--CODEGEN--\":3692:3705   */\n      lt\n        /* \"--CODEGEN--\":3684:3785   */\n      iszero\n      tag_74\n      jumpi\n        /* \"--CODEGEN--\":3774:3775   */\n      dup1\n        /* \"--CODEGEN--\":3769:3772   */\n      dup3\n        /* \"--CODEGEN--\":3765:3776   */\n      add\n        /* \"--CODEGEN--\":3759:3777   */\n      mload\n        /* \"--CODEGEN--\":3755:3756   */\n      dup2\n        /* \"--CODEGEN--\":3750:3753   */\n      dup5\n        /* \"--CODEGEN--\":3746:3757   */\n      add\n        /* \"--CODEGEN--\":3739:3778   */\n      mstore\n        /* \"--CODEGEN--\":3720:3722   */\n      0x20\n        /* \"--CODEGEN--\":3717:3718   */\n      dup2\n        /* \"--CODEGEN--\":3713:3723   */\n      add\n        /* \"--CODEGEN--\":3708:3723   */\n      swap1\n      pop\n        /* \"--CODEGEN--\":3684:3785   */\n      jump(tag_72)\n    tag_74:\n        /* \"--CODEGEN--\":3800:3806   */\n      dup4\n        /* \"--CODEGEN--\":3797:3798   */\n      dup2\n        /* \"--CODEGEN--\":3794:3807   */\n      gt\n        /* \"--CODEGEN--\":3791:3793   */\n      iszero\n      tag_75\n      jumpi\n        /* \"--CODEGEN--\":3865:3866   */\n      0x00\n        /* \"--CODEGEN--\":3856:3862   */\n      dup5\n        /* \"--CODEGEN--\":3851:3854   */\n      dup5\n        /* \"--CODEGEN--\":3847:3863   */\n      add\n        /* \"--CODEGEN--\":3840:3867   */\n      mstore\n        /* \"--CODEGEN--\":3791:3793   */\n    tag_75:\n        /* \"--CODEGEN--\":3661:3880   */\n      pop\n      pop\n      pop\n      pop\n      jump\t// out\n        /* \"--CODEGEN--\":3888:4005   */\n    tag_35:\n        /* \"--CODEGEN--\":3957:3981   */\n      tag_77\n        /* \"--CODEGEN--\":3975:3980   */\n      dup2\n        /* \"--CODEGEN--\":3957:3981   */\n      tag_68\n      jump\t// in\n    tag_77:\n        /* \"--CODEGEN--\":3950:3955   */\n      dup2\n        /* \"--CODEGEN--\":3947:3982   */\n      eq\n        /* \"--CODEGEN--\":3937:3939   */\n      tag_78\n      jumpi\n        /* \"--CODEGEN--\":3996:3997   */\n      0x00\n        /* \"--CODEGEN--\":3993:3994   */\n      dup1\n        /* \"--CODEGEN--\":3986:3998   */\n      revert\n        /* \"--CODEGEN--\":3937:3939   */\n    tag_78:\n        /* \"--CODEGEN--\":3931:4005   */\n      pop\n      jump\t// out\n\n    auxdata: 0xa264697066735822122056f8b96bbb52940a09b74cdec14a6f37da4e3203cbcebcb8f300444229656c7264736f6c634300060c0033\n}\n",
				"bytecode": {
					"linkReferences": {},
					"object": "608060405234801561001057600080fd5b5061037c806100206000396000f3fe608060405234801561001057600080fd5b50600436106100365760003560e01c80634362c4371461003b5780636922e1861461006b575b600080fd5b610055600480360381019061005091906101a4565b61009b565b604051610062919061024f565b60405180910390f35b61008560048036038101906100809190610163565b6100cb565b604051610092919061024f565b60405180910390f35b6000826040516020016100ae9190610238565b604051602081830303815290604052805190602001205092915050565b6000816040516020016100de9190610238565b6040516020818303038152906040528051906020012050919050565b600082601f83011261010b57600080fd5b813561011e61011982610297565b61026a565b9150808252602083016020830185838301111561013a57600080fd5b6101458382846102ed565b50505092915050565b60008135905061015d8161032f565b92915050565b60006020828403121561017557600080fd5b600082013567ffffffffffffffff81111561018f57600080fd5b61019b848285016100fa565b91505092915050565b600080604083850312156101b757600080fd5b600083013567ffffffffffffffff8111156101d157600080fd5b6101dd858286016100fa565b92505060206101ee8582860161014e565b9150509250929050565b610201816102d9565b82525050565b6000610212826102c3565b61021c81856102ce565b935061022c8185602086016102fc565b80840191505092915050565b60006102448284610207565b915081905092915050565b600060208201905061026460008301846101f8565b92915050565b6000604051905081810181811067ffffffffffffffff8211171561028d57600080fd5b8060405250919050565b600067ffffffffffffffff8211156102ae57600080fd5b601f19601f8301169050602081019050919050565b600081519050919050565b600081905092915050565b6000819050919050565b6000819050919050565b82818337600083830152505050565b60005b8381101561031a5780820151818401526020810190506102ff565b83811115610329576000848401525b50505050565b610338816102e3565b811461034357600080fd5b5056fea264697066735822122056f8b96bbb52940a09b74cdec14a6f37da4e3203cbcebcb8f300444229656c7264736f6c634300060c0033",
					"opcodes": "PUSH1 0x80 PUSH1 0x40 MSTORE CALLVALUE DUP1 ISZERO PUSH2 0x10 JUMPI PUSH1 0x0 DUP1 REVERT JUMPDEST POP PUSH2 0x37C DUP1 PUSH2 0x20 PUSH1 0x0 CODECOPY PUSH1 0x0 RETURN INVALID PUSH1 0x80 PUSH1 0x40 MSTORE CALLVALUE DUP1 ISZERO PUSH2 0x10 JUMPI PUSH1 0x0 DUP1 REVERT JUMPDEST POP PUSH1 0x4 CALLDATASIZE LT PUSH2 0x36 JUMPI PUSH1 0x0 CALLDATALOAD PUSH1 0xE0 SHR DUP1 PUSH4 0x4362C437 EQ PUSH2 0x3B JUMPI DUP1 PUSH4 0x6922E186 EQ PUSH2 0x6B JUMPI JUMPDEST PUSH1 0x0 DUP1 REVERT JUMPDEST PUSH2 0x55 PUSH1 0x4 DUP1 CALLDATASIZE SUB DUP2 ADD SWAP1 PUSH2 0x50 SWAP2 SWAP1 PUSH2 0x1A4 JUMP JUMPDEST PUSH2 0x9B JUMP JUMPDEST PUSH1 0x40 MLOAD PUSH2 0x62 SWAP2 SWAP1 PUSH2 0x24F JUMP JUMPDEST PUSH1 0x40 MLOAD DUP1 SWAP2 SUB SWAP1 RETURN JUMPDEST PUSH2 0x85 PUSH1 0x4 DUP1 CALLDATASIZE SUB DUP2 ADD SWAP1 PUSH2 0x80 SWAP2 SWAP1 PUSH2 0x163 JUMP JUMPDEST PUSH2 0xCB JUMP JUMPDEST PUSH1 0x40 MLOAD PUSH2 0x92 SWAP2 SWAP1 PUSH2 0x24F JUMP JUMPDEST PUSH1 0x40 MLOAD DUP1 SWAP2 SUB SWAP1 RETURN JUMPDEST PUSH1 0x0 DUP3 PUSH1 0x40 MLOAD PUSH1 0x20 ADD PUSH2 0xAE SWAP2 SWAP1 PUSH2 0x238 JUMP JUMPDEST PUSH1 0x40 MLOAD PUSH1 0x20 DUP2 DUP4 SUB SUB DUP2 MSTORE SWAP1 PUSH1 0x40 MSTORE DUP1 MLOAD SWAP1 PUSH1 0x20 ADD KECCAK256 POP SWAP3 SWAP2 POP POP JUMP JUMPDEST PUSH1 0x0 DUP2 PUSH1 0x40 MLOAD PUSH1 0x20 ADD PUSH2 0xDE SWAP2 SWAP1 PUSH2 0x238 JUMP JUMPDEST PUSH1 0x40 MLOAD PUSH1 0x20 DUP2 DUP4 SUB SUB DUP2 MSTORE SWAP1 PUSH1 0x40 MSTORE DUP1 MLOAD SWAP1 PUSH1 0x20 ADD KECCAK256 POP SWAP2 SWAP1 POP JUMP JUMPDEST PUSH1 0x0 DUP3 PUSH1 0x1F DUP4 ADD SLT PUSH2 0x10B JUMPI PUSH1 0x0 DUP1 REVERT JUMPDEST DUP2 CALLDATALOAD PUSH2 0x11E PUSH2 0x119 DUP3 PUSH2 0x297 JUMP JUMPDEST PUSH2 0x26A JUMP JUMPDEST SWAP2 POP DUP1 DUP3 MSTORE PUSH1 0x20 DUP4 ADD PUSH1 0x20 DUP4 ADD DUP6 DUP4 DUP4 ADD GT ISZERO PUSH2 0x13A JUMPI PUSH1 0x0 DUP1 REVERT JUMPDEST PUSH2 0x145 DUP4 DUP3 DUP5 PUSH2 0x2ED JUMP JUMPDEST POP POP POP SWAP3 SWAP2 POP POP JUMP JUMPDEST PUSH1 0x0 DUP2 CALLDATALOAD SWAP1 POP PUSH2 0x15D DUP2 PUSH2 0x32F JUMP JUMPDEST SWAP3 SWAP2 POP POP JUMP JUMPDEST PUSH1 0x0 PUSH1 0x20 DUP3 DUP5 SUB SLT ISZERO PUSH2 0x175 JUMPI PUSH1 0x0 DUP1 REVERT JUMPDEST PUSH1 0x0 DUP3 ADD CALLDATALOAD PUSH8 0xFFFFFFFFFFFFFFFF DUP2 GT ISZERO PUSH2 0x18F JUMPI PUSH1 0x0 DUP1 REVERT JUMPDEST PUSH2 0x19B DUP5 DUP3 DUP6 ADD PUSH2 0xFA JUMP JUMPDEST SWAP2 POP POP SWAP3 SWAP2 POP POP JUMP JUMPDEST PUSH1 0x0 DUP1 PUSH1 0x40 DUP4 DUP6 SUB SLT ISZERO PUSH2 0x1B7 JUMPI PUSH1 0x0 DUP1 REVERT JUMPDEST PUSH1 0x0 DUP4 ADD CALLDATALOAD PUSH8 0xFFFFFFFFFFFFFFFF DUP2 GT ISZERO PUSH2 0x1D1 JUMPI PUSH1 0x0 DUP1 REVERT JUMPDEST PUSH2 0x1DD DUP6 DUP3 DUP7 ADD PUSH2 0xFA JUMP JUMPDEST SWAP3 POP POP PUSH1 0x20 PUSH2 0x1EE DUP6 DUP3 DUP7 ADD PUSH2 0x14E JUMP JUMPDEST SWAP2 POP POP SWAP3 POP SWAP3 SWAP1 POP JUMP JUMPDEST PUSH2 0x201 DUP2 PUSH2 0x2D9 JUMP JUMPDEST DUP3 MSTORE POP POP JUMP JUMPDEST PUSH1 0x0 PUSH2 0x212 DUP3 PUSH2 0x2C3 JUMP JUMPDEST PUSH2 0x21C DUP2 DUP6 PUSH2 0x2CE JUMP JUMPDEST SWAP4 POP PUSH2 0x22C DUP2 DUP6 PUSH1 0x20 DUP7 ADD PUSH2 0x2FC JUMP JUMPDEST DUP1 DUP5 ADD SWAP2 POP POP SWAP3 SWAP2 POP POP JUMP JUMPDEST PUSH1 0x0 PUSH2 0x244 DUP3 DUP5 PUSH2 0x207 JUMP JUMPDEST SWAP2 POP DUP2 SWAP1 POP SWAP3 SWAP2 POP POP JUMP JUMPDEST PUSH1 0x0 PUSH1 0x20 DUP3 ADD SWAP1 POP PUSH2 0x264 PUSH1 0x0 DUP4 ADD DUP5 PUSH2 0x1F8 JUMP JUMPDEST SWAP3 SWAP2 POP POP JUMP JUMPDEST PUSH1 0x0 PUSH1 0x40 MLOAD SWAP1 POP DUP2 DUP2 ADD DUP2 DUP2 LT PUSH8 0xFFFFFFFFFFFFFFFF DUP3 GT OR ISZERO PUSH2 0x28D JUMPI PUSH1 0x0 DUP1 REVERT JUMPDEST DUP1 PUSH1 0x40 MSTORE POP SWAP2 SWAP1 POP JUMP JUMPDEST PUSH1 0x0 PUSH8 0xFFFFFFFFFFFFFFFF DUP3 GT ISZERO PUSH2 0x2AE JUMPI PUSH1 0x0 DUP1 REVERT JUMPDEST PUSH1 0x1F NOT PUSH1 0x1F DUP4 ADD AND SWAP1 POP PUSH1 0x20 DUP2 ADD SWAP1 POP SWAP2 SWAP1 POP JUMP JUMPDEST PUSH1 0x0 DUP2 MLOAD SWAP1 POP SWAP2 SWAP1 POP JUMP JUMPDEST PUSH1 0x0 DUP2 SWAP1 POP SWAP3 SWAP2 POP POP JUMP JUMPDEST PUSH1 0x0 DUP2 SWAP1 POP SWAP2 SWAP1 POP JUMP JUMPDEST PUSH1 0x0 DUP2 SWAP1 POP SWAP2 SWAP1 POP JUMP JUMPDEST DUP3 DUP2 DUP4 CALLDATACOPY PUSH1 0x0 DUP4 DUP4 ADD MSTORE POP POP POP JUMP JUMPDEST PUSH1 0x0 JUMPDEST DUP4 DUP2 LT ISZERO PUSH2 0x31A JUMPI DUP1 DUP3 ADD MLOAD DUP2 DUP5 ADD MSTORE PUSH1 0x20 DUP2 ADD SWAP1 POP PUSH2 0x2FF JUMP JUMPDEST DUP4 DUP2 GT ISZERO PUSH2 0x329 JUMPI PUSH1 0x0 DUP5 DUP5 ADD MSTORE JUMPDEST POP POP POP POP JUMP JUMPDEST PUSH2 0x338 DUP2 PUSH2 0x2E3 JUMP JUMPDEST DUP2 EQ PUSH2 0x343 JUMPI PUSH1 0x0 DUP1 REVERT JUMPDEST POP JUMP INVALID LOG2 PUSH5 0x6970667358 0x22 SLT KECCAK256 JUMP 0xF8 0xB9 PUSH12 0xBB52940A09B74CDEC14A6F37 0xDA 0x4E ORIGIN SUB 0xCB 0xCE 0xBC 0xB8 RETURN STOP DIFFICULTY TIMESTAMP 0x29 PUSH6 0x6C7264736F6C PUSH4 0x4300060C STOP CALLER "
				},
				"gasEstimates": {
					"creation": {
						"codeDepositCost": "178400",
						"executionCost": "220",
						"totalCost": "178620"
					},
					"external": {
						"CalcularHash(string)": "infinite",
						"CalcularHash(string,uint256)": "infinite"
					}
				},
				"methodIdentifiers": {
					"CalcularHash(string)": "6922e186",
					"CalcularHash(string,uint256)": "4362c437"
				}
			},
			"storageLayout": {
				"storage": [],
				"types": null
			},
			"userdoc": {
				"kind": "user",
				"methods": {},
				"version": 1
			}
		}
	}
}