{
	"Propiedades de transacciones y bloques/keccak.sol": {
		"hash": {
			"abi": [
				{
					"inputs": [
						{
							"internalType": "string",
							"name": "_cadena",
							"type": "string"
						}
					],
					"name": "CalcularHash",
					"outputs": [
						{
							"internalType": "bytes32",
							"name": "",
							"type": "bytes32"
						}
					],
					"stateMutability": "pure",
					"type": "function"
				},
				{
					"inputs": [
						{
							"internalType": "string",
							"name": "_cadena",
							"type": "string"
						},
						{
							"internalType": "uint256",
							"name": "_k",
							"type": "uint256"
						},
						{
							"internalType": "address",
							"name": "_direccion",
							"type": "address"
						}
					],
					"name": "CalcularHash",
					"outputs": [
						{
							"internalType": "bytes32",
							"name": "",
							"type": "bytes32"
						}
					],
					"stateMutability": "pure",
					"type": "function"
				}
			],
			"devdoc": {
				"kind": "dev",
				"methods": {},
				"version": 1
			},
			"evm": {
				"assembly": "    /* \"Propiedades de transacciones y bloques/keccak.sol\":67:401  contract hash{   \r... */\n  mstore(0x40, 0x80)\n  callvalue\n  dup1\n  iszero\n  tag_1\n  jumpi\n  0x00\n  dup1\n  revert\ntag_1:\n  pop\n  dataSize(sub_0)\n  dup1\n  dataOffset(sub_0)\n  0x00\n  codecopy\n  0x00\n  return\nstop\n\nsub_0: assembly {\n        /* \"Propiedades de transacciones y bloques/keccak.sol\":67:401  contract hash{   \r... */\n      mstore(0x40, 0x80)\n      callvalue\n      dup1\n      iszero\n      tag_1\n      jumpi\n      0x00\n      dup1\n      revert\n    tag_1:\n      pop\n      jumpi(tag_2, lt(calldatasize, 0x04))\n      shr(0xe0, calldataload(0x00))\n      dup1\n      0x6922e186\n      eq\n      tag_3\n      jumpi\n      dup1\n      0xc9dbd72d\n      eq\n      tag_4\n      jumpi\n    tag_2:\n      0x00\n      dup1\n      revert\n        /* \"Propiedades de transacciones y bloques/keccak.sol\":95:223  function CalcularHash(string memory _cadena) public pure returns(bytes32){\r... */\n    tag_3:\n      tag_5\n      0x04\n      dup1\n      calldatasize\n      sub\n      dup2\n      add\n      swap1\n      tag_6\n      swap2\n      swap1\n      tag_7\n      jump\t// in\n    tag_6:\n      tag_8\n      jump\t// in\n    tag_5:\n      mload(0x40)\n      tag_9\n      swap2\n      swap1\n      tag_10\n      jump\t// in\n    tag_9:\n      mload(0x40)\n      dup1\n      swap2\n      sub\n      swap1\n      return\n        /* \"Propiedades de transacciones y bloques/keccak.sol\":235:392  function CalcularHash(string memory _cadena, uint _k, address _direccion) public pure returns(bytes32){\r... */\n    tag_4:\n      tag_11\n      0x04\n      dup1\n      calldatasize\n      sub\n      dup2\n      add\n      swap1\n      tag_12\n      swap2\n      swap1\n      tag_13\n      jump\t// in\n    tag_12:\n      tag_14\n      jump\t// in\n    tag_11:\n      mload(0x40)\n      tag_15\n      swap2\n      swap1\n      tag_10\n      jump\t// in\n    tag_15:\n      mload(0x40)\n      dup1\n      swap2\n      sub\n      swap1\n      return\n        /* \"Propiedades de transacciones y bloques/keccak.sol\":95:223  function CalcularHash(string memory _cadena) public pure returns(bytes32){\r... */\n    tag_8:\n        /* \"Propiedades de transacciones y bloques/keccak.sol\":160:167  bytes32 */\n      0x00\n        /* \"Propiedades de transacciones y bloques/keccak.sol\":206:213  _cadena */\n      dup2\n        /* \"Propiedades de transacciones y bloques/keccak.sol\":189:214  abi.encodePacked(_cadena) */\n      add(0x20, mload(0x40))\n      tag_17\n      swap2\n      swap1\n      tag_18\n      jump\t// in\n    tag_17:\n      mload(0x40)\n      0x20\n      dup2\n      dup4\n      sub\n      sub\n      dup2\n      mstore\n      swap1\n      0x40\n      mstore\n        /* \"Propiedades de transacciones y bloques/keccak.sol\":179:215  keccak256(abi.encodePacked(_cadena)) */\n      dup1\n      mload\n      swap1\n      0x20\n      add\n      keccak256\n      pop\n        /* \"Propiedades de transacciones y bloques/keccak.sol\":95:223  function CalcularHash(string memory _cadena) public pure returns(bytes32){\r... */\n      swap2\n      swap1\n      pop\n      jump\t// out\n        /* \"Propiedades de transacciones y bloques/keccak.sol\":235:392  function CalcularHash(string memory _cadena, uint _k, address _direccion) public pure returns(bytes32){\r... */\n    tag_14:\n        /* \"Propiedades de transacciones y bloques/keccak.sol\":329:336  bytes32 */\n      0x00\n        /* \"Propiedades de transacciones y bloques/keccak.sol\":375:382  _cadena */\n      dup4\n        /* \"Propiedades de transacciones y bloques/keccak.sol\":358:383  abi.encodePacked(_cadena) */\n      add(0x20, mload(0x40))\n      tag_20\n      swap2\n      swap1\n      tag_18\n      jump\t// in\n    tag_20:\n      mload(0x40)\n      0x20\n      dup2\n      dup4\n      sub\n      sub\n      dup2\n      mstore\n      swap1\n      0x40\n      mstore\n        /* \"Propiedades de transacciones y bloques/keccak.sol\":348:384  keccak256(abi.encodePacked(_cadena)) */\n      dup1\n      mload\n      swap1\n      0x20\n      add\n      keccak256\n      pop\n        /* \"Propiedades de transacciones y bloques/keccak.sol\":235:392  function CalcularHash(string memory _cadena, uint _k, address _direccion) public pure returns(bytes32){\r... */\n      swap4\n      swap3\n      pop\n      pop\n      pop\n      jump\t// out\n        /* \"--CODEGEN--\":5:135   */\n    tag_22:\n      0x00\n        /* \"--CODEGEN--\":85:91   */\n      dup2\n        /* \"--CODEGEN--\":72:92   */\n      calldataload\n        /* \"--CODEGEN--\":63:92   */\n      swap1\n      pop\n        /* \"--CODEGEN--\":97:130   */\n      tag_24\n        /* \"--CODEGEN--\":124:129   */\n      dup2\n        /* \"--CODEGEN--\":97:130   */\n      tag_25\n      jump\t// in\n    tag_24:\n        /* \"--CODEGEN--\":57:135   */\n      swap3\n      swap2\n      pop\n      pop\n      jump\t// out\n        /* \"--CODEGEN--\":143:585   */\n    tag_26:\n      0x00\n        /* \"--CODEGEN--\":245:248   */\n      dup3\n        /* \"--CODEGEN--\":238:242   */\n      0x1f\n        /* \"--CODEGEN--\":230:236   */\n      dup4\n        /* \"--CODEGEN--\":226:243   */\n      add\n        /* \"--CODEGEN--\":222:249   */\n      slt\n        /* \"--CODEGEN--\":212:214   */\n      tag_28\n      jumpi\n        /* \"--CODEGEN--\":263:264   */\n      0x00\n        /* \"--CODEGEN--\":260:261   */\n      dup1\n        /* \"--CODEGEN--\":253:265   */\n      revert\n        /* \"--CODEGEN--\":212:214   */\n    tag_28:\n        /* \"--CODEGEN--\":300:306   */\n      dup2\n        /* \"--CODEGEN--\":287:307   */\n      calldataload\n        /* \"--CODEGEN--\":322:387   */\n      tag_29\n        /* \"--CODEGEN--\":337:386   */\n      tag_30\n        /* \"--CODEGEN--\":379:385   */\n      dup3\n        /* \"--CODEGEN--\":337:386   */\n      tag_31\n      jump\t// in\n    tag_30:\n        /* \"--CODEGEN--\":322:387   */\n      tag_32\n      jump\t// in\n    tag_29:\n        /* \"--CODEGEN--\":313:387   */\n      swap2\n      pop\n        /* \"--CODEGEN--\":407:413   */\n      dup1\n        /* \"--CODEGEN--\":400:405   */\n      dup3\n        /* \"--CODEGEN--\":393:414   */\n      mstore\n        /* \"--CODEGEN--\":443:447   */\n      0x20\n        /* \"--CODEGEN--\":435:441   */\n      dup4\n        /* \"--CODEGEN--\":431:448   */\n      add\n        /* \"--CODEGEN--\":476:480   */\n      0x20\n        /* \"--CODEGEN--\":469:474   */\n      dup4\n        /* \"--CODEGEN--\":465:481   */\n      add\n        /* \"--CODEGEN--\":511:514   */\n      dup6\n        /* \"--CODEGEN--\":502:508   */\n      dup4\n        /* \"--CODEGEN--\":497:500   */\n      dup4\n        /* \"--CODEGEN--\":493:509   */\n      add\n        /* \"--CODEGEN--\":490:515   */\n      gt\n        /* \"--CODEGEN--\":487:489   */\n      iszero\n      tag_33\n      jumpi\n        /* \"--CODEGEN--\":528:529   */\n      0x00\n        /* \"--CODEGEN--\":525:526   */\n      dup1\n        /* \"--CODEGEN--\":518:530   */\n      revert\n        /* \"--CODEGEN--\":487:489   */\n    tag_33:\n        /* \"--CODEGEN--\":538:579   */\n      tag_34\n        /* \"--CODEGEN--\":572:578   */\n      dup4\n        /* \"--CODEGEN--\":567:570   */\n      dup3\n        /* \"--CODEGEN--\":562:565   */\n      dup5\n        /* \"--CODEGEN--\":538:579   */\n      tag_35\n      jump\t// in\n    tag_34:\n        /* \"--CODEGEN--\":205:585   */\n      pop\n      pop\n      pop\n      swap3\n      swap2\n      pop\n      pop\n      jump\t// out\n        /* \"--CODEGEN--\":593:723   */\n    tag_36:\n      0x00\n        /* \"--CODEGEN--\":673:679   */\n      dup2\n        /* \"--CODEGEN--\":660:680   */\n      calldataload\n        /* \"--CODEGEN--\":651:680   */\n      swap1\n      pop\n        /* \"--CODEGEN--\":685:718   */\n      tag_38\n        /* \"--CODEGEN--\":712:717   */\n      dup2\n        /* \"--CODEGEN--\":685:718   */\n      tag_39\n      jump\t// in\n    tag_38:\n        /* \"--CODEGEN--\":645:723   */\n      swap3\n      swap2\n      pop\n      pop\n      jump\t// out\n        /* \"--CODEGEN--\":730:1077   */\n    tag_7:\n      0x00\n        /* \"--CODEGEN--\":844:846   */\n      0x20\n        /* \"--CODEGEN--\":832:841   */\n      dup3\n        /* \"--CODEGEN--\":823:830   */\n      dup5\n        /* \"--CODEGEN--\":819:842   */\n      sub\n        /* \"--CODEGEN--\":815:847   */\n      slt\n        /* \"--CODEGEN--\":812:814   */\n      iszero\n      tag_41\n      jumpi\n        /* \"--CODEGEN--\":860:861   */\n      0x00\n        /* \"--CODEGEN--\":857:858   */\n      dup1\n        /* \"--CODEGEN--\":850:862   */\n      revert\n        /* \"--CODEGEN--\":812:814   */\n    tag_41:\n        /* \"--CODEGEN--\":923:924   */\n      0x00\n        /* \"--CODEGEN--\":912:921   */\n      dup3\n        /* \"--CODEGEN--\":908:925   */\n      add\n        /* \"--CODEGEN--\":895:926   */\n      calldataload\n        /* \"--CODEGEN--\":946:964   */\n      0xffffffffffffffff\n        /* \"--CODEGEN--\":938:944   */\n      dup2\n        /* \"--CODEGEN--\":935:965   */\n      gt\n        /* \"--CODEGEN--\":932:934   */\n      iszero\n      tag_42\n      jumpi\n        /* \"--CODEGEN--\":978:979   */\n      0x00\n        /* \"--CODEGEN--\":975:976   */\n      dup1\n        /* \"--CODEGEN--\":968:980   */\n      revert\n        /* \"--CODEGEN--\":932:934   */\n    tag_42:\n        /* \"--CODEGEN--\":998:1061   */\n      tag_43\n        /* \"--CODEGEN--\":1053:1060   */\n      dup5\n        /* \"--CODEGEN--\":1044:1050   */\n      dup3\n        /* \"--CODEGEN--\":1033:1042   */\n      dup6\n        /* \"--CODEGEN--\":1029:1051   */\n      add\n        /* \"--CODEGEN--\":998:1061   */\n      tag_26\n      jump\t// in\n    tag_43:\n        /* \"--CODEGEN--\":988:1061   */\n      swap2\n      pop\n        /* \"--CODEGEN--\":874:1067   */\n      pop\n        /* \"--CODEGEN--\":806:1077   */\n      swap3\n      swap2\n      pop\n      pop\n      jump\t// out\n        /* \"--CODEGEN--\":1084:1681   */\n    tag_13:\n      0x00\n      dup1\n      0x00\n        /* \"--CODEGEN--\":1232:1234   */\n      0x60\n        /* \"--CODEGEN--\":1220:1229   */\n      dup5\n        /* \"--CODEGEN--\":1211:1218   */\n      dup7\n        /* \"--CODEGEN--\":1207:1230   */\n      sub\n        /* \"--CODEGEN--\":1203:1235   */\n      slt\n        /* \"--CODEGEN--\":1200:1202   */\n      iszero\n      tag_45\n      jumpi\n        /* \"--CODEGEN--\":1248:1249   */\n      0x00\n        /* \"--CODEGEN--\":1245:1246   */\n      dup1\n        /* \"--CODEGEN--\":1238:1250   */\n      revert\n        /* \"--CODEGEN--\":1200:1202   */\n    tag_45:\n        /* \"--CODEGEN--\":1311:1312   */\n      0x00\n        /* \"--CODEGEN--\":1300:1309   */\n      dup5\n        /* \"--CODEGEN--\":1296:1313   */\n      add\n        /* \"--CODEGEN--\":1283:1314   */\n      calldataload\n        /* \"--CODEGEN--\":1334:1352   */\n      0xffffffffffffffff\n        /* \"--CODEGEN--\":1326:1332   */\n      dup2\n        /* \"--CODEGEN--\":1323:1353   */\n      gt\n        /* \"--CODEGEN--\":1320:1322   */\n      iszero\n      tag_46\n      jumpi\n        /* \"--CODEGEN--\":1366:1367   */\n      0x00\n        /* \"--CODEGEN--\":1363:1364   */\n      dup1\n        /* \"--CODEGEN--\":1356:1368   */\n      revert\n        /* \"--CODEGEN--\":1320:1322   */\n    tag_46:\n        /* \"--CODEGEN--\":1386:1449   */\n      tag_47\n        /* \"--CODEGEN--\":1441:1448   */\n      dup7\n        /* \"--CODEGEN--\":1432:1438   */\n      dup3\n        /* \"--CODEGEN--\":1421:1430   */\n      dup8\n        /* \"--CODEGEN--\":1417:1439   */\n      add\n        /* \"--CODEGEN--\":1386:1449   */\n      tag_26\n      jump\t// in\n    tag_47:\n        /* \"--CODEGEN--\":1376:1449   */\n      swap4\n      pop\n        /* \"--CODEGEN--\":1262:1455   */\n      pop\n        /* \"--CODEGEN--\":1486:1488   */\n      0x20\n        /* \"--CODEGEN--\":1504:1557   */\n      tag_48\n        /* \"--CODEGEN--\":1549:1556   */\n      dup7\n        /* \"--CODEGEN--\":1540:1546   */\n      dup3\n        /* \"--CODEGEN--\":1529:1538   */\n      dup8\n        /* \"--CODEGEN--\":1525:1547   */\n      add\n        /* \"--CODEGEN--\":1504:1557   */\n      tag_36\n      jump\t// in\n    tag_48:\n        /* \"--CODEGEN--\":1494:1557   */\n      swap3\n      pop\n        /* \"--CODEGEN--\":1465:1563   */\n      pop\n        /* \"--CODEGEN--\":1594:1596   */\n      0x40\n        /* \"--CODEGEN--\":1612:1665   */\n      tag_49\n        /* \"--CODEGEN--\":1657:1664   */\n      dup7\n        /* \"--CODEGEN--\":1648:1654   */\n      dup3\n        /* \"--CODEGEN--\":1637:1646   */\n      dup8\n        /* \"--CODEGEN--\":1633:1655   */\n      add\n        /* \"--CODEGEN--\":1612:1665   */\n      tag_22\n      jump\t// in\n    tag_49:\n        /* \"--CODEGEN--\":1602:1665   */\n      swap2\n      pop\n        /* \"--CODEGEN--\":1573:1671   */\n      pop\n        /* \"--CODEGEN--\":1194:1681   */\n      swap3\n      pop\n      swap3\n      pop\n      swap3\n      jump\t// out\n        /* \"--CODEGEN--\":1688:1801   */\n    tag_50:\n        /* \"--CODEGEN--\":1771:1795   */\n      tag_52\n        /* \"--CODEGEN--\":1789:1794   */\n      dup2\n        /* \"--CODEGEN--\":1771:1795   */\n      tag_53\n      jump\t// in\n    tag_52:\n        /* \"--CODEGEN--\":1766:1769   */\n      dup3\n        /* \"--CODEGEN--\":1759:1796   */\n      mstore\n        /* \"--CODEGEN--\":1753:1801   */\n      pop\n      pop\n      jump\t// out\n        /* \"--CODEGEN--\":1808:2168   */\n    tag_54:\n      0x00\n        /* \"--CODEGEN--\":1938:1977   */\n      tag_56\n        /* \"--CODEGEN--\":1971:1976   */\n      dup3\n        /* \"--CODEGEN--\":1938:1977   */\n      tag_57\n      jump\t// in\n    tag_56:\n        /* \"--CODEGEN--\":1989:2078   */\n      tag_58\n        /* \"--CODEGEN--\":2071:2077   */\n      dup2\n        /* \"--CODEGEN--\":2066:2069   */\n      dup6\n        /* \"--CODEGEN--\":1989:2078   */\n      tag_59\n      jump\t// in\n    tag_58:\n        /* \"--CODEGEN--\":1982:2078   */\n      swap4\n      pop\n        /* \"--CODEGEN--\":2083:2135   */\n      tag_60\n        /* \"--CODEGEN--\":2128:2134   */\n      dup2\n        /* \"--CODEGEN--\":2123:2126   */\n      dup6\n        /* \"--CODEGEN--\":2116:2120   */\n      0x20\n        /* \"--CODEGEN--\":2109:2114   */\n      dup7\n        /* \"--CODEGEN--\":2105:2121   */\n      add\n        /* \"--CODEGEN--\":2083:2135   */\n      tag_61\n      jump\t// in\n    tag_60:\n        /* \"--CODEGEN--\":2156:2162   */\n      dup1\n        /* \"--CODEGEN--\":2151:2154   */\n      dup5\n        /* \"--CODEGEN--\":2147:2163   */\n      add\n        /* \"--CODEGEN--\":2140:2163   */\n      swap2\n      pop\n        /* \"--CODEGEN--\":1918:2168   */\n      pop\n      swap3\n      swap2\n      pop\n      pop\n      jump\t// out\n        /* \"--CODEGEN--\":2175:2450   */\n    tag_18:\n      0x00\n        /* \"--CODEGEN--\":2330:2425   */\n      tag_63\n        /* \"--CODEGEN--\":2421:2424   */\n      dup3\n        /* \"--CODEGEN--\":2412:2418   */\n      dup5\n        /* \"--CODEGEN--\":2330:2425   */\n      tag_54\n      jump\t// in\n    tag_63:\n        /* \"--CODEGEN--\":2323:2425   */\n      swap2\n      pop\n        /* \"--CODEGEN--\":2442:2445   */\n      dup2\n        /* \"--CODEGEN--\":2435:2445   */\n      swap1\n      pop\n        /* \"--CODEGEN--\":2311:2450   */\n      swap3\n      swap2\n      pop\n      pop\n      jump\t// out\n        /* \"--CODEGEN--\":2457:2679   */\n    tag_10:\n      0x00\n        /* \"--CODEGEN--\":2584:2586   */\n      0x20\n        /* \"--CODEGEN--\":2573:2582   */\n      dup3\n        /* \"--CODEGEN--\":2569:2587   */\n      add\n        /* \"--CODEGEN--\":2561:2587   */\n      swap1\n      pop\n        /* \"--CODEGEN--\":2598:2669   */\n      tag_65\n        /* \"--CODEGEN--\":2666:2667   */\n      0x00\n        /* \"--CODEGEN--\":2655:2664   */\n      dup4\n        /* \"--CODEGEN--\":2651:2668   */\n      add\n        /* \"--CODEGEN--\":2642:2648   */\n      dup5\n        /* \"--CODEGEN--\":2598:2669   */\n      tag_50\n      jump\t// in\n    tag_65:\n        /* \"--CODEGEN--\":2555:2679   */\n      swap3\n      swap2\n      pop\n      pop\n      jump\t// out\n        /* \"--CODEGEN--\":2686:2942   */\n    tag_32:\n      0x00\n        /* \"--CODEGEN--\":2748:2750   */\n      0x40\n        /* \"--CODEGEN--\":2742:2751   */\n      mload\n        /* \"--CODEGEN--\":2732:2751   */\n      swap1\n      pop\n        /* \"--CODEGEN--\":2786:2790   */\n      dup2\n        /* \"--CODEGEN--\":2778:2784   */\n      dup2\n        /* \"--CODEGEN--\":2774:2791   */\n      add\n        /* \"--CODEGEN--\":2885:2891   */\n      dup2\n        /* \"--CODEGEN--\":2873:2883   */\n      dup2\n        /* \"--CODEGEN--\":2870:2892   */\n      lt\n        /* \"--CODEGEN--\":2849:2867   */\n      0xffffffffffffffff\n        /* \"--CODEGEN--\":2837:2847   */\n      dup3\n        /* \"--CODEGEN--\":2834:2868   */\n      gt\n        /* \"--CODEGEN--\":2831:2893   */\n      or\n        /* \"--CODEGEN--\":2828:2830   */\n      iszero\n      tag_67\n      jumpi\n        /* \"--CODEGEN--\":2906:2907   */\n      0x00\n        /* \"--CODEGEN--\":2903:2904   */\n      dup1\n        /* \"--CODEGEN--\":2896:2908   */\n      revert\n        /* \"--CODEGEN--\":2828:2830   */\n    tag_67:\n        /* \"--CODEGEN--\":2926:2936   */\n      dup1\n        /* \"--CODEGEN--\":2922:2924   */\n      0x40\n        /* \"--CODEGEN--\":2915:2937   */\n      mstore\n        /* \"--CODEGEN--\":2726:2942   */\n      pop\n      swap2\n      swap1\n      pop\n      jump\t// out\n        /* \"--CODEGEN--\":2949:3271   */\n    tag_31:\n      0x00\n        /* \"--CODEGEN--\":3093:3111   */\n      0xffffffffffffffff\n        /* \"--CODEGEN--\":3085:3091   */\n      dup3\n        /* \"--CODEGEN--\":3082:3112   */\n      gt\n        /* \"--CODEGEN--\":3079:3081   */\n      iszero\n      tag_69\n      jumpi\n        /* \"--CODEGEN--\":3125:3126   */\n      0x00\n        /* \"--CODEGEN--\":3122:3123   */\n      dup1\n        /* \"--CODEGEN--\":3115:3127   */\n      revert\n        /* \"--CODEGEN--\":3079:3081   */\n    tag_69:\n        /* \"--CODEGEN--\":3192:3196   */\n      0x1f\n        /* \"--CODEGEN--\":3188:3197   */\n      not\n        /* \"--CODEGEN--\":3181:3185   */\n      0x1f\n        /* \"--CODEGEN--\":3173:3179   */\n      dup4\n        /* \"--CODEGEN--\":3169:3186   */\n      add\n        /* \"--CODEGEN--\":3165:3198   */\n      and\n        /* \"--CODEGEN--\":3157:3198   */\n      swap1\n      pop\n        /* \"--CODEGEN--\":3256:3260   */\n      0x20\n        /* \"--CODEGEN--\":3250:3254   */\n      dup2\n        /* \"--CODEGEN--\":3246:3261   */\n      add\n        /* \"--CODEGEN--\":3238:3261   */\n      swap1\n      pop\n        /* \"--CODEGEN--\":3016:3271   */\n      swap2\n      swap1\n      pop\n      jump\t// out\n        /* \"--CODEGEN--\":3278:3400   */\n    tag_57:\n      0x00\n        /* \"--CODEGEN--\":3372:3377   */\n      dup2\n        /* \"--CODEGEN--\":3366:3378   */\n      mload\n        /* \"--CODEGEN--\":3356:3378   */\n      swap1\n      pop\n        /* \"--CODEGEN--\":3337:3400   */\n      swap2\n      swap1\n      pop\n      jump\t// out\n        /* \"--CODEGEN--\":3408:3553   */\n    tag_59:\n      0x00\n        /* \"--CODEGEN--\":3544:3547   */\n      dup2\n        /* \"--CODEGEN--\":3529:3547   */\n      swap1\n      pop\n        /* \"--CODEGEN--\":3522:3553   */\n      swap3\n      swap2\n      pop\n      pop\n      jump\t// out\n        /* \"--CODEGEN--\":3561:3652   */\n    tag_72:\n      0x00\n        /* \"--CODEGEN--\":3623:3647   */\n      tag_74\n        /* \"--CODEGEN--\":3641:3646   */\n      dup3\n        /* \"--CODEGEN--\":3623:3647   */\n      tag_75\n      jump\t// in\n    tag_74:\n        /* \"--CODEGEN--\":3612:3647   */\n      swap1\n      pop\n        /* \"--CODEGEN--\":3606:3652   */\n      swap2\n      swap1\n      pop\n      jump\t// out\n        /* \"--CODEGEN--\":3659:3731   */\n    tag_53:\n      0x00\n        /* \"--CODEGEN--\":3721:3726   */\n      dup2\n        /* \"--CODEGEN--\":3710:3726   */\n      swap1\n      pop\n        /* \"--CODEGEN--\":3704:3731   */\n      swap2\n      swap1\n      pop\n      jump\t// out\n        /* \"--CODEGEN--\":3738:3859   */\n    tag_75:\n      0x00\n        /* \"--CODEGEN--\":3811:3853   */\n      0xffffffffffffffffffffffffffffffffffffffff\n        /* \"--CODEGEN--\":3804:3809   */\n      dup3\n        /* \"--CODEGEN--\":3800:3854   */\n      and\n        /* \"--CODEGEN--\":3789:3854   */\n      swap1\n      pop\n        /* \"--CODEGEN--\":3783:3859   */\n      swap2\n      swap1\n      pop\n      jump\t// out\n        /* \"--CODEGEN--\":3866:3938   */\n    tag_78:\n      0x00\n        /* \"--CODEGEN--\":3928:3933   */\n      dup2\n        /* \"--CODEGEN--\":3917:3933   */\n      swap1\n      pop\n        /* \"--CODEGEN--\":3911:3938   */\n      swap2\n      swap1\n      pop\n      jump\t// out\n        /* \"--CODEGEN--\":3946:4091   */\n    tag_35:\n        /* \"--CODEGEN--\":4027:4033   */\n      dup3\n        /* \"--CODEGEN--\":4022:4025   */\n      dup2\n        /* \"--CODEGEN--\":4017:4020   */\n      dup4\n        /* \"--CODEGEN--\":4004:4034   */\n      calldatacopy\n        /* \"--CODEGEN--\":4083:4084   */\n      0x00\n        /* \"--CODEGEN--\":4074:4080   */\n      dup4\n        /* \"--CODEGEN--\":4069:4072   */\n      dup4\n        /* \"--CODEGEN--\":4065:4081   */\n      add\n        /* \"--CODEGEN--\":4058:4085   */\n      mstore\n        /* \"--CODEGEN--\":3997:4091   */\n      pop\n      pop\n      pop\n      jump\t// out\n        /* \"--CODEGEN--\":4100:4368   */\n    tag_61:\n        /* \"--CODEGEN--\":4165:4166   */\n      0x00\n        /* \"--CODEGEN--\":4172:4273   */\n    tag_82:\n        /* \"--CODEGEN--\":4186:4192   */\n      dup4\n        /* \"--CODEGEN--\":4183:4184   */\n      dup2\n        /* \"--CODEGEN--\":4180:4193   */\n      lt\n        /* \"--CODEGEN--\":4172:4273   */\n      iszero\n      tag_84\n      jumpi\n        /* \"--CODEGEN--\":4262:4263   */\n      dup1\n        /* \"--CODEGEN--\":4257:4260   */\n      dup3\n        /* \"--CODEGEN--\":4253:4264   */\n      add\n        /* \"--CODEGEN--\":4247:4265   */\n      mload\n        /* \"--CODEGEN--\":4243:4244   */\n      dup2\n        /* \"--CODEGEN--\":4238:4241   */\n      dup5\n        /* \"--CODEGEN--\":4234:4245   */\n      add\n        /* \"--CODEGEN--\":4227:4266   */\n      mstore\n        /* \"--CODEGEN--\":4208:4210   */\n      0x20\n        /* \"--CODEGEN--\":4205:4206   */\n      dup2\n        /* \"--CODEGEN--\":4201:4211   */\n      add\n        /* \"--CODEGEN--\":4196:4211   */\n      swap1\n      pop\n        /* \"--CODEGEN--\":4172:4273   */\n      jump(tag_82)\n    tag_84:\n        /* \"--CODEGEN--\":4288:4294   */\n      dup4\n        /* \"--CODEGEN--\":4285:4286   */\n      dup2\n        /* \"--CODEGEN--\":4282:4295   */\n      gt\n        /* \"--CODEGEN--\":4279:4281   */\n      iszero\n      tag_85\n      jumpi\n        /* \"--CODEGEN--\":4353:4354   */\n      0x00\n        /* \"--CODEGEN--\":4344:4350   */\n      dup5\n        /* \"--CODEGEN--\":4339:4342   */\n      dup5\n        /* \"--CODEGEN--\":4335:4351   */\n      add\n        /* \"--CODEGEN--\":4328:4355   */\n      mstore\n        /* \"--CODEGEN--\":4279:4281   */\n    tag_85:\n        /* \"--CODEGEN--\":4149:4368   */\n      pop\n      pop\n      pop\n      pop\n      jump\t// out\n        /* \"--CODEGEN--\":4376:4493   */\n    tag_25:\n        /* \"--CODEGEN--\":4445:4469   */\n      tag_87\n        /* \"--CODEGEN--\":4463:4468   */\n      dup2\n        /* \"--CODEGEN--\":4445:4469   */\n      tag_72\n      jump\t// in\n    tag_87:\n        /* \"--CODEGEN--\":4438:4443   */\n      dup2\n        /* \"--CODEGEN--\":4435:4470   */\n      eq\n        /* \"--CODEGEN--\":4425:4427   */\n      tag_88\n      jumpi\n        /* \"--CODEGEN--\":4484:4485   */\n      0x00\n        /* \"--CODEGEN--\":4481:4482   */\n      dup1\n        /* \"--CODEGEN--\":4474:4486   */\n      revert\n        /* \"--CODEGEN--\":4425:4427   */\n    tag_88:\n        /* \"--CODEGEN--\":4419:4493   */\n      pop\n      jump\t// out\n        /* \"--CODEGEN--\":4500:4617   */\n    tag_39:\n        /* \"--CODEGEN--\":4569:4593   */\n      tag_90\n        /* \"--CODEGEN--\":4587:4592   */\n      dup2\n        /* \"--CODEGEN--\":4569:4593   */\n      tag_78\n      jump\t// in\n    tag_90:\n        /* \"--CODEGEN--\":4562:4567   */\n      dup2\n        /* \"--CODEGEN--\":4559:4594   */\n      eq\n        /* \"--CODEGEN--\":4549:4551   */\n      tag_91\n      jumpi\n        /* \"--CODEGEN--\":4608:4609   */\n      0x00\n        /* \"--CODEGEN--\":4605:4606   */\n      dup1\n        /* \"--CODEGEN--\":4598:4610   */\n      revert\n        /* \"--CODEGEN--\":4549:4551   */\n    tag_91:\n        /* \"--CODEGEN--\":4543:4617   */\n      pop\n      jump\t// out\n\n    auxdata: 0xa2646970667358221220022d3f4c59e0f85c5d3963f40524dfce3f4f1a1086ab29a35ae75978dd8c0e7664736f6c634300060c0033\n}\n",
				"bytecode": {
					"linkReferences": {},
					"object": "608060405234801561001057600080fd5b506103ee806100206000396000f3fe608060405234801561001057600080fd5b50600436106100365760003560e01c80636922e1861461003b578063c9dbd72d1461006b575b600080fd5b61005560048036038101906100509190610179565b61009b565b6040516100629190610278565b60405180910390f35b610085600480360381019061008091906101ba565b6100ca565b6040516100929190610278565b60405180910390f35b6000816040516020016100ae9190610261565b6040516020818303038152906040528051906020012050919050565b6000836040516020016100dd9190610261565b60405160208183030381529060405280519060200120509392505050565b60008135905061010a8161038a565b92915050565b600082601f83011261012157600080fd5b813561013461012f826102c0565b610293565b9150808252602083016020830185838301111561015057600080fd5b61015b838284610348565b50505092915050565b600081359050610173816103a1565b92915050565b60006020828403121561018b57600080fd5b600082013567ffffffffffffffff8111156101a557600080fd5b6101b184828501610110565b91505092915050565b6000806000606084860312156101cf57600080fd5b600084013567ffffffffffffffff8111156101e957600080fd5b6101f586828701610110565b935050602061020686828701610164565b9250506040610217868287016100fb565b9150509250925092565b61022a81610314565b82525050565b600061023b826102ec565b61024581856102f7565b9350610255818560208601610357565b80840191505092915050565b600061026d8284610230565b915081905092915050565b600060208201905061028d6000830184610221565b92915050565b6000604051905081810181811067ffffffffffffffff821117156102b657600080fd5b8060405250919050565b600067ffffffffffffffff8211156102d757600080fd5b601f19601f8301169050602081019050919050565b600081519050919050565b600081905092915050565b600061030d8261031e565b9050919050565b6000819050919050565b600073ffffffffffffffffffffffffffffffffffffffff82169050919050565b6000819050919050565b82818337600083830152505050565b60005b8381101561037557808201518184015260208101905061035a565b83811115610384576000848401525b50505050565b61039381610302565b811461039e57600080fd5b50565b6103aa8161033e565b81146103b557600080fd5b5056fea2646970667358221220022d3f4c59e0f85c5d3963f40524dfce3f4f1a1086ab29a35ae75978dd8c0e7664736f6c634300060c0033",
					"opcodes": "PUSH1 0x80 PUSH1 0x40 MSTORE CALLVALUE DUP1 ISZERO PUSH2 0x10 JUMPI PUSH1 0x0 DUP1 REVERT JUMPDEST POP PUSH2 0x3EE DUP1 PUSH2 0x20 PUSH1 0x0 CODECOPY PUSH1 0x0 RETURN INVALID PUSH1 0x80 PUSH1 0x40 MSTORE CALLVALUE DUP1 ISZERO PUSH2 0x10 JUMPI PUSH1 0x0 DUP1 REVERT JUMPDEST POP PUSH1 0x4 CALLDATASIZE LT PUSH2 0x36 JUMPI PUSH1 0x0 CALLDATALOAD PUSH1 0xE0 SHR DUP1 PUSH4 0x6922E186 EQ PUSH2 0x3B JUMPI DUP1 PUSH4 0xC9DBD72D EQ PUSH2 0x6B JUMPI JUMPDEST PUSH1 0x0 DUP1 REVERT JUMPDEST PUSH2 0x55 PUSH1 0x4 DUP1 CALLDATASIZE SUB DUP2 ADD SWAP1 PUSH2 0x50 SWAP2 SWAP1 PUSH2 0x179 JUMP JUMPDEST PUSH2 0x9B JUMP JUMPDEST PUSH1 0x40 MLOAD PUSH2 0x62 SWAP2 SWAP1 PUSH2 0x278 JUMP JUMPDEST PUSH1 0x40 MLOAD DUP1 SWAP2 SUB SWAP1 RETURN JUMPDEST PUSH2 0x85 PUSH1 0x4 DUP1 CALLDATASIZE SUB DUP2 ADD SWAP1 PUSH2 0x80 SWAP2 SWAP1 PUSH2 0x1BA JUMP JUMPDEST PUSH2 0xCA JUMP JUMPDEST PUSH1 0x40 MLOAD PUSH2 0x92 SWAP2 SWAP1 PUSH2 0x278 JUMP JUMPDEST PUSH1 0x40 MLOAD DUP1 SWAP2 SUB SWAP1 RETURN JUMPDEST PUSH1 0x0 DUP2 PUSH1 0x40 MLOAD PUSH1 0x20 ADD PUSH2 0xAE SWAP2 SWAP1 PUSH2 0x261 JUMP JUMPDEST PUSH1 0x40 MLOAD PUSH1 0x20 DUP2 DUP4 SUB SUB DUP2 MSTORE SWAP1 PUSH1 0x40 MSTORE DUP1 MLOAD SWAP1 PUSH1 0x20 ADD KECCAK256 POP SWAP2 SWAP1 POP JUMP JUMPDEST PUSH1 0x0 DUP4 PUSH1 0x40 MLOAD PUSH1 0x20 ADD PUSH2 0xDD SWAP2 SWAP1 PUSH2 0x261 JUMP JUMPDEST PUSH1 0x40 MLOAD PUSH1 0x20 DUP2 DUP4 SUB SUB DUP2 MSTORE SWAP1 PUSH1 0x40 MSTORE DUP1 MLOAD SWAP1 PUSH1 0x20 ADD KECCAK256 POP SWAP4 SWAP3 POP POP POP JUMP JUMPDEST PUSH1 0x0 DUP2 CALLDATALOAD SWAP1 POP PUSH2 0x10A DUP2 PUSH2 0x38A JUMP JUMPDEST SWAP3 SWAP2 POP POP JUMP JUMPDEST PUSH1 0x0 DUP3 PUSH1 0x1F DUP4 ADD SLT PUSH2 0x121 JUMPI PUSH1 0x0 DUP1 REVERT JUMPDEST DUP2 CALLDATALOAD PUSH2 0x134 PUSH2 0x12F DUP3 PUSH2 0x2C0 JUMP JUMPDEST PUSH2 0x293 JUMP JUMPDEST SWAP2 POP DUP1 DUP3 MSTORE PUSH1 0x20 DUP4 ADD PUSH1 0x20 DUP4 ADD DUP6 DUP4 DUP4 ADD GT ISZERO PUSH2 0x150 JUMPI PUSH1 0x0 DUP1 REVERT JUMPDEST PUSH2 0x15B DUP4 DUP3 DUP5 PUSH2 0x348 JUMP JUMPDEST POP POP POP SWAP3 SWAP2 POP POP JUMP JUMPDEST PUSH1 0x0 DUP2 CALLDATALOAD SWAP1 POP PUSH2 0x173 DUP2 PUSH2 0x3A1 JUMP JUMPDEST SWAP3 SWAP2 POP POP JUMP JUMPDEST PUSH1 0x0 PUSH1 0x20 DUP3 DUP5 SUB SLT ISZERO PUSH2 0x18B JUMPI PUSH1 0x0 DUP1 REVERT JUMPDEST PUSH1 0x0 DUP3 ADD CALLDATALOAD PUSH8 0xFFFFFFFFFFFFFFFF DUP2 GT ISZERO PUSH2 0x1A5 JUMPI PUSH1 0x0 DUP1 REVERT JUMPDEST PUSH2 0x1B1 DUP5 DUP3 DUP6 ADD PUSH2 0x110 JUMP JUMPDEST SWAP2 POP POP SWAP3 SWAP2 POP POP JUMP JUMPDEST PUSH1 0x0 DUP1 PUSH1 0x0 PUSH1 0x60 DUP5 DUP7 SUB SLT ISZERO PUSH2 0x1CF JUMPI PUSH1 0x0 DUP1 REVERT JUMPDEST PUSH1 0x0 DUP5 ADD CALLDATALOAD PUSH8 0xFFFFFFFFFFFFFFFF DUP2 GT ISZERO PUSH2 0x1E9 JUMPI PUSH1 0x0 DUP1 REVERT JUMPDEST PUSH2 0x1F5 DUP7 DUP3 DUP8 ADD PUSH2 0x110 JUMP JUMPDEST SWAP4 POP POP PUSH1 0x20 PUSH2 0x206 DUP7 DUP3 DUP8 ADD PUSH2 0x164 JUMP JUMPDEST SWAP3 POP POP PUSH1 0x40 PUSH2 0x217 DUP7 DUP3 DUP8 ADD PUSH2 0xFB JUMP JUMPDEST SWAP2 POP POP SWAP3 POP SWAP3 POP SWAP3 JUMP JUMPDEST PUSH2 0x22A DUP2 PUSH2 0x314 JUMP JUMPDEST DUP3 MSTORE POP POP JUMP JUMPDEST PUSH1 0x0 PUSH2 0x23B DUP3 PUSH2 0x2EC JUMP JUMPDEST PUSH2 0x245 DUP2 DUP6 PUSH2 0x2F7 JUMP JUMPDEST SWAP4 POP PUSH2 0x255 DUP2 DUP6 PUSH1 0x20 DUP7 ADD PUSH2 0x357 JUMP JUMPDEST DUP1 DUP5 ADD SWAP2 POP POP SWAP3 SWAP2 POP POP JUMP JUMPDEST PUSH1 0x0 PUSH2 0x26D DUP3 DUP5 PUSH2 0x230 JUMP JUMPDEST SWAP2 POP DUP2 SWAP1 POP SWAP3 SWAP2 POP POP JUMP JUMPDEST PUSH1 0x0 PUSH1 0x20 DUP3 ADD SWAP1 POP PUSH2 0x28D PUSH1 0x0 DUP4 ADD DUP5 PUSH2 0x221 JUMP JUMPDEST SWAP3 SWAP2 POP POP JUMP JUMPDEST PUSH1 0x0 PUSH1 0x40 MLOAD SWAP1 POP DUP2 DUP2 ADD DUP2 DUP2 LT PUSH8 0xFFFFFFFFFFFFFFFF DUP3 GT OR ISZERO PUSH2 0x2B6 JUMPI PUSH1 0x0 DUP1 REVERT JUMPDEST DUP1 PUSH1 0x40 MSTORE POP SWAP2 SWAP1 POP JUMP JUMPDEST PUSH1 0x0 PUSH8 0xFFFFFFFFFFFFFFFF DUP3 GT ISZERO PUSH2 0x2D7 JUMPI PUSH1 0x0 DUP1 REVERT JUMPDEST PUSH1 0x1F NOT PUSH1 0x1F DUP4 ADD AND SWAP1 POP PUSH1 0x20 DUP2 ADD SWAP1 POP SWAP2 SWAP1 POP JUMP JUMPDEST PUSH1 0x0 DUP2 MLOAD SWAP1 POP SWAP2 SWAP1 POP JUMP JUMPDEST PUSH1 0x0 DUP2 SWAP1 POP SWAP3 SWAP2 POP POP JUMP JUMPDEST PUSH1 0x0 PUSH2 0x30D DUP3 PUSH2 0x31E JUMP JUMPDEST SWAP1 POP SWAP2 SWAP1 POP JUMP JUMPDEST PUSH1 0x0 DUP2 SWAP1 POP SWAP2 SWAP1 POP JUMP JUMPDEST PUSH1 0x0 PUSH20 0xFFFFFFFFFFFFFFFFFFFFFFFFFFFFFFFFFFFFFFFF DUP3 AND SWAP1 POP SWAP2 SWAP1 POP JUMP JUMPDEST PUSH1 0x0 DUP2 SWAP1 POP SWAP2 SWAP1 POP JUMP JUMPDEST DUP3 DUP2 DUP4 CALLDATACOPY PUSH1 0x0 DUP4 DUP4 ADD MSTORE POP POP POP JUMP JUMPDEST PUSH1 0x0 JUMPDEST DUP4 DUP2 LT ISZERO PUSH2 0x375 JUMPI DUP1 DUP3 ADD MLOAD DUP2 DUP5 ADD MSTORE PUSH1 0x20 DUP2 ADD SWAP1 POP PUSH2 0x35A JUMP JUMPDEST DUP4 DUP2 GT ISZERO PUSH2 0x384 JUMPI PUSH1 0x0 DUP5 DUP5 ADD MSTORE JUMPDEST POP POP POP POP JUMP JUMPDEST PUSH2 0x393 DUP2 PUSH2 0x302 JUMP JUMPDEST DUP2 EQ PUSH2 0x39E JUMPI PUSH1 0x0 DUP1 REVERT JUMPDEST POP JUMP JUMPDEST PUSH2 0x3AA DUP2 PUSH2 0x33E JUMP JUMPDEST DUP2 EQ PUSH2 0x3B5 JUMPI PUSH1 0x0 DUP1 REVERT JUMPDEST POP JUMP INVALID LOG2 PUSH5 0x6970667358 0x22 SLT KECCAK256 MUL 0x2D EXTCODEHASH 0x4C MSIZE 0xE0 0xF8 0x5C 0x5D CODECOPY PUSH4 0xF40524DF 0xCE EXTCODEHASH 0x4F BYTE LT DUP7 0xAB 0x29 LOG3 GAS 0xE7 MSIZE PUSH25 0xDD8C0E7664736F6C634300060C003300000000000000000000 "
				},
				"gasEstimates": {
					"creation": {
						"codeDepositCost": "201200",
						"executionCost": "245",
						"totalCost": "201445"
					},
					"external": {
						"CalcularHash(string)": "infinite",
						"CalcularHash(string,uint256,address)": "infinite"
					}
				},
				"methodIdentifiers": {
					"CalcularHash(string)": "6922e186",
					"CalcularHash(string,uint256,address)": "c9dbd72d"
				}
			},
			"storageLayout": {
				"storage": [],
				"types": null
			},
			"userdoc": {
				"kind": "user",
				"methods": {},
				"version": 1
			}
		}
	}
}