{
	"Propiedades de transacciones y bloques/funciones_globales.sol": {
		"funciones_globales": {
			"abi": [
				{
					"inputs": [],
					"name": "BlockCoinbase",
					"outputs": [
						{
							"internalType": "address",
							"name": "",
							"type": "address"
						}
					],
					"stateMutability": "view",
					"type": "function"
				},
				{
					"inputs": [],
					"name": "BlockDifficulty",
					"outputs": [
						{
							"internalType": "uint256",
							"name": "",
							"type": "uint256"
						}
					],
					"stateMutability": "view",
					"type": "function"
				},
				{
					"inputs": [],
					"name": "BlockNumber",
					"outputs": [
						{
							"internalType": "uint256",
							"name": "",
							"type": "uint256"
						}
					],
					"stateMutability": "view",
					"type": "function"
				},
				{
					"inputs": [],
					"name": "MsgSender",
					"outputs": [
						{
							"internalType": "address",
							"name": "",
							"type": "address"
						}
					],
					"stateMutability": "view",
					"type": "function"
				},
				{
					"inputs": [],
					"name": "MsgSig",
					"outputs": [
						{
							"internalType": "bytes4",
							"name": "",
							"type": "bytes4"
						}
					],
					"stateMutability": "view",
					"type": "function"
				},
				{
					"inputs": [],
					"name": "Now",
					"outputs": [
						{
							"internalType": "uint256",
							"name": "",
							"type": "uint256"
						}
					],
					"stateMutability": "view",
					"type": "function"
				}
			],
			"devdoc": {
				"kind": "dev",
				"methods": {},
				"version": 1
			},
			"evm": {
				"assembly": "    /* \"Propiedades de transacciones y bloques/funciones_globales.sol\":62:646  contract funciones_globales{\r... */\n  mstore(0x40, 0x80)\n  callvalue\n  dup1\n  iszero\n  tag_1\n  jumpi\n  0x00\n  dup1\n  revert\ntag_1:\n  pop\n  dataSize(sub_0)\n  dup1\n  dataOffset(sub_0)\n  0x00\n  codecopy\n  0x00\n  return\nstop\n\nsub_0: assembly {\n        /* \"Propiedades de transacciones y bloques/funciones_globales.sol\":62:646  contract funciones_globales{\r... */\n      mstore(0x40, 0x80)\n      callvalue\n      dup1\n      iszero\n      tag_1\n      jumpi\n      0x00\n      dup1\n      revert\n    tag_1:\n      pop\n      jumpi(tag_2, lt(calldatasize, 0x04))\n      shr(0xe0, calldataload(0x00))\n      dup1\n      0x083f3ec4\n      eq\n      tag_3\n      jumpi\n      dup1\n      0x0a649267\n      eq\n      tag_4\n      jumpi\n      dup1\n      0x44d4fd19\n      eq\n      tag_5\n      jumpi\n      dup1\n      0x64868510\n      eq\n      tag_6\n      jumpi\n      dup1\n      0x84d63e12\n      eq\n      tag_7\n      jumpi\n      dup1\n      0xe6c595c0\n      eq\n      tag_8\n      jumpi\n    tag_2:\n      0x00\n      dup1\n      revert\n        /* \"Propiedades de transacciones y bloques/funciones_globales.sol\":484:562  function MsgSig() public view returns(bytes4){\r... */\n    tag_3:\n      tag_9\n      tag_10\n      jump\t// in\n    tag_9:\n      mload(0x40)\n      tag_11\n      swap2\n      swap1\n      tag_12\n      jump\t// in\n    tag_11:\n      mload(0x40)\n      dup1\n      swap2\n      sub\n      swap1\n      return\n        /* \"Propiedades de transacciones y bloques/funciones_globales.sol\":191:284  function BlockCoinbase() public view returns(address){\r... */\n    tag_4:\n      tag_13\n      tag_14\n      jump\t// in\n    tag_13:\n      mload(0x40)\n      tag_15\n      swap2\n      swap1\n      tag_16\n      jump\t// in\n    tag_15:\n      mload(0x40)\n      dup1\n      swap2\n      sub\n      swap1\n      return\n        /* \"Propiedades de transacciones y bloques/funciones_globales.sol\":570:639  function Now() public view returns(uint){\r... */\n    tag_5:\n      tag_17\n      tag_18\n      jump\t// in\n    tag_17:\n      mload(0x40)\n      tag_19\n      swap2\n      swap1\n      tag_20\n      jump\t// in\n    tag_19:\n      mload(0x40)\n      dup1\n      swap2\n      sub\n      swap1\n      return\n        /* \"Propiedades de transacciones y bloques/funciones_globales.sol\":394:476  function BlockNumber() public view returns(uint){\r... */\n    tag_6:\n      tag_21\n      tag_22\n      jump\t// in\n    tag_21:\n      mload(0x40)\n      tag_23\n      swap2\n      swap1\n      tag_20\n      jump\t// in\n    tag_23:\n      mload(0x40)\n      dup1\n      swap2\n      sub\n      swap1\n      return\n        /* \"Propiedades de transacciones y bloques/funciones_globales.sol\":98:183  function MsgSender() public view returns(address){\r... */\n    tag_7:\n      tag_24\n      tag_25\n      jump\t// in\n    tag_24:\n      mload(0x40)\n      tag_26\n      swap2\n      swap1\n      tag_16\n      jump\t// in\n    tag_26:\n      mload(0x40)\n      dup1\n      swap2\n      sub\n      swap1\n      return\n        /* \"Propiedades de transacciones y bloques/funciones_globales.sol\":292:386  function BlockDifficulty() public view returns(uint){\r... */\n    tag_8:\n      tag_27\n      tag_28\n      jump\t// in\n    tag_27:\n      mload(0x40)\n      tag_29\n      swap2\n      swap1\n      tag_20\n      jump\t// in\n    tag_29:\n      mload(0x40)\n      dup1\n      swap2\n      sub\n      swap1\n      return\n        /* \"Propiedades de transacciones y bloques/funciones_globales.sol\":484:562  function MsgSig() public view returns(bytes4){\r... */\n    tag_10:\n        /* \"Propiedades de transacciones y bloques/funciones_globales.sol\":522:528  bytes4 */\n      0x00\n        /* \"Propiedades de transacciones y bloques/funciones_globales.sol\":547:554  msg.sig */\n      dup1\n      calldataload\n      0xffffffff00000000000000000000000000000000000000000000000000000000\n      and\n        /* \"Propiedades de transacciones y bloques/funciones_globales.sol\":540:554  return msg.sig */\n      swap1\n      pop\n        /* \"Propiedades de transacciones y bloques/funciones_globales.sol\":484:562  function MsgSig() public view returns(bytes4){\r... */\n      swap1\n      jump\t// out\n        /* \"Propiedades de transacciones y bloques/funciones_globales.sol\":191:284  function BlockCoinbase() public view returns(address){\r... */\n    tag_14:\n        /* \"Propiedades de transacciones y bloques/funciones_globales.sol\":236:243  address */\n      0x00\n        /* \"Propiedades de transacciones y bloques/funciones_globales.sol\":262:276  block.coinbase */\n      coinbase\n        /* \"Propiedades de transacciones y bloques/funciones_globales.sol\":255:276  return block.coinbase */\n      swap1\n      pop\n        /* \"Propiedades de transacciones y bloques/funciones_globales.sol\":191:284  function BlockCoinbase() public view returns(address){\r... */\n      swap1\n      jump\t// out\n        /* \"Propiedades de transacciones y bloques/funciones_globales.sol\":570:639  function Now() public view returns(uint){\r... */\n    tag_18:\n        /* \"Propiedades de transacciones y bloques/funciones_globales.sol\":605:609  uint */\n      0x00\n        /* \"Propiedades de transacciones y bloques/funciones_globales.sol\":628:631  now */\n      timestamp\n        /* \"Propiedades de transacciones y bloques/funciones_globales.sol\":621:631  return now */\n      swap1\n      pop\n        /* \"Propiedades de transacciones y bloques/funciones_globales.sol\":570:639  function Now() public view returns(uint){\r... */\n      swap1\n      jump\t// out\n        /* \"Propiedades de transacciones y bloques/funciones_globales.sol\":394:476  function BlockNumber() public view returns(uint){\r... */\n    tag_22:\n        /* \"Propiedades de transacciones y bloques/funciones_globales.sol\":437:441  uint */\n      0x00\n        /* \"Propiedades de transacciones y bloques/funciones_globales.sol\":460:472  block.number */\n      number\n        /* \"Propiedades de transacciones y bloques/funciones_globales.sol\":453:472  return block.number */\n      swap1\n      pop\n        /* \"Propiedades de transacciones y bloques/funciones_globales.sol\":394:476  function BlockNumber() public view returns(uint){\r... */\n      swap1\n      jump\t// out\n        /* \"Propiedades de transacciones y bloques/funciones_globales.sol\":98:183  function MsgSender() public view returns(address){\r... */\n    tag_25:\n        /* \"Propiedades de transacciones y bloques/funciones_globales.sol\":139:146  address */\n      0x00\n        /* \"Propiedades de transacciones y bloques/funciones_globales.sol\":165:175  msg.sender */\n      caller\n        /* \"Propiedades de transacciones y bloques/funciones_globales.sol\":158:175  return msg.sender */\n      swap1\n      pop\n        /* \"Propiedades de transacciones y bloques/funciones_globales.sol\":98:183  function MsgSender() public view returns(address){\r... */\n      swap1\n      jump\t// out\n        /* \"Propiedades de transacciones y bloques/funciones_globales.sol\":292:386  function BlockDifficulty() public view returns(uint){\r... */\n    tag_28:\n        /* \"Propiedades de transacciones y bloques/funciones_globales.sol\":339:343  uint */\n      0x00\n        /* \"Propiedades de transacciones y bloques/funciones_globales.sol\":362:378  block.difficulty */\n      difficulty\n        /* \"Propiedades de transacciones y bloques/funciones_globales.sol\":355:378  return block.difficulty */\n      swap1\n      pop\n        /* \"Propiedades de transacciones y bloques/funciones_globales.sol\":292:386  function BlockDifficulty() public view returns(uint){\r... */\n      swap1\n      jump\t// out\n        /* \"--CODEGEN--\":5:118   */\n    tag_37:\n        /* \"--CODEGEN--\":88:112   */\n      tag_39\n        /* \"--CODEGEN--\":106:111   */\n      dup2\n        /* \"--CODEGEN--\":88:112   */\n      tag_40\n      jump\t// in\n    tag_39:\n        /* \"--CODEGEN--\":83:86   */\n      dup3\n        /* \"--CODEGEN--\":76:113   */\n      mstore\n        /* \"--CODEGEN--\":70:118   */\n      pop\n      pop\n      jump\t// out\n        /* \"--CODEGEN--\":125:235   */\n    tag_41:\n        /* \"--CODEGEN--\":206:229   */\n      tag_43\n        /* \"--CODEGEN--\":223:228   */\n      dup2\n        /* \"--CODEGEN--\":206:229   */\n      tag_44\n      jump\t// in\n    tag_43:\n        /* \"--CODEGEN--\":201:204   */\n      dup3\n        /* \"--CODEGEN--\":194:230   */\n      mstore\n        /* \"--CODEGEN--\":188:235   */\n      pop\n      pop\n      jump\t// out\n        /* \"--CODEGEN--\":242:355   */\n    tag_45:\n        /* \"--CODEGEN--\":325:349   */\n      tag_47\n        /* \"--CODEGEN--\":343:348   */\n      dup2\n        /* \"--CODEGEN--\":325:349   */\n      tag_48\n      jump\t// in\n    tag_47:\n        /* \"--CODEGEN--\":320:323   */\n      dup3\n        /* \"--CODEGEN--\":313:350   */\n      mstore\n        /* \"--CODEGEN--\":307:355   */\n      pop\n      pop\n      jump\t// out\n        /* \"--CODEGEN--\":362:584   */\n    tag_16:\n      0x00\n        /* \"--CODEGEN--\":489:491   */\n      0x20\n        /* \"--CODEGEN--\":478:487   */\n      dup3\n        /* \"--CODEGEN--\":474:492   */\n      add\n        /* \"--CODEGEN--\":466:492   */\n      swap1\n      pop\n        /* \"--CODEGEN--\":503:574   */\n      tag_50\n        /* \"--CODEGEN--\":571:572   */\n      0x00\n        /* \"--CODEGEN--\":560:569   */\n      dup4\n        /* \"--CODEGEN--\":556:573   */\n      add\n        /* \"--CODEGEN--\":547:553   */\n      dup5\n        /* \"--CODEGEN--\":503:574   */\n      tag_37\n      jump\t// in\n    tag_50:\n        /* \"--CODEGEN--\":460:584   */\n      swap3\n      swap2\n      pop\n      pop\n      jump\t// out\n        /* \"--CODEGEN--\":591:809   */\n    tag_12:\n      0x00\n        /* \"--CODEGEN--\":716:718   */\n      0x20\n        /* \"--CODEGEN--\":705:714   */\n      dup3\n        /* \"--CODEGEN--\":701:719   */\n      add\n        /* \"--CODEGEN--\":693:719   */\n      swap1\n      pop\n        /* \"--CODEGEN--\":730:799   */\n      tag_52\n        /* \"--CODEGEN--\":796:797   */\n      0x00\n        /* \"--CODEGEN--\":785:794   */\n      dup4\n        /* \"--CODEGEN--\":781:798   */\n      add\n        /* \"--CODEGEN--\":772:778   */\n      dup5\n        /* \"--CODEGEN--\":730:799   */\n      tag_41\n      jump\t// in\n    tag_52:\n        /* \"--CODEGEN--\":687:809   */\n      swap3\n      swap2\n      pop\n      pop\n      jump\t// out\n        /* \"--CODEGEN--\":816:1038   */\n    tag_20:\n      0x00\n        /* \"--CODEGEN--\":943:945   */\n      0x20\n        /* \"--CODEGEN--\":932:941   */\n      dup3\n        /* \"--CODEGEN--\":928:946   */\n      add\n        /* \"--CODEGEN--\":920:946   */\n      swap1\n      pop\n        /* \"--CODEGEN--\":957:1028   */\n      tag_54\n        /* \"--CODEGEN--\":1025:1026   */\n      0x00\n        /* \"--CODEGEN--\":1014:1023   */\n      dup4\n        /* \"--CODEGEN--\":1010:1027   */\n      add\n        /* \"--CODEGEN--\":1001:1007   */\n      dup5\n        /* \"--CODEGEN--\":957:1028   */\n      tag_45\n      jump\t// in\n    tag_54:\n        /* \"--CODEGEN--\":914:1038   */\n      swap3\n      swap2\n      pop\n      pop\n      jump\t// out\n        /* \"--CODEGEN--\":1045:1136   */\n    tag_40:\n      0x00\n        /* \"--CODEGEN--\":1107:1131   */\n      tag_56\n        /* \"--CODEGEN--\":1125:1130   */\n      dup3\n        /* \"--CODEGEN--\":1107:1131   */\n      tag_57\n      jump\t// in\n    tag_56:\n        /* \"--CODEGEN--\":1096:1131   */\n      swap1\n      pop\n        /* \"--CODEGEN--\":1090:1136   */\n      swap2\n      swap1\n      pop\n      jump\t// out\n        /* \"--CODEGEN--\":1143:1287   */\n    tag_44:\n      0x00\n        /* \"--CODEGEN--\":1215:1281   */\n      0xffffffff00000000000000000000000000000000000000000000000000000000\n        /* \"--CODEGEN--\":1208:1213   */\n      dup3\n        /* \"--CODEGEN--\":1204:1282   */\n      and\n        /* \"--CODEGEN--\":1193:1282   */\n      swap1\n      pop\n        /* \"--CODEGEN--\":1187:1287   */\n      swap2\n      swap1\n      pop\n      jump\t// out\n        /* \"--CODEGEN--\":1294:1415   */\n    tag_57:\n      0x00\n        /* \"--CODEGEN--\":1367:1409   */\n      0xffffffffffffffffffffffffffffffffffffffff\n        /* \"--CODEGEN--\":1360:1365   */\n      dup3\n        /* \"--CODEGEN--\":1356:1410   */\n      and\n        /* \"--CODEGEN--\":1345:1410   */\n      swap1\n      pop\n        /* \"--CODEGEN--\":1339:1415   */\n      swap2\n      swap1\n      pop\n      jump\t// out\n        /* \"--CODEGEN--\":1422:1494   */\n    tag_48:\n      0x00\n        /* \"--CODEGEN--\":1484:1489   */\n      dup2\n        /* \"--CODEGEN--\":1473:1489   */\n      swap1\n      pop\n        /* \"--CODEGEN--\":1467:1494   */\n      swap2\n      swap1\n      pop\n      jump\t// out\n\n    auxdata: 0xa2646970667358221220991acedb55c0c5de6ad07ae22e286e03d6fdbd8bac54df579299a6ce2ab8745864736f6c634300060c0033\n}\n",
				"bytecode": {
					"linkReferences": {},
					"object": "608060405234801561001057600080fd5b5061028a806100206000396000f3fe608060405234801561001057600080fd5b50600436106100625760003560e01c8063083f3ec4146100675780630a6492671461008557806344d4fd19146100a357806364868510146100c157806384d63e12146100df578063e6c595c0146100fd575b600080fd5b61006f61011b565b60405161007c91906101b6565b60405180910390f35b61008d610146565b60405161009a919061019b565b60405180910390f35b6100ab61014e565b6040516100b891906101d1565b60405180910390f35b6100c9610156565b6040516100d691906101d1565b60405180910390f35b6100e761015e565b6040516100f4919061019b565b60405180910390f35b610105610166565b60405161011291906101d1565b60405180910390f35b600080357fffffffff0000000000000000000000000000000000000000000000000000000016905090565b600041905090565b600042905090565b600043905090565b600033905090565b600044905090565b610177816101ec565b82525050565b610186816101fe565b82525050565b6101958161024a565b82525050565b60006020820190506101b0600083018461016e565b92915050565b60006020820190506101cb600083018461017d565b92915050565b60006020820190506101e6600083018461018c565b92915050565b60006101f78261022a565b9050919050565b60007fffffffff0000000000000000000000000000000000000000000000000000000082169050919050565b600073ffffffffffffffffffffffffffffffffffffffff82169050919050565b600081905091905056fea2646970667358221220991acedb55c0c5de6ad07ae22e286e03d6fdbd8bac54df579299a6ce2ab8745864736f6c634300060c0033",
					"opcodes": "PUSH1 0x80 PUSH1 0x40 MSTORE CALLVALUE DUP1 ISZERO PUSH2 0x10 JUMPI PUSH1 0x0 DUP1 REVERT JUMPDEST POP PUSH2 0x28A DUP1 PUSH2 0x20 PUSH1 0x0 CODECOPY PUSH1 0x0 RETURN INVALID PUSH1 0x80 PUSH1 0x40 MSTORE CALLVALUE DUP1 ISZERO PUSH2 0x10 JUMPI PUSH1 0x0 DUP1 REVERT JUMPDEST POP PUSH1 0x4 CALLDATASIZE LT PUSH2 0x62 JUMPI PUSH1 0x0 CALLDATALOAD PUSH1 0xE0 SHR DUP1 PUSH4 0x83F3EC4 EQ PUSH2 0x67 JUMPI DUP1 PUSH4 0xA649267 EQ PUSH2 0x85 JUMPI DUP1 PUSH4 0x44D4FD19 EQ PUSH2 0xA3 JUMPI DUP1 PUSH4 0x64868510 EQ PUSH2 0xC1 JUMPI DUP1 PUSH4 0x84D63E12 EQ PUSH2 0xDF JUMPI DUP1 PUSH4 0xE6C595C0 EQ PUSH2 0xFD JUMPI JUMPDEST PUSH1 0x0 DUP1 REVERT JUMPDEST PUSH2 0x6F PUSH2 0x11B JUMP JUMPDEST PUSH1 0x40 MLOAD PUSH2 0x7C SWAP2 SWAP1 PUSH2 0x1B6 JUMP JUMPDEST PUSH1 0x40 MLOAD DUP1 SWAP2 SUB SWAP1 RETURN JUMPDEST PUSH2 0x8D PUSH2 0x146 JUMP JUMPDEST PUSH1 0x40 MLOAD PUSH2 0x9A SWAP2 SWAP1 PUSH2 0x19B JUMP JUMPDEST PUSH1 0x40 MLOAD DUP1 SWAP2 SUB SWAP1 RETURN JUMPDEST PUSH2 0xAB PUSH2 0x14E JUMP JUMPDEST PUSH1 0x40 MLOAD PUSH2 0xB8 SWAP2 SWAP1 PUSH2 0x1D1 JUMP JUMPDEST PUSH1 0x40 MLOAD DUP1 SWAP2 SUB SWAP1 RETURN JUMPDEST PUSH2 0xC9 PUSH2 0x156 JUMP JUMPDEST PUSH1 0x40 MLOAD PUSH2 0xD6 SWAP2 SWAP1 PUSH2 0x1D1 JUMP JUMPDEST PUSH1 0x40 MLOAD DUP1 SWAP2 SUB SWAP1 RETURN JUMPDEST PUSH2 0xE7 PUSH2 0x15E JUMP JUMPDEST PUSH1 0x40 MLOAD PUSH2 0xF4 SWAP2 SWAP1 PUSH2 0x19B JUMP JUMPDEST PUSH1 0x40 MLOAD DUP1 SWAP2 SUB SWAP1 RETURN JUMPDEST PUSH2 0x105 PUSH2 0x166 JUMP JUMPDEST PUSH1 0x40 MLOAD PUSH2 0x112 SWAP2 SWAP1 PUSH2 0x1D1 JUMP JUMPDEST PUSH1 0x40 MLOAD DUP1 SWAP2 SUB SWAP1 RETURN JUMPDEST PUSH1 0x0 DUP1 CALLDATALOAD PUSH32 0xFFFFFFFF00000000000000000000000000000000000000000000000000000000 AND SWAP1 POP SWAP1 JUMP JUMPDEST PUSH1 0x0 COINBASE SWAP1 POP SWAP1 JUMP JUMPDEST PUSH1 0x0 TIMESTAMP SWAP1 POP SWAP1 JUMP JUMPDEST PUSH1 0x0 NUMBER SWAP1 POP SWAP1 JUMP JUMPDEST PUSH1 0x0 CALLER SWAP1 POP SWAP1 JUMP JUMPDEST PUSH1 0x0 DIFFICULTY SWAP1 POP SWAP1 JUMP JUMPDEST PUSH2 0x177 DUP2 PUSH2 0x1EC JUMP JUMPDEST DUP3 MSTORE POP POP JUMP JUMPDEST PUSH2 0x186 DUP2 PUSH2 0x1FE JUMP JUMPDEST DUP3 MSTORE POP POP JUMP JUMPDEST PUSH2 0x195 DUP2 PUSH2 0x24A JUMP JUMPDEST DUP3 MSTORE POP POP JUMP JUMPDEST PUSH1 0x0 PUSH1 0x20 DUP3 ADD SWAP1 POP PUSH2 0x1B0 PUSH1 0x0 DUP4 ADD DUP5 PUSH2 0x16E JUMP JUMPDEST SWAP3 SWAP2 POP POP JUMP JUMPDEST PUSH1 0x0 PUSH1 0x20 DUP3 ADD SWAP1 POP PUSH2 0x1CB PUSH1 0x0 DUP4 ADD DUP5 PUSH2 0x17D JUMP JUMPDEST SWAP3 SWAP2 POP POP JUMP JUMPDEST PUSH1 0x0 PUSH1 0x20 DUP3 ADD SWAP1 POP PUSH2 0x1E6 PUSH1 0x0 DUP4 ADD DUP5 PUSH2 0x18C JUMP JUMPDEST SWAP3 SWAP2 POP POP JUMP JUMPDEST PUSH1 0x0 PUSH2 0x1F7 DUP3 PUSH2 0x22A JUMP JUMPDEST SWAP1 POP SWAP2 SWAP1 POP JUMP JUMPDEST PUSH1 0x0 PUSH32 0xFFFFFFFF00000000000000000000000000000000000000000000000000000000 DUP3 AND SWAP1 POP SWAP2 SWAP1 POP JUMP JUMPDEST PUSH1 0x0 PUSH20 0xFFFFFFFFFFFFFFFFFFFFFFFFFFFFFFFFFFFFFFFF DUP3 AND SWAP1 POP SWAP2 SWAP1 POP JUMP JUMPDEST PUSH1 0x0 DUP2 SWAP1 POP SWAP2 SWAP1 POP JUMP INVALID LOG2 PUSH5 0x6970667358 0x22 SLT KECCAK256 SWAP10 BYTE 0xCE 0xDB SSTORE 0xC0 0xC5 0xDE PUSH11 0xD07AE22E286E03D6FDBD8B 0xAC SLOAD 0xDF JUMPI SWAP3 SWAP10 0xA6 0xCE 0x2A 0xB8 PUSH21 0x5864736F6C634300060C0033000000000000000000 "
				},
				"gasEstimates": {
					"creation": {
						"codeDepositCost": "130000",
						"executionCost": "177",
						"totalCost": "130177"
					},
					"external": {
						"BlockCoinbase()": "385",
						"BlockDifficulty()": "424",
						"BlockNumber()": "380",
						"MsgSender()": "451",
						"MsgSig()": "330",
						"Now()": "358"
					}
				},
				"methodIdentifiers": {
					"BlockCoinbase()": "0a649267",
					"BlockDifficulty()": "e6c595c0",
					"BlockNumber()": "64868510",
					"MsgSender()": "84d63e12",
					"MsgSig()": "083f3ec4",
					"Now()": "44d4fd19"
				}
			},
			"storageLayout": {
				"storage": [],
				"types": null
			},
			"userdoc": {
				"kind": "user",
				"methods": {},
				"version": 1
			}
		}
	}
}