{
	"Sistema de evaluacion/notas.sol": {
		"notas": {
			"abi": [
				{
					"inputs": [],
					"stateMutability": "nonpayable",
					"type": "constructor"
				},
				{
					"anonymous": false,
					"inputs": [
						{
							"indexed": false,
							"internalType": "bytes32",
							"name": "",
							"type": "bytes32"
						}
					],
					"name": "alumno_evaluado",
					"type": "event"
				},
				{
					"anonymous": false,
					"inputs": [
						{
							"indexed": false,
							"internalType": "string",
							"name": "",
							"type": "string"
						}
					],
					"name": "evento_revision",
					"type": "event"
				},
				{
					"inputs": [
						{
							"internalType": "string",
							"name": "_id",
							"type": "string"
						}
					],
					"name": "getNotas",
					"outputs": [
						{
							"internalType": "uint256",
							"name": "",
							"type": "uint256"
						}
					],
					"stateMutability": "view",
					"type": "function"
				},
				{
					"inputs": [],
					"name": "getRevisiones",
					"outputs": [
						{
							"internalType": "string[]",
							"name": "",
							"type": "string[]"
						}
					],
					"stateMutability": "view",
					"type": "function"
				},
				{
					"inputs": [],
					"name": "profesor",
					"outputs": [
						{
							"internalType": "address",
							"name": "",
							"type": "address"
						}
					],
					"stateMutability": "view",
					"type": "function"
				},
				{
					"inputs": [
						{
							"internalType": "string",
							"name": "_id",
							"type": "string"
						}
					],
					"name": "revision",
					"outputs": [],
					"stateMutability": "nonpayable",
					"type": "function"
				},
				{
					"inputs": [
						{
							"internalType": "string",
							"name": "_id",
							"type": "string"
						},
						{
							"internalType": "uint256",
							"name": "_nota",
							"type": "uint256"
						}
					],
					"name": "setNotas",
					"outputs": [],
					"stateMutability": "nonpayable",
					"type": "function"
				}
			],
			"devdoc": {
				"kind": "dev",
				"methods": {},
				"version": 1
			},
			"evm": {
				"assembly": "    /* \"Sistema de evaluacion/notas.sol\":95:1150  contract notas{\r... */\n  mstore(0x40, 0x80)\n    /* \"Sistema de evaluacion/notas.sol\":150:212  constructor () public {\r... */\n  callvalue\n  dup1\n  iszero\n  tag_1\n  jumpi\n  0x00\n  dup1\n  revert\ntag_1:\n  pop\n    /* \"Sistema de evaluacion/notas.sol\":194:204  msg.sender */\n  caller\n    /* \"Sistema de evaluacion/notas.sol\":183:191  profesor */\n  0x00\n  dup1\n    /* \"Sistema de evaluacion/notas.sol\":183:204  profesor = msg.sender */\n  0x0100\n  exp\n  dup2\n  sload\n  dup2\n  0xffffffffffffffffffffffffffffffffffffffff\n  mul\n  not\n  and\n  swap1\n  dup4\n  0xffffffffffffffffffffffffffffffffffffffff\n  and\n  mul\n  or\n  swap1\n  sstore\n  pop\n    /* \"Sistema de evaluacion/notas.sol\":95:1150  contract notas{\r... */\n  dataSize(sub_0)\n  dup1\n  dataOffset(sub_0)\n  0x00\n  codecopy\n  0x00\n  return\nstop\n\nsub_0: assembly {\n        /* \"Sistema de evaluacion/notas.sol\":95:1150  contract notas{\r... */\n      mstore(0x40, 0x80)\n      callvalue\n      dup1\n      iszero\n      tag_1\n      jumpi\n      0x00\n      dup1\n      revert\n    tag_1:\n      pop\n      jumpi(tag_2, lt(calldatasize, 0x04))\n      shr(0xe0, calldataload(0x00))\n      dup1\n      0x439509e5\n      eq\n      tag_3\n      jumpi\n      dup1\n      0x67509ac0\n      eq\n      tag_4\n      jumpi\n      dup1\n      0xca981d91\n      eq\n      tag_5\n      jumpi\n      dup1\n      0xcea7dae7\n      eq\n      tag_6\n      jumpi\n      dup1\n      0xdf096576\n      eq\n      tag_7\n      jumpi\n    tag_2:\n      0x00\n      dup1\n      revert\n        /* \"Sistema de evaluacion/notas.sol\":364:594  function setNotas(string memory _id, uint _nota) public StatusProfesor(msg.sender){\r... */\n    tag_3:\n      tag_8\n      0x04\n      dup1\n      calldatasize\n      sub\n      dup2\n      add\n      swap1\n      tag_9\n      swap2\n      swap1\n      tag_10\n      jump\t// in\n    tag_9:\n      tag_11\n      jump\t// in\n    tag_8:\n      stop\n        /* \"Sistema de evaluacion/notas.sol\":745:880  function getNotas(string memory _id) public view returns (uint) {\r... */\n    tag_4:\n      tag_12\n      0x04\n      dup1\n      calldatasize\n      sub\n      dup2\n      add\n      swap1\n      tag_13\n      swap2\n      swap1\n      tag_14\n      jump\t// in\n    tag_13:\n      tag_15\n      jump\t// in\n    tag_12:\n      mload(0x40)\n      tag_16\n      swap2\n      swap1\n      tag_17\n      jump\t// in\n    tag_16:\n      mload(0x40)\n      dup1\n      swap2\n      sub\n      swap1\n      return\n        /* \"Sistema de evaluacion/notas.sol\":888:1009  function revision(string memory _id) public {\r... */\n    tag_5:\n      tag_18\n      0x04\n      dup1\n      calldatasize\n      sub\n      dup2\n      add\n      swap1\n      tag_19\n      swap2\n      swap1\n      tag_14\n      jump\t// in\n    tag_19:\n      tag_20\n      jump\t// in\n    tag_18:\n      stop\n        /* \"Sistema de evaluacion/notas.sol\":1017:1143  function getRevisiones() public view StatusProfesor(msg.sender) returns (string [] memory){\r... */\n    tag_6:\n      tag_21\n      tag_22\n      jump\t// in\n    tag_21:\n      mload(0x40)\n      tag_23\n      swap2\n      swap1\n      tag_24\n      jump\t// in\n    tag_23:\n      mload(0x40)\n      dup1\n      swap2\n      sub\n      swap1\n      return\n        /* \"Sistema de evaluacion/notas.sol\":118:141  address public profesor */\n    tag_7:\n      tag_25\n      tag_26\n      jump\t// in\n    tag_25:\n      mload(0x40)\n      tag_27\n      swap2\n      swap1\n      tag_28\n      jump\t// in\n    tag_27:\n      mload(0x40)\n      dup1\n      swap2\n      sub\n      swap1\n      return\n        /* \"Sistema de evaluacion/notas.sol\":364:594  function setNotas(string memory _id, uint _nota) public StatusProfesor(msg.sender){\r... */\n    tag_11:\n        /* \"Sistema de evaluacion/notas.sol\":435:445  msg.sender */\n      caller\n        /* \"Sistema de evaluacion/notas.sol\":674:682  profesor */\n      0x00\n      dup1\n      sload\n      swap1\n      0x0100\n      exp\n      swap1\n      div\n      0xffffffffffffffffffffffffffffffffffffffff\n      and\n        /* \"Sistema de evaluacion/notas.sol\":662:682  _address == profesor */\n      0xffffffffffffffffffffffffffffffffffffffff\n      and\n        /* \"Sistema de evaluacion/notas.sol\":662:670  _address */\n      dup2\n        /* \"Sistema de evaluacion/notas.sol\":662:682  _address == profesor */\n      0xffffffffffffffffffffffffffffffffffffffff\n      and\n      eq\n        /* \"Sistema de evaluacion/notas.sol\":654:717  require(_address == profesor, \"No tienes permisos de Profesor\") */\n      tag_30\n      jumpi\n      mload(0x40)\n      0x08c379a000000000000000000000000000000000000000000000000000000000\n      dup2\n      mstore\n      0x04\n      add\n      tag_31\n      swap1\n      tag_32\n      jump\t// in\n    tag_31:\n      mload(0x40)\n      dup1\n      swap2\n      sub\n      swap1\n      revert\n    tag_30:\n        /* \"Sistema de evaluacion/notas.sol\":459:474  bytes32 hash_id */\n      0x00\n        /* \"Sistema de evaluacion/notas.sol\":504:507  _id */\n      dup4\n        /* \"Sistema de evaluacion/notas.sol\":487:508  abi.encodePacked(_id) */\n      add(0x20, mload(0x40))\n      tag_34\n      swap2\n      swap1\n      tag_35\n      jump\t// in\n    tag_34:\n      mload(0x40)\n      0x20\n      dup2\n      dup4\n      sub\n      sub\n      dup2\n      mstore\n      swap1\n      0x40\n      mstore\n        /* \"Sistema de evaluacion/notas.sol\":477:509  keccak256(abi.encodePacked(_id)) */\n      dup1\n      mload\n      swap1\n      0x20\n      add\n      keccak256\n        /* \"Sistema de evaluacion/notas.sol\":459:509  bytes32 hash_id = keccak256(abi.encodePacked(_id)) */\n      swap1\n      pop\n        /* \"Sistema de evaluacion/notas.sol\":537:542  _nota */\n      dup3\n        /* \"Sistema de evaluacion/notas.sol\":520:525  Notas */\n      0x01\n        /* \"Sistema de evaluacion/notas.sol\":520:534  Notas[hash_id] */\n      0x00\n        /* \"Sistema de evaluacion/notas.sol\":526:533  hash_id */\n      dup4\n        /* \"Sistema de evaluacion/notas.sol\":520:534  Notas[hash_id] */\n      dup2\n      mstore\n      0x20\n      add\n      swap1\n      dup2\n      mstore\n      0x20\n      add\n      0x00\n      keccak256\n        /* \"Sistema de evaluacion/notas.sol\":520:542  Notas[hash_id] = _nota */\n      dup2\n      swap1\n      sstore\n      pop\n        /* \"Sistema de evaluacion/notas.sol\":560:584  alumno_evaluado(hash_id) */\n      0x9129eeeb684507aca017f10030b70e5bf86d129f417fcc5840348a957eb12cee\n        /* \"Sistema de evaluacion/notas.sol\":576:583  hash_id */\n      dup2\n        /* \"Sistema de evaluacion/notas.sol\":560:584  alumno_evaluado(hash_id) */\n      mload(0x40)\n      tag_36\n      swap2\n      swap1\n      tag_37\n      jump\t// in\n    tag_36:\n      mload(0x40)\n      dup1\n      swap2\n      sub\n      swap1\n      log1\n        /* \"Sistema de evaluacion/notas.sol\":728:729  _ */\n      pop\n        /* \"Sistema de evaluacion/notas.sol\":364:594  function setNotas(string memory _id, uint _nota) public StatusProfesor(msg.sender){\r... */\n      pop\n      pop\n      pop\n      jump\t// out\n        /* \"Sistema de evaluacion/notas.sol\":745:880  function getNotas(string memory _id) public view returns (uint) {\r... */\n    tag_15:\n        /* \"Sistema de evaluacion/notas.sol\":803:807  uint */\n      0x00\n        /* \"Sistema de evaluacion/notas.sol\":832:837  Notas */\n      0x01\n        /* \"Sistema de evaluacion/notas.sol\":832:871  Notas[keccak256(abi.encodePacked(_id))] */\n      0x00\n        /* \"Sistema de evaluacion/notas.sol\":865:868  _id */\n      dup4\n        /* \"Sistema de evaluacion/notas.sol\":848:869  abi.encodePacked(_id) */\n      add(0x20, mload(0x40))\n      tag_39\n      swap2\n      swap1\n      tag_35\n      jump\t// in\n    tag_39:\n      mload(0x40)\n      0x20\n      dup2\n      dup4\n      sub\n      sub\n      dup2\n      mstore\n      swap1\n      0x40\n      mstore\n        /* \"Sistema de evaluacion/notas.sol\":838:870  keccak256(abi.encodePacked(_id)) */\n      dup1\n      mload\n      swap1\n      0x20\n      add\n      keccak256\n        /* \"Sistema de evaluacion/notas.sol\":832:871  Notas[keccak256(abi.encodePacked(_id))] */\n      dup2\n      mstore\n      0x20\n      add\n      swap1\n      dup2\n      mstore\n      0x20\n      add\n      0x00\n      keccak256\n      sload\n        /* \"Sistema de evaluacion/notas.sol\":820:872  return uint(Notas[keccak256(abi.encodePacked(_id))]) */\n      swap1\n      pop\n        /* \"Sistema de evaluacion/notas.sol\":745:880  function getNotas(string memory _id) public view returns (uint) {\r... */\n      swap2\n      swap1\n      pop\n      jump\t// out\n        /* \"Sistema de evaluacion/notas.sol\":888:1009  function revision(string memory _id) public {\r... */\n    tag_20:\n        /* \"Sistema de evaluacion/notas.sol\":943:953  revisiones */\n      0x02\n        /* \"Sistema de evaluacion/notas.sol\":959:962  _id */\n      dup2\n        /* \"Sistema de evaluacion/notas.sol\":943:963  revisiones.push(_id) */\n      swap1\n      dup1\n      0x01\n      dup2\n      sload\n      add\n      dup1\n      dup3\n      sstore\n      dup1\n      swap2\n      pop\n      pop\n      0x01\n      swap1\n      sub\n      swap1\n      0x00\n      mstore\n      keccak256(0x00, 0x20)\n      add\n      0x00\n      swap1\n      swap2\n      swap1\n      swap2\n      swap1\n      swap2\n      pop\n      swap1\n      dup1\n      mload\n      swap1\n      0x20\n      add\n      swap1\n      tag_42\n      swap3\n      swap2\n      swap1\n      tag_43\n      jump\t// in\n    tag_42:\n      pop\n        /* \"Sistema de evaluacion/notas.sol\":979:999  evento_revision(_id) */\n      0xafd73f39162aa4c0421f362f3a3d26f44b23c73253256cfc1c68794b0973e0a0\n        /* \"Sistema de evaluacion/notas.sol\":995:998  _id */\n      dup2\n        /* \"Sistema de evaluacion/notas.sol\":979:999  evento_revision(_id) */\n      mload(0x40)\n      tag_44\n      swap2\n      swap1\n      tag_45\n      jump\t// in\n    tag_44:\n      mload(0x40)\n      dup1\n      swap2\n      sub\n      swap1\n      log1\n        /* \"Sistema de evaluacion/notas.sol\":888:1009  function revision(string memory _id) public {\r... */\n      pop\n      jump\t// out\n        /* \"Sistema de evaluacion/notas.sol\":1017:1143  function getRevisiones() public view StatusProfesor(msg.sender) returns (string [] memory){\r... */\n    tag_22:\n        /* \"Sistema de evaluacion/notas.sol\":1090:1106  string [] memory */\n      0x60\n        /* \"Sistema de evaluacion/notas.sol\":1069:1079  msg.sender */\n      caller\n        /* \"Sistema de evaluacion/notas.sol\":674:682  profesor */\n      0x00\n      dup1\n      sload\n      swap1\n      0x0100\n      exp\n      swap1\n      div\n      0xffffffffffffffffffffffffffffffffffffffff\n      and\n        /* \"Sistema de evaluacion/notas.sol\":662:682  _address == profesor */\n      0xffffffffffffffffffffffffffffffffffffffff\n      and\n        /* \"Sistema de evaluacion/notas.sol\":662:670  _address */\n      dup2\n        /* \"Sistema de evaluacion/notas.sol\":662:682  _address == profesor */\n      0xffffffffffffffffffffffffffffffffffffffff\n      and\n      eq\n        /* \"Sistema de evaluacion/notas.sol\":654:717  require(_address == profesor, \"No tienes permisos de Profesor\") */\n      tag_47\n      jumpi\n      mload(0x40)\n      0x08c379a000000000000000000000000000000000000000000000000000000000\n      dup2\n      mstore\n      0x04\n      add\n      tag_48\n      swap1\n      tag_32\n      jump\t// in\n    tag_48:\n      mload(0x40)\n      dup1\n      swap2\n      sub\n      swap1\n      revert\n    tag_47:\n        /* \"Sistema de evaluacion/notas.sol\":1125:1135  revisiones */\n      0x02\n        /* \"Sistema de evaluacion/notas.sol\":1118:1135  return revisiones */\n      dup1\n      sload\n      dup1\n      0x20\n      mul\n      0x20\n      add\n      mload(0x40)\n      swap1\n      dup2\n      add\n      0x40\n      mstore\n      dup1\n      swap3\n      swap2\n      swap1\n      dup2\n      dup2\n      mstore\n      0x20\n      add\n      0x00\n      swap1\n    tag_50:\n      dup3\n      dup3\n      lt\n      iszero\n      tag_51\n      jumpi\n      dup4\n      dup3\n      swap1\n      0x00\n      mstore\n      keccak256(0x00, 0x20)\n      add\n      dup1\n      sload\n      0x01\n      dup2\n      0x01\n      and\n      iszero\n      0x0100\n      mul\n      sub\n      and\n      0x02\n      swap1\n      div\n      dup1\n      0x1f\n      add\n      0x20\n      dup1\n      swap2\n      div\n      mul\n      0x20\n      add\n      mload(0x40)\n      swap1\n      dup2\n      add\n      0x40\n      mstore\n      dup1\n      swap3\n      swap2\n      swap1\n      dup2\n      dup2\n      mstore\n      0x20\n      add\n      dup3\n      dup1\n      sload\n      0x01\n      dup2\n      0x01\n      and\n      iszero\n      0x0100\n      mul\n      sub\n      and\n      0x02\n      swap1\n      div\n      dup1\n      iszero\n      tag_53\n      jumpi\n      dup1\n      0x1f\n      lt\n      tag_54\n      jumpi\n      0x0100\n      dup1\n      dup4\n      sload\n      div\n      mul\n      dup4\n      mstore\n      swap2\n      0x20\n      add\n      swap2\n      jump(tag_53)\n    tag_54:\n      dup3\n      add\n      swap2\n      swap1\n      0x00\n      mstore\n      keccak256(0x00, 0x20)\n      swap1\n    tag_55:\n      dup2\n      sload\n      dup2\n      mstore\n      swap1\n      0x01\n      add\n      swap1\n      0x20\n      add\n      dup1\n      dup4\n      gt\n      tag_55\n      jumpi\n      dup3\n      swap1\n      sub\n      0x1f\n      and\n      dup3\n      add\n      swap2\n    tag_53:\n      pop\n      pop\n      pop\n      pop\n      pop\n      dup2\n      mstore\n      0x20\n      add\n      swap1\n      0x01\n      add\n      swap1\n      jump(tag_50)\n    tag_51:\n      pop\n      pop\n      pop\n      pop\n      swap2\n      pop\n        /* \"Sistema de evaluacion/notas.sol\":1017:1143  function getRevisiones() public view StatusProfesor(msg.sender) returns (string [] memory){\r... */\n      pop\n      swap1\n      jump\t// out\n        /* \"Sistema de evaluacion/notas.sol\":118:141  address public profesor */\n    tag_26:\n      0x00\n      dup1\n      sload\n      swap1\n      0x0100\n      exp\n      swap1\n      div\n      0xffffffffffffffffffffffffffffffffffffffff\n      and\n      dup2\n      jump\t// out\n    tag_43:\n      dup3\n      dup1\n      sload\n      0x01\n      dup2\n      0x01\n      and\n      iszero\n      0x0100\n      mul\n      sub\n      and\n      0x02\n      swap1\n      div\n      swap1\n      0x00\n      mstore\n      keccak256(0x00, 0x20)\n      swap1\n      0x1f\n      add\n      0x20\n      swap1\n      div\n      dup2\n      add\n      swap3\n      dup3\n      0x1f\n      lt\n      tag_57\n      jumpi\n      dup1\n      mload\n      not(0xff)\n      and\n      dup4\n      dup1\n      add\n      or\n      dup6\n      sstore\n      jump(tag_56)\n    tag_57:\n      dup3\n      dup1\n      add\n      0x01\n      add\n      dup6\n      sstore\n      dup3\n      iszero\n      tag_56\n      jumpi\n      swap2\n      dup3\n      add\n    tag_58:\n      dup3\n      dup2\n      gt\n      iszero\n      tag_59\n      jumpi\n      dup3\n      mload\n      dup3\n      sstore\n      swap2\n      0x20\n      add\n      swap2\n      swap1\n      0x01\n      add\n      swap1\n      jump(tag_58)\n    tag_59:\n    tag_56:\n      pop\n      swap1\n      pop\n      tag_60\n      swap2\n      swap1\n      tag_61\n      jump\t// in\n    tag_60:\n      pop\n      swap1\n      jump\t// out\n    tag_61:\n    tag_62:\n      dup1\n      dup3\n      gt\n      iszero\n      tag_63\n      jumpi\n      0x00\n      dup2\n      0x00\n      swap1\n      sstore\n      pop\n      0x01\n      add\n      jump(tag_62)\n    tag_63:\n      pop\n      swap1\n      jump\t// out\n        /* \"--CODEGEN--\":6:448   */\n    tag_65:\n      0x00\n        /* \"--CODEGEN--\":108:111   */\n      dup3\n        /* \"--CODEGEN--\":101:105   */\n      0x1f\n        /* \"--CODEGEN--\":93:99   */\n      dup4\n        /* \"--CODEGEN--\":89:106   */\n      add\n        /* \"--CODEGEN--\":85:112   */\n      slt\n        /* \"--CODEGEN--\":75:77   */\n      tag_67\n      jumpi\n        /* \"--CODEGEN--\":126:127   */\n      0x00\n        /* \"--CODEGEN--\":123:124   */\n      dup1\n        /* \"--CODEGEN--\":116:128   */\n      revert\n        /* \"--CODEGEN--\":75:77   */\n    tag_67:\n        /* \"--CODEGEN--\":163:169   */\n      dup2\n        /* \"--CODEGEN--\":150:170   */\n      calldataload\n        /* \"--CODEGEN--\":185:250   */\n      tag_68\n        /* \"--CODEGEN--\":200:249   */\n      tag_69\n        /* \"--CODEGEN--\":242:248   */\n      dup3\n        /* \"--CODEGEN--\":200:249   */\n      tag_70\n      jump\t// in\n    tag_69:\n        /* \"--CODEGEN--\":185:250   */\n      tag_71\n      jump\t// in\n    tag_68:\n        /* \"--CODEGEN--\":176:250   */\n      swap2\n      pop\n        /* \"--CODEGEN--\":270:276   */\n      dup1\n        /* \"--CODEGEN--\":263:268   */\n      dup3\n        /* \"--CODEGEN--\":256:277   */\n      mstore\n        /* \"--CODEGEN--\":306:310   */\n      0x20\n        /* \"--CODEGEN--\":298:304   */\n      dup4\n        /* \"--CODEGEN--\":294:311   */\n      add\n        /* \"--CODEGEN--\":339:343   */\n      0x20\n        /* \"--CODEGEN--\":332:337   */\n      dup4\n        /* \"--CODEGEN--\":328:344   */\n      add\n        /* \"--CODEGEN--\":374:377   */\n      dup6\n        /* \"--CODEGEN--\":365:371   */\n      dup4\n        /* \"--CODEGEN--\":360:363   */\n      dup4\n        /* \"--CODEGEN--\":356:372   */\n      add\n        /* \"--CODEGEN--\":353:378   */\n      gt\n        /* \"--CODEGEN--\":350:352   */\n      iszero\n      tag_72\n      jumpi\n        /* \"--CODEGEN--\":391:392   */\n      0x00\n        /* \"--CODEGEN--\":388:389   */\n      dup1\n        /* \"--CODEGEN--\":381:393   */\n      revert\n        /* \"--CODEGEN--\":350:352   */\n    tag_72:\n        /* \"--CODEGEN--\":401:442   */\n      tag_73\n        /* \"--CODEGEN--\":435:441   */\n      dup4\n        /* \"--CODEGEN--\":430:433   */\n      dup3\n        /* \"--CODEGEN--\":425:428   */\n      dup5\n        /* \"--CODEGEN--\":401:442   */\n      tag_74\n      jump\t// in\n    tag_73:\n        /* \"--CODEGEN--\":68:448   */\n      pop\n      pop\n      pop\n      swap3\n      swap2\n      pop\n      pop\n      jump\t// out\n        /* \"--CODEGEN--\":456:586   */\n    tag_75:\n      0x00\n        /* \"--CODEGEN--\":536:542   */\n      dup2\n        /* \"--CODEGEN--\":523:543   */\n      calldataload\n        /* \"--CODEGEN--\":514:543   */\n      swap1\n      pop\n        /* \"--CODEGEN--\":548:581   */\n      tag_77\n        /* \"--CODEGEN--\":575:580   */\n      dup2\n        /* \"--CODEGEN--\":548:581   */\n      tag_78\n      jump\t// in\n    tag_77:\n        /* \"--CODEGEN--\":508:586   */\n      swap3\n      swap2\n      pop\n      pop\n      jump\t// out\n        /* \"--CODEGEN--\":593:940   */\n    tag_14:\n      0x00\n        /* \"--CODEGEN--\":707:709   */\n      0x20\n        /* \"--CODEGEN--\":695:704   */\n      dup3\n        /* \"--CODEGEN--\":686:693   */\n      dup5\n        /* \"--CODEGEN--\":682:705   */\n      sub\n        /* \"--CODEGEN--\":678:710   */\n      slt\n        /* \"--CODEGEN--\":675:677   */\n      iszero\n      tag_80\n      jumpi\n        /* \"--CODEGEN--\":723:724   */\n      0x00\n        /* \"--CODEGEN--\":720:721   */\n      dup1\n        /* \"--CODEGEN--\":713:725   */\n      revert\n        /* \"--CODEGEN--\":675:677   */\n    tag_80:\n        /* \"--CODEGEN--\":786:787   */\n      0x00\n        /* \"--CODEGEN--\":775:784   */\n      dup3\n        /* \"--CODEGEN--\":771:788   */\n      add\n        /* \"--CODEGEN--\":758:789   */\n      calldataload\n        /* \"--CODEGEN--\":809:827   */\n      0xffffffffffffffff\n        /* \"--CODEGEN--\":801:807   */\n      dup2\n        /* \"--CODEGEN--\":798:828   */\n      gt\n        /* \"--CODEGEN--\":795:797   */\n      iszero\n      tag_81\n      jumpi\n        /* \"--CODEGEN--\":841:842   */\n      0x00\n        /* \"--CODEGEN--\":838:839   */\n      dup1\n        /* \"--CODEGEN--\":831:843   */\n      revert\n        /* \"--CODEGEN--\":795:797   */\n    tag_81:\n        /* \"--CODEGEN--\":861:924   */\n      tag_82\n        /* \"--CODEGEN--\":916:923   */\n      dup5\n        /* \"--CODEGEN--\":907:913   */\n      dup3\n        /* \"--CODEGEN--\":896:905   */\n      dup6\n        /* \"--CODEGEN--\":892:914   */\n      add\n        /* \"--CODEGEN--\":861:924   */\n      tag_65\n      jump\t// in\n    tag_82:\n        /* \"--CODEGEN--\":851:924   */\n      swap2\n      pop\n        /* \"--CODEGEN--\":737:930   */\n      pop\n        /* \"--CODEGEN--\":669:940   */\n      swap3\n      swap2\n      pop\n      pop\n      jump\t// out\n        /* \"--CODEGEN--\":947:1419   */\n    tag_10:\n      0x00\n      dup1\n        /* \"--CODEGEN--\":1078:1080   */\n      0x40\n        /* \"--CODEGEN--\":1066:1075   */\n      dup4\n        /* \"--CODEGEN--\":1057:1064   */\n      dup6\n        /* \"--CODEGEN--\":1053:1076   */\n      sub\n        /* \"--CODEGEN--\":1049:1081   */\n      slt\n        /* \"--CODEGEN--\":1046:1048   */\n      iszero\n      tag_84\n      jumpi\n        /* \"--CODEGEN--\":1094:1095   */\n      0x00\n        /* \"--CODEGEN--\":1091:1092   */\n      dup1\n        /* \"--CODEGEN--\":1084:1096   */\n      revert\n        /* \"--CODEGEN--\":1046:1048   */\n    tag_84:\n        /* \"--CODEGEN--\":1157:1158   */\n      0x00\n        /* \"--CODEGEN--\":1146:1155   */\n      dup4\n        /* \"--CODEGEN--\":1142:1159   */\n      add\n        /* \"--CODEGEN--\":1129:1160   */\n      calldataload\n        /* \"--CODEGEN--\":1180:1198   */\n      0xffffffffffffffff\n        /* \"--CODEGEN--\":1172:1178   */\n      dup2\n        /* \"--CODEGEN--\":1169:1199   */\n      gt\n        /* \"--CODEGEN--\":1166:1168   */\n      iszero\n      tag_85\n      jumpi\n        /* \"--CODEGEN--\":1212:1213   */\n      0x00\n        /* \"--CODEGEN--\":1209:1210   */\n      dup1\n        /* \"--CODEGEN--\":1202:1214   */\n      revert\n        /* \"--CODEGEN--\":1166:1168   */\n    tag_85:\n        /* \"--CODEGEN--\":1232:1295   */\n      tag_86\n        /* \"--CODEGEN--\":1287:1294   */\n      dup6\n        /* \"--CODEGEN--\":1278:1284   */\n      dup3\n        /* \"--CODEGEN--\":1267:1276   */\n      dup7\n        /* \"--CODEGEN--\":1263:1285   */\n      add\n        /* \"--CODEGEN--\":1232:1295   */\n      tag_65\n      jump\t// in\n    tag_86:\n        /* \"--CODEGEN--\":1222:1295   */\n      swap3\n      pop\n        /* \"--CODEGEN--\":1108:1301   */\n      pop\n        /* \"--CODEGEN--\":1332:1334   */\n      0x20\n        /* \"--CODEGEN--\":1350:1403   */\n      tag_87\n        /* \"--CODEGEN--\":1395:1402   */\n      dup6\n        /* \"--CODEGEN--\":1386:1392   */\n      dup3\n        /* \"--CODEGEN--\":1375:1384   */\n      dup7\n        /* \"--CODEGEN--\":1371:1393   */\n      add\n        /* \"--CODEGEN--\":1350:1403   */\n      tag_75\n      jump\t// in\n    tag_87:\n        /* \"--CODEGEN--\":1340:1403   */\n      swap2\n      pop\n        /* \"--CODEGEN--\":1311:1409   */\n      pop\n        /* \"--CODEGEN--\":1040:1419   */\n      swap3\n      pop\n      swap3\n      swap1\n      pop\n      jump\t// out\n        /* \"--CODEGEN--\":1427:1620   */\n    tag_88:\n      0x00\n        /* \"--CODEGEN--\":1548:1614   */\n      tag_90\n        /* \"--CODEGEN--\":1610:1613   */\n      dup4\n        /* \"--CODEGEN--\":1602:1608   */\n      dup4\n        /* \"--CODEGEN--\":1548:1614   */\n      tag_91\n      jump\t// in\n    tag_90:\n        /* \"--CODEGEN--\":1534:1614   */\n      swap1\n      pop\n        /* \"--CODEGEN--\":1527:1620   */\n      swap3\n      swap2\n      pop\n      pop\n      jump\t// out\n        /* \"--CODEGEN--\":1628:1741   */\n    tag_92:\n        /* \"--CODEGEN--\":1711:1735   */\n      tag_94\n        /* \"--CODEGEN--\":1729:1734   */\n      dup2\n        /* \"--CODEGEN--\":1711:1735   */\n      tag_95\n      jump\t// in\n    tag_94:\n        /* \"--CODEGEN--\":1706:1709   */\n      dup3\n        /* \"--CODEGEN--\":1699:1736   */\n      mstore\n        /* \"--CODEGEN--\":1693:1741   */\n      pop\n      pop\n      jump\t// out\n        /* \"--CODEGEN--\":1777:2705   */\n    tag_96:\n      0x00\n        /* \"--CODEGEN--\":1942:2006   */\n      tag_98\n        /* \"--CODEGEN--\":2000:2005   */\n      dup3\n        /* \"--CODEGEN--\":1942:2006   */\n      tag_99\n      jump\t// in\n    tag_98:\n        /* \"--CODEGEN--\":2019:2115   */\n      tag_100\n        /* \"--CODEGEN--\":2108:2114   */\n      dup2\n        /* \"--CODEGEN--\":2103:2106   */\n      dup6\n        /* \"--CODEGEN--\":2019:2115   */\n      tag_101\n      jump\t// in\n    tag_100:\n        /* \"--CODEGEN--\":2012:2115   */\n      swap4\n      pop\n        /* \"--CODEGEN--\":2138:2141   */\n      dup4\n        /* \"--CODEGEN--\":2180:2184   */\n      0x20\n        /* \"--CODEGEN--\":2172:2178   */\n      dup3\n        /* \"--CODEGEN--\":2168:2185   */\n      mul\n        /* \"--CODEGEN--\":2163:2166   */\n      dup6\n        /* \"--CODEGEN--\":2159:2186   */\n      add\n        /* \"--CODEGEN--\":2207:2273   */\n      tag_102\n        /* \"--CODEGEN--\":2267:2272   */\n      dup6\n        /* \"--CODEGEN--\":2207:2273   */\n      tag_103\n      jump\t// in\n    tag_102:\n        /* \"--CODEGEN--\":2293:2300   */\n      dup1\n        /* \"--CODEGEN--\":2321:2322   */\n      0x00\n        /* \"--CODEGEN--\":2306:2666   */\n    tag_104:\n        /* \"--CODEGEN--\":2331:2337   */\n      dup6\n        /* \"--CODEGEN--\":2328:2329   */\n      dup2\n        /* \"--CODEGEN--\":2325:2338   */\n      lt\n        /* \"--CODEGEN--\":2306:2666   */\n      iszero\n      tag_106\n      jumpi\n        /* \"--CODEGEN--\":2393:2402   */\n      dup5\n        /* \"--CODEGEN--\":2387:2391   */\n      dup5\n        /* \"--CODEGEN--\":2383:2403   */\n      sub\n        /* \"--CODEGEN--\":2378:2381   */\n      dup10\n        /* \"--CODEGEN--\":2371:2404   */\n      mstore\n        /* \"--CODEGEN--\":2438:2444   */\n      dup2\n        /* \"--CODEGEN--\":2432:2445   */\n      mload\n        /* \"--CODEGEN--\":2460:2544   */\n      tag_107\n        /* \"--CODEGEN--\":2539:2543   */\n      dup6\n        /* \"--CODEGEN--\":2524:2537   */\n      dup3\n        /* \"--CODEGEN--\":2460:2544   */\n      tag_88\n      jump\t// in\n    tag_107:\n        /* \"--CODEGEN--\":2452:2544   */\n      swap5\n      pop\n        /* \"--CODEGEN--\":2561:2631   */\n      tag_108\n        /* \"--CODEGEN--\":2624:2630   */\n      dup4\n        /* \"--CODEGEN--\":2561:2631   */\n      tag_109\n      jump\t// in\n    tag_108:\n        /* \"--CODEGEN--\":2551:2631   */\n      swap3\n      pop\n        /* \"--CODEGEN--\":2654:2658   */\n      0x20\n        /* \"--CODEGEN--\":2649:2652   */\n      dup11\n        /* \"--CODEGEN--\":2645:2659   */\n      add\n        /* \"--CODEGEN--\":2638:2659   */\n      swap10\n      pop\n        /* \"--CODEGEN--\":2363:2666   */\n      pop\n        /* \"--CODEGEN--\":2353:2354   */\n      0x01\n        /* \"--CODEGEN--\":2350:2351   */\n      dup2\n        /* \"--CODEGEN--\":2346:2355   */\n      add\n        /* \"--CODEGEN--\":2341:2355   */\n      swap1\n      pop\n        /* \"--CODEGEN--\":2306:2666   */\n      jump(tag_104)\n    tag_106:\n        /* \"--CODEGEN--\":2310:2324   */\n      pop\n        /* \"--CODEGEN--\":2679:2683   */\n      dup3\n        /* \"--CODEGEN--\":2672:2683   */\n      swap8\n      pop\n        /* \"--CODEGEN--\":2696:2699   */\n      dup8\n        /* \"--CODEGEN--\":2689:2699   */\n      swap6\n      pop\n        /* \"--CODEGEN--\":1921:2705   */\n      pop\n      pop\n      pop\n      pop\n      pop\n      swap3\n      swap2\n      pop\n      pop\n      jump\t// out\n        /* \"--CODEGEN--\":2713:2826   */\n    tag_110:\n        /* \"--CODEGEN--\":2796:2820   */\n      tag_112\n        /* \"--CODEGEN--\":2814:2819   */\n      dup2\n        /* \"--CODEGEN--\":2796:2820   */\n      tag_113\n      jump\t// in\n    tag_112:\n        /* \"--CODEGEN--\":2791:2794   */\n      dup3\n        /* \"--CODEGEN--\":2784:2821   */\n      mstore\n        /* \"--CODEGEN--\":2778:2826   */\n      pop\n      pop\n      jump\t// out\n        /* \"--CODEGEN--\":2833:3160   */\n    tag_91:\n      0x00\n        /* \"--CODEGEN--\":2935:2974   */\n      tag_115\n        /* \"--CODEGEN--\":2968:2973   */\n      dup3\n        /* \"--CODEGEN--\":2935:2974   */\n      tag_116\n      jump\t// in\n    tag_115:\n        /* \"--CODEGEN--\":2986:3047   */\n      tag_117\n        /* \"--CODEGEN--\":3040:3046   */\n      dup2\n        /* \"--CODEGEN--\":3035:3038   */\n      dup6\n        /* \"--CODEGEN--\":2986:3047   */\n      tag_118\n      jump\t// in\n    tag_117:\n        /* \"--CODEGEN--\":2979:3047   */\n      swap4\n      pop\n        /* \"--CODEGEN--\":3052:3104   */\n      tag_119\n        /* \"--CODEGEN--\":3097:3103   */\n      dup2\n        /* \"--CODEGEN--\":3092:3095   */\n      dup6\n        /* \"--CODEGEN--\":3085:3089   */\n      0x20\n        /* \"--CODEGEN--\":3078:3083   */\n      dup7\n        /* \"--CODEGEN--\":3074:3090   */\n      add\n        /* \"--CODEGEN--\":3052:3104   */\n      tag_120\n      jump\t// in\n    tag_119:\n        /* \"--CODEGEN--\":3125:3154   */\n      tag_121\n        /* \"--CODEGEN--\":3147:3153   */\n      dup2\n        /* \"--CODEGEN--\":3125:3154   */\n      tag_122\n      jump\t// in\n    tag_121:\n        /* \"--CODEGEN--\":3120:3123   */\n      dup5\n        /* \"--CODEGEN--\":3116:3155   */\n      add\n        /* \"--CODEGEN--\":3109:3155   */\n      swap2\n      pop\n        /* \"--CODEGEN--\":2915:3160   */\n      pop\n      swap3\n      swap2\n      pop\n      pop\n      jump\t// out\n        /* \"--CODEGEN--\":3167:3514   */\n    tag_123:\n      0x00\n        /* \"--CODEGEN--\":3279:3318   */\n      tag_125\n        /* \"--CODEGEN--\":3312:3317   */\n      dup3\n        /* \"--CODEGEN--\":3279:3318   */\n      tag_116\n      jump\t// in\n    tag_125:\n        /* \"--CODEGEN--\":3330:3401   */\n      tag_126\n        /* \"--CODEGEN--\":3394:3400   */\n      dup2\n        /* \"--CODEGEN--\":3389:3392   */\n      dup6\n        /* \"--CODEGEN--\":3330:3401   */\n      tag_127\n      jump\t// in\n    tag_126:\n        /* \"--CODEGEN--\":3323:3401   */\n      swap4\n      pop\n        /* \"--CODEGEN--\":3406:3458   */\n      tag_128\n        /* \"--CODEGEN--\":3451:3457   */\n      dup2\n        /* \"--CODEGEN--\":3446:3449   */\n      dup6\n        /* \"--CODEGEN--\":3439:3443   */\n      0x20\n        /* \"--CODEGEN--\":3432:3437   */\n      dup7\n        /* \"--CODEGEN--\":3428:3444   */\n      add\n        /* \"--CODEGEN--\":3406:3458   */\n      tag_120\n      jump\t// in\n    tag_128:\n        /* \"--CODEGEN--\":3479:3508   */\n      tag_129\n        /* \"--CODEGEN--\":3501:3507   */\n      dup2\n        /* \"--CODEGEN--\":3479:3508   */\n      tag_122\n      jump\t// in\n    tag_129:\n        /* \"--CODEGEN--\":3474:3477   */\n      dup5\n        /* \"--CODEGEN--\":3470:3509   */\n      add\n        /* \"--CODEGEN--\":3463:3509   */\n      swap2\n      pop\n        /* \"--CODEGEN--\":3259:3514   */\n      pop\n      swap3\n      swap2\n      pop\n      pop\n      jump\t// out\n        /* \"--CODEGEN--\":3521:3881   */\n    tag_130:\n      0x00\n        /* \"--CODEGEN--\":3651:3690   */\n      tag_132\n        /* \"--CODEGEN--\":3684:3689   */\n      dup3\n        /* \"--CODEGEN--\":3651:3690   */\n      tag_116\n      jump\t// in\n    tag_132:\n        /* \"--CODEGEN--\":3702:3791   */\n      tag_133\n        /* \"--CODEGEN--\":3784:3790   */\n      dup2\n        /* \"--CODEGEN--\":3779:3782   */\n      dup6\n        /* \"--CODEGEN--\":3702:3791   */\n      tag_134\n      jump\t// in\n    tag_133:\n        /* \"--CODEGEN--\":3695:3791   */\n      swap4\n      pop\n        /* \"--CODEGEN--\":3796:3848   */\n      tag_135\n        /* \"--CODEGEN--\":3841:3847   */\n      dup2\n        /* \"--CODEGEN--\":3836:3839   */\n      dup6\n        /* \"--CODEGEN--\":3829:3833   */\n      0x20\n        /* \"--CODEGEN--\":3822:3827   */\n      dup7\n        /* \"--CODEGEN--\":3818:3834   */\n      add\n        /* \"--CODEGEN--\":3796:3848   */\n      tag_120\n      jump\t// in\n    tag_135:\n        /* \"--CODEGEN--\":3869:3875   */\n      dup1\n        /* \"--CODEGEN--\":3864:3867   */\n      dup5\n        /* \"--CODEGEN--\":3860:3876   */\n      add\n        /* \"--CODEGEN--\":3853:3876   */\n      swap2\n      pop\n        /* \"--CODEGEN--\":3631:3881   */\n      pop\n      swap3\n      swap2\n      pop\n      pop\n      jump\t// out\n        /* \"--CODEGEN--\":3889:4219   */\n    tag_136:\n      0x00\n        /* \"--CODEGEN--\":4049:4116   */\n      tag_138\n        /* \"--CODEGEN--\":4113:4115   */\n      0x1e\n        /* \"--CODEGEN--\":4108:4111   */\n      dup4\n        /* \"--CODEGEN--\":4049:4116   */\n      tag_127\n      jump\t// in\n    tag_138:\n        /* \"--CODEGEN--\":4042:4116   */\n      swap2\n      pop\n        /* \"--CODEGEN--\":4149:4181   */\n      0x4e6f207469656e6573207065726d69736f732064652050726f6665736f720000\n        /* \"--CODEGEN--\":4145:4146   */\n      0x00\n        /* \"--CODEGEN--\":4140:4143   */\n      dup4\n        /* \"--CODEGEN--\":4136:4147   */\n      add\n        /* \"--CODEGEN--\":4129:4182   */\n      mstore\n        /* \"--CODEGEN--\":4210:4212   */\n      0x20\n        /* \"--CODEGEN--\":4205:4208   */\n      dup3\n        /* \"--CODEGEN--\":4201:4213   */\n      add\n        /* \"--CODEGEN--\":4194:4213   */\n      swap1\n      pop\n        /* \"--CODEGEN--\":4035:4219   */\n      swap2\n      swap1\n      pop\n      jump\t// out\n        /* \"--CODEGEN--\":4227:4340   */\n    tag_139:\n        /* \"--CODEGEN--\":4310:4334   */\n      tag_141\n        /* \"--CODEGEN--\":4328:4333   */\n      dup2\n        /* \"--CODEGEN--\":4310:4334   */\n      tag_142\n      jump\t// in\n    tag_141:\n        /* \"--CODEGEN--\":4305:4308   */\n      dup3\n        /* \"--CODEGEN--\":4298:4335   */\n      mstore\n        /* \"--CODEGEN--\":4292:4340   */\n      pop\n      pop\n      jump\t// out\n        /* \"--CODEGEN--\":4347:4622   */\n    tag_35:\n      0x00\n        /* \"--CODEGEN--\":4502:4597   */\n      tag_144\n        /* \"--CODEGEN--\":4593:4596   */\n      dup3\n        /* \"--CODEGEN--\":4584:4590   */\n      dup5\n        /* \"--CODEGEN--\":4502:4597   */\n      tag_130\n      jump\t// in\n    tag_144:\n        /* \"--CODEGEN--\":4495:4597   */\n      swap2\n      pop\n        /* \"--CODEGEN--\":4614:4617   */\n      dup2\n        /* \"--CODEGEN--\":4607:4617   */\n      swap1\n      pop\n        /* \"--CODEGEN--\":4483:4622   */\n      swap3\n      swap2\n      pop\n      pop\n      jump\t// out\n        /* \"--CODEGEN--\":4629:4851   */\n    tag_28:\n      0x00\n        /* \"--CODEGEN--\":4756:4758   */\n      0x20\n        /* \"--CODEGEN--\":4745:4754   */\n      dup3\n        /* \"--CODEGEN--\":4741:4759   */\n      add\n        /* \"--CODEGEN--\":4733:4759   */\n      swap1\n      pop\n        /* \"--CODEGEN--\":4770:4841   */\n      tag_146\n        /* \"--CODEGEN--\":4838:4839   */\n      0x00\n        /* \"--CODEGEN--\":4827:4836   */\n      dup4\n        /* \"--CODEGEN--\":4823:4840   */\n      add\n        /* \"--CODEGEN--\":4814:4820   */\n      dup5\n        /* \"--CODEGEN--\":4770:4841   */\n      tag_92\n      jump\t// in\n    tag_146:\n        /* \"--CODEGEN--\":4727:4851   */\n      swap3\n      swap2\n      pop\n      pop\n      jump\t// out\n        /* \"--CODEGEN--\":4858:5268   */\n    tag_24:\n      0x00\n        /* \"--CODEGEN--\":5055:5057   */\n      0x20\n        /* \"--CODEGEN--\":5044:5053   */\n      dup3\n        /* \"--CODEGEN--\":5040:5058   */\n      add\n        /* \"--CODEGEN--\":5032:5058   */\n      swap1\n      pop\n        /* \"--CODEGEN--\":5105:5114   */\n      dup2\n        /* \"--CODEGEN--\":5099:5103   */\n      dup2\n        /* \"--CODEGEN--\":5095:5115   */\n      sub\n        /* \"--CODEGEN--\":5091:5092   */\n      0x00\n        /* \"--CODEGEN--\":5080:5089   */\n      dup4\n        /* \"--CODEGEN--\":5076:5093   */\n      add\n        /* \"--CODEGEN--\":5069:5116   */\n      mstore\n        /* \"--CODEGEN--\":5130:5258   */\n      tag_148\n        /* \"--CODEGEN--\":5253:5257   */\n      dup2\n        /* \"--CODEGEN--\":5244:5250   */\n      dup5\n        /* \"--CODEGEN--\":5130:5258   */\n      tag_96\n      jump\t// in\n    tag_148:\n        /* \"--CODEGEN--\":5122:5258   */\n      swap1\n      pop\n        /* \"--CODEGEN--\":5026:5268   */\n      swap3\n      swap2\n      pop\n      pop\n      jump\t// out\n        /* \"--CODEGEN--\":5275:5497   */\n    tag_37:\n      0x00\n        /* \"--CODEGEN--\":5402:5404   */\n      0x20\n        /* \"--CODEGEN--\":5391:5400   */\n      dup3\n        /* \"--CODEGEN--\":5387:5405   */\n      add\n        /* \"--CODEGEN--\":5379:5405   */\n      swap1\n      pop\n        /* \"--CODEGEN--\":5416:5487   */\n      tag_150\n        /* \"--CODEGEN--\":5484:5485   */\n      0x00\n        /* \"--CODEGEN--\":5473:5482   */\n      dup4\n        /* \"--CODEGEN--\":5469:5486   */\n      add\n        /* \"--CODEGEN--\":5460:5466   */\n      dup5\n        /* \"--CODEGEN--\":5416:5487   */\n      tag_110\n      jump\t// in\n    tag_150:\n        /* \"--CODEGEN--\":5373:5497   */\n      swap3\n      swap2\n      pop\n      pop\n      jump\t// out\n        /* \"--CODEGEN--\":5504:5814   */\n    tag_45:\n      0x00\n        /* \"--CODEGEN--\":5651:5653   */\n      0x20\n        /* \"--CODEGEN--\":5640:5649   */\n      dup3\n        /* \"--CODEGEN--\":5636:5654   */\n      add\n        /* \"--CODEGEN--\":5628:5654   */\n      swap1\n      pop\n        /* \"--CODEGEN--\":5701:5710   */\n      dup2\n        /* \"--CODEGEN--\":5695:5699   */\n      dup2\n        /* \"--CODEGEN--\":5691:5711   */\n      sub\n        /* \"--CODEGEN--\":5687:5688   */\n      0x00\n        /* \"--CODEGEN--\":5676:5685   */\n      dup4\n        /* \"--CODEGEN--\":5672:5689   */\n      add\n        /* \"--CODEGEN--\":5665:5712   */\n      mstore\n        /* \"--CODEGEN--\":5726:5804   */\n      tag_152\n        /* \"--CODEGEN--\":5799:5803   */\n      dup2\n        /* \"--CODEGEN--\":5790:5796   */\n      dup5\n        /* \"--CODEGEN--\":5726:5804   */\n      tag_123\n      jump\t// in\n    tag_152:\n        /* \"--CODEGEN--\":5718:5804   */\n      swap1\n      pop\n        /* \"--CODEGEN--\":5622:5814   */\n      swap3\n      swap2\n      pop\n      pop\n      jump\t// out\n        /* \"--CODEGEN--\":5821:6237   */\n    tag_32:\n      0x00\n        /* \"--CODEGEN--\":6021:6023   */\n      0x20\n        /* \"--CODEGEN--\":6010:6019   */\n      dup3\n        /* \"--CODEGEN--\":6006:6024   */\n      add\n        /* \"--CODEGEN--\":5998:6024   */\n      swap1\n      pop\n        /* \"--CODEGEN--\":6071:6080   */\n      dup2\n        /* \"--CODEGEN--\":6065:6069   */\n      dup2\n        /* \"--CODEGEN--\":6061:6081   */\n      sub\n        /* \"--CODEGEN--\":6057:6058   */\n      0x00\n        /* \"--CODEGEN--\":6046:6055   */\n      dup4\n        /* \"--CODEGEN--\":6042:6059   */\n      add\n        /* \"--CODEGEN--\":6035:6082   */\n      mstore\n        /* \"--CODEGEN--\":6096:6227   */\n      tag_154\n        /* \"--CODEGEN--\":6222:6226   */\n      dup2\n        /* \"--CODEGEN--\":6096:6227   */\n      tag_136\n      jump\t// in\n    tag_154:\n        /* \"--CODEGEN--\":6088:6227   */\n      swap1\n      pop\n        /* \"--CODEGEN--\":5992:6237   */\n      swap2\n      swap1\n      pop\n      jump\t// out\n        /* \"--CODEGEN--\":6244:6466   */\n    tag_17:\n      0x00\n        /* \"--CODEGEN--\":6371:6373   */\n      0x20\n        /* \"--CODEGEN--\":6360:6369   */\n      dup3\n        /* \"--CODEGEN--\":6356:6374   */\n      add\n        /* \"--CODEGEN--\":6348:6374   */\n      swap1\n      pop\n        /* \"--CODEGEN--\":6385:6456   */\n      tag_156\n        /* \"--CODEGEN--\":6453:6454   */\n      0x00\n        /* \"--CODEGEN--\":6442:6451   */\n      dup4\n        /* \"--CODEGEN--\":6438:6455   */\n      add\n        /* \"--CODEGEN--\":6429:6435   */\n      dup5\n        /* \"--CODEGEN--\":6385:6456   */\n      tag_139\n      jump\t// in\n    tag_156:\n        /* \"--CODEGEN--\":6342:6466   */\n      swap3\n      swap2\n      pop\n      pop\n      jump\t// out\n        /* \"--CODEGEN--\":6473:6729   */\n    tag_71:\n      0x00\n        /* \"--CODEGEN--\":6535:6537   */\n      0x40\n        /* \"--CODEGEN--\":6529:6538   */\n      mload\n        /* \"--CODEGEN--\":6519:6538   */\n      swap1\n      pop\n        /* \"--CODEGEN--\":6573:6577   */\n      dup2\n        /* \"--CODEGEN--\":6565:6571   */\n      dup2\n        /* \"--CODEGEN--\":6561:6578   */\n      add\n        /* \"--CODEGEN--\":6672:6678   */\n      dup2\n        /* \"--CODEGEN--\":6660:6670   */\n      dup2\n        /* \"--CODEGEN--\":6657:6679   */\n      lt\n        /* \"--CODEGEN--\":6636:6654   */\n      0xffffffffffffffff\n        /* \"--CODEGEN--\":6624:6634   */\n      dup3\n        /* \"--CODEGEN--\":6621:6655   */\n      gt\n        /* \"--CODEGEN--\":6618:6680   */\n      or\n        /* \"--CODEGEN--\":6615:6617   */\n      iszero\n      tag_158\n      jumpi\n        /* \"--CODEGEN--\":6693:6694   */\n      0x00\n        /* \"--CODEGEN--\":6690:6691   */\n      dup1\n        /* \"--CODEGEN--\":6683:6695   */\n      revert\n        /* \"--CODEGEN--\":6615:6617   */\n    tag_158:\n        /* \"--CODEGEN--\":6713:6723   */\n      dup1\n        /* \"--CODEGEN--\":6709:6711   */\n      0x40\n        /* \"--CODEGEN--\":6702:6724   */\n      mstore\n        /* \"--CODEGEN--\":6513:6729   */\n      pop\n      swap2\n      swap1\n      pop\n      jump\t// out\n        /* \"--CODEGEN--\":6736:7058   */\n    tag_70:\n      0x00\n        /* \"--CODEGEN--\":6880:6898   */\n      0xffffffffffffffff\n        /* \"--CODEGEN--\":6872:6878   */\n      dup3\n        /* \"--CODEGEN--\":6869:6899   */\n      gt\n        /* \"--CODEGEN--\":6866:6868   */\n      iszero\n      tag_160\n      jumpi\n        /* \"--CODEGEN--\":6912:6913   */\n      0x00\n        /* \"--CODEGEN--\":6909:6910   */\n      dup1\n        /* \"--CODEGEN--\":6902:6914   */\n      revert\n        /* \"--CODEGEN--\":6866:6868   */\n    tag_160:\n        /* \"--CODEGEN--\":6979:6983   */\n      0x1f\n        /* \"--CODEGEN--\":6975:6984   */\n      not\n        /* \"--CODEGEN--\":6968:6972   */\n      0x1f\n        /* \"--CODEGEN--\":6960:6966   */\n      dup4\n        /* \"--CODEGEN--\":6956:6973   */\n      add\n        /* \"--CODEGEN--\":6952:6985   */\n      and\n        /* \"--CODEGEN--\":6944:6985   */\n      swap1\n      pop\n        /* \"--CODEGEN--\":7043:7047   */\n      0x20\n        /* \"--CODEGEN--\":7037:7041   */\n      dup2\n        /* \"--CODEGEN--\":7033:7048   */\n      add\n        /* \"--CODEGEN--\":7025:7048   */\n      swap1\n      pop\n        /* \"--CODEGEN--\":6803:7058   */\n      swap2\n      swap1\n      pop\n      jump\t// out\n        /* \"--CODEGEN--\":7065:7226   */\n    tag_103:\n      0x00\n        /* \"--CODEGEN--\":7161:7164   */\n      dup2\n        /* \"--CODEGEN--\":7153:7164   */\n      swap1\n      pop\n        /* \"--CODEGEN--\":7199:7203   */\n      0x20\n        /* \"--CODEGEN--\":7194:7197   */\n      dup3\n        /* \"--CODEGEN--\":7190:7204   */\n      add\n        /* \"--CODEGEN--\":7182:7204   */\n      swap1\n      pop\n        /* \"--CODEGEN--\":7147:7226   */\n      swap2\n      swap1\n      pop\n      jump\t// out\n        /* \"--CODEGEN--\":7233:7380   */\n    tag_99:\n      0x00\n        /* \"--CODEGEN--\":7352:7357   */\n      dup2\n        /* \"--CODEGEN--\":7346:7358   */\n      mload\n        /* \"--CODEGEN--\":7336:7358   */\n      swap1\n      pop\n        /* \"--CODEGEN--\":7317:7380   */\n      swap2\n      swap1\n      pop\n      jump\t// out\n        /* \"--CODEGEN--\":7387:7509   */\n    tag_116:\n      0x00\n        /* \"--CODEGEN--\":7481:7486   */\n      dup2\n        /* \"--CODEGEN--\":7475:7487   */\n      mload\n        /* \"--CODEGEN--\":7465:7487   */\n      swap1\n      pop\n        /* \"--CODEGEN--\":7446:7509   */\n      swap2\n      swap1\n      pop\n      jump\t// out\n        /* \"--CODEGEN--\":7516:7634   */\n    tag_109:\n      0x00\n        /* \"--CODEGEN--\":7624:7628   */\n      0x20\n        /* \"--CODEGEN--\":7619:7622   */\n      dup3\n        /* \"--CODEGEN--\":7615:7629   */\n      add\n        /* \"--CODEGEN--\":7607:7629   */\n      swap1\n      pop\n        /* \"--CODEGEN--\":7601:7634   */\n      swap2\n      swap1\n      pop\n      jump\t// out\n        /* \"--CODEGEN--\":7642:7830   */\n    tag_101:\n      0x00\n        /* \"--CODEGEN--\":7782:7788   */\n      dup3\n        /* \"--CODEGEN--\":7777:7780   */\n      dup3\n        /* \"--CODEGEN--\":7770:7789   */\n      mstore\n        /* \"--CODEGEN--\":7819:7823   */\n      0x20\n        /* \"--CODEGEN--\":7814:7817   */\n      dup3\n        /* \"--CODEGEN--\":7810:7824   */\n      add\n        /* \"--CODEGEN--\":7795:7824   */\n      swap1\n      pop\n        /* \"--CODEGEN--\":7763:7830   */\n      swap3\n      swap2\n      pop\n      pop\n      jump\t// out\n        /* \"--CODEGEN--\":7839:7992   */\n    tag_118:\n      0x00\n        /* \"--CODEGEN--\":7944:7950   */\n      dup3\n        /* \"--CODEGEN--\":7939:7942   */\n      dup3\n        /* \"--CODEGEN--\":7932:7951   */\n      mstore\n        /* \"--CODEGEN--\":7981:7985   */\n      0x20\n        /* \"--CODEGEN--\":7976:7979   */\n      dup3\n        /* \"--CODEGEN--\":7972:7986   */\n      add\n        /* \"--CODEGEN--\":7957:7986   */\n      swap1\n      pop\n        /* \"--CODEGEN--\":7925:7992   */\n      swap3\n      swap2\n      pop\n      pop\n      jump\t// out\n        /* \"--CODEGEN--\":8001:8164   */\n    tag_127:\n      0x00\n        /* \"--CODEGEN--\":8116:8122   */\n      dup3\n        /* \"--CODEGEN--\":8111:8114   */\n      dup3\n        /* \"--CODEGEN--\":8104:8123   */\n      mstore\n        /* \"--CODEGEN--\":8153:8157   */\n      0x20\n        /* \"--CODEGEN--\":8148:8151   */\n      dup3\n        /* \"--CODEGEN--\":8144:8158   */\n      add\n        /* \"--CODEGEN--\":8129:8158   */\n      swap1\n      pop\n        /* \"--CODEGEN--\":8097:8164   */\n      swap3\n      swap2\n      pop\n      pop\n      jump\t// out\n        /* \"--CODEGEN--\":8173:8318   */\n    tag_134:\n      0x00\n        /* \"--CODEGEN--\":8309:8312   */\n      dup2\n        /* \"--CODEGEN--\":8294:8312   */\n      swap1\n      pop\n        /* \"--CODEGEN--\":8287:8318   */\n      swap3\n      swap2\n      pop\n      pop\n      jump\t// out\n        /* \"--CODEGEN--\":8326:8417   */\n    tag_95:\n      0x00\n        /* \"--CODEGEN--\":8388:8412   */\n      tag_170\n        /* \"--CODEGEN--\":8406:8411   */\n      dup3\n        /* \"--CODEGEN--\":8388:8412   */\n      tag_171\n      jump\t// in\n    tag_170:\n        /* \"--CODEGEN--\":8377:8412   */\n      swap1\n      pop\n        /* \"--CODEGEN--\":8371:8417   */\n      swap2\n      swap1\n      pop\n      jump\t// out\n        /* \"--CODEGEN--\":8424:8496   */\n    tag_113:\n      0x00\n        /* \"--CODEGEN--\":8486:8491   */\n      dup2\n        /* \"--CODEGEN--\":8475:8491   */\n      swap1\n      pop\n        /* \"--CODEGEN--\":8469:8496   */\n      swap2\n      swap1\n      pop\n      jump\t// out\n        /* \"--CODEGEN--\":8503:8624   */\n    tag_171:\n      0x00\n        /* \"--CODEGEN--\":8576:8618   */\n      0xffffffffffffffffffffffffffffffffffffffff\n        /* \"--CODEGEN--\":8569:8574   */\n      dup3\n        /* \"--CODEGEN--\":8565:8619   */\n      and\n        /* \"--CODEGEN--\":8554:8619   */\n      swap1\n      pop\n        /* \"--CODEGEN--\":8548:8624   */\n      swap2\n      swap1\n      pop\n      jump\t// out\n        /* \"--CODEGEN--\":8631:8703   */\n    tag_142:\n      0x00\n        /* \"--CODEGEN--\":8693:8698   */\n      dup2\n        /* \"--CODEGEN--\":8682:8698   */\n      swap1\n      pop\n        /* \"--CODEGEN--\":8676:8703   */\n      swap2\n      swap1\n      pop\n      jump\t// out\n        /* \"--CODEGEN--\":8711:8856   */\n    tag_74:\n        /* \"--CODEGEN--\":8792:8798   */\n      dup3\n        /* \"--CODEGEN--\":8787:8790   */\n      dup2\n        /* \"--CODEGEN--\":8782:8785   */\n      dup4\n        /* \"--CODEGEN--\":8769:8799   */\n      calldatacopy\n        /* \"--CODEGEN--\":8848:8849   */\n      0x00\n        /* \"--CODEGEN--\":8839:8845   */\n      dup4\n        /* \"--CODEGEN--\":8834:8837   */\n      dup4\n        /* \"--CODEGEN--\":8830:8846   */\n      add\n        /* \"--CODEGEN--\":8823:8850   */\n      mstore\n        /* \"--CODEGEN--\":8762:8856   */\n      pop\n      pop\n      pop\n      jump\t// out\n        /* \"--CODEGEN--\":8865:9133   */\n    tag_120:\n        /* \"--CODEGEN--\":8930:8931   */\n      0x00\n        /* \"--CODEGEN--\":8937:9038   */\n    tag_177:\n        /* \"--CODEGEN--\":8951:8957   */\n      dup4\n        /* \"--CODEGEN--\":8948:8949   */\n      dup2\n        /* \"--CODEGEN--\":8945:8958   */\n      lt\n        /* \"--CODEGEN--\":8937:9038   */\n      iszero\n      tag_179\n      jumpi\n        /* \"--CODEGEN--\":9027:9028   */\n      dup1\n        /* \"--CODEGEN--\":9022:9025   */\n      dup3\n        /* \"--CODEGEN--\":9018:9029   */\n      add\n        /* \"--CODEGEN--\":9012:9030   */\n      mload\n        /* \"--CODEGEN--\":9008:9009   */\n      dup2\n        /* \"--CODEGEN--\":9003:9006   */\n      dup5\n        /* \"--CODEGEN--\":8999:9010   */\n      add\n        /* \"--CODEGEN--\":8992:9031   */\n      mstore\n        /* \"--CODEGEN--\":8973:8975   */\n      0x20\n        /* \"--CODEGEN--\":8970:8971   */\n      dup2\n        /* \"--CODEGEN--\":8966:8976   */\n      add\n        /* \"--CODEGEN--\":8961:8976   */\n      swap1\n      pop\n        /* \"--CODEGEN--\":8937:9038   */\n      jump(tag_177)\n    tag_179:\n        /* \"--CODEGEN--\":9053:9059   */\n      dup4\n        /* \"--CODEGEN--\":9050:9051   */\n      dup2\n        /* \"--CODEGEN--\":9047:9060   */\n      gt\n        /* \"--CODEGEN--\":9044:9046   */\n      iszero\n      tag_180\n      jumpi\n        /* \"--CODEGEN--\":9118:9119   */\n      0x00\n        /* \"--CODEGEN--\":9109:9115   */\n      dup5\n        /* \"--CODEGEN--\":9104:9107   */\n      dup5\n        /* \"--CODEGEN--\":9100:9116   */\n      add\n        /* \"--CODEGEN--\":9093:9120   */\n      mstore\n        /* \"--CODEGEN--\":9044:9046   */\n    tag_180:\n        /* \"--CODEGEN--\":8914:9133   */\n      pop\n      pop\n      pop\n      pop\n      jump\t// out\n        /* \"--CODEGEN--\":9141:9238   */\n    tag_122:\n      0x00\n        /* \"--CODEGEN--\":9229:9231   */\n      0x1f\n        /* \"--CODEGEN--\":9225:9232   */\n      not\n        /* \"--CODEGEN--\":9220:9222   */\n      0x1f\n        /* \"--CODEGEN--\":9213:9218   */\n      dup4\n        /* \"--CODEGEN--\":9209:9223   */\n      add\n        /* \"--CODEGEN--\":9205:9233   */\n      and\n        /* \"--CODEGEN--\":9195:9233   */\n      swap1\n      pop\n        /* \"--CODEGEN--\":9189:9238   */\n      swap2\n      swap1\n      pop\n      jump\t// out\n        /* \"--CODEGEN--\":9246:9363   */\n    tag_78:\n        /* \"--CODEGEN--\":9315:9339   */\n      tag_183\n        /* \"--CODEGEN--\":9333:9338   */\n      dup2\n        /* \"--CODEGEN--\":9315:9339   */\n      tag_142\n      jump\t// in\n    tag_183:\n        /* \"--CODEGEN--\":9308:9313   */\n      dup2\n        /* \"--CODEGEN--\":9305:9340   */\n      eq\n        /* \"--CODEGEN--\":9295:9297   */\n      tag_184\n      jumpi\n        /* \"--CODEGEN--\":9354:9355   */\n      0x00\n        /* \"--CODEGEN--\":9351:9352   */\n      dup1\n        /* \"--CODEGEN--\":9344:9356   */\n      revert\n        /* \"--CODEGEN--\":9295:9297   */\n    tag_184:\n        /* \"--CODEGEN--\":9289:9363   */\n      pop\n      jump\t// out\n\n    auxdata: 0xa26469706673582212203ea48f2702a1545ac80e04f2ec5d36f6cf1a4e0459de789421a38fe6f5e2312264736f6c634300060c0033\n}\n",
				"bytecode": {
					"linkReferences": {},
					"object": "608060405234801561001057600080fd5b50336000806101000a81548173ffffffffffffffffffffffffffffffffffffffff021916908373ffffffffffffffffffffffffffffffffffffffff160217905550610a15806100606000396000f3fe608060405234801561001057600080fd5b50600436106100575760003560e01c8063439509e51461005c57806367509ac014610078578063ca981d91146100a8578063cea7dae7146100c4578063df096576146100e2575b600080fd5b610076600480360381019061007191906105ac565b610100565b005b610092600480360381019061008d919061056b565b61020f565b60405161009f919061084a565b60405180910390f35b6100c260048036038101906100bd919061056b565b610252565b005b6100cc6102c8565b6040516100d991906107cb565b60405180910390f35b6100ea610441565b6040516100f791906107b0565b60405180910390f35b3360008054906101000a900473ffffffffffffffffffffffffffffffffffffffff1673ffffffffffffffffffffffffffffffffffffffff168173ffffffffffffffffffffffffffffffffffffffff161461018f576040517f08c379a00000000000000000000000000000000000000000000000000000000081526004016101869061082a565b60405180910390fd5b6000836040516020016101a29190610799565b6040516020818303038152906040528051906020012090508260016000838152602001908152602001600020819055507f9129eeeb684507aca017f10030b70e5bf86d129f417fcc5840348a957eb12cee8160405161020191906107ed565b60405180910390a150505050565b600060016000836040516020016102269190610799565b604051602081830303815290604052805190602001208152602001908152602001600020549050919050565b60028190806001815401808255809150506001900390600052602060002001600090919091909150908051906020019061028d929190610465565b507fafd73f39162aa4c0421f362f3a3d26f44b23c73253256cfc1c68794b0973e0a0816040516102bd9190610808565b60405180910390a150565b60603360008054906101000a900473ffffffffffffffffffffffffffffffffffffffff1673ffffffffffffffffffffffffffffffffffffffff168173ffffffffffffffffffffffffffffffffffffffff1614610359576040517f08c379a00000000000000000000000000000000000000000000000000000000081526004016103509061082a565b60405180910390fd5b6002805480602002602001604051908101604052809291908181526020016000905b82821015610437578382906000526020600020018054600181600116156101000203166002900480601f0160208091040260200160405190810160405280929190818152602001828054600181600116156101000203166002900480156104235780601f106103f857610100808354040283529160200191610423565b820191906000526020600020905b81548152906001019060200180831161040657829003601f168201915b50505050508152602001906001019061037b565b5050505091505090565b60008054906101000a900473ffffffffffffffffffffffffffffffffffffffff1681565b828054600181600116156101000203166002900490600052602060002090601f016020900481019282601f106104a657805160ff19168380011785556104d4565b828001600101855582156104d4579182015b828111156104d35782518255916020019190600101906104b8565b5b5090506104e191906104e5565b5090565b5b808211156104fe5760008160009055506001016104e6565b5090565b600082601f83011261051357600080fd5b813561052661052182610892565b610865565b9150808252602083016020830185838301111561054257600080fd5b61054d838284610975565b50505092915050565b600081359050610565816109c8565b92915050565b60006020828403121561057d57600080fd5b600082013567ffffffffffffffff81111561059757600080fd5b6105a384828501610502565b91505092915050565b600080604083850312156105bf57600080fd5b600083013567ffffffffffffffff8111156105d957600080fd5b6105e585828601610502565b92505060206105f685828601610556565b9150509250929050565b600061060c83836106a7565b905092915050565b61061d8161092f565b82525050565b600061062e826108ce565b61063881856108f1565b93508360208202850161064a856108be565b8060005b8581101561068657848403895281516106678582610600565b9450610672836108e4565b925060208a0199505060018101905061064e565b50829750879550505050505092915050565b6106a181610941565b82525050565b60006106b2826108d9565b6106bc8185610902565b93506106cc818560208601610984565b6106d5816109b7565b840191505092915050565b60006106eb826108d9565b6106f58185610913565b9350610705818560208601610984565b61070e816109b7565b840191505092915050565b6000610724826108d9565b61072e8185610924565b935061073e818560208601610984565b80840191505092915050565b6000610757601e83610913565b91507f4e6f207469656e6573207065726d69736f732064652050726f6665736f7200006000830152602082019050919050565b6107938161096b565b82525050565b60006107a58284610719565b915081905092915050565b60006020820190506107c56000830184610614565b92915050565b600060208201905081810360008301526107e58184610623565b905092915050565b60006020820190506108026000830184610698565b92915050565b6000602082019050818103600083015261082281846106e0565b905092915050565b600060208201905081810360008301526108438161074a565b9050919050565b600060208201905061085f600083018461078a565b92915050565b6000604051905081810181811067ffffffffffffffff8211171561088857600080fd5b8060405250919050565b600067ffffffffffffffff8211156108a957600080fd5b601f19601f8301169050602081019050919050565b6000819050602082019050919050565b600081519050919050565b600081519050919050565b6000602082019050919050565b600082825260208201905092915050565b600082825260208201905092915050565b600082825260208201905092915050565b600081905092915050565b600061093a8261094b565b9050919050565b6000819050919050565b600073ffffffffffffffffffffffffffffffffffffffff82169050919050565b6000819050919050565b82818337600083830152505050565b60005b838110156109a2578082015181840152602081019050610987565b838111156109b1576000848401525b50505050565b6000601f19601f8301169050919050565b6109d18161096b565b81146109dc57600080fd5b5056fea26469706673582212203ea48f2702a1545ac80e04f2ec5d36f6cf1a4e0459de789421a38fe6f5e2312264736f6c634300060c0033",
					"opcodes": "PUSH1 0x80 PUSH1 0x40 MSTORE CALLVALUE DUP1 ISZERO PUSH2 0x10 JUMPI PUSH1 0x0 DUP1 REVERT JUMPDEST POP CALLER PUSH1 0x0 DUP1 PUSH2 0x100 EXP DUP2 SLOAD DUP2 PUSH20 0xFFFFFFFFFFFFFFFFFFFFFFFFFFFFFFFFFFFFFFFF MUL NOT AND SWAP1 DUP4 PUSH20 0xFFFFFFFFFFFFFFFFFFFFFFFFFFFFFFFFFFFFFFFF AND MUL OR SWAP1 SSTORE POP PUSH2 0xA15 DUP1 PUSH2 0x60 PUSH1 0x0 CODECOPY PUSH1 0x0 RETURN INVALID PUSH1 0x80 PUSH1 0x40 MSTORE CALLVALUE DUP1 ISZERO PUSH2 0x10 JUMPI PUSH1 0x0 DUP1 REVERT JUMPDEST POP PUSH1 0x4 CALLDATASIZE LT PUSH2 0x57 JUMPI PUSH1 0x0 CALLDATALOAD PUSH1 0xE0 SHR DUP1 PUSH4 0x439509E5 EQ PUSH2 0x5C JUMPI DUP1 PUSH4 0x67509AC0 EQ PUSH2 0x78 JUMPI DUP1 PUSH4 0xCA981D91 EQ PUSH2 0xA8 JUMPI DUP1 PUSH4 0xCEA7DAE7 EQ PUSH2 0xC4 JUMPI DUP1 PUSH4 0xDF096576 EQ PUSH2 0xE2 JUMPI JUMPDEST PUSH1 0x0 DUP1 REVERT JUMPDEST PUSH2 0x76 PUSH1 0x4 DUP1 CALLDATASIZE SUB DUP2 ADD SWAP1 PUSH2 0x71 SWAP2 SWAP1 PUSH2 0x5AC JUMP JUMPDEST PUSH2 0x100 JUMP JUMPDEST STOP JUMPDEST PUSH2 0x92 PUSH1 0x4 DUP1 CALLDATASIZE SUB DUP2 ADD SWAP1 PUSH2 0x8D SWAP2 SWAP1 PUSH2 0x56B JUMP JUMPDEST PUSH2 0x20F JUMP JUMPDEST PUSH1 0x40 MLOAD PUSH2 0x9F SWAP2 SWAP1 PUSH2 0x84A JUMP JUMPDEST PUSH1 0x40 MLOAD DUP1 SWAP2 SUB SWAP1 RETURN JUMPDEST PUSH2 0xC2 PUSH1 0x4 DUP1 CALLDATASIZE SUB DUP2 ADD SWAP1 PUSH2 0xBD SWAP2 SWAP1 PUSH2 0x56B JUMP JUMPDEST PUSH2 0x252 JUMP JUMPDEST STOP JUMPDEST PUSH2 0xCC PUSH2 0x2C8 JUMP JUMPDEST PUSH1 0x40 MLOAD PUSH2 0xD9 SWAP2 SWAP1 PUSH2 0x7CB JUMP JUMPDEST PUSH1 0x40 MLOAD DUP1 SWAP2 SUB SWAP1 RETURN JUMPDEST PUSH2 0xEA PUSH2 0x441 JUMP JUMPDEST PUSH1 0x40 MLOAD PUSH2 0xF7 SWAP2 SWAP1 PUSH2 0x7B0 JUMP JUMPDEST PUSH1 0x40 MLOAD DUP1 SWAP2 SUB SWAP1 RETURN JUMPDEST CALLER PUSH1 0x0 DUP1 SLOAD SWAP1 PUSH2 0x100 EXP SWAP1 DIV PUSH20 0xFFFFFFFFFFFFFFFFFFFFFFFFFFFFFFFFFFFFFFFF AND PUSH20 0xFFFFFFFFFFFFFFFFFFFFFFFFFFFFFFFFFFFFFFFF AND DUP2 PUSH20 0xFFFFFFFFFFFFFFFFFFFFFFFFFFFFFFFFFFFFFFFF AND EQ PUSH2 0x18F JUMPI PUSH1 0x40 MLOAD PUSH32 0x8C379A000000000000000000000000000000000000000000000000000000000 DUP2 MSTORE PUSH1 0x4 ADD PUSH2 0x186 SWAP1 PUSH2 0x82A JUMP JUMPDEST PUSH1 0x40 MLOAD DUP1 SWAP2 SUB SWAP1 REVERT JUMPDEST PUSH1 0x0 DUP4 PUSH1 0x40 MLOAD PUSH1 0x20 ADD PUSH2 0x1A2 SWAP2 SWAP1 PUSH2 0x799 JUMP JUMPDEST PUSH1 0x40 MLOAD PUSH1 0x20 DUP2 DUP4 SUB SUB DUP2 MSTORE SWAP1 PUSH1 0x40 MSTORE DUP1 MLOAD SWAP1 PUSH1 0x20 ADD KECCAK256 SWAP1 POP DUP3 PUSH1 0x1 PUSH1 0x0 DUP4 DUP2 MSTORE PUSH1 0x20 ADD SWAP1 DUP2 MSTORE PUSH1 0x20 ADD PUSH1 0x0 KECCAK256 DUP2 SWAP1 SSTORE POP PUSH32 0x9129EEEB684507ACA017F10030B70E5BF86D129F417FCC5840348A957EB12CEE DUP2 PUSH1 0x40 MLOAD PUSH2 0x201 SWAP2 SWAP1 PUSH2 0x7ED JUMP JUMPDEST PUSH1 0x40 MLOAD DUP1 SWAP2 SUB SWAP1 LOG1 POP POP POP POP JUMP JUMPDEST PUSH1 0x0 PUSH1 0x1 PUSH1 0x0 DUP4 PUSH1 0x40 MLOAD PUSH1 0x20 ADD PUSH2 0x226 SWAP2 SWAP1 PUSH2 0x799 JUMP JUMPDEST PUSH1 0x40 MLOAD PUSH1 0x20 DUP2 DUP4 SUB SUB DUP2 MSTORE SWAP1 PUSH1 0x40 MSTORE DUP1 MLOAD SWAP1 PUSH1 0x20 ADD KECCAK256 DUP2 MSTORE PUSH1 0x20 ADD SWAP1 DUP2 MSTORE PUSH1 0x20 ADD PUSH1 0x0 KECCAK256 SLOAD SWAP1 POP SWAP2 SWAP1 POP JUMP JUMPDEST PUSH1 0x2 DUP2 SWAP1 DUP1 PUSH1 0x1 DUP2 SLOAD ADD DUP1 DUP3 SSTORE DUP1 SWAP2 POP POP PUSH1 0x1 SWAP1 SUB SWAP1 PUSH1 0x0 MSTORE PUSH1 0x20 PUSH1 0x0 KECCAK256 ADD PUSH1 0x0 SWAP1 SWAP2 SWAP1 SWAP2 SWAP1 SWAP2 POP SWAP1 DUP1 MLOAD SWAP1 PUSH1 0x20 ADD SWAP1 PUSH2 0x28D SWAP3 SWAP2 SWAP1 PUSH2 0x465 JUMP JUMPDEST POP PUSH32 0xAFD73F39162AA4C0421F362F3A3D26F44B23C73253256CFC1C68794B0973E0A0 DUP2 PUSH1 0x40 MLOAD PUSH2 0x2BD SWAP2 SWAP1 PUSH2 0x808 JUMP JUMPDEST PUSH1 0x40 MLOAD DUP1 SWAP2 SUB SWAP1 LOG1 POP JUMP JUMPDEST PUSH1 0x60 CALLER PUSH1 0x0 DUP1 SLOAD SWAP1 PUSH2 0x100 EXP SWAP1 DIV PUSH20 0xFFFFFFFFFFFFFFFFFFFFFFFFFFFFFFFFFFFFFFFF AND PUSH20 0xFFFFFFFFFFFFFFFFFFFFFFFFFFFFFFFFFFFFFFFF AND DUP2 PUSH20 0xFFFFFFFFFFFFFFFFFFFFFFFFFFFFFFFFFFFFFFFF AND EQ PUSH2 0x359 JUMPI PUSH1 0x40 MLOAD PUSH32 0x8C379A000000000000000000000000000000000000000000000000000000000 DUP2 MSTORE PUSH1 0x4 ADD PUSH2 0x350 SWAP1 PUSH2 0x82A JUMP JUMPDEST PUSH1 0x40 MLOAD DUP1 SWAP2 SUB SWAP1 REVERT JUMPDEST PUSH1 0x2 DUP1 SLOAD DUP1 PUSH1 0x20 MUL PUSH1 0x20 ADD PUSH1 0x40 MLOAD SWAP1 DUP2 ADD PUSH1 0x40 MSTORE DUP1 SWAP3 SWAP2 SWAP1 DUP2 DUP2 MSTORE PUSH1 0x20 ADD PUSH1 0x0 SWAP1 JUMPDEST DUP3 DUP3 LT ISZERO PUSH2 0x437 JUMPI DUP4 DUP3 SWAP1 PUSH1 0x0 MSTORE PUSH1 0x20 PUSH1 0x0 KECCAK256 ADD DUP1 SLOAD PUSH1 0x1 DUP2 PUSH1 0x1 AND ISZERO PUSH2 0x100 MUL SUB AND PUSH1 0x2 SWAP1 DIV DUP1 PUSH1 0x1F ADD PUSH1 0x20 DUP1 SWAP2 DIV MUL PUSH1 0x20 ADD PUSH1 0x40 MLOAD SWAP1 DUP2 ADD PUSH1 0x40 MSTORE DUP1 SWAP3 SWAP2 SWAP1 DUP2 DUP2 MSTORE PUSH1 0x20 ADD DUP3 DUP1 SLOAD PUSH1 0x1 DUP2 PUSH1 0x1 AND ISZERO PUSH2 0x100 MUL SUB AND PUSH1 0x2 SWAP1 DIV DUP1 ISZERO PUSH2 0x423 JUMPI DUP1 PUSH1 0x1F LT PUSH2 0x3F8 JUMPI PUSH2 0x100 DUP1 DUP4 SLOAD DIV MUL DUP4 MSTORE SWAP2 PUSH1 0x20 ADD SWAP2 PUSH2 0x423 JUMP JUMPDEST DUP3 ADD SWAP2 SWAP1 PUSH1 0x0 MSTORE PUSH1 0x20 PUSH1 0x0 KECCAK256 SWAP1 JUMPDEST DUP2 SLOAD DUP2 MSTORE SWAP1 PUSH1 0x1 ADD SWAP1 PUSH1 0x20 ADD DUP1 DUP4 GT PUSH2 0x406 JUMPI DUP3 SWAP1 SUB PUSH1 0x1F AND DUP3 ADD SWAP2 JUMPDEST POP POP POP POP POP DUP2 MSTORE PUSH1 0x20 ADD SWAP1 PUSH1 0x1 ADD SWAP1 PUSH2 0x37B JUMP JUMPDEST POP POP POP POP SWAP2 POP POP SWAP1 JUMP JUMPDEST PUSH1 0x0 DUP1 SLOAD SWAP1 PUSH2 0x100 EXP SWAP1 DIV PUSH20 0xFFFFFFFFFFFFFFFFFFFFFFFFFFFFFFFFFFFFFFFF AND DUP2 JUMP JUMPDEST DUP3 DUP1 SLOAD PUSH1 0x1 DUP2 PUSH1 0x1 AND ISZERO PUSH2 0x100 MUL SUB AND PUSH1 0x2 SWAP1 DIV SWAP1 PUSH1 0x0 MSTORE PUSH1 0x20 PUSH1 0x0 KECCAK256 SWAP1 PUSH1 0x1F ADD PUSH1 0x20 SWAP1 DIV DUP2 ADD SWAP3 DUP3 PUSH1 0x1F LT PUSH2 0x4A6 JUMPI DUP1 MLOAD PUSH1 0xFF NOT AND DUP4 DUP1 ADD OR DUP6 SSTORE PUSH2 0x4D4 JUMP JUMPDEST DUP3 DUP1 ADD PUSH1 0x1 ADD DUP6 SSTORE DUP3 ISZERO PUSH2 0x4D4 JUMPI SWAP2 DUP3 ADD JUMPDEST DUP3 DUP2 GT ISZERO PUSH2 0x4D3 JUMPI DUP3 MLOAD DUP3 SSTORE SWAP2 PUSH1 0x20 ADD SWAP2 SWAP1 PUSH1 0x1 ADD SWAP1 PUSH2 0x4B8 JUMP JUMPDEST JUMPDEST POP SWAP1 POP PUSH2 0x4E1 SWAP2 SWAP1 PUSH2 0x4E5 JUMP JUMPDEST POP SWAP1 JUMP JUMPDEST JUMPDEST DUP1 DUP3 GT ISZERO PUSH2 0x4FE JUMPI PUSH1 0x0 DUP2 PUSH1 0x0 SWAP1 SSTORE POP PUSH1 0x1 ADD PUSH2 0x4E6 JUMP JUMPDEST POP SWAP1 JUMP JUMPDEST PUSH1 0x0 DUP3 PUSH1 0x1F DUP4 ADD SLT PUSH2 0x513 JUMPI PUSH1 0x0 DUP1 REVERT JUMPDEST DUP2 CALLDATALOAD PUSH2 0x526 PUSH2 0x521 DUP3 PUSH2 0x892 JUMP JUMPDEST PUSH2 0x865 JUMP JUMPDEST SWAP2 POP DUP1 DUP3 MSTORE PUSH1 0x20 DUP4 ADD PUSH1 0x20 DUP4 ADD DUP6 DUP4 DUP4 ADD GT ISZERO PUSH2 0x542 JUMPI PUSH1 0x0 DUP1 REVERT JUMPDEST PUSH2 0x54D DUP4 DUP3 DUP5 PUSH2 0x975 JUMP JUMPDEST POP POP POP SWAP3 SWAP2 POP POP JUMP JUMPDEST PUSH1 0x0 DUP2 CALLDATALOAD SWAP1 POP PUSH2 0x565 DUP2 PUSH2 0x9C8 JUMP JUMPDEST SWAP3 SWAP2 POP POP JUMP JUMPDEST PUSH1 0x0 PUSH1 0x20 DUP3 DUP5 SUB SLT ISZERO PUSH2 0x57D JUMPI PUSH1 0x0 DUP1 REVERT JUMPDEST PUSH1 0x0 DUP3 ADD CALLDATALOAD PUSH8 0xFFFFFFFFFFFFFFFF DUP2 GT ISZERO PUSH2 0x597 JUMPI PUSH1 0x0 DUP1 REVERT JUMPDEST PUSH2 0x5A3 DUP5 DUP3 DUP6 ADD PUSH2 0x502 JUMP JUMPDEST SWAP2 POP POP SWAP3 SWAP2 POP POP JUMP JUMPDEST PUSH1 0x0 DUP1 PUSH1 0x40 DUP4 DUP6 SUB SLT ISZERO PUSH2 0x5BF JUMPI PUSH1 0x0 DUP1 REVERT JUMPDEST PUSH1 0x0 DUP4 ADD CALLDATALOAD PUSH8 0xFFFFFFFFFFFFFFFF DUP2 GT ISZERO PUSH2 0x5D9 JUMPI PUSH1 0x0 DUP1 REVERT JUMPDEST PUSH2 0x5E5 DUP6 DUP3 DUP7 ADD PUSH2 0x502 JUMP JUMPDEST SWAP3 POP POP PUSH1 0x20 PUSH2 0x5F6 DUP6 DUP3 DUP7 ADD PUSH2 0x556 JUMP JUMPDEST SWAP2 POP POP SWAP3 POP SWAP3 SWAP1 POP JUMP JUMPDEST PUSH1 0x0 PUSH2 0x60C DUP4 DUP4 PUSH2 0x6A7 JUMP JUMPDEST SWAP1 POP SWAP3 SWAP2 POP POP JUMP JUMPDEST PUSH2 0x61D DUP2 PUSH2 0x92F JUMP JUMPDEST DUP3 MSTORE POP POP JUMP JUMPDEST PUSH1 0x0 PUSH2 0x62E DUP3 PUSH2 0x8CE JUMP JUMPDEST PUSH2 0x638 DUP2 DUP6 PUSH2 0x8F1 JUMP JUMPDEST SWAP4 POP DUP4 PUSH1 0x20 DUP3 MUL DUP6 ADD PUSH2 0x64A DUP6 PUSH2 0x8BE JUMP JUMPDEST DUP1 PUSH1 0x0 JUMPDEST DUP6 DUP2 LT ISZERO PUSH2 0x686 JUMPI DUP5 DUP5 SUB DUP10 MSTORE DUP2 MLOAD PUSH2 0x667 DUP6 DUP3 PUSH2 0x600 JUMP JUMPDEST SWAP5 POP PUSH2 0x672 DUP4 PUSH2 0x8E4 JUMP JUMPDEST SWAP3 POP PUSH1 0x20 DUP11 ADD SWAP10 POP POP PUSH1 0x1 DUP2 ADD SWAP1 POP PUSH2 0x64E JUMP JUMPDEST POP DUP3 SWAP8 POP DUP8 SWAP6 POP POP POP POP POP POP SWAP3 SWAP2 POP POP JUMP JUMPDEST PUSH2 0x6A1 DUP2 PUSH2 0x941 JUMP JUMPDEST DUP3 MSTORE POP POP JUMP JUMPDEST PUSH1 0x0 PUSH2 0x6B2 DUP3 PUSH2 0x8D9 JUMP JUMPDEST PUSH2 0x6BC DUP2 DUP6 PUSH2 0x902 JUMP JUMPDEST SWAP4 POP PUSH2 0x6CC DUP2 DUP6 PUSH1 0x20 DUP7 ADD PUSH2 0x984 JUMP JUMPDEST PUSH2 0x6D5 DUP2 PUSH2 0x9B7 JUMP JUMPDEST DUP5 ADD SWAP2 POP POP SWAP3 SWAP2 POP POP JUMP JUMPDEST PUSH1 0x0 PUSH2 0x6EB DUP3 PUSH2 0x8D9 JUMP JUMPDEST PUSH2 0x6F5 DUP2 DUP6 PUSH2 0x913 JUMP JUMPDEST SWAP4 POP PUSH2 0x705 DUP2 DUP6 PUSH1 0x20 DUP7 ADD PUSH2 0x984 JUMP JUMPDEST PUSH2 0x70E DUP2 PUSH2 0x9B7 JUMP JUMPDEST DUP5 ADD SWAP2 POP POP SWAP3 SWAP2 POP POP JUMP JUMPDEST PUSH1 0x0 PUSH2 0x724 DUP3 PUSH2 0x8D9 JUMP JUMPDEST PUSH2 0x72E DUP2 DUP6 PUSH2 0x924 JUMP JUMPDEST SWAP4 POP PUSH2 0x73E DUP2 DUP6 PUSH1 0x20 DUP7 ADD PUSH2 0x984 JUMP JUMPDEST DUP1 DUP5 ADD SWAP2 POP POP SWAP3 SWAP2 POP POP JUMP JUMPDEST PUSH1 0x0 PUSH2 0x757 PUSH1 0x1E DUP4 PUSH2 0x913 JUMP JUMPDEST SWAP2 POP PUSH32 0x4E6F207469656E6573207065726D69736F732064652050726F6665736F720000 PUSH1 0x0 DUP4 ADD MSTORE PUSH1 0x20 DUP3 ADD SWAP1 POP SWAP2 SWAP1 POP JUMP JUMPDEST PUSH2 0x793 DUP2 PUSH2 0x96B JUMP JUMPDEST DUP3 MSTORE POP POP JUMP JUMPDEST PUSH1 0x0 PUSH2 0x7A5 DUP3 DUP5 PUSH2 0x719 JUMP JUMPDEST SWAP2 POP DUP2 SWAP1 POP SWAP3 SWAP2 POP POP JUMP JUMPDEST PUSH1 0x0 PUSH1 0x20 DUP3 ADD SWAP1 POP PUSH2 0x7C5 PUSH1 0x0 DUP4 ADD DUP5 PUSH2 0x614 JUMP JUMPDEST SWAP3 SWAP2 POP POP JUMP JUMPDEST PUSH1 0x0 PUSH1 0x20 DUP3 ADD SWAP1 POP DUP2 DUP2 SUB PUSH1 0x0 DUP4 ADD MSTORE PUSH2 0x7E5 DUP2 DUP5 PUSH2 0x623 JUMP JUMPDEST SWAP1 POP SWAP3 SWAP2 POP POP JUMP JUMPDEST PUSH1 0x0 PUSH1 0x20 DUP3 ADD SWAP1 POP PUSH2 0x802 PUSH1 0x0 DUP4 ADD DUP5 PUSH2 0x698 JUMP JUMPDEST SWAP3 SWAP2 POP POP JUMP JUMPDEST PUSH1 0x0 PUSH1 0x20 DUP3 ADD SWAP1 POP DUP2 DUP2 SUB PUSH1 0x0 DUP4 ADD MSTORE PUSH2 0x822 DUP2 DUP5 PUSH2 0x6E0 JUMP JUMPDEST SWAP1 POP SWAP3 SWAP2 POP POP JUMP JUMPDEST PUSH1 0x0 PUSH1 0x20 DUP3 ADD SWAP1 POP DUP2 DUP2 SUB PUSH1 0x0 DUP4 ADD MSTORE PUSH2 0x843 DUP2 PUSH2 0x74A JUMP JUMPDEST SWAP1 POP SWAP2 SWAP1 POP JUMP JUMPDEST PUSH1 0x0 PUSH1 0x20 DUP3 ADD SWAP1 POP PUSH2 0x85F PUSH1 0x0 DUP4 ADD DUP5 PUSH2 0x78A JUMP JUMPDEST SWAP3 SWAP2 POP POP JUMP JUMPDEST PUSH1 0x0 PUSH1 0x40 MLOAD SWAP1 POP DUP2 DUP2 ADD DUP2 DUP2 LT PUSH8 0xFFFFFFFFFFFFFFFF DUP3 GT OR ISZERO PUSH2 0x888 JUMPI PUSH1 0x0 DUP1 REVERT JUMPDEST DUP1 PUSH1 0x40 MSTORE POP SWAP2 SWAP1 POP JUMP JUMPDEST PUSH1 0x0 PUSH8 0xFFFFFFFFFFFFFFFF DUP3 GT ISZERO PUSH2 0x8A9 JUMPI PUSH1 0x0 DUP1 REVERT JUMPDEST PUSH1 0x1F NOT PUSH1 0x1F DUP4 ADD AND SWAP1 POP PUSH1 0x20 DUP2 ADD SWAP1 POP SWAP2 SWAP1 POP JUMP JUMPDEST PUSH1 0x0 DUP2 SWAP1 POP PUSH1 0x20 DUP3 ADD SWAP1 POP SWAP2 SWAP1 POP JUMP JUMPDEST PUSH1 0x0 DUP2 MLOAD SWAP1 POP SWAP2 SWAP1 POP JUMP JUMPDEST PUSH1 0x0 DUP2 MLOAD SWAP1 POP SWAP2 SWAP1 POP JUMP JUMPDEST PUSH1 0x0 PUSH1 0x20 DUP3 ADD SWAP1 POP SWAP2 SWAP1 POP JUMP JUMPDEST PUSH1 0x0 DUP3 DUP3 MSTORE PUSH1 0x20 DUP3 ADD SWAP1 POP SWAP3 SWAP2 POP POP JUMP JUMPDEST PUSH1 0x0 DUP3 DUP3 MSTORE PUSH1 0x20 DUP3 ADD SWAP1 POP SWAP3 SWAP2 POP POP JUMP JUMPDEST PUSH1 0x0 DUP3 DUP3 MSTORE PUSH1 0x20 DUP3 ADD SWAP1 POP SWAP3 SWAP2 POP POP JUMP JUMPDEST PUSH1 0x0 DUP2 SWAP1 POP SWAP3 SWAP2 POP POP JUMP JUMPDEST PUSH1 0x0 PUSH2 0x93A DUP3 PUSH2 0x94B JUMP JUMPDEST SWAP1 POP SWAP2 SWAP1 POP JUMP JUMPDEST PUSH1 0x0 DUP2 SWAP1 POP SWAP2 SWAP1 POP JUMP JUMPDEST PUSH1 0x0 PUSH20 0xFFFFFFFFFFFFFFFFFFFFFFFFFFFFFFFFFFFFFFFF DUP3 AND SWAP1 POP SWAP2 SWAP1 POP JUMP JUMPDEST PUSH1 0x0 DUP2 SWAP1 POP SWAP2 SWAP1 POP JUMP JUMPDEST DUP3 DUP2 DUP4 CALLDATACOPY PUSH1 0x0 DUP4 DUP4 ADD MSTORE POP POP POP JUMP JUMPDEST PUSH1 0x0 JUMPDEST DUP4 DUP2 LT ISZERO PUSH2 0x9A2 JUMPI DUP1 DUP3 ADD MLOAD DUP2 DUP5 ADD MSTORE PUSH1 0x20 DUP2 ADD SWAP1 POP PUSH2 0x987 JUMP JUMPDEST DUP4 DUP2 GT ISZERO PUSH2 0x9B1 JUMPI PUSH1 0x0 DUP5 DUP5 ADD MSTORE JUMPDEST POP POP POP POP JUMP JUMPDEST PUSH1 0x0 PUSH1 0x1F NOT PUSH1 0x1F DUP4 ADD AND SWAP1 POP SWAP2 SWAP1 POP JUMP JUMPDEST PUSH2 0x9D1 DUP2 PUSH2 0x96B JUMP JUMPDEST DUP2 EQ PUSH2 0x9DC JUMPI PUSH1 0x0 DUP1 REVERT JUMPDEST POP JUMP INVALID LOG2 PUSH5 0x6970667358 0x22 SLT KECCAK256 RETURNDATACOPY LOG4 DUP16 0x27 MUL LOG1 SLOAD GAS 0xC8 0xE DIV CALLCODE 0xEC 0x5D CALLDATASIZE 0xF6 0xCF BYTE 0x4E DIV MSIZE 0xDE PUSH25 0x9421A38FE6F5E2312264736F6C634300060C00330000000000 "
				},
				"gasEstimates": {
					"creation": {
						"codeDepositCost": "516200",
						"executionCost": "21415",
						"totalCost": "537615"
					},
					"external": {
						"getNotas(string)": "infinite",
						"getRevisiones()": "infinite",
						"profesor()": "1277",
						"revision(string)": "infinite",
						"setNotas(string,uint256)": "infinite"
					}
				},
				"methodIdentifiers": {
					"getNotas(string)": "67509ac0",
					"getRevisiones()": "cea7dae7",
					"profesor()": "df096576",
					"revision(string)": "ca981d91",
					"setNotas(string,uint256)": "439509e5"
				}
			},
			"storageLayout": {
				"storage": [
					{
						"astId": 4,
						"contract": "Sistema de evaluacion/notas.sol:notas",
						"label": "profesor",
						"offset": 0,
						"slot": "0",
						"type": "t_address"
					},
					{
						"astId": 17,
						"contract": "Sistema de evaluacion/notas.sol:notas",
						"label": "Notas",
						"offset": 0,
						"slot": "1",
						"type": "t_mapping(t_bytes32,t_uint256)"
					},
					{
						"astId": 20,
						"contract": "Sistema de evaluacion/notas.sol:notas",
						"label": "revisiones",
						"offset": 0,
						"slot": "2",
						"type": "t_array(t_string_storage)dyn_storage"
					}
				],
				"types": {
					"t_address": {
						"encoding": "inplace",
						"label": "address",
						"numberOfBytes": "20"
					},
					"t_array(t_string_storage)dyn_storage": {
						"base": "t_string_storage",
						"encoding": "dynamic_array",
						"label": "string[]",
						"numberOfBytes": "32"
					},
					"t_bytes32": {
						"encoding": "inplace",
						"label": "bytes32",
						"numberOfBytes": "32"
					},
					"t_mapping(t_bytes32,t_uint256)": {
						"encoding": "mapping",
						"key": "t_bytes32",
						"label": "mapping(bytes32 => uint256)",
						"numberOfBytes": "32",
						"value": "t_uint256"
					},
					"t_string_storage": {
						"encoding": "bytes",
						"label": "string",
						"numberOfBytes": "32"
					},
					"t_uint256": {
						"encoding": "inplace",
						"label": "uint256",
						"numberOfBytes": "32"
					}
				}
			},
			"userdoc": {
				"kind": "user",
				"methods": {},
				"version": 1
			}
		}
	}
}