{
	"Sistema de evaluacion/notas.sol": {
		"notas": {
			"abi": [
				{
					"inputs": [],
					"stateMutability": "nonpayable",
					"type": "constructor"
				},
				{
					"anonymous": false,
					"inputs": [
						{
							"indexed": false,
							"internalType": "bytes32",
							"name": "",
							"type": "bytes32"
						}
					],
					"name": "alumno_evaluado",
					"type": "event"
				},
				{
					"anonymous": false,
					"inputs": [
						{
							"indexed": false,
							"internalType": "string",
							"name": "",
							"type": "string"
						}
					],
					"name": "evento_revision",
					"type": "event"
				},
				{
					"inputs": [
						{
							"internalType": "string",
							"name": "_id",
							"type": "string"
						}
					],
					"name": "getNotas",
					"outputs": [
						{
							"internalType": "uint256",
							"name": "",
							"type": "uint256"
						}
					],
					"stateMutability": "view",
					"type": "function"
				},
				{
					"inputs": [],
					"name": "profesor",
					"outputs": [
						{
							"internalType": "address",
							"name": "",
							"type": "address"
						}
					],
					"stateMutability": "view",
					"type": "function"
				},
				{
					"inputs": [
						{
							"internalType": "string",
							"name": "_id",
							"type": "string"
						},
						{
							"internalType": "uint256",
							"name": "_nota",
							"type": "uint256"
						}
					],
					"name": "setNotas",
					"outputs": [],
					"stateMutability": "nonpayable",
					"type": "function"
				}
			],
			"devdoc": {
				"kind": "dev",
				"methods": {},
				"version": 1
			},
			"evm": {
				"assembly": "    /* \"Sistema de evaluacion/notas.sol\":95:887  contract notas{\r... */\n  mstore(0x40, 0x80)\n    /* \"Sistema de evaluacion/notas.sol\":150:212  constructor () public {\r... */\n  callvalue\n  dup1\n  iszero\n  tag_1\n  jumpi\n  0x00\n  dup1\n  revert\ntag_1:\n  pop\n    /* \"Sistema de evaluacion/notas.sol\":194:204  msg.sender */\n  caller\n    /* \"Sistema de evaluacion/notas.sol\":183:191  profesor */\n  0x00\n  dup1\n    /* \"Sistema de evaluacion/notas.sol\":183:204  profesor = msg.sender */\n  0x0100\n  exp\n  dup2\n  sload\n  dup2\n  0xffffffffffffffffffffffffffffffffffffffff\n  mul\n  not\n  and\n  swap1\n  dup4\n  0xffffffffffffffffffffffffffffffffffffffff\n  and\n  mul\n  or\n  swap1\n  sstore\n  pop\n    /* \"Sistema de evaluacion/notas.sol\":95:887  contract notas{\r... */\n  dataSize(sub_0)\n  dup1\n  dataOffset(sub_0)\n  0x00\n  codecopy\n  0x00\n  return\nstop\n\nsub_0: assembly {\n        /* \"Sistema de evaluacion/notas.sol\":95:887  contract notas{\r... */\n      mstore(0x40, 0x80)\n      callvalue\n      dup1\n      iszero\n      tag_1\n      jumpi\n      0x00\n      dup1\n      revert\n    tag_1:\n      pop\n      jumpi(tag_2, lt(calldatasize, 0x04))\n      shr(0xe0, calldataload(0x00))\n      dup1\n      0x439509e5\n      eq\n      tag_3\n      jumpi\n      dup1\n      0x67509ac0\n      eq\n      tag_4\n      jumpi\n      dup1\n      0xdf096576\n      eq\n      tag_5\n      jumpi\n    tag_2:\n      0x00\n      dup1\n      revert\n        /* \"Sistema de evaluacion/notas.sol\":364:594  function setNotas(string memory _id, uint _nota) public StatusProfesor(msg.sender){\r... */\n    tag_3:\n      tag_6\n      0x04\n      dup1\n      calldatasize\n      sub\n      dup2\n      add\n      swap1\n      tag_7\n      swap2\n      swap1\n      tag_8\n      jump\t// in\n    tag_7:\n      tag_9\n      jump\t// in\n    tag_6:\n      stop\n        /* \"Sistema de evaluacion/notas.sol\":745:880  function getNotas(string memory _id) public view returns (uint) {\r... */\n    tag_4:\n      tag_10\n      0x04\n      dup1\n      calldatasize\n      sub\n      dup2\n      add\n      swap1\n      tag_11\n      swap2\n      swap1\n      tag_12\n      jump\t// in\n    tag_11:\n      tag_13\n      jump\t// in\n    tag_10:\n      mload(0x40)\n      tag_14\n      swap2\n      swap1\n      tag_15\n      jump\t// in\n    tag_14:\n      mload(0x40)\n      dup1\n      swap2\n      sub\n      swap1\n      return\n        /* \"Sistema de evaluacion/notas.sol\":118:141  address public profesor */\n    tag_5:\n      tag_16\n      tag_17\n      jump\t// in\n    tag_16:\n      mload(0x40)\n      tag_18\n      swap2\n      swap1\n      tag_19\n      jump\t// in\n    tag_18:\n      mload(0x40)\n      dup1\n      swap2\n      sub\n      swap1\n      return\n        /* \"Sistema de evaluacion/notas.sol\":364:594  function setNotas(string memory _id, uint _nota) public StatusProfesor(msg.sender){\r... */\n    tag_9:\n        /* \"Sistema de evaluacion/notas.sol\":435:445  msg.sender */\n      caller\n        /* \"Sistema de evaluacion/notas.sol\":674:682  profesor */\n      0x00\n      dup1\n      sload\n      swap1\n      0x0100\n      exp\n      swap1\n      div\n      0xffffffffffffffffffffffffffffffffffffffff\n      and\n        /* \"Sistema de evaluacion/notas.sol\":662:682  _address == profesor */\n      0xffffffffffffffffffffffffffffffffffffffff\n      and\n        /* \"Sistema de evaluacion/notas.sol\":662:670  _address */\n      dup2\n        /* \"Sistema de evaluacion/notas.sol\":662:682  _address == profesor */\n      0xffffffffffffffffffffffffffffffffffffffff\n      and\n      eq\n        /* \"Sistema de evaluacion/notas.sol\":654:717  require(_address == profesor, \"No tienes permisos de Profesor\") */\n      tag_21\n      jumpi\n      mload(0x40)\n      0x08c379a000000000000000000000000000000000000000000000000000000000\n      dup2\n      mstore\n      0x04\n      add\n      tag_22\n      swap1\n      tag_23\n      jump\t// in\n    tag_22:\n      mload(0x40)\n      dup1\n      swap2\n      sub\n      swap1\n      revert\n    tag_21:\n        /* \"Sistema de evaluacion/notas.sol\":459:474  bytes32 hash_id */\n      0x00\n        /* \"Sistema de evaluacion/notas.sol\":504:507  _id */\n      dup4\n        /* \"Sistema de evaluacion/notas.sol\":487:508  abi.encodePacked(_id) */\n      add(0x20, mload(0x40))\n      tag_25\n      swap2\n      swap1\n      tag_26\n      jump\t// in\n    tag_25:\n      mload(0x40)\n      0x20\n      dup2\n      dup4\n      sub\n      sub\n      dup2\n      mstore\n      swap1\n      0x40\n      mstore\n        /* \"Sistema de evaluacion/notas.sol\":477:509  keccak256(abi.encodePacked(_id)) */\n      dup1\n      mload\n      swap1\n      0x20\n      add\n      keccak256\n        /* \"Sistema de evaluacion/notas.sol\":459:509  bytes32 hash_id = keccak256(abi.encodePacked(_id)) */\n      swap1\n      pop\n        /* \"Sistema de evaluacion/notas.sol\":537:542  _nota */\n      dup3\n        /* \"Sistema de evaluacion/notas.sol\":520:525  Notas */\n      0x01\n        /* \"Sistema de evaluacion/notas.sol\":520:534  Notas[hash_id] */\n      0x00\n        /* \"Sistema de evaluacion/notas.sol\":526:533  hash_id */\n      dup4\n        /* \"Sistema de evaluacion/notas.sol\":520:534  Notas[hash_id] */\n      dup2\n      mstore\n      0x20\n      add\n      swap1\n      dup2\n      mstore\n      0x20\n      add\n      0x00\n      keccak256\n        /* \"Sistema de evaluacion/notas.sol\":520:542  Notas[hash_id] = _nota */\n      dup2\n      swap1\n      sstore\n      pop\n        /* \"Sistema de evaluacion/notas.sol\":560:584  alumno_evaluado(hash_id) */\n      0x9129eeeb684507aca017f10030b70e5bf86d129f417fcc5840348a957eb12cee\n        /* \"Sistema de evaluacion/notas.sol\":576:583  hash_id */\n      dup2\n        /* \"Sistema de evaluacion/notas.sol\":560:584  alumno_evaluado(hash_id) */\n      mload(0x40)\n      tag_27\n      swap2\n      swap1\n      tag_28\n      jump\t// in\n    tag_27:\n      mload(0x40)\n      dup1\n      swap2\n      sub\n      swap1\n      log1\n        /* \"Sistema de evaluacion/notas.sol\":728:729  _ */\n      pop\n        /* \"Sistema de evaluacion/notas.sol\":364:594  function setNotas(string memory _id, uint _nota) public StatusProfesor(msg.sender){\r... */\n      pop\n      pop\n      pop\n      jump\t// out\n        /* \"Sistema de evaluacion/notas.sol\":745:880  function getNotas(string memory _id) public view returns (uint) {\r... */\n    tag_13:\n        /* \"Sistema de evaluacion/notas.sol\":803:807  uint */\n      0x00\n        /* \"Sistema de evaluacion/notas.sol\":832:837  Notas */\n      0x01\n        /* \"Sistema de evaluacion/notas.sol\":832:871  Notas[keccak256(abi.encodePacked(_id))] */\n      0x00\n        /* \"Sistema de evaluacion/notas.sol\":865:868  _id */\n      dup4\n        /* \"Sistema de evaluacion/notas.sol\":848:869  abi.encodePacked(_id) */\n      add(0x20, mload(0x40))\n      tag_30\n      swap2\n      swap1\n      tag_26\n      jump\t// in\n    tag_30:\n      mload(0x40)\n      0x20\n      dup2\n      dup4\n      sub\n      sub\n      dup2\n      mstore\n      swap1\n      0x40\n      mstore\n        /* \"Sistema de evaluacion/notas.sol\":838:870  keccak256(abi.encodePacked(_id)) */\n      dup1\n      mload\n      swap1\n      0x20\n      add\n      keccak256\n        /* \"Sistema de evaluacion/notas.sol\":832:871  Notas[keccak256(abi.encodePacked(_id))] */\n      dup2\n      mstore\n      0x20\n      add\n      swap1\n      dup2\n      mstore\n      0x20\n      add\n      0x00\n      keccak256\n      sload\n        /* \"Sistema de evaluacion/notas.sol\":820:872  return uint(Notas[keccak256(abi.encodePacked(_id))]) */\n      swap1\n      pop\n        /* \"Sistema de evaluacion/notas.sol\":745:880  function getNotas(string memory _id) public view returns (uint) {\r... */\n      swap2\n      swap1\n      pop\n      jump\t// out\n        /* \"Sistema de evaluacion/notas.sol\":118:141  address public profesor */\n    tag_17:\n      0x00\n      dup1\n      sload\n      swap1\n      0x0100\n      exp\n      swap1\n      div\n      0xffffffffffffffffffffffffffffffffffffffff\n      and\n      dup2\n      jump\t// out\n        /* \"--CODEGEN--\":6:448   */\n    tag_32:\n      0x00\n        /* \"--CODEGEN--\":108:111   */\n      dup3\n        /* \"--CODEGEN--\":101:105   */\n      0x1f\n        /* \"--CODEGEN--\":93:99   */\n      dup4\n        /* \"--CODEGEN--\":89:106   */\n      add\n        /* \"--CODEGEN--\":85:112   */\n      slt\n        /* \"--CODEGEN--\":75:77   */\n      tag_34\n      jumpi\n        /* \"--CODEGEN--\":126:127   */\n      0x00\n        /* \"--CODEGEN--\":123:124   */\n      dup1\n        /* \"--CODEGEN--\":116:128   */\n      revert\n        /* \"--CODEGEN--\":75:77   */\n    tag_34:\n        /* \"--CODEGEN--\":163:169   */\n      dup2\n        /* \"--CODEGEN--\":150:170   */\n      calldataload\n        /* \"--CODEGEN--\":185:250   */\n      tag_35\n        /* \"--CODEGEN--\":200:249   */\n      tag_36\n        /* \"--CODEGEN--\":242:248   */\n      dup3\n        /* \"--CODEGEN--\":200:249   */\n      tag_37\n      jump\t// in\n    tag_36:\n        /* \"--CODEGEN--\":185:250   */\n      tag_38\n      jump\t// in\n    tag_35:\n        /* \"--CODEGEN--\":176:250   */\n      swap2\n      pop\n        /* \"--CODEGEN--\":270:276   */\n      dup1\n        /* \"--CODEGEN--\":263:268   */\n      dup3\n        /* \"--CODEGEN--\":256:277   */\n      mstore\n        /* \"--CODEGEN--\":306:310   */\n      0x20\n        /* \"--CODEGEN--\":298:304   */\n      dup4\n        /* \"--CODEGEN--\":294:311   */\n      add\n        /* \"--CODEGEN--\":339:343   */\n      0x20\n        /* \"--CODEGEN--\":332:337   */\n      dup4\n        /* \"--CODEGEN--\":328:344   */\n      add\n        /* \"--CODEGEN--\":374:377   */\n      dup6\n        /* \"--CODEGEN--\":365:371   */\n      dup4\n        /* \"--CODEGEN--\":360:363   */\n      dup4\n        /* \"--CODEGEN--\":356:372   */\n      add\n        /* \"--CODEGEN--\":353:378   */\n      gt\n        /* \"--CODEGEN--\":350:352   */\n      iszero\n      tag_39\n      jumpi\n        /* \"--CODEGEN--\":391:392   */\n      0x00\n        /* \"--CODEGEN--\":388:389   */\n      dup1\n        /* \"--CODEGEN--\":381:393   */\n      revert\n        /* \"--CODEGEN--\":350:352   */\n    tag_39:\n        /* \"--CODEGEN--\":401:442   */\n      tag_40\n        /* \"--CODEGEN--\":435:441   */\n      dup4\n        /* \"--CODEGEN--\":430:433   */\n      dup3\n        /* \"--CODEGEN--\":425:428   */\n      dup5\n        /* \"--CODEGEN--\":401:442   */\n      tag_41\n      jump\t// in\n    tag_40:\n        /* \"--CODEGEN--\":68:448   */\n      pop\n      pop\n      pop\n      swap3\n      swap2\n      pop\n      pop\n      jump\t// out\n        /* \"--CODEGEN--\":456:586   */\n    tag_42:\n      0x00\n        /* \"--CODEGEN--\":536:542   */\n      dup2\n        /* \"--CODEGEN--\":523:543   */\n      calldataload\n        /* \"--CODEGEN--\":514:543   */\n      swap1\n      pop\n        /* \"--CODEGEN--\":548:581   */\n      tag_44\n        /* \"--CODEGEN--\":575:580   */\n      dup2\n        /* \"--CODEGEN--\":548:581   */\n      tag_45\n      jump\t// in\n    tag_44:\n        /* \"--CODEGEN--\":508:586   */\n      swap3\n      swap2\n      pop\n      pop\n      jump\t// out\n        /* \"--CODEGEN--\":593:940   */\n    tag_12:\n      0x00\n        /* \"--CODEGEN--\":707:709   */\n      0x20\n        /* \"--CODEGEN--\":695:704   */\n      dup3\n        /* \"--CODEGEN--\":686:693   */\n      dup5\n        /* \"--CODEGEN--\":682:705   */\n      sub\n        /* \"--CODEGEN--\":678:710   */\n      slt\n        /* \"--CODEGEN--\":675:677   */\n      iszero\n      tag_47\n      jumpi\n        /* \"--CODEGEN--\":723:724   */\n      0x00\n        /* \"--CODEGEN--\":720:721   */\n      dup1\n        /* \"--CODEGEN--\":713:725   */\n      revert\n        /* \"--CODEGEN--\":675:677   */\n    tag_47:\n        /* \"--CODEGEN--\":786:787   */\n      0x00\n        /* \"--CODEGEN--\":775:784   */\n      dup3\n        /* \"--CODEGEN--\":771:788   */\n      add\n        /* \"--CODEGEN--\":758:789   */\n      calldataload\n        /* \"--CODEGEN--\":809:827   */\n      0xffffffffffffffff\n        /* \"--CODEGEN--\":801:807   */\n      dup2\n        /* \"--CODEGEN--\":798:828   */\n      gt\n        /* \"--CODEGEN--\":795:797   */\n      iszero\n      tag_48\n      jumpi\n        /* \"--CODEGEN--\":841:842   */\n      0x00\n        /* \"--CODEGEN--\":838:839   */\n      dup1\n        /* \"--CODEGEN--\":831:843   */\n      revert\n        /* \"--CODEGEN--\":795:797   */\n    tag_48:\n        /* \"--CODEGEN--\":861:924   */\n      tag_49\n        /* \"--CODEGEN--\":916:923   */\n      dup5\n        /* \"--CODEGEN--\":907:913   */\n      dup3\n        /* \"--CODEGEN--\":896:905   */\n      dup6\n        /* \"--CODEGEN--\":892:914   */\n      add\n        /* \"--CODEGEN--\":861:924   */\n      tag_32\n      jump\t// in\n    tag_49:\n        /* \"--CODEGEN--\":851:924   */\n      swap2\n      pop\n        /* \"--CODEGEN--\":737:930   */\n      pop\n        /* \"--CODEGEN--\":669:940   */\n      swap3\n      swap2\n      pop\n      pop\n      jump\t// out\n        /* \"--CODEGEN--\":947:1419   */\n    tag_8:\n      0x00\n      dup1\n        /* \"--CODEGEN--\":1078:1080   */\n      0x40\n        /* \"--CODEGEN--\":1066:1075   */\n      dup4\n        /* \"--CODEGEN--\":1057:1064   */\n      dup6\n        /* \"--CODEGEN--\":1053:1076   */\n      sub\n        /* \"--CODEGEN--\":1049:1081   */\n      slt\n        /* \"--CODEGEN--\":1046:1048   */\n      iszero\n      tag_51\n      jumpi\n        /* \"--CODEGEN--\":1094:1095   */\n      0x00\n        /* \"--CODEGEN--\":1091:1092   */\n      dup1\n        /* \"--CODEGEN--\":1084:1096   */\n      revert\n        /* \"--CODEGEN--\":1046:1048   */\n    tag_51:\n        /* \"--CODEGEN--\":1157:1158   */\n      0x00\n        /* \"--CODEGEN--\":1146:1155   */\n      dup4\n        /* \"--CODEGEN--\":1142:1159   */\n      add\n        /* \"--CODEGEN--\":1129:1160   */\n      calldataload\n        /* \"--CODEGEN--\":1180:1198   */\n      0xffffffffffffffff\n        /* \"--CODEGEN--\":1172:1178   */\n      dup2\n        /* \"--CODEGEN--\":1169:1199   */\n      gt\n        /* \"--CODEGEN--\":1166:1168   */\n      iszero\n      tag_52\n      jumpi\n        /* \"--CODEGEN--\":1212:1213   */\n      0x00\n        /* \"--CODEGEN--\":1209:1210   */\n      dup1\n        /* \"--CODEGEN--\":1202:1214   */\n      revert\n        /* \"--CODEGEN--\":1166:1168   */\n    tag_52:\n        /* \"--CODEGEN--\":1232:1295   */\n      tag_53\n        /* \"--CODEGEN--\":1287:1294   */\n      dup6\n        /* \"--CODEGEN--\":1278:1284   */\n      dup3\n        /* \"--CODEGEN--\":1267:1276   */\n      dup7\n        /* \"--CODEGEN--\":1263:1285   */\n      add\n        /* \"--CODEGEN--\":1232:1295   */\n      tag_32\n      jump\t// in\n    tag_53:\n        /* \"--CODEGEN--\":1222:1295   */\n      swap3\n      pop\n        /* \"--CODEGEN--\":1108:1301   */\n      pop\n        /* \"--CODEGEN--\":1332:1334   */\n      0x20\n        /* \"--CODEGEN--\":1350:1403   */\n      tag_54\n        /* \"--CODEGEN--\":1395:1402   */\n      dup6\n        /* \"--CODEGEN--\":1386:1392   */\n      dup3\n        /* \"--CODEGEN--\":1375:1384   */\n      dup7\n        /* \"--CODEGEN--\":1371:1393   */\n      add\n        /* \"--CODEGEN--\":1350:1403   */\n      tag_42\n      jump\t// in\n    tag_54:\n        /* \"--CODEGEN--\":1340:1403   */\n      swap2\n      pop\n        /* \"--CODEGEN--\":1311:1409   */\n      pop\n        /* \"--CODEGEN--\":1040:1419   */\n      swap3\n      pop\n      swap3\n      swap1\n      pop\n      jump\t// out\n        /* \"--CODEGEN--\":1426:1539   */\n    tag_55:\n        /* \"--CODEGEN--\":1509:1533   */\n      tag_57\n        /* \"--CODEGEN--\":1527:1532   */\n      dup2\n        /* \"--CODEGEN--\":1509:1533   */\n      tag_58\n      jump\t// in\n    tag_57:\n        /* \"--CODEGEN--\":1504:1507   */\n      dup3\n        /* \"--CODEGEN--\":1497:1534   */\n      mstore\n        /* \"--CODEGEN--\":1491:1539   */\n      pop\n      pop\n      jump\t// out\n        /* \"--CODEGEN--\":1546:1659   */\n    tag_59:\n        /* \"--CODEGEN--\":1629:1653   */\n      tag_61\n        /* \"--CODEGEN--\":1647:1652   */\n      dup2\n        /* \"--CODEGEN--\":1629:1653   */\n      tag_62\n      jump\t// in\n    tag_61:\n        /* \"--CODEGEN--\":1624:1627   */\n      dup3\n        /* \"--CODEGEN--\":1617:1654   */\n      mstore\n        /* \"--CODEGEN--\":1611:1659   */\n      pop\n      pop\n      jump\t// out\n        /* \"--CODEGEN--\":1666:2026   */\n    tag_63:\n      0x00\n        /* \"--CODEGEN--\":1796:1835   */\n      tag_65\n        /* \"--CODEGEN--\":1829:1834   */\n      dup3\n        /* \"--CODEGEN--\":1796:1835   */\n      tag_66\n      jump\t// in\n    tag_65:\n        /* \"--CODEGEN--\":1847:1936   */\n      tag_67\n        /* \"--CODEGEN--\":1929:1935   */\n      dup2\n        /* \"--CODEGEN--\":1924:1927   */\n      dup6\n        /* \"--CODEGEN--\":1847:1936   */\n      tag_68\n      jump\t// in\n    tag_67:\n        /* \"--CODEGEN--\":1840:1936   */\n      swap4\n      pop\n        /* \"--CODEGEN--\":1941:1993   */\n      tag_69\n        /* \"--CODEGEN--\":1986:1992   */\n      dup2\n        /* \"--CODEGEN--\":1981:1984   */\n      dup6\n        /* \"--CODEGEN--\":1974:1978   */\n      0x20\n        /* \"--CODEGEN--\":1967:1972   */\n      dup7\n        /* \"--CODEGEN--\":1963:1979   */\n      add\n        /* \"--CODEGEN--\":1941:1993   */\n      tag_70\n      jump\t// in\n    tag_69:\n        /* \"--CODEGEN--\":2014:2020   */\n      dup1\n        /* \"--CODEGEN--\":2009:2012   */\n      dup5\n        /* \"--CODEGEN--\":2005:2021   */\n      add\n        /* \"--CODEGEN--\":1998:2021   */\n      swap2\n      pop\n        /* \"--CODEGEN--\":1776:2026   */\n      pop\n      swap3\n      swap2\n      pop\n      pop\n      jump\t// out\n        /* \"--CODEGEN--\":2034:2364   */\n    tag_71:\n      0x00\n        /* \"--CODEGEN--\":2194:2261   */\n      tag_73\n        /* \"--CODEGEN--\":2258:2260   */\n      0x1e\n        /* \"--CODEGEN--\":2253:2256   */\n      dup4\n        /* \"--CODEGEN--\":2194:2261   */\n      tag_74\n      jump\t// in\n    tag_73:\n        /* \"--CODEGEN--\":2187:2261   */\n      swap2\n      pop\n        /* \"--CODEGEN--\":2294:2326   */\n      0x4e6f207469656e6573207065726d69736f732064652050726f6665736f720000\n        /* \"--CODEGEN--\":2290:2291   */\n      0x00\n        /* \"--CODEGEN--\":2285:2288   */\n      dup4\n        /* \"--CODEGEN--\":2281:2292   */\n      add\n        /* \"--CODEGEN--\":2274:2327   */\n      mstore\n        /* \"--CODEGEN--\":2355:2357   */\n      0x20\n        /* \"--CODEGEN--\":2350:2353   */\n      dup3\n        /* \"--CODEGEN--\":2346:2358   */\n      add\n        /* \"--CODEGEN--\":2339:2358   */\n      swap1\n      pop\n        /* \"--CODEGEN--\":2180:2364   */\n      swap2\n      swap1\n      pop\n      jump\t// out\n        /* \"--CODEGEN--\":2372:2485   */\n    tag_75:\n        /* \"--CODEGEN--\":2455:2479   */\n      tag_77\n        /* \"--CODEGEN--\":2473:2478   */\n      dup2\n        /* \"--CODEGEN--\":2455:2479   */\n      tag_78\n      jump\t// in\n    tag_77:\n        /* \"--CODEGEN--\":2450:2453   */\n      dup3\n        /* \"--CODEGEN--\":2443:2480   */\n      mstore\n        /* \"--CODEGEN--\":2437:2485   */\n      pop\n      pop\n      jump\t// out\n        /* \"--CODEGEN--\":2492:2767   */\n    tag_26:\n      0x00\n        /* \"--CODEGEN--\":2647:2742   */\n      tag_80\n        /* \"--CODEGEN--\":2738:2741   */\n      dup3\n        /* \"--CODEGEN--\":2729:2735   */\n      dup5\n        /* \"--CODEGEN--\":2647:2742   */\n      tag_63\n      jump\t// in\n    tag_80:\n        /* \"--CODEGEN--\":2640:2742   */\n      swap2\n      pop\n        /* \"--CODEGEN--\":2759:2762   */\n      dup2\n        /* \"--CODEGEN--\":2752:2762   */\n      swap1\n      pop\n        /* \"--CODEGEN--\":2628:2767   */\n      swap3\n      swap2\n      pop\n      pop\n      jump\t// out\n        /* \"--CODEGEN--\":2774:2996   */\n    tag_19:\n      0x00\n        /* \"--CODEGEN--\":2901:2903   */\n      0x20\n        /* \"--CODEGEN--\":2890:2899   */\n      dup3\n        /* \"--CODEGEN--\":2886:2904   */\n      add\n        /* \"--CODEGEN--\":2878:2904   */\n      swap1\n      pop\n        /* \"--CODEGEN--\":2915:2986   */\n      tag_82\n        /* \"--CODEGEN--\":2983:2984   */\n      0x00\n        /* \"--CODEGEN--\":2972:2981   */\n      dup4\n        /* \"--CODEGEN--\":2968:2985   */\n      add\n        /* \"--CODEGEN--\":2959:2965   */\n      dup5\n        /* \"--CODEGEN--\":2915:2986   */\n      tag_55\n      jump\t// in\n    tag_82:\n        /* \"--CODEGEN--\":2872:2996   */\n      swap3\n      swap2\n      pop\n      pop\n      jump\t// out\n        /* \"--CODEGEN--\":3003:3225   */\n    tag_28:\n      0x00\n        /* \"--CODEGEN--\":3130:3132   */\n      0x20\n        /* \"--CODEGEN--\":3119:3128   */\n      dup3\n        /* \"--CODEGEN--\":3115:3133   */\n      add\n        /* \"--CODEGEN--\":3107:3133   */\n      swap1\n      pop\n        /* \"--CODEGEN--\":3144:3215   */\n      tag_84\n        /* \"--CODEGEN--\":3212:3213   */\n      0x00\n        /* \"--CODEGEN--\":3201:3210   */\n      dup4\n        /* \"--CODEGEN--\":3197:3214   */\n      add\n        /* \"--CODEGEN--\":3188:3194   */\n      dup5\n        /* \"--CODEGEN--\":3144:3215   */\n      tag_59\n      jump\t// in\n    tag_84:\n        /* \"--CODEGEN--\":3101:3225   */\n      swap3\n      swap2\n      pop\n      pop\n      jump\t// out\n        /* \"--CODEGEN--\":3232:3648   */\n    tag_23:\n      0x00\n        /* \"--CODEGEN--\":3432:3434   */\n      0x20\n        /* \"--CODEGEN--\":3421:3430   */\n      dup3\n        /* \"--CODEGEN--\":3417:3435   */\n      add\n        /* \"--CODEGEN--\":3409:3435   */\n      swap1\n      pop\n        /* \"--CODEGEN--\":3482:3491   */\n      dup2\n        /* \"--CODEGEN--\":3476:3480   */\n      dup2\n        /* \"--CODEGEN--\":3472:3492   */\n      sub\n        /* \"--CODEGEN--\":3468:3469   */\n      0x00\n        /* \"--CODEGEN--\":3457:3466   */\n      dup4\n        /* \"--CODEGEN--\":3453:3470   */\n      add\n        /* \"--CODEGEN--\":3446:3493   */\n      mstore\n        /* \"--CODEGEN--\":3507:3638   */\n      tag_86\n        /* \"--CODEGEN--\":3633:3637   */\n      dup2\n        /* \"--CODEGEN--\":3507:3638   */\n      tag_71\n      jump\t// in\n    tag_86:\n        /* \"--CODEGEN--\":3499:3638   */\n      swap1\n      pop\n        /* \"--CODEGEN--\":3403:3648   */\n      swap2\n      swap1\n      pop\n      jump\t// out\n        /* \"--CODEGEN--\":3655:3877   */\n    tag_15:\n      0x00\n        /* \"--CODEGEN--\":3782:3784   */\n      0x20\n        /* \"--CODEGEN--\":3771:3780   */\n      dup3\n        /* \"--CODEGEN--\":3767:3785   */\n      add\n        /* \"--CODEGEN--\":3759:3785   */\n      swap1\n      pop\n        /* \"--CODEGEN--\":3796:3867   */\n      tag_88\n        /* \"--CODEGEN--\":3864:3865   */\n      0x00\n        /* \"--CODEGEN--\":3853:3862   */\n      dup4\n        /* \"--CODEGEN--\":3849:3866   */\n      add\n        /* \"--CODEGEN--\":3840:3846   */\n      dup5\n        /* \"--CODEGEN--\":3796:3867   */\n      tag_75\n      jump\t// in\n    tag_88:\n        /* \"--CODEGEN--\":3753:3877   */\n      swap3\n      swap2\n      pop\n      pop\n      jump\t// out\n        /* \"--CODEGEN--\":3884:4140   */\n    tag_38:\n      0x00\n        /* \"--CODEGEN--\":3946:3948   */\n      0x40\n        /* \"--CODEGEN--\":3940:3949   */\n      mload\n        /* \"--CODEGEN--\":3930:3949   */\n      swap1\n      pop\n        /* \"--CODEGEN--\":3984:3988   */\n      dup2\n        /* \"--CODEGEN--\":3976:3982   */\n      dup2\n        /* \"--CODEGEN--\":3972:3989   */\n      add\n        /* \"--CODEGEN--\":4083:4089   */\n      dup2\n        /* \"--CODEGEN--\":4071:4081   */\n      dup2\n        /* \"--CODEGEN--\":4068:4090   */\n      lt\n        /* \"--CODEGEN--\":4047:4065   */\n      0xffffffffffffffff\n        /* \"--CODEGEN--\":4035:4045   */\n      dup3\n        /* \"--CODEGEN--\":4032:4066   */\n      gt\n        /* \"--CODEGEN--\":4029:4091   */\n      or\n        /* \"--CODEGEN--\":4026:4028   */\n      iszero\n      tag_90\n      jumpi\n        /* \"--CODEGEN--\":4104:4105   */\n      0x00\n        /* \"--CODEGEN--\":4101:4102   */\n      dup1\n        /* \"--CODEGEN--\":4094:4106   */\n      revert\n        /* \"--CODEGEN--\":4026:4028   */\n    tag_90:\n        /* \"--CODEGEN--\":4124:4134   */\n      dup1\n        /* \"--CODEGEN--\":4120:4122   */\n      0x40\n        /* \"--CODEGEN--\":4113:4135   */\n      mstore\n        /* \"--CODEGEN--\":3924:4140   */\n      pop\n      swap2\n      swap1\n      pop\n      jump\t// out\n        /* \"--CODEGEN--\":4147:4469   */\n    tag_37:\n      0x00\n        /* \"--CODEGEN--\":4291:4309   */\n      0xffffffffffffffff\n        /* \"--CODEGEN--\":4283:4289   */\n      dup3\n        /* \"--CODEGEN--\":4280:4310   */\n      gt\n        /* \"--CODEGEN--\":4277:4279   */\n      iszero\n      tag_92\n      jumpi\n        /* \"--CODEGEN--\":4323:4324   */\n      0x00\n        /* \"--CODEGEN--\":4320:4321   */\n      dup1\n        /* \"--CODEGEN--\":4313:4325   */\n      revert\n        /* \"--CODEGEN--\":4277:4279   */\n    tag_92:\n        /* \"--CODEGEN--\":4390:4394   */\n      0x1f\n        /* \"--CODEGEN--\":4386:4395   */\n      not\n        /* \"--CODEGEN--\":4379:4383   */\n      0x1f\n        /* \"--CODEGEN--\":4371:4377   */\n      dup4\n        /* \"--CODEGEN--\":4367:4384   */\n      add\n        /* \"--CODEGEN--\":4363:4396   */\n      and\n        /* \"--CODEGEN--\":4355:4396   */\n      swap1\n      pop\n        /* \"--CODEGEN--\":4454:4458   */\n      0x20\n        /* \"--CODEGEN--\":4448:4452   */\n      dup2\n        /* \"--CODEGEN--\":4444:4459   */\n      add\n        /* \"--CODEGEN--\":4436:4459   */\n      swap1\n      pop\n        /* \"--CODEGEN--\":4214:4469   */\n      swap2\n      swap1\n      pop\n      jump\t// out\n        /* \"--CODEGEN--\":4476:4598   */\n    tag_66:\n      0x00\n        /* \"--CODEGEN--\":4570:4575   */\n      dup2\n        /* \"--CODEGEN--\":4564:4576   */\n      mload\n        /* \"--CODEGEN--\":4554:4576   */\n      swap1\n      pop\n        /* \"--CODEGEN--\":4535:4598   */\n      swap2\n      swap1\n      pop\n      jump\t// out\n        /* \"--CODEGEN--\":4606:4769   */\n    tag_74:\n      0x00\n        /* \"--CODEGEN--\":4721:4727   */\n      dup3\n        /* \"--CODEGEN--\":4716:4719   */\n      dup3\n        /* \"--CODEGEN--\":4709:4728   */\n      mstore\n        /* \"--CODEGEN--\":4758:4762   */\n      0x20\n        /* \"--CODEGEN--\":4753:4756   */\n      dup3\n        /* \"--CODEGEN--\":4749:4763   */\n      add\n        /* \"--CODEGEN--\":4734:4763   */\n      swap1\n      pop\n        /* \"--CODEGEN--\":4702:4769   */\n      swap3\n      swap2\n      pop\n      pop\n      jump\t// out\n        /* \"--CODEGEN--\":4778:4923   */\n    tag_68:\n      0x00\n        /* \"--CODEGEN--\":4914:4917   */\n      dup2\n        /* \"--CODEGEN--\":4899:4917   */\n      swap1\n      pop\n        /* \"--CODEGEN--\":4892:4923   */\n      swap3\n      swap2\n      pop\n      pop\n      jump\t// out\n        /* \"--CODEGEN--\":4931:5022   */\n    tag_58:\n      0x00\n        /* \"--CODEGEN--\":4993:5017   */\n      tag_97\n        /* \"--CODEGEN--\":5011:5016   */\n      dup3\n        /* \"--CODEGEN--\":4993:5017   */\n      tag_98\n      jump\t// in\n    tag_97:\n        /* \"--CODEGEN--\":4982:5017   */\n      swap1\n      pop\n        /* \"--CODEGEN--\":4976:5022   */\n      swap2\n      swap1\n      pop\n      jump\t// out\n        /* \"--CODEGEN--\":5029:5101   */\n    tag_62:\n      0x00\n        /* \"--CODEGEN--\":5091:5096   */\n      dup2\n        /* \"--CODEGEN--\":5080:5096   */\n      swap1\n      pop\n        /* \"--CODEGEN--\":5074:5101   */\n      swap2\n      swap1\n      pop\n      jump\t// out\n        /* \"--CODEGEN--\":5108:5229   */\n    tag_98:\n      0x00\n        /* \"--CODEGEN--\":5181:5223   */\n      0xffffffffffffffffffffffffffffffffffffffff\n        /* \"--CODEGEN--\":5174:5179   */\n      dup3\n        /* \"--CODEGEN--\":5170:5224   */\n      and\n        /* \"--CODEGEN--\":5159:5224   */\n      swap1\n      pop\n        /* \"--CODEGEN--\":5153:5229   */\n      swap2\n      swap1\n      pop\n      jump\t// out\n        /* \"--CODEGEN--\":5236:5308   */\n    tag_78:\n      0x00\n        /* \"--CODEGEN--\":5298:5303   */\n      dup2\n        /* \"--CODEGEN--\":5287:5303   */\n      swap1\n      pop\n        /* \"--CODEGEN--\":5281:5308   */\n      swap2\n      swap1\n      pop\n      jump\t// out\n        /* \"--CODEGEN--\":5316:5461   */\n    tag_41:\n        /* \"--CODEGEN--\":5397:5403   */\n      dup3\n        /* \"--CODEGEN--\":5392:5395   */\n      dup2\n        /* \"--CODEGEN--\":5387:5390   */\n      dup4\n        /* \"--CODEGEN--\":5374:5404   */\n      calldatacopy\n        /* \"--CODEGEN--\":5453:5454   */\n      0x00\n        /* \"--CODEGEN--\":5444:5450   */\n      dup4\n        /* \"--CODEGEN--\":5439:5442   */\n      dup4\n        /* \"--CODEGEN--\":5435:5451   */\n      add\n        /* \"--CODEGEN--\":5428:5455   */\n      mstore\n        /* \"--CODEGEN--\":5367:5461   */\n      pop\n      pop\n      pop\n      jump\t// out\n        /* \"--CODEGEN--\":5470:5738   */\n    tag_70:\n        /* \"--CODEGEN--\":5535:5536   */\n      0x00\n        /* \"--CODEGEN--\":5542:5643   */\n    tag_104:\n        /* \"--CODEGEN--\":5556:5562   */\n      dup4\n        /* \"--CODEGEN--\":5553:5554   */\n      dup2\n        /* \"--CODEGEN--\":5550:5563   */\n      lt\n        /* \"--CODEGEN--\":5542:5643   */\n      iszero\n      tag_106\n      jumpi\n        /* \"--CODEGEN--\":5632:5633   */\n      dup1\n        /* \"--CODEGEN--\":5627:5630   */\n      dup3\n        /* \"--CODEGEN--\":5623:5634   */\n      add\n        /* \"--CODEGEN--\":5617:5635   */\n      mload\n        /* \"--CODEGEN--\":5613:5614   */\n      dup2\n        /* \"--CODEGEN--\":5608:5611   */\n      dup5\n        /* \"--CODEGEN--\":5604:5615   */\n      add\n        /* \"--CODEGEN--\":5597:5636   */\n      mstore\n        /* \"--CODEGEN--\":5578:5580   */\n      0x20\n        /* \"--CODEGEN--\":5575:5576   */\n      dup2\n        /* \"--CODEGEN--\":5571:5581   */\n      add\n        /* \"--CODEGEN--\":5566:5581   */\n      swap1\n      pop\n        /* \"--CODEGEN--\":5542:5643   */\n      jump(tag_104)\n    tag_106:\n        /* \"--CODEGEN--\":5658:5664   */\n      dup4\n        /* \"--CODEGEN--\":5655:5656   */\n      dup2\n        /* \"--CODEGEN--\":5652:5665   */\n      gt\n        /* \"--CODEGEN--\":5649:5651   */\n      iszero\n      tag_107\n      jumpi\n        /* \"--CODEGEN--\":5723:5724   */\n      0x00\n        /* \"--CODEGEN--\":5714:5720   */\n      dup5\n        /* \"--CODEGEN--\":5709:5712   */\n      dup5\n        /* \"--CODEGEN--\":5705:5721   */\n      add\n        /* \"--CODEGEN--\":5698:5725   */\n      mstore\n        /* \"--CODEGEN--\":5649:5651   */\n    tag_107:\n        /* \"--CODEGEN--\":5519:5738   */\n      pop\n      pop\n      pop\n      pop\n      jump\t// out\n        /* \"--CODEGEN--\":5746:5863   */\n    tag_45:\n        /* \"--CODEGEN--\":5815:5839   */\n      tag_109\n        /* \"--CODEGEN--\":5833:5838   */\n      dup2\n        /* \"--CODEGEN--\":5815:5839   */\n      tag_78\n      jump\t// in\n    tag_109:\n        /* \"--CODEGEN--\":5808:5813   */\n      dup2\n        /* \"--CODEGEN--\":5805:5840   */\n      eq\n        /* \"--CODEGEN--\":5795:5797   */\n      tag_110\n      jumpi\n        /* \"--CODEGEN--\":5854:5855   */\n      0x00\n        /* \"--CODEGEN--\":5851:5852   */\n      dup1\n        /* \"--CODEGEN--\":5844:5856   */\n      revert\n        /* \"--CODEGEN--\":5795:5797   */\n    tag_110:\n        /* \"--CODEGEN--\":5789:5863   */\n      pop\n      jump\t// out\n\n    auxdata: 0xa26469706673582212207f5bcf976fdec22f6471534d90063eb52ecba48adcad9380b73ced6c3d1f8d8764736f6c634300060c0033\n}\n",
				"bytecode": {
					"linkReferences": {},
					"object": "608060405234801561001057600080fd5b50336000806101000a81548173ffffffffffffffffffffffffffffffffffffffff021916908373ffffffffffffffffffffffffffffffffffffffff16021790555061059f806100606000396000f3fe608060405234801561001057600080fd5b50600436106100415760003560e01c8063439509e51461004657806367509ac014610062578063df09657614610092575b600080fd5b610060600480360381019061005b91906102d0565b6100b0565b005b61007c6004803603810190610077919061028f565b6101bf565b604051610089919061042f565b60405180910390f35b61009a610202565b6040516100a791906103d9565b60405180910390f35b3360008054906101000a900473ffffffffffffffffffffffffffffffffffffffff1673ffffffffffffffffffffffffffffffffffffffff168173ffffffffffffffffffffffffffffffffffffffff161461013f576040517f08c379a00000000000000000000000000000000000000000000000000000000081526004016101369061040f565b60405180910390fd5b60008360405160200161015291906103c2565b6040516020818303038152906040528051906020012090508260016000838152602001908152602001600020819055507f9129eeeb684507aca017f10030b70e5bf86d129f417fcc5840348a957eb12cee816040516101b191906103f4565b60405180910390a150505050565b600060016000836040516020016101d691906103c2565b604051602081830303815290604052805190602001208152602001908152602001600020549050919050565b60008054906101000a900473ffffffffffffffffffffffffffffffffffffffff1681565b600082601f83011261023757600080fd5b813561024a61024582610477565b61044a565b9150808252602083016020830185838301111561026657600080fd5b610271838284610510565b50505092915050565b60008135905061028981610552565b92915050565b6000602082840312156102a157600080fd5b600082013567ffffffffffffffff8111156102bb57600080fd5b6102c784828501610226565b91505092915050565b600080604083850312156102e357600080fd5b600083013567ffffffffffffffff8111156102fd57600080fd5b61030985828601610226565b925050602061031a8582860161027a565b9150509250929050565b61032d816104ca565b82525050565b61033c816104dc565b82525050565b600061034d826104a3565b61035781856104bf565b935061036781856020860161051f565b80840191505092915050565b6000610380601e836104ae565b91507f4e6f207469656e6573207065726d69736f732064652050726f6665736f7200006000830152602082019050919050565b6103bc81610506565b82525050565b60006103ce8284610342565b915081905092915050565b60006020820190506103ee6000830184610324565b92915050565b60006020820190506104096000830184610333565b92915050565b6000602082019050818103600083015261042881610373565b9050919050565b600060208201905061044460008301846103b3565b92915050565b6000604051905081810181811067ffffffffffffffff8211171561046d57600080fd5b8060405250919050565b600067ffffffffffffffff82111561048e57600080fd5b601f19601f8301169050602081019050919050565b600081519050919050565b600082825260208201905092915050565b600081905092915050565b60006104d5826104e6565b9050919050565b6000819050919050565b600073ffffffffffffffffffffffffffffffffffffffff82169050919050565b6000819050919050565b82818337600083830152505050565b60005b8381101561053d578082015181840152602081019050610522565b8381111561054c576000848401525b50505050565b61055b81610506565b811461056657600080fd5b5056fea26469706673582212207f5bcf976fdec22f6471534d90063eb52ecba48adcad9380b73ced6c3d1f8d8764736f6c634300060c0033",
					"opcodes": "PUSH1 0x80 PUSH1 0x40 MSTORE CALLVALUE DUP1 ISZERO PUSH2 0x10 JUMPI PUSH1 0x0 DUP1 REVERT JUMPDEST POP CALLER PUSH1 0x0 DUP1 PUSH2 0x100 EXP DUP2 SLOAD DUP2 PUSH20 0xFFFFFFFFFFFFFFFFFFFFFFFFFFFFFFFFFFFFFFFF MUL NOT AND SWAP1 DUP4 PUSH20 0xFFFFFFFFFFFFFFFFFFFFFFFFFFFFFFFFFFFFFFFF AND MUL OR SWAP1 SSTORE POP PUSH2 0x59F DUP1 PUSH2 0x60 PUSH1 0x0 CODECOPY PUSH1 0x0 RETURN INVALID PUSH1 0x80 PUSH1 0x40 MSTORE CALLVALUE DUP1 ISZERO PUSH2 0x10 JUMPI PUSH1 0x0 DUP1 REVERT JUMPDEST POP PUSH1 0x4 CALLDATASIZE LT PUSH2 0x41 JUMPI PUSH1 0x0 CALLDATALOAD PUSH1 0xE0 SHR DUP1 PUSH4 0x439509E5 EQ PUSH2 0x46 JUMPI DUP1 PUSH4 0x67509AC0 EQ PUSH2 0x62 JUMPI DUP1 PUSH4 0xDF096576 EQ PUSH2 0x92 JUMPI JUMPDEST PUSH1 0x0 DUP1 REVERT JUMPDEST PUSH2 0x60 PUSH1 0x4 DUP1 CALLDATASIZE SUB DUP2 ADD SWAP1 PUSH2 0x5B SWAP2 SWAP1 PUSH2 0x2D0 JUMP JUMPDEST PUSH2 0xB0 JUMP JUMPDEST STOP JUMPDEST PUSH2 0x7C PUSH1 0x4 DUP1 CALLDATASIZE SUB DUP2 ADD SWAP1 PUSH2 0x77 SWAP2 SWAP1 PUSH2 0x28F JUMP JUMPDEST PUSH2 0x1BF JUMP JUMPDEST PUSH1 0x40 MLOAD PUSH2 0x89 SWAP2 SWAP1 PUSH2 0x42F JUMP JUMPDEST PUSH1 0x40 MLOAD DUP1 SWAP2 SUB SWAP1 RETURN JUMPDEST PUSH2 0x9A PUSH2 0x202 JUMP JUMPDEST PUSH1 0x40 MLOAD PUSH2 0xA7 SWAP2 SWAP1 PUSH2 0x3D9 JUMP JUMPDEST PUSH1 0x40 MLOAD DUP1 SWAP2 SUB SWAP1 RETURN JUMPDEST CALLER PUSH1 0x0 DUP1 SLOAD SWAP1 PUSH2 0x100 EXP SWAP1 DIV PUSH20 0xFFFFFFFFFFFFFFFFFFFFFFFFFFFFFFFFFFFFFFFF AND PUSH20 0xFFFFFFFFFFFFFFFFFFFFFFFFFFFFFFFFFFFFFFFF AND DUP2 PUSH20 0xFFFFFFFFFFFFFFFFFFFFFFFFFFFFFFFFFFFFFFFF AND EQ PUSH2 0x13F JUMPI PUSH1 0x40 MLOAD PUSH32 0x8C379A000000000000000000000000000000000000000000000000000000000 DUP2 MSTORE PUSH1 0x4 ADD PUSH2 0x136 SWAP1 PUSH2 0x40F JUMP JUMPDEST PUSH1 0x40 MLOAD DUP1 SWAP2 SUB SWAP1 REVERT JUMPDEST PUSH1 0x0 DUP4 PUSH1 0x40 MLOAD PUSH1 0x20 ADD PUSH2 0x152 SWAP2 SWAP1 PUSH2 0x3C2 JUMP JUMPDEST PUSH1 0x40 MLOAD PUSH1 0x20 DUP2 DUP4 SUB SUB DUP2 MSTORE SWAP1 PUSH1 0x40 MSTORE DUP1 MLOAD SWAP1 PUSH1 0x20 ADD KECCAK256 SWAP1 POP DUP3 PUSH1 0x1 PUSH1 0x0 DUP4 DUP2 MSTORE PUSH1 0x20 ADD SWAP1 DUP2 MSTORE PUSH1 0x20 ADD PUSH1 0x0 KECCAK256 DUP2 SWAP1 SSTORE POP PUSH32 0x9129EEEB684507ACA017F10030B70E5BF86D129F417FCC5840348A957EB12CEE DUP2 PUSH1 0x40 MLOAD PUSH2 0x1B1 SWAP2 SWAP1 PUSH2 0x3F4 JUMP JUMPDEST PUSH1 0x40 MLOAD DUP1 SWAP2 SUB SWAP1 LOG1 POP POP POP POP JUMP JUMPDEST PUSH1 0x0 PUSH1 0x1 PUSH1 0x0 DUP4 PUSH1 0x40 MLOAD PUSH1 0x20 ADD PUSH2 0x1D6 SWAP2 SWAP1 PUSH2 0x3C2 JUMP JUMPDEST PUSH1 0x40 MLOAD PUSH1 0x20 DUP2 DUP4 SUB SUB DUP2 MSTORE SWAP1 PUSH1 0x40 MSTORE DUP1 MLOAD SWAP1 PUSH1 0x20 ADD KECCAK256 DUP2 MSTORE PUSH1 0x20 ADD SWAP1 DUP2 MSTORE PUSH1 0x20 ADD PUSH1 0x0 KECCAK256 SLOAD SWAP1 POP SWAP2 SWAP1 POP JUMP JUMPDEST PUSH1 0x0 DUP1 SLOAD SWAP1 PUSH2 0x100 EXP SWAP1 DIV PUSH20 0xFFFFFFFFFFFFFFFFFFFFFFFFFFFFFFFFFFFFFFFF AND DUP2 JUMP JUMPDEST PUSH1 0x0 DUP3 PUSH1 0x1F DUP4 ADD SLT PUSH2 0x237 JUMPI PUSH1 0x0 DUP1 REVERT JUMPDEST DUP2 CALLDATALOAD PUSH2 0x24A PUSH2 0x245 DUP3 PUSH2 0x477 JUMP JUMPDEST PUSH2 0x44A JUMP JUMPDEST SWAP2 POP DUP1 DUP3 MSTORE PUSH1 0x20 DUP4 ADD PUSH1 0x20 DUP4 ADD DUP6 DUP4 DUP4 ADD GT ISZERO PUSH2 0x266 JUMPI PUSH1 0x0 DUP1 REVERT JUMPDEST PUSH2 0x271 DUP4 DUP3 DUP5 PUSH2 0x510 JUMP JUMPDEST POP POP POP SWAP3 SWAP2 POP POP JUMP JUMPDEST PUSH1 0x0 DUP2 CALLDATALOAD SWAP1 POP PUSH2 0x289 DUP2 PUSH2 0x552 JUMP JUMPDEST SWAP3 SWAP2 POP POP JUMP JUMPDEST PUSH1 0x0 PUSH1 0x20 DUP3 DUP5 SUB SLT ISZERO PUSH2 0x2A1 JUMPI PUSH1 0x0 DUP1 REVERT JUMPDEST PUSH1 0x0 DUP3 ADD CALLDATALOAD PUSH8 0xFFFFFFFFFFFFFFFF DUP2 GT ISZERO PUSH2 0x2BB JUMPI PUSH1 0x0 DUP1 REVERT JUMPDEST PUSH2 0x2C7 DUP5 DUP3 DUP6 ADD PUSH2 0x226 JUMP JUMPDEST SWAP2 POP POP SWAP3 SWAP2 POP POP JUMP JUMPDEST PUSH1 0x0 DUP1 PUSH1 0x40 DUP4 DUP6 SUB SLT ISZERO PUSH2 0x2E3 JUMPI PUSH1 0x0 DUP1 REVERT JUMPDEST PUSH1 0x0 DUP4 ADD CALLDATALOAD PUSH8 0xFFFFFFFFFFFFFFFF DUP2 GT ISZERO PUSH2 0x2FD JUMPI PUSH1 0x0 DUP1 REVERT JUMPDEST PUSH2 0x309 DUP6 DUP3 DUP7 ADD PUSH2 0x226 JUMP JUMPDEST SWAP3 POP POP PUSH1 0x20 PUSH2 0x31A DUP6 DUP3 DUP7 ADD PUSH2 0x27A JUMP JUMPDEST SWAP2 POP POP SWAP3 POP SWAP3 SWAP1 POP JUMP JUMPDEST PUSH2 0x32D DUP2 PUSH2 0x4CA JUMP JUMPDEST DUP3 MSTORE POP POP JUMP JUMPDEST PUSH2 0x33C DUP2 PUSH2 0x4DC JUMP JUMPDEST DUP3 MSTORE POP POP JUMP JUMPDEST PUSH1 0x0 PUSH2 0x34D DUP3 PUSH2 0x4A3 JUMP JUMPDEST PUSH2 0x357 DUP2 DUP6 PUSH2 0x4BF JUMP JUMPDEST SWAP4 POP PUSH2 0x367 DUP2 DUP6 PUSH1 0x20 DUP7 ADD PUSH2 0x51F JUMP JUMPDEST DUP1 DUP5 ADD SWAP2 POP POP SWAP3 SWAP2 POP POP JUMP JUMPDEST PUSH1 0x0 PUSH2 0x380 PUSH1 0x1E DUP4 PUSH2 0x4AE JUMP JUMPDEST SWAP2 POP PUSH32 0x4E6F207469656E6573207065726D69736F732064652050726F6665736F720000 PUSH1 0x0 DUP4 ADD MSTORE PUSH1 0x20 DUP3 ADD SWAP1 POP SWAP2 SWAP1 POP JUMP JUMPDEST PUSH2 0x3BC DUP2 PUSH2 0x506 JUMP JUMPDEST DUP3 MSTORE POP POP JUMP JUMPDEST PUSH1 0x0 PUSH2 0x3CE DUP3 DUP5 PUSH2 0x342 JUMP JUMPDEST SWAP2 POP DUP2 SWAP1 POP SWAP3 SWAP2 POP POP JUMP JUMPDEST PUSH1 0x0 PUSH1 0x20 DUP3 ADD SWAP1 POP PUSH2 0x3EE PUSH1 0x0 DUP4 ADD DUP5 PUSH2 0x324 JUMP JUMPDEST SWAP3 SWAP2 POP POP JUMP JUMPDEST PUSH1 0x0 PUSH1 0x20 DUP3 ADD SWAP1 POP PUSH2 0x409 PUSH1 0x0 DUP4 ADD DUP5 PUSH2 0x333 JUMP JUMPDEST SWAP3 SWAP2 POP POP JUMP JUMPDEST PUSH1 0x0 PUSH1 0x20 DUP3 ADD SWAP1 POP DUP2 DUP2 SUB PUSH1 0x0 DUP4 ADD MSTORE PUSH2 0x428 DUP2 PUSH2 0x373 JUMP JUMPDEST SWAP1 POP SWAP2 SWAP1 POP JUMP JUMPDEST PUSH1 0x0 PUSH1 0x20 DUP3 ADD SWAP1 POP PUSH2 0x444 PUSH1 0x0 DUP4 ADD DUP5 PUSH2 0x3B3 JUMP JUMPDEST SWAP3 SWAP2 POP POP JUMP JUMPDEST PUSH1 0x0 PUSH1 0x40 MLOAD SWAP1 POP DUP2 DUP2 ADD DUP2 DUP2 LT PUSH8 0xFFFFFFFFFFFFFFFF DUP3 GT OR ISZERO PUSH2 0x46D JUMPI PUSH1 0x0 DUP1 REVERT JUMPDEST DUP1 PUSH1 0x40 MSTORE POP SWAP2 SWAP1 POP JUMP JUMPDEST PUSH1 0x0 PUSH8 0xFFFFFFFFFFFFFFFF DUP3 GT ISZERO PUSH2 0x48E JUMPI PUSH1 0x0 DUP1 REVERT JUMPDEST PUSH1 0x1F NOT PUSH1 0x1F DUP4 ADD AND SWAP1 POP PUSH1 0x20 DUP2 ADD SWAP1 POP SWAP2 SWAP1 POP JUMP JUMPDEST PUSH1 0x0 DUP2 MLOAD SWAP1 POP SWAP2 SWAP1 POP JUMP JUMPDEST PUSH1 0x0 DUP3 DUP3 MSTORE PUSH1 0x20 DUP3 ADD SWAP1 POP SWAP3 SWAP2 POP POP JUMP JUMPDEST PUSH1 0x0 DUP2 SWAP1 POP SWAP3 SWAP2 POP POP JUMP JUMPDEST PUSH1 0x0 PUSH2 0x4D5 DUP3 PUSH2 0x4E6 JUMP JUMPDEST SWAP1 POP SWAP2 SWAP1 POP JUMP JUMPDEST PUSH1 0x0 DUP2 SWAP1 POP SWAP2 SWAP1 POP JUMP JUMPDEST PUSH1 0x0 PUSH20 0xFFFFFFFFFFFFFFFFFFFFFFFFFFFFFFFFFFFFFFFF DUP3 AND SWAP1 POP SWAP2 SWAP1 POP JUMP JUMPDEST PUSH1 0x0 DUP2 SWAP1 POP SWAP2 SWAP1 POP JUMP JUMPDEST DUP3 DUP2 DUP4 CALLDATACOPY PUSH1 0x0 DUP4 DUP4 ADD MSTORE POP POP POP JUMP JUMPDEST PUSH1 0x0 JUMPDEST DUP4 DUP2 LT ISZERO PUSH2 0x53D JUMPI DUP1 DUP3 ADD MLOAD DUP2 DUP5 ADD MSTORE PUSH1 0x20 DUP2 ADD SWAP1 POP PUSH2 0x522 JUMP JUMPDEST DUP4 DUP2 GT ISZERO PUSH2 0x54C JUMPI PUSH1 0x0 DUP5 DUP5 ADD MSTORE JUMPDEST POP POP POP POP JUMP JUMPDEST PUSH2 0x55B DUP2 PUSH2 0x506 JUMP JUMPDEST DUP2 EQ PUSH2 0x566 JUMPI PUSH1 0x0 DUP1 REVERT JUMPDEST POP JUMP INVALID LOG2 PUSH5 0x6970667358 0x22 SLT KECCAK256 PUSH32 0x5BCF976FDEC22F6471534D90063EB52ECBA48ADCAD9380B73CED6C3D1F8D8764 PUSH20 0x6F6C634300060C00330000000000000000000000 "
				},
				"gasEstimates": {
					"creation": {
						"codeDepositCost": "287800",
						"executionCost": "21190",
						"totalCost": "308990"
					},
					"external": {
						"getNotas(string)": "infinite",
						"profesor()": "1233",
						"setNotas(string,uint256)": "infinite"
					}
				},
				"methodIdentifiers": {
					"getNotas(string)": "67509ac0",
					"profesor()": "df096576",
					"setNotas(string,uint256)": "439509e5"
				}
			},
			"storageLayout": {
				"storage": [
					{
						"astId": 4,
						"contract": "Sistema de evaluacion/notas.sol:notas",
						"label": "profesor",
						"offset": 0,
						"slot": "0",
						"type": "t_address"
					},
					{
						"astId": 17,
						"contract": "Sistema de evaluacion/notas.sol:notas",
						"label": "Notas",
						"offset": 0,
						"slot": "1",
						"type": "t_mapping(t_bytes32,t_uint256)"
					},
					{
						"astId": 20,
						"contract": "Sistema de evaluacion/notas.sol:notas",
						"label": "revisiones",
						"offset": 0,
						"slot": "2",
						"type": "t_array(t_string_storage)dyn_storage"
					}
				],
				"types": {
					"t_address": {
						"encoding": "inplace",
						"label": "address",
						"numberOfBytes": "20"
					},
					"t_array(t_string_storage)dyn_storage": {
						"base": "t_string_storage",
						"encoding": "dynamic_array",
						"label": "string[]",
						"numberOfBytes": "32"
					},
					"t_bytes32": {
						"encoding": "inplace",
						"label": "bytes32",
						"numberOfBytes": "32"
					},
					"t_mapping(t_bytes32,t_uint256)": {
						"encoding": "mapping",
						"key": "t_bytes32",
						"label": "mapping(bytes32 => uint256)",
						"numberOfBytes": "32",
						"value": "t_uint256"
					},
					"t_string_storage": {
						"encoding": "bytes",
						"label": "string",
						"numberOfBytes": "32"
					},
					"t_uint256": {
						"encoding": "inplace",
						"label": "uint256",
						"numberOfBytes": "32"
					}
				}
			},
			"userdoc": {
				"kind": "user",
				"methods": {},
				"version": 1
			}
		}
	}
}