{
	"data": {
		"bytecode": {
			"linkReferences": {},
			"object": "6080604052602a6000806101000a81548160ff021916908360ff16021790555064025a112eb5600060016101000a81548167ffffffffffffffff021916908360070b67ffffffffffffffff160217905550615ac06001556000809054906101000a900460ff1660ff16600260006101000a81548167ffffffffffffffff021916908367ffffffffffffffff160217905550600154600260086101000a81548167ffffffffffffffff021916908367ffffffffffffffff1602179055503480156100c757600080fd5b50610101806100d76000396000f3fe6080604052348015600f57600080fd5b506004361060325760003560e01c80635db85bad1460375780639d47dfca146067575b600080fd5b603d6097565b604051808267ffffffffffffffff1667ffffffffffffffff16815260200191505060405180910390f35b606d60b1565b604051808267ffffffffffffffff1667ffffffffffffffff16815260200191505060405180910390f35b600260089054906101000a900467ffffffffffffffff1681565b600260009054906101000a900467ffffffffffffffff168156fea264697066735822122042fca53effffd241add8f7819c5b483569159bbd913e23111af8ac9e37dafd5664736f6c63430006000033",
			"opcodes": "PUSH1 0x80 PUSH1 0x40 MSTORE PUSH1 0x2A PUSH1 0x0 DUP1 PUSH2 0x100 EXP DUP2 SLOAD DUP2 PUSH1 0xFF MUL NOT AND SWAP1 DUP4 PUSH1 0xFF AND MUL OR SWAP1 SSTORE POP PUSH5 0x25A112EB5 PUSH1 0x0 PUSH1 0x1 PUSH2 0x100 EXP DUP2 SLOAD DUP2 PUSH8 0xFFFFFFFFFFFFFFFF MUL NOT AND SWAP1 DUP4 PUSH1 0x7 SIGNEXTEND PUSH8 0xFFFFFFFFFFFFFFFF AND MUL OR SWAP1 SSTORE POP PUSH2 0x5AC0 PUSH1 0x1 SSTORE PUSH1 0x0 DUP1 SWAP1 SLOAD SWAP1 PUSH2 0x100 EXP SWAP1 DIV PUSH1 0xFF AND PUSH1 0xFF AND PUSH1 0x2 PUSH1 0x0 PUSH2 0x100 EXP DUP2 SLOAD DUP2 PUSH8 0xFFFFFFFFFFFFFFFF MUL NOT AND SWAP1 DUP4 PUSH8 0xFFFFFFFFFFFFFFFF AND MUL OR SWAP1 SSTORE POP PUSH1 0x1 SLOAD PUSH1 0x2 PUSH1 0x8 PUSH2 0x100 EXP DUP2 SLOAD DUP2 PUSH8 0xFFFFFFFFFFFFFFFF MUL NOT AND SWAP1 DUP4 PUSH8 0xFFFFFFFFFFFFFFFF AND MUL OR SWAP1 SSTORE POP CALLVALUE DUP1 ISZERO PUSH2 0xC7 JUMPI PUSH1 0x0 DUP1 REVERT JUMPDEST POP PUSH2 0x101 DUP1 PUSH2 0xD7 PUSH1 0x0 CODECOPY PUSH1 0x0 RETURN INVALID PUSH1 0x80 PUSH1 0x40 MSTORE CALLVALUE DUP1 ISZERO PUSH1 0xF JUMPI PUSH1 0x0 DUP1 REVERT JUMPDEST POP PUSH1 0x4 CALLDATASIZE LT PUSH1 0x32 JUMPI PUSH1 0x0 CALLDATALOAD PUSH1 0xE0 SHR DUP1 PUSH4 0x5DB85BAD EQ PUSH1 0x37 JUMPI DUP1 PUSH4 0x9D47DFCA EQ PUSH1 0x67 JUMPI JUMPDEST PUSH1 0x0 DUP1 REVERT JUMPDEST PUSH1 0x3D PUSH1 0x97 JUMP JUMPDEST PUSH1 0x40 MLOAD DUP1 DUP3 PUSH8 0xFFFFFFFFFFFFFFFF AND PUSH8 0xFFFFFFFFFFFFFFFF AND DUP2 MSTORE PUSH1 0x20 ADD SWAP2 POP POP PUSH1 0x40 MLOAD DUP1 SWAP2 SUB SWAP1 RETURN JUMPDEST PUSH1 0x6D PUSH1 0xB1 JUMP JUMPDEST PUSH1 0x40 MLOAD DUP1 DUP3 PUSH8 0xFFFFFFFFFFFFFFFF AND PUSH8 0xFFFFFFFFFFFFFFFF AND DUP2 MSTORE PUSH1 0x20 ADD SWAP2 POP POP PUSH1 0x40 MLOAD DUP1 SWAP2 SUB SWAP1 RETURN JUMPDEST PUSH1 0x2 PUSH1 0x8 SWAP1 SLOAD SWAP1 PUSH2 0x100 EXP SWAP1 DIV PUSH8 0xFFFFFFFFFFFFFFFF AND DUP2 JUMP JUMPDEST PUSH1 0x2 PUSH1 0x0 SWAP1 SLOAD SWAP1 PUSH2 0x100 EXP SWAP1 DIV PUSH8 0xFFFFFFFFFFFFFFFF AND DUP2 JUMP INVALID LOG2 PUSH5 0x6970667358 0x22 SLT KECCAK256 TIMESTAMP 0xFC 0xA5 RETURNDATACOPY SELFDESTRUCT SELFDESTRUCT 0xD2 COINBASE 0xAD 0xD8 0xF7 DUP2 SWAP13 JUMPDEST 0x48 CALLDATALOAD PUSH10 0x159BBD913E23111AF8AC SWAP15 CALLDATACOPY 0xDA REVERT JUMP PUSH5 0x736F6C6343 STOP MOD STOP STOP CALLER "
		},
		"gasEstimates": {
			"creation": {
				"codeDepositCost": "51400",
				"executionCost": "105329",
				"totalCost": "156729"
			},
			"external": {
				"casteo_a()": "1053",
				"casteo_c()": "1081"
			}
		},
		"methodIdentifiers": {
			"casteo_a()": "9d47dfca",
			"casteo_c()": "5db85bad"
		}
	},
	"abi": [
		{
			"inputs": [],
			"name": "casteo_a",
			"outputs": [
				{
					"internalType": "uint64",
					"name": "",
					"type": "uint64"
				}
			],
			"stateMutability": "view",
			"type": "function"
		},
		{
			"inputs": [],
			"name": "casteo_c",
			"outputs": [
				{
					"internalType": "uint64",
					"name": "",
					"type": "uint64"
				}
			],
			"stateMutability": "view",
			"type": "function"
		}
	]
}