{
	"data": {
		"bytecode": {
			"linkReferences": {},
			"object": "60806040524260005560018055603c600255610e106003556201518060045534801561002a57600080fd5b506101c38061003a6000396000f3fe608060405234801561001057600080fd5b506004361061007d5760003560e01c80635a9606a41161005b5780635a9606a4146100dc578063c3b17fdf146100fa578063c77e3e9814610118578063e70ce4f3146101365761007d565b80632ae9277b1461008257806330488a1d146100a057806356b09482146100be575b600080fd5b61008a610154565b6040518082815260200191505060405180910390f35b6100a8610161565b6040518082815260200191505060405180910390f35b6100c6610167565b6040518082815260200191505060405180910390f35b6100e461016d565b6040518082815260200191505060405180910390f35b610102610173565b6040518082815260200191505060405180910390f35b610120610182565b6040518082815260200191505060405180910390f35b61013e610188565b6040518082815260200191505060405180910390f35b6000600160005401905090565b60015481565b60035481565b60005481565b60006201518060005401905090565b60045481565b6002548156fea265627a7a72315820a62a267573578f885990af2b12844fcb493791fd7b8ae34e388fa9a8f9d9e77264736f6c63430005110032",
			"opcodes": "PUSH1 0x80 PUSH1 0x40 MSTORE TIMESTAMP PUSH1 0x0 SSTORE PUSH1 0x1 DUP1 SSTORE PUSH1 0x3C PUSH1 0x2 SSTORE PUSH2 0xE10 PUSH1 0x3 SSTORE PUSH3 0x15180 PUSH1 0x4 SSTORE CALLVALUE DUP1 ISZERO PUSH2 0x2A JUMPI PUSH1 0x0 DUP1 REVERT JUMPDEST POP PUSH2 0x1C3 DUP1 PUSH2 0x3A PUSH1 0x0 CODECOPY PUSH1 0x0 RETURN INVALID PUSH1 0x80 PUSH1 0x40 MSTORE CALLVALUE DUP1 ISZERO PUSH2 0x10 JUMPI PUSH1 0x0 DUP1 REVERT JUMPDEST POP PUSH1 0x4 CALLDATASIZE LT PUSH2 0x7D JUMPI PUSH1 0x0 CALLDATALOAD PUSH1 0xE0 SHR DUP1 PUSH4 0x5A9606A4 GT PUSH2 0x5B JUMPI DUP1 PUSH4 0x5A9606A4 EQ PUSH2 0xDC JUMPI DUP1 PUSH4 0xC3B17FDF EQ PUSH2 0xFA JUMPI DUP1 PUSH4 0xC77E3E98 EQ PUSH2 0x118 JUMPI DUP1 PUSH4 0xE70CE4F3 EQ PUSH2 0x136 JUMPI PUSH2 0x7D JUMP JUMPDEST DUP1 PUSH4 0x2AE9277B EQ PUSH2 0x82 JUMPI DUP1 PUSH4 0x30488A1D EQ PUSH2 0xA0 JUMPI DUP1 PUSH4 0x56B09482 EQ PUSH2 0xBE JUMPI JUMPDEST PUSH1 0x0 DUP1 REVERT JUMPDEST PUSH2 0x8A PUSH2 0x154 JUMP JUMPDEST PUSH1 0x40 MLOAD DUP1 DUP3 DUP2 MSTORE PUSH1 0x20 ADD SWAP2 POP POP PUSH1 0x40 MLOAD DUP1 SWAP2 SUB SWAP1 RETURN JUMPDEST PUSH2 0xA8 PUSH2 0x161 JUMP JUMPDEST PUSH1 0x40 MLOAD DUP1 DUP3 DUP2 MSTORE PUSH1 0x20 ADD SWAP2 POP POP PUSH1 0x40 MLOAD DUP1 SWAP2 SUB SWAP1 RETURN JUMPDEST PUSH2 0xC6 PUSH2 0x167 JUMP JUMPDEST PUSH1 0x40 MLOAD DUP1 DUP3 DUP2 MSTORE PUSH1 0x20 ADD SWAP2 POP POP PUSH1 0x40 MLOAD DUP1 SWAP2 SUB SWAP1 RETURN JUMPDEST PUSH2 0xE4 PUSH2 0x16D JUMP JUMPDEST PUSH1 0x40 MLOAD DUP1 DUP3 DUP2 MSTORE PUSH1 0x20 ADD SWAP2 POP POP PUSH1 0x40 MLOAD DUP1 SWAP2 SUB SWAP1 RETURN JUMPDEST PUSH2 0x102 PUSH2 0x173 JUMP JUMPDEST PUSH1 0x40 MLOAD DUP1 DUP3 DUP2 MSTORE PUSH1 0x20 ADD SWAP2 POP POP PUSH1 0x40 MLOAD DUP1 SWAP2 SUB SWAP1 RETURN JUMPDEST PUSH2 0x120 PUSH2 0x182 JUMP JUMPDEST PUSH1 0x40 MLOAD DUP1 DUP3 DUP2 MSTORE PUSH1 0x20 ADD SWAP2 POP POP PUSH1 0x40 MLOAD DUP1 SWAP2 SUB SWAP1 RETURN JUMPDEST PUSH2 0x13E PUSH2 0x188 JUMP JUMPDEST PUSH1 0x40 MLOAD DUP1 DUP3 DUP2 MSTORE PUSH1 0x20 ADD SWAP2 POP POP PUSH1 0x40 MLOAD DUP1 SWAP2 SUB SWAP1 RETURN JUMPDEST PUSH1 0x0 PUSH1 0x1 PUSH1 0x0 SLOAD ADD SWAP1 POP SWAP1 JUMP JUMPDEST PUSH1 0x1 SLOAD DUP2 JUMP JUMPDEST PUSH1 0x3 SLOAD DUP2 JUMP JUMPDEST PUSH1 0x0 SLOAD DUP2 JUMP JUMPDEST PUSH1 0x0 PUSH3 0x15180 PUSH1 0x0 SLOAD ADD SWAP1 POP SWAP1 JUMP JUMPDEST PUSH1 0x4 SLOAD DUP2 JUMP JUMPDEST PUSH1 0x2 SLOAD DUP2 JUMP INVALID LOG2 PUSH6 0x627A7A723158 KECCAK256 0xA6 0x2A 0x26 PUSH22 0x73578F885990AF2B12844FCB493791FD7B8AE34E388F 0xA9 0xA8 0xF9 0xD9 0xE7 PUSH19 0x64736F6C634300051100320000000000000000 "
		},
		"gasEstimates": {
			"creation": {
				"codeDepositCost": "90200",
				"executionCost": "100170",
				"totalCost": "190370"
			},
			"external": {
				"dia()": "1049",
				"getTimePlusDay()": "1041",
				"getTimePlusSec()": "1020",
				"hora()": "1050",
				"minuto()": "1071",
				"segundo()": "1028",
				"tiempo_actual()": "1005"
			}
		},
		"methodIdentifiers": {
			"dia()": "c77e3e98",
			"getTimePlusDay()": "c3b17fdf",
			"getTimePlusSec()": "2ae9277b",
			"hora()": "56b09482",
			"minuto()": "e70ce4f3",
			"segundo()": "30488a1d",
			"tiempo_actual()": "5a9606a4"
		}
	},
	"abi": [
		{
			"constant": true,
			"inputs": [],
			"name": "dia",
			"outputs": [
				{
					"internalType": "uint256",
					"name": "",
					"type": "uint256"
				}
			],
			"payable": false,
			"stateMutability": "view",
			"type": "function"
		},
		{
			"constant": true,
			"inputs": [],
			"name": "getTimePlusDay",
			"outputs": [
				{
					"internalType": "uint256",
					"name": "",
					"type": "uint256"
				}
			],
			"payable": false,
			"stateMutability": "view",
			"type": "function"
		},
		{
			"constant": true,
			"inputs": [],
			"name": "getTimePlusSec",
			"outputs": [
				{
					"internalType": "uint256",
					"name": "",
					"type": "uint256"
				}
			],
			"payable": false,
			"stateMutability": "view",
			"type": "function"
		},
		{
			"constant": true,
			"inputs": [],
			"name": "hora",
			"outputs": [
				{
					"internalType": "uint256",
					"name": "",
					"type": "uint256"
				}
			],
			"payable": false,
			"stateMutability": "view",
			"type": "function"
		},
		{
			"constant": true,
			"inputs": [],
			"name": "minuto",
			"outputs": [
				{
					"internalType": "uint256",
					"name": "",
					"type": "uint256"
				}
			],
			"payable": false,
			"stateMutability": "view",
			"type": "function"
		},
		{
			"constant": true,
			"inputs": [],
			"name": "segundo",
			"outputs": [
				{
					"internalType": "uint256",
					"name": "",
					"type": "uint256"
				}
			],
			"payable": false,
			"stateMutability": "view",
			"type": "function"
		},
		{
			"constant": true,
			"inputs": [],
			"name": "tiempo_actual",
			"outputs": [
				{
					"internalType": "uint256",
					"name": "",
					"type": "uint256"
				}
			],
			"payable": false,
			"stateMutability": "view",
			"type": "function"
		}
	]
}