{
	"Estructuras de datos/arrays.sol": {
		"arrays": {
			"abi": [
				{
					"inputs": [
						{
							"internalType": "uint256",
							"name": "x",
							"type": "uint256"
						}
					],
					"name": "setX",
					"outputs": [],
					"stateMutability": "nonpayable",
					"type": "function"
				},
				{
					"inputs": [
						{
							"internalType": "uint256",
							"name": "",
							"type": "uint256"
						}
					],
					"name": "vectorcito_dinamico",
					"outputs": [
						{
							"internalType": "uint256",
							"name": "",
							"type": "uint256"
						}
					],
					"stateMutability": "view",
					"type": "function"
				}
			],
			"devdoc": {
				"methods": {}
			},
			"evm": {
				"assembly": "    /* \"Estructuras de datos/arrays.sol\":62:277  contract arrays{\r... */\n  mstore(0x40, 0x80)\n    /* \"Estructuras de datos/arrays.sol\":114:154  string [2] vectorcito_string = [\"H\",\"O\"] */\n  mload(0x40)\n  dup1\n  0x40\n  add\n  0x40\n  mstore\n  dup1\n  mload(0x40)\n  dup1\n  0x40\n  add\n  0x40\n  mstore\n  dup1\n  0x01\n  dup2\n  mstore\n  0x20\n  add\n  0x4800000000000000000000000000000000000000000000000000000000000000\n  dup2\n  mstore\n  pop\n  dup2\n  mstore\n  0x20\n  add\n  mload(0x40)\n  dup1\n  0x40\n  add\n  0x40\n  mstore\n  dup1\n  0x01\n  dup2\n  mstore\n  0x20\n  add\n  0x4f00000000000000000000000000000000000000000000000000000000000000\n  dup2\n  mstore\n  pop\n  dup2\n  mstore\n  pop\n  0x05\n  swap1\n  0x02\n  tag_1\n  swap3\n  swap2\n  swap1\n  tag_2\n  jump\t// in\ntag_1:\n  pop\n    /* \"Estructuras de datos/arrays.sol\":62:277  contract arrays{\r... */\n  callvalue\n    /* \"--CODEGEN--\":8:17   */\n  dup1\n    /* \"--CODEGEN--\":5:7   */\n  iszero\n  tag_3\n  jumpi\n    /* \"--CODEGEN--\":30:31   */\n  0x00\n    /* \"--CODEGEN--\":27:28   */\n  dup1\n    /* \"--CODEGEN--\":20:32   */\n  revert\n    /* \"--CODEGEN--\":5:7   */\ntag_3:\n    /* \"Estructuras de datos/arrays.sol\":62:277  contract arrays{\r... */\n  pop\n  jump(tag_4)\ntag_2:\n  dup3\n  0x02\n  dup2\n  add\n  swap3\n  dup3\n  iszero\n  tag_5\n  jumpi\n  swap2\n  0x20\n  mul\n  dup3\n  add\ntag_6:\n  dup3\n  dup2\n  gt\n  iszero\n  tag_7\n  jumpi\n  dup3\n  mload\n  dup3\n  swap1\n  dup1\n  mload\n  swap1\n  0x20\n  add\n  swap1\n  tag_8\n  swap3\n  swap2\n  swap1\n  tag_9\n  jump\t// in\ntag_8:\n  pop\n  swap2\n  0x20\n  add\n  swap2\n  swap1\n  0x01\n  add\n  swap1\n  jump(tag_6)\ntag_7:\ntag_5:\n  pop\n  swap1\n  pop\n  tag_10\n  swap2\n  swap1\n  tag_11\n  jump\t// in\ntag_10:\n  pop\n  swap1\n  jump\t// out\ntag_9:\n  dup3\n  dup1\n  sload\n  0x01\n  dup2\n  0x01\n  and\n  iszero\n  0x0100\n  mul\n  sub\n  and\n  0x02\n  swap1\n  div\n  swap1\n  0x00\n  mstore\n  keccak256(0x00, 0x20)\n  swap1\n  0x1f\n  add\n  0x20\n  swap1\n  div\n  dup2\n  add\n  swap3\n  dup3\n  0x1f\n  lt\n  tag_13\n  jumpi\n  dup1\n  mload\n  not(0xff)\n  and\n  dup4\n  dup1\n  add\n  or\n  dup6\n  sstore\n  jump(tag_12)\ntag_13:\n  dup3\n  dup1\n  add\n  0x01\n  add\n  dup6\n  sstore\n  dup3\n  iszero\n  tag_12\n  jumpi\n  swap2\n  dup3\n  add\ntag_14:\n  dup3\n  dup2\n  gt\n  iszero\n  tag_15\n  jumpi\n  dup3\n  mload\n  dup3\n  sstore\n  swap2\n  0x20\n  add\n  swap2\n  swap1\n  0x01\n  add\n  swap1\n  jump(tag_14)\ntag_15:\ntag_12:\n  pop\n  swap1\n  pop\n  tag_16\n  swap2\n  swap1\n  tag_17\n  jump\t// in\ntag_16:\n  pop\n  swap1\n  jump\t// out\ntag_11:\n  tag_18\n  swap2\n  swap1\ntag_19:\n  dup1\n  dup3\n  gt\n  iszero\n  tag_20\n  jumpi\n  0x00\n  dup2\n  dup2\n  tag_21\n  swap2\n  swap1\n  tag_22\n  jump\t// in\ntag_21:\n  pop\n  0x01\n  add\n  jump(tag_19)\ntag_20:\n  pop\n  swap1\n  jump\ntag_18:\n  swap1\n  jump\t// out\ntag_17:\n  tag_23\n  swap2\n  swap1\ntag_24:\n  dup1\n  dup3\n  gt\n  iszero\n  tag_25\n  jumpi\n  0x00\n  dup2\n  0x00\n  swap1\n  sstore\n  pop\n  0x01\n  add\n  jump(tag_24)\ntag_25:\n  pop\n  swap1\n  jump\ntag_23:\n  swap1\n  jump\t// out\ntag_22:\n  pop\n  dup1\n  sload\n  0x01\n  dup2\n  0x01\n  and\n  iszero\n  0x0100\n  mul\n  sub\n  and\n  0x02\n  swap1\n  div\n  0x00\n  dup3\n  sstore\n  dup1\n  0x1f\n  lt\n  tag_27\n  jumpi\n  pop\n  jump(tag_26)\ntag_27:\n  0x1f\n  add\n  0x20\n  swap1\n  div\n  swap1\n  0x00\n  mstore\n  keccak256(0x00, 0x20)\n  swap1\n  dup2\n  add\n  swap1\n  tag_28\n  swap2\n  swap1\n  tag_17\n  jump\t// in\ntag_28:\ntag_26:\n  pop\n  jump\t// out\ntag_4:\n  dataSize(sub_0)\n  dup1\n  dataOffset(sub_0)\n  0x00\n  codecopy\n  0x00\n  return\nstop\n\nsub_0: assembly {\n        /* \"Estructuras de datos/arrays.sol\":62:277  contract arrays{\r... */\n      mstore(0x40, 0x80)\n      callvalue\n        /* \"--CODEGEN--\":8:17   */\n      dup1\n        /* \"--CODEGEN--\":5:7   */\n      iszero\n      tag_1\n      jumpi\n        /* \"--CODEGEN--\":30:31   */\n      0x00\n        /* \"--CODEGEN--\":27:28   */\n      dup1\n        /* \"--CODEGEN--\":20:32   */\n      revert\n        /* \"--CODEGEN--\":5:7   */\n    tag_1:\n        /* \"Estructuras de datos/arrays.sol\":62:277  contract arrays{\r... */\n      pop\n      jumpi(tag_2, lt(calldatasize, 0x04))\n      shr(0xe0, calldataload(0x00))\n      dup1\n      0x1567479e\n      eq\n      tag_3\n      jumpi\n      dup1\n      0x4018d9aa\n      eq\n      tag_4\n      jumpi\n    tag_2:\n      0x00\n      dup1\n      revert\n        /* \"Estructuras de datos/arrays.sol\":163:197  uint [] public vectorcito_dinamico */\n    tag_3:\n      tag_5\n      0x04\n      dup1\n      calldatasize\n      sub\n      tag_6\n      swap2\n      swap1\n      dup2\n      add\n      swap1\n      jump(tag_7)\n    tag_6:\n      tag_8\n      jump\t// in\n    tag_5:\n      mload(0x40)\n      tag_9\n      swap2\n      swap1\n      jump(tag_10)\n    tag_9:\n      mload(0x40)\n      dup1\n      swap2\n      sub\n      swap1\n      return\n        /* \"Estructuras de datos/arrays.sol\":202:269  function setX (uint x) public{\r... */\n    tag_4:\n      tag_11\n      0x04\n      dup1\n      calldatasize\n      sub\n      tag_12\n      swap2\n      swap1\n      dup2\n      add\n      swap1\n      jump(tag_7)\n    tag_12:\n      tag_13\n      jump\t// in\n    tag_11:\n      stop\n        /* \"Estructuras de datos/arrays.sol\":163:197  uint [] public vectorcito_dinamico */\n    tag_8:\n      0x07\n      dup2\n      dup2\n      sload\n      dup2\n      lt\n      tag_14\n      jumpi\n      invalid\n    tag_14:\n      swap1\n      0x00\n      mstore\n      keccak256(0x00, 0x20)\n      add\n      0x00\n      swap2\n      pop\n      swap1\n      pop\n      sload\n      dup2\n      jump\t// out\n        /* \"Estructuras de datos/arrays.sol\":202:269  function setX (uint x) public{\r... */\n    tag_13:\n        /* \"Estructuras de datos/arrays.sol\":238:257  vectorcito_dinamico */\n      0x07\n        /* \"Estructuras de datos/arrays.sol\":263:264  x */\n      dup2\n        /* \"Estructuras de datos/arrays.sol\":238:265  vectorcito_dinamico.push(x) */\n      swap1\n      dup1\n        /* \"--CODEGEN--\":39:40   */\n      0x01\n        /* \"--CODEGEN--\":33:36   */\n      dup2\n        /* \"--CODEGEN--\":27:37   */\n      sload\n        /* \"--CODEGEN--\":23:41   */\n      add\n        /* \"--CODEGEN--\":57:67   */\n      dup1\n        /* \"--CODEGEN--\":52:55   */\n      dup3\n        /* \"--CODEGEN--\":45:68   */\n      sstore\n        /* \"--CODEGEN--\":79:89   */\n      dup1\n        /* \"--CODEGEN--\":72:89   */\n      swap2\n      pop\n        /* \"--CODEGEN--\":0:93   */\n      pop\n        /* \"Estructuras de datos/arrays.sol\":238:265  vectorcito_dinamico.push(x) */\n      0x01\n      swap1\n      sub\n      swap1\n      0x00\n      mstore\n      keccak256(0x00, 0x20)\n      add\n      0x00\n      swap1\n      swap2\n      swap1\n      swap2\n      swap1\n      swap2\n      pop\n      sstore\n        /* \"Estructuras de datos/arrays.sol\":202:269  function setX (uint x) public{\r... */\n      pop\n      jump\t// out\n        /* \"--CODEGEN--\":5:135   */\n    tag_19:\n      0x00\n        /* \"--CODEGEN--\":85:91   */\n      dup2\n        /* \"--CODEGEN--\":72:92   */\n      calldataload\n        /* \"--CODEGEN--\":63:92   */\n      swap1\n      pop\n        /* \"--CODEGEN--\":97:130   */\n      tag_21\n        /* \"--CODEGEN--\":124:129   */\n      dup2\n        /* \"--CODEGEN--\":97:130   */\n      jump(tag_22)\n    tag_21:\n        /* \"--CODEGEN--\":57:135   */\n      swap3\n      swap2\n      pop\n      pop\n      jump\n        /* \"--CODEGEN--\":142:383   */\n    tag_7:\n      0x00\n        /* \"--CODEGEN--\":246:248   */\n      0x20\n        /* \"--CODEGEN--\":234:243   */\n      dup3\n        /* \"--CODEGEN--\":225:232   */\n      dup5\n        /* \"--CODEGEN--\":221:244   */\n      sub\n        /* \"--CODEGEN--\":217:249   */\n      slt\n        /* \"--CODEGEN--\":214:216   */\n      iszero\n      tag_24\n      jumpi\n        /* \"--CODEGEN--\":262:263   */\n      0x00\n        /* \"--CODEGEN--\":259:260   */\n      dup1\n        /* \"--CODEGEN--\":252:264   */\n      revert\n        /* \"--CODEGEN--\":214:216   */\n    tag_24:\n        /* \"--CODEGEN--\":297:298   */\n      0x00\n        /* \"--CODEGEN--\":314:367   */\n      tag_25\n        /* \"--CODEGEN--\":359:366   */\n      dup5\n        /* \"--CODEGEN--\":350:356   */\n      dup3\n        /* \"--CODEGEN--\":339:348   */\n      dup6\n        /* \"--CODEGEN--\":335:357   */\n      add\n        /* \"--CODEGEN--\":314:367   */\n      jump(tag_19)\n    tag_25:\n        /* \"--CODEGEN--\":304:367   */\n      swap2\n      pop\n        /* \"--CODEGEN--\":276:373   */\n      pop\n        /* \"--CODEGEN--\":208:383   */\n      swap3\n      swap2\n      pop\n      pop\n      jump\n        /* \"--CODEGEN--\":390:503   */\n    tag_26:\n        /* \"--CODEGEN--\":473:497   */\n      tag_28\n        /* \"--CODEGEN--\":491:496   */\n      dup2\n        /* \"--CODEGEN--\":473:497   */\n      jump(tag_29)\n    tag_28:\n        /* \"--CODEGEN--\":468:471   */\n      dup3\n        /* \"--CODEGEN--\":461:498   */\n      mstore\n        /* \"--CODEGEN--\":455:503   */\n      pop\n      pop\n      jump\n        /* \"--CODEGEN--\":510:723   */\n    tag_10:\n      0x00\n        /* \"--CODEGEN--\":628:630   */\n      0x20\n        /* \"--CODEGEN--\":617:626   */\n      dup3\n        /* \"--CODEGEN--\":613:631   */\n      add\n        /* \"--CODEGEN--\":605:631   */\n      swap1\n      pop\n        /* \"--CODEGEN--\":642:713   */\n      tag_31\n        /* \"--CODEGEN--\":710:711   */\n      0x00\n        /* \"--CODEGEN--\":699:708   */\n      dup4\n        /* \"--CODEGEN--\":695:712   */\n      add\n        /* \"--CODEGEN--\":686:692   */\n      dup5\n        /* \"--CODEGEN--\":642:713   */\n      jump(tag_26)\n    tag_31:\n        /* \"--CODEGEN--\":599:723   */\n      swap3\n      swap2\n      pop\n      pop\n      jump\n        /* \"--CODEGEN--\":730:802   */\n    tag_29:\n      0x00\n        /* \"--CODEGEN--\":792:797   */\n      dup2\n        /* \"--CODEGEN--\":781:797   */\n      swap1\n      pop\n        /* \"--CODEGEN--\":775:802   */\n      swap2\n      swap1\n      pop\n      jump\n        /* \"--CODEGEN--\":809:926   */\n    tag_22:\n        /* \"--CODEGEN--\":878:902   */\n      tag_34\n        /* \"--CODEGEN--\":896:901   */\n      dup2\n        /* \"--CODEGEN--\":878:902   */\n      jump(tag_29)\n    tag_34:\n        /* \"--CODEGEN--\":871:876   */\n      dup2\n        /* \"--CODEGEN--\":868:903   */\n      eq\n        /* \"--CODEGEN--\":858:860   */\n      tag_35\n      jumpi\n        /* \"--CODEGEN--\":917:918   */\n      0x00\n        /* \"--CODEGEN--\":914:915   */\n      dup1\n        /* \"--CODEGEN--\":907:919   */\n      revert\n        /* \"--CODEGEN--\":858:860   */\n    tag_35:\n        /* \"--CODEGEN--\":852:926   */\n      pop\n      jump\n\n    auxdata: 0xa2646970667358221220e1136cd605fc6cee3f0c750d83e483698f5224bbbe91874100e55abbef23b36f64736f6c63430006000033\n}\n",
				"bytecode": {
					"linkReferences": {},
					"object": "608060405260405180604001604052806040518060400160405280600181526020017f480000000000000000000000000000000000000000000000000000000000000081525081526020016040518060400160405280600181526020017f4f0000000000000000000000000000000000000000000000000000000000000081525081525060059060026100939291906100a6565b503480156100a057600080fd5b50610212565b82600281019282156100e8579160200282015b828111156100e75782518290805190602001906100d79291906100f9565b50916020019190600101906100b9565b5b5090506100f59190610179565b5090565b828054600181600116156101000203166002900490600052602060002090601f016020900481019282601f1061013a57805160ff1916838001178555610168565b82800160010185558215610168579182015b8281111561016757825182559160200191906001019061014c565b5b50905061017591906101a5565b5090565b6101a291905b8082111561019e576000818161019591906101ca565b5060010161017f565b5090565b90565b6101c791905b808211156101c35760008160009055506001016101ab565b5090565b90565b50805460018160011615610100020316600290046000825580601f106101f0575061020f565b601f01602090049060005260206000209081019061020e91906101a5565b5b50565b610193806102216000396000f3fe608060405234801561001057600080fd5b50600436106100365760003560e01c80631567479e1461003b5780634018d9aa1461006b575b600080fd5b610055600480360361005091908101906100e9565b610087565b6040516100629190610121565b60405180910390f35b610085600480360361008091908101906100e9565b6100a8565b005b6007818154811061009457fe5b906000526020600020016000915090505481565b600781908060018154018082558091505060019003906000526020600020016000909190919091505550565b6000813590506100e381610146565b92915050565b6000602082840312156100fb57600080fd5b6000610109848285016100d4565b91505092915050565b61011b8161013c565b82525050565b60006020820190506101366000830184610112565b92915050565b6000819050919050565b61014f8161013c565b811461015a57600080fd5b5056fea2646970667358221220e1136cd605fc6cee3f0c750d83e483698f5224bbbe91874100e55abbef23b36f64736f6c63430006000033",
					"opcodes": "PUSH1 0x80 PUSH1 0x40 MSTORE PUSH1 0x40 MLOAD DUP1 PUSH1 0x40 ADD PUSH1 0x40 MSTORE DUP1 PUSH1 0x40 MLOAD DUP1 PUSH1 0x40 ADD PUSH1 0x40 MSTORE DUP1 PUSH1 0x1 DUP2 MSTORE PUSH1 0x20 ADD PUSH32 0x4800000000000000000000000000000000000000000000000000000000000000 DUP2 MSTORE POP DUP2 MSTORE PUSH1 0x20 ADD PUSH1 0x40 MLOAD DUP1 PUSH1 0x40 ADD PUSH1 0x40 MSTORE DUP1 PUSH1 0x1 DUP2 MSTORE PUSH1 0x20 ADD PUSH32 0x4F00000000000000000000000000000000000000000000000000000000000000 DUP2 MSTORE POP DUP2 MSTORE POP PUSH1 0x5 SWAP1 PUSH1 0x2 PUSH2 0x93 SWAP3 SWAP2 SWAP1 PUSH2 0xA6 JUMP JUMPDEST POP CALLVALUE DUP1 ISZERO PUSH2 0xA0 JUMPI PUSH1 0x0 DUP1 REVERT JUMPDEST POP PUSH2 0x212 JUMP JUMPDEST DUP3 PUSH1 0x2 DUP2 ADD SWAP3 DUP3 ISZERO PUSH2 0xE8 JUMPI SWAP2 PUSH1 0x20 MUL DUP3 ADD JUMPDEST DUP3 DUP2 GT ISZERO PUSH2 0xE7 JUMPI DUP3 MLOAD DUP3 SWAP1 DUP1 MLOAD SWAP1 PUSH1 0x20 ADD SWAP1 PUSH2 0xD7 SWAP3 SWAP2 SWAP1 PUSH2 0xF9 JUMP JUMPDEST POP SWAP2 PUSH1 0x20 ADD SWAP2 SWAP1 PUSH1 0x1 ADD SWAP1 PUSH2 0xB9 JUMP JUMPDEST JUMPDEST POP SWAP1 POP PUSH2 0xF5 SWAP2 SWAP1 PUSH2 0x179 JUMP JUMPDEST POP SWAP1 JUMP JUMPDEST DUP3 DUP1 SLOAD PUSH1 0x1 DUP2 PUSH1 0x1 AND ISZERO PUSH2 0x100 MUL SUB AND PUSH1 0x2 SWAP1 DIV SWAP1 PUSH1 0x0 MSTORE PUSH1 0x20 PUSH1 0x0 KECCAK256 SWAP1 PUSH1 0x1F ADD PUSH1 0x20 SWAP1 DIV DUP2 ADD SWAP3 DUP3 PUSH1 0x1F LT PUSH2 0x13A JUMPI DUP1 MLOAD PUSH1 0xFF NOT AND DUP4 DUP1 ADD OR DUP6 SSTORE PUSH2 0x168 JUMP JUMPDEST DUP3 DUP1 ADD PUSH1 0x1 ADD DUP6 SSTORE DUP3 ISZERO PUSH2 0x168 JUMPI SWAP2 DUP3 ADD JUMPDEST DUP3 DUP2 GT ISZERO PUSH2 0x167 JUMPI DUP3 MLOAD DUP3 SSTORE SWAP2 PUSH1 0x20 ADD SWAP2 SWAP1 PUSH1 0x1 ADD SWAP1 PUSH2 0x14C JUMP JUMPDEST JUMPDEST POP SWAP1 POP PUSH2 0x175 SWAP2 SWAP1 PUSH2 0x1A5 JUMP JUMPDEST POP SWAP1 JUMP JUMPDEST PUSH2 0x1A2 SWAP2 SWAP1 JUMPDEST DUP1 DUP3 GT ISZERO PUSH2 0x19E JUMPI PUSH1 0x0 DUP2 DUP2 PUSH2 0x195 SWAP2 SWAP1 PUSH2 0x1CA JUMP JUMPDEST POP PUSH1 0x1 ADD PUSH2 0x17F JUMP JUMPDEST POP SWAP1 JUMP JUMPDEST SWAP1 JUMP JUMPDEST PUSH2 0x1C7 SWAP2 SWAP1 JUMPDEST DUP1 DUP3 GT ISZERO PUSH2 0x1C3 JUMPI PUSH1 0x0 DUP2 PUSH1 0x0 SWAP1 SSTORE POP PUSH1 0x1 ADD PUSH2 0x1AB JUMP JUMPDEST POP SWAP1 JUMP JUMPDEST SWAP1 JUMP JUMPDEST POP DUP1 SLOAD PUSH1 0x1 DUP2 PUSH1 0x1 AND ISZERO PUSH2 0x100 MUL SUB AND PUSH1 0x2 SWAP1 DIV PUSH1 0x0 DUP3 SSTORE DUP1 PUSH1 0x1F LT PUSH2 0x1F0 JUMPI POP PUSH2 0x20F JUMP JUMPDEST PUSH1 0x1F ADD PUSH1 0x20 SWAP1 DIV SWAP1 PUSH1 0x0 MSTORE PUSH1 0x20 PUSH1 0x0 KECCAK256 SWAP1 DUP2 ADD SWAP1 PUSH2 0x20E SWAP2 SWAP1 PUSH2 0x1A5 JUMP JUMPDEST JUMPDEST POP JUMP JUMPDEST PUSH2 0x193 DUP1 PUSH2 0x221 PUSH1 0x0 CODECOPY PUSH1 0x0 RETURN INVALID PUSH1 0x80 PUSH1 0x40 MSTORE CALLVALUE DUP1 ISZERO PUSH2 0x10 JUMPI PUSH1 0x0 DUP1 REVERT JUMPDEST POP PUSH1 0x4 CALLDATASIZE LT PUSH2 0x36 JUMPI PUSH1 0x0 CALLDATALOAD PUSH1 0xE0 SHR DUP1 PUSH4 0x1567479E EQ PUSH2 0x3B JUMPI DUP1 PUSH4 0x4018D9AA EQ PUSH2 0x6B JUMPI JUMPDEST PUSH1 0x0 DUP1 REVERT JUMPDEST PUSH2 0x55 PUSH1 0x4 DUP1 CALLDATASIZE SUB PUSH2 0x50 SWAP2 SWAP1 DUP2 ADD SWAP1 PUSH2 0xE9 JUMP JUMPDEST PUSH2 0x87 JUMP JUMPDEST PUSH1 0x40 MLOAD PUSH2 0x62 SWAP2 SWAP1 PUSH2 0x121 JUMP JUMPDEST PUSH1 0x40 MLOAD DUP1 SWAP2 SUB SWAP1 RETURN JUMPDEST PUSH2 0x85 PUSH1 0x4 DUP1 CALLDATASIZE SUB PUSH2 0x80 SWAP2 SWAP1 DUP2 ADD SWAP1 PUSH2 0xE9 JUMP JUMPDEST PUSH2 0xA8 JUMP JUMPDEST STOP JUMPDEST PUSH1 0x7 DUP2 DUP2 SLOAD DUP2 LT PUSH2 0x94 JUMPI INVALID JUMPDEST SWAP1 PUSH1 0x0 MSTORE PUSH1 0x20 PUSH1 0x0 KECCAK256 ADD PUSH1 0x0 SWAP2 POP SWAP1 POP SLOAD DUP2 JUMP JUMPDEST PUSH1 0x7 DUP2 SWAP1 DUP1 PUSH1 0x1 DUP2 SLOAD ADD DUP1 DUP3 SSTORE DUP1 SWAP2 POP POP PUSH1 0x1 SWAP1 SUB SWAP1 PUSH1 0x0 MSTORE PUSH1 0x20 PUSH1 0x0 KECCAK256 ADD PUSH1 0x0 SWAP1 SWAP2 SWAP1 SWAP2 SWAP1 SWAP2 POP SSTORE POP JUMP JUMPDEST PUSH1 0x0 DUP2 CALLDATALOAD SWAP1 POP PUSH2 0xE3 DUP2 PUSH2 0x146 JUMP JUMPDEST SWAP3 SWAP2 POP POP JUMP JUMPDEST PUSH1 0x0 PUSH1 0x20 DUP3 DUP5 SUB SLT ISZERO PUSH2 0xFB JUMPI PUSH1 0x0 DUP1 REVERT JUMPDEST PUSH1 0x0 PUSH2 0x109 DUP5 DUP3 DUP6 ADD PUSH2 0xD4 JUMP JUMPDEST SWAP2 POP POP SWAP3 SWAP2 POP POP JUMP JUMPDEST PUSH2 0x11B DUP2 PUSH2 0x13C JUMP JUMPDEST DUP3 MSTORE POP POP JUMP JUMPDEST PUSH1 0x0 PUSH1 0x20 DUP3 ADD SWAP1 POP PUSH2 0x136 PUSH1 0x0 DUP4 ADD DUP5 PUSH2 0x112 JUMP JUMPDEST SWAP3 SWAP2 POP POP JUMP JUMPDEST PUSH1 0x0 DUP2 SWAP1 POP SWAP2 SWAP1 POP JUMP JUMPDEST PUSH2 0x14F DUP2 PUSH2 0x13C JUMP JUMPDEST DUP2 EQ PUSH2 0x15A JUMPI PUSH1 0x0 DUP1 REVERT JUMPDEST POP JUMP INVALID LOG2 PUSH5 0x6970667358 0x22 SLT KECCAK256 0xE1 SGT PUSH13 0xD605FC6CEE3F0C750D83E48369 DUP16 MSTORE 0x24 0xBB 0xBE SWAP2 DUP8 COINBASE STOP 0xE5 GAS 0xBB 0xEF 0x23 0xB3 PUSH16 0x64736F6C634300060000330000000000 "
				},
				"gasEstimates": {
					"creation": {
						"codeDepositCost": "80600",
						"executionCost": "infinite",
						"totalCost": "infinite"
					},
					"external": {
						"setX(uint256)": "41329",
						"vectorcito_dinamico(uint256)": "infinite"
					}
				},
				"methodIdentifiers": {
					"setX(uint256)": "4018d9aa",
					"vectorcito_dinamico(uint256)": "1567479e"
				}
			},
			"storageLayout": {
				"storage": [
					{
						"astId": 6,
						"contract": "Estructuras de datos/arrays.sol:arrays",
						"label": "vectorcito",
						"offset": 0,
						"slot": "0",
						"type": "t_array(t_uint256)5_storage"
					},
					{
						"astId": 13,
						"contract": "Estructuras de datos/arrays.sol:arrays",
						"label": "vectorcito_string",
						"offset": 0,
						"slot": "5",
						"type": "t_array(t_string_storage)2_storage"
					},
					{
						"astId": 16,
						"contract": "Estructuras de datos/arrays.sol:arrays",
						"label": "vectorcito_dinamico",
						"offset": 0,
						"slot": "7",
						"type": "t_array(t_uint256)dyn_storage"
					}
				],
				"types": {
					"t_array(t_string_storage)2_storage": {
						"base": "t_string_storage",
						"encoding": "inplace",
						"label": "string[2]",
						"numberOfBytes": "64"
					},
					"t_array(t_uint256)5_storage": {
						"base": "t_uint256",
						"encoding": "inplace",
						"label": "uint256[5]",
						"numberOfBytes": "160"
					},
					"t_array(t_uint256)dyn_storage": {
						"base": "t_uint256",
						"encoding": "dynamic_array",
						"label": "uint256[]",
						"numberOfBytes": "32"
					},
					"t_string_storage": {
						"encoding": "bytes",
						"label": "string",
						"numberOfBytes": "32"
					},
					"t_uint256": {
						"encoding": "inplace",
						"label": "uint256",
						"numberOfBytes": "32"
					}
				}
			},
			"userdoc": {
				"methods": {}
			}
		}
	}
}