{
	"Estructuras de datos/mapping.sol": {
		"mappings": {
			"abi": [
				{
					"inputs": [],
					"name": "consultarMapping",
					"outputs": [
						{
							"internalType": "uint256",
							"name": "",
							"type": "uint256"
						}
					],
					"stateMutability": "view",
					"type": "function"
				},
				{
					"inputs": [
						{
							"internalType": "address",
							"name": "",
							"type": "address"
						}
					],
					"name": "elegirNumero",
					"outputs": [
						{
							"internalType": "uint256",
							"name": "",
							"type": "uint256"
						}
					],
					"stateMutability": "view",
					"type": "function"
				},
				{
					"inputs": [
						{
							"internalType": "uint256",
							"name": "_numero",
							"type": "uint256"
						}
					],
					"name": "insertar",
					"outputs": [],
					"stateMutability": "nonpayable",
					"type": "function"
				},
				{
					"inputs": [
						{
							"internalType": "uint256",
							"name": "_DNI",
							"type": "uint256"
						},
						{
							"internalType": "string",
							"name": "_nombre",
							"type": "string"
						},
						{
							"internalType": "uint256",
							"name": "_edad",
							"type": "uint256"
						}
					],
					"name": "setDNI",
					"outputs": [],
					"stateMutability": "nonpayable",
					"type": "function"
				}
			],
			"devdoc": {
				"methods": {}
			},
			"evm": {
				"assembly": "    /* \"Estructuras de datos/mapping.sol\":27:617  contract mappings{\r... */\n  mstore(0x40, 0x80)\n  callvalue\n    /* \"--CODEGEN--\":8:17   */\n  dup1\n    /* \"--CODEGEN--\":5:7   */\n  iszero\n  tag_1\n  jumpi\n    /* \"--CODEGEN--\":30:31   */\n  0x00\n    /* \"--CODEGEN--\":27:28   */\n  dup1\n    /* \"--CODEGEN--\":20:32   */\n  revert\n    /* \"--CODEGEN--\":5:7   */\ntag_1:\n    /* \"Estructuras de datos/mapping.sol\":27:617  contract mappings{\r... */\n  pop\n  dataSize(sub_0)\n  dup1\n  dataOffset(sub_0)\n  0x00\n  codecopy\n  0x00\n  return\nstop\n\nsub_0: assembly {\n        /* \"Estructuras de datos/mapping.sol\":27:617  contract mappings{\r... */\n      mstore(0x40, 0x80)\n      callvalue\n        /* \"--CODEGEN--\":8:17   */\n      dup1\n        /* \"--CODEGEN--\":5:7   */\n      iszero\n      tag_1\n      jumpi\n        /* \"--CODEGEN--\":30:31   */\n      0x00\n        /* \"--CODEGEN--\":27:28   */\n      dup1\n        /* \"--CODEGEN--\":20:32   */\n      revert\n        /* \"--CODEGEN--\":5:7   */\n    tag_1:\n        /* \"Estructuras de datos/mapping.sol\":27:617  contract mappings{\r... */\n      pop\n      jumpi(tag_2, lt(calldatasize, 0x04))\n      shr(0xe0, calldataload(0x00))\n      dup1\n      0x542270de\n      eq\n      tag_3\n      jumpi\n      dup1\n      0xaf736f2f\n      eq\n      tag_4\n      jumpi\n      dup1\n      0xd46318d0\n      eq\n      tag_5\n      jumpi\n      dup1\n      0xedc46d9d\n      eq\n      tag_6\n      jumpi\n    tag_2:\n      0x00\n      dup1\n      revert\n        /* \"Estructuras de datos/mapping.sol\":484:614  function setDNI(uint _DNI, string memory _nombre, uint _edad) public {\r... */\n    tag_3:\n      tag_7\n      0x04\n      dup1\n      calldatasize\n      sub\n        /* \"--CODEGEN--\":13:15   */\n      0x60\n        /* \"--CODEGEN--\":8:11   */\n      dup2\n        /* \"--CODEGEN--\":5:16   */\n      lt\n        /* \"--CODEGEN--\":2:4   */\n      iszero\n      tag_8\n      jumpi\n        /* \"--CODEGEN--\":29:30   */\n      0x00\n        /* \"--CODEGEN--\":26:27   */\n      dup1\n        /* \"--CODEGEN--\":19:31   */\n      revert\n        /* \"--CODEGEN--\":2:4   */\n    tag_8:\n        /* \"Estructuras de datos/mapping.sol\":484:614  function setDNI(uint _DNI, string memory _nombre, uint _edad) public {\r... */\n      dup2\n      add\n      swap1\n      dup1\n      dup1\n      calldataload\n      swap1\n      0x20\n      add\n      swap1\n      swap3\n      swap2\n      swap1\n      dup1\n      calldataload\n      swap1\n      0x20\n      add\n      swap1\n        /* \"--CODEGEN--\":21:32   */\n      0x0100000000\n        /* \"--CODEGEN--\":8:19   */\n      dup2\n        /* \"--CODEGEN--\":5:33   */\n      gt\n        /* \"--CODEGEN--\":2:4   */\n      iszero\n      tag_9\n      jumpi\n        /* \"--CODEGEN--\":46:47   */\n      0x00\n        /* \"--CODEGEN--\":43:44   */\n      dup1\n        /* \"--CODEGEN--\":36:48   */\n      revert\n        /* \"--CODEGEN--\":2:4   */\n    tag_9:\n        /* \"Estructuras de datos/mapping.sol\":484:614  function setDNI(uint _DNI, string memory _nombre, uint _edad) public {\r... */\n      dup3\n      add\n        /* \"--CODEGEN--\":35:44   */\n      dup4\n        /* \"--CODEGEN--\":28:32   */\n      0x20\n        /* \"--CODEGEN--\":12:26   */\n      dup3\n        /* \"--CODEGEN--\":8:33   */\n      add\n        /* \"--CODEGEN--\":5:45   */\n      gt\n        /* \"--CODEGEN--\":2:4   */\n      iszero\n      tag_10\n      jumpi\n        /* \"--CODEGEN--\":58:59   */\n      0x00\n        /* \"--CODEGEN--\":55:56   */\n      dup1\n        /* \"--CODEGEN--\":48:60   */\n      revert\n        /* \"--CODEGEN--\":2:4   */\n    tag_10:\n        /* \"Estructuras de datos/mapping.sol\":484:614  function setDNI(uint _DNI, string memory _nombre, uint _edad) public {\r... */\n      dup1\n      calldataload\n      swap1\n      0x20\n      add\n      swap2\n        /* \"--CODEGEN--\":100:109   */\n      dup5\n        /* \"--CODEGEN--\":95:96   */\n      0x01\n        /* \"--CODEGEN--\":81:93   */\n      dup4\n        /* \"--CODEGEN--\":77:97   */\n      mul\n        /* \"--CODEGEN--\":67:75   */\n      dup5\n        /* \"--CODEGEN--\":63:98   */\n      add\n        /* \"--CODEGEN--\":60:110   */\n      gt\n        /* \"--CODEGEN--\":39:50   */\n      0x0100000000\n        /* \"--CODEGEN--\":25:37   */\n      dup4\n        /* \"--CODEGEN--\":22:51   */\n      gt\n        /* \"--CODEGEN--\":11:118   */\n      or\n        /* \"--CODEGEN--\":8:10   */\n      iszero\n      tag_11\n      jumpi\n        /* \"--CODEGEN--\":131:132   */\n      0x00\n        /* \"--CODEGEN--\":128:129   */\n      dup1\n        /* \"--CODEGEN--\":121:133   */\n      revert\n        /* \"--CODEGEN--\":8:10   */\n    tag_11:\n        /* \"Estructuras de datos/mapping.sol\":484:614  function setDNI(uint _DNI, string memory _nombre, uint _edad) public {\r... */\n      swap2\n      swap1\n      dup1\n      dup1\n      0x1f\n      add\n      0x20\n      dup1\n      swap2\n      div\n      mul\n      0x20\n      add\n      mload(0x40)\n      swap1\n      dup2\n      add\n      0x40\n      mstore\n      dup1\n      swap4\n      swap3\n      swap2\n      swap1\n      dup2\n      dup2\n      mstore\n      0x20\n      add\n      dup4\n      dup4\n        /* \"--CODEGEN--\":30:33   */\n      dup1\n        /* \"--CODEGEN--\":22:28   */\n      dup3\n        /* \"--CODEGEN--\":14:20   */\n      dup5\n        /* \"--CODEGEN--\":1:34   */\n      calldatacopy\n        /* \"--CODEGEN--\":99:100   */\n      0x00\n        /* \"--CODEGEN--\":93:96   */\n      dup2\n        /* \"--CODEGEN--\":85:91   */\n      dup5\n        /* \"--CODEGEN--\":81:97   */\n      add\n        /* \"--CODEGEN--\":74:101   */\n      mstore\n        /* \"--CODEGEN--\":137:141   */\n      0x1f\n        /* \"--CODEGEN--\":133:142   */\n      not\n        /* \"--CODEGEN--\":126:130   */\n      0x1f\n        /* \"--CODEGEN--\":121:124   */\n      dup3\n        /* \"--CODEGEN--\":117:131   */\n      add\n        /* \"--CODEGEN--\":113:143   */\n      and\n        /* \"--CODEGEN--\":106:143   */\n      swap1\n      pop\n        /* \"--CODEGEN--\":169:172   */\n      dup1\n        /* \"--CODEGEN--\":161:167   */\n      dup4\n        /* \"--CODEGEN--\":157:173   */\n      add\n        /* \"--CODEGEN--\":147:173   */\n      swap3\n      pop\n        /* \"Estructuras de datos/mapping.sol\":484:614  function setDNI(uint _DNI, string memory _nombre, uint _edad) public {\r... */\n      pop\n      pop\n      pop\n      pop\n      pop\n      pop\n      swap2\n      swap3\n      swap2\n      swap3\n      swap1\n      dup1\n      calldataload\n      swap1\n      0x20\n      add\n      swap1\n      swap3\n      swap2\n      swap1\n      pop\n      pop\n      pop\n      tag_12\n      jump\t// in\n    tag_7:\n      stop\n        /* \"Estructuras de datos/mapping.sol\":106:198  function insertar(uint _numero) public {\r... */\n    tag_4:\n      tag_13\n      0x04\n      dup1\n      calldatasize\n      sub\n        /* \"--CODEGEN--\":13:15   */\n      0x20\n        /* \"--CODEGEN--\":8:11   */\n      dup2\n        /* \"--CODEGEN--\":5:16   */\n      lt\n        /* \"--CODEGEN--\":2:4   */\n      iszero\n      tag_14\n      jumpi\n        /* \"--CODEGEN--\":29:30   */\n      0x00\n        /* \"--CODEGEN--\":26:27   */\n      dup1\n        /* \"--CODEGEN--\":19:31   */\n      revert\n        /* \"--CODEGEN--\":2:4   */\n    tag_14:\n        /* \"Estructuras de datos/mapping.sol\":106:198  function insertar(uint _numero) public {\r... */\n      dup2\n      add\n      swap1\n      dup1\n      dup1\n      calldataload\n      swap1\n      0x20\n      add\n      swap1\n      swap3\n      swap2\n      swap1\n      pop\n      pop\n      pop\n      tag_15\n      jump\t// in\n    tag_13:\n      stop\n        /* \"Estructuras de datos/mapping.sol\":206:309  function consultarMapping() public view returns(uint){\r... */\n    tag_5:\n      tag_16\n      tag_17\n      jump\t// in\n    tag_16:\n      mload(0x40)\n      dup1\n      dup3\n      dup2\n      mstore\n      0x20\n      add\n      swap2\n      pop\n      pop\n      mload(0x40)\n      dup1\n      swap2\n      sub\n      swap1\n      return\n        /* \"Estructuras de datos/mapping.sol\":53:97  mapping(address => uint) public elegirNumero */\n    tag_6:\n      tag_18\n      0x04\n      dup1\n      calldatasize\n      sub\n        /* \"--CODEGEN--\":13:15   */\n      0x20\n        /* \"--CODEGEN--\":8:11   */\n      dup2\n        /* \"--CODEGEN--\":5:16   */\n      lt\n        /* \"--CODEGEN--\":2:4   */\n      iszero\n      tag_19\n      jumpi\n        /* \"--CODEGEN--\":29:30   */\n      0x00\n        /* \"--CODEGEN--\":26:27   */\n      dup1\n        /* \"--CODEGEN--\":19:31   */\n      revert\n        /* \"--CODEGEN--\":2:4   */\n    tag_19:\n        /* \"Estructuras de datos/mapping.sol\":53:97  mapping(address => uint) public elegirNumero */\n      dup2\n      add\n      swap1\n      dup1\n      dup1\n      calldataload\n      0xffffffffffffffffffffffffffffffffffffffff\n      and\n      swap1\n      0x20\n      add\n      swap1\n      swap3\n      swap2\n      swap1\n      pop\n      pop\n      pop\n      tag_20\n      jump\t// in\n    tag_18:\n      mload(0x40)\n      dup1\n      dup3\n      dup2\n      mstore\n      0x20\n      add\n      swap2\n      pop\n      pop\n      mload(0x40)\n      dup1\n      swap2\n      sub\n      swap1\n      return\n        /* \"Estructuras de datos/mapping.sol\":484:614  function setDNI(uint _DNI, string memory _nombre, uint _edad) public {\r... */\n    tag_12:\n        /* \"Estructuras de datos/mapping.sol\":583:606  Persona(_nombre, _edad) */\n      mload(0x40)\n      dup1\n      0x40\n      add\n      0x40\n      mstore\n      dup1\n        /* \"Estructuras de datos/mapping.sol\":591:598  _nombre */\n      dup4\n        /* \"Estructuras de datos/mapping.sol\":583:606  Persona(_nombre, _edad) */\n      dup2\n      mstore\n      0x20\n      add\n        /* \"Estructuras de datos/mapping.sol\":600:605  _edad */\n      dup3\n        /* \"Estructuras de datos/mapping.sol\":583:606  Persona(_nombre, _edad) */\n      dup2\n      mstore\n      pop\n        /* \"Estructuras de datos/mapping.sol\":566:574  personas */\n      0x02\n        /* \"Estructuras de datos/mapping.sol\":566:580  personas[_DNI] */\n      0x00\n        /* \"Estructuras de datos/mapping.sol\":575:579  _DNI */\n      dup6\n        /* \"Estructuras de datos/mapping.sol\":566:580  personas[_DNI] */\n      dup2\n      mstore\n      0x20\n      add\n      swap1\n      dup2\n      mstore\n      0x20\n      add\n      0x00\n      keccak256\n        /* \"Estructuras de datos/mapping.sol\":566:606  personas[_DNI] = Persona(_nombre, _edad) */\n      0x00\n      dup3\n      add\n      mload\n      dup2\n      0x00\n      add\n      swap1\n      dup1\n      mload\n      swap1\n      0x20\n      add\n      swap1\n      tag_22\n      swap3\n      swap2\n      swap1\n      tag_23\n      jump\t// in\n    tag_22:\n      pop\n      0x20\n      dup3\n      add\n      mload\n      dup2\n      0x01\n      add\n      sstore\n      swap1\n      pop\n      pop\n        /* \"Estructuras de datos/mapping.sol\":484:614  function setDNI(uint _DNI, string memory _nombre, uint _edad) public {\r... */\n      pop\n      pop\n      pop\n      jump\t// out\n        /* \"Estructuras de datos/mapping.sol\":106:198  function insertar(uint _numero) public {\r... */\n    tag_15:\n        /* \"Estructuras de datos/mapping.sol\":183:190  _numero */\n      dup1\n        /* \"Estructuras de datos/mapping.sol\":156:168  elegirNumero */\n      0x00\n        /* \"Estructuras de datos/mapping.sol\":156:180  elegirNumero[msg.sender] */\n      dup1\n        /* \"Estructuras de datos/mapping.sol\":169:179  msg.sender */\n      caller\n        /* \"Estructuras de datos/mapping.sol\":156:180  elegirNumero[msg.sender] */\n      0xffffffffffffffffffffffffffffffffffffffff\n      and\n      0xffffffffffffffffffffffffffffffffffffffff\n      and\n      dup2\n      mstore\n      0x20\n      add\n      swap1\n      dup2\n      mstore\n      0x20\n      add\n      0x00\n      keccak256\n        /* \"Estructuras de datos/mapping.sol\":156:190  elegirNumero[msg.sender] = _numero */\n      dup2\n      swap1\n      sstore\n      pop\n        /* \"Estructuras de datos/mapping.sol\":106:198  function insertar(uint _numero) public {\r... */\n      pop\n      jump\t// out\n        /* \"Estructuras de datos/mapping.sol\":206:309  function consultarMapping() public view returns(uint){\r... */\n    tag_17:\n        /* \"Estructuras de datos/mapping.sol\":254:258  uint */\n      0x00\n        /* \"Estructuras de datos/mapping.sol\":277:289  elegirNumero */\n      dup1\n        /* \"Estructuras de datos/mapping.sol\":277:301  elegirNumero[msg.sender] */\n      0x00\n        /* \"Estructuras de datos/mapping.sol\":290:300  msg.sender */\n      caller\n        /* \"Estructuras de datos/mapping.sol\":277:301  elegirNumero[msg.sender] */\n      0xffffffffffffffffffffffffffffffffffffffff\n      and\n      0xffffffffffffffffffffffffffffffffffffffff\n      and\n      dup2\n      mstore\n      0x20\n      add\n      swap1\n      dup2\n      mstore\n      0x20\n      add\n      0x00\n      keccak256\n      sload\n        /* \"Estructuras de datos/mapping.sol\":270:301  return elegirNumero[msg.sender] */\n      swap1\n      pop\n        /* \"Estructuras de datos/mapping.sol\":206:309  function consultarMapping() public view returns(uint){\r... */\n      swap1\n      jump\t// out\n        /* \"Estructuras de datos/mapping.sol\":53:97  mapping(address => uint) public elegirNumero */\n    tag_20:\n      mstore(0x20, 0x00)\n      dup1\n      0x00\n      mstore\n      keccak256(0x00, 0x40)\n      0x00\n      swap2\n      pop\n      swap1\n      pop\n      sload\n      dup2\n      jump\t// out\n        /* \"Estructuras de datos/mapping.sol\":27:617  contract mappings{\r... */\n    tag_23:\n      dup3\n      dup1\n      sload\n      0x01\n      dup2\n      0x01\n      and\n      iszero\n      0x0100\n      mul\n      sub\n      and\n      0x02\n      swap1\n      div\n      swap1\n      0x00\n      mstore\n      keccak256(0x00, 0x20)\n      swap1\n      0x1f\n      add\n      0x20\n      swap1\n      div\n      dup2\n      add\n      swap3\n      dup3\n      0x1f\n      lt\n      tag_27\n      jumpi\n      dup1\n      mload\n      not(0xff)\n      and\n      dup4\n      dup1\n      add\n      or\n      dup6\n      sstore\n      jump(tag_26)\n    tag_27:\n      dup3\n      dup1\n      add\n      0x01\n      add\n      dup6\n      sstore\n      dup3\n      iszero\n      tag_26\n      jumpi\n      swap2\n      dup3\n      add\n    tag_28:\n      dup3\n      dup2\n      gt\n      iszero\n      tag_29\n      jumpi\n      dup3\n      mload\n      dup3\n      sstore\n      swap2\n      0x20\n      add\n      swap2\n      swap1\n      0x01\n      add\n      swap1\n      jump(tag_28)\n    tag_29:\n    tag_26:\n      pop\n      swap1\n      pop\n      tag_30\n      swap2\n      swap1\n      tag_31\n      jump\t// in\n    tag_30:\n      pop\n      swap1\n      jump\t// out\n    tag_31:\n      tag_32\n      swap2\n      swap1\n    tag_33:\n      dup1\n      dup3\n      gt\n      iszero\n      tag_34\n      jumpi\n      0x00\n      dup2\n      0x00\n      swap1\n      sstore\n      pop\n      0x01\n      add\n      jump(tag_33)\n    tag_34:\n      pop\n      swap1\n      jump\n    tag_32:\n      swap1\n      jump\t// out\n\n    auxdata: 0xa264697066735822122081dfad97c6a02c03e5c3b0cd0db47d0aac4a3bcbadd8679440cd60eb20f4d8a064736f6c63430006000033\n}\n",
				"bytecode": {
					"linkReferences": {},
					"object": "608060405234801561001057600080fd5b5061039a806100206000396000f3fe608060405234801561001057600080fd5b506004361061004c5760003560e01c8063542270de14610051578063af736f2f14610120578063d46318d01461014e578063edc46d9d1461016c575b600080fd5b61011e6004803603606081101561006757600080fd5b81019080803590602001909291908035906020019064010000000081111561008e57600080fd5b8201836020820111156100a057600080fd5b803590602001918460018302840111640100000000831117156100c257600080fd5b91908080601f016020809104026020016040519081016040528093929190818152602001838380828437600081840152601f19601f820116905080830192505050505050509192919290803590602001909291905050506101c4565b005b61014c6004803603602081101561013657600080fd5b810190808035906020019092919050505061021b565b005b610156610261565b6040518082815260200191505060405180910390f35b6101ae6004803603602081101561018257600080fd5b81019080803573ffffffffffffffffffffffffffffffffffffffff1690602001909291905050506102a7565b6040518082815260200191505060405180910390f35b6040518060400160405280838152602001828152506002600085815260200190815260200160002060008201518160000190805190602001906102089291906102bf565b5060208201518160010155905050505050565b806000803373ffffffffffffffffffffffffffffffffffffffff1673ffffffffffffffffffffffffffffffffffffffff1681526020019081526020016000208190555050565b60008060003373ffffffffffffffffffffffffffffffffffffffff1673ffffffffffffffffffffffffffffffffffffffff16815260200190815260200160002054905090565b60006020528060005260406000206000915090505481565b828054600181600116156101000203166002900490600052602060002090601f016020900481019282601f1061030057805160ff191683800117855561032e565b8280016001018555821561032e579182015b8281111561032d578251825591602001919060010190610312565b5b50905061033b919061033f565b5090565b61036191905b8082111561035d576000816000905550600101610345565b5090565b9056fea264697066735822122081dfad97c6a02c03e5c3b0cd0db47d0aac4a3bcbadd8679440cd60eb20f4d8a064736f6c63430006000033",
					"opcodes": "PUSH1 0x80 PUSH1 0x40 MSTORE CALLVALUE DUP1 ISZERO PUSH2 0x10 JUMPI PUSH1 0x0 DUP1 REVERT JUMPDEST POP PUSH2 0x39A DUP1 PUSH2 0x20 PUSH1 0x0 CODECOPY PUSH1 0x0 RETURN INVALID PUSH1 0x80 PUSH1 0x40 MSTORE CALLVALUE DUP1 ISZERO PUSH2 0x10 JUMPI PUSH1 0x0 DUP1 REVERT JUMPDEST POP PUSH1 0x4 CALLDATASIZE LT PUSH2 0x4C JUMPI PUSH1 0x0 CALLDATALOAD PUSH1 0xE0 SHR DUP1 PUSH4 0x542270DE EQ PUSH2 0x51 JUMPI DUP1 PUSH4 0xAF736F2F EQ PUSH2 0x120 JUMPI DUP1 PUSH4 0xD46318D0 EQ PUSH2 0x14E JUMPI DUP1 PUSH4 0xEDC46D9D EQ PUSH2 0x16C JUMPI JUMPDEST PUSH1 0x0 DUP1 REVERT JUMPDEST PUSH2 0x11E PUSH1 0x4 DUP1 CALLDATASIZE SUB PUSH1 0x60 DUP2 LT ISZERO PUSH2 0x67 JUMPI PUSH1 0x0 DUP1 REVERT JUMPDEST DUP2 ADD SWAP1 DUP1 DUP1 CALLDATALOAD SWAP1 PUSH1 0x20 ADD SWAP1 SWAP3 SWAP2 SWAP1 DUP1 CALLDATALOAD SWAP1 PUSH1 0x20 ADD SWAP1 PUSH5 0x100000000 DUP2 GT ISZERO PUSH2 0x8E JUMPI PUSH1 0x0 DUP1 REVERT JUMPDEST DUP3 ADD DUP4 PUSH1 0x20 DUP3 ADD GT ISZERO PUSH2 0xA0 JUMPI PUSH1 0x0 DUP1 REVERT JUMPDEST DUP1 CALLDATALOAD SWAP1 PUSH1 0x20 ADD SWAP2 DUP5 PUSH1 0x1 DUP4 MUL DUP5 ADD GT PUSH5 0x100000000 DUP4 GT OR ISZERO PUSH2 0xC2 JUMPI PUSH1 0x0 DUP1 REVERT JUMPDEST SWAP2 SWAP1 DUP1 DUP1 PUSH1 0x1F ADD PUSH1 0x20 DUP1 SWAP2 DIV MUL PUSH1 0x20 ADD PUSH1 0x40 MLOAD SWAP1 DUP2 ADD PUSH1 0x40 MSTORE DUP1 SWAP4 SWAP3 SWAP2 SWAP1 DUP2 DUP2 MSTORE PUSH1 0x20 ADD DUP4 DUP4 DUP1 DUP3 DUP5 CALLDATACOPY PUSH1 0x0 DUP2 DUP5 ADD MSTORE PUSH1 0x1F NOT PUSH1 0x1F DUP3 ADD AND SWAP1 POP DUP1 DUP4 ADD SWAP3 POP POP POP POP POP POP POP SWAP2 SWAP3 SWAP2 SWAP3 SWAP1 DUP1 CALLDATALOAD SWAP1 PUSH1 0x20 ADD SWAP1 SWAP3 SWAP2 SWAP1 POP POP POP PUSH2 0x1C4 JUMP JUMPDEST STOP JUMPDEST PUSH2 0x14C PUSH1 0x4 DUP1 CALLDATASIZE SUB PUSH1 0x20 DUP2 LT ISZERO PUSH2 0x136 JUMPI PUSH1 0x0 DUP1 REVERT JUMPDEST DUP2 ADD SWAP1 DUP1 DUP1 CALLDATALOAD SWAP1 PUSH1 0x20 ADD SWAP1 SWAP3 SWAP2 SWAP1 POP POP POP PUSH2 0x21B JUMP JUMPDEST STOP JUMPDEST PUSH2 0x156 PUSH2 0x261 JUMP JUMPDEST PUSH1 0x40 MLOAD DUP1 DUP3 DUP2 MSTORE PUSH1 0x20 ADD SWAP2 POP POP PUSH1 0x40 MLOAD DUP1 SWAP2 SUB SWAP1 RETURN JUMPDEST PUSH2 0x1AE PUSH1 0x4 DUP1 CALLDATASIZE SUB PUSH1 0x20 DUP2 LT ISZERO PUSH2 0x182 JUMPI PUSH1 0x0 DUP1 REVERT JUMPDEST DUP2 ADD SWAP1 DUP1 DUP1 CALLDATALOAD PUSH20 0xFFFFFFFFFFFFFFFFFFFFFFFFFFFFFFFFFFFFFFFF AND SWAP1 PUSH1 0x20 ADD SWAP1 SWAP3 SWAP2 SWAP1 POP POP POP PUSH2 0x2A7 JUMP JUMPDEST PUSH1 0x40 MLOAD DUP1 DUP3 DUP2 MSTORE PUSH1 0x20 ADD SWAP2 POP POP PUSH1 0x40 MLOAD DUP1 SWAP2 SUB SWAP1 RETURN JUMPDEST PUSH1 0x40 MLOAD DUP1 PUSH1 0x40 ADD PUSH1 0x40 MSTORE DUP1 DUP4 DUP2 MSTORE PUSH1 0x20 ADD DUP3 DUP2 MSTORE POP PUSH1 0x2 PUSH1 0x0 DUP6 DUP2 MSTORE PUSH1 0x20 ADD SWAP1 DUP2 MSTORE PUSH1 0x20 ADD PUSH1 0x0 KECCAK256 PUSH1 0x0 DUP3 ADD MLOAD DUP2 PUSH1 0x0 ADD SWAP1 DUP1 MLOAD SWAP1 PUSH1 0x20 ADD SWAP1 PUSH2 0x208 SWAP3 SWAP2 SWAP1 PUSH2 0x2BF JUMP JUMPDEST POP PUSH1 0x20 DUP3 ADD MLOAD DUP2 PUSH1 0x1 ADD SSTORE SWAP1 POP POP POP POP POP JUMP JUMPDEST DUP1 PUSH1 0x0 DUP1 CALLER PUSH20 0xFFFFFFFFFFFFFFFFFFFFFFFFFFFFFFFFFFFFFFFF AND PUSH20 0xFFFFFFFFFFFFFFFFFFFFFFFFFFFFFFFFFFFFFFFF AND DUP2 MSTORE PUSH1 0x20 ADD SWAP1 DUP2 MSTORE PUSH1 0x20 ADD PUSH1 0x0 KECCAK256 DUP2 SWAP1 SSTORE POP POP JUMP JUMPDEST PUSH1 0x0 DUP1 PUSH1 0x0 CALLER PUSH20 0xFFFFFFFFFFFFFFFFFFFFFFFFFFFFFFFFFFFFFFFF AND PUSH20 0xFFFFFFFFFFFFFFFFFFFFFFFFFFFFFFFFFFFFFFFF AND DUP2 MSTORE PUSH1 0x20 ADD SWAP1 DUP2 MSTORE PUSH1 0x20 ADD PUSH1 0x0 KECCAK256 SLOAD SWAP1 POP SWAP1 JUMP JUMPDEST PUSH1 0x0 PUSH1 0x20 MSTORE DUP1 PUSH1 0x0 MSTORE PUSH1 0x40 PUSH1 0x0 KECCAK256 PUSH1 0x0 SWAP2 POP SWAP1 POP SLOAD DUP2 JUMP JUMPDEST DUP3 DUP1 SLOAD PUSH1 0x1 DUP2 PUSH1 0x1 AND ISZERO PUSH2 0x100 MUL SUB AND PUSH1 0x2 SWAP1 DIV SWAP1 PUSH1 0x0 MSTORE PUSH1 0x20 PUSH1 0x0 KECCAK256 SWAP1 PUSH1 0x1F ADD PUSH1 0x20 SWAP1 DIV DUP2 ADD SWAP3 DUP3 PUSH1 0x1F LT PUSH2 0x300 JUMPI DUP1 MLOAD PUSH1 0xFF NOT AND DUP4 DUP1 ADD OR DUP6 SSTORE PUSH2 0x32E JUMP JUMPDEST DUP3 DUP1 ADD PUSH1 0x1 ADD DUP6 SSTORE DUP3 ISZERO PUSH2 0x32E JUMPI SWAP2 DUP3 ADD JUMPDEST DUP3 DUP2 GT ISZERO PUSH2 0x32D JUMPI DUP3 MLOAD DUP3 SSTORE SWAP2 PUSH1 0x20 ADD SWAP2 SWAP1 PUSH1 0x1 ADD SWAP1 PUSH2 0x312 JUMP JUMPDEST JUMPDEST POP SWAP1 POP PUSH2 0x33B SWAP2 SWAP1 PUSH2 0x33F JUMP JUMPDEST POP SWAP1 JUMP JUMPDEST PUSH2 0x361 SWAP2 SWAP1 JUMPDEST DUP1 DUP3 GT ISZERO PUSH2 0x35D JUMPI PUSH1 0x0 DUP2 PUSH1 0x0 SWAP1 SSTORE POP PUSH1 0x1 ADD PUSH2 0x345 JUMP JUMPDEST POP SWAP1 JUMP JUMPDEST SWAP1 JUMP INVALID LOG2 PUSH5 0x6970667358 0x22 SLT KECCAK256 DUP2 0xDF 0xAD SWAP8 0xC6 LOG0 0x2C SUB 0xE5 0xC3 0xB0 0xCD 0xD 0xB4 PUSH30 0xAAC4A3BCBADD8679440CD60EB20F4D8A064736F6C634300060000330000 "
				},
				"gasEstimates": {
					"creation": {
						"codeDepositCost": "184400",
						"executionCost": "226",
						"totalCost": "184626"
					},
					"external": {
						"consultarMapping()": "1124",
						"elegirNumero(address)": "1213",
						"insertar(uint256)": "20331",
						"setDNI(uint256,string,uint256)": "infinite"
					}
				},
				"methodIdentifiers": {
					"consultarMapping()": "d46318d0",
					"elegirNumero(address)": "edc46d9d",
					"insertar(uint256)": "af736f2f",
					"setDNI(uint256,string,uint256)": "542270de"
				}
			},
			"storageLayout": {
				"storage": [
					{
						"astId": 5,
						"contract": "Estructuras de datos/mapping.sol:mappings",
						"label": "elegirNumero",
						"offset": 0,
						"slot": "0",
						"type": "t_mapping(t_address,t_uint256)"
					},
					{
						"astId": 33,
						"contract": "Estructuras de datos/mapping.sol:mappings",
						"label": "cantidad_dineros",
						"offset": 0,
						"slot": "1",
						"type": "t_mapping(t_string_memory,t_uint256)"
					},
					{
						"astId": 42,
						"contract": "Estructuras de datos/mapping.sol:mappings",
						"label": "personas",
						"offset": 0,
						"slot": "2",
						"type": "t_mapping(t_uint256,t_struct(Persona)38_storage)"
					}
				],
				"types": {
					"t_address": {
						"encoding": "inplace",
						"label": "address",
						"numberOfBytes": "20"
					},
					"t_mapping(t_address,t_uint256)": {
						"encoding": "mapping",
						"key": "t_address",
						"label": "mapping(address => uint256)",
						"numberOfBytes": "32",
						"value": "t_uint256"
					},
					"t_mapping(t_string_memory,t_uint256)": {
						"encoding": "mapping",
						"key": "t_string_memory",
						"label": "mapping(string => uint256)",
						"numberOfBytes": "32",
						"value": "t_uint256"
					},
					"t_mapping(t_uint256,t_struct(Persona)38_storage)": {
						"encoding": "mapping",
						"key": "t_uint256",
						"label": "mapping(uint256 => struct mappings.Persona)",
						"numberOfBytes": "32",
						"value": "t_struct(Persona)38_storage"
					},
					"t_string_memory": {
						"encoding": "bytes",
						"label": "string",
						"numberOfBytes": "32"
					},
					"t_string_storage": {
						"encoding": "bytes",
						"label": "string",
						"numberOfBytes": "32"
					},
					"t_struct(Persona)38_storage": {
						"encoding": "inplace",
						"label": "struct mappings.Persona",
						"members": [
							{
								"astId": 35,
								"contract": "Estructuras de datos/mapping.sol:mappings",
								"label": "nombre",
								"offset": 0,
								"slot": "0",
								"type": "t_string_storage"
							},
							{
								"astId": 37,
								"contract": "Estructuras de datos/mapping.sol:mappings",
								"label": "edad",
								"offset": 0,
								"slot": "1",
								"type": "t_uint256"
							}
						],
						"numberOfBytes": "64"
					},
					"t_uint256": {
						"encoding": "inplace",
						"label": "uint256",
						"numberOfBytes": "32"
					}
				}
			},
			"userdoc": {
				"methods": {}
			}
		}
	}
}