{
	"Estructuras de datos/mapping.sol": {
		"mappings": {
			"abi": [
				{
					"inputs": [],
					"name": "consultarMapping",
					"outputs": [
						{
							"internalType": "uint256",
							"name": "",
							"type": "uint256"
						}
					],
					"stateMutability": "view",
					"type": "function"
				},
				{
					"inputs": [
						{
							"internalType": "address",
							"name": "",
							"type": "address"
						}
					],
					"name": "elegirNumero",
					"outputs": [
						{
							"internalType": "uint256",
							"name": "",
							"type": "uint256"
						}
					],
					"stateMutability": "view",
					"type": "function"
				},
				{
					"inputs": [
						{
							"internalType": "uint256",
							"name": "_numero",
							"type": "uint256"
						}
					],
					"name": "insertar",
					"outputs": [],
					"stateMutability": "nonpayable",
					"type": "function"
				}
			],
			"devdoc": {
				"methods": {}
			},
			"evm": {
				"assembly": "    /* \"Estructuras de datos/mapping.sol\":27:447  contract mappings{\r... */\n  mstore(0x40, 0x80)\n  callvalue\n    /* \"--CODEGEN--\":8:17   */\n  dup1\n    /* \"--CODEGEN--\":5:7   */\n  iszero\n  tag_1\n  jumpi\n    /* \"--CODEGEN--\":30:31   */\n  0x00\n    /* \"--CODEGEN--\":27:28   */\n  dup1\n    /* \"--CODEGEN--\":20:32   */\n  revert\n    /* \"--CODEGEN--\":5:7   */\ntag_1:\n    /* \"Estructuras de datos/mapping.sol\":27:447  contract mappings{\r... */\n  pop\n  dataSize(sub_0)\n  dup1\n  dataOffset(sub_0)\n  0x00\n  codecopy\n  0x00\n  return\nstop\n\nsub_0: assembly {\n        /* \"Estructuras de datos/mapping.sol\":27:447  contract mappings{\r... */\n      mstore(0x40, 0x80)\n      callvalue\n        /* \"--CODEGEN--\":8:17   */\n      dup1\n        /* \"--CODEGEN--\":5:7   */\n      iszero\n      tag_1\n      jumpi\n        /* \"--CODEGEN--\":30:31   */\n      0x00\n        /* \"--CODEGEN--\":27:28   */\n      dup1\n        /* \"--CODEGEN--\":20:32   */\n      revert\n        /* \"--CODEGEN--\":5:7   */\n    tag_1:\n        /* \"Estructuras de datos/mapping.sol\":27:447  contract mappings{\r... */\n      pop\n      jumpi(tag_2, lt(calldatasize, 0x04))\n      shr(0xe0, calldataload(0x00))\n      dup1\n      0xaf736f2f\n      eq\n      tag_3\n      jumpi\n      dup1\n      0xd46318d0\n      eq\n      tag_4\n      jumpi\n      dup1\n      0xedc46d9d\n      eq\n      tag_5\n      jumpi\n    tag_2:\n      0x00\n      dup1\n      revert\n        /* \"Estructuras de datos/mapping.sol\":106:198  function insertar(uint _numero) public {\r... */\n    tag_3:\n      tag_6\n      0x04\n      dup1\n      calldatasize\n      sub\n        /* \"--CODEGEN--\":13:15   */\n      0x20\n        /* \"--CODEGEN--\":8:11   */\n      dup2\n        /* \"--CODEGEN--\":5:16   */\n      lt\n        /* \"--CODEGEN--\":2:4   */\n      iszero\n      tag_7\n      jumpi\n        /* \"--CODEGEN--\":29:30   */\n      0x00\n        /* \"--CODEGEN--\":26:27   */\n      dup1\n        /* \"--CODEGEN--\":19:31   */\n      revert\n        /* \"--CODEGEN--\":2:4   */\n    tag_7:\n        /* \"Estructuras de datos/mapping.sol\":106:198  function insertar(uint _numero) public {\r... */\n      dup2\n      add\n      swap1\n      dup1\n      dup1\n      calldataload\n      swap1\n      0x20\n      add\n      swap1\n      swap3\n      swap2\n      swap1\n      pop\n      pop\n      pop\n      tag_8\n      jump\t// in\n    tag_6:\n      stop\n        /* \"Estructuras de datos/mapping.sol\":206:309  function consultarMapping() public view returns(uint){\r... */\n    tag_4:\n      tag_9\n      tag_10\n      jump\t// in\n    tag_9:\n      mload(0x40)\n      dup1\n      dup3\n      dup2\n      mstore\n      0x20\n      add\n      swap2\n      pop\n      pop\n      mload(0x40)\n      dup1\n      swap2\n      sub\n      swap1\n      return\n        /* \"Estructuras de datos/mapping.sol\":53:97  mapping(address => uint) public elegirNumero */\n    tag_5:\n      tag_11\n      0x04\n      dup1\n      calldatasize\n      sub\n        /* \"--CODEGEN--\":13:15   */\n      0x20\n        /* \"--CODEGEN--\":8:11   */\n      dup2\n        /* \"--CODEGEN--\":5:16   */\n      lt\n        /* \"--CODEGEN--\":2:4   */\n      iszero\n      tag_12\n      jumpi\n        /* \"--CODEGEN--\":29:30   */\n      0x00\n        /* \"--CODEGEN--\":26:27   */\n      dup1\n        /* \"--CODEGEN--\":19:31   */\n      revert\n        /* \"--CODEGEN--\":2:4   */\n    tag_12:\n        /* \"Estructuras de datos/mapping.sol\":53:97  mapping(address => uint) public elegirNumero */\n      dup2\n      add\n      swap1\n      dup1\n      dup1\n      calldataload\n      0xffffffffffffffffffffffffffffffffffffffff\n      and\n      swap1\n      0x20\n      add\n      swap1\n      swap3\n      swap2\n      swap1\n      pop\n      pop\n      pop\n      tag_13\n      jump\t// in\n    tag_11:\n      mload(0x40)\n      dup1\n      dup3\n      dup2\n      mstore\n      0x20\n      add\n      swap2\n      pop\n      pop\n      mload(0x40)\n      dup1\n      swap2\n      sub\n      swap1\n      return\n        /* \"Estructuras de datos/mapping.sol\":106:198  function insertar(uint _numero) public {\r... */\n    tag_8:\n        /* \"Estructuras de datos/mapping.sol\":183:190  _numero */\n      dup1\n        /* \"Estructuras de datos/mapping.sol\":156:168  elegirNumero */\n      0x00\n        /* \"Estructuras de datos/mapping.sol\":156:180  elegirNumero[msg.sender] */\n      dup1\n        /* \"Estructuras de datos/mapping.sol\":169:179  msg.sender */\n      caller\n        /* \"Estructuras de datos/mapping.sol\":156:180  elegirNumero[msg.sender] */\n      0xffffffffffffffffffffffffffffffffffffffff\n      and\n      0xffffffffffffffffffffffffffffffffffffffff\n      and\n      dup2\n      mstore\n      0x20\n      add\n      swap1\n      dup2\n      mstore\n      0x20\n      add\n      0x00\n      keccak256\n        /* \"Estructuras de datos/mapping.sol\":156:190  elegirNumero[msg.sender] = _numero */\n      dup2\n      swap1\n      sstore\n      pop\n        /* \"Estructuras de datos/mapping.sol\":106:198  function insertar(uint _numero) public {\r... */\n      pop\n      jump\t// out\n        /* \"Estructuras de datos/mapping.sol\":206:309  function consultarMapping() public view returns(uint){\r... */\n    tag_10:\n        /* \"Estructuras de datos/mapping.sol\":254:258  uint */\n      0x00\n        /* \"Estructuras de datos/mapping.sol\":277:289  elegirNumero */\n      dup1\n        /* \"Estructuras de datos/mapping.sol\":277:301  elegirNumero[msg.sender] */\n      0x00\n        /* \"Estructuras de datos/mapping.sol\":290:300  msg.sender */\n      caller\n        /* \"Estructuras de datos/mapping.sol\":277:301  elegirNumero[msg.sender] */\n      0xffffffffffffffffffffffffffffffffffffffff\n      and\n      0xffffffffffffffffffffffffffffffffffffffff\n      and\n      dup2\n      mstore\n      0x20\n      add\n      swap1\n      dup2\n      mstore\n      0x20\n      add\n      0x00\n      keccak256\n      sload\n        /* \"Estructuras de datos/mapping.sol\":270:301  return elegirNumero[msg.sender] */\n      swap1\n      pop\n        /* \"Estructuras de datos/mapping.sol\":206:309  function consultarMapping() public view returns(uint){\r... */\n      swap1\n      jump\t// out\n        /* \"Estructuras de datos/mapping.sol\":53:97  mapping(address => uint) public elegirNumero */\n    tag_13:\n      mstore(0x20, 0x00)\n      dup1\n      0x00\n      mstore\n      keccak256(0x00, 0x40)\n      0x00\n      swap2\n      pop\n      swap1\n      pop\n      sload\n      dup2\n      jump\t// out\n\n    auxdata: 0xa2646970667358221220f7fa6d0915b267c4de05075324d3a9372d9be68cd20a89c0f1ec1ccef24259f264736f6c63430006000033\n}\n",
				"bytecode": {
					"linkReferences": {},
					"object": "608060405234801561001057600080fd5b506101c4806100206000396000f3fe608060405234801561001057600080fd5b50600436106100415760003560e01c8063af736f2f14610046578063d46318d014610074578063edc46d9d14610092575b600080fd5b6100726004803603602081101561005c57600080fd5b81019080803590602001909291905050506100ea565b005b61007c610130565b6040518082815260200191505060405180910390f35b6100d4600480360360208110156100a857600080fd5b81019080803573ffffffffffffffffffffffffffffffffffffffff169060200190929190505050610176565b6040518082815260200191505060405180910390f35b806000803373ffffffffffffffffffffffffffffffffffffffff1673ffffffffffffffffffffffffffffffffffffffff1681526020019081526020016000208190555050565b60008060003373ffffffffffffffffffffffffffffffffffffffff1673ffffffffffffffffffffffffffffffffffffffff16815260200190815260200160002054905090565b6000602052806000526040600020600091509050548156fea2646970667358221220f7fa6d0915b267c4de05075324d3a9372d9be68cd20a89c0f1ec1ccef24259f264736f6c63430006000033",
					"opcodes": "PUSH1 0x80 PUSH1 0x40 MSTORE CALLVALUE DUP1 ISZERO PUSH2 0x10 JUMPI PUSH1 0x0 DUP1 REVERT JUMPDEST POP PUSH2 0x1C4 DUP1 PUSH2 0x20 PUSH1 0x0 CODECOPY PUSH1 0x0 RETURN INVALID PUSH1 0x80 PUSH1 0x40 MSTORE CALLVALUE DUP1 ISZERO PUSH2 0x10 JUMPI PUSH1 0x0 DUP1 REVERT JUMPDEST POP PUSH1 0x4 CALLDATASIZE LT PUSH2 0x41 JUMPI PUSH1 0x0 CALLDATALOAD PUSH1 0xE0 SHR DUP1 PUSH4 0xAF736F2F EQ PUSH2 0x46 JUMPI DUP1 PUSH4 0xD46318D0 EQ PUSH2 0x74 JUMPI DUP1 PUSH4 0xEDC46D9D EQ PUSH2 0x92 JUMPI JUMPDEST PUSH1 0x0 DUP1 REVERT JUMPDEST PUSH2 0x72 PUSH1 0x4 DUP1 CALLDATASIZE SUB PUSH1 0x20 DUP2 LT ISZERO PUSH2 0x5C JUMPI PUSH1 0x0 DUP1 REVERT JUMPDEST DUP2 ADD SWAP1 DUP1 DUP1 CALLDATALOAD SWAP1 PUSH1 0x20 ADD SWAP1 SWAP3 SWAP2 SWAP1 POP POP POP PUSH2 0xEA JUMP JUMPDEST STOP JUMPDEST PUSH2 0x7C PUSH2 0x130 JUMP JUMPDEST PUSH1 0x40 MLOAD DUP1 DUP3 DUP2 MSTORE PUSH1 0x20 ADD SWAP2 POP POP PUSH1 0x40 MLOAD DUP1 SWAP2 SUB SWAP1 RETURN JUMPDEST PUSH2 0xD4 PUSH1 0x4 DUP1 CALLDATASIZE SUB PUSH1 0x20 DUP2 LT ISZERO PUSH2 0xA8 JUMPI PUSH1 0x0 DUP1 REVERT JUMPDEST DUP2 ADD SWAP1 DUP1 DUP1 CALLDATALOAD PUSH20 0xFFFFFFFFFFFFFFFFFFFFFFFFFFFFFFFFFFFFFFFF AND SWAP1 PUSH1 0x20 ADD SWAP1 SWAP3 SWAP2 SWAP1 POP POP POP PUSH2 0x176 JUMP JUMPDEST PUSH1 0x40 MLOAD DUP1 DUP3 DUP2 MSTORE PUSH1 0x20 ADD SWAP2 POP POP PUSH1 0x40 MLOAD DUP1 SWAP2 SUB SWAP1 RETURN JUMPDEST DUP1 PUSH1 0x0 DUP1 CALLER PUSH20 0xFFFFFFFFFFFFFFFFFFFFFFFFFFFFFFFFFFFFFFFF AND PUSH20 0xFFFFFFFFFFFFFFFFFFFFFFFFFFFFFFFFFFFFFFFF AND DUP2 MSTORE PUSH1 0x20 ADD SWAP1 DUP2 MSTORE PUSH1 0x20 ADD PUSH1 0x0 KECCAK256 DUP2 SWAP1 SSTORE POP POP JUMP JUMPDEST PUSH1 0x0 DUP1 PUSH1 0x0 CALLER PUSH20 0xFFFFFFFFFFFFFFFFFFFFFFFFFFFFFFFFFFFFFFFF AND PUSH20 0xFFFFFFFFFFFFFFFFFFFFFFFFFFFFFFFFFFFFFFFF AND DUP2 MSTORE PUSH1 0x20 ADD SWAP1 DUP2 MSTORE PUSH1 0x20 ADD PUSH1 0x0 KECCAK256 SLOAD SWAP1 POP SWAP1 JUMP JUMPDEST PUSH1 0x0 PUSH1 0x20 MSTORE DUP1 PUSH1 0x0 MSTORE PUSH1 0x40 PUSH1 0x0 KECCAK256 PUSH1 0x0 SWAP2 POP SWAP1 POP SLOAD DUP2 JUMP INVALID LOG2 PUSH5 0x6970667358 0x22 SLT KECCAK256 0xF7 STATICCALL PUSH14 0x915B267C4DE05075324D3A9372D SWAP12 0xE6 DUP13 0xD2 EXP DUP10 0xC0 CALL 0xEC SHR 0xCE CALLCODE TIMESTAMP MSIZE CALLCODE PUSH5 0x736F6C6343 STOP MOD STOP STOP CALLER "
				},
				"gasEstimates": {
					"creation": {
						"codeDepositCost": "90400",
						"executionCost": "141",
						"totalCost": "90541"
					},
					"external": {
						"consultarMapping()": "1102",
						"elegirNumero(address)": "1191",
						"insertar(uint256)": "20309"
					}
				},
				"methodIdentifiers": {
					"consultarMapping()": "d46318d0",
					"elegirNumero(address)": "edc46d9d",
					"insertar(uint256)": "af736f2f"
				}
			},
			"storageLayout": {
				"storage": [
					{
						"astId": 5,
						"contract": "Estructuras de datos/mapping.sol:mappings",
						"label": "elegirNumero",
						"offset": 0,
						"slot": "0",
						"type": "t_mapping(t_address,t_uint256)"
					},
					{
						"astId": 33,
						"contract": "Estructuras de datos/mapping.sol:mappings",
						"label": "cantidad_dineros",
						"offset": 0,
						"slot": "1",
						"type": "t_mapping(t_string_memory,t_uint256)"
					}
				],
				"types": {
					"t_address": {
						"encoding": "inplace",
						"label": "address",
						"numberOfBytes": "20"
					},
					"t_mapping(t_address,t_uint256)": {
						"encoding": "mapping",
						"key": "t_address",
						"label": "mapping(address => uint256)",
						"numberOfBytes": "32",
						"value": "t_uint256"
					},
					"t_mapping(t_string_memory,t_uint256)": {
						"encoding": "mapping",
						"key": "t_string_memory",
						"label": "mapping(string => uint256)",
						"numberOfBytes": "32",
						"value": "t_uint256"
					},
					"t_string_memory": {
						"encoding": "bytes",
						"label": "string",
						"numberOfBytes": "32"
					},
					"t_uint256": {
						"encoding": "inplace",
						"label": "uint256",
						"numberOfBytes": "32"
					}
				}
			},
			"userdoc": {
				"methods": {}
			}
		}
	}
}