{
	"Primeros pasos en Solidity/ERC20.sol": {
		"ERC20Basic": {
			"abi": [
				{
					"inputs": [
						{
							"internalType": "uint256",
							"name": "total",
							"type": "uint256"
						}
					],
					"stateMutability": "nonpayable",
					"type": "constructor"
				},
				{
					"anonymous": false,
					"inputs": [
						{
							"indexed": true,
							"internalType": "address",
							"name": "tokenOwner",
							"type": "address"
						},
						{
							"indexed": true,
							"internalType": "address",
							"name": "spender",
							"type": "address"
						},
						{
							"indexed": false,
							"internalType": "uint256",
							"name": "tokens",
							"type": "uint256"
						}
					],
					"name": "Approval",
					"type": "event"
				},
				{
					"anonymous": false,
					"inputs": [
						{
							"indexed": true,
							"internalType": "address",
							"name": "from",
							"type": "address"
						},
						{
							"indexed": true,
							"internalType": "address",
							"name": "to",
							"type": "address"
						},
						{
							"indexed": false,
							"internalType": "uint256",
							"name": "tokens",
							"type": "uint256"
						}
					],
					"name": "Transfer",
					"type": "event"
				},
				{
					"inputs": [
						{
							"internalType": "address",
							"name": "owner",
							"type": "address"
						},
						{
							"internalType": "address",
							"name": "delegate",
							"type": "address"
						}
					],
					"name": "allowance",
					"outputs": [
						{
							"internalType": "uint256",
							"name": "",
							"type": "uint256"
						}
					],
					"stateMutability": "view",
					"type": "function"
				},
				{
					"inputs": [
						{
							"internalType": "address",
							"name": "delegate",
							"type": "address"
						},
						{
							"internalType": "uint256",
							"name": "numTokens",
							"type": "uint256"
						}
					],
					"name": "approve",
					"outputs": [
						{
							"internalType": "bool",
							"name": "",
							"type": "bool"
						}
					],
					"stateMutability": "nonpayable",
					"type": "function"
				},
				{
					"inputs": [
						{
							"internalType": "address",
							"name": "tokenOwner",
							"type": "address"
						}
					],
					"name": "balanceOf",
					"outputs": [
						{
							"internalType": "uint256",
							"name": "",
							"type": "uint256"
						}
					],
					"stateMutability": "view",
					"type": "function"
				},
				{
					"inputs": [],
					"name": "decimals",
					"outputs": [
						{
							"internalType": "uint8",
							"name": "",
							"type": "uint8"
						}
					],
					"stateMutability": "view",
					"type": "function"
				},
				{
					"inputs": [
						{
							"internalType": "uint256",
							"name": "newTokens",
							"type": "uint256"
						}
					],
					"name": "increaseTotalSuply",
					"outputs": [],
					"stateMutability": "nonpayable",
					"type": "function"
				},
				{
					"inputs": [],
					"name": "name",
					"outputs": [
						{
							"internalType": "string",
							"name": "",
							"type": "string"
						}
					],
					"stateMutability": "view",
					"type": "function"
				},
				{
					"inputs": [],
					"name": "symbol",
					"outputs": [
						{
							"internalType": "string",
							"name": "",
							"type": "string"
						}
					],
					"stateMutability": "view",
					"type": "function"
				},
				{
					"inputs": [],
					"name": "totalSupply",
					"outputs": [
						{
							"internalType": "uint256",
							"name": "",
							"type": "uint256"
						}
					],
					"stateMutability": "view",
					"type": "function"
				},
				{
					"inputs": [
						{
							"internalType": "address",
							"name": "receiver",
							"type": "address"
						},
						{
							"internalType": "uint256",
							"name": "numTokens",
							"type": "uint256"
						}
					],
					"name": "transfer",
					"outputs": [
						{
							"internalType": "bool",
							"name": "",
							"type": "bool"
						}
					],
					"stateMutability": "nonpayable",
					"type": "function"
				},
				{
					"inputs": [
						{
							"internalType": "address",
							"name": "owner",
							"type": "address"
						},
						{
							"internalType": "address",
							"name": "buyer",
							"type": "address"
						},
						{
							"internalType": "uint256",
							"name": "numTokens",
							"type": "uint256"
						}
					],
					"name": "transferFrom",
					"outputs": [
						{
							"internalType": "bool",
							"name": "",
							"type": "bool"
						}
					],
					"stateMutability": "nonpayable",
					"type": "function"
				},
				{
					"inputs": [
						{
							"internalType": "address",
							"name": "sender",
							"type": "address"
						},
						{
							"internalType": "address",
							"name": "receiver",
							"type": "address"
						},
						{
							"internalType": "uint256",
							"name": "numTokens",
							"type": "uint256"
						}
					],
					"name": "transferencia_disney",
					"outputs": [
						{
							"internalType": "bool",
							"name": "",
							"type": "bool"
						}
					],
					"stateMutability": "nonpayable",
					"type": "function"
				}
			],
			"devdoc": {
				"kind": "dev",
				"methods": {},
				"version": 1
			},
			"evm": {
				"assembly": "    /* \"Primeros pasos en Solidity/ERC20.sol\":904:3535  contract ERC20Basic is IERC20 {... */\n  mstore(0x40, 0x80)\n    /* \"Primeros pasos en Solidity/ERC20.sol\":1418:1534  constructor (uint256 total) public{... */\n  callvalue\n  dup1\n  iszero\n  tag_1\n  jumpi\n  0x00\n  dup1\n  revert\ntag_1:\n  pop\n  mload(0x40)\n  sub(codesize, bytecodeSize)\n  dup1\n  bytecodeSize\n  dup4\n  codecopy\n  dup2\n  dup2\n  add\n  0x40\n  mstore\n  dup2\n  add\n  swap1\n  tag_2\n  swap2\n  swap1\n  tag_3\n  jump\t// in\ntag_2:\n    /* \"Primeros pasos en Solidity/ERC20.sol\":1477:1482  total */\n  dup1\n    /* \"Primeros pasos en Solidity/ERC20.sol\":1462:1474  totalSupply_ */\n  0x02\n    /* \"Primeros pasos en Solidity/ERC20.sol\":1462:1482  totalSupply_ = total */\n  dup2\n  swap1\n  sstore\n  pop\n    /* \"Primeros pasos en Solidity/ERC20.sol\":1515:1527  totalSupply_ */\n  sload(0x02)\n    /* \"Primeros pasos en Solidity/ERC20.sol\":1492:1500  balances */\n  0x00\n    /* \"Primeros pasos en Solidity/ERC20.sol\":1492:1512  balances[msg.sender] */\n  dup1\n    /* \"Primeros pasos en Solidity/ERC20.sol\":1501:1511  msg.sender */\n  caller\n    /* \"Primeros pasos en Solidity/ERC20.sol\":1492:1512  balances[msg.sender] */\n  0xffffffffffffffffffffffffffffffffffffffff\n  and\n  0xffffffffffffffffffffffffffffffffffffffff\n  and\n  dup2\n  mstore\n  0x20\n  add\n  swap1\n  dup2\n  mstore\n  0x20\n  add\n  0x00\n  keccak256\n    /* \"Primeros pasos en Solidity/ERC20.sol\":1492:1527  balances[msg.sender] = totalSupply_ */\n  dup2\n  swap1\n  sstore\n  pop\n    /* \"Primeros pasos en Solidity/ERC20.sol\":1418:1534  constructor (uint256 total) public{... */\n  pop\n    /* \"Primeros pasos en Solidity/ERC20.sol\":904:3535  contract ERC20Basic is IERC20 {... */\n  jump(tag_6)\n    /* \"--CODEGEN--\":5:139   */\ntag_8:\n  0x00\n    /* \"--CODEGEN--\":89:95   */\n  dup2\n    /* \"--CODEGEN--\":83:96   */\n  mload\n    /* \"--CODEGEN--\":74:96   */\n  swap1\n  pop\n    /* \"--CODEGEN--\":101:134   */\n  tag_10\n    /* \"--CODEGEN--\":128:133   */\n  dup2\n    /* \"--CODEGEN--\":101:134   */\n  tag_11\n  jump\t// in\ntag_10:\n    /* \"--CODEGEN--\":68:139   */\n  swap3\n  swap2\n  pop\n  pop\n  jump\t// out\n    /* \"--CODEGEN--\":146:409   */\ntag_3:\n  0x00\n    /* \"--CODEGEN--\":261:263   */\n  0x20\n    /* \"--CODEGEN--\":249:258   */\n  dup3\n    /* \"--CODEGEN--\":240:247   */\n  dup5\n    /* \"--CODEGEN--\":236:259   */\n  sub\n    /* \"--CODEGEN--\":232:264   */\n  slt\n    /* \"--CODEGEN--\":229:231   */\n  iszero\n  tag_13\n  jumpi\n    /* \"--CODEGEN--\":277:278   */\n  0x00\n    /* \"--CODEGEN--\":274:275   */\n  dup1\n    /* \"--CODEGEN--\":267:279   */\n  revert\n    /* \"--CODEGEN--\":229:231   */\ntag_13:\n    /* \"--CODEGEN--\":312:313   */\n  0x00\n    /* \"--CODEGEN--\":329:393   */\n  tag_14\n    /* \"--CODEGEN--\":385:392   */\n  dup5\n    /* \"--CODEGEN--\":376:382   */\n  dup3\n    /* \"--CODEGEN--\":365:374   */\n  dup6\n    /* \"--CODEGEN--\":361:383   */\n  add\n    /* \"--CODEGEN--\":329:393   */\n  tag_8\n  jump\t// in\ntag_14:\n    /* \"--CODEGEN--\":319:393   */\n  swap2\n  pop\n    /* \"--CODEGEN--\":291:399   */\n  pop\n    /* \"--CODEGEN--\":223:409   */\n  swap3\n  swap2\n  pop\n  pop\n  jump\t// out\n    /* \"--CODEGEN--\":416:488   */\ntag_15:\n  0x00\n    /* \"--CODEGEN--\":478:483   */\n  dup2\n    /* \"--CODEGEN--\":467:483   */\n  swap1\n  pop\n    /* \"--CODEGEN--\":461:488   */\n  swap2\n  swap1\n  pop\n  jump\t// out\n    /* \"--CODEGEN--\":495:612   */\ntag_11:\n    /* \"--CODEGEN--\":564:588   */\n  tag_18\n    /* \"--CODEGEN--\":582:587   */\n  dup2\n    /* \"--CODEGEN--\":564:588   */\n  tag_15\n  jump\t// in\ntag_18:\n    /* \"--CODEGEN--\":557:562   */\n  dup2\n    /* \"--CODEGEN--\":554:589   */\n  eq\n    /* \"--CODEGEN--\":544:546   */\n  tag_19\n  jumpi\n    /* \"--CODEGEN--\":603:604   */\n  0x00\n    /* \"--CODEGEN--\":600:601   */\n  dup1\n    /* \"--CODEGEN--\":593:605   */\n  revert\n    /* \"--CODEGEN--\":544:546   */\ntag_19:\n    /* \"--CODEGEN--\":538:612   */\n  pop\n  jump\t// out\n    /* \"Primeros pasos en Solidity/ERC20.sol\":904:3535  contract ERC20Basic is IERC20 {... */\ntag_6:\n  dataSize(sub_0)\n  dup1\n  dataOffset(sub_0)\n  0x00\n  codecopy\n  0x00\n  return\nstop\n\nsub_0: assembly {\n        /* \"Primeros pasos en Solidity/ERC20.sol\":904:3535  contract ERC20Basic is IERC20 {... */\n      mstore(0x40, 0x80)\n      callvalue\n      dup1\n      iszero\n      tag_1\n      jumpi\n      0x00\n      dup1\n      revert\n    tag_1:\n      pop\n      jumpi(tag_2, lt(calldatasize, 0x04))\n      shr(0xe0, calldataload(0x00))\n      dup1\n      0x4ee22adf\n      gt\n      tag_14\n      jumpi\n      dup1\n      0x4ee22adf\n      eq\n      tag_8\n      jumpi\n      dup1\n      0x70a08231\n      eq\n      tag_9\n      jumpi\n      dup1\n      0x95d89b41\n      eq\n      tag_10\n      jumpi\n      dup1\n      0xa9059cbb\n      eq\n      tag_11\n      jumpi\n      dup1\n      0xdd62ed3e\n      eq\n      tag_12\n      jumpi\n      dup1\n      0xf490a351\n      eq\n      tag_13\n      jumpi\n      jump(tag_2)\n    tag_14:\n      dup1\n      0x06fdde03\n      eq\n      tag_3\n      jumpi\n      dup1\n      0x095ea7b3\n      eq\n      tag_4\n      jumpi\n      dup1\n      0x18160ddd\n      eq\n      tag_5\n      jumpi\n      dup1\n      0x23b872dd\n      eq\n      tag_6\n      jumpi\n      dup1\n      0x313ce567\n      eq\n      tag_7\n      jumpi\n    tag_2:\n      0x00\n      dup1\n      revert\n        /* \"Primeros pasos en Solidity/ERC20.sol\":940:982  string public constant name = \"ERC20Basic\" */\n    tag_3:\n      tag_15\n      tag_16\n      jump\t// in\n    tag_15:\n      mload(0x40)\n      tag_17\n      swap2\n      swap1\n      tag_18\n      jump\t// in\n    tag_17:\n      mload(0x40)\n      dup1\n      swap2\n      sub\n      swap1\n      return\n        /* \"Primeros pasos en Solidity/ERC20.sol\":2664:2885  function approve (address delegate, uint256 numTokens) public override returns (bool) {... */\n    tag_4:\n      tag_19\n      0x04\n      dup1\n      calldatasize\n      sub\n      dup2\n      add\n      swap1\n      tag_20\n      swap2\n      swap1\n      tag_21\n      jump\t// in\n    tag_20:\n      tag_22\n      jump\t// in\n    tag_19:\n      mload(0x40)\n      tag_23\n      swap2\n      swap1\n      tag_24\n      jump\t// in\n    tag_23:\n      mload(0x40)\n      dup1\n      swap2\n      sub\n      swap1\n      return\n        /* \"Primeros pasos en Solidity/ERC20.sol\":1544:1641  function totalSupply() public override view returns (uint256){... */\n    tag_5:\n      tag_25\n      tag_26\n      jump\t// in\n    tag_25:\n      mload(0x40)\n      tag_27\n      swap2\n      swap1\n      tag_28\n      jump\t// in\n    tag_27:\n      mload(0x40)\n      dup1\n      swap2\n      sub\n      swap1\n      return\n        /* \"Primeros pasos en Solidity/ERC20.sol\":3041:3528  function transferFrom(address owner, address buyer, uint256 numTokens) public override returns (bool){... */\n    tag_6:\n      tag_29\n      0x04\n      dup1\n      calldatasize\n      sub\n      dup2\n      add\n      swap1\n      tag_30\n      swap2\n      swap1\n      tag_31\n      jump\t// in\n    tag_30:\n      tag_32\n      jump\t// in\n    tag_29:\n      mload(0x40)\n      tag_33\n      swap2\n      swap1\n      tag_24\n      jump\t// in\n    tag_33:\n      mload(0x40)\n      dup1\n      swap2\n      sub\n      swap1\n      return\n        /* \"Primeros pasos en Solidity/ERC20.sol\":1037:1071  uint8 public constant decimals = 2 */\n    tag_7:\n      tag_34\n      tag_35\n      jump\t// in\n    tag_34:\n      mload(0x40)\n      tag_36\n      swap2\n      swap1\n      tag_37\n      jump\t// in\n    tag_36:\n      mload(0x40)\n      dup1\n      swap2\n      sub\n      swap1\n      return\n        /* \"Primeros pasos en Solidity/ERC20.sol\":1651:1786  function increaseTotalSuply(uint newTokens) public{... */\n    tag_8:\n      tag_38\n      0x04\n      dup1\n      calldatasize\n      sub\n      dup2\n      add\n      swap1\n      tag_39\n      swap2\n      swap1\n      tag_40\n      jump\t// in\n    tag_39:\n      tag_41\n      jump\t// in\n    tag_38:\n      stop\n        /* \"Primeros pasos en Solidity/ERC20.sol\":1796:1918  function balanceOf (address tokenOwner) public override view returns (uint256){... */\n    tag_9:\n      tag_42\n      0x04\n      dup1\n      calldatasize\n      sub\n      dup2\n      add\n      swap1\n      tag_43\n      swap2\n      swap1\n      tag_44\n      jump\t// in\n    tag_43:\n      tag_45\n      jump\t// in\n    tag_42:\n      mload(0x40)\n      tag_46\n      swap2\n      swap1\n      tag_28\n      jump\t// in\n    tag_46:\n      mload(0x40)\n      dup1\n      swap2\n      sub\n      swap1\n      return\n        /* \"Primeros pasos en Solidity/ERC20.sol\":988:1031  string public constant symbol = \"JBJ-TOKEN\" */\n    tag_10:\n      tag_47\n      tag_48\n      jump\t// in\n    tag_47:\n      mload(0x40)\n      tag_49\n      swap2\n      swap1\n      tag_18\n      jump\t// in\n    tag_49:\n      mload(0x40)\n      dup1\n      swap2\n      sub\n      swap1\n      return\n        /* \"Primeros pasos en Solidity/ERC20.sol\":1928:2279  function transfer(address receiver, uint256 numTokens) public override returns (bool){... */\n    tag_11:\n      tag_50\n      0x04\n      dup1\n      calldatasize\n      sub\n      dup2\n      add\n      swap1\n      tag_51\n      swap2\n      swap1\n      tag_21\n      jump\t// in\n    tag_51:\n      tag_52\n      jump\t// in\n    tag_50:\n      mload(0x40)\n      tag_53\n      swap2\n      swap1\n      tag_24\n      jump\t// in\n    tag_53:\n      mload(0x40)\n      dup1\n      swap2\n      sub\n      swap1\n      return\n        /* \"Primeros pasos en Solidity/ERC20.sol\":2895:3031  function allowance (address owner, address delegate) public override view returns (uint){... */\n    tag_12:\n      tag_54\n      0x04\n      dup1\n      calldatasize\n      sub\n      dup2\n      add\n      swap1\n      tag_55\n      swap2\n      swap1\n      tag_56\n      jump\t// in\n    tag_55:\n      tag_57\n      jump\t// in\n    tag_54:\n      mload(0x40)\n      tag_58\n      swap2\n      swap1\n      tag_28\n      jump\t// in\n    tag_58:\n      mload(0x40)\n      dup1\n      swap2\n      sub\n      swap1\n      return\n        /* \"Primeros pasos en Solidity/ERC20.sol\":2290:2653  function transferencia_disney(address sender, address receiver, uint256 numTokens) public override returns (bool){... */\n    tag_13:\n      tag_59\n      0x04\n      dup1\n      calldatasize\n      sub\n      dup2\n      add\n      swap1\n      tag_60\n      swap2\n      swap1\n      tag_31\n      jump\t// in\n    tag_60:\n      tag_61\n      jump\t// in\n    tag_59:\n      mload(0x40)\n      tag_62\n      swap2\n      swap1\n      tag_24\n      jump\t// in\n    tag_62:\n      mload(0x40)\n      dup1\n      swap2\n      sub\n      swap1\n      return\n        /* \"Primeros pasos en Solidity/ERC20.sol\":940:982  string public constant name = \"ERC20Basic\" */\n    tag_16:\n      mload(0x40)\n      dup1\n      0x40\n      add\n      0x40\n      mstore\n      dup1\n      0x0a\n      dup2\n      mstore\n      0x20\n      add\n      0x4552433230426173696300000000000000000000000000000000000000000000\n      dup2\n      mstore\n      pop\n      dup2\n      jump\t// out\n        /* \"Primeros pasos en Solidity/ERC20.sol\":2664:2885  function approve (address delegate, uint256 numTokens) public override returns (bool) {... */\n    tag_22:\n        /* \"Primeros pasos en Solidity/ERC20.sol\":2744:2748  bool */\n      0x00\n        /* \"Primeros pasos en Solidity/ERC20.sol\":2792:2801  numTokens */\n      dup2\n        /* \"Primeros pasos en Solidity/ERC20.sol\":2760:2767  allowed */\n      0x01\n        /* \"Primeros pasos en Solidity/ERC20.sol\":2760:2779  allowed[msg.sender] */\n      0x00\n        /* \"Primeros pasos en Solidity/ERC20.sol\":2768:2778  msg.sender */\n      caller\n        /* \"Primeros pasos en Solidity/ERC20.sol\":2760:2779  allowed[msg.sender] */\n      0xffffffffffffffffffffffffffffffffffffffff\n      and\n      0xffffffffffffffffffffffffffffffffffffffff\n      and\n      dup2\n      mstore\n      0x20\n      add\n      swap1\n      dup2\n      mstore\n      0x20\n      add\n      0x00\n      keccak256\n        /* \"Primeros pasos en Solidity/ERC20.sol\":2760:2789  allowed[msg.sender][delegate] */\n      0x00\n        /* \"Primeros pasos en Solidity/ERC20.sol\":2780:2788  delegate */\n      dup6\n        /* \"Primeros pasos en Solidity/ERC20.sol\":2760:2789  allowed[msg.sender][delegate] */\n      0xffffffffffffffffffffffffffffffffffffffff\n      and\n      0xffffffffffffffffffffffffffffffffffffffff\n      and\n      dup2\n      mstore\n      0x20\n      add\n      swap1\n      dup2\n      mstore\n      0x20\n      add\n      0x00\n      keccak256\n        /* \"Primeros pasos en Solidity/ERC20.sol\":2760:2801  allowed[msg.sender][delegate] = numTokens */\n      dup2\n      swap1\n      sstore\n      pop\n        /* \"Primeros pasos en Solidity/ERC20.sol\":2837:2845  delegate */\n      dup3\n        /* \"Primeros pasos en Solidity/ERC20.sol\":2816:2857  Approval(msg.sender, delegate, numTokens) */\n      0xffffffffffffffffffffffffffffffffffffffff\n      and\n        /* \"Primeros pasos en Solidity/ERC20.sol\":2825:2835  msg.sender */\n      caller\n        /* \"Primeros pasos en Solidity/ERC20.sol\":2816:2857  Approval(msg.sender, delegate, numTokens) */\n      0xffffffffffffffffffffffffffffffffffffffff\n      and\n      0x8c5be1e5ebec7d5bd14f71427d1e84f3dd0314c0f7b2291e5b200ac8c7c3b925\n        /* \"Primeros pasos en Solidity/ERC20.sol\":2847:2856  numTokens */\n      dup5\n        /* \"Primeros pasos en Solidity/ERC20.sol\":2816:2857  Approval(msg.sender, delegate, numTokens) */\n      mload(0x40)\n      tag_64\n      swap2\n      swap1\n      tag_28\n      jump\t// in\n    tag_64:\n      mload(0x40)\n      dup1\n      swap2\n      sub\n      swap1\n      log3\n        /* \"Primeros pasos en Solidity/ERC20.sol\":2874:2878  true */\n      0x01\n        /* \"Primeros pasos en Solidity/ERC20.sol\":2867:2878  return true */\n      swap1\n      pop\n        /* \"Primeros pasos en Solidity/ERC20.sol\":2664:2885  function approve (address delegate, uint256 numTokens) public override returns (bool) {... */\n      swap3\n      swap2\n      pop\n      pop\n      jump\t// out\n        /* \"Primeros pasos en Solidity/ERC20.sol\":1544:1641  function totalSupply() public override view returns (uint256){... */\n    tag_26:\n        /* \"Primeros pasos en Solidity/ERC20.sol\":1597:1604  uint256 */\n      0x00\n        /* \"Primeros pasos en Solidity/ERC20.sol\":1622:1634  totalSupply_ */\n      sload(0x02)\n        /* \"Primeros pasos en Solidity/ERC20.sol\":1615:1634  return totalSupply_ */\n      swap1\n      pop\n        /* \"Primeros pasos en Solidity/ERC20.sol\":1544:1641  function totalSupply() public override view returns (uint256){... */\n      swap1\n      jump\t// out\n        /* \"Primeros pasos en Solidity/ERC20.sol\":3041:3528  function transferFrom(address owner, address buyer, uint256 numTokens) public override returns (bool){... */\n    tag_32:\n        /* \"Primeros pasos en Solidity/ERC20.sol\":3137:3141  bool */\n      0x00\n        /* \"Primeros pasos en Solidity/ERC20.sol\":3174:3182  balances */\n      dup1\n        /* \"Primeros pasos en Solidity/ERC20.sol\":3174:3189  balances[owner] */\n      0x00\n        /* \"Primeros pasos en Solidity/ERC20.sol\":3183:3188  owner */\n      dup6\n        /* \"Primeros pasos en Solidity/ERC20.sol\":3174:3189  balances[owner] */\n      0xffffffffffffffffffffffffffffffffffffffff\n      and\n      0xffffffffffffffffffffffffffffffffffffffff\n      and\n      dup2\n      mstore\n      0x20\n      add\n      swap1\n      dup2\n      mstore\n      0x20\n      add\n      0x00\n      keccak256\n      sload\n        /* \"Primeros pasos en Solidity/ERC20.sol\":3161:3170  numTokens */\n      dup3\n        /* \"Primeros pasos en Solidity/ERC20.sol\":3161:3189  numTokens <= balances[owner] */\n      gt\n      iszero\n        /* \"Primeros pasos en Solidity/ERC20.sol\":3152:3190  require (numTokens <= balances[owner]) */\n      tag_67\n      jumpi\n      0x00\n      dup1\n      revert\n    tag_67:\n        /* \"Primeros pasos en Solidity/ERC20.sol\":3222:3229  allowed */\n      0x01\n        /* \"Primeros pasos en Solidity/ERC20.sol\":3222:3236  allowed[owner] */\n      0x00\n        /* \"Primeros pasos en Solidity/ERC20.sol\":3230:3235  owner */\n      dup6\n        /* \"Primeros pasos en Solidity/ERC20.sol\":3222:3236  allowed[owner] */\n      0xffffffffffffffffffffffffffffffffffffffff\n      and\n      0xffffffffffffffffffffffffffffffffffffffff\n      and\n      dup2\n      mstore\n      0x20\n      add\n      swap1\n      dup2\n      mstore\n      0x20\n      add\n      0x00\n      keccak256\n        /* \"Primeros pasos en Solidity/ERC20.sol\":3222:3248  allowed[owner][msg.sender] */\n      0x00\n        /* \"Primeros pasos en Solidity/ERC20.sol\":3237:3247  msg.sender */\n      caller\n        /* \"Primeros pasos en Solidity/ERC20.sol\":3222:3248  allowed[owner][msg.sender] */\n      0xffffffffffffffffffffffffffffffffffffffff\n      and\n      0xffffffffffffffffffffffffffffffffffffffff\n      and\n      dup2\n      mstore\n      0x20\n      add\n      swap1\n      dup2\n      mstore\n      0x20\n      add\n      0x00\n      keccak256\n      sload\n        /* \"Primeros pasos en Solidity/ERC20.sol\":3209:3218  numTokens */\n      dup3\n        /* \"Primeros pasos en Solidity/ERC20.sol\":3209:3248  numTokens <= allowed[owner][msg.sender] */\n      gt\n      iszero\n        /* \"Primeros pasos en Solidity/ERC20.sol\":3200:3249  require (numTokens <= allowed[owner][msg.sender]) */\n      tag_68\n      jumpi\n      0x00\n      dup1\n      revert\n    tag_68:\n        /* \"Primeros pasos en Solidity/ERC20.sol\":3286:3316  balances[owner].sub(numTokens) */\n      tag_69\n        /* \"Primeros pasos en Solidity/ERC20.sol\":3306:3315  numTokens */\n      dup3\n        /* \"Primeros pasos en Solidity/ERC20.sol\":3286:3294  balances */\n      0x00\n        /* \"Primeros pasos en Solidity/ERC20.sol\":3286:3301  balances[owner] */\n      dup1\n        /* \"Primeros pasos en Solidity/ERC20.sol\":3295:3300  owner */\n      dup8\n        /* \"Primeros pasos en Solidity/ERC20.sol\":3286:3301  balances[owner] */\n      0xffffffffffffffffffffffffffffffffffffffff\n      and\n      0xffffffffffffffffffffffffffffffffffffffff\n      and\n      dup2\n      mstore\n      0x20\n      add\n      swap1\n      dup2\n      mstore\n      0x20\n      add\n      0x00\n      keccak256\n      sload\n        /* \"Primeros pasos en Solidity/ERC20.sol\":3286:3305  balances[owner].sub */\n      tag_70\n      swap1\n        /* \"Primeros pasos en Solidity/ERC20.sol\":3286:3316  balances[owner].sub(numTokens) */\n      swap2\n      swap1\n      0xffffffff\n      and\n      jump\t// in\n    tag_69:\n        /* \"Primeros pasos en Solidity/ERC20.sol\":3268:3276  balances */\n      0x00\n        /* \"Primeros pasos en Solidity/ERC20.sol\":3268:3283  balances[owner] */\n      dup1\n        /* \"Primeros pasos en Solidity/ERC20.sol\":3277:3282  owner */\n      dup7\n        /* \"Primeros pasos en Solidity/ERC20.sol\":3268:3283  balances[owner] */\n      0xffffffffffffffffffffffffffffffffffffffff\n      and\n      0xffffffffffffffffffffffffffffffffffffffff\n      and\n      dup2\n      mstore\n      0x20\n      add\n      swap1\n      dup2\n      mstore\n      0x20\n      add\n      0x00\n      keccak256\n        /* \"Primeros pasos en Solidity/ERC20.sol\":3268:3316  balances[owner] = balances[owner].sub(numTokens) */\n      dup2\n      swap1\n      sstore\n      pop\n        /* \"Primeros pasos en Solidity/ERC20.sol\":3355:3396  allowed[owner][msg.sender].sub(numTokens) */\n      tag_71\n        /* \"Primeros pasos en Solidity/ERC20.sol\":3386:3395  numTokens */\n      dup3\n        /* \"Primeros pasos en Solidity/ERC20.sol\":3355:3362  allowed */\n      0x01\n        /* \"Primeros pasos en Solidity/ERC20.sol\":3355:3369  allowed[owner] */\n      0x00\n        /* \"Primeros pasos en Solidity/ERC20.sol\":3363:3368  owner */\n      dup8\n        /* \"Primeros pasos en Solidity/ERC20.sol\":3355:3369  allowed[owner] */\n      0xffffffffffffffffffffffffffffffffffffffff\n      and\n      0xffffffffffffffffffffffffffffffffffffffff\n      and\n      dup2\n      mstore\n      0x20\n      add\n      swap1\n      dup2\n      mstore\n      0x20\n      add\n      0x00\n      keccak256\n        /* \"Primeros pasos en Solidity/ERC20.sol\":3355:3381  allowed[owner][msg.sender] */\n      0x00\n        /* \"Primeros pasos en Solidity/ERC20.sol\":3370:3380  msg.sender */\n      caller\n        /* \"Primeros pasos en Solidity/ERC20.sol\":3355:3381  allowed[owner][msg.sender] */\n      0xffffffffffffffffffffffffffffffffffffffff\n      and\n      0xffffffffffffffffffffffffffffffffffffffff\n      and\n      dup2\n      mstore\n      0x20\n      add\n      swap1\n      dup2\n      mstore\n      0x20\n      add\n      0x00\n      keccak256\n      sload\n        /* \"Primeros pasos en Solidity/ERC20.sol\":3355:3385  allowed[owner][msg.sender].sub */\n      tag_70\n      swap1\n        /* \"Primeros pasos en Solidity/ERC20.sol\":3355:3396  allowed[owner][msg.sender].sub(numTokens) */\n      swap2\n      swap1\n      0xffffffff\n      and\n      jump\t// in\n    tag_71:\n        /* \"Primeros pasos en Solidity/ERC20.sol\":3326:3333  allowed */\n      0x01\n        /* \"Primeros pasos en Solidity/ERC20.sol\":3326:3340  allowed[owner] */\n      0x00\n        /* \"Primeros pasos en Solidity/ERC20.sol\":3334:3339  owner */\n      dup7\n        /* \"Primeros pasos en Solidity/ERC20.sol\":3326:3340  allowed[owner] */\n      0xffffffffffffffffffffffffffffffffffffffff\n      and\n      0xffffffffffffffffffffffffffffffffffffffff\n      and\n      dup2\n      mstore\n      0x20\n      add\n      swap1\n      dup2\n      mstore\n      0x20\n      add\n      0x00\n      keccak256\n        /* \"Primeros pasos en Solidity/ERC20.sol\":3326:3352  allowed[owner][msg.sender] */\n      0x00\n        /* \"Primeros pasos en Solidity/ERC20.sol\":3341:3351  msg.sender */\n      caller\n        /* \"Primeros pasos en Solidity/ERC20.sol\":3326:3352  allowed[owner][msg.sender] */\n      0xffffffffffffffffffffffffffffffffffffffff\n      and\n      0xffffffffffffffffffffffffffffffffffffffff\n      and\n      dup2\n      mstore\n      0x20\n      add\n      swap1\n      dup2\n      mstore\n      0x20\n      add\n      0x00\n      keccak256\n        /* \"Primeros pasos en Solidity/ERC20.sol\":3326:3396  allowed[owner][msg.sender] = allowed[owner][msg.sender].sub(numTokens) */\n      dup2\n      swap1\n      sstore\n      pop\n        /* \"Primeros pasos en Solidity/ERC20.sol\":3424:3454  balances[buyer].add(numTokens) */\n      tag_72\n        /* \"Primeros pasos en Solidity/ERC20.sol\":3444:3453  numTokens */\n      dup3\n        /* \"Primeros pasos en Solidity/ERC20.sol\":3424:3432  balances */\n      0x00\n        /* \"Primeros pasos en Solidity/ERC20.sol\":3424:3439  balances[buyer] */\n      dup1\n        /* \"Primeros pasos en Solidity/ERC20.sol\":3433:3438  buyer */\n      dup7\n        /* \"Primeros pasos en Solidity/ERC20.sol\":3424:3439  balances[buyer] */\n      0xffffffffffffffffffffffffffffffffffffffff\n      and\n      0xffffffffffffffffffffffffffffffffffffffff\n      and\n      dup2\n      mstore\n      0x20\n      add\n      swap1\n      dup2\n      mstore\n      0x20\n      add\n      0x00\n      keccak256\n      sload\n        /* \"Primeros pasos en Solidity/ERC20.sol\":3424:3443  balances[buyer].add */\n      tag_73\n      swap1\n        /* \"Primeros pasos en Solidity/ERC20.sol\":3424:3454  balances[buyer].add(numTokens) */\n      swap2\n      swap1\n      0xffffffff\n      and\n      jump\t// in\n    tag_72:\n        /* \"Primeros pasos en Solidity/ERC20.sol\":3406:3414  balances */\n      0x00\n        /* \"Primeros pasos en Solidity/ERC20.sol\":3406:3421  balances[buyer] */\n      dup1\n        /* \"Primeros pasos en Solidity/ERC20.sol\":3415:3420  buyer */\n      dup6\n        /* \"Primeros pasos en Solidity/ERC20.sol\":3406:3421  balances[buyer] */\n      0xffffffffffffffffffffffffffffffffffffffff\n      and\n      0xffffffffffffffffffffffffffffffffffffffff\n      and\n      dup2\n      mstore\n      0x20\n      add\n      swap1\n      dup2\n      mstore\n      0x20\n      add\n      0x00\n      keccak256\n        /* \"Primeros pasos en Solidity/ERC20.sol\":3406:3454  balances[buyer] = balances[buyer].add(numTokens) */\n      dup2\n      swap1\n      sstore\n      pop\n        /* \"Primeros pasos en Solidity/ERC20.sol\":3484:3489  buyer */\n      dup3\n        /* \"Primeros pasos en Solidity/ERC20.sol\":3469:3500  Transfer(owner,buyer,numTokens) */\n      0xffffffffffffffffffffffffffffffffffffffff\n      and\n        /* \"Primeros pasos en Solidity/ERC20.sol\":3478:3483  owner */\n      dup5\n        /* \"Primeros pasos en Solidity/ERC20.sol\":3469:3500  Transfer(owner,buyer,numTokens) */\n      0xffffffffffffffffffffffffffffffffffffffff\n      and\n      0xddf252ad1be2c89b69c2b068fc378daa952ba7f163c4a11628f55a4df523b3ef\n        /* \"Primeros pasos en Solidity/ERC20.sol\":3490:3499  numTokens */\n      dup5\n        /* \"Primeros pasos en Solidity/ERC20.sol\":3469:3500  Transfer(owner,buyer,numTokens) */\n      mload(0x40)\n      tag_74\n      swap2\n      swap1\n      tag_28\n      jump\t// in\n    tag_74:\n      mload(0x40)\n      dup1\n      swap2\n      sub\n      swap1\n      log3\n        /* \"Primeros pasos en Solidity/ERC20.sol\":3517:3521  true */\n      0x01\n        /* \"Primeros pasos en Solidity/ERC20.sol\":3510:3521  return true */\n      swap1\n      pop\n        /* \"Primeros pasos en Solidity/ERC20.sol\":3041:3528  function transferFrom(address owner, address buyer, uint256 numTokens) public override returns (bool){... */\n      swap4\n      swap3\n      pop\n      pop\n      pop\n      jump\t// out\n        /* \"Primeros pasos en Solidity/ERC20.sol\":1037:1071  uint8 public constant decimals = 2 */\n    tag_35:\n        /* \"Primeros pasos en Solidity/ERC20.sol\":1070:1071  2 */\n      0x02\n        /* \"Primeros pasos en Solidity/ERC20.sol\":1037:1071  uint8 public constant decimals = 2 */\n      dup2\n      jump\t// out\n        /* \"Primeros pasos en Solidity/ERC20.sol\":1651:1786  function increaseTotalSuply(uint newTokens) public{... */\n    tag_41:\n        /* \"Primeros pasos en Solidity/ERC20.sol\":1727:1736  newTokens */\n      dup1\n        /* \"Primeros pasos en Solidity/ERC20.sol\":1711:1723  totalSupply_ */\n      0x02\n      0x00\n        /* \"Primeros pasos en Solidity/ERC20.sol\":1711:1736  totalSupply_ += newTokens */\n      dup3\n      dup3\n      sload\n      add\n      swap3\n      pop\n      pop\n      dup2\n      swap1\n      sstore\n      pop\n        /* \"Primeros pasos en Solidity/ERC20.sol\":1770:1779  newTokens */\n      dup1\n        /* \"Primeros pasos en Solidity/ERC20.sol\":1746:1754  balances */\n      0x00\n        /* \"Primeros pasos en Solidity/ERC20.sol\":1746:1766  balances[msg.sender] */\n      dup1\n        /* \"Primeros pasos en Solidity/ERC20.sol\":1755:1765  msg.sender */\n      caller\n        /* \"Primeros pasos en Solidity/ERC20.sol\":1746:1766  balances[msg.sender] */\n      0xffffffffffffffffffffffffffffffffffffffff\n      and\n      0xffffffffffffffffffffffffffffffffffffffff\n      and\n      dup2\n      mstore\n      0x20\n      add\n      swap1\n      dup2\n      mstore\n      0x20\n      add\n      0x00\n      keccak256\n      0x00\n        /* \"Primeros pasos en Solidity/ERC20.sol\":1746:1779  balances[msg.sender] += newTokens */\n      dup3\n      dup3\n      sload\n      add\n      swap3\n      pop\n      pop\n      dup2\n      swap1\n      sstore\n      pop\n        /* \"Primeros pasos en Solidity/ERC20.sol\":1651:1786  function increaseTotalSuply(uint newTokens) public{... */\n      pop\n      jump\t// out\n        /* \"Primeros pasos en Solidity/ERC20.sol\":1796:1918  function balanceOf (address tokenOwner) public override view returns (uint256){... */\n    tag_45:\n        /* \"Primeros pasos en Solidity/ERC20.sol\":1866:1873  uint256 */\n      0x00\n        /* \"Primeros pasos en Solidity/ERC20.sol\":1891:1899  balances */\n      dup1\n        /* \"Primeros pasos en Solidity/ERC20.sol\":1891:1911  balances[tokenOwner] */\n      0x00\n        /* \"Primeros pasos en Solidity/ERC20.sol\":1900:1910  tokenOwner */\n      dup4\n        /* \"Primeros pasos en Solidity/ERC20.sol\":1891:1911  balances[tokenOwner] */\n      0xffffffffffffffffffffffffffffffffffffffff\n      and\n      0xffffffffffffffffffffffffffffffffffffffff\n      and\n      dup2\n      mstore\n      0x20\n      add\n      swap1\n      dup2\n      mstore\n      0x20\n      add\n      0x00\n      keccak256\n      sload\n        /* \"Primeros pasos en Solidity/ERC20.sol\":1884:1911  return balances[tokenOwner] */\n      swap1\n      pop\n        /* \"Primeros pasos en Solidity/ERC20.sol\":1796:1918  function balanceOf (address tokenOwner) public override view returns (uint256){... */\n      swap2\n      swap1\n      pop\n      jump\t// out\n        /* \"Primeros pasos en Solidity/ERC20.sol\":988:1031  string public constant symbol = \"JBJ-TOKEN\" */\n    tag_48:\n      mload(0x40)\n      dup1\n      0x40\n      add\n      0x40\n      mstore\n      dup1\n      0x09\n      dup2\n      mstore\n      0x20\n      add\n      0x4a424a2d544f4b454e0000000000000000000000000000000000000000000000\n      dup2\n      mstore\n      pop\n      dup2\n      jump\t// out\n        /* \"Primeros pasos en Solidity/ERC20.sol\":1928:2279  function transfer(address receiver, uint256 numTokens) public override returns (bool){... */\n    tag_52:\n        /* \"Primeros pasos en Solidity/ERC20.sol\":2008:2012  bool */\n      0x00\n        /* \"Primeros pasos en Solidity/ERC20.sol\":2044:2052  balances */\n      dup1\n        /* \"Primeros pasos en Solidity/ERC20.sol\":2044:2064  balances[msg.sender] */\n      0x00\n        /* \"Primeros pasos en Solidity/ERC20.sol\":2053:2063  msg.sender */\n      caller\n        /* \"Primeros pasos en Solidity/ERC20.sol\":2044:2064  balances[msg.sender] */\n      0xffffffffffffffffffffffffffffffffffffffff\n      and\n      0xffffffffffffffffffffffffffffffffffffffff\n      and\n      dup2\n      mstore\n      0x20\n      add\n      swap1\n      dup2\n      mstore\n      0x20\n      add\n      0x00\n      keccak256\n      sload\n        /* \"Primeros pasos en Solidity/ERC20.sol\":2031:2040  numTokens */\n      dup3\n        /* \"Primeros pasos en Solidity/ERC20.sol\":2031:2064  numTokens <= balances[msg.sender] */\n      gt\n      iszero\n        /* \"Primeros pasos en Solidity/ERC20.sol\":2023:2065  require(numTokens <= balances[msg.sender]) */\n      tag_78\n      jumpi\n      0x00\n      dup1\n      revert\n    tag_78:\n        /* \"Primeros pasos en Solidity/ERC20.sol\":2098:2133  balances[msg.sender].sub(numTokens) */\n      tag_79\n        /* \"Primeros pasos en Solidity/ERC20.sol\":2123:2132  numTokens */\n      dup3\n        /* \"Primeros pasos en Solidity/ERC20.sol\":2098:2106  balances */\n      0x00\n        /* \"Primeros pasos en Solidity/ERC20.sol\":2098:2118  balances[msg.sender] */\n      dup1\n        /* \"Primeros pasos en Solidity/ERC20.sol\":2107:2117  msg.sender */\n      caller\n        /* \"Primeros pasos en Solidity/ERC20.sol\":2098:2118  balances[msg.sender] */\n      0xffffffffffffffffffffffffffffffffffffffff\n      and\n      0xffffffffffffffffffffffffffffffffffffffff\n      and\n      dup2\n      mstore\n      0x20\n      add\n      swap1\n      dup2\n      mstore\n      0x20\n      add\n      0x00\n      keccak256\n      sload\n        /* \"Primeros pasos en Solidity/ERC20.sol\":2098:2122  balances[msg.sender].sub */\n      tag_70\n      swap1\n        /* \"Primeros pasos en Solidity/ERC20.sol\":2098:2133  balances[msg.sender].sub(numTokens) */\n      swap2\n      swap1\n      0xffffffff\n      and\n      jump\t// in\n    tag_79:\n        /* \"Primeros pasos en Solidity/ERC20.sol\":2075:2083  balances */\n      0x00\n        /* \"Primeros pasos en Solidity/ERC20.sol\":2075:2095  balances[msg.sender] */\n      dup1\n        /* \"Primeros pasos en Solidity/ERC20.sol\":2084:2094  msg.sender */\n      caller\n        /* \"Primeros pasos en Solidity/ERC20.sol\":2075:2095  balances[msg.sender] */\n      0xffffffffffffffffffffffffffffffffffffffff\n      and\n      0xffffffffffffffffffffffffffffffffffffffff\n      and\n      dup2\n      mstore\n      0x20\n      add\n      swap1\n      dup2\n      mstore\n      0x20\n      add\n      0x00\n      keccak256\n        /* \"Primeros pasos en Solidity/ERC20.sol\":2075:2133  balances[msg.sender] = balances[msg.sender].sub(numTokens) */\n      dup2\n      swap1\n      sstore\n      pop\n        /* \"Primeros pasos en Solidity/ERC20.sol\":2164:2197  balances[receiver].add(numTokens) */\n      tag_80\n        /* \"Primeros pasos en Solidity/ERC20.sol\":2187:2196  numTokens */\n      dup3\n        /* \"Primeros pasos en Solidity/ERC20.sol\":2164:2172  balances */\n      0x00\n        /* \"Primeros pasos en Solidity/ERC20.sol\":2164:2182  balances[receiver] */\n      dup1\n        /* \"Primeros pasos en Solidity/ERC20.sol\":2173:2181  receiver */\n      dup7\n        /* \"Primeros pasos en Solidity/ERC20.sol\":2164:2182  balances[receiver] */\n      0xffffffffffffffffffffffffffffffffffffffff\n      and\n      0xffffffffffffffffffffffffffffffffffffffff\n      and\n      dup2\n      mstore\n      0x20\n      add\n      swap1\n      dup2\n      mstore\n      0x20\n      add\n      0x00\n      keccak256\n      sload\n        /* \"Primeros pasos en Solidity/ERC20.sol\":2164:2186  balances[receiver].add */\n      tag_73\n      swap1\n        /* \"Primeros pasos en Solidity/ERC20.sol\":2164:2197  balances[receiver].add(numTokens) */\n      swap2\n      swap1\n      0xffffffff\n      and\n      jump\t// in\n    tag_80:\n        /* \"Primeros pasos en Solidity/ERC20.sol\":2143:2151  balances */\n      0x00\n        /* \"Primeros pasos en Solidity/ERC20.sol\":2143:2161  balances[receiver] */\n      dup1\n        /* \"Primeros pasos en Solidity/ERC20.sol\":2152:2160  receiver */\n      dup6\n        /* \"Primeros pasos en Solidity/ERC20.sol\":2143:2161  balances[receiver] */\n      0xffffffffffffffffffffffffffffffffffffffff\n      and\n      0xffffffffffffffffffffffffffffffffffffffff\n      and\n      dup2\n      mstore\n      0x20\n      add\n      swap1\n      dup2\n      mstore\n      0x20\n      add\n      0x00\n      keccak256\n        /* \"Primeros pasos en Solidity/ERC20.sol\":2143:2197  balances[receiver] = balances[receiver].add(numTokens) */\n      dup2\n      swap1\n      sstore\n      pop\n        /* \"Primeros pasos en Solidity/ERC20.sol\":2232:2240  receiver */\n      dup3\n        /* \"Primeros pasos en Solidity/ERC20.sol\":2212:2251  Transfer(msg.sender,receiver,numTokens) */\n      0xffffffffffffffffffffffffffffffffffffffff\n      and\n        /* \"Primeros pasos en Solidity/ERC20.sol\":2221:2231  msg.sender */\n      caller\n        /* \"Primeros pasos en Solidity/ERC20.sol\":2212:2251  Transfer(msg.sender,receiver,numTokens) */\n      0xffffffffffffffffffffffffffffffffffffffff\n      and\n      0xddf252ad1be2c89b69c2b068fc378daa952ba7f163c4a11628f55a4df523b3ef\n        /* \"Primeros pasos en Solidity/ERC20.sol\":2241:2250  numTokens */\n      dup5\n        /* \"Primeros pasos en Solidity/ERC20.sol\":2212:2251  Transfer(msg.sender,receiver,numTokens) */\n      mload(0x40)\n      tag_81\n      swap2\n      swap1\n      tag_28\n      jump\t// in\n    tag_81:\n      mload(0x40)\n      dup1\n      swap2\n      sub\n      swap1\n      log3\n        /* \"Primeros pasos en Solidity/ERC20.sol\":2268:2272  true */\n      0x01\n        /* \"Primeros pasos en Solidity/ERC20.sol\":2261:2272  return true */\n      swap1\n      pop\n        /* \"Primeros pasos en Solidity/ERC20.sol\":1928:2279  function transfer(address receiver, uint256 numTokens) public override returns (bool){... */\n      swap3\n      swap2\n      pop\n      pop\n      jump\t// out\n        /* \"Primeros pasos en Solidity/ERC20.sol\":2895:3031  function allowance (address owner, address delegate) public override view returns (uint){... */\n    tag_57:\n        /* \"Primeros pasos en Solidity/ERC20.sol\":2978:2982  uint */\n      0x00\n        /* \"Primeros pasos en Solidity/ERC20.sol\":3000:3007  allowed */\n      0x01\n        /* \"Primeros pasos en Solidity/ERC20.sol\":3000:3014  allowed[owner] */\n      0x00\n        /* \"Primeros pasos en Solidity/ERC20.sol\":3008:3013  owner */\n      dup5\n        /* \"Primeros pasos en Solidity/ERC20.sol\":3000:3014  allowed[owner] */\n      0xffffffffffffffffffffffffffffffffffffffff\n      and\n      0xffffffffffffffffffffffffffffffffffffffff\n      and\n      dup2\n      mstore\n      0x20\n      add\n      swap1\n      dup2\n      mstore\n      0x20\n      add\n      0x00\n      keccak256\n        /* \"Primeros pasos en Solidity/ERC20.sol\":3000:3024  allowed[owner][delegate] */\n      0x00\n        /* \"Primeros pasos en Solidity/ERC20.sol\":3015:3023  delegate */\n      dup4\n        /* \"Primeros pasos en Solidity/ERC20.sol\":3000:3024  allowed[owner][delegate] */\n      0xffffffffffffffffffffffffffffffffffffffff\n      and\n      0xffffffffffffffffffffffffffffffffffffffff\n      and\n      dup2\n      mstore\n      0x20\n      add\n      swap1\n      dup2\n      mstore\n      0x20\n      add\n      0x00\n      keccak256\n      sload\n        /* \"Primeros pasos en Solidity/ERC20.sol\":2993:3024  return allowed[owner][delegate] */\n      swap1\n      pop\n        /* \"Primeros pasos en Solidity/ERC20.sol\":2895:3031  function allowance (address owner, address delegate) public override view returns (uint){... */\n      swap3\n      swap2\n      pop\n      pop\n      jump\t// out\n        /* \"Primeros pasos en Solidity/ERC20.sol\":2290:2653  function transferencia_disney(address sender, address receiver, uint256 numTokens) public override returns (bool){... */\n    tag_61:\n        /* \"Primeros pasos en Solidity/ERC20.sol\":2398:2402  bool */\n      0x00\n        /* \"Primeros pasos en Solidity/ERC20.sol\":2434:2442  balances */\n      dup1\n        /* \"Primeros pasos en Solidity/ERC20.sol\":2434:2450  balances[sender] */\n      0x00\n        /* \"Primeros pasos en Solidity/ERC20.sol\":2443:2449  sender */\n      dup6\n        /* \"Primeros pasos en Solidity/ERC20.sol\":2434:2450  balances[sender] */\n      0xffffffffffffffffffffffffffffffffffffffff\n      and\n      0xffffffffffffffffffffffffffffffffffffffff\n      and\n      dup2\n      mstore\n      0x20\n      add\n      swap1\n      dup2\n      mstore\n      0x20\n      add\n      0x00\n      keccak256\n      sload\n        /* \"Primeros pasos en Solidity/ERC20.sol\":2421:2430  numTokens */\n      dup3\n        /* \"Primeros pasos en Solidity/ERC20.sol\":2421:2450  numTokens <= balances[sender] */\n      gt\n      iszero\n        /* \"Primeros pasos en Solidity/ERC20.sol\":2413:2451  require(numTokens <= balances[sender]) */\n      tag_84\n      jumpi\n      0x00\n      dup1\n      revert\n    tag_84:\n        /* \"Primeros pasos en Solidity/ERC20.sol\":2480:2511  balances[sender].sub(numTokens) */\n      tag_85\n        /* \"Primeros pasos en Solidity/ERC20.sol\":2501:2510  numTokens */\n      dup3\n        /* \"Primeros pasos en Solidity/ERC20.sol\":2480:2488  balances */\n      0x00\n        /* \"Primeros pasos en Solidity/ERC20.sol\":2480:2496  balances[sender] */\n      dup1\n        /* \"Primeros pasos en Solidity/ERC20.sol\":2489:2495  sender */\n      dup8\n        /* \"Primeros pasos en Solidity/ERC20.sol\":2480:2496  balances[sender] */\n      0xffffffffffffffffffffffffffffffffffffffff\n      and\n      0xffffffffffffffffffffffffffffffffffffffff\n      and\n      dup2\n      mstore\n      0x20\n      add\n      swap1\n      dup2\n      mstore\n      0x20\n      add\n      0x00\n      keccak256\n      sload\n        /* \"Primeros pasos en Solidity/ERC20.sol\":2480:2500  balances[sender].sub */\n      tag_70\n      swap1\n        /* \"Primeros pasos en Solidity/ERC20.sol\":2480:2511  balances[sender].sub(numTokens) */\n      swap2\n      swap1\n      0xffffffff\n      and\n      jump\t// in\n    tag_85:\n        /* \"Primeros pasos en Solidity/ERC20.sol\":2461:2469  balances */\n      0x00\n        /* \"Primeros pasos en Solidity/ERC20.sol\":2461:2477  balances[sender] */\n      dup1\n        /* \"Primeros pasos en Solidity/ERC20.sol\":2470:2476  sender */\n      dup7\n        /* \"Primeros pasos en Solidity/ERC20.sol\":2461:2477  balances[sender] */\n      0xffffffffffffffffffffffffffffffffffffffff\n      and\n      0xffffffffffffffffffffffffffffffffffffffff\n      and\n      dup2\n      mstore\n      0x20\n      add\n      swap1\n      dup2\n      mstore\n      0x20\n      add\n      0x00\n      keccak256\n        /* \"Primeros pasos en Solidity/ERC20.sol\":2461:2511  balances[sender] = balances[sender].sub(numTokens) */\n      dup2\n      swap1\n      sstore\n      pop\n        /* \"Primeros pasos en Solidity/ERC20.sol\":2542:2575  balances[receiver].add(numTokens) */\n      tag_86\n        /* \"Primeros pasos en Solidity/ERC20.sol\":2565:2574  numTokens */\n      dup3\n        /* \"Primeros pasos en Solidity/ERC20.sol\":2542:2550  balances */\n      0x00\n        /* \"Primeros pasos en Solidity/ERC20.sol\":2542:2560  balances[receiver] */\n      dup1\n        /* \"Primeros pasos en Solidity/ERC20.sol\":2551:2559  receiver */\n      dup7\n        /* \"Primeros pasos en Solidity/ERC20.sol\":2542:2560  balances[receiver] */\n      0xffffffffffffffffffffffffffffffffffffffff\n      and\n      0xffffffffffffffffffffffffffffffffffffffff\n      and\n      dup2\n      mstore\n      0x20\n      add\n      swap1\n      dup2\n      mstore\n      0x20\n      add\n      0x00\n      keccak256\n      sload\n        /* \"Primeros pasos en Solidity/ERC20.sol\":2542:2564  balances[receiver].add */\n      tag_73\n      swap1\n        /* \"Primeros pasos en Solidity/ERC20.sol\":2542:2575  balances[receiver].add(numTokens) */\n      swap2\n      swap1\n      0xffffffff\n      and\n      jump\t// in\n    tag_86:\n        /* \"Primeros pasos en Solidity/ERC20.sol\":2521:2529  balances */\n      0x00\n        /* \"Primeros pasos en Solidity/ERC20.sol\":2521:2539  balances[receiver] */\n      dup1\n        /* \"Primeros pasos en Solidity/ERC20.sol\":2530:2538  receiver */\n      dup6\n        /* \"Primeros pasos en Solidity/ERC20.sol\":2521:2539  balances[receiver] */\n      0xffffffffffffffffffffffffffffffffffffffff\n      and\n      0xffffffffffffffffffffffffffffffffffffffff\n      and\n      dup2\n      mstore\n      0x20\n      add\n      swap1\n      dup2\n      mstore\n      0x20\n      add\n      0x00\n      keccak256\n        /* \"Primeros pasos en Solidity/ERC20.sol\":2521:2575  balances[receiver] = balances[receiver].add(numTokens) */\n      dup2\n      swap1\n      sstore\n      pop\n        /* \"Primeros pasos en Solidity/ERC20.sol\":2606:2614  receiver */\n      dup3\n        /* \"Primeros pasos en Solidity/ERC20.sol\":2590:2625  Transfer(sender,receiver,numTokens) */\n      0xffffffffffffffffffffffffffffffffffffffff\n      and\n        /* \"Primeros pasos en Solidity/ERC20.sol\":2599:2605  sender */\n      dup5\n        /* \"Primeros pasos en Solidity/ERC20.sol\":2590:2625  Transfer(sender,receiver,numTokens) */\n      0xffffffffffffffffffffffffffffffffffffffff\n      and\n      0xddf252ad1be2c89b69c2b068fc378daa952ba7f163c4a11628f55a4df523b3ef\n        /* \"Primeros pasos en Solidity/ERC20.sol\":2615:2624  numTokens */\n      dup5\n        /* \"Primeros pasos en Solidity/ERC20.sol\":2590:2625  Transfer(sender,receiver,numTokens) */\n      mload(0x40)\n      tag_87\n      swap2\n      swap1\n      tag_28\n      jump\t// in\n    tag_87:\n      mload(0x40)\n      dup1\n      swap2\n      sub\n      swap1\n      log3\n        /* \"Primeros pasos en Solidity/ERC20.sol\":2642:2646  true */\n      0x01\n        /* \"Primeros pasos en Solidity/ERC20.sol\":2635:2646  return true */\n      swap1\n      pop\n        /* \"Primeros pasos en Solidity/ERC20.sol\":2290:2653  function transferencia_disney(address sender, address receiver, uint256 numTokens) public override returns (bool){... */\n      swap4\n      swap3\n      pop\n      pop\n      pop\n      jump\t// out\n        /* \"Primeros pasos en Solidity/SafeMath.sol\":308:424  function sub(uint256 a, uint256 b) internal pure returns (uint256) {... */\n    tag_70:\n        /* \"Primeros pasos en Solidity/SafeMath.sol\":366:373  uint256 */\n      0x00\n        /* \"Primeros pasos en Solidity/SafeMath.sol\":395:396  a */\n      dup3\n        /* \"Primeros pasos en Solidity/SafeMath.sol\":390:391  b */\n      dup3\n        /* \"Primeros pasos en Solidity/SafeMath.sol\":390:396  b <= a */\n      gt\n      iszero\n        /* \"Primeros pasos en Solidity/SafeMath.sol\":383:397  assert(b <= a) */\n      tag_89\n      jumpi\n      invalid\n    tag_89:\n        /* \"Primeros pasos en Solidity/SafeMath.sol\":416:417  b */\n      dup2\n        /* \"Primeros pasos en Solidity/SafeMath.sol\":412:413  a */\n      dup4\n        /* \"Primeros pasos en Solidity/SafeMath.sol\":412:417  a - b */\n      sub\n        /* \"Primeros pasos en Solidity/SafeMath.sol\":405:417  return a - b */\n      swap1\n      pop\n        /* \"Primeros pasos en Solidity/SafeMath.sol\":308:424  function sub(uint256 a, uint256 b) internal pure returns (uint256) {... */\n      swap3\n      swap2\n      pop\n      pop\n      jump\t// out\n        /* \"Primeros pasos en Solidity/SafeMath.sol\":447:584  function add(uint256 a, uint256 b) internal pure returns (uint256) {... */\n    tag_73:\n        /* \"Primeros pasos en Solidity/SafeMath.sol\":505:512  uint256 */\n      0x00\n        /* \"Primeros pasos en Solidity/SafeMath.sol\":522:531  uint256 c */\n      dup1\n        /* \"Primeros pasos en Solidity/SafeMath.sol\":538:539  b */\n      dup3\n        /* \"Primeros pasos en Solidity/SafeMath.sol\":534:535  a */\n      dup5\n        /* \"Primeros pasos en Solidity/SafeMath.sol\":534:539  a + b */\n      add\n        /* \"Primeros pasos en Solidity/SafeMath.sol\":522:539  uint256 c = a + b */\n      swap1\n      pop\n        /* \"Primeros pasos en Solidity/SafeMath.sol\":559:560  a */\n      dup4\n        /* \"Primeros pasos en Solidity/SafeMath.sol\":554:555  c */\n      dup2\n        /* \"Primeros pasos en Solidity/SafeMath.sol\":554:560  c >= a */\n      lt\n      iszero\n        /* \"Primeros pasos en Solidity/SafeMath.sol\":547:561  assert(c >= a) */\n      tag_91\n      jumpi\n      invalid\n    tag_91:\n        /* \"Primeros pasos en Solidity/SafeMath.sol\":576:577  c */\n      dup1\n        /* \"Primeros pasos en Solidity/SafeMath.sol\":569:577  return c */\n      swap2\n      pop\n      pop\n        /* \"Primeros pasos en Solidity/SafeMath.sol\":447:584  function add(uint256 a, uint256 b) internal pure returns (uint256) {... */\n      swap3\n      swap2\n      pop\n      pop\n      jump\t// out\n        /* \"--CODEGEN--\":5:135   */\n    tag_93:\n      0x00\n        /* \"--CODEGEN--\":85:91   */\n      dup2\n        /* \"--CODEGEN--\":72:92   */\n      calldataload\n        /* \"--CODEGEN--\":63:92   */\n      swap1\n      pop\n        /* \"--CODEGEN--\":97:130   */\n      tag_95\n        /* \"--CODEGEN--\":124:129   */\n      dup2\n        /* \"--CODEGEN--\":97:130   */\n      tag_96\n      jump\t// in\n    tag_95:\n        /* \"--CODEGEN--\":57:135   */\n      swap3\n      swap2\n      pop\n      pop\n      jump\t// out\n        /* \"--CODEGEN--\":142:272   */\n    tag_97:\n      0x00\n        /* \"--CODEGEN--\":222:228   */\n      dup2\n        /* \"--CODEGEN--\":209:229   */\n      calldataload\n        /* \"--CODEGEN--\":200:229   */\n      swap1\n      pop\n        /* \"--CODEGEN--\":234:267   */\n      tag_99\n        /* \"--CODEGEN--\":261:266   */\n      dup2\n        /* \"--CODEGEN--\":234:267   */\n      tag_100\n      jump\t// in\n    tag_99:\n        /* \"--CODEGEN--\":194:272   */\n      swap3\n      swap2\n      pop\n      pop\n      jump\t// out\n        /* \"--CODEGEN--\":279:520   */\n    tag_44:\n      0x00\n        /* \"--CODEGEN--\":383:385   */\n      0x20\n        /* \"--CODEGEN--\":371:380   */\n      dup3\n        /* \"--CODEGEN--\":362:369   */\n      dup5\n        /* \"--CODEGEN--\":358:381   */\n      sub\n        /* \"--CODEGEN--\":354:386   */\n      slt\n        /* \"--CODEGEN--\":351:353   */\n      iszero\n      tag_102\n      jumpi\n        /* \"--CODEGEN--\":399:400   */\n      0x00\n        /* \"--CODEGEN--\":396:397   */\n      dup1\n        /* \"--CODEGEN--\":389:401   */\n      revert\n        /* \"--CODEGEN--\":351:353   */\n    tag_102:\n        /* \"--CODEGEN--\":434:435   */\n      0x00\n        /* \"--CODEGEN--\":451:504   */\n      tag_103\n        /* \"--CODEGEN--\":496:503   */\n      dup5\n        /* \"--CODEGEN--\":487:493   */\n      dup3\n        /* \"--CODEGEN--\":476:485   */\n      dup6\n        /* \"--CODEGEN--\":472:494   */\n      add\n        /* \"--CODEGEN--\":451:504   */\n      tag_93\n      jump\t// in\n    tag_103:\n        /* \"--CODEGEN--\":441:504   */\n      swap2\n      pop\n        /* \"--CODEGEN--\":413:510   */\n      pop\n        /* \"--CODEGEN--\":345:520   */\n      swap3\n      swap2\n      pop\n      pop\n      jump\t// out\n        /* \"--CODEGEN--\":527:893   */\n    tag_56:\n      0x00\n      dup1\n        /* \"--CODEGEN--\":648:650   */\n      0x40\n        /* \"--CODEGEN--\":636:645   */\n      dup4\n        /* \"--CODEGEN--\":627:634   */\n      dup6\n        /* \"--CODEGEN--\":623:646   */\n      sub\n        /* \"--CODEGEN--\":619:651   */\n      slt\n        /* \"--CODEGEN--\":616:618   */\n      iszero\n      tag_105\n      jumpi\n        /* \"--CODEGEN--\":664:665   */\n      0x00\n        /* \"--CODEGEN--\":661:662   */\n      dup1\n        /* \"--CODEGEN--\":654:666   */\n      revert\n        /* \"--CODEGEN--\":616:618   */\n    tag_105:\n        /* \"--CODEGEN--\":699:700   */\n      0x00\n        /* \"--CODEGEN--\":716:769   */\n      tag_106\n        /* \"--CODEGEN--\":761:768   */\n      dup6\n        /* \"--CODEGEN--\":752:758   */\n      dup3\n        /* \"--CODEGEN--\":741:750   */\n      dup7\n        /* \"--CODEGEN--\":737:759   */\n      add\n        /* \"--CODEGEN--\":716:769   */\n      tag_93\n      jump\t// in\n    tag_106:\n        /* \"--CODEGEN--\":706:769   */\n      swap3\n      pop\n        /* \"--CODEGEN--\":678:775   */\n      pop\n        /* \"--CODEGEN--\":806:808   */\n      0x20\n        /* \"--CODEGEN--\":824:877   */\n      tag_107\n        /* \"--CODEGEN--\":869:876   */\n      dup6\n        /* \"--CODEGEN--\":860:866   */\n      dup3\n        /* \"--CODEGEN--\":849:858   */\n      dup7\n        /* \"--CODEGEN--\":845:867   */\n      add\n        /* \"--CODEGEN--\":824:877   */\n      tag_93\n      jump\t// in\n    tag_107:\n        /* \"--CODEGEN--\":814:877   */\n      swap2\n      pop\n        /* \"--CODEGEN--\":785:883   */\n      pop\n        /* \"--CODEGEN--\":610:893   */\n      swap3\n      pop\n      swap3\n      swap1\n      pop\n      jump\t// out\n        /* \"--CODEGEN--\":900:1391   */\n    tag_31:\n      0x00\n      dup1\n      0x00\n        /* \"--CODEGEN--\":1038:1040   */\n      0x60\n        /* \"--CODEGEN--\":1026:1035   */\n      dup5\n        /* \"--CODEGEN--\":1017:1024   */\n      dup7\n        /* \"--CODEGEN--\":1013:1036   */\n      sub\n        /* \"--CODEGEN--\":1009:1041   */\n      slt\n        /* \"--CODEGEN--\":1006:1008   */\n      iszero\n      tag_109\n      jumpi\n        /* \"--CODEGEN--\":1054:1055   */\n      0x00\n        /* \"--CODEGEN--\":1051:1052   */\n      dup1\n        /* \"--CODEGEN--\":1044:1056   */\n      revert\n        /* \"--CODEGEN--\":1006:1008   */\n    tag_109:\n        /* \"--CODEGEN--\":1089:1090   */\n      0x00\n        /* \"--CODEGEN--\":1106:1159   */\n      tag_110\n        /* \"--CODEGEN--\":1151:1158   */\n      dup7\n        /* \"--CODEGEN--\":1142:1148   */\n      dup3\n        /* \"--CODEGEN--\":1131:1140   */\n      dup8\n        /* \"--CODEGEN--\":1127:1149   */\n      add\n        /* \"--CODEGEN--\":1106:1159   */\n      tag_93\n      jump\t// in\n    tag_110:\n        /* \"--CODEGEN--\":1096:1159   */\n      swap4\n      pop\n        /* \"--CODEGEN--\":1068:1165   */\n      pop\n        /* \"--CODEGEN--\":1196:1198   */\n      0x20\n        /* \"--CODEGEN--\":1214:1267   */\n      tag_111\n        /* \"--CODEGEN--\":1259:1266   */\n      dup7\n        /* \"--CODEGEN--\":1250:1256   */\n      dup3\n        /* \"--CODEGEN--\":1239:1248   */\n      dup8\n        /* \"--CODEGEN--\":1235:1257   */\n      add\n        /* \"--CODEGEN--\":1214:1267   */\n      tag_93\n      jump\t// in\n    tag_111:\n        /* \"--CODEGEN--\":1204:1267   */\n      swap3\n      pop\n        /* \"--CODEGEN--\":1175:1273   */\n      pop\n        /* \"--CODEGEN--\":1304:1306   */\n      0x40\n        /* \"--CODEGEN--\":1322:1375   */\n      tag_112\n        /* \"--CODEGEN--\":1367:1374   */\n      dup7\n        /* \"--CODEGEN--\":1358:1364   */\n      dup3\n        /* \"--CODEGEN--\":1347:1356   */\n      dup8\n        /* \"--CODEGEN--\":1343:1365   */\n      add\n        /* \"--CODEGEN--\":1322:1375   */\n      tag_97\n      jump\t// in\n    tag_112:\n        /* \"--CODEGEN--\":1312:1375   */\n      swap2\n      pop\n        /* \"--CODEGEN--\":1283:1381   */\n      pop\n        /* \"--CODEGEN--\":1000:1391   */\n      swap3\n      pop\n      swap3\n      pop\n      swap3\n      jump\t// out\n        /* \"--CODEGEN--\":1398:1764   */\n    tag_21:\n      0x00\n      dup1\n        /* \"--CODEGEN--\":1519:1521   */\n      0x40\n        /* \"--CODEGEN--\":1507:1516   */\n      dup4\n        /* \"--CODEGEN--\":1498:1505   */\n      dup6\n        /* \"--CODEGEN--\":1494:1517   */\n      sub\n        /* \"--CODEGEN--\":1490:1522   */\n      slt\n        /* \"--CODEGEN--\":1487:1489   */\n      iszero\n      tag_114\n      jumpi\n        /* \"--CODEGEN--\":1535:1536   */\n      0x00\n        /* \"--CODEGEN--\":1532:1533   */\n      dup1\n        /* \"--CODEGEN--\":1525:1537   */\n      revert\n        /* \"--CODEGEN--\":1487:1489   */\n    tag_114:\n        /* \"--CODEGEN--\":1570:1571   */\n      0x00\n        /* \"--CODEGEN--\":1587:1640   */\n      tag_115\n        /* \"--CODEGEN--\":1632:1639   */\n      dup6\n        /* \"--CODEGEN--\":1623:1629   */\n      dup3\n        /* \"--CODEGEN--\":1612:1621   */\n      dup7\n        /* \"--CODEGEN--\":1608:1630   */\n      add\n        /* \"--CODEGEN--\":1587:1640   */\n      tag_93\n      jump\t// in\n    tag_115:\n        /* \"--CODEGEN--\":1577:1640   */\n      swap3\n      pop\n        /* \"--CODEGEN--\":1549:1646   */\n      pop\n        /* \"--CODEGEN--\":1677:1679   */\n      0x20\n        /* \"--CODEGEN--\":1695:1748   */\n      tag_116\n        /* \"--CODEGEN--\":1740:1747   */\n      dup6\n        /* \"--CODEGEN--\":1731:1737   */\n      dup3\n        /* \"--CODEGEN--\":1720:1729   */\n      dup7\n        /* \"--CODEGEN--\":1716:1738   */\n      add\n        /* \"--CODEGEN--\":1695:1748   */\n      tag_97\n      jump\t// in\n    tag_116:\n        /* \"--CODEGEN--\":1685:1748   */\n      swap2\n      pop\n        /* \"--CODEGEN--\":1656:1754   */\n      pop\n        /* \"--CODEGEN--\":1481:1764   */\n      swap3\n      pop\n      swap3\n      swap1\n      pop\n      jump\t// out\n        /* \"--CODEGEN--\":1771:2012   */\n    tag_40:\n      0x00\n        /* \"--CODEGEN--\":1875:1877   */\n      0x20\n        /* \"--CODEGEN--\":1863:1872   */\n      dup3\n        /* \"--CODEGEN--\":1854:1861   */\n      dup5\n        /* \"--CODEGEN--\":1850:1873   */\n      sub\n        /* \"--CODEGEN--\":1846:1878   */\n      slt\n        /* \"--CODEGEN--\":1843:1845   */\n      iszero\n      tag_118\n      jumpi\n        /* \"--CODEGEN--\":1891:1892   */\n      0x00\n        /* \"--CODEGEN--\":1888:1889   */\n      dup1\n        /* \"--CODEGEN--\":1881:1893   */\n      revert\n        /* \"--CODEGEN--\":1843:1845   */\n    tag_118:\n        /* \"--CODEGEN--\":1926:1927   */\n      0x00\n        /* \"--CODEGEN--\":1943:1996   */\n      tag_119\n        /* \"--CODEGEN--\":1988:1995   */\n      dup5\n        /* \"--CODEGEN--\":1979:1985   */\n      dup3\n        /* \"--CODEGEN--\":1968:1977   */\n      dup6\n        /* \"--CODEGEN--\":1964:1986   */\n      add\n        /* \"--CODEGEN--\":1943:1996   */\n      tag_97\n      jump\t// in\n    tag_119:\n        /* \"--CODEGEN--\":1933:1996   */\n      swap2\n      pop\n        /* \"--CODEGEN--\":1905:2002   */\n      pop\n        /* \"--CODEGEN--\":1837:2012   */\n      swap3\n      swap2\n      pop\n      pop\n      jump\t// out\n        /* \"--CODEGEN--\":2019:2123   */\n    tag_120:\n        /* \"--CODEGEN--\":2096:2117   */\n      tag_122\n        /* \"--CODEGEN--\":2111:2116   */\n      dup2\n        /* \"--CODEGEN--\":2096:2117   */\n      tag_123\n      jump\t// in\n    tag_122:\n        /* \"--CODEGEN--\":2091:2094   */\n      dup3\n        /* \"--CODEGEN--\":2084:2118   */\n      mstore\n        /* \"--CODEGEN--\":2078:2123   */\n      pop\n      pop\n      jump\t// out\n        /* \"--CODEGEN--\":2130:2477   */\n    tag_124:\n      0x00\n        /* \"--CODEGEN--\":2242:2281   */\n      tag_126\n        /* \"--CODEGEN--\":2275:2280   */\n      dup3\n        /* \"--CODEGEN--\":2242:2281   */\n      tag_127\n      jump\t// in\n    tag_126:\n        /* \"--CODEGEN--\":2293:2364   */\n      tag_128\n        /* \"--CODEGEN--\":2357:2363   */\n      dup2\n        /* \"--CODEGEN--\":2352:2355   */\n      dup6\n        /* \"--CODEGEN--\":2293:2364   */\n      tag_129\n      jump\t// in\n    tag_128:\n        /* \"--CODEGEN--\":2286:2364   */\n      swap4\n      pop\n        /* \"--CODEGEN--\":2369:2421   */\n      tag_130\n        /* \"--CODEGEN--\":2414:2420   */\n      dup2\n        /* \"--CODEGEN--\":2409:2412   */\n      dup6\n        /* \"--CODEGEN--\":2402:2406   */\n      0x20\n        /* \"--CODEGEN--\":2395:2400   */\n      dup7\n        /* \"--CODEGEN--\":2391:2407   */\n      add\n        /* \"--CODEGEN--\":2369:2421   */\n      tag_131\n      jump\t// in\n    tag_130:\n        /* \"--CODEGEN--\":2442:2471   */\n      tag_132\n        /* \"--CODEGEN--\":2464:2470   */\n      dup2\n        /* \"--CODEGEN--\":2442:2471   */\n      tag_133\n      jump\t// in\n    tag_132:\n        /* \"--CODEGEN--\":2437:2440   */\n      dup5\n        /* \"--CODEGEN--\":2433:2472   */\n      add\n        /* \"--CODEGEN--\":2426:2472   */\n      swap2\n      pop\n        /* \"--CODEGEN--\":2222:2477   */\n      pop\n      swap3\n      swap2\n      pop\n      pop\n      jump\t// out\n        /* \"--CODEGEN--\":2484:2597   */\n    tag_134:\n        /* \"--CODEGEN--\":2567:2591   */\n      tag_136\n        /* \"--CODEGEN--\":2585:2590   */\n      dup2\n        /* \"--CODEGEN--\":2567:2591   */\n      tag_137\n      jump\t// in\n    tag_136:\n        /* \"--CODEGEN--\":2562:2565   */\n      dup3\n        /* \"--CODEGEN--\":2555:2592   */\n      mstore\n        /* \"--CODEGEN--\":2549:2597   */\n      pop\n      pop\n      jump\t// out\n        /* \"--CODEGEN--\":2604:2711   */\n    tag_138:\n        /* \"--CODEGEN--\":2683:2705   */\n      tag_140\n        /* \"--CODEGEN--\":2699:2704   */\n      dup2\n        /* \"--CODEGEN--\":2683:2705   */\n      tag_141\n      jump\t// in\n    tag_140:\n        /* \"--CODEGEN--\":2678:2681   */\n      dup3\n        /* \"--CODEGEN--\":2671:2706   */\n      mstore\n        /* \"--CODEGEN--\":2665:2711   */\n      pop\n      pop\n      jump\t// out\n        /* \"--CODEGEN--\":2718:2928   */\n    tag_24:\n      0x00\n        /* \"--CODEGEN--\":2839:2841   */\n      0x20\n        /* \"--CODEGEN--\":2828:2837   */\n      dup3\n        /* \"--CODEGEN--\":2824:2842   */\n      add\n        /* \"--CODEGEN--\":2816:2842   */\n      swap1\n      pop\n        /* \"--CODEGEN--\":2853:2918   */\n      tag_143\n        /* \"--CODEGEN--\":2915:2916   */\n      0x00\n        /* \"--CODEGEN--\":2904:2913   */\n      dup4\n        /* \"--CODEGEN--\":2900:2917   */\n      add\n        /* \"--CODEGEN--\":2891:2897   */\n      dup5\n        /* \"--CODEGEN--\":2853:2918   */\n      tag_120\n      jump\t// in\n    tag_143:\n        /* \"--CODEGEN--\":2810:2928   */\n      swap3\n      swap2\n      pop\n      pop\n      jump\t// out\n        /* \"--CODEGEN--\":2935:3245   */\n    tag_18:\n      0x00\n        /* \"--CODEGEN--\":3082:3084   */\n      0x20\n        /* \"--CODEGEN--\":3071:3080   */\n      dup3\n        /* \"--CODEGEN--\":3067:3085   */\n      add\n        /* \"--CODEGEN--\":3059:3085   */\n      swap1\n      pop\n        /* \"--CODEGEN--\":3132:3141   */\n      dup2\n        /* \"--CODEGEN--\":3126:3130   */\n      dup2\n        /* \"--CODEGEN--\":3122:3142   */\n      sub\n        /* \"--CODEGEN--\":3118:3119   */\n      0x00\n        /* \"--CODEGEN--\":3107:3116   */\n      dup4\n        /* \"--CODEGEN--\":3103:3120   */\n      add\n        /* \"--CODEGEN--\":3096:3143   */\n      mstore\n        /* \"--CODEGEN--\":3157:3235   */\n      tag_145\n        /* \"--CODEGEN--\":3230:3234   */\n      dup2\n        /* \"--CODEGEN--\":3221:3227   */\n      dup5\n        /* \"--CODEGEN--\":3157:3235   */\n      tag_124\n      jump\t// in\n    tag_145:\n        /* \"--CODEGEN--\":3149:3235   */\n      swap1\n      pop\n        /* \"--CODEGEN--\":3053:3245   */\n      swap3\n      swap2\n      pop\n      pop\n      jump\t// out\n        /* \"--CODEGEN--\":3252:3474   */\n    tag_28:\n      0x00\n        /* \"--CODEGEN--\":3379:3381   */\n      0x20\n        /* \"--CODEGEN--\":3368:3377   */\n      dup3\n        /* \"--CODEGEN--\":3364:3382   */\n      add\n        /* \"--CODEGEN--\":3356:3382   */\n      swap1\n      pop\n        /* \"--CODEGEN--\":3393:3464   */\n      tag_147\n        /* \"--CODEGEN--\":3461:3462   */\n      0x00\n        /* \"--CODEGEN--\":3450:3459   */\n      dup4\n        /* \"--CODEGEN--\":3446:3463   */\n      add\n        /* \"--CODEGEN--\":3437:3443   */\n      dup5\n        /* \"--CODEGEN--\":3393:3464   */\n      tag_134\n      jump\t// in\n    tag_147:\n        /* \"--CODEGEN--\":3350:3474   */\n      swap3\n      swap2\n      pop\n      pop\n      jump\t// out\n        /* \"--CODEGEN--\":3481:3695   */\n    tag_37:\n      0x00\n        /* \"--CODEGEN--\":3604:3606   */\n      0x20\n        /* \"--CODEGEN--\":3593:3602   */\n      dup3\n        /* \"--CODEGEN--\":3589:3607   */\n      add\n        /* \"--CODEGEN--\":3581:3607   */\n      swap1\n      pop\n        /* \"--CODEGEN--\":3618:3685   */\n      tag_149\n        /* \"--CODEGEN--\":3682:3683   */\n      0x00\n        /* \"--CODEGEN--\":3671:3680   */\n      dup4\n        /* \"--CODEGEN--\":3667:3684   */\n      add\n        /* \"--CODEGEN--\":3658:3664   */\n      dup5\n        /* \"--CODEGEN--\":3618:3685   */\n      tag_138\n      jump\t// in\n    tag_149:\n        /* \"--CODEGEN--\":3575:3695   */\n      swap3\n      swap2\n      pop\n      pop\n      jump\t// out\n        /* \"--CODEGEN--\":3702:3824   */\n    tag_127:\n      0x00\n        /* \"--CODEGEN--\":3796:3801   */\n      dup2\n        /* \"--CODEGEN--\":3790:3802   */\n      mload\n        /* \"--CODEGEN--\":3780:3802   */\n      swap1\n      pop\n        /* \"--CODEGEN--\":3761:3824   */\n      swap2\n      swap1\n      pop\n      jump\t// out\n        /* \"--CODEGEN--\":3832:3995   */\n    tag_129:\n      0x00\n        /* \"--CODEGEN--\":3947:3953   */\n      dup3\n        /* \"--CODEGEN--\":3942:3945   */\n      dup3\n        /* \"--CODEGEN--\":3935:3954   */\n      mstore\n        /* \"--CODEGEN--\":3984:3988   */\n      0x20\n        /* \"--CODEGEN--\":3979:3982   */\n      dup3\n        /* \"--CODEGEN--\":3975:3989   */\n      add\n        /* \"--CODEGEN--\":3960:3989   */\n      swap1\n      pop\n        /* \"--CODEGEN--\":3928:3995   */\n      swap3\n      swap2\n      pop\n      pop\n      jump\t// out\n        /* \"--CODEGEN--\":4003:4094   */\n    tag_152:\n      0x00\n        /* \"--CODEGEN--\":4065:4089   */\n      tag_154\n        /* \"--CODEGEN--\":4083:4088   */\n      dup3\n        /* \"--CODEGEN--\":4065:4089   */\n      tag_155\n      jump\t// in\n    tag_154:\n        /* \"--CODEGEN--\":4054:4089   */\n      swap1\n      pop\n        /* \"--CODEGEN--\":4048:4094   */\n      swap2\n      swap1\n      pop\n      jump\t// out\n        /* \"--CODEGEN--\":4101:4186   */\n    tag_123:\n      0x00\n        /* \"--CODEGEN--\":4174:4179   */\n      dup2\n        /* \"--CODEGEN--\":4167:4180   */\n      iszero\n        /* \"--CODEGEN--\":4160:4181   */\n      iszero\n        /* \"--CODEGEN--\":4149:4181   */\n      swap1\n      pop\n        /* \"--CODEGEN--\":4143:4186   */\n      swap2\n      swap1\n      pop\n      jump\t// out\n        /* \"--CODEGEN--\":4193:4314   */\n    tag_155:\n      0x00\n        /* \"--CODEGEN--\":4266:4308   */\n      0xffffffffffffffffffffffffffffffffffffffff\n        /* \"--CODEGEN--\":4259:4264   */\n      dup3\n        /* \"--CODEGEN--\":4255:4309   */\n      and\n        /* \"--CODEGEN--\":4244:4309   */\n      swap1\n      pop\n        /* \"--CODEGEN--\":4238:4314   */\n      swap2\n      swap1\n      pop\n      jump\t// out\n        /* \"--CODEGEN--\":4321:4393   */\n    tag_137:\n      0x00\n        /* \"--CODEGEN--\":4383:4388   */\n      dup2\n        /* \"--CODEGEN--\":4372:4388   */\n      swap1\n      pop\n        /* \"--CODEGEN--\":4366:4393   */\n      swap2\n      swap1\n      pop\n      jump\t// out\n        /* \"--CODEGEN--\":4400:4481   */\n    tag_141:\n      0x00\n        /* \"--CODEGEN--\":4471:4475   */\n      0xff\n        /* \"--CODEGEN--\":4464:4469   */\n      dup3\n        /* \"--CODEGEN--\":4460:4476   */\n      and\n        /* \"--CODEGEN--\":4449:4476   */\n      swap1\n      pop\n        /* \"--CODEGEN--\":4443:4481   */\n      swap2\n      swap1\n      pop\n      jump\t// out\n        /* \"--CODEGEN--\":4489:4757   */\n    tag_131:\n        /* \"--CODEGEN--\":4554:4555   */\n      0x00\n        /* \"--CODEGEN--\":4561:4662   */\n    tag_161:\n        /* \"--CODEGEN--\":4575:4581   */\n      dup4\n        /* \"--CODEGEN--\":4572:4573   */\n      dup2\n        /* \"--CODEGEN--\":4569:4582   */\n      lt\n        /* \"--CODEGEN--\":4561:4662   */\n      iszero\n      tag_163\n      jumpi\n        /* \"--CODEGEN--\":4651:4652   */\n      dup1\n        /* \"--CODEGEN--\":4646:4649   */\n      dup3\n        /* \"--CODEGEN--\":4642:4653   */\n      add\n        /* \"--CODEGEN--\":4636:4654   */\n      mload\n        /* \"--CODEGEN--\":4632:4633   */\n      dup2\n        /* \"--CODEGEN--\":4627:4630   */\n      dup5\n        /* \"--CODEGEN--\":4623:4634   */\n      add\n        /* \"--CODEGEN--\":4616:4655   */\n      mstore\n        /* \"--CODEGEN--\":4597:4599   */\n      0x20\n        /* \"--CODEGEN--\":4594:4595   */\n      dup2\n        /* \"--CODEGEN--\":4590:4600   */\n      add\n        /* \"--CODEGEN--\":4585:4600   */\n      swap1\n      pop\n        /* \"--CODEGEN--\":4561:4662   */\n      jump(tag_161)\n    tag_163:\n        /* \"--CODEGEN--\":4677:4683   */\n      dup4\n        /* \"--CODEGEN--\":4674:4675   */\n      dup2\n        /* \"--CODEGEN--\":4671:4684   */\n      gt\n        /* \"--CODEGEN--\":4668:4670   */\n      iszero\n      tag_164\n      jumpi\n        /* \"--CODEGEN--\":4742:4743   */\n      0x00\n        /* \"--CODEGEN--\":4733:4739   */\n      dup5\n        /* \"--CODEGEN--\":4728:4731   */\n      dup5\n        /* \"--CODEGEN--\":4724:4740   */\n      add\n        /* \"--CODEGEN--\":4717:4744   */\n      mstore\n        /* \"--CODEGEN--\":4668:4670   */\n    tag_164:\n        /* \"--CODEGEN--\":4538:4757   */\n      pop\n      pop\n      pop\n      pop\n      jump\t// out\n        /* \"--CODEGEN--\":4765:4862   */\n    tag_133:\n      0x00\n        /* \"--CODEGEN--\":4853:4855   */\n      0x1f\n        /* \"--CODEGEN--\":4849:4856   */\n      not\n        /* \"--CODEGEN--\":4844:4846   */\n      0x1f\n        /* \"--CODEGEN--\":4837:4842   */\n      dup4\n        /* \"--CODEGEN--\":4833:4847   */\n      add\n        /* \"--CODEGEN--\":4829:4857   */\n      and\n        /* \"--CODEGEN--\":4819:4857   */\n      swap1\n      pop\n        /* \"--CODEGEN--\":4813:4862   */\n      swap2\n      swap1\n      pop\n      jump\t// out\n        /* \"--CODEGEN--\":4870:4987   */\n    tag_96:\n        /* \"--CODEGEN--\":4939:4963   */\n      tag_167\n        /* \"--CODEGEN--\":4957:4962   */\n      dup2\n        /* \"--CODEGEN--\":4939:4963   */\n      tag_152\n      jump\t// in\n    tag_167:\n        /* \"--CODEGEN--\":4932:4937   */\n      dup2\n        /* \"--CODEGEN--\":4929:4964   */\n      eq\n        /* \"--CODEGEN--\":4919:4921   */\n      tag_168\n      jumpi\n        /* \"--CODEGEN--\":4978:4979   */\n      0x00\n        /* \"--CODEGEN--\":4975:4976   */\n      dup1\n        /* \"--CODEGEN--\":4968:4980   */\n      revert\n        /* \"--CODEGEN--\":4919:4921   */\n    tag_168:\n        /* \"--CODEGEN--\":4913:4987   */\n      pop\n      jump\t// out\n        /* \"--CODEGEN--\":4994:5111   */\n    tag_100:\n        /* \"--CODEGEN--\":5063:5087   */\n      tag_170\n        /* \"--CODEGEN--\":5081:5086   */\n      dup2\n        /* \"--CODEGEN--\":5063:5087   */\n      tag_137\n      jump\t// in\n    tag_170:\n        /* \"--CODEGEN--\":5056:5061   */\n      dup2\n        /* \"--CODEGEN--\":5053:5088   */\n      eq\n        /* \"--CODEGEN--\":5043:5045   */\n      tag_171\n      jumpi\n        /* \"--CODEGEN--\":5102:5103   */\n      0x00\n        /* \"--CODEGEN--\":5099:5100   */\n      dup1\n        /* \"--CODEGEN--\":5092:5104   */\n      revert\n        /* \"--CODEGEN--\":5043:5045   */\n    tag_171:\n        /* \"--CODEGEN--\":5037:5111   */\n      pop\n      jump\t// out\n\n    auxdata: 0xa2646970667358221220204366e48c620e8f80222fc80e0950663466630e223b0cf71542cb6043ede5cf64736f6c634300060c0033\n}\n",
				"bytecode": {
					"linkReferences": {},
					"object": "608060405234801561001057600080fd5b5060405161109d38038061109d83398181016040528101906100329190610099565b806002819055506002546000803373ffffffffffffffffffffffffffffffffffffffff1673ffffffffffffffffffffffffffffffffffffffff16815260200190815260200160002081905550506100e3565b600081519050610093816100cc565b92915050565b6000602082840312156100ab57600080fd5b60006100b984828501610084565b91505092915050565b6000819050919050565b6100d5816100c2565b81146100e057600080fd5b50565b610fab806100f26000396000f3fe608060405234801561001057600080fd5b50600436106100a95760003560e01c80634ee22adf116100715780634ee22adf1461016857806370a082311461018457806395d89b41146101b4578063a9059cbb146101d2578063dd62ed3e14610202578063f490a35114610232576100a9565b806306fdde03146100ae578063095ea7b3146100cc57806318160ddd146100fc57806323b872dd1461011a578063313ce5671461014a575b600080fd5b6100b6610262565b6040516100c39190610e3a565b60405180910390f35b6100e660048036038101906100e19190610d54565b61029b565b6040516100f39190610e1f565b60405180910390f35b61010461038d565b6040516101119190610e5c565b60405180910390f35b610134600480360381019061012f9190610d05565b610397565b6040516101419190610e1f565b60405180910390f35b610152610712565b60405161015f9190610e77565b60405180910390f35b610182600480360381019061017d9190610d90565b610717565b005b61019e60048036038101906101999190610ca0565b610776565b6040516101ab9190610e5c565b60405180910390f35b6101bc6107be565b6040516101c99190610e3a565b60405180910390f35b6101ec60048036038101906101e79190610d54565b6107f7565b6040516101f99190610e1f565b60405180910390f35b61021c60048036038101906102179190610cc9565b6109d9565b6040516102299190610e5c565b60405180910390f35b61024c60048036038101906102479190610d05565b610a60565b6040516102599190610e1f565b60405180910390f35b6040518060400160405280600a81526020017f455243323042617369630000000000000000000000000000000000000000000081525081565b600081600160003373ffffffffffffffffffffffffffffffffffffffff1673ffffffffffffffffffffffffffffffffffffffff16815260200190815260200160002060008573ffffffffffffffffffffffffffffffffffffffff1673ffffffffffffffffffffffffffffffffffffffff168152602001908152602001600020819055508273ffffffffffffffffffffffffffffffffffffffff163373ffffffffffffffffffffffffffffffffffffffff167f8c5be1e5ebec7d5bd14f71427d1e84f3dd0314c0f7b2291e5b200ac8c7c3b9258460405161037b9190610e5c565b60405180910390a36001905092915050565b6000600254905090565b60008060008573ffffffffffffffffffffffffffffffffffffffff1673ffffffffffffffffffffffffffffffffffffffff168152602001908152602001600020548211156103e457600080fd5b600160008573ffffffffffffffffffffffffffffffffffffffff1673ffffffffffffffffffffffffffffffffffffffff16815260200190815260200160002060003373ffffffffffffffffffffffffffffffffffffffff1673ffffffffffffffffffffffffffffffffffffffff1681526020019081526020016000205482111561046d57600080fd5b6104be826000808773ffffffffffffffffffffffffffffffffffffffff1673ffffffffffffffffffffffffffffffffffffffff16815260200190815260200160002054610c4390919063ffffffff16565b6000808673ffffffffffffffffffffffffffffffffffffffff1673ffffffffffffffffffffffffffffffffffffffff1681526020019081526020016000208190555061058f82600160008773ffffffffffffffffffffffffffffffffffffffff1673ffffffffffffffffffffffffffffffffffffffff16815260200190815260200160002060003373ffffffffffffffffffffffffffffffffffffffff1673ffffffffffffffffffffffffffffffffffffffff16815260200190815260200160002054610c4390919063ffffffff16565b600160008673ffffffffffffffffffffffffffffffffffffffff1673ffffffffffffffffffffffffffffffffffffffff16815260200190815260200160002060003373ffffffffffffffffffffffffffffffffffffffff1673ffffffffffffffffffffffffffffffffffffffff16815260200190815260200160002081905550610660826000808673ffffffffffffffffffffffffffffffffffffffff1673ffffffffffffffffffffffffffffffffffffffff16815260200190815260200160002054610c5a90919063ffffffff16565b6000808573ffffffffffffffffffffffffffffffffffffffff1673ffffffffffffffffffffffffffffffffffffffff168152602001908152602001600020819055508273ffffffffffffffffffffffffffffffffffffffff168473ffffffffffffffffffffffffffffffffffffffff167fddf252ad1be2c89b69c2b068fc378daa952ba7f163c4a11628f55a4df523b3ef846040516106ff9190610e5c565b60405180910390a3600190509392505050565b600281565b80600260008282540192505081905550806000803373ffffffffffffffffffffffffffffffffffffffff1673ffffffffffffffffffffffffffffffffffffffff1681526020019081526020016000206000828254019250508190555050565b60008060008373ffffffffffffffffffffffffffffffffffffffff1673ffffffffffffffffffffffffffffffffffffffff168152602001908152602001600020549050919050565b6040518060400160405280600981526020017f4a424a2d544f4b454e000000000000000000000000000000000000000000000081525081565b60008060003373ffffffffffffffffffffffffffffffffffffffff1673ffffffffffffffffffffffffffffffffffffffff1681526020019081526020016000205482111561084457600080fd5b610895826000803373ffffffffffffffffffffffffffffffffffffffff1673ffffffffffffffffffffffffffffffffffffffff16815260200190815260200160002054610c4390919063ffffffff16565b6000803373ffffffffffffffffffffffffffffffffffffffff1673ffffffffffffffffffffffffffffffffffffffff16815260200190815260200160002081905550610928826000808673ffffffffffffffffffffffffffffffffffffffff1673ffffffffffffffffffffffffffffffffffffffff16815260200190815260200160002054610c5a90919063ffffffff16565b6000808573ffffffffffffffffffffffffffffffffffffffff1673ffffffffffffffffffffffffffffffffffffffff168152602001908152602001600020819055508273ffffffffffffffffffffffffffffffffffffffff163373ffffffffffffffffffffffffffffffffffffffff167fddf252ad1be2c89b69c2b068fc378daa952ba7f163c4a11628f55a4df523b3ef846040516109c79190610e5c565b60405180910390a36001905092915050565b6000600160008473ffffffffffffffffffffffffffffffffffffffff1673ffffffffffffffffffffffffffffffffffffffff16815260200190815260200160002060008373ffffffffffffffffffffffffffffffffffffffff1673ffffffffffffffffffffffffffffffffffffffff16815260200190815260200160002054905092915050565b60008060008573ffffffffffffffffffffffffffffffffffffffff1673ffffffffffffffffffffffffffffffffffffffff16815260200190815260200160002054821115610aad57600080fd5b610afe826000808773ffffffffffffffffffffffffffffffffffffffff1673ffffffffffffffffffffffffffffffffffffffff16815260200190815260200160002054610c4390919063ffffffff16565b6000808673ffffffffffffffffffffffffffffffffffffffff1673ffffffffffffffffffffffffffffffffffffffff16815260200190815260200160002081905550610b91826000808673ffffffffffffffffffffffffffffffffffffffff1673ffffffffffffffffffffffffffffffffffffffff16815260200190815260200160002054610c5a90919063ffffffff16565b6000808573ffffffffffffffffffffffffffffffffffffffff1673ffffffffffffffffffffffffffffffffffffffff168152602001908152602001600020819055508273ffffffffffffffffffffffffffffffffffffffff168473ffffffffffffffffffffffffffffffffffffffff167fddf252ad1be2c89b69c2b068fc378daa952ba7f163c4a11628f55a4df523b3ef84604051610c309190610e5c565b60405180910390a3600190509392505050565b600082821115610c4f57fe5b818303905092915050565b600080828401905083811015610c6c57fe5b8091505092915050565b600081359050610c8581610f47565b92915050565b600081359050610c9a81610f5e565b92915050565b600060208284031215610cb257600080fd5b6000610cc084828501610c76565b91505092915050565b60008060408385031215610cdc57600080fd5b6000610cea85828601610c76565b9250506020610cfb85828601610c76565b9150509250929050565b600080600060608486031215610d1a57600080fd5b6000610d2886828701610c76565b9350506020610d3986828701610c76565b9250506040610d4a86828701610c8b565b9150509250925092565b60008060408385031215610d6757600080fd5b6000610d7585828601610c76565b9250506020610d8685828601610c8b565b9150509250929050565b600060208284031215610da257600080fd5b6000610db084828501610c8b565b91505092915050565b610dc281610ec0565b82525050565b6000610dd382610e92565b610ddd8185610e9d565b9350610ded818560208601610f03565b610df681610f36565b840191505092915050565b610e0a81610eec565b82525050565b610e1981610ef6565b82525050565b6000602082019050610e346000830184610db9565b92915050565b60006020820190508181036000830152610e548184610dc8565b905092915050565b6000602082019050610e716000830184610e01565b92915050565b6000602082019050610e8c6000830184610e10565b92915050565b600081519050919050565b600082825260208201905092915050565b6000610eb982610ecc565b9050919050565b60008115159050919050565b600073ffffffffffffffffffffffffffffffffffffffff82169050919050565b6000819050919050565b600060ff82169050919050565b60005b83811015610f21578082015181840152602081019050610f06565b83811115610f30576000848401525b50505050565b6000601f19601f8301169050919050565b610f5081610eae565b8114610f5b57600080fd5b50565b610f6781610eec565b8114610f7257600080fd5b5056fea2646970667358221220204366e48c620e8f80222fc80e0950663466630e223b0cf71542cb6043ede5cf64736f6c634300060c0033",
					"opcodes": "PUSH1 0x80 PUSH1 0x40 MSTORE CALLVALUE DUP1 ISZERO PUSH2 0x10 JUMPI PUSH1 0x0 DUP1 REVERT JUMPDEST POP PUSH1 0x40 MLOAD PUSH2 0x109D CODESIZE SUB DUP1 PUSH2 0x109D DUP4 CODECOPY DUP2 DUP2 ADD PUSH1 0x40 MSTORE DUP2 ADD SWAP1 PUSH2 0x32 SWAP2 SWAP1 PUSH2 0x99 JUMP JUMPDEST DUP1 PUSH1 0x2 DUP2 SWAP1 SSTORE POP PUSH1 0x2 SLOAD PUSH1 0x0 DUP1 CALLER PUSH20 0xFFFFFFFFFFFFFFFFFFFFFFFFFFFFFFFFFFFFFFFF AND PUSH20 0xFFFFFFFFFFFFFFFFFFFFFFFFFFFFFFFFFFFFFFFF AND DUP2 MSTORE PUSH1 0x20 ADD SWAP1 DUP2 MSTORE PUSH1 0x20 ADD PUSH1 0x0 KECCAK256 DUP2 SWAP1 SSTORE POP POP PUSH2 0xE3 JUMP JUMPDEST PUSH1 0x0 DUP2 MLOAD SWAP1 POP PUSH2 0x93 DUP2 PUSH2 0xCC JUMP JUMPDEST SWAP3 SWAP2 POP POP JUMP JUMPDEST PUSH1 0x0 PUSH1 0x20 DUP3 DUP5 SUB SLT ISZERO PUSH2 0xAB JUMPI PUSH1 0x0 DUP1 REVERT JUMPDEST PUSH1 0x0 PUSH2 0xB9 DUP5 DUP3 DUP6 ADD PUSH2 0x84 JUMP JUMPDEST SWAP2 POP POP SWAP3 SWAP2 POP POP JUMP JUMPDEST PUSH1 0x0 DUP2 SWAP1 POP SWAP2 SWAP1 POP JUMP JUMPDEST PUSH2 0xD5 DUP2 PUSH2 0xC2 JUMP JUMPDEST DUP2 EQ PUSH2 0xE0 JUMPI PUSH1 0x0 DUP1 REVERT JUMPDEST POP JUMP JUMPDEST PUSH2 0xFAB DUP1 PUSH2 0xF2 PUSH1 0x0 CODECOPY PUSH1 0x0 RETURN INVALID PUSH1 0x80 PUSH1 0x40 MSTORE CALLVALUE DUP1 ISZERO PUSH2 0x10 JUMPI PUSH1 0x0 DUP1 REVERT JUMPDEST POP PUSH1 0x4 CALLDATASIZE LT PUSH2 0xA9 JUMPI PUSH1 0x0 CALLDATALOAD PUSH1 0xE0 SHR DUP1 PUSH4 0x4EE22ADF GT PUSH2 0x71 JUMPI DUP1 PUSH4 0x4EE22ADF EQ PUSH2 0x168 JUMPI DUP1 PUSH4 0x70A08231 EQ PUSH2 0x184 JUMPI DUP1 PUSH4 0x95D89B41 EQ PUSH2 0x1B4 JUMPI DUP1 PUSH4 0xA9059CBB EQ PUSH2 0x1D2 JUMPI DUP1 PUSH4 0xDD62ED3E EQ PUSH2 0x202 JUMPI DUP1 PUSH4 0xF490A351 EQ PUSH2 0x232 JUMPI PUSH2 0xA9 JUMP JUMPDEST DUP1 PUSH4 0x6FDDE03 EQ PUSH2 0xAE JUMPI DUP1 PUSH4 0x95EA7B3 EQ PUSH2 0xCC JUMPI DUP1 PUSH4 0x18160DDD EQ PUSH2 0xFC JUMPI DUP1 PUSH4 0x23B872DD EQ PUSH2 0x11A JUMPI DUP1 PUSH4 0x313CE567 EQ PUSH2 0x14A JUMPI JUMPDEST PUSH1 0x0 DUP1 REVERT JUMPDEST PUSH2 0xB6 PUSH2 0x262 JUMP JUMPDEST PUSH1 0x40 MLOAD PUSH2 0xC3 SWAP2 SWAP1 PUSH2 0xE3A JUMP JUMPDEST PUSH1 0x40 MLOAD DUP1 SWAP2 SUB SWAP1 RETURN JUMPDEST PUSH2 0xE6 PUSH1 0x4 DUP1 CALLDATASIZE SUB DUP2 ADD SWAP1 PUSH2 0xE1 SWAP2 SWAP1 PUSH2 0xD54 JUMP JUMPDEST PUSH2 0x29B JUMP JUMPDEST PUSH1 0x40 MLOAD PUSH2 0xF3 SWAP2 SWAP1 PUSH2 0xE1F JUMP JUMPDEST PUSH1 0x40 MLOAD DUP1 SWAP2 SUB SWAP1 RETURN JUMPDEST PUSH2 0x104 PUSH2 0x38D JUMP JUMPDEST PUSH1 0x40 MLOAD PUSH2 0x111 SWAP2 SWAP1 PUSH2 0xE5C JUMP JUMPDEST PUSH1 0x40 MLOAD DUP1 SWAP2 SUB SWAP1 RETURN JUMPDEST PUSH2 0x134 PUSH1 0x4 DUP1 CALLDATASIZE SUB DUP2 ADD SWAP1 PUSH2 0x12F SWAP2 SWAP1 PUSH2 0xD05 JUMP JUMPDEST PUSH2 0x397 JUMP JUMPDEST PUSH1 0x40 MLOAD PUSH2 0x141 SWAP2 SWAP1 PUSH2 0xE1F JUMP JUMPDEST PUSH1 0x40 MLOAD DUP1 SWAP2 SUB SWAP1 RETURN JUMPDEST PUSH2 0x152 PUSH2 0x712 JUMP JUMPDEST PUSH1 0x40 MLOAD PUSH2 0x15F SWAP2 SWAP1 PUSH2 0xE77 JUMP JUMPDEST PUSH1 0x40 MLOAD DUP1 SWAP2 SUB SWAP1 RETURN JUMPDEST PUSH2 0x182 PUSH1 0x4 DUP1 CALLDATASIZE SUB DUP2 ADD SWAP1 PUSH2 0x17D SWAP2 SWAP1 PUSH2 0xD90 JUMP JUMPDEST PUSH2 0x717 JUMP JUMPDEST STOP JUMPDEST PUSH2 0x19E PUSH1 0x4 DUP1 CALLDATASIZE SUB DUP2 ADD SWAP1 PUSH2 0x199 SWAP2 SWAP1 PUSH2 0xCA0 JUMP JUMPDEST PUSH2 0x776 JUMP JUMPDEST PUSH1 0x40 MLOAD PUSH2 0x1AB SWAP2 SWAP1 PUSH2 0xE5C JUMP JUMPDEST PUSH1 0x40 MLOAD DUP1 SWAP2 SUB SWAP1 RETURN JUMPDEST PUSH2 0x1BC PUSH2 0x7BE JUMP JUMPDEST PUSH1 0x40 MLOAD PUSH2 0x1C9 SWAP2 SWAP1 PUSH2 0xE3A JUMP JUMPDEST PUSH1 0x40 MLOAD DUP1 SWAP2 SUB SWAP1 RETURN JUMPDEST PUSH2 0x1EC PUSH1 0x4 DUP1 CALLDATASIZE SUB DUP2 ADD SWAP1 PUSH2 0x1E7 SWAP2 SWAP1 PUSH2 0xD54 JUMP JUMPDEST PUSH2 0x7F7 JUMP JUMPDEST PUSH1 0x40 MLOAD PUSH2 0x1F9 SWAP2 SWAP1 PUSH2 0xE1F JUMP JUMPDEST PUSH1 0x40 MLOAD DUP1 SWAP2 SUB SWAP1 RETURN JUMPDEST PUSH2 0x21C PUSH1 0x4 DUP1 CALLDATASIZE SUB DUP2 ADD SWAP1 PUSH2 0x217 SWAP2 SWAP1 PUSH2 0xCC9 JUMP JUMPDEST PUSH2 0x9D9 JUMP JUMPDEST PUSH1 0x40 MLOAD PUSH2 0x229 SWAP2 SWAP1 PUSH2 0xE5C JUMP JUMPDEST PUSH1 0x40 MLOAD DUP1 SWAP2 SUB SWAP1 RETURN JUMPDEST PUSH2 0x24C PUSH1 0x4 DUP1 CALLDATASIZE SUB DUP2 ADD SWAP1 PUSH2 0x247 SWAP2 SWAP1 PUSH2 0xD05 JUMP JUMPDEST PUSH2 0xA60 JUMP JUMPDEST PUSH1 0x40 MLOAD PUSH2 0x259 SWAP2 SWAP1 PUSH2 0xE1F JUMP JUMPDEST PUSH1 0x40 MLOAD DUP1 SWAP2 SUB SWAP1 RETURN JUMPDEST PUSH1 0x40 MLOAD DUP1 PUSH1 0x40 ADD PUSH1 0x40 MSTORE DUP1 PUSH1 0xA DUP2 MSTORE PUSH1 0x20 ADD PUSH32 0x4552433230426173696300000000000000000000000000000000000000000000 DUP2 MSTORE POP DUP2 JUMP JUMPDEST PUSH1 0x0 DUP2 PUSH1 0x1 PUSH1 0x0 CALLER PUSH20 0xFFFFFFFFFFFFFFFFFFFFFFFFFFFFFFFFFFFFFFFF AND PUSH20 0xFFFFFFFFFFFFFFFFFFFFFFFFFFFFFFFFFFFFFFFF AND DUP2 MSTORE PUSH1 0x20 ADD SWAP1 DUP2 MSTORE PUSH1 0x20 ADD PUSH1 0x0 KECCAK256 PUSH1 0x0 DUP6 PUSH20 0xFFFFFFFFFFFFFFFFFFFFFFFFFFFFFFFFFFFFFFFF AND PUSH20 0xFFFFFFFFFFFFFFFFFFFFFFFFFFFFFFFFFFFFFFFF AND DUP2 MSTORE PUSH1 0x20 ADD SWAP1 DUP2 MSTORE PUSH1 0x20 ADD PUSH1 0x0 KECCAK256 DUP2 SWAP1 SSTORE POP DUP3 PUSH20 0xFFFFFFFFFFFFFFFFFFFFFFFFFFFFFFFFFFFFFFFF AND CALLER PUSH20 0xFFFFFFFFFFFFFFFFFFFFFFFFFFFFFFFFFFFFFFFF AND PUSH32 0x8C5BE1E5EBEC7D5BD14F71427D1E84F3DD0314C0F7B2291E5B200AC8C7C3B925 DUP5 PUSH1 0x40 MLOAD PUSH2 0x37B SWAP2 SWAP1 PUSH2 0xE5C JUMP JUMPDEST PUSH1 0x40 MLOAD DUP1 SWAP2 SUB SWAP1 LOG3 PUSH1 0x1 SWAP1 POP SWAP3 SWAP2 POP POP JUMP JUMPDEST PUSH1 0x0 PUSH1 0x2 SLOAD SWAP1 POP SWAP1 JUMP JUMPDEST PUSH1 0x0 DUP1 PUSH1 0x0 DUP6 PUSH20 0xFFFFFFFFFFFFFFFFFFFFFFFFFFFFFFFFFFFFFFFF AND PUSH20 0xFFFFFFFFFFFFFFFFFFFFFFFFFFFFFFFFFFFFFFFF AND DUP2 MSTORE PUSH1 0x20 ADD SWAP1 DUP2 MSTORE PUSH1 0x20 ADD PUSH1 0x0 KECCAK256 SLOAD DUP3 GT ISZERO PUSH2 0x3E4 JUMPI PUSH1 0x0 DUP1 REVERT JUMPDEST PUSH1 0x1 PUSH1 0x0 DUP6 PUSH20 0xFFFFFFFFFFFFFFFFFFFFFFFFFFFFFFFFFFFFFFFF AND PUSH20 0xFFFFFFFFFFFFFFFFFFFFFFFFFFFFFFFFFFFFFFFF AND DUP2 MSTORE PUSH1 0x20 ADD SWAP1 DUP2 MSTORE PUSH1 0x20 ADD PUSH1 0x0 KECCAK256 PUSH1 0x0 CALLER PUSH20 0xFFFFFFFFFFFFFFFFFFFFFFFFFFFFFFFFFFFFFFFF AND PUSH20 0xFFFFFFFFFFFFFFFFFFFFFFFFFFFFFFFFFFFFFFFF AND DUP2 MSTORE PUSH1 0x20 ADD SWAP1 DUP2 MSTORE PUSH1 0x20 ADD PUSH1 0x0 KECCAK256 SLOAD DUP3 GT ISZERO PUSH2 0x46D JUMPI PUSH1 0x0 DUP1 REVERT JUMPDEST PUSH2 0x4BE DUP3 PUSH1 0x0 DUP1 DUP8 PUSH20 0xFFFFFFFFFFFFFFFFFFFFFFFFFFFFFFFFFFFFFFFF AND PUSH20 0xFFFFFFFFFFFFFFFFFFFFFFFFFFFFFFFFFFFFFFFF AND DUP2 MSTORE PUSH1 0x20 ADD SWAP1 DUP2 MSTORE PUSH1 0x20 ADD PUSH1 0x0 KECCAK256 SLOAD PUSH2 0xC43 SWAP1 SWAP2 SWAP1 PUSH4 0xFFFFFFFF AND JUMP JUMPDEST PUSH1 0x0 DUP1 DUP7 PUSH20 0xFFFFFFFFFFFFFFFFFFFFFFFFFFFFFFFFFFFFFFFF AND PUSH20 0xFFFFFFFFFFFFFFFFFFFFFFFFFFFFFFFFFFFFFFFF AND DUP2 MSTORE PUSH1 0x20 ADD SWAP1 DUP2 MSTORE PUSH1 0x20 ADD PUSH1 0x0 KECCAK256 DUP2 SWAP1 SSTORE POP PUSH2 0x58F DUP3 PUSH1 0x1 PUSH1 0x0 DUP8 PUSH20 0xFFFFFFFFFFFFFFFFFFFFFFFFFFFFFFFFFFFFFFFF AND PUSH20 0xFFFFFFFFFFFFFFFFFFFFFFFFFFFFFFFFFFFFFFFF AND DUP2 MSTORE PUSH1 0x20 ADD SWAP1 DUP2 MSTORE PUSH1 0x20 ADD PUSH1 0x0 KECCAK256 PUSH1 0x0 CALLER PUSH20 0xFFFFFFFFFFFFFFFFFFFFFFFFFFFFFFFFFFFFFFFF AND PUSH20 0xFFFFFFFFFFFFFFFFFFFFFFFFFFFFFFFFFFFFFFFF AND DUP2 MSTORE PUSH1 0x20 ADD SWAP1 DUP2 MSTORE PUSH1 0x20 ADD PUSH1 0x0 KECCAK256 SLOAD PUSH2 0xC43 SWAP1 SWAP2 SWAP1 PUSH4 0xFFFFFFFF AND JUMP JUMPDEST PUSH1 0x1 PUSH1 0x0 DUP7 PUSH20 0xFFFFFFFFFFFFFFFFFFFFFFFFFFFFFFFFFFFFFFFF AND PUSH20 0xFFFFFFFFFFFFFFFFFFFFFFFFFFFFFFFFFFFFFFFF AND DUP2 MSTORE PUSH1 0x20 ADD SWAP1 DUP2 MSTORE PUSH1 0x20 ADD PUSH1 0x0 KECCAK256 PUSH1 0x0 CALLER PUSH20 0xFFFFFFFFFFFFFFFFFFFFFFFFFFFFFFFFFFFFFFFF AND PUSH20 0xFFFFFFFFFFFFFFFFFFFFFFFFFFFFFFFFFFFFFFFF AND DUP2 MSTORE PUSH1 0x20 ADD SWAP1 DUP2 MSTORE PUSH1 0x20 ADD PUSH1 0x0 KECCAK256 DUP2 SWAP1 SSTORE POP PUSH2 0x660 DUP3 PUSH1 0x0 DUP1 DUP7 PUSH20 0xFFFFFFFFFFFFFFFFFFFFFFFFFFFFFFFFFFFFFFFF AND PUSH20 0xFFFFFFFFFFFFFFFFFFFFFFFFFFFFFFFFFFFFFFFF AND DUP2 MSTORE PUSH1 0x20 ADD SWAP1 DUP2 MSTORE PUSH1 0x20 ADD PUSH1 0x0 KECCAK256 SLOAD PUSH2 0xC5A SWAP1 SWAP2 SWAP1 PUSH4 0xFFFFFFFF AND JUMP JUMPDEST PUSH1 0x0 DUP1 DUP6 PUSH20 0xFFFFFFFFFFFFFFFFFFFFFFFFFFFFFFFFFFFFFFFF AND PUSH20 0xFFFFFFFFFFFFFFFFFFFFFFFFFFFFFFFFFFFFFFFF AND DUP2 MSTORE PUSH1 0x20 ADD SWAP1 DUP2 MSTORE PUSH1 0x20 ADD PUSH1 0x0 KECCAK256 DUP2 SWAP1 SSTORE POP DUP3 PUSH20 0xFFFFFFFFFFFFFFFFFFFFFFFFFFFFFFFFFFFFFFFF AND DUP5 PUSH20 0xFFFFFFFFFFFFFFFFFFFFFFFFFFFFFFFFFFFFFFFF AND PUSH32 0xDDF252AD1BE2C89B69C2B068FC378DAA952BA7F163C4A11628F55A4DF523B3EF DUP5 PUSH1 0x40 MLOAD PUSH2 0x6FF SWAP2 SWAP1 PUSH2 0xE5C JUMP JUMPDEST PUSH1 0x40 MLOAD DUP1 SWAP2 SUB SWAP1 LOG3 PUSH1 0x1 SWAP1 POP SWAP4 SWAP3 POP POP POP JUMP JUMPDEST PUSH1 0x2 DUP2 JUMP JUMPDEST DUP1 PUSH1 0x2 PUSH1 0x0 DUP3 DUP3 SLOAD ADD SWAP3 POP POP DUP2 SWAP1 SSTORE POP DUP1 PUSH1 0x0 DUP1 CALLER PUSH20 0xFFFFFFFFFFFFFFFFFFFFFFFFFFFFFFFFFFFFFFFF AND PUSH20 0xFFFFFFFFFFFFFFFFFFFFFFFFFFFFFFFFFFFFFFFF AND DUP2 MSTORE PUSH1 0x20 ADD SWAP1 DUP2 MSTORE PUSH1 0x20 ADD PUSH1 0x0 KECCAK256 PUSH1 0x0 DUP3 DUP3 SLOAD ADD SWAP3 POP POP DUP2 SWAP1 SSTORE POP POP JUMP JUMPDEST PUSH1 0x0 DUP1 PUSH1 0x0 DUP4 PUSH20 0xFFFFFFFFFFFFFFFFFFFFFFFFFFFFFFFFFFFFFFFF AND PUSH20 0xFFFFFFFFFFFFFFFFFFFFFFFFFFFFFFFFFFFFFFFF AND DUP2 MSTORE PUSH1 0x20 ADD SWAP1 DUP2 MSTORE PUSH1 0x20 ADD PUSH1 0x0 KECCAK256 SLOAD SWAP1 POP SWAP2 SWAP1 POP JUMP JUMPDEST PUSH1 0x40 MLOAD DUP1 PUSH1 0x40 ADD PUSH1 0x40 MSTORE DUP1 PUSH1 0x9 DUP2 MSTORE PUSH1 0x20 ADD PUSH32 0x4A424A2D544F4B454E0000000000000000000000000000000000000000000000 DUP2 MSTORE POP DUP2 JUMP JUMPDEST PUSH1 0x0 DUP1 PUSH1 0x0 CALLER PUSH20 0xFFFFFFFFFFFFFFFFFFFFFFFFFFFFFFFFFFFFFFFF AND PUSH20 0xFFFFFFFFFFFFFFFFFFFFFFFFFFFFFFFFFFFFFFFF AND DUP2 MSTORE PUSH1 0x20 ADD SWAP1 DUP2 MSTORE PUSH1 0x20 ADD PUSH1 0x0 KECCAK256 SLOAD DUP3 GT ISZERO PUSH2 0x844 JUMPI PUSH1 0x0 DUP1 REVERT JUMPDEST PUSH2 0x895 DUP3 PUSH1 0x0 DUP1 CALLER PUSH20 0xFFFFFFFFFFFFFFFFFFFFFFFFFFFFFFFFFFFFFFFF AND PUSH20 0xFFFFFFFFFFFFFFFFFFFFFFFFFFFFFFFFFFFFFFFF AND DUP2 MSTORE PUSH1 0x20 ADD SWAP1 DUP2 MSTORE PUSH1 0x20 ADD PUSH1 0x0 KECCAK256 SLOAD PUSH2 0xC43 SWAP1 SWAP2 SWAP1 PUSH4 0xFFFFFFFF AND JUMP JUMPDEST PUSH1 0x0 DUP1 CALLER PUSH20 0xFFFFFFFFFFFFFFFFFFFFFFFFFFFFFFFFFFFFFFFF AND PUSH20 0xFFFFFFFFFFFFFFFFFFFFFFFFFFFFFFFFFFFFFFFF AND DUP2 MSTORE PUSH1 0x20 ADD SWAP1 DUP2 MSTORE PUSH1 0x20 ADD PUSH1 0x0 KECCAK256 DUP2 SWAP1 SSTORE POP PUSH2 0x928 DUP3 PUSH1 0x0 DUP1 DUP7 PUSH20 0xFFFFFFFFFFFFFFFFFFFFFFFFFFFFFFFFFFFFFFFF AND PUSH20 0xFFFFFFFFFFFFFFFFFFFFFFFFFFFFFFFFFFFFFFFF AND DUP2 MSTORE PUSH1 0x20 ADD SWAP1 DUP2 MSTORE PUSH1 0x20 ADD PUSH1 0x0 KECCAK256 SLOAD PUSH2 0xC5A SWAP1 SWAP2 SWAP1 PUSH4 0xFFFFFFFF AND JUMP JUMPDEST PUSH1 0x0 DUP1 DUP6 PUSH20 0xFFFFFFFFFFFFFFFFFFFFFFFFFFFFFFFFFFFFFFFF AND PUSH20 0xFFFFFFFFFFFFFFFFFFFFFFFFFFFFFFFFFFFFFFFF AND DUP2 MSTORE PUSH1 0x20 ADD SWAP1 DUP2 MSTORE PUSH1 0x20 ADD PUSH1 0x0 KECCAK256 DUP2 SWAP1 SSTORE POP DUP3 PUSH20 0xFFFFFFFFFFFFFFFFFFFFFFFFFFFFFFFFFFFFFFFF AND CALLER PUSH20 0xFFFFFFFFFFFFFFFFFFFFFFFFFFFFFFFFFFFFFFFF AND PUSH32 0xDDF252AD1BE2C89B69C2B068FC378DAA952BA7F163C4A11628F55A4DF523B3EF DUP5 PUSH1 0x40 MLOAD PUSH2 0x9C7 SWAP2 SWAP1 PUSH2 0xE5C JUMP JUMPDEST PUSH1 0x40 MLOAD DUP1 SWAP2 SUB SWAP1 LOG3 PUSH1 0x1 SWAP1 POP SWAP3 SWAP2 POP POP JUMP JUMPDEST PUSH1 0x0 PUSH1 0x1 PUSH1 0x0 DUP5 PUSH20 0xFFFFFFFFFFFFFFFFFFFFFFFFFFFFFFFFFFFFFFFF AND PUSH20 0xFFFFFFFFFFFFFFFFFFFFFFFFFFFFFFFFFFFFFFFF AND DUP2 MSTORE PUSH1 0x20 ADD SWAP1 DUP2 MSTORE PUSH1 0x20 ADD PUSH1 0x0 KECCAK256 PUSH1 0x0 DUP4 PUSH20 0xFFFFFFFFFFFFFFFFFFFFFFFFFFFFFFFFFFFFFFFF AND PUSH20 0xFFFFFFFFFFFFFFFFFFFFFFFFFFFFFFFFFFFFFFFF AND DUP2 MSTORE PUSH1 0x20 ADD SWAP1 DUP2 MSTORE PUSH1 0x20 ADD PUSH1 0x0 KECCAK256 SLOAD SWAP1 POP SWAP3 SWAP2 POP POP JUMP JUMPDEST PUSH1 0x0 DUP1 PUSH1 0x0 DUP6 PUSH20 0xFFFFFFFFFFFFFFFFFFFFFFFFFFFFFFFFFFFFFFFF AND PUSH20 0xFFFFFFFFFFFFFFFFFFFFFFFFFFFFFFFFFFFFFFFF AND DUP2 MSTORE PUSH1 0x20 ADD SWAP1 DUP2 MSTORE PUSH1 0x20 ADD PUSH1 0x0 KECCAK256 SLOAD DUP3 GT ISZERO PUSH2 0xAAD JUMPI PUSH1 0x0 DUP1 REVERT JUMPDEST PUSH2 0xAFE DUP3 PUSH1 0x0 DUP1 DUP8 PUSH20 0xFFFFFFFFFFFFFFFFFFFFFFFFFFFFFFFFFFFFFFFF AND PUSH20 0xFFFFFFFFFFFFFFFFFFFFFFFFFFFFFFFFFFFFFFFF AND DUP2 MSTORE PUSH1 0x20 ADD SWAP1 DUP2 MSTORE PUSH1 0x20 ADD PUSH1 0x0 KECCAK256 SLOAD PUSH2 0xC43 SWAP1 SWAP2 SWAP1 PUSH4 0xFFFFFFFF AND JUMP JUMPDEST PUSH1 0x0 DUP1 DUP7 PUSH20 0xFFFFFFFFFFFFFFFFFFFFFFFFFFFFFFFFFFFFFFFF AND PUSH20 0xFFFFFFFFFFFFFFFFFFFFFFFFFFFFFFFFFFFFFFFF AND DUP2 MSTORE PUSH1 0x20 ADD SWAP1 DUP2 MSTORE PUSH1 0x20 ADD PUSH1 0x0 KECCAK256 DUP2 SWAP1 SSTORE POP PUSH2 0xB91 DUP3 PUSH1 0x0 DUP1 DUP7 PUSH20 0xFFFFFFFFFFFFFFFFFFFFFFFFFFFFFFFFFFFFFFFF AND PUSH20 0xFFFFFFFFFFFFFFFFFFFFFFFFFFFFFFFFFFFFFFFF AND DUP2 MSTORE PUSH1 0x20 ADD SWAP1 DUP2 MSTORE PUSH1 0x20 ADD PUSH1 0x0 KECCAK256 SLOAD PUSH2 0xC5A SWAP1 SWAP2 SWAP1 PUSH4 0xFFFFFFFF AND JUMP JUMPDEST PUSH1 0x0 DUP1 DUP6 PUSH20 0xFFFFFFFFFFFFFFFFFFFFFFFFFFFFFFFFFFFFFFFF AND PUSH20 0xFFFFFFFFFFFFFFFFFFFFFFFFFFFFFFFFFFFFFFFF AND DUP2 MSTORE PUSH1 0x20 ADD SWAP1 DUP2 MSTORE PUSH1 0x20 ADD PUSH1 0x0 KECCAK256 DUP2 SWAP1 SSTORE POP DUP3 PUSH20 0xFFFFFFFFFFFFFFFFFFFFFFFFFFFFFFFFFFFFFFFF AND DUP5 PUSH20 0xFFFFFFFFFFFFFFFFFFFFFFFFFFFFFFFFFFFFFFFF AND PUSH32 0xDDF252AD1BE2C89B69C2B068FC378DAA952BA7F163C4A11628F55A4DF523B3EF DUP5 PUSH1 0x40 MLOAD PUSH2 0xC30 SWAP2 SWAP1 PUSH2 0xE5C JUMP JUMPDEST PUSH1 0x40 MLOAD DUP1 SWAP2 SUB SWAP1 LOG3 PUSH1 0x1 SWAP1 POP SWAP4 SWAP3 POP POP POP JUMP JUMPDEST PUSH1 0x0 DUP3 DUP3 GT ISZERO PUSH2 0xC4F JUMPI INVALID JUMPDEST DUP2 DUP4 SUB SWAP1 POP SWAP3 SWAP2 POP POP JUMP JUMPDEST PUSH1 0x0 DUP1 DUP3 DUP5 ADD SWAP1 POP DUP4 DUP2 LT ISZERO PUSH2 0xC6C JUMPI INVALID JUMPDEST DUP1 SWAP2 POP POP SWAP3 SWAP2 POP POP JUMP JUMPDEST PUSH1 0x0 DUP2 CALLDATALOAD SWAP1 POP PUSH2 0xC85 DUP2 PUSH2 0xF47 JUMP JUMPDEST SWAP3 SWAP2 POP POP JUMP JUMPDEST PUSH1 0x0 DUP2 CALLDATALOAD SWAP1 POP PUSH2 0xC9A DUP2 PUSH2 0xF5E JUMP JUMPDEST SWAP3 SWAP2 POP POP JUMP JUMPDEST PUSH1 0x0 PUSH1 0x20 DUP3 DUP5 SUB SLT ISZERO PUSH2 0xCB2 JUMPI PUSH1 0x0 DUP1 REVERT JUMPDEST PUSH1 0x0 PUSH2 0xCC0 DUP5 DUP3 DUP6 ADD PUSH2 0xC76 JUMP JUMPDEST SWAP2 POP POP SWAP3 SWAP2 POP POP JUMP JUMPDEST PUSH1 0x0 DUP1 PUSH1 0x40 DUP4 DUP6 SUB SLT ISZERO PUSH2 0xCDC JUMPI PUSH1 0x0 DUP1 REVERT JUMPDEST PUSH1 0x0 PUSH2 0xCEA DUP6 DUP3 DUP7 ADD PUSH2 0xC76 JUMP JUMPDEST SWAP3 POP POP PUSH1 0x20 PUSH2 0xCFB DUP6 DUP3 DUP7 ADD PUSH2 0xC76 JUMP JUMPDEST SWAP2 POP POP SWAP3 POP SWAP3 SWAP1 POP JUMP JUMPDEST PUSH1 0x0 DUP1 PUSH1 0x0 PUSH1 0x60 DUP5 DUP7 SUB SLT ISZERO PUSH2 0xD1A JUMPI PUSH1 0x0 DUP1 REVERT JUMPDEST PUSH1 0x0 PUSH2 0xD28 DUP7 DUP3 DUP8 ADD PUSH2 0xC76 JUMP JUMPDEST SWAP4 POP POP PUSH1 0x20 PUSH2 0xD39 DUP7 DUP3 DUP8 ADD PUSH2 0xC76 JUMP JUMPDEST SWAP3 POP POP PUSH1 0x40 PUSH2 0xD4A DUP7 DUP3 DUP8 ADD PUSH2 0xC8B JUMP JUMPDEST SWAP2 POP POP SWAP3 POP SWAP3 POP SWAP3 JUMP JUMPDEST PUSH1 0x0 DUP1 PUSH1 0x40 DUP4 DUP6 SUB SLT ISZERO PUSH2 0xD67 JUMPI PUSH1 0x0 DUP1 REVERT JUMPDEST PUSH1 0x0 PUSH2 0xD75 DUP6 DUP3 DUP7 ADD PUSH2 0xC76 JUMP JUMPDEST SWAP3 POP POP PUSH1 0x20 PUSH2 0xD86 DUP6 DUP3 DUP7 ADD PUSH2 0xC8B JUMP JUMPDEST SWAP2 POP POP SWAP3 POP SWAP3 SWAP1 POP JUMP JUMPDEST PUSH1 0x0 PUSH1 0x20 DUP3 DUP5 SUB SLT ISZERO PUSH2 0xDA2 JUMPI PUSH1 0x0 DUP1 REVERT JUMPDEST PUSH1 0x0 PUSH2 0xDB0 DUP5 DUP3 DUP6 ADD PUSH2 0xC8B JUMP JUMPDEST SWAP2 POP POP SWAP3 SWAP2 POP POP JUMP JUMPDEST PUSH2 0xDC2 DUP2 PUSH2 0xEC0 JUMP JUMPDEST DUP3 MSTORE POP POP JUMP JUMPDEST PUSH1 0x0 PUSH2 0xDD3 DUP3 PUSH2 0xE92 JUMP JUMPDEST PUSH2 0xDDD DUP2 DUP6 PUSH2 0xE9D JUMP JUMPDEST SWAP4 POP PUSH2 0xDED DUP2 DUP6 PUSH1 0x20 DUP7 ADD PUSH2 0xF03 JUMP JUMPDEST PUSH2 0xDF6 DUP2 PUSH2 0xF36 JUMP JUMPDEST DUP5 ADD SWAP2 POP POP SWAP3 SWAP2 POP POP JUMP JUMPDEST PUSH2 0xE0A DUP2 PUSH2 0xEEC JUMP JUMPDEST DUP3 MSTORE POP POP JUMP JUMPDEST PUSH2 0xE19 DUP2 PUSH2 0xEF6 JUMP JUMPDEST DUP3 MSTORE POP POP JUMP JUMPDEST PUSH1 0x0 PUSH1 0x20 DUP3 ADD SWAP1 POP PUSH2 0xE34 PUSH1 0x0 DUP4 ADD DUP5 PUSH2 0xDB9 JUMP JUMPDEST SWAP3 SWAP2 POP POP JUMP JUMPDEST PUSH1 0x0 PUSH1 0x20 DUP3 ADD SWAP1 POP DUP2 DUP2 SUB PUSH1 0x0 DUP4 ADD MSTORE PUSH2 0xE54 DUP2 DUP5 PUSH2 0xDC8 JUMP JUMPDEST SWAP1 POP SWAP3 SWAP2 POP POP JUMP JUMPDEST PUSH1 0x0 PUSH1 0x20 DUP3 ADD SWAP1 POP PUSH2 0xE71 PUSH1 0x0 DUP4 ADD DUP5 PUSH2 0xE01 JUMP JUMPDEST SWAP3 SWAP2 POP POP JUMP JUMPDEST PUSH1 0x0 PUSH1 0x20 DUP3 ADD SWAP1 POP PUSH2 0xE8C PUSH1 0x0 DUP4 ADD DUP5 PUSH2 0xE10 JUMP JUMPDEST SWAP3 SWAP2 POP POP JUMP JUMPDEST PUSH1 0x0 DUP2 MLOAD SWAP1 POP SWAP2 SWAP1 POP JUMP JUMPDEST PUSH1 0x0 DUP3 DUP3 MSTORE PUSH1 0x20 DUP3 ADD SWAP1 POP SWAP3 SWAP2 POP POP JUMP JUMPDEST PUSH1 0x0 PUSH2 0xEB9 DUP3 PUSH2 0xECC JUMP JUMPDEST SWAP1 POP SWAP2 SWAP1 POP JUMP JUMPDEST PUSH1 0x0 DUP2 ISZERO ISZERO SWAP1 POP SWAP2 SWAP1 POP JUMP JUMPDEST PUSH1 0x0 PUSH20 0xFFFFFFFFFFFFFFFFFFFFFFFFFFFFFFFFFFFFFFFF DUP3 AND SWAP1 POP SWAP2 SWAP1 POP JUMP JUMPDEST PUSH1 0x0 DUP2 SWAP1 POP SWAP2 SWAP1 POP JUMP JUMPDEST PUSH1 0x0 PUSH1 0xFF DUP3 AND SWAP1 POP SWAP2 SWAP1 POP JUMP JUMPDEST PUSH1 0x0 JUMPDEST DUP4 DUP2 LT ISZERO PUSH2 0xF21 JUMPI DUP1 DUP3 ADD MLOAD DUP2 DUP5 ADD MSTORE PUSH1 0x20 DUP2 ADD SWAP1 POP PUSH2 0xF06 JUMP JUMPDEST DUP4 DUP2 GT ISZERO PUSH2 0xF30 JUMPI PUSH1 0x0 DUP5 DUP5 ADD MSTORE JUMPDEST POP POP POP POP JUMP JUMPDEST PUSH1 0x0 PUSH1 0x1F NOT PUSH1 0x1F DUP4 ADD AND SWAP1 POP SWAP2 SWAP1 POP JUMP JUMPDEST PUSH2 0xF50 DUP2 PUSH2 0xEAE JUMP JUMPDEST DUP2 EQ PUSH2 0xF5B JUMPI PUSH1 0x0 DUP1 REVERT JUMPDEST POP JUMP JUMPDEST PUSH2 0xF67 DUP2 PUSH2 0xEEC JUMP JUMPDEST DUP2 EQ PUSH2 0xF72 JUMPI PUSH1 0x0 DUP1 REVERT JUMPDEST POP JUMP INVALID LOG2 PUSH5 0x6970667358 0x22 SLT KECCAK256 KECCAK256 NUMBER PUSH7 0xE48C620E8F8022 0x2F 0xC8 0xE MULMOD POP PUSH7 0x3466630E223B0C 0xF7 ISZERO TIMESTAMP 0xCB PUSH1 0x43 0xED 0xE5 0xCF PUSH5 0x736F6C6343 STOP MOD 0xC STOP CALLER "
				},
				"gasEstimates": {
					"creation": {
						"codeDepositCost": "802200",
						"executionCost": "infinite",
						"totalCost": "infinite"
					},
					"external": {
						"allowance(address,address)": "infinite",
						"approve(address,uint256)": "infinite",
						"balanceOf(address)": "1563",
						"decimals()": "424",
						"increaseTotalSuply(uint256)": "42161",
						"name()": "infinite",
						"symbol()": "infinite",
						"totalSupply()": "1182",
						"transfer(address,uint256)": "infinite",
						"transferFrom(address,address,uint256)": "infinite",
						"transferencia_disney(address,address,uint256)": "infinite"
					}
				},
				"methodIdentifiers": {
					"allowance(address,address)": "dd62ed3e",
					"approve(address,uint256)": "095ea7b3",
					"balanceOf(address)": "70a08231",
					"decimals()": "313ce567",
					"increaseTotalSuply(uint256)": "4ee22adf",
					"name()": "06fdde03",
					"symbol()": "95d89b41",
					"totalSupply()": "18160ddd",
					"transfer(address,uint256)": "a9059cbb",
					"transferFrom(address,address,uint256)": "23b872dd",
					"transferencia_disney(address,address,uint256)": "f490a351"
				}
			},
			"storageLayout": {
				"storage": [
					{
						"astId": 112,
						"contract": "Primeros pasos en Solidity/ERC20.sol:ERC20Basic",
						"label": "balances",
						"offset": 0,
						"slot": "0",
						"type": "t_mapping(t_address,t_uint256)"
					},
					{
						"astId": 118,
						"contract": "Primeros pasos en Solidity/ERC20.sol:ERC20Basic",
						"label": "allowed",
						"offset": 0,
						"slot": "1",
						"type": "t_mapping(t_address,t_mapping(t_address,t_uint256))"
					},
					{
						"astId": 120,
						"contract": "Primeros pasos en Solidity/ERC20.sol:ERC20Basic",
						"label": "totalSupply_",
						"offset": 0,
						"slot": "2",
						"type": "t_uint256"
					}
				],
				"types": {
					"t_address": {
						"encoding": "inplace",
						"label": "address",
						"numberOfBytes": "20"
					},
					"t_mapping(t_address,t_mapping(t_address,t_uint256))": {
						"encoding": "mapping",
						"key": "t_address",
						"label": "mapping(address => mapping(address => uint256))",
						"numberOfBytes": "32",
						"value": "t_mapping(t_address,t_uint256)"
					},
					"t_mapping(t_address,t_uint256)": {
						"encoding": "mapping",
						"key": "t_address",
						"label": "mapping(address => uint256)",
						"numberOfBytes": "32",
						"value": "t_uint256"
					},
					"t_uint256": {
						"encoding": "inplace",
						"label": "uint256",
						"numberOfBytes": "32"
					}
				}
			},
			"userdoc": {
				"kind": "user",
				"methods": {},
				"version": 1
			}
		}
	}
}