{
	"Interactuar con varios SC/librerias.sol": {
		"calculos": {
			"abi": [
				{
					"inputs": [
						{
							"internalType": "uint256",
							"name": "_a",
							"type": "uint256"
						},
						{
							"internalType": "uint256",
							"name": "_b",
							"type": "uint256"
						}
					],
					"name": "calculo",
					"outputs": [
						{
							"internalType": "uint256",
							"name": "",
							"type": "uint256"
						},
						{
							"internalType": "uint256",
							"name": "",
							"type": "uint256"
						}
					],
					"stateMutability": "pure",
					"type": "function"
				}
			],
			"devdoc": {
				"methods": {}
			},
			"evm": {
				"assembly": "    /* \"Interactuar con varios SC/librerias.sol\":347:538  contract calculos{\r... */\n  mstore(0x40, 0x80)\n  callvalue\n    /* \"--CODEGEN--\":8:17   */\n  dup1\n    /* \"--CODEGEN--\":5:7   */\n  iszero\n  tag_1\n  jumpi\n    /* \"--CODEGEN--\":30:31   */\n  0x00\n    /* \"--CODEGEN--\":27:28   */\n  dup1\n    /* \"--CODEGEN--\":20:32   */\n  revert\n    /* \"--CODEGEN--\":5:7   */\ntag_1:\n    /* \"Interactuar con varios SC/librerias.sol\":347:538  contract calculos{\r... */\n  pop\n  dataSize(sub_0)\n  dup1\n  dataOffset(sub_0)\n  0x00\n  codecopy\n  0x00\n  return\nstop\n\nsub_0: assembly {\n        /* \"Interactuar con varios SC/librerias.sol\":347:538  contract calculos{\r... */\n      mstore(0x40, 0x80)\n      callvalue\n        /* \"--CODEGEN--\":8:17   */\n      dup1\n        /* \"--CODEGEN--\":5:7   */\n      iszero\n      tag_1\n      jumpi\n        /* \"--CODEGEN--\":30:31   */\n      0x00\n        /* \"--CODEGEN--\":27:28   */\n      dup1\n        /* \"--CODEGEN--\":20:32   */\n      revert\n        /* \"--CODEGEN--\":5:7   */\n    tag_1:\n        /* \"Interactuar con varios SC/librerias.sol\":347:538  contract calculos{\r... */\n      pop\n      jumpi(tag_2, lt(calldatasize, 0x04))\n      shr(0xe0, calldataload(0x00))\n      dup1\n      0x9f01863b\n      eq\n      tag_3\n      jumpi\n    tag_2:\n      0x00\n      dup1\n      revert\n        /* \"Interactuar con varios SC/librerias.sol\":408:533  function calculo(uint _a, uint _b) public pure returns (uint, uint){\r... */\n    tag_3:\n      tag_4\n      0x04\n      dup1\n      calldatasize\n      sub\n      tag_5\n      swap2\n      swap1\n      dup2\n      add\n      swap1\n      jump(tag_6)\n    tag_5:\n      tag_7\n      jump\t// in\n    tag_4:\n      mload(0x40)\n      tag_8\n      swap3\n      swap2\n      swap1\n      jump(tag_9)\n    tag_8:\n      mload(0x40)\n      dup1\n      swap2\n      sub\n      swap1\n      return\n    tag_7:\n        /* \"Interactuar con varios SC/librerias.sol\":464:468  uint */\n      0x00\n        /* \"Interactuar con varios SC/librerias.sol\":470:474  uint */\n      dup1\n        /* \"Interactuar con varios SC/librerias.sol\":495:497  _a */\n      dup4\n        /* \"Interactuar con varios SC/librerias.sol\":495:506  _a.division */\n      linkerSymbol(\"4449ef957c7fe10a7db78de57cc75fb4d3ac94649aac3518a1b692ea8bcbcb75\")\n      0xe0068052\n      swap1\n      swap2\n        /* \"Interactuar con varios SC/librerias.sol\":507:509  _b */\n      dup6\n        /* \"Interactuar con varios SC/librerias.sol\":495:510  _a.division(_b) */\n      mload(0x40)\n      dup4\n      0xffffffff\n      and\n      0xe0\n      shl\n      dup2\n      mstore\n      0x04\n      add\n      tag_11\n      swap3\n      swap2\n      swap1\n      jump(tag_12)\n    tag_11:\n      0x20\n      mload(0x40)\n      dup1\n      dup4\n      sub\n      dup2\n      dup7\n      dup1\n      extcodesize\n      iszero\n        /* \"--CODEGEN--\":8:17   */\n      dup1\n        /* \"--CODEGEN--\":5:7   */\n      iszero\n      tag_13\n      jumpi\n        /* \"--CODEGEN--\":30:31   */\n      0x00\n        /* \"--CODEGEN--\":27:28   */\n      dup1\n        /* \"--CODEGEN--\":20:32   */\n      revert\n        /* \"--CODEGEN--\":5:7   */\n    tag_13:\n        /* \"Interactuar con varios SC/librerias.sol\":495:510  _a.division(_b) */\n      pop\n      gas\n      delegatecall\n      iszero\n        /* \"--CODEGEN--\":8:17   */\n      dup1\n        /* \"--CODEGEN--\":5:7   */\n      iszero\n      tag_15\n      jumpi\n        /* \"--CODEGEN--\":45:61   */\n      returndatasize\n        /* \"--CODEGEN--\":42:43   */\n      0x00\n        /* \"--CODEGEN--\":39:40   */\n      dup1\n        /* \"--CODEGEN--\":24:62   */\n      returndatacopy\n        /* \"--CODEGEN--\":77:93   */\n      returndatasize\n        /* \"--CODEGEN--\":74:75   */\n      0x00\n        /* \"--CODEGEN--\":67:94   */\n      revert\n        /* \"--CODEGEN--\":5:7   */\n    tag_15:\n        /* \"Interactuar con varios SC/librerias.sol\":495:510  _a.division(_b) */\n      pop\n      pop\n      pop\n      pop\n      mload(0x40)\n      returndatasize\n        /* \"--CODEGEN--\":101:105   */\n      0x1f\n        /* \"--CODEGEN--\":97:106   */\n      not\n        /* \"--CODEGEN--\":90:94   */\n      0x1f\n        /* \"--CODEGEN--\":84:88   */\n      dup3\n        /* \"--CODEGEN--\":80:95   */\n      add\n        /* \"--CODEGEN--\":76:107   */\n      and\n        /* \"--CODEGEN--\":69:74   */\n      dup3\n        /* \"--CODEGEN--\":65:108   */\n      add\n        /* \"--CODEGEN--\":126:132   */\n      dup1\n        /* \"--CODEGEN--\":120:124   */\n      0x40\n        /* \"--CODEGEN--\":113:133   */\n      mstore\n        /* \"--CODEGEN--\":0:138   */\n      pop\n        /* \"Interactuar con varios SC/librerias.sol\":495:510  _a.division(_b) */\n      tag_16\n      swap2\n      swap1\n      dup2\n      add\n      swap1\n      jump(tag_17)\n    tag_16:\n        /* \"Interactuar con varios SC/librerias.sol\":512:514  _a */\n      dup5\n        /* \"Interactuar con varios SC/librerias.sol\":512:519  _a.mult */\n      linkerSymbol(\"4449ef957c7fe10a7db78de57cc75fb4d3ac94649aac3518a1b692ea8bcbcb75\")\n      0x9aa727f6\n      swap1\n      swap2\n        /* \"Interactuar con varios SC/librerias.sol\":520:522  _b */\n      dup7\n        /* \"Interactuar con varios SC/librerias.sol\":512:523  _a.mult(_b) */\n      mload(0x40)\n      dup4\n      0xffffffff\n      and\n      0xe0\n      shl\n      dup2\n      mstore\n      0x04\n      add\n      tag_18\n      swap3\n      swap2\n      swap1\n      jump(tag_12)\n    tag_18:\n      0x20\n      mload(0x40)\n      dup1\n      dup4\n      sub\n      dup2\n      dup7\n      dup1\n      extcodesize\n      iszero\n        /* \"--CODEGEN--\":8:17   */\n      dup1\n        /* \"--CODEGEN--\":5:7   */\n      iszero\n      tag_19\n      jumpi\n        /* \"--CODEGEN--\":30:31   */\n      0x00\n        /* \"--CODEGEN--\":27:28   */\n      dup1\n        /* \"--CODEGEN--\":20:32   */\n      revert\n        /* \"--CODEGEN--\":5:7   */\n    tag_19:\n        /* \"Interactuar con varios SC/librerias.sol\":512:523  _a.mult(_b) */\n      pop\n      gas\n      delegatecall\n      iszero\n        /* \"--CODEGEN--\":8:17   */\n      dup1\n        /* \"--CODEGEN--\":5:7   */\n      iszero\n      tag_21\n      jumpi\n        /* \"--CODEGEN--\":45:61   */\n      returndatasize\n        /* \"--CODEGEN--\":42:43   */\n      0x00\n        /* \"--CODEGEN--\":39:40   */\n      dup1\n        /* \"--CODEGEN--\":24:62   */\n      returndatacopy\n        /* \"--CODEGEN--\":77:93   */\n      returndatasize\n        /* \"--CODEGEN--\":74:75   */\n      0x00\n        /* \"--CODEGEN--\":67:94   */\n      revert\n        /* \"--CODEGEN--\":5:7   */\n    tag_21:\n        /* \"Interactuar con varios SC/librerias.sol\":512:523  _a.mult(_b) */\n      pop\n      pop\n      pop\n      pop\n      mload(0x40)\n      returndatasize\n        /* \"--CODEGEN--\":101:105   */\n      0x1f\n        /* \"--CODEGEN--\":97:106   */\n      not\n        /* \"--CODEGEN--\":90:94   */\n      0x1f\n        /* \"--CODEGEN--\":84:88   */\n      dup3\n        /* \"--CODEGEN--\":80:95   */\n      add\n        /* \"--CODEGEN--\":76:107   */\n      and\n        /* \"--CODEGEN--\":69:74   */\n      dup3\n        /* \"--CODEGEN--\":65:108   */\n      add\n        /* \"--CODEGEN--\":126:132   */\n      dup1\n        /* \"--CODEGEN--\":120:124   */\n      0x40\n        /* \"--CODEGEN--\":113:133   */\n      mstore\n        /* \"--CODEGEN--\":0:138   */\n      pop\n        /* \"Interactuar con varios SC/librerias.sol\":512:523  _a.mult(_b) */\n      tag_22\n      swap2\n      swap1\n      dup2\n      add\n      swap1\n      jump(tag_17)\n    tag_22:\n        /* \"Interactuar con varios SC/librerias.sol\":486:525  return ( _a.division(_b), _a.mult(_b) ) */\n      swap2\n      pop\n      swap2\n      pop\n        /* \"Interactuar con varios SC/librerias.sol\":408:533  function calculo(uint _a, uint _b) public pure returns (uint, uint){\r... */\n      swap3\n      pop\n      swap3\n      swap1\n      pop\n      jump\t// out\n        /* \"--CODEGEN--\":5:135   */\n    tag_24:\n      0x00\n        /* \"--CODEGEN--\":85:91   */\n      dup2\n        /* \"--CODEGEN--\":72:92   */\n      calldataload\n        /* \"--CODEGEN--\":63:92   */\n      swap1\n      pop\n        /* \"--CODEGEN--\":97:130   */\n      tag_26\n        /* \"--CODEGEN--\":124:129   */\n      dup2\n        /* \"--CODEGEN--\":97:130   */\n      jump(tag_27)\n    tag_26:\n        /* \"--CODEGEN--\":57:135   */\n      swap3\n      swap2\n      pop\n      pop\n      jump\n        /* \"--CODEGEN--\":142:276   */\n    tag_28:\n      0x00\n        /* \"--CODEGEN--\":226:232   */\n      dup2\n        /* \"--CODEGEN--\":220:233   */\n      mload\n        /* \"--CODEGEN--\":211:233   */\n      swap1\n      pop\n        /* \"--CODEGEN--\":238:271   */\n      tag_30\n        /* \"--CODEGEN--\":265:270   */\n      dup2\n        /* \"--CODEGEN--\":238:271   */\n      jump(tag_27)\n    tag_30:\n        /* \"--CODEGEN--\":205:276   */\n      swap3\n      swap2\n      pop\n      pop\n      jump\n        /* \"--CODEGEN--\":283:546   */\n    tag_17:\n      0x00\n        /* \"--CODEGEN--\":398:400   */\n      0x20\n        /* \"--CODEGEN--\":386:395   */\n      dup3\n        /* \"--CODEGEN--\":377:384   */\n      dup5\n        /* \"--CODEGEN--\":373:396   */\n      sub\n        /* \"--CODEGEN--\":369:401   */\n      slt\n        /* \"--CODEGEN--\":366:368   */\n      iszero\n      tag_32\n      jumpi\n        /* \"--CODEGEN--\":414:415   */\n      0x00\n        /* \"--CODEGEN--\":411:412   */\n      dup1\n        /* \"--CODEGEN--\":404:416   */\n      revert\n        /* \"--CODEGEN--\":366:368   */\n    tag_32:\n        /* \"--CODEGEN--\":449:450   */\n      0x00\n        /* \"--CODEGEN--\":466:530   */\n      tag_33\n        /* \"--CODEGEN--\":522:529   */\n      dup5\n        /* \"--CODEGEN--\":513:519   */\n      dup3\n        /* \"--CODEGEN--\":502:511   */\n      dup6\n        /* \"--CODEGEN--\":498:520   */\n      add\n        /* \"--CODEGEN--\":466:530   */\n      jump(tag_28)\n    tag_33:\n        /* \"--CODEGEN--\":456:530   */\n      swap2\n      pop\n        /* \"--CODEGEN--\":428:536   */\n      pop\n        /* \"--CODEGEN--\":360:546   */\n      swap3\n      swap2\n      pop\n      pop\n      jump\n        /* \"--CODEGEN--\":553:919   */\n    tag_6:\n      0x00\n      dup1\n        /* \"--CODEGEN--\":674:676   */\n      0x40\n        /* \"--CODEGEN--\":662:671   */\n      dup4\n        /* \"--CODEGEN--\":653:660   */\n      dup6\n        /* \"--CODEGEN--\":649:672   */\n      sub\n        /* \"--CODEGEN--\":645:677   */\n      slt\n        /* \"--CODEGEN--\":642:644   */\n      iszero\n      tag_35\n      jumpi\n        /* \"--CODEGEN--\":690:691   */\n      0x00\n        /* \"--CODEGEN--\":687:688   */\n      dup1\n        /* \"--CODEGEN--\":680:692   */\n      revert\n        /* \"--CODEGEN--\":642:644   */\n    tag_35:\n        /* \"--CODEGEN--\":725:726   */\n      0x00\n        /* \"--CODEGEN--\":742:795   */\n      tag_36\n        /* \"--CODEGEN--\":787:794   */\n      dup6\n        /* \"--CODEGEN--\":778:784   */\n      dup3\n        /* \"--CODEGEN--\":767:776   */\n      dup7\n        /* \"--CODEGEN--\":763:785   */\n      add\n        /* \"--CODEGEN--\":742:795   */\n      jump(tag_24)\n    tag_36:\n        /* \"--CODEGEN--\":732:795   */\n      swap3\n      pop\n        /* \"--CODEGEN--\":704:801   */\n      pop\n        /* \"--CODEGEN--\":832:834   */\n      0x20\n        /* \"--CODEGEN--\":850:903   */\n      tag_37\n        /* \"--CODEGEN--\":895:902   */\n      dup6\n        /* \"--CODEGEN--\":886:892   */\n      dup3\n        /* \"--CODEGEN--\":875:884   */\n      dup7\n        /* \"--CODEGEN--\":871:893   */\n      add\n        /* \"--CODEGEN--\":850:903   */\n      jump(tag_24)\n    tag_37:\n        /* \"--CODEGEN--\":840:903   */\n      swap2\n      pop\n        /* \"--CODEGEN--\":811:909   */\n      pop\n        /* \"--CODEGEN--\":636:919   */\n      swap3\n      pop\n      swap3\n      swap1\n      pop\n      jump\n        /* \"--CODEGEN--\":926:1039   */\n    tag_38:\n        /* \"--CODEGEN--\":1009:1033   */\n      tag_40\n        /* \"--CODEGEN--\":1027:1032   */\n      dup2\n        /* \"--CODEGEN--\":1009:1033   */\n      jump(tag_41)\n    tag_40:\n        /* \"--CODEGEN--\":1004:1007   */\n      dup3\n        /* \"--CODEGEN--\":997:1034   */\n      mstore\n        /* \"--CODEGEN--\":991:1039   */\n      pop\n      pop\n      jump\n        /* \"--CODEGEN--\":1046:1167   */\n    tag_42:\n        /* \"--CODEGEN--\":1137:1161   */\n      tag_44\n        /* \"--CODEGEN--\":1155:1160   */\n      dup2\n        /* \"--CODEGEN--\":1137:1161   */\n      jump(tag_41)\n    tag_44:\n        /* \"--CODEGEN--\":1132:1135   */\n      dup3\n        /* \"--CODEGEN--\":1125:1162   */\n      mstore\n        /* \"--CODEGEN--\":1119:1167   */\n      pop\n      pop\n      jump\n        /* \"--CODEGEN--\":1174:1498   */\n    tag_9:\n      0x00\n        /* \"--CODEGEN--\":1320:1322   */\n      0x40\n        /* \"--CODEGEN--\":1309:1318   */\n      dup3\n        /* \"--CODEGEN--\":1305:1323   */\n      add\n        /* \"--CODEGEN--\":1297:1323   */\n      swap1\n      pop\n        /* \"--CODEGEN--\":1334:1405   */\n      tag_46\n        /* \"--CODEGEN--\":1402:1403   */\n      0x00\n        /* \"--CODEGEN--\":1391:1400   */\n      dup4\n        /* \"--CODEGEN--\":1387:1404   */\n      add\n        /* \"--CODEGEN--\":1378:1384   */\n      dup6\n        /* \"--CODEGEN--\":1334:1405   */\n      jump(tag_38)\n    tag_46:\n        /* \"--CODEGEN--\":1416:1488   */\n      tag_47\n        /* \"--CODEGEN--\":1484:1486   */\n      0x20\n        /* \"--CODEGEN--\":1473:1482   */\n      dup4\n        /* \"--CODEGEN--\":1469:1487   */\n      add\n        /* \"--CODEGEN--\":1460:1466   */\n      dup5\n        /* \"--CODEGEN--\":1416:1488   */\n      jump(tag_38)\n    tag_47:\n        /* \"--CODEGEN--\":1291:1498   */\n      swap4\n      swap3\n      pop\n      pop\n      pop\n      jump\n        /* \"--CODEGEN--\":1505:1853   */\n    tag_12:\n      0x00\n        /* \"--CODEGEN--\":1659:1661   */\n      0x40\n        /* \"--CODEGEN--\":1648:1657   */\n      dup3\n        /* \"--CODEGEN--\":1644:1662   */\n      add\n        /* \"--CODEGEN--\":1636:1662   */\n      swap1\n      pop\n        /* \"--CODEGEN--\":1673:1752   */\n      tag_49\n        /* \"--CODEGEN--\":1749:1750   */\n      0x00\n        /* \"--CODEGEN--\":1738:1747   */\n      dup4\n        /* \"--CODEGEN--\":1734:1751   */\n      add\n        /* \"--CODEGEN--\":1725:1731   */\n      dup6\n        /* \"--CODEGEN--\":1673:1752   */\n      jump(tag_42)\n    tag_49:\n        /* \"--CODEGEN--\":1763:1843   */\n      tag_50\n        /* \"--CODEGEN--\":1839:1841   */\n      0x20\n        /* \"--CODEGEN--\":1828:1837   */\n      dup4\n        /* \"--CODEGEN--\":1824:1842   */\n      add\n        /* \"--CODEGEN--\":1815:1821   */\n      dup5\n        /* \"--CODEGEN--\":1763:1843   */\n      jump(tag_42)\n    tag_50:\n        /* \"--CODEGEN--\":1630:1853   */\n      swap4\n      swap3\n      pop\n      pop\n      pop\n      jump\n        /* \"--CODEGEN--\":1860:1932   */\n    tag_41:\n      0x00\n        /* \"--CODEGEN--\":1922:1927   */\n      dup2\n        /* \"--CODEGEN--\":1911:1927   */\n      swap1\n      pop\n        /* \"--CODEGEN--\":1905:1932   */\n      swap2\n      swap1\n      pop\n      jump\n        /* \"--CODEGEN--\":1939:2056   */\n    tag_27:\n        /* \"--CODEGEN--\":2008:2032   */\n      tag_53\n        /* \"--CODEGEN--\":2026:2031   */\n      dup2\n        /* \"--CODEGEN--\":2008:2032   */\n      jump(tag_41)\n    tag_53:\n        /* \"--CODEGEN--\":2001:2006   */\n      dup2\n        /* \"--CODEGEN--\":1998:2033   */\n      eq\n        /* \"--CODEGEN--\":1988:1990   */\n      tag_54\n      jumpi\n        /* \"--CODEGEN--\":2047:2048   */\n      0x00\n        /* \"--CODEGEN--\":2044:2045   */\n      dup1\n        /* \"--CODEGEN--\":2037:2049   */\n      revert\n        /* \"--CODEGEN--\":1988:1990   */\n    tag_54:\n        /* \"--CODEGEN--\":1982:2056   */\n      pop\n      jump\n\n    auxdata: 0xa26469706673582212206489f87c6fcf892e456f1052aa00e961c0a05a041722d3c10d957eb552f542e364736f6c63430006000033\n}\n",
				"bytecode": {
					"linkReferences": {
						"Interactuar con varios SC/librerias.sol": {
							"Operaciones": [
								{
									"length": 20,
									"start": 135
								},
								{
									"length": 20,
									"start": 274
								}
							]
						}
					},
					"object": "608060405234801561001057600080fd5b506102db806100206000396000f3fe608060405234801561001057600080fd5b506004361061002b5760003560e01c80639f01863b14610030575b600080fd5b61004a600480360361004591908101906101d8565b610061565b604051610058929190610232565b60405180910390f35b6000808373__$4449ef957c7fe10a7db78de57cc75fb4d3$__63e00680529091856040518363ffffffff1660e01b815260040161009f92919061025b565b60206040518083038186803b1580156100b757600080fd5b505af41580156100cb573d6000803e3d6000fd5b505050506040513d601f19601f820116820180604052506100ef91908101906101af565b8473__$4449ef957c7fe10a7db78de57cc75fb4d3$__639aa727f69091866040518363ffffffff1660e01b815260040161012a92919061025b565b60206040518083038186803b15801561014257600080fd5b505af4158015610156573d6000803e3d6000fd5b505050506040513d601f19601f8201168201806040525061017a91908101906101af565b915091509250929050565b6000813590506101948161028e565b92915050565b6000815190506101a98161028e565b92915050565b6000602082840312156101c157600080fd5b60006101cf8482850161019a565b91505092915050565b600080604083850312156101eb57600080fd5b60006101f985828601610185565b925050602061020a85828601610185565b9150509250929050565b61021d81610284565b82525050565b61022c81610284565b82525050565b60006040820190506102476000830185610214565b6102546020830184610214565b9392505050565b60006040820190506102706000830185610223565b61027d6020830184610223565b9392505050565b6000819050919050565b61029781610284565b81146102a257600080fd5b5056fea26469706673582212206489f87c6fcf892e456f1052aa00e961c0a05a041722d3c10d957eb552f542e364736f6c63430006000033",
					"opcodes": "PUSH1 0x80 PUSH1 0x40 MSTORE CALLVALUE DUP1 ISZERO PUSH2 0x10 JUMPI PUSH1 0x0 DUP1 REVERT JUMPDEST POP PUSH2 0x2DB DUP1 PUSH2 0x20 PUSH1 0x0 CODECOPY PUSH1 0x0 RETURN INVALID PUSH1 0x80 PUSH1 0x40 MSTORE CALLVALUE DUP1 ISZERO PUSH2 0x10 JUMPI PUSH1 0x0 DUP1 REVERT JUMPDEST POP PUSH1 0x4 CALLDATASIZE LT PUSH2 0x2B JUMPI PUSH1 0x0 CALLDATALOAD PUSH1 0xE0 SHR DUP1 PUSH4 0x9F01863B EQ PUSH2 0x30 JUMPI JUMPDEST PUSH1 0x0 DUP1 REVERT JUMPDEST PUSH2 0x4A PUSH1 0x4 DUP1 CALLDATASIZE SUB PUSH2 0x45 SWAP2 SWAP1 DUP2 ADD SWAP1 PUSH2 0x1D8 JUMP JUMPDEST PUSH2 0x61 JUMP JUMPDEST PUSH1 0x40 MLOAD PUSH2 0x58 SWAP3 SWAP2 SWAP1 PUSH2 0x232 JUMP JUMPDEST PUSH1 0x40 MLOAD DUP1 SWAP2 SUB SWAP1 RETURN JUMPDEST PUSH1 0x0 DUP1 DUP4 PUSH20 0x0 PUSH4 0xE0068052 SWAP1 SWAP2 DUP6 PUSH1 0x40 MLOAD DUP4 PUSH4 0xFFFFFFFF AND PUSH1 0xE0 SHL DUP2 MSTORE PUSH1 0x4 ADD PUSH2 0x9F SWAP3 SWAP2 SWAP1 PUSH2 0x25B JUMP JUMPDEST PUSH1 0x20 PUSH1 0x40 MLOAD DUP1 DUP4 SUB DUP2 DUP7 DUP1 EXTCODESIZE ISZERO DUP1 ISZERO PUSH2 0xB7 JUMPI PUSH1 0x0 DUP1 REVERT JUMPDEST POP GAS DELEGATECALL ISZERO DUP1 ISZERO PUSH2 0xCB JUMPI RETURNDATASIZE PUSH1 0x0 DUP1 RETURNDATACOPY RETURNDATASIZE PUSH1 0x0 REVERT JUMPDEST POP POP POP POP PUSH1 0x40 MLOAD RETURNDATASIZE PUSH1 0x1F NOT PUSH1 0x1F DUP3 ADD AND DUP3 ADD DUP1 PUSH1 0x40 MSTORE POP PUSH2 0xEF SWAP2 SWAP1 DUP2 ADD SWAP1 PUSH2 0x1AF JUMP JUMPDEST DUP5 PUSH20 0x0 PUSH4 0x9AA727F6 SWAP1 SWAP2 DUP7 PUSH1 0x40 MLOAD DUP4 PUSH4 0xFFFFFFFF AND PUSH1 0xE0 SHL DUP2 MSTORE PUSH1 0x4 ADD PUSH2 0x12A SWAP3 SWAP2 SWAP1 PUSH2 0x25B JUMP JUMPDEST PUSH1 0x20 PUSH1 0x40 MLOAD DUP1 DUP4 SUB DUP2 DUP7 DUP1 EXTCODESIZE ISZERO DUP1 ISZERO PUSH2 0x142 JUMPI PUSH1 0x0 DUP1 REVERT JUMPDEST POP GAS DELEGATECALL ISZERO DUP1 ISZERO PUSH2 0x156 JUMPI RETURNDATASIZE PUSH1 0x0 DUP1 RETURNDATACOPY RETURNDATASIZE PUSH1 0x0 REVERT JUMPDEST POP POP POP POP PUSH1 0x40 MLOAD RETURNDATASIZE PUSH1 0x1F NOT PUSH1 0x1F DUP3 ADD AND DUP3 ADD DUP1 PUSH1 0x40 MSTORE POP PUSH2 0x17A SWAP2 SWAP1 DUP2 ADD SWAP1 PUSH2 0x1AF JUMP JUMPDEST SWAP2 POP SWAP2 POP SWAP3 POP SWAP3 SWAP1 POP JUMP JUMPDEST PUSH1 0x0 DUP2 CALLDATALOAD SWAP1 POP PUSH2 0x194 DUP2 PUSH2 0x28E JUMP JUMPDEST SWAP3 SWAP2 POP POP JUMP JUMPDEST PUSH1 0x0 DUP2 MLOAD SWAP1 POP PUSH2 0x1A9 DUP2 PUSH2 0x28E JUMP JUMPDEST SWAP3 SWAP2 POP POP JUMP JUMPDEST PUSH1 0x0 PUSH1 0x20 DUP3 DUP5 SUB SLT ISZERO PUSH2 0x1C1 JUMPI PUSH1 0x0 DUP1 REVERT JUMPDEST PUSH1 0x0 PUSH2 0x1CF DUP5 DUP3 DUP6 ADD PUSH2 0x19A JUMP JUMPDEST SWAP2 POP POP SWAP3 SWAP2 POP POP JUMP JUMPDEST PUSH1 0x0 DUP1 PUSH1 0x40 DUP4 DUP6 SUB SLT ISZERO PUSH2 0x1EB JUMPI PUSH1 0x0 DUP1 REVERT JUMPDEST PUSH1 0x0 PUSH2 0x1F9 DUP6 DUP3 DUP7 ADD PUSH2 0x185 JUMP JUMPDEST SWAP3 POP POP PUSH1 0x20 PUSH2 0x20A DUP6 DUP3 DUP7 ADD PUSH2 0x185 JUMP JUMPDEST SWAP2 POP POP SWAP3 POP SWAP3 SWAP1 POP JUMP JUMPDEST PUSH2 0x21D DUP2 PUSH2 0x284 JUMP JUMPDEST DUP3 MSTORE POP POP JUMP JUMPDEST PUSH2 0x22C DUP2 PUSH2 0x284 JUMP JUMPDEST DUP3 MSTORE POP POP JUMP JUMPDEST PUSH1 0x0 PUSH1 0x40 DUP3 ADD SWAP1 POP PUSH2 0x247 PUSH1 0x0 DUP4 ADD DUP6 PUSH2 0x214 JUMP JUMPDEST PUSH2 0x254 PUSH1 0x20 DUP4 ADD DUP5 PUSH2 0x214 JUMP JUMPDEST SWAP4 SWAP3 POP POP POP JUMP JUMPDEST PUSH1 0x0 PUSH1 0x40 DUP3 ADD SWAP1 POP PUSH2 0x270 PUSH1 0x0 DUP4 ADD DUP6 PUSH2 0x223 JUMP JUMPDEST PUSH2 0x27D PUSH1 0x20 DUP4 ADD DUP5 PUSH2 0x223 JUMP JUMPDEST SWAP4 SWAP3 POP POP POP JUMP JUMPDEST PUSH1 0x0 DUP2 SWAP1 POP SWAP2 SWAP1 POP JUMP JUMPDEST PUSH2 0x297 DUP2 PUSH2 0x284 JUMP JUMPDEST DUP2 EQ PUSH2 0x2A2 JUMPI PUSH1 0x0 DUP1 REVERT JUMPDEST POP JUMP INVALID LOG2 PUSH5 0x6970667358 0x22 SLT KECCAK256 PUSH5 0x89F87C6FCF DUP10 0x2E GASLIMIT PUSH16 0x1052AA00E961C0A05A041722D3C10D95 PUSH31 0xB552F542E364736F6C63430006000033000000000000000000000000000000 "
				},
				"gasEstimates": {
					"creation": {
						"codeDepositCost": "146200",
						"executionCost": "190",
						"totalCost": "146390"
					},
					"external": {
						"calculo(uint256,uint256)": "infinite"
					}
				},
				"methodIdentifiers": {
					"calculo(uint256,uint256)": "9f01863b"
				}
			},
			"storageLayout": {
				"storage": [],
				"types": null
			},
			"userdoc": {
				"methods": {}
			}
		}
	}
}