{
	"Interactuar con varios SC/herencia.sol": {
		"Cliente": {
			"abi": [
				{
					"inputs": [
						{
							"internalType": "string",
							"name": "_nombre",
							"type": "string"
						}
					],
					"name": "altaCliente",
					"outputs": [],
					"stateMutability": "nonpayable",
					"type": "function"
				},
				{
					"inputs": [
						{
							"internalType": "string",
							"name": "_nombre",
							"type": "string"
						}
					],
					"name": "crearCliente",
					"outputs": [],
					"stateMutability": "nonpayable",
					"type": "function"
				},
				{
					"inputs": [
						{
							"internalType": "string",
							"name": "_nombre",
							"type": "string"
						},
						{
							"internalType": "uint256",
							"name": "_cantidad",
							"type": "uint256"
						}
					],
					"name": "ingresarDinero",
					"outputs": [],
					"stateMutability": "nonpayable",
					"type": "function"
				}
			],
			"devdoc": {
				"methods": {}
			},
			"evm": {
				"assembly": "    /* \"Interactuar con varios SC/herencia.sol\":366:629  contract Cliente is Banco{\r... */\n  mstore(0x40, 0x80)\n  callvalue\n    /* \"--CODEGEN--\":8:17   */\n  dup1\n    /* \"--CODEGEN--\":5:7   */\n  iszero\n  tag_1\n  jumpi\n    /* \"--CODEGEN--\":30:31   */\n  0x00\n    /* \"--CODEGEN--\":27:28   */\n  dup1\n    /* \"--CODEGEN--\":20:32   */\n  revert\n    /* \"--CODEGEN--\":5:7   */\ntag_1:\n    /* \"Interactuar con varios SC/herencia.sol\":366:629  contract Cliente is Banco{\r... */\n  pop\n  dataSize(sub_0)\n  dup1\n  dataOffset(sub_0)\n  0x00\n  codecopy\n  0x00\n  return\nstop\n\nsub_0: assembly {\n        /* \"Interactuar con varios SC/herencia.sol\":366:629  contract Cliente is Banco{\r... */\n      mstore(0x40, 0x80)\n      callvalue\n        /* \"--CODEGEN--\":8:17   */\n      dup1\n        /* \"--CODEGEN--\":5:7   */\n      iszero\n      tag_1\n      jumpi\n        /* \"--CODEGEN--\":30:31   */\n      0x00\n        /* \"--CODEGEN--\":27:28   */\n      dup1\n        /* \"--CODEGEN--\":20:32   */\n      revert\n        /* \"--CODEGEN--\":5:7   */\n    tag_1:\n        /* \"Interactuar con varios SC/herencia.sol\":366:629  contract Cliente is Banco{\r... */\n      pop\n      jumpi(tag_2, lt(calldatasize, 0x04))\n      shr(0xe0, calldataload(0x00))\n      dup1\n      0x084f9c37\n      eq\n      tag_3\n      jumpi\n      dup1\n      0x276a05bf\n      eq\n      tag_4\n      jumpi\n      dup1\n      0x50eacac2\n      eq\n      tag_5\n      jumpi\n    tag_2:\n      0x00\n      dup1\n      revert\n        /* \"Interactuar con varios SC/herencia.sol\":400:491  function altaCliente(string memory _nombre) public {\r... */\n    tag_3:\n      tag_6\n      0x04\n      dup1\n      calldatasize\n      sub\n      tag_7\n      swap2\n      swap1\n      dup2\n      add\n      swap1\n      jump(tag_8)\n    tag_7:\n      tag_9\n      jump\t// in\n    tag_6:\n      stop\n        /* \"Interactuar con varios SC/herencia.sol\":499:624  function ingresarDinero(string memory _nombre, uint _cantidad) public {\r... */\n    tag_4:\n      tag_10\n      0x04\n      dup1\n      calldatasize\n      sub\n      tag_11\n      swap2\n      swap1\n      dup2\n      add\n      swap1\n      jump(tag_12)\n    tag_11:\n      tag_13\n      jump\t// in\n    tag_10:\n      stop\n        /* \"Interactuar con varios SC/herencia.sol\":235:357  function crearCliente(string memory _nombre) public {\r... */\n    tag_5:\n      tag_14\n      0x04\n      dup1\n      calldatasize\n      sub\n      tag_15\n      swap2\n      swap1\n      dup2\n      add\n      swap1\n      jump(tag_8)\n    tag_15:\n      tag_16\n      jump\t// in\n    tag_14:\n      stop\n        /* \"Interactuar con varios SC/herencia.sol\":400:491  function altaCliente(string memory _nombre) public {\r... */\n    tag_9:\n        /* \"Interactuar con varios SC/herencia.sol\":462:483  crearCliente(_nombre) */\n      tag_18\n        /* \"Interactuar con varios SC/herencia.sol\":475:482  _nombre */\n      dup2\n        /* \"Interactuar con varios SC/herencia.sol\":462:474  crearCliente */\n      tag_16\n        /* \"Interactuar con varios SC/herencia.sol\":462:483  crearCliente(_nombre) */\n      jump\t// in\n    tag_18:\n        /* \"Interactuar con varios SC/herencia.sol\":400:491  function altaCliente(string memory _nombre) public {\r... */\n      pop\n      jump\t// out\n        /* \"Interactuar con varios SC/herencia.sol\":499:624  function ingresarDinero(string memory _nombre, uint _cantidad) public {\r... */\n    tag_13:\n        /* \"Interactuar con varios SC/herencia.sol\":607:616  _cantidad */\n      dup1\n        /* \"Interactuar con varios SC/herencia.sol\":580:588  clientes */\n      0x00\n        /* \"Interactuar con varios SC/herencia.sol\":589:596  _nombre */\n      dup4\n        /* \"Interactuar con varios SC/herencia.sol\":580:597  clientes[_nombre] */\n      mload(0x40)\n      tag_20\n      swap2\n      swap1\n      jump(tag_21)\n    tag_20:\n      swap1\n      dup2\n      mstore\n      0x20\n      add\n      mload(0x40)\n      dup1\n      swap2\n      sub\n      swap1\n      keccak256\n        /* \"Interactuar con varios SC/herencia.sol\":580:604  clientes[_nombre].dinero */\n      0x02\n      add\n      0x00\n        /* \"Interactuar con varios SC/herencia.sol\":580:616  clientes[_nombre].dinero +=_cantidad */\n      dup3\n      dup3\n      sload\n      add\n      swap3\n      pop\n      pop\n      dup2\n      swap1\n      sstore\n      pop\n        /* \"Interactuar con varios SC/herencia.sol\":499:624  function ingresarDinero(string memory _nombre, uint _cantidad) public {\r... */\n      pop\n      pop\n      jump\t// out\n        /* \"Interactuar con varios SC/herencia.sol\":235:357  function crearCliente(string memory _nombre) public {\r... */\n    tag_16:\n        /* \"Interactuar con varios SC/herencia.sol\":318:349  cliente(_nombre, msg.sender, 0) */\n      mload(0x40)\n      dup1\n      0x60\n      add\n      0x40\n      mstore\n      dup1\n        /* \"Interactuar con varios SC/herencia.sol\":326:333  _nombre */\n      dup3\n        /* \"Interactuar con varios SC/herencia.sol\":318:349  cliente(_nombre, msg.sender, 0) */\n      dup2\n      mstore\n      0x20\n      add\n        /* \"Interactuar con varios SC/herencia.sol\":335:345  msg.sender */\n      caller\n        /* \"Interactuar con varios SC/herencia.sol\":318:349  cliente(_nombre, msg.sender, 0) */\n      0xffffffffffffffffffffffffffffffffffffffff\n      and\n      dup2\n      mstore\n      0x20\n      add\n        /* \"Interactuar con varios SC/herencia.sol\":347:348  0 */\n      0x00\n        /* \"Interactuar con varios SC/herencia.sol\":318:349  cliente(_nombre, msg.sender, 0) */\n      dup2\n      mstore\n      pop\n        /* \"Interactuar con varios SC/herencia.sol\":298:306  clientes */\n      0x00\n        /* \"Interactuar con varios SC/herencia.sol\":307:314  _nombre */\n      dup3\n        /* \"Interactuar con varios SC/herencia.sol\":298:315  clientes[_nombre] */\n      mload(0x40)\n      tag_23\n      swap2\n      swap1\n      jump(tag_21)\n    tag_23:\n      swap1\n      dup2\n      mstore\n      0x20\n      add\n      mload(0x40)\n      dup1\n      swap2\n      sub\n      swap1\n      keccak256\n        /* \"Interactuar con varios SC/herencia.sol\":298:349  clientes[_nombre] = cliente(_nombre, msg.sender, 0) */\n      0x00\n      dup3\n      add\n      mload\n      dup2\n      0x00\n      add\n      swap1\n      dup1\n      mload\n      swap1\n      0x20\n      add\n      swap1\n      tag_24\n      swap3\n      swap2\n      swap1\n      tag_25\n      jump\t// in\n    tag_24:\n      pop\n      0x20\n      dup3\n      add\n      mload\n      dup2\n      0x01\n      add\n      exp(0x0100, 0x00)\n      dup2\n      sload\n      dup2\n      0xffffffffffffffffffffffffffffffffffffffff\n      mul\n      not\n      and\n      swap1\n      dup4\n      0xffffffffffffffffffffffffffffffffffffffff\n      and\n      mul\n      or\n      swap1\n      sstore\n      pop\n      0x40\n      dup3\n      add\n      mload\n      dup2\n      0x02\n      add\n      sstore\n      swap1\n      pop\n      pop\n        /* \"Interactuar con varios SC/herencia.sol\":235:357  function crearCliente(string memory _nombre) public {\r... */\n      pop\n      jump\t// out\n        /* \"Interactuar con varios SC/herencia.sol\":366:629  contract Cliente is Banco{\r... */\n    tag_25:\n      dup3\n      dup1\n      sload\n      0x01\n      dup2\n      0x01\n      and\n      iszero\n      0x0100\n      mul\n      sub\n      and\n      0x02\n      swap1\n      div\n      swap1\n      0x00\n      mstore\n      keccak256(0x00, 0x20)\n      swap1\n      0x1f\n      add\n      0x20\n      swap1\n      div\n      dup2\n      add\n      swap3\n      dup3\n      0x1f\n      lt\n      tag_27\n      jumpi\n      dup1\n      mload\n      not(0xff)\n      and\n      dup4\n      dup1\n      add\n      or\n      dup6\n      sstore\n      jump(tag_26)\n    tag_27:\n      dup3\n      dup1\n      add\n      0x01\n      add\n      dup6\n      sstore\n      dup3\n      iszero\n      tag_26\n      jumpi\n      swap2\n      dup3\n      add\n    tag_28:\n      dup3\n      dup2\n      gt\n      iszero\n      tag_29\n      jumpi\n      dup3\n      mload\n      dup3\n      sstore\n      swap2\n      0x20\n      add\n      swap2\n      swap1\n      0x01\n      add\n      swap1\n      jump(tag_28)\n    tag_29:\n    tag_26:\n      pop\n      swap1\n      pop\n      tag_30\n      swap2\n      swap1\n      tag_31\n      jump\t// in\n    tag_30:\n      pop\n      swap1\n      jump\t// out\n    tag_31:\n      tag_32\n      swap2\n      swap1\n    tag_33:\n      dup1\n      dup3\n      gt\n      iszero\n      tag_34\n      jumpi\n      0x00\n      dup2\n      0x00\n      swap1\n      sstore\n      pop\n      0x01\n      add\n      jump(tag_33)\n    tag_34:\n      pop\n      swap1\n      jump\n    tag_32:\n      swap1\n      jump\t// out\n        /* \"--CODEGEN--\":6:448   */\n    tag_36:\n      0x00\n        /* \"--CODEGEN--\":108:111   */\n      dup3\n        /* \"--CODEGEN--\":101:105   */\n      0x1f\n        /* \"--CODEGEN--\":93:99   */\n      dup4\n        /* \"--CODEGEN--\":89:106   */\n      add\n        /* \"--CODEGEN--\":85:112   */\n      slt\n        /* \"--CODEGEN--\":75:77   */\n      tag_38\n      jumpi\n        /* \"--CODEGEN--\":126:127   */\n      0x00\n        /* \"--CODEGEN--\":123:124   */\n      dup1\n        /* \"--CODEGEN--\":116:128   */\n      revert\n        /* \"--CODEGEN--\":75:77   */\n    tag_38:\n        /* \"--CODEGEN--\":163:169   */\n      dup2\n        /* \"--CODEGEN--\":150:170   */\n      calldataload\n        /* \"--CODEGEN--\":185:250   */\n      tag_39\n        /* \"--CODEGEN--\":200:249   */\n      tag_40\n        /* \"--CODEGEN--\":242:248   */\n      dup3\n        /* \"--CODEGEN--\":200:249   */\n      jump(tag_41)\n    tag_40:\n        /* \"--CODEGEN--\":185:250   */\n      jump(tag_42)\n    tag_39:\n        /* \"--CODEGEN--\":176:250   */\n      swap2\n      pop\n        /* \"--CODEGEN--\":270:276   */\n      dup1\n        /* \"--CODEGEN--\":263:268   */\n      dup3\n        /* \"--CODEGEN--\":256:277   */\n      mstore\n        /* \"--CODEGEN--\":306:310   */\n      0x20\n        /* \"--CODEGEN--\":298:304   */\n      dup4\n        /* \"--CODEGEN--\":294:311   */\n      add\n        /* \"--CODEGEN--\":339:343   */\n      0x20\n        /* \"--CODEGEN--\":332:337   */\n      dup4\n        /* \"--CODEGEN--\":328:344   */\n      add\n        /* \"--CODEGEN--\":374:377   */\n      dup6\n        /* \"--CODEGEN--\":365:371   */\n      dup4\n        /* \"--CODEGEN--\":360:363   */\n      dup4\n        /* \"--CODEGEN--\":356:372   */\n      add\n        /* \"--CODEGEN--\":353:378   */\n      gt\n        /* \"--CODEGEN--\":350:352   */\n      iszero\n      tag_43\n      jumpi\n        /* \"--CODEGEN--\":391:392   */\n      0x00\n        /* \"--CODEGEN--\":388:389   */\n      dup1\n        /* \"--CODEGEN--\":381:393   */\n      revert\n        /* \"--CODEGEN--\":350:352   */\n    tag_43:\n        /* \"--CODEGEN--\":401:442   */\n      tag_44\n        /* \"--CODEGEN--\":435:441   */\n      dup4\n        /* \"--CODEGEN--\":430:433   */\n      dup3\n        /* \"--CODEGEN--\":425:428   */\n      dup5\n        /* \"--CODEGEN--\":401:442   */\n      jump(tag_45)\n    tag_44:\n        /* \"--CODEGEN--\":68:448   */\n      pop\n      pop\n      pop\n      swap3\n      swap2\n      pop\n      pop\n      jump\n        /* \"--CODEGEN--\":456:586   */\n    tag_46:\n      0x00\n        /* \"--CODEGEN--\":536:542   */\n      dup2\n        /* \"--CODEGEN--\":523:543   */\n      calldataload\n        /* \"--CODEGEN--\":514:543   */\n      swap1\n      pop\n        /* \"--CODEGEN--\":548:581   */\n      tag_48\n        /* \"--CODEGEN--\":575:580   */\n      dup2\n        /* \"--CODEGEN--\":548:581   */\n      jump(tag_49)\n    tag_48:\n        /* \"--CODEGEN--\":508:586   */\n      swap3\n      swap2\n      pop\n      pop\n      jump\n        /* \"--CODEGEN--\":593:940   */\n    tag_8:\n      0x00\n        /* \"--CODEGEN--\":707:709   */\n      0x20\n        /* \"--CODEGEN--\":695:704   */\n      dup3\n        /* \"--CODEGEN--\":686:693   */\n      dup5\n        /* \"--CODEGEN--\":682:705   */\n      sub\n        /* \"--CODEGEN--\":678:710   */\n      slt\n        /* \"--CODEGEN--\":675:677   */\n      iszero\n      tag_51\n      jumpi\n        /* \"--CODEGEN--\":723:724   */\n      0x00\n        /* \"--CODEGEN--\":720:721   */\n      dup1\n        /* \"--CODEGEN--\":713:725   */\n      revert\n        /* \"--CODEGEN--\":675:677   */\n    tag_51:\n        /* \"--CODEGEN--\":786:787   */\n      0x00\n        /* \"--CODEGEN--\":775:784   */\n      dup3\n        /* \"--CODEGEN--\":771:788   */\n      add\n        /* \"--CODEGEN--\":758:789   */\n      calldataload\n        /* \"--CODEGEN--\":809:827   */\n      0xffffffffffffffff\n        /* \"--CODEGEN--\":801:807   */\n      dup2\n        /* \"--CODEGEN--\":798:828   */\n      gt\n        /* \"--CODEGEN--\":795:797   */\n      iszero\n      tag_52\n      jumpi\n        /* \"--CODEGEN--\":841:842   */\n      0x00\n        /* \"--CODEGEN--\":838:839   */\n      dup1\n        /* \"--CODEGEN--\":831:843   */\n      revert\n        /* \"--CODEGEN--\":795:797   */\n    tag_52:\n        /* \"--CODEGEN--\":861:924   */\n      tag_53\n        /* \"--CODEGEN--\":916:923   */\n      dup5\n        /* \"--CODEGEN--\":907:913   */\n      dup3\n        /* \"--CODEGEN--\":896:905   */\n      dup6\n        /* \"--CODEGEN--\":892:914   */\n      add\n        /* \"--CODEGEN--\":861:924   */\n      jump(tag_36)\n    tag_53:\n        /* \"--CODEGEN--\":851:924   */\n      swap2\n      pop\n        /* \"--CODEGEN--\":737:930   */\n      pop\n        /* \"--CODEGEN--\":669:940   */\n      swap3\n      swap2\n      pop\n      pop\n      jump\n        /* \"--CODEGEN--\":947:1419   */\n    tag_12:\n      0x00\n      dup1\n        /* \"--CODEGEN--\":1078:1080   */\n      0x40\n        /* \"--CODEGEN--\":1066:1075   */\n      dup4\n        /* \"--CODEGEN--\":1057:1064   */\n      dup6\n        /* \"--CODEGEN--\":1053:1076   */\n      sub\n        /* \"--CODEGEN--\":1049:1081   */\n      slt\n        /* \"--CODEGEN--\":1046:1048   */\n      iszero\n      tag_55\n      jumpi\n        /* \"--CODEGEN--\":1094:1095   */\n      0x00\n        /* \"--CODEGEN--\":1091:1092   */\n      dup1\n        /* \"--CODEGEN--\":1084:1096   */\n      revert\n        /* \"--CODEGEN--\":1046:1048   */\n    tag_55:\n        /* \"--CODEGEN--\":1157:1158   */\n      0x00\n        /* \"--CODEGEN--\":1146:1155   */\n      dup4\n        /* \"--CODEGEN--\":1142:1159   */\n      add\n        /* \"--CODEGEN--\":1129:1160   */\n      calldataload\n        /* \"--CODEGEN--\":1180:1198   */\n      0xffffffffffffffff\n        /* \"--CODEGEN--\":1172:1178   */\n      dup2\n        /* \"--CODEGEN--\":1169:1199   */\n      gt\n        /* \"--CODEGEN--\":1166:1168   */\n      iszero\n      tag_56\n      jumpi\n        /* \"--CODEGEN--\":1212:1213   */\n      0x00\n        /* \"--CODEGEN--\":1209:1210   */\n      dup1\n        /* \"--CODEGEN--\":1202:1214   */\n      revert\n        /* \"--CODEGEN--\":1166:1168   */\n    tag_56:\n        /* \"--CODEGEN--\":1232:1295   */\n      tag_57\n        /* \"--CODEGEN--\":1287:1294   */\n      dup6\n        /* \"--CODEGEN--\":1278:1284   */\n      dup3\n        /* \"--CODEGEN--\":1267:1276   */\n      dup7\n        /* \"--CODEGEN--\":1263:1285   */\n      add\n        /* \"--CODEGEN--\":1232:1295   */\n      jump(tag_36)\n    tag_57:\n        /* \"--CODEGEN--\":1222:1295   */\n      swap3\n      pop\n        /* \"--CODEGEN--\":1108:1301   */\n      pop\n        /* \"--CODEGEN--\":1332:1334   */\n      0x20\n        /* \"--CODEGEN--\":1350:1403   */\n      tag_58\n        /* \"--CODEGEN--\":1395:1402   */\n      dup6\n        /* \"--CODEGEN--\":1386:1392   */\n      dup3\n        /* \"--CODEGEN--\":1375:1384   */\n      dup7\n        /* \"--CODEGEN--\":1371:1393   */\n      add\n        /* \"--CODEGEN--\":1350:1403   */\n      jump(tag_46)\n    tag_58:\n        /* \"--CODEGEN--\":1340:1403   */\n      swap2\n      pop\n        /* \"--CODEGEN--\":1311:1409   */\n      pop\n        /* \"--CODEGEN--\":1040:1419   */\n      swap3\n      pop\n      swap3\n      swap1\n      pop\n      jump\n        /* \"--CODEGEN--\":1426:1786   */\n    tag_59:\n      0x00\n        /* \"--CODEGEN--\":1556:1595   */\n      tag_61\n        /* \"--CODEGEN--\":1589:1594   */\n      dup3\n        /* \"--CODEGEN--\":1556:1595   */\n      jump(tag_62)\n    tag_61:\n        /* \"--CODEGEN--\":1607:1696   */\n      tag_63\n        /* \"--CODEGEN--\":1689:1695   */\n      dup2\n        /* \"--CODEGEN--\":1684:1687   */\n      dup6\n        /* \"--CODEGEN--\":1607:1696   */\n      jump(tag_64)\n    tag_63:\n        /* \"--CODEGEN--\":1600:1696   */\n      swap4\n      pop\n        /* \"--CODEGEN--\":1701:1753   */\n      tag_65\n        /* \"--CODEGEN--\":1746:1752   */\n      dup2\n        /* \"--CODEGEN--\":1741:1744   */\n      dup6\n        /* \"--CODEGEN--\":1734:1738   */\n      0x20\n        /* \"--CODEGEN--\":1727:1732   */\n      dup7\n        /* \"--CODEGEN--\":1723:1739   */\n      add\n        /* \"--CODEGEN--\":1701:1753   */\n      jump(tag_66)\n    tag_65:\n        /* \"--CODEGEN--\":1774:1780   */\n      dup1\n        /* \"--CODEGEN--\":1769:1772   */\n      dup5\n        /* \"--CODEGEN--\":1765:1781   */\n      add\n        /* \"--CODEGEN--\":1758:1781   */\n      swap2\n      pop\n        /* \"--CODEGEN--\":1536:1786   */\n      pop\n      swap3\n      swap2\n      pop\n      pop\n      jump\n        /* \"--CODEGEN--\":1793:2059   */\n    tag_21:\n      0x00\n        /* \"--CODEGEN--\":1939:2034   */\n      tag_68\n        /* \"--CODEGEN--\":2030:2033   */\n      dup3\n        /* \"--CODEGEN--\":2021:2027   */\n      dup5\n        /* \"--CODEGEN--\":1939:2034   */\n      jump(tag_59)\n    tag_68:\n        /* \"--CODEGEN--\":1932:2034   */\n      swap2\n      pop\n        /* \"--CODEGEN--\":2051:2054   */\n      dup2\n        /* \"--CODEGEN--\":2044:2054   */\n      swap1\n      pop\n        /* \"--CODEGEN--\":1920:2059   */\n      swap3\n      swap2\n      pop\n      pop\n      jump\n        /* \"--CODEGEN--\":2066:2322   */\n    tag_42:\n      0x00\n        /* \"--CODEGEN--\":2128:2130   */\n      0x40\n        /* \"--CODEGEN--\":2122:2131   */\n      mload\n        /* \"--CODEGEN--\":2112:2131   */\n      swap1\n      pop\n        /* \"--CODEGEN--\":2166:2170   */\n      dup2\n        /* \"--CODEGEN--\":2158:2164   */\n      dup2\n        /* \"--CODEGEN--\":2154:2171   */\n      add\n        /* \"--CODEGEN--\":2265:2271   */\n      dup2\n        /* \"--CODEGEN--\":2253:2263   */\n      dup2\n        /* \"--CODEGEN--\":2250:2272   */\n      lt\n        /* \"--CODEGEN--\":2229:2247   */\n      0xffffffffffffffff\n        /* \"--CODEGEN--\":2217:2227   */\n      dup3\n        /* \"--CODEGEN--\":2214:2248   */\n      gt\n        /* \"--CODEGEN--\":2211:2273   */\n      or\n        /* \"--CODEGEN--\":2208:2210   */\n      iszero\n      tag_70\n      jumpi\n        /* \"--CODEGEN--\":2286:2287   */\n      0x00\n        /* \"--CODEGEN--\":2283:2284   */\n      dup1\n        /* \"--CODEGEN--\":2276:2288   */\n      revert\n        /* \"--CODEGEN--\":2208:2210   */\n    tag_70:\n        /* \"--CODEGEN--\":2306:2316   */\n      dup1\n        /* \"--CODEGEN--\":2302:2304   */\n      0x40\n        /* \"--CODEGEN--\":2295:2317   */\n      mstore\n        /* \"--CODEGEN--\":2106:2322   */\n      pop\n      swap2\n      swap1\n      pop\n      jump\n        /* \"--CODEGEN--\":2329:2651   */\n    tag_41:\n      0x00\n        /* \"--CODEGEN--\":2473:2491   */\n      0xffffffffffffffff\n        /* \"--CODEGEN--\":2465:2471   */\n      dup3\n        /* \"--CODEGEN--\":2462:2492   */\n      gt\n        /* \"--CODEGEN--\":2459:2461   */\n      iszero\n      tag_72\n      jumpi\n        /* \"--CODEGEN--\":2505:2506   */\n      0x00\n        /* \"--CODEGEN--\":2502:2503   */\n      dup1\n        /* \"--CODEGEN--\":2495:2507   */\n      revert\n        /* \"--CODEGEN--\":2459:2461   */\n    tag_72:\n        /* \"--CODEGEN--\":2572:2576   */\n      0x1f\n        /* \"--CODEGEN--\":2568:2577   */\n      not\n        /* \"--CODEGEN--\":2561:2565   */\n      0x1f\n        /* \"--CODEGEN--\":2553:2559   */\n      dup4\n        /* \"--CODEGEN--\":2549:2566   */\n      add\n        /* \"--CODEGEN--\":2545:2578   */\n      and\n        /* \"--CODEGEN--\":2537:2578   */\n      swap1\n      pop\n        /* \"--CODEGEN--\":2636:2640   */\n      0x20\n        /* \"--CODEGEN--\":2630:2634   */\n      dup2\n        /* \"--CODEGEN--\":2626:2641   */\n      add\n        /* \"--CODEGEN--\":2618:2641   */\n      swap1\n      pop\n        /* \"--CODEGEN--\":2396:2651   */\n      swap2\n      swap1\n      pop\n      jump\n        /* \"--CODEGEN--\":2658:2780   */\n    tag_62:\n      0x00\n        /* \"--CODEGEN--\":2752:2757   */\n      dup2\n        /* \"--CODEGEN--\":2746:2758   */\n      mload\n        /* \"--CODEGEN--\":2736:2758   */\n      swap1\n      pop\n        /* \"--CODEGEN--\":2717:2780   */\n      swap2\n      swap1\n      pop\n      jump\n        /* \"--CODEGEN--\":2788:2933   */\n    tag_64:\n      0x00\n        /* \"--CODEGEN--\":2924:2927   */\n      dup2\n        /* \"--CODEGEN--\":2909:2927   */\n      swap1\n      pop\n        /* \"--CODEGEN--\":2902:2933   */\n      swap3\n      swap2\n      pop\n      pop\n      jump\n        /* \"--CODEGEN--\":2941:3013   */\n    tag_75:\n      0x00\n        /* \"--CODEGEN--\":3003:3008   */\n      dup2\n        /* \"--CODEGEN--\":2992:3008   */\n      swap1\n      pop\n        /* \"--CODEGEN--\":2986:3013   */\n      swap2\n      swap1\n      pop\n      jump\n        /* \"--CODEGEN--\":3021:3166   */\n    tag_45:\n        /* \"--CODEGEN--\":3102:3108   */\n      dup3\n        /* \"--CODEGEN--\":3097:3100   */\n      dup2\n        /* \"--CODEGEN--\":3092:3095   */\n      dup4\n        /* \"--CODEGEN--\":3079:3109   */\n      calldatacopy\n        /* \"--CODEGEN--\":3158:3159   */\n      0x00\n        /* \"--CODEGEN--\":3149:3155   */\n      dup4\n        /* \"--CODEGEN--\":3144:3147   */\n      dup4\n        /* \"--CODEGEN--\":3140:3156   */\n      add\n        /* \"--CODEGEN--\":3133:3160   */\n      mstore\n        /* \"--CODEGEN--\":3072:3166   */\n      pop\n      pop\n      pop\n      jump\n        /* \"--CODEGEN--\":3175:3443   */\n    tag_66:\n        /* \"--CODEGEN--\":3240:3241   */\n      0x00\n        /* \"--CODEGEN--\":3247:3348   */\n    tag_79:\n        /* \"--CODEGEN--\":3261:3267   */\n      dup4\n        /* \"--CODEGEN--\":3258:3259   */\n      dup2\n        /* \"--CODEGEN--\":3255:3268   */\n      lt\n        /* \"--CODEGEN--\":3247:3348   */\n      iszero\n      tag_81\n      jumpi\n        /* \"--CODEGEN--\":3337:3338   */\n      dup1\n        /* \"--CODEGEN--\":3332:3335   */\n      dup3\n        /* \"--CODEGEN--\":3328:3339   */\n      add\n        /* \"--CODEGEN--\":3322:3340   */\n      mload\n        /* \"--CODEGEN--\":3318:3319   */\n      dup2\n        /* \"--CODEGEN--\":3313:3316   */\n      dup5\n        /* \"--CODEGEN--\":3309:3320   */\n      add\n        /* \"--CODEGEN--\":3302:3341   */\n      mstore\n        /* \"--CODEGEN--\":3283:3285   */\n      0x20\n        /* \"--CODEGEN--\":3280:3281   */\n      dup2\n        /* \"--CODEGEN--\":3276:3286   */\n      add\n        /* \"--CODEGEN--\":3271:3286   */\n      swap1\n      pop\n        /* \"--CODEGEN--\":3247:3348   */\n      jump(tag_79)\n    tag_81:\n        /* \"--CODEGEN--\":3363:3369   */\n      dup4\n        /* \"--CODEGEN--\":3360:3361   */\n      dup2\n        /* \"--CODEGEN--\":3357:3370   */\n      gt\n        /* \"--CODEGEN--\":3354:3356   */\n      iszero\n      tag_82\n      jumpi\n        /* \"--CODEGEN--\":3428:3429   */\n      0x00\n        /* \"--CODEGEN--\":3419:3425   */\n      dup5\n        /* \"--CODEGEN--\":3414:3417   */\n      dup5\n        /* \"--CODEGEN--\":3410:3426   */\n      add\n        /* \"--CODEGEN--\":3403:3430   */\n      mstore\n        /* \"--CODEGEN--\":3354:3356   */\n    tag_82:\n        /* \"--CODEGEN--\":3224:3443   */\n      pop\n      pop\n      pop\n      pop\n      jump\n        /* \"--CODEGEN--\":3451:3568   */\n    tag_49:\n        /* \"--CODEGEN--\":3520:3544   */\n      tag_84\n        /* \"--CODEGEN--\":3538:3543   */\n      dup2\n        /* \"--CODEGEN--\":3520:3544   */\n      jump(tag_75)\n    tag_84:\n        /* \"--CODEGEN--\":3513:3518   */\n      dup2\n        /* \"--CODEGEN--\":3510:3545   */\n      eq\n        /* \"--CODEGEN--\":3500:3502   */\n      tag_85\n      jumpi\n        /* \"--CODEGEN--\":3559:3560   */\n      0x00\n        /* \"--CODEGEN--\":3556:3557   */\n      dup1\n        /* \"--CODEGEN--\":3549:3561   */\n      revert\n        /* \"--CODEGEN--\":3500:3502   */\n    tag_85:\n        /* \"--CODEGEN--\":3494:3568   */\n      pop\n      jump\n\n    auxdata: 0xa26469706673582212206e77486aa372601e0629e93e723e27138ae95a3488ef2cee9ee02578b15bee4864736f6c63430006000033\n}\n",
				"bytecode": {
					"linkReferences": {},
					"object": "608060405234801561001057600080fd5b50610490806100206000396000f3fe608060405234801561001057600080fd5b50600436106100415760003560e01c8063084f9c3714610046578063276a05bf1461006257806350eacac21461007e575b600080fd5b610060600480360361005b91908101906102ab565b61009a565b005b61007c600480360361007791908101906102ec565b6100a6565b005b610098600480360361009391908101906102ab565b6100d9565b005b6100a3816100d9565b50565b806000836040516100b79190610371565b9081526020016040518091039020600201600082825401925050819055505050565b60405180606001604052808281526020013373ffffffffffffffffffffffffffffffffffffffff168152602001600081525060008260405161011b9190610371565b9081526020016040518091039020600082015181600001908051906020019061014592919061019d565b5060208201518160010160006101000a81548173ffffffffffffffffffffffffffffffffffffffff021916908373ffffffffffffffffffffffffffffffffffffffff1602179055506040820151816002015590505050565b828054600181600116156101000203166002900490600052602060002090601f016020900481019282601f106101de57805160ff191683800117855561020c565b8280016001018555821561020c579182015b8281111561020b5782518255916020019190600101906101f0565b5b509050610219919061021d565b5090565b61023f91905b8082111561023b576000816000905550600101610223565b5090565b90565b600082601f83011261025357600080fd5b8135610266610261826103b5565b610388565b9150808252602083016020830185838301111561028257600080fd5b61028d838284610401565b50505092915050565b6000813590506102a581610443565b92915050565b6000602082840312156102bd57600080fd5b600082013567ffffffffffffffff8111156102d757600080fd5b6102e384828501610242565b91505092915050565b600080604083850312156102ff57600080fd5b600083013567ffffffffffffffff81111561031957600080fd5b61032585828601610242565b925050602061033685828601610296565b9150509250929050565b600061034b826103e1565b61035581856103ec565b9350610365818560208601610410565b80840191505092915050565b600061037d8284610340565b915081905092915050565b6000604051905081810181811067ffffffffffffffff821117156103ab57600080fd5b8060405250919050565b600067ffffffffffffffff8211156103cc57600080fd5b601f19601f8301169050602081019050919050565b600081519050919050565b600081905092915050565b6000819050919050565b82818337600083830152505050565b60005b8381101561042e578082015181840152602081019050610413565b8381111561043d576000848401525b50505050565b61044c816103f7565b811461045757600080fd5b5056fea26469706673582212206e77486aa372601e0629e93e723e27138ae95a3488ef2cee9ee02578b15bee4864736f6c63430006000033",
					"opcodes": "PUSH1 0x80 PUSH1 0x40 MSTORE CALLVALUE DUP1 ISZERO PUSH2 0x10 JUMPI PUSH1 0x0 DUP1 REVERT JUMPDEST POP PUSH2 0x490 DUP1 PUSH2 0x20 PUSH1 0x0 CODECOPY PUSH1 0x0 RETURN INVALID PUSH1 0x80 PUSH1 0x40 MSTORE CALLVALUE DUP1 ISZERO PUSH2 0x10 JUMPI PUSH1 0x0 DUP1 REVERT JUMPDEST POP PUSH1 0x4 CALLDATASIZE LT PUSH2 0x41 JUMPI PUSH1 0x0 CALLDATALOAD PUSH1 0xE0 SHR DUP1 PUSH4 0x84F9C37 EQ PUSH2 0x46 JUMPI DUP1 PUSH4 0x276A05BF EQ PUSH2 0x62 JUMPI DUP1 PUSH4 0x50EACAC2 EQ PUSH2 0x7E JUMPI JUMPDEST PUSH1 0x0 DUP1 REVERT JUMPDEST PUSH2 0x60 PUSH1 0x4 DUP1 CALLDATASIZE SUB PUSH2 0x5B SWAP2 SWAP1 DUP2 ADD SWAP1 PUSH2 0x2AB JUMP JUMPDEST PUSH2 0x9A JUMP JUMPDEST STOP JUMPDEST PUSH2 0x7C PUSH1 0x4 DUP1 CALLDATASIZE SUB PUSH2 0x77 SWAP2 SWAP1 DUP2 ADD SWAP1 PUSH2 0x2EC JUMP JUMPDEST PUSH2 0xA6 JUMP JUMPDEST STOP JUMPDEST PUSH2 0x98 PUSH1 0x4 DUP1 CALLDATASIZE SUB PUSH2 0x93 SWAP2 SWAP1 DUP2 ADD SWAP1 PUSH2 0x2AB JUMP JUMPDEST PUSH2 0xD9 JUMP JUMPDEST STOP JUMPDEST PUSH2 0xA3 DUP2 PUSH2 0xD9 JUMP JUMPDEST POP JUMP JUMPDEST DUP1 PUSH1 0x0 DUP4 PUSH1 0x40 MLOAD PUSH2 0xB7 SWAP2 SWAP1 PUSH2 0x371 JUMP JUMPDEST SWAP1 DUP2 MSTORE PUSH1 0x20 ADD PUSH1 0x40 MLOAD DUP1 SWAP2 SUB SWAP1 KECCAK256 PUSH1 0x2 ADD PUSH1 0x0 DUP3 DUP3 SLOAD ADD SWAP3 POP POP DUP2 SWAP1 SSTORE POP POP POP JUMP JUMPDEST PUSH1 0x40 MLOAD DUP1 PUSH1 0x60 ADD PUSH1 0x40 MSTORE DUP1 DUP3 DUP2 MSTORE PUSH1 0x20 ADD CALLER PUSH20 0xFFFFFFFFFFFFFFFFFFFFFFFFFFFFFFFFFFFFFFFF AND DUP2 MSTORE PUSH1 0x20 ADD PUSH1 0x0 DUP2 MSTORE POP PUSH1 0x0 DUP3 PUSH1 0x40 MLOAD PUSH2 0x11B SWAP2 SWAP1 PUSH2 0x371 JUMP JUMPDEST SWAP1 DUP2 MSTORE PUSH1 0x20 ADD PUSH1 0x40 MLOAD DUP1 SWAP2 SUB SWAP1 KECCAK256 PUSH1 0x0 DUP3 ADD MLOAD DUP2 PUSH1 0x0 ADD SWAP1 DUP1 MLOAD SWAP1 PUSH1 0x20 ADD SWAP1 PUSH2 0x145 SWAP3 SWAP2 SWAP1 PUSH2 0x19D JUMP JUMPDEST POP PUSH1 0x20 DUP3 ADD MLOAD DUP2 PUSH1 0x1 ADD PUSH1 0x0 PUSH2 0x100 EXP DUP2 SLOAD DUP2 PUSH20 0xFFFFFFFFFFFFFFFFFFFFFFFFFFFFFFFFFFFFFFFF MUL NOT AND SWAP1 DUP4 PUSH20 0xFFFFFFFFFFFFFFFFFFFFFFFFFFFFFFFFFFFFFFFF AND MUL OR SWAP1 SSTORE POP PUSH1 0x40 DUP3 ADD MLOAD DUP2 PUSH1 0x2 ADD SSTORE SWAP1 POP POP POP JUMP JUMPDEST DUP3 DUP1 SLOAD PUSH1 0x1 DUP2 PUSH1 0x1 AND ISZERO PUSH2 0x100 MUL SUB AND PUSH1 0x2 SWAP1 DIV SWAP1 PUSH1 0x0 MSTORE PUSH1 0x20 PUSH1 0x0 KECCAK256 SWAP1 PUSH1 0x1F ADD PUSH1 0x20 SWAP1 DIV DUP2 ADD SWAP3 DUP3 PUSH1 0x1F LT PUSH2 0x1DE JUMPI DUP1 MLOAD PUSH1 0xFF NOT AND DUP4 DUP1 ADD OR DUP6 SSTORE PUSH2 0x20C JUMP JUMPDEST DUP3 DUP1 ADD PUSH1 0x1 ADD DUP6 SSTORE DUP3 ISZERO PUSH2 0x20C JUMPI SWAP2 DUP3 ADD JUMPDEST DUP3 DUP2 GT ISZERO PUSH2 0x20B JUMPI DUP3 MLOAD DUP3 SSTORE SWAP2 PUSH1 0x20 ADD SWAP2 SWAP1 PUSH1 0x1 ADD SWAP1 PUSH2 0x1F0 JUMP JUMPDEST JUMPDEST POP SWAP1 POP PUSH2 0x219 SWAP2 SWAP1 PUSH2 0x21D JUMP JUMPDEST POP SWAP1 JUMP JUMPDEST PUSH2 0x23F SWAP2 SWAP1 JUMPDEST DUP1 DUP3 GT ISZERO PUSH2 0x23B JUMPI PUSH1 0x0 DUP2 PUSH1 0x0 SWAP1 SSTORE POP PUSH1 0x1 ADD PUSH2 0x223 JUMP JUMPDEST POP SWAP1 JUMP JUMPDEST SWAP1 JUMP JUMPDEST PUSH1 0x0 DUP3 PUSH1 0x1F DUP4 ADD SLT PUSH2 0x253 JUMPI PUSH1 0x0 DUP1 REVERT JUMPDEST DUP2 CALLDATALOAD PUSH2 0x266 PUSH2 0x261 DUP3 PUSH2 0x3B5 JUMP JUMPDEST PUSH2 0x388 JUMP JUMPDEST SWAP2 POP DUP1 DUP3 MSTORE PUSH1 0x20 DUP4 ADD PUSH1 0x20 DUP4 ADD DUP6 DUP4 DUP4 ADD GT ISZERO PUSH2 0x282 JUMPI PUSH1 0x0 DUP1 REVERT JUMPDEST PUSH2 0x28D DUP4 DUP3 DUP5 PUSH2 0x401 JUMP JUMPDEST POP POP POP SWAP3 SWAP2 POP POP JUMP JUMPDEST PUSH1 0x0 DUP2 CALLDATALOAD SWAP1 POP PUSH2 0x2A5 DUP2 PUSH2 0x443 JUMP JUMPDEST SWAP3 SWAP2 POP POP JUMP JUMPDEST PUSH1 0x0 PUSH1 0x20 DUP3 DUP5 SUB SLT ISZERO PUSH2 0x2BD JUMPI PUSH1 0x0 DUP1 REVERT JUMPDEST PUSH1 0x0 DUP3 ADD CALLDATALOAD PUSH8 0xFFFFFFFFFFFFFFFF DUP2 GT ISZERO PUSH2 0x2D7 JUMPI PUSH1 0x0 DUP1 REVERT JUMPDEST PUSH2 0x2E3 DUP5 DUP3 DUP6 ADD PUSH2 0x242 JUMP JUMPDEST SWAP2 POP POP SWAP3 SWAP2 POP POP JUMP JUMPDEST PUSH1 0x0 DUP1 PUSH1 0x40 DUP4 DUP6 SUB SLT ISZERO PUSH2 0x2FF JUMPI PUSH1 0x0 DUP1 REVERT JUMPDEST PUSH1 0x0 DUP4 ADD CALLDATALOAD PUSH8 0xFFFFFFFFFFFFFFFF DUP2 GT ISZERO PUSH2 0x319 JUMPI PUSH1 0x0 DUP1 REVERT JUMPDEST PUSH2 0x325 DUP6 DUP3 DUP7 ADD PUSH2 0x242 JUMP JUMPDEST SWAP3 POP POP PUSH1 0x20 PUSH2 0x336 DUP6 DUP3 DUP7 ADD PUSH2 0x296 JUMP JUMPDEST SWAP2 POP POP SWAP3 POP SWAP3 SWAP1 POP JUMP JUMPDEST PUSH1 0x0 PUSH2 0x34B DUP3 PUSH2 0x3E1 JUMP JUMPDEST PUSH2 0x355 DUP2 DUP6 PUSH2 0x3EC JUMP JUMPDEST SWAP4 POP PUSH2 0x365 DUP2 DUP6 PUSH1 0x20 DUP7 ADD PUSH2 0x410 JUMP JUMPDEST DUP1 DUP5 ADD SWAP2 POP POP SWAP3 SWAP2 POP POP JUMP JUMPDEST PUSH1 0x0 PUSH2 0x37D DUP3 DUP5 PUSH2 0x340 JUMP JUMPDEST SWAP2 POP DUP2 SWAP1 POP SWAP3 SWAP2 POP POP JUMP JUMPDEST PUSH1 0x0 PUSH1 0x40 MLOAD SWAP1 POP DUP2 DUP2 ADD DUP2 DUP2 LT PUSH8 0xFFFFFFFFFFFFFFFF DUP3 GT OR ISZERO PUSH2 0x3AB JUMPI PUSH1 0x0 DUP1 REVERT JUMPDEST DUP1 PUSH1 0x40 MSTORE POP SWAP2 SWAP1 POP JUMP JUMPDEST PUSH1 0x0 PUSH8 0xFFFFFFFFFFFFFFFF DUP3 GT ISZERO PUSH2 0x3CC JUMPI PUSH1 0x0 DUP1 REVERT JUMPDEST PUSH1 0x1F NOT PUSH1 0x1F DUP4 ADD AND SWAP1 POP PUSH1 0x20 DUP2 ADD SWAP1 POP SWAP2 SWAP1 POP JUMP JUMPDEST PUSH1 0x0 DUP2 MLOAD SWAP1 POP SWAP2 SWAP1 POP JUMP JUMPDEST PUSH1 0x0 DUP2 SWAP1 POP SWAP3 SWAP2 POP POP JUMP JUMPDEST PUSH1 0x0 DUP2 SWAP1 POP SWAP2 SWAP1 POP JUMP JUMPDEST DUP3 DUP2 DUP4 CALLDATACOPY PUSH1 0x0 DUP4 DUP4 ADD MSTORE POP POP POP JUMP JUMPDEST PUSH1 0x0 JUMPDEST DUP4 DUP2 LT ISZERO PUSH2 0x42E JUMPI DUP1 DUP3 ADD MLOAD DUP2 DUP5 ADD MSTORE PUSH1 0x20 DUP2 ADD SWAP1 POP PUSH2 0x413 JUMP JUMPDEST DUP4 DUP2 GT ISZERO PUSH2 0x43D JUMPI PUSH1 0x0 DUP5 DUP5 ADD MSTORE JUMPDEST POP POP POP POP JUMP JUMPDEST PUSH2 0x44C DUP2 PUSH2 0x3F7 JUMP JUMPDEST DUP2 EQ PUSH2 0x457 JUMPI PUSH1 0x0 DUP1 REVERT JUMPDEST POP JUMP INVALID LOG2 PUSH5 0x6970667358 0x22 SLT KECCAK256 PUSH15 0x77486AA372601E0629E93E723E2713 DUP11 0xE9 GAS CALLVALUE DUP9 0xEF 0x2C 0xEE SWAP15 0xE0 0x25 PUSH25 0xB15BEE4864736F6C6343000600003300000000000000000000 "
				},
				"gasEstimates": {
					"creation": {
						"codeDepositCost": "233600",
						"executionCost": "275",
						"totalCost": "233875"
					},
					"external": {
						"altaCliente(string)": "infinite",
						"crearCliente(string)": "infinite",
						"ingresarDinero(string,uint256)": "infinite"
					}
				},
				"methodIdentifiers": {
					"altaCliente(string)": "084f9c37",
					"crearCliente(string)": "50eacac2",
					"ingresarDinero(string,uint256)": "276a05bf"
				}
			},
			"storageLayout": {
				"storage": [
					{
						"astId": 13,
						"contract": "Interactuar con varios SC/herencia.sol:Cliente",
						"label": "clientes",
						"offset": 0,
						"slot": "0",
						"type": "t_mapping(t_string_memory,t_struct(cliente)9_storage)"
					}
				],
				"types": {
					"t_address": {
						"encoding": "inplace",
						"label": "address",
						"numberOfBytes": "20"
					},
					"t_mapping(t_string_memory,t_struct(cliente)9_storage)": {
						"encoding": "mapping",
						"key": "t_string_memory",
						"label": "mapping(string => struct Banco.cliente)",
						"numberOfBytes": "32",
						"value": "t_struct(cliente)9_storage"
					},
					"t_string_memory": {
						"encoding": "bytes",
						"label": "string",
						"numberOfBytes": "32"
					},
					"t_string_storage": {
						"encoding": "bytes",
						"label": "string",
						"numberOfBytes": "32"
					},
					"t_struct(cliente)9_storage": {
						"encoding": "inplace",
						"label": "struct Banco.cliente",
						"members": [
							{
								"astId": 4,
								"contract": "Interactuar con varios SC/herencia.sol:Cliente",
								"label": "_nombre",
								"offset": 0,
								"slot": "0",
								"type": "t_string_storage"
							},
							{
								"astId": 6,
								"contract": "Interactuar con varios SC/herencia.sol:Cliente",
								"label": "drieccion",
								"offset": 0,
								"slot": "1",
								"type": "t_address"
							},
							{
								"astId": 8,
								"contract": "Interactuar con varios SC/herencia.sol:Cliente",
								"label": "dinero",
								"offset": 0,
								"slot": "2",
								"type": "t_uint256"
							}
						],
						"numberOfBytes": "96"
					},
					"t_uint256": {
						"encoding": "inplace",
						"label": "uint256",
						"numberOfBytes": "32"
					}
				}
			},
			"userdoc": {
				"methods": {}
			}
		}
	}
}