{
	"Interactuar con varios SC/herencia.sol": {
		"Banco": {
			"abi": [
				{
					"inputs": [
						{
							"internalType": "string",
							"name": "_nombre",
							"type": "string"
						}
					],
					"name": "crearCliente",
					"outputs": [],
					"stateMutability": "nonpayable",
					"type": "function"
				}
			],
			"devdoc": {
				"methods": {}
			},
			"evm": {
				"assembly": "    /* \"Interactuar con varios SC/herencia.sol\":62:362  contract Banco{\r... */\n  mstore(0x40, 0x80)\n  callvalue\n    /* \"--CODEGEN--\":8:17   */\n  dup1\n    /* \"--CODEGEN--\":5:7   */\n  iszero\n  tag_1\n  jumpi\n    /* \"--CODEGEN--\":30:31   */\n  0x00\n    /* \"--CODEGEN--\":27:28   */\n  dup1\n    /* \"--CODEGEN--\":20:32   */\n  revert\n    /* \"--CODEGEN--\":5:7   */\ntag_1:\n    /* \"Interactuar con varios SC/herencia.sol\":62:362  contract Banco{\r... */\n  pop\n  dataSize(sub_0)\n  dup1\n  dataOffset(sub_0)\n  0x00\n  codecopy\n  0x00\n  return\nstop\n\nsub_0: assembly {\n        /* \"Interactuar con varios SC/herencia.sol\":62:362  contract Banco{\r... */\n      mstore(0x40, 0x80)\n      callvalue\n        /* \"--CODEGEN--\":8:17   */\n      dup1\n        /* \"--CODEGEN--\":5:7   */\n      iszero\n      tag_1\n      jumpi\n        /* \"--CODEGEN--\":30:31   */\n      0x00\n        /* \"--CODEGEN--\":27:28   */\n      dup1\n        /* \"--CODEGEN--\":20:32   */\n      revert\n        /* \"--CODEGEN--\":5:7   */\n    tag_1:\n        /* \"Interactuar con varios SC/herencia.sol\":62:362  contract Banco{\r... */\n      pop\n      jumpi(tag_2, lt(calldatasize, 0x04))\n      shr(0xe0, calldataload(0x00))\n      dup1\n      0x50eacac2\n      eq\n      tag_3\n      jumpi\n    tag_2:\n      0x00\n      dup1\n      revert\n        /* \"Interactuar con varios SC/herencia.sol\":235:357  function crearCliente(string memory _nombre) public {\r... */\n    tag_3:\n      tag_4\n      0x04\n      dup1\n      calldatasize\n      sub\n      tag_5\n      swap2\n      swap1\n      dup2\n      add\n      swap1\n      jump(tag_6)\n    tag_5:\n      tag_7\n      jump\t// in\n    tag_4:\n      stop\n    tag_7:\n        /* \"Interactuar con varios SC/herencia.sol\":318:349  cliente(_nombre, msg.sender, 0) */\n      mload(0x40)\n      dup1\n      0x60\n      add\n      0x40\n      mstore\n      dup1\n        /* \"Interactuar con varios SC/herencia.sol\":326:333  _nombre */\n      dup3\n        /* \"Interactuar con varios SC/herencia.sol\":318:349  cliente(_nombre, msg.sender, 0) */\n      dup2\n      mstore\n      0x20\n      add\n        /* \"Interactuar con varios SC/herencia.sol\":335:345  msg.sender */\n      caller\n        /* \"Interactuar con varios SC/herencia.sol\":318:349  cliente(_nombre, msg.sender, 0) */\n      0xffffffffffffffffffffffffffffffffffffffff\n      and\n      dup2\n      mstore\n      0x20\n      add\n        /* \"Interactuar con varios SC/herencia.sol\":347:348  0 */\n      0x00\n        /* \"Interactuar con varios SC/herencia.sol\":318:349  cliente(_nombre, msg.sender, 0) */\n      dup2\n      mstore\n      pop\n        /* \"Interactuar con varios SC/herencia.sol\":298:306  clientes */\n      0x00\n        /* \"Interactuar con varios SC/herencia.sol\":307:314  _nombre */\n      dup3\n        /* \"Interactuar con varios SC/herencia.sol\":298:315  clientes[_nombre] */\n      mload(0x40)\n      tag_9\n      swap2\n      swap1\n      jump(tag_10)\n    tag_9:\n      swap1\n      dup2\n      mstore\n      0x20\n      add\n      mload(0x40)\n      dup1\n      swap2\n      sub\n      swap1\n      keccak256\n        /* \"Interactuar con varios SC/herencia.sol\":298:349  clientes[_nombre] = cliente(_nombre, msg.sender, 0) */\n      0x00\n      dup3\n      add\n      mload\n      dup2\n      0x00\n      add\n      swap1\n      dup1\n      mload\n      swap1\n      0x20\n      add\n      swap1\n      tag_11\n      swap3\n      swap2\n      swap1\n      tag_12\n      jump\t// in\n    tag_11:\n      pop\n      0x20\n      dup3\n      add\n      mload\n      dup2\n      0x01\n      add\n      exp(0x0100, 0x00)\n      dup2\n      sload\n      dup2\n      0xffffffffffffffffffffffffffffffffffffffff\n      mul\n      not\n      and\n      swap1\n      dup4\n      0xffffffffffffffffffffffffffffffffffffffff\n      and\n      mul\n      or\n      swap1\n      sstore\n      pop\n      0x40\n      dup3\n      add\n      mload\n      dup2\n      0x02\n      add\n      sstore\n      swap1\n      pop\n      pop\n        /* \"Interactuar con varios SC/herencia.sol\":235:357  function crearCliente(string memory _nombre) public {\r... */\n      pop\n      jump\t// out\n        /* \"Interactuar con varios SC/herencia.sol\":62:362  contract Banco{\r... */\n    tag_12:\n      dup3\n      dup1\n      sload\n      0x01\n      dup2\n      0x01\n      and\n      iszero\n      0x0100\n      mul\n      sub\n      and\n      0x02\n      swap1\n      div\n      swap1\n      0x00\n      mstore\n      keccak256(0x00, 0x20)\n      swap1\n      0x1f\n      add\n      0x20\n      swap1\n      div\n      dup2\n      add\n      swap3\n      dup3\n      0x1f\n      lt\n      tag_14\n      jumpi\n      dup1\n      mload\n      not(0xff)\n      and\n      dup4\n      dup1\n      add\n      or\n      dup6\n      sstore\n      jump(tag_13)\n    tag_14:\n      dup3\n      dup1\n      add\n      0x01\n      add\n      dup6\n      sstore\n      dup3\n      iszero\n      tag_13\n      jumpi\n      swap2\n      dup3\n      add\n    tag_15:\n      dup3\n      dup2\n      gt\n      iszero\n      tag_16\n      jumpi\n      dup3\n      mload\n      dup3\n      sstore\n      swap2\n      0x20\n      add\n      swap2\n      swap1\n      0x01\n      add\n      swap1\n      jump(tag_15)\n    tag_16:\n    tag_13:\n      pop\n      swap1\n      pop\n      tag_17\n      swap2\n      swap1\n      tag_18\n      jump\t// in\n    tag_17:\n      pop\n      swap1\n      jump\t// out\n    tag_18:\n      tag_19\n      swap2\n      swap1\n    tag_20:\n      dup1\n      dup3\n      gt\n      iszero\n      tag_21\n      jumpi\n      0x00\n      dup2\n      0x00\n      swap1\n      sstore\n      pop\n      0x01\n      add\n      jump(tag_20)\n    tag_21:\n      pop\n      swap1\n      jump\n    tag_19:\n      swap1\n      jump\t// out\n        /* \"--CODEGEN--\":6:448   */\n    tag_23:\n      0x00\n        /* \"--CODEGEN--\":108:111   */\n      dup3\n        /* \"--CODEGEN--\":101:105   */\n      0x1f\n        /* \"--CODEGEN--\":93:99   */\n      dup4\n        /* \"--CODEGEN--\":89:106   */\n      add\n        /* \"--CODEGEN--\":85:112   */\n      slt\n        /* \"--CODEGEN--\":75:77   */\n      tag_25\n      jumpi\n        /* \"--CODEGEN--\":126:127   */\n      0x00\n        /* \"--CODEGEN--\":123:124   */\n      dup1\n        /* \"--CODEGEN--\":116:128   */\n      revert\n        /* \"--CODEGEN--\":75:77   */\n    tag_25:\n        /* \"--CODEGEN--\":163:169   */\n      dup2\n        /* \"--CODEGEN--\":150:170   */\n      calldataload\n        /* \"--CODEGEN--\":185:250   */\n      tag_26\n        /* \"--CODEGEN--\":200:249   */\n      tag_27\n        /* \"--CODEGEN--\":242:248   */\n      dup3\n        /* \"--CODEGEN--\":200:249   */\n      jump(tag_28)\n    tag_27:\n        /* \"--CODEGEN--\":185:250   */\n      jump(tag_29)\n    tag_26:\n        /* \"--CODEGEN--\":176:250   */\n      swap2\n      pop\n        /* \"--CODEGEN--\":270:276   */\n      dup1\n        /* \"--CODEGEN--\":263:268   */\n      dup3\n        /* \"--CODEGEN--\":256:277   */\n      mstore\n        /* \"--CODEGEN--\":306:310   */\n      0x20\n        /* \"--CODEGEN--\":298:304   */\n      dup4\n        /* \"--CODEGEN--\":294:311   */\n      add\n        /* \"--CODEGEN--\":339:343   */\n      0x20\n        /* \"--CODEGEN--\":332:337   */\n      dup4\n        /* \"--CODEGEN--\":328:344   */\n      add\n        /* \"--CODEGEN--\":374:377   */\n      dup6\n        /* \"--CODEGEN--\":365:371   */\n      dup4\n        /* \"--CODEGEN--\":360:363   */\n      dup4\n        /* \"--CODEGEN--\":356:372   */\n      add\n        /* \"--CODEGEN--\":353:378   */\n      gt\n        /* \"--CODEGEN--\":350:352   */\n      iszero\n      tag_30\n      jumpi\n        /* \"--CODEGEN--\":391:392   */\n      0x00\n        /* \"--CODEGEN--\":388:389   */\n      dup1\n        /* \"--CODEGEN--\":381:393   */\n      revert\n        /* \"--CODEGEN--\":350:352   */\n    tag_30:\n        /* \"--CODEGEN--\":401:442   */\n      tag_31\n        /* \"--CODEGEN--\":435:441   */\n      dup4\n        /* \"--CODEGEN--\":430:433   */\n      dup3\n        /* \"--CODEGEN--\":425:428   */\n      dup5\n        /* \"--CODEGEN--\":401:442   */\n      jump(tag_32)\n    tag_31:\n        /* \"--CODEGEN--\":68:448   */\n      pop\n      pop\n      pop\n      swap3\n      swap2\n      pop\n      pop\n      jump\n        /* \"--CODEGEN--\":456:803   */\n    tag_6:\n      0x00\n        /* \"--CODEGEN--\":570:572   */\n      0x20\n        /* \"--CODEGEN--\":558:567   */\n      dup3\n        /* \"--CODEGEN--\":549:556   */\n      dup5\n        /* \"--CODEGEN--\":545:568   */\n      sub\n        /* \"--CODEGEN--\":541:573   */\n      slt\n        /* \"--CODEGEN--\":538:540   */\n      iszero\n      tag_34\n      jumpi\n        /* \"--CODEGEN--\":586:587   */\n      0x00\n        /* \"--CODEGEN--\":583:584   */\n      dup1\n        /* \"--CODEGEN--\":576:588   */\n      revert\n        /* \"--CODEGEN--\":538:540   */\n    tag_34:\n        /* \"--CODEGEN--\":649:650   */\n      0x00\n        /* \"--CODEGEN--\":638:647   */\n      dup3\n        /* \"--CODEGEN--\":634:651   */\n      add\n        /* \"--CODEGEN--\":621:652   */\n      calldataload\n        /* \"--CODEGEN--\":672:690   */\n      0xffffffffffffffff\n        /* \"--CODEGEN--\":664:670   */\n      dup2\n        /* \"--CODEGEN--\":661:691   */\n      gt\n        /* \"--CODEGEN--\":658:660   */\n      iszero\n      tag_35\n      jumpi\n        /* \"--CODEGEN--\":704:705   */\n      0x00\n        /* \"--CODEGEN--\":701:702   */\n      dup1\n        /* \"--CODEGEN--\":694:706   */\n      revert\n        /* \"--CODEGEN--\":658:660   */\n    tag_35:\n        /* \"--CODEGEN--\":724:787   */\n      tag_36\n        /* \"--CODEGEN--\":779:786   */\n      dup5\n        /* \"--CODEGEN--\":770:776   */\n      dup3\n        /* \"--CODEGEN--\":759:768   */\n      dup6\n        /* \"--CODEGEN--\":755:777   */\n      add\n        /* \"--CODEGEN--\":724:787   */\n      jump(tag_23)\n    tag_36:\n        /* \"--CODEGEN--\":714:787   */\n      swap2\n      pop\n        /* \"--CODEGEN--\":600:793   */\n      pop\n        /* \"--CODEGEN--\":532:803   */\n      swap3\n      swap2\n      pop\n      pop\n      jump\n        /* \"--CODEGEN--\":810:1170   */\n    tag_37:\n      0x00\n        /* \"--CODEGEN--\":940:979   */\n      tag_39\n        /* \"--CODEGEN--\":973:978   */\n      dup3\n        /* \"--CODEGEN--\":940:979   */\n      jump(tag_40)\n    tag_39:\n        /* \"--CODEGEN--\":991:1080   */\n      tag_41\n        /* \"--CODEGEN--\":1073:1079   */\n      dup2\n        /* \"--CODEGEN--\":1068:1071   */\n      dup6\n        /* \"--CODEGEN--\":991:1080   */\n      jump(tag_42)\n    tag_41:\n        /* \"--CODEGEN--\":984:1080   */\n      swap4\n      pop\n        /* \"--CODEGEN--\":1085:1137   */\n      tag_43\n        /* \"--CODEGEN--\":1130:1136   */\n      dup2\n        /* \"--CODEGEN--\":1125:1128   */\n      dup6\n        /* \"--CODEGEN--\":1118:1122   */\n      0x20\n        /* \"--CODEGEN--\":1111:1116   */\n      dup7\n        /* \"--CODEGEN--\":1107:1123   */\n      add\n        /* \"--CODEGEN--\":1085:1137   */\n      jump(tag_44)\n    tag_43:\n        /* \"--CODEGEN--\":1158:1164   */\n      dup1\n        /* \"--CODEGEN--\":1153:1156   */\n      dup5\n        /* \"--CODEGEN--\":1149:1165   */\n      add\n        /* \"--CODEGEN--\":1142:1165   */\n      swap2\n      pop\n        /* \"--CODEGEN--\":920:1170   */\n      pop\n      swap3\n      swap2\n      pop\n      pop\n      jump\n        /* \"--CODEGEN--\":1177:1443   */\n    tag_10:\n      0x00\n        /* \"--CODEGEN--\":1323:1418   */\n      tag_46\n        /* \"--CODEGEN--\":1414:1417   */\n      dup3\n        /* \"--CODEGEN--\":1405:1411   */\n      dup5\n        /* \"--CODEGEN--\":1323:1418   */\n      jump(tag_37)\n    tag_46:\n        /* \"--CODEGEN--\":1316:1418   */\n      swap2\n      pop\n        /* \"--CODEGEN--\":1435:1438   */\n      dup2\n        /* \"--CODEGEN--\":1428:1438   */\n      swap1\n      pop\n        /* \"--CODEGEN--\":1304:1443   */\n      swap3\n      swap2\n      pop\n      pop\n      jump\n        /* \"--CODEGEN--\":1450:1706   */\n    tag_29:\n      0x00\n        /* \"--CODEGEN--\":1512:1514   */\n      0x40\n        /* \"--CODEGEN--\":1506:1515   */\n      mload\n        /* \"--CODEGEN--\":1496:1515   */\n      swap1\n      pop\n        /* \"--CODEGEN--\":1550:1554   */\n      dup2\n        /* \"--CODEGEN--\":1542:1548   */\n      dup2\n        /* \"--CODEGEN--\":1538:1555   */\n      add\n        /* \"--CODEGEN--\":1649:1655   */\n      dup2\n        /* \"--CODEGEN--\":1637:1647   */\n      dup2\n        /* \"--CODEGEN--\":1634:1656   */\n      lt\n        /* \"--CODEGEN--\":1613:1631   */\n      0xffffffffffffffff\n        /* \"--CODEGEN--\":1601:1611   */\n      dup3\n        /* \"--CODEGEN--\":1598:1632   */\n      gt\n        /* \"--CODEGEN--\":1595:1657   */\n      or\n        /* \"--CODEGEN--\":1592:1594   */\n      iszero\n      tag_48\n      jumpi\n        /* \"--CODEGEN--\":1670:1671   */\n      0x00\n        /* \"--CODEGEN--\":1667:1668   */\n      dup1\n        /* \"--CODEGEN--\":1660:1672   */\n      revert\n        /* \"--CODEGEN--\":1592:1594   */\n    tag_48:\n        /* \"--CODEGEN--\":1690:1700   */\n      dup1\n        /* \"--CODEGEN--\":1686:1688   */\n      0x40\n        /* \"--CODEGEN--\":1679:1701   */\n      mstore\n        /* \"--CODEGEN--\":1490:1706   */\n      pop\n      swap2\n      swap1\n      pop\n      jump\n        /* \"--CODEGEN--\":1713:2035   */\n    tag_28:\n      0x00\n        /* \"--CODEGEN--\":1857:1875   */\n      0xffffffffffffffff\n        /* \"--CODEGEN--\":1849:1855   */\n      dup3\n        /* \"--CODEGEN--\":1846:1876   */\n      gt\n        /* \"--CODEGEN--\":1843:1845   */\n      iszero\n      tag_50\n      jumpi\n        /* \"--CODEGEN--\":1889:1890   */\n      0x00\n        /* \"--CODEGEN--\":1886:1887   */\n      dup1\n        /* \"--CODEGEN--\":1879:1891   */\n      revert\n        /* \"--CODEGEN--\":1843:1845   */\n    tag_50:\n        /* \"--CODEGEN--\":1956:1960   */\n      0x1f\n        /* \"--CODEGEN--\":1952:1961   */\n      not\n        /* \"--CODEGEN--\":1945:1949   */\n      0x1f\n        /* \"--CODEGEN--\":1937:1943   */\n      dup4\n        /* \"--CODEGEN--\":1933:1950   */\n      add\n        /* \"--CODEGEN--\":1929:1962   */\n      and\n        /* \"--CODEGEN--\":1921:1962   */\n      swap1\n      pop\n        /* \"--CODEGEN--\":2020:2024   */\n      0x20\n        /* \"--CODEGEN--\":2014:2018   */\n      dup2\n        /* \"--CODEGEN--\":2010:2025   */\n      add\n        /* \"--CODEGEN--\":2002:2025   */\n      swap1\n      pop\n        /* \"--CODEGEN--\":1780:2035   */\n      swap2\n      swap1\n      pop\n      jump\n        /* \"--CODEGEN--\":2042:2164   */\n    tag_40:\n      0x00\n        /* \"--CODEGEN--\":2136:2141   */\n      dup2\n        /* \"--CODEGEN--\":2130:2142   */\n      mload\n        /* \"--CODEGEN--\":2120:2142   */\n      swap1\n      pop\n        /* \"--CODEGEN--\":2101:2164   */\n      swap2\n      swap1\n      pop\n      jump\n        /* \"--CODEGEN--\":2172:2317   */\n    tag_42:\n      0x00\n        /* \"--CODEGEN--\":2308:2311   */\n      dup2\n        /* \"--CODEGEN--\":2293:2311   */\n      swap1\n      pop\n        /* \"--CODEGEN--\":2286:2317   */\n      swap3\n      swap2\n      pop\n      pop\n      jump\n        /* \"--CODEGEN--\":2326:2471   */\n    tag_32:\n        /* \"--CODEGEN--\":2407:2413   */\n      dup3\n        /* \"--CODEGEN--\":2402:2405   */\n      dup2\n        /* \"--CODEGEN--\":2397:2400   */\n      dup4\n        /* \"--CODEGEN--\":2384:2414   */\n      calldatacopy\n        /* \"--CODEGEN--\":2463:2464   */\n      0x00\n        /* \"--CODEGEN--\":2454:2460   */\n      dup4\n        /* \"--CODEGEN--\":2449:2452   */\n      dup4\n        /* \"--CODEGEN--\":2445:2461   */\n      add\n        /* \"--CODEGEN--\":2438:2465   */\n      mstore\n        /* \"--CODEGEN--\":2377:2471   */\n      pop\n      pop\n      pop\n      jump\n        /* \"--CODEGEN--\":2480:2748   */\n    tag_44:\n        /* \"--CODEGEN--\":2545:2546   */\n      0x00\n        /* \"--CODEGEN--\":2552:2653   */\n    tag_55:\n        /* \"--CODEGEN--\":2566:2572   */\n      dup4\n        /* \"--CODEGEN--\":2563:2564   */\n      dup2\n        /* \"--CODEGEN--\":2560:2573   */\n      lt\n        /* \"--CODEGEN--\":2552:2653   */\n      iszero\n      tag_57\n      jumpi\n        /* \"--CODEGEN--\":2642:2643   */\n      dup1\n        /* \"--CODEGEN--\":2637:2640   */\n      dup3\n        /* \"--CODEGEN--\":2633:2644   */\n      add\n        /* \"--CODEGEN--\":2627:2645   */\n      mload\n        /* \"--CODEGEN--\":2623:2624   */\n      dup2\n        /* \"--CODEGEN--\":2618:2621   */\n      dup5\n        /* \"--CODEGEN--\":2614:2625   */\n      add\n        /* \"--CODEGEN--\":2607:2646   */\n      mstore\n        /* \"--CODEGEN--\":2588:2590   */\n      0x20\n        /* \"--CODEGEN--\":2585:2586   */\n      dup2\n        /* \"--CODEGEN--\":2581:2591   */\n      add\n        /* \"--CODEGEN--\":2576:2591   */\n      swap1\n      pop\n        /* \"--CODEGEN--\":2552:2653   */\n      jump(tag_55)\n    tag_57:\n        /* \"--CODEGEN--\":2668:2674   */\n      dup4\n        /* \"--CODEGEN--\":2665:2666   */\n      dup2\n        /* \"--CODEGEN--\":2662:2675   */\n      gt\n        /* \"--CODEGEN--\":2659:2661   */\n      iszero\n      tag_58\n      jumpi\n        /* \"--CODEGEN--\":2733:2734   */\n      0x00\n        /* \"--CODEGEN--\":2724:2730   */\n      dup5\n        /* \"--CODEGEN--\":2719:2722   */\n      dup5\n        /* \"--CODEGEN--\":2715:2731   */\n      add\n        /* \"--CODEGEN--\":2708:2735   */\n      mstore\n        /* \"--CODEGEN--\":2659:2661   */\n    tag_58:\n        /* \"--CODEGEN--\":2529:2748   */\n      pop\n      pop\n      pop\n      pop\n      jump\n\n    auxdata: 0xa26469706673582212205bb228e85d049bdca210d16bb938cf9e7bd247873bafce6be1cc4419b0d8ddbc64736f6c63430006000033\n}\n",
				"bytecode": {
					"linkReferences": {},
					"object": "608060405234801561001057600080fd5b50610379806100206000396000f3fe608060405234801561001057600080fd5b506004361061002b5760003560e01c806350eacac214610030575b600080fd5b61004a60048036036100459190810190610209565b61004c565b005b60405180606001604052808281526020013373ffffffffffffffffffffffffffffffffffffffff168152602001600081525060008260405161008e919061027b565b908152602001604051809103902060008201518160000190805190602001906100b8929190610110565b5060208201518160010160006101000a81548173ffffffffffffffffffffffffffffffffffffffff021916908373ffffffffffffffffffffffffffffffffffffffff1602179055506040820151816002015590505050565b828054600181600116156101000203166002900490600052602060002090601f016020900481019282601f1061015157805160ff191683800117855561017f565b8280016001018555821561017f579182015b8281111561017e578251825591602001919060010190610163565b5b50905061018c9190610190565b5090565b6101b291905b808211156101ae576000816000905550600101610196565b5090565b90565b600082601f8301126101c657600080fd5b81356101d96101d4826102bf565b610292565b915080825260208301602083018583830111156101f557600080fd5b610200838284610301565b50505092915050565b60006020828403121561021b57600080fd5b600082013567ffffffffffffffff81111561023557600080fd5b610241848285016101b5565b91505092915050565b6000610255826102eb565b61025f81856102f6565b935061026f818560208601610310565b80840191505092915050565b6000610287828461024a565b915081905092915050565b6000604051905081810181811067ffffffffffffffff821117156102b557600080fd5b8060405250919050565b600067ffffffffffffffff8211156102d657600080fd5b601f19601f8301169050602081019050919050565b600081519050919050565b600081905092915050565b82818337600083830152505050565b60005b8381101561032e578082015181840152602081019050610313565b8381111561033d576000848401525b5050505056fea26469706673582212205bb228e85d049bdca210d16bb938cf9e7bd247873bafce6be1cc4419b0d8ddbc64736f6c63430006000033",
					"opcodes": "PUSH1 0x80 PUSH1 0x40 MSTORE CALLVALUE DUP1 ISZERO PUSH2 0x10 JUMPI PUSH1 0x0 DUP1 REVERT JUMPDEST POP PUSH2 0x379 DUP1 PUSH2 0x20 PUSH1 0x0 CODECOPY PUSH1 0x0 RETURN INVALID PUSH1 0x80 PUSH1 0x40 MSTORE CALLVALUE DUP1 ISZERO PUSH2 0x10 JUMPI PUSH1 0x0 DUP1 REVERT JUMPDEST POP PUSH1 0x4 CALLDATASIZE LT PUSH2 0x2B JUMPI PUSH1 0x0 CALLDATALOAD PUSH1 0xE0 SHR DUP1 PUSH4 0x50EACAC2 EQ PUSH2 0x30 JUMPI JUMPDEST PUSH1 0x0 DUP1 REVERT JUMPDEST PUSH2 0x4A PUSH1 0x4 DUP1 CALLDATASIZE SUB PUSH2 0x45 SWAP2 SWAP1 DUP2 ADD SWAP1 PUSH2 0x209 JUMP JUMPDEST PUSH2 0x4C JUMP JUMPDEST STOP JUMPDEST PUSH1 0x40 MLOAD DUP1 PUSH1 0x60 ADD PUSH1 0x40 MSTORE DUP1 DUP3 DUP2 MSTORE PUSH1 0x20 ADD CALLER PUSH20 0xFFFFFFFFFFFFFFFFFFFFFFFFFFFFFFFFFFFFFFFF AND DUP2 MSTORE PUSH1 0x20 ADD PUSH1 0x0 DUP2 MSTORE POP PUSH1 0x0 DUP3 PUSH1 0x40 MLOAD PUSH2 0x8E SWAP2 SWAP1 PUSH2 0x27B JUMP JUMPDEST SWAP1 DUP2 MSTORE PUSH1 0x20 ADD PUSH1 0x40 MLOAD DUP1 SWAP2 SUB SWAP1 KECCAK256 PUSH1 0x0 DUP3 ADD MLOAD DUP2 PUSH1 0x0 ADD SWAP1 DUP1 MLOAD SWAP1 PUSH1 0x20 ADD SWAP1 PUSH2 0xB8 SWAP3 SWAP2 SWAP1 PUSH2 0x110 JUMP JUMPDEST POP PUSH1 0x20 DUP3 ADD MLOAD DUP2 PUSH1 0x1 ADD PUSH1 0x0 PUSH2 0x100 EXP DUP2 SLOAD DUP2 PUSH20 0xFFFFFFFFFFFFFFFFFFFFFFFFFFFFFFFFFFFFFFFF MUL NOT AND SWAP1 DUP4 PUSH20 0xFFFFFFFFFFFFFFFFFFFFFFFFFFFFFFFFFFFFFFFF AND MUL OR SWAP1 SSTORE POP PUSH1 0x40 DUP3 ADD MLOAD DUP2 PUSH1 0x2 ADD SSTORE SWAP1 POP POP POP JUMP JUMPDEST DUP3 DUP1 SLOAD PUSH1 0x1 DUP2 PUSH1 0x1 AND ISZERO PUSH2 0x100 MUL SUB AND PUSH1 0x2 SWAP1 DIV SWAP1 PUSH1 0x0 MSTORE PUSH1 0x20 PUSH1 0x0 KECCAK256 SWAP1 PUSH1 0x1F ADD PUSH1 0x20 SWAP1 DIV DUP2 ADD SWAP3 DUP3 PUSH1 0x1F LT PUSH2 0x151 JUMPI DUP1 MLOAD PUSH1 0xFF NOT AND DUP4 DUP1 ADD OR DUP6 SSTORE PUSH2 0x17F JUMP JUMPDEST DUP3 DUP1 ADD PUSH1 0x1 ADD DUP6 SSTORE DUP3 ISZERO PUSH2 0x17F JUMPI SWAP2 DUP3 ADD JUMPDEST DUP3 DUP2 GT ISZERO PUSH2 0x17E JUMPI DUP3 MLOAD DUP3 SSTORE SWAP2 PUSH1 0x20 ADD SWAP2 SWAP1 PUSH1 0x1 ADD SWAP1 PUSH2 0x163 JUMP JUMPDEST JUMPDEST POP SWAP1 POP PUSH2 0x18C SWAP2 SWAP1 PUSH2 0x190 JUMP JUMPDEST POP SWAP1 JUMP JUMPDEST PUSH2 0x1B2 SWAP2 SWAP1 JUMPDEST DUP1 DUP3 GT ISZERO PUSH2 0x1AE JUMPI PUSH1 0x0 DUP2 PUSH1 0x0 SWAP1 SSTORE POP PUSH1 0x1 ADD PUSH2 0x196 JUMP JUMPDEST POP SWAP1 JUMP JUMPDEST SWAP1 JUMP JUMPDEST PUSH1 0x0 DUP3 PUSH1 0x1F DUP4 ADD SLT PUSH2 0x1C6 JUMPI PUSH1 0x0 DUP1 REVERT JUMPDEST DUP2 CALLDATALOAD PUSH2 0x1D9 PUSH2 0x1D4 DUP3 PUSH2 0x2BF JUMP JUMPDEST PUSH2 0x292 JUMP JUMPDEST SWAP2 POP DUP1 DUP3 MSTORE PUSH1 0x20 DUP4 ADD PUSH1 0x20 DUP4 ADD DUP6 DUP4 DUP4 ADD GT ISZERO PUSH2 0x1F5 JUMPI PUSH1 0x0 DUP1 REVERT JUMPDEST PUSH2 0x200 DUP4 DUP3 DUP5 PUSH2 0x301 JUMP JUMPDEST POP POP POP SWAP3 SWAP2 POP POP JUMP JUMPDEST PUSH1 0x0 PUSH1 0x20 DUP3 DUP5 SUB SLT ISZERO PUSH2 0x21B JUMPI PUSH1 0x0 DUP1 REVERT JUMPDEST PUSH1 0x0 DUP3 ADD CALLDATALOAD PUSH8 0xFFFFFFFFFFFFFFFF DUP2 GT ISZERO PUSH2 0x235 JUMPI PUSH1 0x0 DUP1 REVERT JUMPDEST PUSH2 0x241 DUP5 DUP3 DUP6 ADD PUSH2 0x1B5 JUMP JUMPDEST SWAP2 POP POP SWAP3 SWAP2 POP POP JUMP JUMPDEST PUSH1 0x0 PUSH2 0x255 DUP3 PUSH2 0x2EB JUMP JUMPDEST PUSH2 0x25F DUP2 DUP6 PUSH2 0x2F6 JUMP JUMPDEST SWAP4 POP PUSH2 0x26F DUP2 DUP6 PUSH1 0x20 DUP7 ADD PUSH2 0x310 JUMP JUMPDEST DUP1 DUP5 ADD SWAP2 POP POP SWAP3 SWAP2 POP POP JUMP JUMPDEST PUSH1 0x0 PUSH2 0x287 DUP3 DUP5 PUSH2 0x24A JUMP JUMPDEST SWAP2 POP DUP2 SWAP1 POP SWAP3 SWAP2 POP POP JUMP JUMPDEST PUSH1 0x0 PUSH1 0x40 MLOAD SWAP1 POP DUP2 DUP2 ADD DUP2 DUP2 LT PUSH8 0xFFFFFFFFFFFFFFFF DUP3 GT OR ISZERO PUSH2 0x2B5 JUMPI PUSH1 0x0 DUP1 REVERT JUMPDEST DUP1 PUSH1 0x40 MSTORE POP SWAP2 SWAP1 POP JUMP JUMPDEST PUSH1 0x0 PUSH8 0xFFFFFFFFFFFFFFFF DUP3 GT ISZERO PUSH2 0x2D6 JUMPI PUSH1 0x0 DUP1 REVERT JUMPDEST PUSH1 0x1F NOT PUSH1 0x1F DUP4 ADD AND SWAP1 POP PUSH1 0x20 DUP2 ADD SWAP1 POP SWAP2 SWAP1 POP JUMP JUMPDEST PUSH1 0x0 DUP2 MLOAD SWAP1 POP SWAP2 SWAP1 POP JUMP JUMPDEST PUSH1 0x0 DUP2 SWAP1 POP SWAP3 SWAP2 POP POP JUMP JUMPDEST DUP3 DUP2 DUP4 CALLDATACOPY PUSH1 0x0 DUP4 DUP4 ADD MSTORE POP POP POP JUMP JUMPDEST PUSH1 0x0 JUMPDEST DUP4 DUP2 LT ISZERO PUSH2 0x32E JUMPI DUP1 DUP3 ADD MLOAD DUP2 DUP5 ADD MSTORE PUSH1 0x20 DUP2 ADD SWAP1 POP PUSH2 0x313 JUMP JUMPDEST DUP4 DUP2 GT ISZERO PUSH2 0x33D JUMPI PUSH1 0x0 DUP5 DUP5 ADD MSTORE JUMPDEST POP POP POP POP JUMP INVALID LOG2 PUSH5 0x6970667358 0x22 SLT KECCAK256 JUMPDEST 0xB2 0x28 0xE8 0x5D DIV SWAP12 0xDC LOG2 LT 0xD1 PUSH12 0xB938CF9E7BD247873BAFCE6B 0xE1 0xCC DIFFICULTY NOT 0xB0 0xD8 0xDD 0xBC PUSH5 0x736F6C6343 STOP MOD STOP STOP CALLER "
				},
				"gasEstimates": {
					"creation": {
						"codeDepositCost": "177800",
						"executionCost": "220",
						"totalCost": "178020"
					},
					"external": {
						"crearCliente(string)": "infinite"
					}
				},
				"methodIdentifiers": {
					"crearCliente(string)": "50eacac2"
				}
			},
			"storageLayout": {
				"storage": [
					{
						"astId": 13,
						"contract": "Interactuar con varios SC/herencia.sol:Banco",
						"label": "clientes",
						"offset": 0,
						"slot": "0",
						"type": "t_mapping(t_string_memory,t_struct(cliente)9_storage)"
					}
				],
				"types": {
					"t_address": {
						"encoding": "inplace",
						"label": "address",
						"numberOfBytes": "20"
					},
					"t_mapping(t_string_memory,t_struct(cliente)9_storage)": {
						"encoding": "mapping",
						"key": "t_string_memory",
						"label": "mapping(string => struct Banco.cliente)",
						"numberOfBytes": "32",
						"value": "t_struct(cliente)9_storage"
					},
					"t_string_memory": {
						"encoding": "bytes",
						"label": "string",
						"numberOfBytes": "32"
					},
					"t_string_storage": {
						"encoding": "bytes",
						"label": "string",
						"numberOfBytes": "32"
					},
					"t_struct(cliente)9_storage": {
						"encoding": "inplace",
						"label": "struct Banco.cliente",
						"members": [
							{
								"astId": 4,
								"contract": "Interactuar con varios SC/herencia.sol:Banco",
								"label": "_nombre",
								"offset": 0,
								"slot": "0",
								"type": "t_string_storage"
							},
							{
								"astId": 6,
								"contract": "Interactuar con varios SC/herencia.sol:Banco",
								"label": "drieccion",
								"offset": 0,
								"slot": "1",
								"type": "t_address"
							},
							{
								"astId": 8,
								"contract": "Interactuar con varios SC/herencia.sol:Banco",
								"label": "dinero",
								"offset": 0,
								"slot": "2",
								"type": "t_uint256"
							}
						],
						"numberOfBytes": "96"
					},
					"t_uint256": {
						"encoding": "inplace",
						"label": "uint256",
						"numberOfBytes": "32"
					}
				}
			},
			"userdoc": {
				"methods": {}
			}
		}
	}
}