{
	"Interactuar con varios SC/herencia.sol": {
		"Banco": {
			"abi": [
				{
					"inputs": [
						{
							"internalType": "string",
							"name": "",
							"type": "string"
						}
					],
					"name": "clientes",
					"outputs": [
						{
							"internalType": "string",
							"name": "_nombre",
							"type": "string"
						},
						{
							"internalType": "address",
							"name": "drieccion",
							"type": "address"
						},
						{
							"internalType": "uint256",
							"name": "dinero",
							"type": "uint256"
						}
					],
					"stateMutability": "view",
					"type": "function"
				},
				{
					"inputs": [
						{
							"internalType": "string",
							"name": "_nombre",
							"type": "string"
						}
					],
					"name": "crearCliente",
					"outputs": [],
					"stateMutability": "nonpayable",
					"type": "function"
				}
			],
			"devdoc": {
				"methods": {}
			},
			"evm": {
				"assembly": "    /* \"Interactuar con varios SC/herencia.sol\":62:369  contract Banco{\r... */\n  mstore(0x40, 0x80)\n  callvalue\n    /* \"--CODEGEN--\":8:17   */\n  dup1\n    /* \"--CODEGEN--\":5:7   */\n  iszero\n  tag_1\n  jumpi\n    /* \"--CODEGEN--\":30:31   */\n  0x00\n    /* \"--CODEGEN--\":27:28   */\n  dup1\n    /* \"--CODEGEN--\":20:32   */\n  revert\n    /* \"--CODEGEN--\":5:7   */\ntag_1:\n    /* \"Interactuar con varios SC/herencia.sol\":62:369  contract Banco{\r... */\n  pop\n  dataSize(sub_0)\n  dup1\n  dataOffset(sub_0)\n  0x00\n  codecopy\n  0x00\n  return\nstop\n\nsub_0: assembly {\n        /* \"Interactuar con varios SC/herencia.sol\":62:369  contract Banco{\r... */\n      mstore(0x40, 0x80)\n      callvalue\n        /* \"--CODEGEN--\":8:17   */\n      dup1\n        /* \"--CODEGEN--\":5:7   */\n      iszero\n      tag_1\n      jumpi\n        /* \"--CODEGEN--\":30:31   */\n      0x00\n        /* \"--CODEGEN--\":27:28   */\n      dup1\n        /* \"--CODEGEN--\":20:32   */\n      revert\n        /* \"--CODEGEN--\":5:7   */\n    tag_1:\n        /* \"Interactuar con varios SC/herencia.sol\":62:369  contract Banco{\r... */\n      pop\n      jumpi(tag_2, lt(calldatasize, 0x04))\n      shr(0xe0, calldataload(0x00))\n      dup1\n      0x50eacac2\n      eq\n      tag_3\n      jumpi\n      dup1\n      0xb8dac4b0\n      eq\n      tag_4\n      jumpi\n    tag_2:\n      0x00\n      dup1\n      revert\n        /* \"Interactuar con varios SC/herencia.sol\":242:364  function crearCliente(string memory _nombre) public {\r... */\n    tag_3:\n      tag_5\n      0x04\n      dup1\n      calldatasize\n      sub\n      tag_6\n      swap2\n      swap1\n      dup2\n      add\n      swap1\n      jump(tag_7)\n    tag_6:\n      tag_8\n      jump\t// in\n    tag_5:\n      stop\n        /* \"Interactuar con varios SC/herencia.sol\":190:233  mapping (string => cliente) public clientes */\n    tag_4:\n      tag_9\n      0x04\n      dup1\n      calldatasize\n      sub\n      tag_10\n      swap2\n      swap1\n      dup2\n      add\n      swap1\n      jump(tag_11)\n    tag_10:\n      tag_12\n      jump\t// in\n    tag_9:\n      mload(0x40)\n      tag_13\n      swap4\n      swap3\n      swap2\n      swap1\n      jump(tag_14)\n    tag_13:\n      mload(0x40)\n      dup1\n      swap2\n      sub\n      swap1\n      return\n        /* \"Interactuar con varios SC/herencia.sol\":242:364  function crearCliente(string memory _nombre) public {\r... */\n    tag_8:\n        /* \"Interactuar con varios SC/herencia.sol\":325:356  cliente(_nombre, msg.sender, 0) */\n      mload(0x40)\n      dup1\n      0x60\n      add\n      0x40\n      mstore\n      dup1\n        /* \"Interactuar con varios SC/herencia.sol\":333:340  _nombre */\n      dup3\n        /* \"Interactuar con varios SC/herencia.sol\":325:356  cliente(_nombre, msg.sender, 0) */\n      dup2\n      mstore\n      0x20\n      add\n        /* \"Interactuar con varios SC/herencia.sol\":342:352  msg.sender */\n      caller\n        /* \"Interactuar con varios SC/herencia.sol\":325:356  cliente(_nombre, msg.sender, 0) */\n      0xffffffffffffffffffffffffffffffffffffffff\n      and\n      dup2\n      mstore\n      0x20\n      add\n        /* \"Interactuar con varios SC/herencia.sol\":354:355  0 */\n      0x00\n        /* \"Interactuar con varios SC/herencia.sol\":325:356  cliente(_nombre, msg.sender, 0) */\n      dup2\n      mstore\n      pop\n        /* \"Interactuar con varios SC/herencia.sol\":305:313  clientes */\n      0x00\n        /* \"Interactuar con varios SC/herencia.sol\":314:321  _nombre */\n      dup3\n        /* \"Interactuar con varios SC/herencia.sol\":305:322  clientes[_nombre] */\n      mload(0x40)\n      tag_16\n      swap2\n      swap1\n      jump(tag_17)\n    tag_16:\n      swap1\n      dup2\n      mstore\n      0x20\n      add\n      mload(0x40)\n      dup1\n      swap2\n      sub\n      swap1\n      keccak256\n        /* \"Interactuar con varios SC/herencia.sol\":305:356  clientes[_nombre] = cliente(_nombre, msg.sender, 0) */\n      0x00\n      dup3\n      add\n      mload\n      dup2\n      0x00\n      add\n      swap1\n      dup1\n      mload\n      swap1\n      0x20\n      add\n      swap1\n      tag_18\n      swap3\n      swap2\n      swap1\n      tag_19\n      jump\t// in\n    tag_18:\n      pop\n      0x20\n      dup3\n      add\n      mload\n      dup2\n      0x01\n      add\n      exp(0x0100, 0x00)\n      dup2\n      sload\n      dup2\n      0xffffffffffffffffffffffffffffffffffffffff\n      mul\n      not\n      and\n      swap1\n      dup4\n      0xffffffffffffffffffffffffffffffffffffffff\n      and\n      mul\n      or\n      swap1\n      sstore\n      pop\n      0x40\n      dup3\n      add\n      mload\n      dup2\n      0x02\n      add\n      sstore\n      swap1\n      pop\n      pop\n        /* \"Interactuar con varios SC/herencia.sol\":242:364  function crearCliente(string memory _nombre) public {\r... */\n      pop\n      jump\t// out\n        /* \"Interactuar con varios SC/herencia.sol\":190:233  mapping (string => cliente) public clientes */\n    tag_12:\n      0x00\n      dup2\n        /* \"--CODEGEN--\":28:35   */\n      dup1\n        /* \"--CODEGEN--\":22:36   */\n      mload\n        /* \"--CODEGEN--\":169:173   */\n      0x20\n        /* \"--CODEGEN--\":160:167   */\n      dup2\n        /* \"--CODEGEN--\":156:174   */\n      add\n        /* \"--CODEGEN--\":147:154   */\n      dup3\n        /* \"--CODEGEN--\":143:175   */\n      add\n        /* \"--CODEGEN--\":204:217   */\n      dup1\n        /* \"--CODEGEN--\":198:218   */\n      mload\n        /* \"--CODEGEN--\":246:254   */\n      dup5\n        /* \"--CODEGEN--\":231:244   */\n      dup3\n        /* \"--CODEGEN--\":224:255   */\n      mstore\n        /* \"--CODEGEN--\":316:320   */\n      0x20\n        /* \"--CODEGEN--\":307:314   */\n      dup4\n        /* \"--CODEGEN--\":303:321   */\n      add\n        /* \"--CODEGEN--\":296:300   */\n      0x20\n        /* \"--CODEGEN--\":287:294   */\n      dup6\n        /* \"--CODEGEN--\":283:301   */\n      add\n        /* \"--CODEGEN--\":273:322   */\n      keccak256\n        /* \"--CODEGEN--\":350:359   */\n      dup2\n        /* \"--CODEGEN--\":335:348   */\n      dup4\n        /* \"--CODEGEN--\":328:360   */\n      mstore\n        /* \"--CODEGEN--\":378:382   */\n      dup1\n        /* \"--CODEGEN--\":366:382   */\n      swap6\n      pop\n        /* \"--CODEGEN--\":0:388   */\n      pop\n      pop\n      pop\n      pop\n        /* \"Interactuar con varios SC/herencia.sol\":190:233  mapping (string => cliente) public clientes */\n      pop\n      0x00\n      swap2\n      pop\n      swap1\n      pop\n      dup1\n      0x00\n      add\n      dup1\n      sload\n      0x01\n      dup2\n      0x01\n      and\n      iszero\n      0x0100\n      mul\n      sub\n      and\n      0x02\n      swap1\n      div\n      dup1\n      0x1f\n      add\n      0x20\n      dup1\n      swap2\n      div\n      mul\n      0x20\n      add\n      mload(0x40)\n      swap1\n      dup2\n      add\n      0x40\n      mstore\n      dup1\n      swap3\n      swap2\n      swap1\n      dup2\n      dup2\n      mstore\n      0x20\n      add\n      dup3\n      dup1\n      sload\n      0x01\n      dup2\n      0x01\n      and\n      iszero\n      0x0100\n      mul\n      sub\n      and\n      0x02\n      swap1\n      div\n      dup1\n      iszero\n      tag_20\n      jumpi\n      dup1\n      0x1f\n      lt\n      tag_21\n      jumpi\n      0x0100\n      dup1\n      dup4\n      sload\n      div\n      mul\n      dup4\n      mstore\n      swap2\n      0x20\n      add\n      swap2\n      jump(tag_20)\n    tag_21:\n      dup3\n      add\n      swap2\n      swap1\n      0x00\n      mstore\n      keccak256(0x00, 0x20)\n      swap1\n    tag_22:\n      dup2\n      sload\n      dup2\n      mstore\n      swap1\n      0x01\n      add\n      swap1\n      0x20\n      add\n      dup1\n      dup4\n      gt\n      tag_22\n      jumpi\n      dup3\n      swap1\n      sub\n      0x1f\n      and\n      dup3\n      add\n      swap2\n    tag_20:\n      pop\n      pop\n      pop\n      pop\n      pop\n      swap1\n      dup1\n      0x01\n      add\n      0x00\n      swap1\n      sload\n      swap1\n      0x0100\n      exp\n      swap1\n      div\n      0xffffffffffffffffffffffffffffffffffffffff\n      and\n      swap1\n      dup1\n      0x02\n      add\n      sload\n      swap1\n      pop\n      dup4\n      jump\t// out\n        /* \"Interactuar con varios SC/herencia.sol\":62:369  contract Banco{\r... */\n    tag_19:\n      dup3\n      dup1\n      sload\n      0x01\n      dup2\n      0x01\n      and\n      iszero\n      0x0100\n      mul\n      sub\n      and\n      0x02\n      swap1\n      div\n      swap1\n      0x00\n      mstore\n      keccak256(0x00, 0x20)\n      swap1\n      0x1f\n      add\n      0x20\n      swap1\n      div\n      dup2\n      add\n      swap3\n      dup3\n      0x1f\n      lt\n      tag_24\n      jumpi\n      dup1\n      mload\n      not(0xff)\n      and\n      dup4\n      dup1\n      add\n      or\n      dup6\n      sstore\n      jump(tag_23)\n    tag_24:\n      dup3\n      dup1\n      add\n      0x01\n      add\n      dup6\n      sstore\n      dup3\n      iszero\n      tag_23\n      jumpi\n      swap2\n      dup3\n      add\n    tag_25:\n      dup3\n      dup2\n      gt\n      iszero\n      tag_26\n      jumpi\n      dup3\n      mload\n      dup3\n      sstore\n      swap2\n      0x20\n      add\n      swap2\n      swap1\n      0x01\n      add\n      swap1\n      jump(tag_25)\n    tag_26:\n    tag_23:\n      pop\n      swap1\n      pop\n      tag_27\n      swap2\n      swap1\n      tag_28\n      jump\t// in\n    tag_27:\n      pop\n      swap1\n      jump\t// out\n    tag_28:\n      tag_29\n      swap2\n      swap1\n    tag_30:\n      dup1\n      dup3\n      gt\n      iszero\n      tag_31\n      jumpi\n      0x00\n      dup2\n      0x00\n      swap1\n      sstore\n      pop\n      0x01\n      add\n      jump(tag_30)\n    tag_31:\n      pop\n      swap1\n      jump\n    tag_29:\n      swap1\n      jump\t// out\n        /* \"--CODEGEN--\":6:440   */\n    tag_33:\n      0x00\n        /* \"--CODEGEN--\":104:107   */\n      dup3\n        /* \"--CODEGEN--\":97:101   */\n      0x1f\n        /* \"--CODEGEN--\":89:95   */\n      dup4\n        /* \"--CODEGEN--\":85:102   */\n      add\n        /* \"--CODEGEN--\":81:108   */\n      slt\n        /* \"--CODEGEN--\":71:73   */\n      tag_35\n      jumpi\n        /* \"--CODEGEN--\":122:123   */\n      0x00\n        /* \"--CODEGEN--\":119:120   */\n      dup1\n        /* \"--CODEGEN--\":112:124   */\n      revert\n        /* \"--CODEGEN--\":71:73   */\n    tag_35:\n        /* \"--CODEGEN--\":159:165   */\n      dup2\n        /* \"--CODEGEN--\":146:166   */\n      calldataload\n        /* \"--CODEGEN--\":181:242   */\n      tag_36\n        /* \"--CODEGEN--\":196:241   */\n      tag_37\n        /* \"--CODEGEN--\":234:240   */\n      dup3\n        /* \"--CODEGEN--\":196:241   */\n      jump(tag_38)\n    tag_37:\n        /* \"--CODEGEN--\":181:242   */\n      jump(tag_39)\n    tag_36:\n        /* \"--CODEGEN--\":172:242   */\n      swap2\n      pop\n        /* \"--CODEGEN--\":262:268   */\n      dup1\n        /* \"--CODEGEN--\":255:260   */\n      dup3\n        /* \"--CODEGEN--\":248:269   */\n      mstore\n        /* \"--CODEGEN--\":298:302   */\n      0x20\n        /* \"--CODEGEN--\":290:296   */\n      dup4\n        /* \"--CODEGEN--\":286:303   */\n      add\n        /* \"--CODEGEN--\":331:335   */\n      0x20\n        /* \"--CODEGEN--\":324:329   */\n      dup4\n        /* \"--CODEGEN--\":320:336   */\n      add\n        /* \"--CODEGEN--\":366:369   */\n      dup6\n        /* \"--CODEGEN--\":357:363   */\n      dup4\n        /* \"--CODEGEN--\":352:355   */\n      dup4\n        /* \"--CODEGEN--\":348:364   */\n      add\n        /* \"--CODEGEN--\":345:370   */\n      gt\n        /* \"--CODEGEN--\":342:344   */\n      iszero\n      tag_40\n      jumpi\n        /* \"--CODEGEN--\":383:384   */\n      0x00\n        /* \"--CODEGEN--\":380:381   */\n      dup1\n        /* \"--CODEGEN--\":373:385   */\n      revert\n        /* \"--CODEGEN--\":342:344   */\n    tag_40:\n        /* \"--CODEGEN--\":393:434   */\n      tag_41\n        /* \"--CODEGEN--\":427:433   */\n      dup4\n        /* \"--CODEGEN--\":422:425   */\n      dup3\n        /* \"--CODEGEN--\":417:420   */\n      dup5\n        /* \"--CODEGEN--\":393:434   */\n      jump(tag_42)\n    tag_41:\n        /* \"--CODEGEN--\":64:440   */\n      pop\n      pop\n      pop\n      swap3\n      swap2\n      pop\n      pop\n      jump\n        /* \"--CODEGEN--\":449:891   */\n    tag_43:\n      0x00\n        /* \"--CODEGEN--\":551:554   */\n      dup3\n        /* \"--CODEGEN--\":544:548   */\n      0x1f\n        /* \"--CODEGEN--\":536:542   */\n      dup4\n        /* \"--CODEGEN--\":532:549   */\n      add\n        /* \"--CODEGEN--\":528:555   */\n      slt\n        /* \"--CODEGEN--\":518:520   */\n      tag_45\n      jumpi\n        /* \"--CODEGEN--\":569:570   */\n      0x00\n        /* \"--CODEGEN--\":566:567   */\n      dup1\n        /* \"--CODEGEN--\":559:571   */\n      revert\n        /* \"--CODEGEN--\":518:520   */\n    tag_45:\n        /* \"--CODEGEN--\":606:612   */\n      dup2\n        /* \"--CODEGEN--\":593:613   */\n      calldataload\n        /* \"--CODEGEN--\":628:693   */\n      tag_46\n        /* \"--CODEGEN--\":643:692   */\n      tag_47\n        /* \"--CODEGEN--\":685:691   */\n      dup3\n        /* \"--CODEGEN--\":643:692   */\n      jump(tag_48)\n    tag_47:\n        /* \"--CODEGEN--\":628:693   */\n      jump(tag_39)\n    tag_46:\n        /* \"--CODEGEN--\":619:693   */\n      swap2\n      pop\n        /* \"--CODEGEN--\":713:719   */\n      dup1\n        /* \"--CODEGEN--\":706:711   */\n      dup3\n        /* \"--CODEGEN--\":699:720   */\n      mstore\n        /* \"--CODEGEN--\":749:753   */\n      0x20\n        /* \"--CODEGEN--\":741:747   */\n      dup4\n        /* \"--CODEGEN--\":737:754   */\n      add\n        /* \"--CODEGEN--\":782:786   */\n      0x20\n        /* \"--CODEGEN--\":775:780   */\n      dup4\n        /* \"--CODEGEN--\":771:787   */\n      add\n        /* \"--CODEGEN--\":817:820   */\n      dup6\n        /* \"--CODEGEN--\":808:814   */\n      dup4\n        /* \"--CODEGEN--\":803:806   */\n      dup4\n        /* \"--CODEGEN--\":799:815   */\n      add\n        /* \"--CODEGEN--\":796:821   */\n      gt\n        /* \"--CODEGEN--\":793:795   */\n      iszero\n      tag_49\n      jumpi\n        /* \"--CODEGEN--\":834:835   */\n      0x00\n        /* \"--CODEGEN--\":831:832   */\n      dup1\n        /* \"--CODEGEN--\":824:836   */\n      revert\n        /* \"--CODEGEN--\":793:795   */\n    tag_49:\n        /* \"--CODEGEN--\":844:885   */\n      tag_50\n        /* \"--CODEGEN--\":878:884   */\n      dup4\n        /* \"--CODEGEN--\":873:876   */\n      dup3\n        /* \"--CODEGEN--\":868:871   */\n      dup5\n        /* \"--CODEGEN--\":844:885   */\n      jump(tag_42)\n    tag_50:\n        /* \"--CODEGEN--\":511:891   */\n      pop\n      pop\n      pop\n      swap3\n      swap2\n      pop\n      pop\n      jump\n        /* \"--CODEGEN--\":899:1238   */\n    tag_11:\n      0x00\n        /* \"--CODEGEN--\":1009:1011   */\n      0x20\n        /* \"--CODEGEN--\":997:1006   */\n      dup3\n        /* \"--CODEGEN--\":988:995   */\n      dup5\n        /* \"--CODEGEN--\":984:1007   */\n      sub\n        /* \"--CODEGEN--\":980:1012   */\n      slt\n        /* \"--CODEGEN--\":977:979   */\n      iszero\n      tag_52\n      jumpi\n        /* \"--CODEGEN--\":1025:1026   */\n      0x00\n        /* \"--CODEGEN--\":1022:1023   */\n      dup1\n        /* \"--CODEGEN--\":1015:1027   */\n      revert\n        /* \"--CODEGEN--\":977:979   */\n    tag_52:\n        /* \"--CODEGEN--\":1088:1089   */\n      0x00\n        /* \"--CODEGEN--\":1077:1086   */\n      dup3\n        /* \"--CODEGEN--\":1073:1090   */\n      add\n        /* \"--CODEGEN--\":1060:1091   */\n      calldataload\n        /* \"--CODEGEN--\":1111:1129   */\n      0xffffffffffffffff\n        /* \"--CODEGEN--\":1103:1109   */\n      dup2\n        /* \"--CODEGEN--\":1100:1130   */\n      gt\n        /* \"--CODEGEN--\":1097:1099   */\n      iszero\n      tag_53\n      jumpi\n        /* \"--CODEGEN--\":1143:1144   */\n      0x00\n        /* \"--CODEGEN--\":1140:1141   */\n      dup1\n        /* \"--CODEGEN--\":1133:1145   */\n      revert\n        /* \"--CODEGEN--\":1097:1099   */\n    tag_53:\n        /* \"--CODEGEN--\":1163:1222   */\n      tag_54\n        /* \"--CODEGEN--\":1214:1221   */\n      dup5\n        /* \"--CODEGEN--\":1205:1211   */\n      dup3\n        /* \"--CODEGEN--\":1194:1203   */\n      dup6\n        /* \"--CODEGEN--\":1190:1212   */\n      add\n        /* \"--CODEGEN--\":1163:1222   */\n      jump(tag_33)\n    tag_54:\n        /* \"--CODEGEN--\":1153:1222   */\n      swap2\n      pop\n        /* \"--CODEGEN--\":1039:1228   */\n      pop\n        /* \"--CODEGEN--\":971:1238   */\n      swap3\n      swap2\n      pop\n      pop\n      jump\n        /* \"--CODEGEN--\":1245:1592   */\n    tag_7:\n      0x00\n        /* \"--CODEGEN--\":1359:1361   */\n      0x20\n        /* \"--CODEGEN--\":1347:1356   */\n      dup3\n        /* \"--CODEGEN--\":1338:1345   */\n      dup5\n        /* \"--CODEGEN--\":1334:1357   */\n      sub\n        /* \"--CODEGEN--\":1330:1362   */\n      slt\n        /* \"--CODEGEN--\":1327:1329   */\n      iszero\n      tag_56\n      jumpi\n        /* \"--CODEGEN--\":1375:1376   */\n      0x00\n        /* \"--CODEGEN--\":1372:1373   */\n      dup1\n        /* \"--CODEGEN--\":1365:1377   */\n      revert\n        /* \"--CODEGEN--\":1327:1329   */\n    tag_56:\n        /* \"--CODEGEN--\":1438:1439   */\n      0x00\n        /* \"--CODEGEN--\":1427:1436   */\n      dup3\n        /* \"--CODEGEN--\":1423:1440   */\n      add\n        /* \"--CODEGEN--\":1410:1441   */\n      calldataload\n        /* \"--CODEGEN--\":1461:1479   */\n      0xffffffffffffffff\n        /* \"--CODEGEN--\":1453:1459   */\n      dup2\n        /* \"--CODEGEN--\":1450:1480   */\n      gt\n        /* \"--CODEGEN--\":1447:1449   */\n      iszero\n      tag_57\n      jumpi\n        /* \"--CODEGEN--\":1493:1494   */\n      0x00\n        /* \"--CODEGEN--\":1490:1491   */\n      dup1\n        /* \"--CODEGEN--\":1483:1495   */\n      revert\n        /* \"--CODEGEN--\":1447:1449   */\n    tag_57:\n        /* \"--CODEGEN--\":1513:1576   */\n      tag_58\n        /* \"--CODEGEN--\":1568:1575   */\n      dup5\n        /* \"--CODEGEN--\":1559:1565   */\n      dup3\n        /* \"--CODEGEN--\":1548:1557   */\n      dup6\n        /* \"--CODEGEN--\":1544:1566   */\n      add\n        /* \"--CODEGEN--\":1513:1576   */\n      jump(tag_43)\n    tag_58:\n        /* \"--CODEGEN--\":1503:1576   */\n      swap2\n      pop\n        /* \"--CODEGEN--\":1389:1582   */\n      pop\n        /* \"--CODEGEN--\":1321:1592   */\n      swap3\n      swap2\n      pop\n      pop\n      jump\n        /* \"--CODEGEN--\":1599:1712   */\n    tag_59:\n        /* \"--CODEGEN--\":1682:1706   */\n      tag_61\n        /* \"--CODEGEN--\":1700:1705   */\n      dup2\n        /* \"--CODEGEN--\":1682:1706   */\n      jump(tag_62)\n    tag_61:\n        /* \"--CODEGEN--\":1677:1680   */\n      dup3\n        /* \"--CODEGEN--\":1670:1707   */\n      mstore\n        /* \"--CODEGEN--\":1664:1712   */\n      pop\n      pop\n      jump\n        /* \"--CODEGEN--\":1719:2079   */\n    tag_63:\n      0x00\n        /* \"--CODEGEN--\":1849:1888   */\n      tag_65\n        /* \"--CODEGEN--\":1882:1887   */\n      dup3\n        /* \"--CODEGEN--\":1849:1888   */\n      jump(tag_66)\n    tag_65:\n        /* \"--CODEGEN--\":1900:1989   */\n      tag_67\n        /* \"--CODEGEN--\":1982:1988   */\n      dup2\n        /* \"--CODEGEN--\":1977:1980   */\n      dup6\n        /* \"--CODEGEN--\":1900:1989   */\n      jump(tag_68)\n    tag_67:\n        /* \"--CODEGEN--\":1893:1989   */\n      swap4\n      pop\n        /* \"--CODEGEN--\":1994:2046   */\n      tag_69\n        /* \"--CODEGEN--\":2039:2045   */\n      dup2\n        /* \"--CODEGEN--\":2034:2037   */\n      dup6\n        /* \"--CODEGEN--\":2027:2031   */\n      0x20\n        /* \"--CODEGEN--\":2020:2025   */\n      dup7\n        /* \"--CODEGEN--\":2016:2032   */\n      add\n        /* \"--CODEGEN--\":1994:2046   */\n      jump(tag_70)\n    tag_69:\n        /* \"--CODEGEN--\":2067:2073   */\n      dup1\n        /* \"--CODEGEN--\":2062:2065   */\n      dup5\n        /* \"--CODEGEN--\":2058:2074   */\n      add\n        /* \"--CODEGEN--\":2051:2074   */\n      swap2\n      pop\n        /* \"--CODEGEN--\":1829:2079   */\n      pop\n      swap3\n      swap2\n      pop\n      pop\n      jump\n        /* \"--CODEGEN--\":2086:2425   */\n    tag_71:\n      0x00\n        /* \"--CODEGEN--\":2194:2229   */\n      tag_73\n        /* \"--CODEGEN--\":2223:2228   */\n      dup3\n        /* \"--CODEGEN--\":2194:2229   */\n      jump(tag_74)\n    tag_73:\n        /* \"--CODEGEN--\":2241:2312   */\n      tag_75\n        /* \"--CODEGEN--\":2305:2311   */\n      dup2\n        /* \"--CODEGEN--\":2300:2303   */\n      dup6\n        /* \"--CODEGEN--\":2241:2312   */\n      jump(tag_76)\n    tag_75:\n        /* \"--CODEGEN--\":2234:2312   */\n      swap4\n      pop\n        /* \"--CODEGEN--\":2317:2369   */\n      tag_77\n        /* \"--CODEGEN--\":2362:2368   */\n      dup2\n        /* \"--CODEGEN--\":2357:2360   */\n      dup6\n        /* \"--CODEGEN--\":2350:2354   */\n      0x20\n        /* \"--CODEGEN--\":2343:2348   */\n      dup7\n        /* \"--CODEGEN--\":2339:2355   */\n      add\n        /* \"--CODEGEN--\":2317:2369   */\n      jump(tag_70)\n    tag_77:\n        /* \"--CODEGEN--\":2390:2419   */\n      tag_78\n        /* \"--CODEGEN--\":2412:2418   */\n      dup2\n        /* \"--CODEGEN--\":2390:2419   */\n      jump(tag_79)\n    tag_78:\n        /* \"--CODEGEN--\":2385:2388   */\n      dup5\n        /* \"--CODEGEN--\":2381:2420   */\n      add\n        /* \"--CODEGEN--\":2374:2420   */\n      swap2\n      pop\n        /* \"--CODEGEN--\":2174:2425   */\n      pop\n      swap3\n      swap2\n      pop\n      pop\n      jump\n        /* \"--CODEGEN--\":2432:2545   */\n    tag_80:\n        /* \"--CODEGEN--\":2515:2539   */\n      tag_82\n        /* \"--CODEGEN--\":2533:2538   */\n      dup2\n        /* \"--CODEGEN--\":2515:2539   */\n      jump(tag_83)\n    tag_82:\n        /* \"--CODEGEN--\":2510:2513   */\n      dup3\n        /* \"--CODEGEN--\":2503:2540   */\n      mstore\n        /* \"--CODEGEN--\":2497:2545   */\n      pop\n      pop\n      jump\n        /* \"--CODEGEN--\":2552:2818   */\n    tag_17:\n      0x00\n        /* \"--CODEGEN--\":2698:2793   */\n      tag_85\n        /* \"--CODEGEN--\":2789:2792   */\n      dup3\n        /* \"--CODEGEN--\":2780:2786   */\n      dup5\n        /* \"--CODEGEN--\":2698:2793   */\n      jump(tag_63)\n    tag_85:\n        /* \"--CODEGEN--\":2691:2793   */\n      swap2\n      pop\n        /* \"--CODEGEN--\":2810:2813   */\n      dup2\n        /* \"--CODEGEN--\":2803:2813   */\n      swap1\n      pop\n        /* \"--CODEGEN--\":2679:2818   */\n      swap3\n      swap2\n      pop\n      pop\n      jump\n        /* \"--CODEGEN--\":2825:3340   */\n    tag_14:\n      0x00\n        /* \"--CODEGEN--\":3015:3017   */\n      0x60\n        /* \"--CODEGEN--\":3004:3013   */\n      dup3\n        /* \"--CODEGEN--\":3000:3018   */\n      add\n        /* \"--CODEGEN--\":2992:3018   */\n      swap1\n      pop\n        /* \"--CODEGEN--\":3065:3074   */\n      dup2\n        /* \"--CODEGEN--\":3059:3063   */\n      dup2\n        /* \"--CODEGEN--\":3055:3075   */\n      sub\n        /* \"--CODEGEN--\":3051:3052   */\n      0x00\n        /* \"--CODEGEN--\":3040:3049   */\n      dup4\n        /* \"--CODEGEN--\":3036:3053   */\n      add\n        /* \"--CODEGEN--\":3029:3076   */\n      mstore\n        /* \"--CODEGEN--\":3090:3164   */\n      tag_87\n        /* \"--CODEGEN--\":3159:3163   */\n      dup2\n        /* \"--CODEGEN--\":3150:3156   */\n      dup7\n        /* \"--CODEGEN--\":3090:3164   */\n      jump(tag_71)\n    tag_87:\n        /* \"--CODEGEN--\":3082:3164   */\n      swap1\n      pop\n        /* \"--CODEGEN--\":3175:3247   */\n      tag_88\n        /* \"--CODEGEN--\":3243:3245   */\n      0x20\n        /* \"--CODEGEN--\":3232:3241   */\n      dup4\n        /* \"--CODEGEN--\":3228:3246   */\n      add\n        /* \"--CODEGEN--\":3219:3225   */\n      dup6\n        /* \"--CODEGEN--\":3175:3247   */\n      jump(tag_59)\n    tag_88:\n        /* \"--CODEGEN--\":3258:3330   */\n      tag_89\n        /* \"--CODEGEN--\":3326:3328   */\n      0x40\n        /* \"--CODEGEN--\":3315:3324   */\n      dup4\n        /* \"--CODEGEN--\":3311:3329   */\n      add\n        /* \"--CODEGEN--\":3302:3308   */\n      dup5\n        /* \"--CODEGEN--\":3258:3330   */\n      jump(tag_80)\n    tag_89:\n        /* \"--CODEGEN--\":2986:3340   */\n      swap5\n      swap4\n      pop\n      pop\n      pop\n      pop\n      jump\n        /* \"--CODEGEN--\":3347:3603   */\n    tag_39:\n      0x00\n        /* \"--CODEGEN--\":3409:3411   */\n      0x40\n        /* \"--CODEGEN--\":3403:3412   */\n      mload\n        /* \"--CODEGEN--\":3393:3412   */\n      swap1\n      pop\n        /* \"--CODEGEN--\":3447:3451   */\n      dup2\n        /* \"--CODEGEN--\":3439:3445   */\n      dup2\n        /* \"--CODEGEN--\":3435:3452   */\n      add\n        /* \"--CODEGEN--\":3546:3552   */\n      dup2\n        /* \"--CODEGEN--\":3534:3544   */\n      dup2\n        /* \"--CODEGEN--\":3531:3553   */\n      lt\n        /* \"--CODEGEN--\":3510:3528   */\n      0xffffffffffffffff\n        /* \"--CODEGEN--\":3498:3508   */\n      dup3\n        /* \"--CODEGEN--\":3495:3529   */\n      gt\n        /* \"--CODEGEN--\":3492:3554   */\n      or\n        /* \"--CODEGEN--\":3489:3491   */\n      iszero\n      tag_91\n      jumpi\n        /* \"--CODEGEN--\":3567:3568   */\n      0x00\n        /* \"--CODEGEN--\":3564:3565   */\n      dup1\n        /* \"--CODEGEN--\":3557:3569   */\n      revert\n        /* \"--CODEGEN--\":3489:3491   */\n    tag_91:\n        /* \"--CODEGEN--\":3587:3597   */\n      dup1\n        /* \"--CODEGEN--\":3583:3585   */\n      0x40\n        /* \"--CODEGEN--\":3576:3598   */\n      mstore\n        /* \"--CODEGEN--\":3387:3603   */\n      pop\n      swap2\n      swap1\n      pop\n      jump\n        /* \"--CODEGEN--\":3610:3928   */\n    tag_38:\n      0x00\n        /* \"--CODEGEN--\":3750:3768   */\n      0xffffffffffffffff\n        /* \"--CODEGEN--\":3742:3748   */\n      dup3\n        /* \"--CODEGEN--\":3739:3769   */\n      gt\n        /* \"--CODEGEN--\":3736:3738   */\n      iszero\n      tag_93\n      jumpi\n        /* \"--CODEGEN--\":3782:3783   */\n      0x00\n        /* \"--CODEGEN--\":3779:3780   */\n      dup1\n        /* \"--CODEGEN--\":3772:3784   */\n      revert\n        /* \"--CODEGEN--\":3736:3738   */\n    tag_93:\n        /* \"--CODEGEN--\":3849:3853   */\n      0x1f\n        /* \"--CODEGEN--\":3845:3854   */\n      not\n        /* \"--CODEGEN--\":3838:3842   */\n      0x1f\n        /* \"--CODEGEN--\":3830:3836   */\n      dup4\n        /* \"--CODEGEN--\":3826:3843   */\n      add\n        /* \"--CODEGEN--\":3822:3855   */\n      and\n        /* \"--CODEGEN--\":3814:3855   */\n      swap1\n      pop\n        /* \"--CODEGEN--\":3913:3917   */\n      0x20\n        /* \"--CODEGEN--\":3907:3911   */\n      dup2\n        /* \"--CODEGEN--\":3903:3918   */\n      add\n        /* \"--CODEGEN--\":3895:3918   */\n      swap1\n      pop\n        /* \"--CODEGEN--\":3673:3928   */\n      swap2\n      swap1\n      pop\n      jump\n        /* \"--CODEGEN--\":3935:4257   */\n    tag_48:\n      0x00\n        /* \"--CODEGEN--\":4079:4097   */\n      0xffffffffffffffff\n        /* \"--CODEGEN--\":4071:4077   */\n      dup3\n        /* \"--CODEGEN--\":4068:4098   */\n      gt\n        /* \"--CODEGEN--\":4065:4067   */\n      iszero\n      tag_95\n      jumpi\n        /* \"--CODEGEN--\":4111:4112   */\n      0x00\n        /* \"--CODEGEN--\":4108:4109   */\n      dup1\n        /* \"--CODEGEN--\":4101:4113   */\n      revert\n        /* \"--CODEGEN--\":4065:4067   */\n    tag_95:\n        /* \"--CODEGEN--\":4178:4182   */\n      0x1f\n        /* \"--CODEGEN--\":4174:4183   */\n      not\n        /* \"--CODEGEN--\":4167:4171   */\n      0x1f\n        /* \"--CODEGEN--\":4159:4165   */\n      dup4\n        /* \"--CODEGEN--\":4155:4172   */\n      add\n        /* \"--CODEGEN--\":4151:4184   */\n      and\n        /* \"--CODEGEN--\":4143:4184   */\n      swap1\n      pop\n        /* \"--CODEGEN--\":4242:4246   */\n      0x20\n        /* \"--CODEGEN--\":4236:4240   */\n      dup2\n        /* \"--CODEGEN--\":4232:4247   */\n      add\n        /* \"--CODEGEN--\":4224:4247   */\n      swap1\n      pop\n        /* \"--CODEGEN--\":4002:4257   */\n      swap2\n      swap1\n      pop\n      jump\n        /* \"--CODEGEN--\":4264:4382   */\n    tag_74:\n      0x00\n        /* \"--CODEGEN--\":4354:4359   */\n      dup2\n        /* \"--CODEGEN--\":4348:4360   */\n      mload\n        /* \"--CODEGEN--\":4338:4360   */\n      swap1\n      pop\n        /* \"--CODEGEN--\":4319:4382   */\n      swap2\n      swap1\n      pop\n      jump\n        /* \"--CODEGEN--\":4389:4511   */\n    tag_66:\n      0x00\n        /* \"--CODEGEN--\":4483:4488   */\n      dup2\n        /* \"--CODEGEN--\":4477:4489   */\n      mload\n        /* \"--CODEGEN--\":4467:4489   */\n      swap1\n      pop\n        /* \"--CODEGEN--\":4448:4511   */\n      swap2\n      swap1\n      pop\n      jump\n        /* \"--CODEGEN--\":4519:4682   */\n    tag_76:\n      0x00\n        /* \"--CODEGEN--\":4634:4640   */\n      dup3\n        /* \"--CODEGEN--\":4629:4632   */\n      dup3\n        /* \"--CODEGEN--\":4622:4641   */\n      mstore\n        /* \"--CODEGEN--\":4671:4675   */\n      0x20\n        /* \"--CODEGEN--\":4666:4669   */\n      dup3\n        /* \"--CODEGEN--\":4662:4676   */\n      add\n        /* \"--CODEGEN--\":4647:4676   */\n      swap1\n      pop\n        /* \"--CODEGEN--\":4615:4682   */\n      swap3\n      swap2\n      pop\n      pop\n      jump\n        /* \"--CODEGEN--\":4691:4836   */\n    tag_68:\n      0x00\n        /* \"--CODEGEN--\":4827:4830   */\n      dup2\n        /* \"--CODEGEN--\":4812:4830   */\n      swap1\n      pop\n        /* \"--CODEGEN--\":4805:4836   */\n      swap3\n      swap2\n      pop\n      pop\n      jump\n        /* \"--CODEGEN--\":4844:4935   */\n    tag_62:\n      0x00\n        /* \"--CODEGEN--\":4906:4930   */\n      tag_101\n        /* \"--CODEGEN--\":4924:4929   */\n      dup3\n        /* \"--CODEGEN--\":4906:4930   */\n      jump(tag_102)\n    tag_101:\n        /* \"--CODEGEN--\":4895:4930   */\n      swap1\n      pop\n        /* \"--CODEGEN--\":4889:4935   */\n      swap2\n      swap1\n      pop\n      jump\n        /* \"--CODEGEN--\":4942:5063   */\n    tag_102:\n      0x00\n        /* \"--CODEGEN--\":5015:5057   */\n      0xffffffffffffffffffffffffffffffffffffffff\n        /* \"--CODEGEN--\":5008:5013   */\n      dup3\n        /* \"--CODEGEN--\":5004:5058   */\n      and\n        /* \"--CODEGEN--\":4993:5058   */\n      swap1\n      pop\n        /* \"--CODEGEN--\":4987:5063   */\n      swap2\n      swap1\n      pop\n      jump\n        /* \"--CODEGEN--\":5070:5142   */\n    tag_83:\n      0x00\n        /* \"--CODEGEN--\":5132:5137   */\n      dup2\n        /* \"--CODEGEN--\":5121:5137   */\n      swap1\n      pop\n        /* \"--CODEGEN--\":5115:5142   */\n      swap2\n      swap1\n      pop\n      jump\n        /* \"--CODEGEN--\":5150:5295   */\n    tag_42:\n        /* \"--CODEGEN--\":5231:5237   */\n      dup3\n        /* \"--CODEGEN--\":5226:5229   */\n      dup2\n        /* \"--CODEGEN--\":5221:5224   */\n      dup4\n        /* \"--CODEGEN--\":5208:5238   */\n      calldatacopy\n        /* \"--CODEGEN--\":5287:5288   */\n      0x00\n        /* \"--CODEGEN--\":5278:5284   */\n      dup4\n        /* \"--CODEGEN--\":5273:5276   */\n      dup4\n        /* \"--CODEGEN--\":5269:5285   */\n      add\n        /* \"--CODEGEN--\":5262:5289   */\n      mstore\n        /* \"--CODEGEN--\":5201:5295   */\n      pop\n      pop\n      pop\n      jump\n        /* \"--CODEGEN--\":5304:5572   */\n    tag_70:\n        /* \"--CODEGEN--\":5369:5370   */\n      0x00\n        /* \"--CODEGEN--\":5376:5477   */\n    tag_107:\n        /* \"--CODEGEN--\":5390:5396   */\n      dup4\n        /* \"--CODEGEN--\":5387:5388   */\n      dup2\n        /* \"--CODEGEN--\":5384:5397   */\n      lt\n        /* \"--CODEGEN--\":5376:5477   */\n      iszero\n      tag_109\n      jumpi\n        /* \"--CODEGEN--\":5466:5467   */\n      dup1\n        /* \"--CODEGEN--\":5461:5464   */\n      dup3\n        /* \"--CODEGEN--\":5457:5468   */\n      add\n        /* \"--CODEGEN--\":5451:5469   */\n      mload\n        /* \"--CODEGEN--\":5447:5448   */\n      dup2\n        /* \"--CODEGEN--\":5442:5445   */\n      dup5\n        /* \"--CODEGEN--\":5438:5449   */\n      add\n        /* \"--CODEGEN--\":5431:5470   */\n      mstore\n        /* \"--CODEGEN--\":5412:5414   */\n      0x20\n        /* \"--CODEGEN--\":5409:5410   */\n      dup2\n        /* \"--CODEGEN--\":5405:5415   */\n      add\n        /* \"--CODEGEN--\":5400:5415   */\n      swap1\n      pop\n        /* \"--CODEGEN--\":5376:5477   */\n      jump(tag_107)\n    tag_109:\n        /* \"--CODEGEN--\":5492:5498   */\n      dup4\n        /* \"--CODEGEN--\":5489:5490   */\n      dup2\n        /* \"--CODEGEN--\":5486:5499   */\n      gt\n        /* \"--CODEGEN--\":5483:5485   */\n      iszero\n      tag_110\n      jumpi\n        /* \"--CODEGEN--\":5557:5558   */\n      0x00\n        /* \"--CODEGEN--\":5548:5554   */\n      dup5\n        /* \"--CODEGEN--\":5543:5546   */\n      dup5\n        /* \"--CODEGEN--\":5539:5555   */\n      add\n        /* \"--CODEGEN--\":5532:5559   */\n      mstore\n        /* \"--CODEGEN--\":5483:5485   */\n    tag_110:\n        /* \"--CODEGEN--\":5353:5572   */\n      pop\n      pop\n      pop\n      pop\n      jump\n        /* \"--CODEGEN--\":5580:5677   */\n    tag_79:\n      0x00\n        /* \"--CODEGEN--\":5668:5670   */\n      0x1f\n        /* \"--CODEGEN--\":5664:5671   */\n      not\n        /* \"--CODEGEN--\":5659:5661   */\n      0x1f\n        /* \"--CODEGEN--\":5652:5657   */\n      dup4\n        /* \"--CODEGEN--\":5648:5662   */\n      add\n        /* \"--CODEGEN--\":5644:5672   */\n      and\n        /* \"--CODEGEN--\":5634:5672   */\n      swap1\n      pop\n        /* \"--CODEGEN--\":5628:5677   */\n      swap2\n      swap1\n      pop\n      jump\n\n    auxdata: 0xa2646970667358221220ce4b109a5c5e96130bf0232eff1aa0f3c6512fdbbeac619fb32877280f8a2bfe64736f6c63430006000033\n}\n",
				"bytecode": {
					"linkReferences": {},
					"object": "608060405234801561001057600080fd5b5061066d806100206000396000f3fe608060405234801561001057600080fd5b50600436106100365760003560e01c806350eacac21461003b578063b8dac4b014610057575b600080fd5b610055600480360361005091908101906103d3565b610089565b005b610071600480360361006c9190810190610392565b61014d565b604051610080939291906104b3565b60405180910390f35b60405180606001604052808281526020013373ffffffffffffffffffffffffffffffffffffffff16815260200160008152506000826040516100cb919061049c565b908152602001604051809103902060008201518160000190805190602001906100f5929190610245565b5060208201518160010160006101000a81548173ffffffffffffffffffffffffffffffffffffffff021916908373ffffffffffffffffffffffffffffffffffffffff1602179055506040820151816002015590505050565b600081805160208101820180518482526020830160208501208183528095505050505050600091509050806000018054600181600116156101000203166002900480601f01602080910402602001604051908101604052809291908181526020018280546001816001161561010002031660029004801561020f5780601f106101e45761010080835404028352916020019161020f565b820191906000526020600020905b8154815290600101906020018083116101f257829003601f168201915b5050505050908060010160009054906101000a900473ffffffffffffffffffffffffffffffffffffffff16908060020154905083565b828054600181600116156101000203166002900490600052602060002090601f016020900481019282601f1061028657805160ff19168380011785556102b4565b828001600101855582156102b4579182015b828111156102b3578251825591602001919060010190610298565b5b5090506102c191906102c5565b5090565b6102e791905b808211156102e35760008160009055506001016102cb565b5090565b90565b600082601f8301126102fb57600080fd5b813561030e6103098261051e565b6104f1565b9150808252602083016020830185838301111561032a57600080fd5b6103358382846105e4565b50505092915050565b600082601f83011261034f57600080fd5b813561036261035d8261054a565b6104f1565b9150808252602083016020830185838301111561037e57600080fd5b6103898382846105e4565b50505092915050565b6000602082840312156103a457600080fd5b600082013567ffffffffffffffff8111156103be57600080fd5b6103ca848285016102ea565b91505092915050565b6000602082840312156103e557600080fd5b600082013567ffffffffffffffff8111156103ff57600080fd5b61040b8482850161033e565b91505092915050565b61041d816105a8565b82525050565b600061042e82610581565b610438818561059d565b93506104488185602086016105f3565b80840191505092915050565b600061045f82610576565b610469818561058c565b93506104798185602086016105f3565b61048281610626565b840191505092915050565b610496816105da565b82525050565b60006104a88284610423565b915081905092915050565b600060608201905081810360008301526104cd8186610454565b90506104dc6020830185610414565b6104e9604083018461048d565b949350505050565b6000604051905081810181811067ffffffffffffffff8211171561051457600080fd5b8060405250919050565b600067ffffffffffffffff82111561053557600080fd5b601f19601f8301169050602081019050919050565b600067ffffffffffffffff82111561056157600080fd5b601f19601f8301169050602081019050919050565b600081519050919050565b600081519050919050565b600082825260208201905092915050565b600081905092915050565b60006105b3826105ba565b9050919050565b600073ffffffffffffffffffffffffffffffffffffffff82169050919050565b6000819050919050565b82818337600083830152505050565b60005b838110156106115780820151818401526020810190506105f6565b83811115610620576000848401525b50505050565b6000601f19601f830116905091905056fea2646970667358221220ce4b109a5c5e96130bf0232eff1aa0f3c6512fdbbeac619fb32877280f8a2bfe64736f6c63430006000033",
					"opcodes": "PUSH1 0x80 PUSH1 0x40 MSTORE CALLVALUE DUP1 ISZERO PUSH2 0x10 JUMPI PUSH1 0x0 DUP1 REVERT JUMPDEST POP PUSH2 0x66D DUP1 PUSH2 0x20 PUSH1 0x0 CODECOPY PUSH1 0x0 RETURN INVALID PUSH1 0x80 PUSH1 0x40 MSTORE CALLVALUE DUP1 ISZERO PUSH2 0x10 JUMPI PUSH1 0x0 DUP1 REVERT JUMPDEST POP PUSH1 0x4 CALLDATASIZE LT PUSH2 0x36 JUMPI PUSH1 0x0 CALLDATALOAD PUSH1 0xE0 SHR DUP1 PUSH4 0x50EACAC2 EQ PUSH2 0x3B JUMPI DUP1 PUSH4 0xB8DAC4B0 EQ PUSH2 0x57 JUMPI JUMPDEST PUSH1 0x0 DUP1 REVERT JUMPDEST PUSH2 0x55 PUSH1 0x4 DUP1 CALLDATASIZE SUB PUSH2 0x50 SWAP2 SWAP1 DUP2 ADD SWAP1 PUSH2 0x3D3 JUMP JUMPDEST PUSH2 0x89 JUMP JUMPDEST STOP JUMPDEST PUSH2 0x71 PUSH1 0x4 DUP1 CALLDATASIZE SUB PUSH2 0x6C SWAP2 SWAP1 DUP2 ADD SWAP1 PUSH2 0x392 JUMP JUMPDEST PUSH2 0x14D JUMP JUMPDEST PUSH1 0x40 MLOAD PUSH2 0x80 SWAP4 SWAP3 SWAP2 SWAP1 PUSH2 0x4B3 JUMP JUMPDEST PUSH1 0x40 MLOAD DUP1 SWAP2 SUB SWAP1 RETURN JUMPDEST PUSH1 0x40 MLOAD DUP1 PUSH1 0x60 ADD PUSH1 0x40 MSTORE DUP1 DUP3 DUP2 MSTORE PUSH1 0x20 ADD CALLER PUSH20 0xFFFFFFFFFFFFFFFFFFFFFFFFFFFFFFFFFFFFFFFF AND DUP2 MSTORE PUSH1 0x20 ADD PUSH1 0x0 DUP2 MSTORE POP PUSH1 0x0 DUP3 PUSH1 0x40 MLOAD PUSH2 0xCB SWAP2 SWAP1 PUSH2 0x49C JUMP JUMPDEST SWAP1 DUP2 MSTORE PUSH1 0x20 ADD PUSH1 0x40 MLOAD DUP1 SWAP2 SUB SWAP1 KECCAK256 PUSH1 0x0 DUP3 ADD MLOAD DUP2 PUSH1 0x0 ADD SWAP1 DUP1 MLOAD SWAP1 PUSH1 0x20 ADD SWAP1 PUSH2 0xF5 SWAP3 SWAP2 SWAP1 PUSH2 0x245 JUMP JUMPDEST POP PUSH1 0x20 DUP3 ADD MLOAD DUP2 PUSH1 0x1 ADD PUSH1 0x0 PUSH2 0x100 EXP DUP2 SLOAD DUP2 PUSH20 0xFFFFFFFFFFFFFFFFFFFFFFFFFFFFFFFFFFFFFFFF MUL NOT AND SWAP1 DUP4 PUSH20 0xFFFFFFFFFFFFFFFFFFFFFFFFFFFFFFFFFFFFFFFF AND MUL OR SWAP1 SSTORE POP PUSH1 0x40 DUP3 ADD MLOAD DUP2 PUSH1 0x2 ADD SSTORE SWAP1 POP POP POP JUMP JUMPDEST PUSH1 0x0 DUP2 DUP1 MLOAD PUSH1 0x20 DUP2 ADD DUP3 ADD DUP1 MLOAD DUP5 DUP3 MSTORE PUSH1 0x20 DUP4 ADD PUSH1 0x20 DUP6 ADD KECCAK256 DUP2 DUP4 MSTORE DUP1 SWAP6 POP POP POP POP POP POP PUSH1 0x0 SWAP2 POP SWAP1 POP DUP1 PUSH1 0x0 ADD DUP1 SLOAD PUSH1 0x1 DUP2 PUSH1 0x1 AND ISZERO PUSH2 0x100 MUL SUB AND PUSH1 0x2 SWAP1 DIV DUP1 PUSH1 0x1F ADD PUSH1 0x20 DUP1 SWAP2 DIV MUL PUSH1 0x20 ADD PUSH1 0x40 MLOAD SWAP1 DUP2 ADD PUSH1 0x40 MSTORE DUP1 SWAP3 SWAP2 SWAP1 DUP2 DUP2 MSTORE PUSH1 0x20 ADD DUP3 DUP1 SLOAD PUSH1 0x1 DUP2 PUSH1 0x1 AND ISZERO PUSH2 0x100 MUL SUB AND PUSH1 0x2 SWAP1 DIV DUP1 ISZERO PUSH2 0x20F JUMPI DUP1 PUSH1 0x1F LT PUSH2 0x1E4 JUMPI PUSH2 0x100 DUP1 DUP4 SLOAD DIV MUL DUP4 MSTORE SWAP2 PUSH1 0x20 ADD SWAP2 PUSH2 0x20F JUMP JUMPDEST DUP3 ADD SWAP2 SWAP1 PUSH1 0x0 MSTORE PUSH1 0x20 PUSH1 0x0 KECCAK256 SWAP1 JUMPDEST DUP2 SLOAD DUP2 MSTORE SWAP1 PUSH1 0x1 ADD SWAP1 PUSH1 0x20 ADD DUP1 DUP4 GT PUSH2 0x1F2 JUMPI DUP3 SWAP1 SUB PUSH1 0x1F AND DUP3 ADD SWAP2 JUMPDEST POP POP POP POP POP SWAP1 DUP1 PUSH1 0x1 ADD PUSH1 0x0 SWAP1 SLOAD SWAP1 PUSH2 0x100 EXP SWAP1 DIV PUSH20 0xFFFFFFFFFFFFFFFFFFFFFFFFFFFFFFFFFFFFFFFF AND SWAP1 DUP1 PUSH1 0x2 ADD SLOAD SWAP1 POP DUP4 JUMP JUMPDEST DUP3 DUP1 SLOAD PUSH1 0x1 DUP2 PUSH1 0x1 AND ISZERO PUSH2 0x100 MUL SUB AND PUSH1 0x2 SWAP1 DIV SWAP1 PUSH1 0x0 MSTORE PUSH1 0x20 PUSH1 0x0 KECCAK256 SWAP1 PUSH1 0x1F ADD PUSH1 0x20 SWAP1 DIV DUP2 ADD SWAP3 DUP3 PUSH1 0x1F LT PUSH2 0x286 JUMPI DUP1 MLOAD PUSH1 0xFF NOT AND DUP4 DUP1 ADD OR DUP6 SSTORE PUSH2 0x2B4 JUMP JUMPDEST DUP3 DUP1 ADD PUSH1 0x1 ADD DUP6 SSTORE DUP3 ISZERO PUSH2 0x2B4 JUMPI SWAP2 DUP3 ADD JUMPDEST DUP3 DUP2 GT ISZERO PUSH2 0x2B3 JUMPI DUP3 MLOAD DUP3 SSTORE SWAP2 PUSH1 0x20 ADD SWAP2 SWAP1 PUSH1 0x1 ADD SWAP1 PUSH2 0x298 JUMP JUMPDEST JUMPDEST POP SWAP1 POP PUSH2 0x2C1 SWAP2 SWAP1 PUSH2 0x2C5 JUMP JUMPDEST POP SWAP1 JUMP JUMPDEST PUSH2 0x2E7 SWAP2 SWAP1 JUMPDEST DUP1 DUP3 GT ISZERO PUSH2 0x2E3 JUMPI PUSH1 0x0 DUP2 PUSH1 0x0 SWAP1 SSTORE POP PUSH1 0x1 ADD PUSH2 0x2CB JUMP JUMPDEST POP SWAP1 JUMP JUMPDEST SWAP1 JUMP JUMPDEST PUSH1 0x0 DUP3 PUSH1 0x1F DUP4 ADD SLT PUSH2 0x2FB JUMPI PUSH1 0x0 DUP1 REVERT JUMPDEST DUP2 CALLDATALOAD PUSH2 0x30E PUSH2 0x309 DUP3 PUSH2 0x51E JUMP JUMPDEST PUSH2 0x4F1 JUMP JUMPDEST SWAP2 POP DUP1 DUP3 MSTORE PUSH1 0x20 DUP4 ADD PUSH1 0x20 DUP4 ADD DUP6 DUP4 DUP4 ADD GT ISZERO PUSH2 0x32A JUMPI PUSH1 0x0 DUP1 REVERT JUMPDEST PUSH2 0x335 DUP4 DUP3 DUP5 PUSH2 0x5E4 JUMP JUMPDEST POP POP POP SWAP3 SWAP2 POP POP JUMP JUMPDEST PUSH1 0x0 DUP3 PUSH1 0x1F DUP4 ADD SLT PUSH2 0x34F JUMPI PUSH1 0x0 DUP1 REVERT JUMPDEST DUP2 CALLDATALOAD PUSH2 0x362 PUSH2 0x35D DUP3 PUSH2 0x54A JUMP JUMPDEST PUSH2 0x4F1 JUMP JUMPDEST SWAP2 POP DUP1 DUP3 MSTORE PUSH1 0x20 DUP4 ADD PUSH1 0x20 DUP4 ADD DUP6 DUP4 DUP4 ADD GT ISZERO PUSH2 0x37E JUMPI PUSH1 0x0 DUP1 REVERT JUMPDEST PUSH2 0x389 DUP4 DUP3 DUP5 PUSH2 0x5E4 JUMP JUMPDEST POP POP POP SWAP3 SWAP2 POP POP JUMP JUMPDEST PUSH1 0x0 PUSH1 0x20 DUP3 DUP5 SUB SLT ISZERO PUSH2 0x3A4 JUMPI PUSH1 0x0 DUP1 REVERT JUMPDEST PUSH1 0x0 DUP3 ADD CALLDATALOAD PUSH8 0xFFFFFFFFFFFFFFFF DUP2 GT ISZERO PUSH2 0x3BE JUMPI PUSH1 0x0 DUP1 REVERT JUMPDEST PUSH2 0x3CA DUP5 DUP3 DUP6 ADD PUSH2 0x2EA JUMP JUMPDEST SWAP2 POP POP SWAP3 SWAP2 POP POP JUMP JUMPDEST PUSH1 0x0 PUSH1 0x20 DUP3 DUP5 SUB SLT ISZERO PUSH2 0x3E5 JUMPI PUSH1 0x0 DUP1 REVERT JUMPDEST PUSH1 0x0 DUP3 ADD CALLDATALOAD PUSH8 0xFFFFFFFFFFFFFFFF DUP2 GT ISZERO PUSH2 0x3FF JUMPI PUSH1 0x0 DUP1 REVERT JUMPDEST PUSH2 0x40B DUP5 DUP3 DUP6 ADD PUSH2 0x33E JUMP JUMPDEST SWAP2 POP POP SWAP3 SWAP2 POP POP JUMP JUMPDEST PUSH2 0x41D DUP2 PUSH2 0x5A8 JUMP JUMPDEST DUP3 MSTORE POP POP JUMP JUMPDEST PUSH1 0x0 PUSH2 0x42E DUP3 PUSH2 0x581 JUMP JUMPDEST PUSH2 0x438 DUP2 DUP6 PUSH2 0x59D JUMP JUMPDEST SWAP4 POP PUSH2 0x448 DUP2 DUP6 PUSH1 0x20 DUP7 ADD PUSH2 0x5F3 JUMP JUMPDEST DUP1 DUP5 ADD SWAP2 POP POP SWAP3 SWAP2 POP POP JUMP JUMPDEST PUSH1 0x0 PUSH2 0x45F DUP3 PUSH2 0x576 JUMP JUMPDEST PUSH2 0x469 DUP2 DUP6 PUSH2 0x58C JUMP JUMPDEST SWAP4 POP PUSH2 0x479 DUP2 DUP6 PUSH1 0x20 DUP7 ADD PUSH2 0x5F3 JUMP JUMPDEST PUSH2 0x482 DUP2 PUSH2 0x626 JUMP JUMPDEST DUP5 ADD SWAP2 POP POP SWAP3 SWAP2 POP POP JUMP JUMPDEST PUSH2 0x496 DUP2 PUSH2 0x5DA JUMP JUMPDEST DUP3 MSTORE POP POP JUMP JUMPDEST PUSH1 0x0 PUSH2 0x4A8 DUP3 DUP5 PUSH2 0x423 JUMP JUMPDEST SWAP2 POP DUP2 SWAP1 POP SWAP3 SWAP2 POP POP JUMP JUMPDEST PUSH1 0x0 PUSH1 0x60 DUP3 ADD SWAP1 POP DUP2 DUP2 SUB PUSH1 0x0 DUP4 ADD MSTORE PUSH2 0x4CD DUP2 DUP7 PUSH2 0x454 JUMP JUMPDEST SWAP1 POP PUSH2 0x4DC PUSH1 0x20 DUP4 ADD DUP6 PUSH2 0x414 JUMP JUMPDEST PUSH2 0x4E9 PUSH1 0x40 DUP4 ADD DUP5 PUSH2 0x48D JUMP JUMPDEST SWAP5 SWAP4 POP POP POP POP JUMP JUMPDEST PUSH1 0x0 PUSH1 0x40 MLOAD SWAP1 POP DUP2 DUP2 ADD DUP2 DUP2 LT PUSH8 0xFFFFFFFFFFFFFFFF DUP3 GT OR ISZERO PUSH2 0x514 JUMPI PUSH1 0x0 DUP1 REVERT JUMPDEST DUP1 PUSH1 0x40 MSTORE POP SWAP2 SWAP1 POP JUMP JUMPDEST PUSH1 0x0 PUSH8 0xFFFFFFFFFFFFFFFF DUP3 GT ISZERO PUSH2 0x535 JUMPI PUSH1 0x0 DUP1 REVERT JUMPDEST PUSH1 0x1F NOT PUSH1 0x1F DUP4 ADD AND SWAP1 POP PUSH1 0x20 DUP2 ADD SWAP1 POP SWAP2 SWAP1 POP JUMP JUMPDEST PUSH1 0x0 PUSH8 0xFFFFFFFFFFFFFFFF DUP3 GT ISZERO PUSH2 0x561 JUMPI PUSH1 0x0 DUP1 REVERT JUMPDEST PUSH1 0x1F NOT PUSH1 0x1F DUP4 ADD AND SWAP1 POP PUSH1 0x20 DUP2 ADD SWAP1 POP SWAP2 SWAP1 POP JUMP JUMPDEST PUSH1 0x0 DUP2 MLOAD SWAP1 POP SWAP2 SWAP1 POP JUMP JUMPDEST PUSH1 0x0 DUP2 MLOAD SWAP1 POP SWAP2 SWAP1 POP JUMP JUMPDEST PUSH1 0x0 DUP3 DUP3 MSTORE PUSH1 0x20 DUP3 ADD SWAP1 POP SWAP3 SWAP2 POP POP JUMP JUMPDEST PUSH1 0x0 DUP2 SWAP1 POP SWAP3 SWAP2 POP POP JUMP JUMPDEST PUSH1 0x0 PUSH2 0x5B3 DUP3 PUSH2 0x5BA JUMP JUMPDEST SWAP1 POP SWAP2 SWAP1 POP JUMP JUMPDEST PUSH1 0x0 PUSH20 0xFFFFFFFFFFFFFFFFFFFFFFFFFFFFFFFFFFFFFFFF DUP3 AND SWAP1 POP SWAP2 SWAP1 POP JUMP JUMPDEST PUSH1 0x0 DUP2 SWAP1 POP SWAP2 SWAP1 POP JUMP JUMPDEST DUP3 DUP2 DUP4 CALLDATACOPY PUSH1 0x0 DUP4 DUP4 ADD MSTORE POP POP POP JUMP JUMPDEST PUSH1 0x0 JUMPDEST DUP4 DUP2 LT ISZERO PUSH2 0x611 JUMPI DUP1 DUP3 ADD MLOAD DUP2 DUP5 ADD MSTORE PUSH1 0x20 DUP2 ADD SWAP1 POP PUSH2 0x5F6 JUMP JUMPDEST DUP4 DUP2 GT ISZERO PUSH2 0x620 JUMPI PUSH1 0x0 DUP5 DUP5 ADD MSTORE JUMPDEST POP POP POP POP JUMP JUMPDEST PUSH1 0x0 PUSH1 0x1F NOT PUSH1 0x1F DUP4 ADD AND SWAP1 POP SWAP2 SWAP1 POP JUMP INVALID LOG2 PUSH5 0x6970667358 0x22 SLT KECCAK256 0xCE 0x4B LT SWAP11 0x5C 0x5E SWAP7 SGT SIGNEXTEND CREATE 0x23 0x2E SELFDESTRUCT BYTE LOG0 RETURN 0xC6 MLOAD 0x2F 0xDB 0xBE 0xAC PUSH2 0x9FB3 0x28 PUSH24 0x280F8A2BFE64736F6C634300060000330000000000000000 "
				},
				"gasEstimates": {
					"creation": {
						"codeDepositCost": "329000",
						"executionCost": "368",
						"totalCost": "329368"
					},
					"external": {
						"clientes(string)": "infinite",
						"crearCliente(string)": "infinite"
					}
				},
				"methodIdentifiers": {
					"clientes(string)": "b8dac4b0",
					"crearCliente(string)": "50eacac2"
				}
			},
			"storageLayout": {
				"storage": [
					{
						"astId": 13,
						"contract": "Interactuar con varios SC/herencia.sol:Banco",
						"label": "clientes",
						"offset": 0,
						"slot": "0",
						"type": "t_mapping(t_string_memory,t_struct(cliente)9_storage)"
					}
				],
				"types": {
					"t_address": {
						"encoding": "inplace",
						"label": "address",
						"numberOfBytes": "20"
					},
					"t_mapping(t_string_memory,t_struct(cliente)9_storage)": {
						"encoding": "mapping",
						"key": "t_string_memory",
						"label": "mapping(string => struct Banco.cliente)",
						"numberOfBytes": "32",
						"value": "t_struct(cliente)9_storage"
					},
					"t_string_memory": {
						"encoding": "bytes",
						"label": "string",
						"numberOfBytes": "32"
					},
					"t_string_storage": {
						"encoding": "bytes",
						"label": "string",
						"numberOfBytes": "32"
					},
					"t_struct(cliente)9_storage": {
						"encoding": "inplace",
						"label": "struct Banco.cliente",
						"members": [
							{
								"astId": 4,
								"contract": "Interactuar con varios SC/herencia.sol:Banco",
								"label": "_nombre",
								"offset": 0,
								"slot": "0",
								"type": "t_string_storage"
							},
							{
								"astId": 6,
								"contract": "Interactuar con varios SC/herencia.sol:Banco",
								"label": "drieccion",
								"offset": 0,
								"slot": "1",
								"type": "t_address"
							},
							{
								"astId": 8,
								"contract": "Interactuar con varios SC/herencia.sol:Banco",
								"label": "dinero",
								"offset": 0,
								"slot": "2",
								"type": "t_uint256"
							}
						],
						"numberOfBytes": "96"
					},
					"t_uint256": {
						"encoding": "inplace",
						"label": "uint256",
						"numberOfBytes": "32"
					}
				}
			},
			"userdoc": {
				"methods": {}
			}
		}
	}
}