{
	"Interactuar con varios SC/herencia.sol": {
		"Cliente": {
			"abi": [
				{
					"inputs": [
						{
							"internalType": "string",
							"name": "_nombre",
							"type": "string"
						}
					],
					"name": "altaCliente",
					"outputs": [],
					"stateMutability": "nonpayable",
					"type": "function"
				},
				{
					"inputs": [
						{
							"internalType": "string",
							"name": "_nombre",
							"type": "string"
						}
					],
					"name": "crearCliente",
					"outputs": [],
					"stateMutability": "nonpayable",
					"type": "function"
				},
				{
					"inputs": [
						{
							"internalType": "string",
							"name": "_nombre",
							"type": "string"
						},
						{
							"internalType": "uint256",
							"name": "_cantidad",
							"type": "uint256"
						}
					],
					"name": "ingresarDinero",
					"outputs": [],
					"stateMutability": "nonpayable",
					"type": "function"
				},
				{
					"inputs": [
						{
							"internalType": "string",
							"name": "_nombre",
							"type": "string"
						},
						{
							"internalType": "uint256",
							"name": "_cantidad",
							"type": "uint256"
						}
					],
					"name": "retirarDinero",
					"outputs": [
						{
							"internalType": "bool",
							"name": "",
							"type": "bool"
						}
					],
					"stateMutability": "nonpayable",
					"type": "function"
				}
			],
			"devdoc": {
				"methods": {}
			},
			"evm": {
				"assembly": "    /* \"Interactuar con varios SC/herencia.sol\":366:743  contract Cliente is Banco{\r... */\n  mstore(0x40, 0x80)\n  callvalue\n    /* \"--CODEGEN--\":8:17   */\n  dup1\n    /* \"--CODEGEN--\":5:7   */\n  iszero\n  tag_1\n  jumpi\n    /* \"--CODEGEN--\":30:31   */\n  0x00\n    /* \"--CODEGEN--\":27:28   */\n  dup1\n    /* \"--CODEGEN--\":20:32   */\n  revert\n    /* \"--CODEGEN--\":5:7   */\ntag_1:\n    /* \"Interactuar con varios SC/herencia.sol\":366:743  contract Cliente is Banco{\r... */\n  pop\n  dataSize(sub_0)\n  dup1\n  dataOffset(sub_0)\n  0x00\n  codecopy\n  0x00\n  return\nstop\n\nsub_0: assembly {\n        /* \"Interactuar con varios SC/herencia.sol\":366:743  contract Cliente is Banco{\r... */\n      mstore(0x40, 0x80)\n      callvalue\n        /* \"--CODEGEN--\":8:17   */\n      dup1\n        /* \"--CODEGEN--\":5:7   */\n      iszero\n      tag_1\n      jumpi\n        /* \"--CODEGEN--\":30:31   */\n      0x00\n        /* \"--CODEGEN--\":27:28   */\n      dup1\n        /* \"--CODEGEN--\":20:32   */\n      revert\n        /* \"--CODEGEN--\":5:7   */\n    tag_1:\n        /* \"Interactuar con varios SC/herencia.sol\":366:743  contract Cliente is Banco{\r... */\n      pop\n      jumpi(tag_2, lt(calldatasize, 0x04))\n      shr(0xe0, calldataload(0x00))\n      dup1\n      0x084f9c37\n      eq\n      tag_3\n      jumpi\n      dup1\n      0x276a05bf\n      eq\n      tag_4\n      jumpi\n      dup1\n      0x3b5c9dc4\n      eq\n      tag_5\n      jumpi\n      dup1\n      0x50eacac2\n      eq\n      tag_6\n      jumpi\n    tag_2:\n      0x00\n      dup1\n      revert\n        /* \"Interactuar con varios SC/herencia.sol\":400:491  function altaCliente(string memory _nombre) public {\r... */\n    tag_3:\n      tag_7\n      0x04\n      dup1\n      calldatasize\n      sub\n      tag_8\n      swap2\n      swap1\n      dup2\n      add\n      swap1\n      jump(tag_9)\n    tag_8:\n      tag_10\n      jump\t// in\n    tag_7:\n      stop\n        /* \"Interactuar con varios SC/herencia.sol\":499:625  function ingresarDinero(string memory _nombre, uint _cantidad) public {\r... */\n    tag_4:\n      tag_11\n      0x04\n      dup1\n      calldatasize\n      sub\n      tag_12\n      swap2\n      swap1\n      dup2\n      add\n      swap1\n      jump(tag_13)\n    tag_12:\n      tag_14\n      jump\t// in\n    tag_11:\n      stop\n        /* \"Interactuar con varios SC/herencia.sol\":633:738  function retirarDinero(string memory _nombre, uint _cantidad) public returns (bool){\r... */\n    tag_5:\n      tag_15\n      0x04\n      dup1\n      calldatasize\n      sub\n      tag_16\n      swap2\n      swap1\n      dup2\n      add\n      swap1\n      jump(tag_13)\n    tag_16:\n      tag_17\n      jump\t// in\n    tag_15:\n      mload(0x40)\n      tag_18\n      swap2\n      swap1\n      jump(tag_19)\n    tag_18:\n      mload(0x40)\n      dup1\n      swap2\n      sub\n      swap1\n      return\n        /* \"Interactuar con varios SC/herencia.sol\":235:357  function crearCliente(string memory _nombre) public {\r... */\n    tag_6:\n      tag_20\n      0x04\n      dup1\n      calldatasize\n      sub\n      tag_21\n      swap2\n      swap1\n      dup2\n      add\n      swap1\n      jump(tag_9)\n    tag_21:\n      tag_22\n      jump\t// in\n    tag_20:\n      stop\n        /* \"Interactuar con varios SC/herencia.sol\":400:491  function altaCliente(string memory _nombre) public {\r... */\n    tag_10:\n        /* \"Interactuar con varios SC/herencia.sol\":462:483  crearCliente(_nombre) */\n      tag_24\n        /* \"Interactuar con varios SC/herencia.sol\":475:482  _nombre */\n      dup2\n        /* \"Interactuar con varios SC/herencia.sol\":462:474  crearCliente */\n      tag_22\n        /* \"Interactuar con varios SC/herencia.sol\":462:483  crearCliente(_nombre) */\n      jump\t// in\n    tag_24:\n        /* \"Interactuar con varios SC/herencia.sol\":400:491  function altaCliente(string memory _nombre) public {\r... */\n      pop\n      jump\t// out\n        /* \"Interactuar con varios SC/herencia.sol\":499:625  function ingresarDinero(string memory _nombre, uint _cantidad) public {\r... */\n    tag_14:\n        /* \"Interactuar con varios SC/herencia.sol\":608:617  _cantidad */\n      dup1\n        /* \"Interactuar con varios SC/herencia.sol\":580:588  clientes */\n      0x00\n        /* \"Interactuar con varios SC/herencia.sol\":589:596  _nombre */\n      dup4\n        /* \"Interactuar con varios SC/herencia.sol\":580:597  clientes[_nombre] */\n      mload(0x40)\n      tag_26\n      swap2\n      swap1\n      jump(tag_27)\n    tag_26:\n      swap1\n      dup2\n      mstore\n      0x20\n      add\n      mload(0x40)\n      dup1\n      swap2\n      sub\n      swap1\n      keccak256\n        /* \"Interactuar con varios SC/herencia.sol\":580:604  clientes[_nombre].dinero */\n      0x02\n      add\n      0x00\n        /* \"Interactuar con varios SC/herencia.sol\":580:617  clientes[_nombre].dinero += _cantidad */\n      dup3\n      dup3\n      sload\n      add\n      swap3\n      pop\n      pop\n      dup2\n      swap1\n      sstore\n      pop\n        /* \"Interactuar con varios SC/herencia.sol\":499:625  function ingresarDinero(string memory _nombre, uint _cantidad) public {\r... */\n      pop\n      pop\n      jump\t// out\n        /* \"Interactuar con varios SC/herencia.sol\":633:738  function retirarDinero(string memory _nombre, uint _cantidad) public returns (bool){\r... */\n    tag_17:\n        /* \"Interactuar con varios SC/herencia.sol\":711:715  bool */\n      0x00\n        /* \"Interactuar con varios SC/herencia.sol\":633:738  function retirarDinero(string memory _nombre, uint _cantidad) public returns (bool){\r... */\n      swap3\n      swap2\n      pop\n      pop\n      jump\t// out\n        /* \"Interactuar con varios SC/herencia.sol\":235:357  function crearCliente(string memory _nombre) public {\r... */\n    tag_22:\n        /* \"Interactuar con varios SC/herencia.sol\":318:349  cliente(_nombre, msg.sender, 0) */\n      mload(0x40)\n      dup1\n      0x60\n      add\n      0x40\n      mstore\n      dup1\n        /* \"Interactuar con varios SC/herencia.sol\":326:333  _nombre */\n      dup3\n        /* \"Interactuar con varios SC/herencia.sol\":318:349  cliente(_nombre, msg.sender, 0) */\n      dup2\n      mstore\n      0x20\n      add\n        /* \"Interactuar con varios SC/herencia.sol\":335:345  msg.sender */\n      caller\n        /* \"Interactuar con varios SC/herencia.sol\":318:349  cliente(_nombre, msg.sender, 0) */\n      0xffffffffffffffffffffffffffffffffffffffff\n      and\n      dup2\n      mstore\n      0x20\n      add\n        /* \"Interactuar con varios SC/herencia.sol\":347:348  0 */\n      0x00\n        /* \"Interactuar con varios SC/herencia.sol\":318:349  cliente(_nombre, msg.sender, 0) */\n      dup2\n      mstore\n      pop\n        /* \"Interactuar con varios SC/herencia.sol\":298:306  clientes */\n      0x00\n        /* \"Interactuar con varios SC/herencia.sol\":307:314  _nombre */\n      dup3\n        /* \"Interactuar con varios SC/herencia.sol\":298:315  clientes[_nombre] */\n      mload(0x40)\n      tag_30\n      swap2\n      swap1\n      jump(tag_27)\n    tag_30:\n      swap1\n      dup2\n      mstore\n      0x20\n      add\n      mload(0x40)\n      dup1\n      swap2\n      sub\n      swap1\n      keccak256\n        /* \"Interactuar con varios SC/herencia.sol\":298:349  clientes[_nombre] = cliente(_nombre, msg.sender, 0) */\n      0x00\n      dup3\n      add\n      mload\n      dup2\n      0x00\n      add\n      swap1\n      dup1\n      mload\n      swap1\n      0x20\n      add\n      swap1\n      tag_31\n      swap3\n      swap2\n      swap1\n      tag_32\n      jump\t// in\n    tag_31:\n      pop\n      0x20\n      dup3\n      add\n      mload\n      dup2\n      0x01\n      add\n      exp(0x0100, 0x00)\n      dup2\n      sload\n      dup2\n      0xffffffffffffffffffffffffffffffffffffffff\n      mul\n      not\n      and\n      swap1\n      dup4\n      0xffffffffffffffffffffffffffffffffffffffff\n      and\n      mul\n      or\n      swap1\n      sstore\n      pop\n      0x40\n      dup3\n      add\n      mload\n      dup2\n      0x02\n      add\n      sstore\n      swap1\n      pop\n      pop\n        /* \"Interactuar con varios SC/herencia.sol\":235:357  function crearCliente(string memory _nombre) public {\r... */\n      pop\n      jump\t// out\n        /* \"Interactuar con varios SC/herencia.sol\":366:743  contract Cliente is Banco{\r... */\n    tag_32:\n      dup3\n      dup1\n      sload\n      0x01\n      dup2\n      0x01\n      and\n      iszero\n      0x0100\n      mul\n      sub\n      and\n      0x02\n      swap1\n      div\n      swap1\n      0x00\n      mstore\n      keccak256(0x00, 0x20)\n      swap1\n      0x1f\n      add\n      0x20\n      swap1\n      div\n      dup2\n      add\n      swap3\n      dup3\n      0x1f\n      lt\n      tag_34\n      jumpi\n      dup1\n      mload\n      not(0xff)\n      and\n      dup4\n      dup1\n      add\n      or\n      dup6\n      sstore\n      jump(tag_33)\n    tag_34:\n      dup3\n      dup1\n      add\n      0x01\n      add\n      dup6\n      sstore\n      dup3\n      iszero\n      tag_33\n      jumpi\n      swap2\n      dup3\n      add\n    tag_35:\n      dup3\n      dup2\n      gt\n      iszero\n      tag_36\n      jumpi\n      dup3\n      mload\n      dup3\n      sstore\n      swap2\n      0x20\n      add\n      swap2\n      swap1\n      0x01\n      add\n      swap1\n      jump(tag_35)\n    tag_36:\n    tag_33:\n      pop\n      swap1\n      pop\n      tag_37\n      swap2\n      swap1\n      tag_38\n      jump\t// in\n    tag_37:\n      pop\n      swap1\n      jump\t// out\n    tag_38:\n      tag_39\n      swap2\n      swap1\n    tag_40:\n      dup1\n      dup3\n      gt\n      iszero\n      tag_41\n      jumpi\n      0x00\n      dup2\n      0x00\n      swap1\n      sstore\n      pop\n      0x01\n      add\n      jump(tag_40)\n    tag_41:\n      pop\n      swap1\n      jump\n    tag_39:\n      swap1\n      jump\t// out\n        /* \"--CODEGEN--\":6:448   */\n    tag_43:\n      0x00\n        /* \"--CODEGEN--\":108:111   */\n      dup3\n        /* \"--CODEGEN--\":101:105   */\n      0x1f\n        /* \"--CODEGEN--\":93:99   */\n      dup4\n        /* \"--CODEGEN--\":89:106   */\n      add\n        /* \"--CODEGEN--\":85:112   */\n      slt\n        /* \"--CODEGEN--\":75:77   */\n      tag_45\n      jumpi\n        /* \"--CODEGEN--\":126:127   */\n      0x00\n        /* \"--CODEGEN--\":123:124   */\n      dup1\n        /* \"--CODEGEN--\":116:128   */\n      revert\n        /* \"--CODEGEN--\":75:77   */\n    tag_45:\n        /* \"--CODEGEN--\":163:169   */\n      dup2\n        /* \"--CODEGEN--\":150:170   */\n      calldataload\n        /* \"--CODEGEN--\":185:250   */\n      tag_46\n        /* \"--CODEGEN--\":200:249   */\n      tag_47\n        /* \"--CODEGEN--\":242:248   */\n      dup3\n        /* \"--CODEGEN--\":200:249   */\n      jump(tag_48)\n    tag_47:\n        /* \"--CODEGEN--\":185:250   */\n      jump(tag_49)\n    tag_46:\n        /* \"--CODEGEN--\":176:250   */\n      swap2\n      pop\n        /* \"--CODEGEN--\":270:276   */\n      dup1\n        /* \"--CODEGEN--\":263:268   */\n      dup3\n        /* \"--CODEGEN--\":256:277   */\n      mstore\n        /* \"--CODEGEN--\":306:310   */\n      0x20\n        /* \"--CODEGEN--\":298:304   */\n      dup4\n        /* \"--CODEGEN--\":294:311   */\n      add\n        /* \"--CODEGEN--\":339:343   */\n      0x20\n        /* \"--CODEGEN--\":332:337   */\n      dup4\n        /* \"--CODEGEN--\":328:344   */\n      add\n        /* \"--CODEGEN--\":374:377   */\n      dup6\n        /* \"--CODEGEN--\":365:371   */\n      dup4\n        /* \"--CODEGEN--\":360:363   */\n      dup4\n        /* \"--CODEGEN--\":356:372   */\n      add\n        /* \"--CODEGEN--\":353:378   */\n      gt\n        /* \"--CODEGEN--\":350:352   */\n      iszero\n      tag_50\n      jumpi\n        /* \"--CODEGEN--\":391:392   */\n      0x00\n        /* \"--CODEGEN--\":388:389   */\n      dup1\n        /* \"--CODEGEN--\":381:393   */\n      revert\n        /* \"--CODEGEN--\":350:352   */\n    tag_50:\n        /* \"--CODEGEN--\":401:442   */\n      tag_51\n        /* \"--CODEGEN--\":435:441   */\n      dup4\n        /* \"--CODEGEN--\":430:433   */\n      dup3\n        /* \"--CODEGEN--\":425:428   */\n      dup5\n        /* \"--CODEGEN--\":401:442   */\n      jump(tag_52)\n    tag_51:\n        /* \"--CODEGEN--\":68:448   */\n      pop\n      pop\n      pop\n      swap3\n      swap2\n      pop\n      pop\n      jump\n        /* \"--CODEGEN--\":456:586   */\n    tag_53:\n      0x00\n        /* \"--CODEGEN--\":536:542   */\n      dup2\n        /* \"--CODEGEN--\":523:543   */\n      calldataload\n        /* \"--CODEGEN--\":514:543   */\n      swap1\n      pop\n        /* \"--CODEGEN--\":548:581   */\n      tag_55\n        /* \"--CODEGEN--\":575:580   */\n      dup2\n        /* \"--CODEGEN--\":548:581   */\n      jump(tag_56)\n    tag_55:\n        /* \"--CODEGEN--\":508:586   */\n      swap3\n      swap2\n      pop\n      pop\n      jump\n        /* \"--CODEGEN--\":593:940   */\n    tag_9:\n      0x00\n        /* \"--CODEGEN--\":707:709   */\n      0x20\n        /* \"--CODEGEN--\":695:704   */\n      dup3\n        /* \"--CODEGEN--\":686:693   */\n      dup5\n        /* \"--CODEGEN--\":682:705   */\n      sub\n        /* \"--CODEGEN--\":678:710   */\n      slt\n        /* \"--CODEGEN--\":675:677   */\n      iszero\n      tag_58\n      jumpi\n        /* \"--CODEGEN--\":723:724   */\n      0x00\n        /* \"--CODEGEN--\":720:721   */\n      dup1\n        /* \"--CODEGEN--\":713:725   */\n      revert\n        /* \"--CODEGEN--\":675:677   */\n    tag_58:\n        /* \"--CODEGEN--\":786:787   */\n      0x00\n        /* \"--CODEGEN--\":775:784   */\n      dup3\n        /* \"--CODEGEN--\":771:788   */\n      add\n        /* \"--CODEGEN--\":758:789   */\n      calldataload\n        /* \"--CODEGEN--\":809:827   */\n      0xffffffffffffffff\n        /* \"--CODEGEN--\":801:807   */\n      dup2\n        /* \"--CODEGEN--\":798:828   */\n      gt\n        /* \"--CODEGEN--\":795:797   */\n      iszero\n      tag_59\n      jumpi\n        /* \"--CODEGEN--\":841:842   */\n      0x00\n        /* \"--CODEGEN--\":838:839   */\n      dup1\n        /* \"--CODEGEN--\":831:843   */\n      revert\n        /* \"--CODEGEN--\":795:797   */\n    tag_59:\n        /* \"--CODEGEN--\":861:924   */\n      tag_60\n        /* \"--CODEGEN--\":916:923   */\n      dup5\n        /* \"--CODEGEN--\":907:913   */\n      dup3\n        /* \"--CODEGEN--\":896:905   */\n      dup6\n        /* \"--CODEGEN--\":892:914   */\n      add\n        /* \"--CODEGEN--\":861:924   */\n      jump(tag_43)\n    tag_60:\n        /* \"--CODEGEN--\":851:924   */\n      swap2\n      pop\n        /* \"--CODEGEN--\":737:930   */\n      pop\n        /* \"--CODEGEN--\":669:940   */\n      swap3\n      swap2\n      pop\n      pop\n      jump\n        /* \"--CODEGEN--\":947:1419   */\n    tag_13:\n      0x00\n      dup1\n        /* \"--CODEGEN--\":1078:1080   */\n      0x40\n        /* \"--CODEGEN--\":1066:1075   */\n      dup4\n        /* \"--CODEGEN--\":1057:1064   */\n      dup6\n        /* \"--CODEGEN--\":1053:1076   */\n      sub\n        /* \"--CODEGEN--\":1049:1081   */\n      slt\n        /* \"--CODEGEN--\":1046:1048   */\n      iszero\n      tag_62\n      jumpi\n        /* \"--CODEGEN--\":1094:1095   */\n      0x00\n        /* \"--CODEGEN--\":1091:1092   */\n      dup1\n        /* \"--CODEGEN--\":1084:1096   */\n      revert\n        /* \"--CODEGEN--\":1046:1048   */\n    tag_62:\n        /* \"--CODEGEN--\":1157:1158   */\n      0x00\n        /* \"--CODEGEN--\":1146:1155   */\n      dup4\n        /* \"--CODEGEN--\":1142:1159   */\n      add\n        /* \"--CODEGEN--\":1129:1160   */\n      calldataload\n        /* \"--CODEGEN--\":1180:1198   */\n      0xffffffffffffffff\n        /* \"--CODEGEN--\":1172:1178   */\n      dup2\n        /* \"--CODEGEN--\":1169:1199   */\n      gt\n        /* \"--CODEGEN--\":1166:1168   */\n      iszero\n      tag_63\n      jumpi\n        /* \"--CODEGEN--\":1212:1213   */\n      0x00\n        /* \"--CODEGEN--\":1209:1210   */\n      dup1\n        /* \"--CODEGEN--\":1202:1214   */\n      revert\n        /* \"--CODEGEN--\":1166:1168   */\n    tag_63:\n        /* \"--CODEGEN--\":1232:1295   */\n      tag_64\n        /* \"--CODEGEN--\":1287:1294   */\n      dup6\n        /* \"--CODEGEN--\":1278:1284   */\n      dup3\n        /* \"--CODEGEN--\":1267:1276   */\n      dup7\n        /* \"--CODEGEN--\":1263:1285   */\n      add\n        /* \"--CODEGEN--\":1232:1295   */\n      jump(tag_43)\n    tag_64:\n        /* \"--CODEGEN--\":1222:1295   */\n      swap3\n      pop\n        /* \"--CODEGEN--\":1108:1301   */\n      pop\n        /* \"--CODEGEN--\":1332:1334   */\n      0x20\n        /* \"--CODEGEN--\":1350:1403   */\n      tag_65\n        /* \"--CODEGEN--\":1395:1402   */\n      dup6\n        /* \"--CODEGEN--\":1386:1392   */\n      dup3\n        /* \"--CODEGEN--\":1375:1384   */\n      dup7\n        /* \"--CODEGEN--\":1371:1393   */\n      add\n        /* \"--CODEGEN--\":1350:1403   */\n      jump(tag_53)\n    tag_65:\n        /* \"--CODEGEN--\":1340:1403   */\n      swap2\n      pop\n        /* \"--CODEGEN--\":1311:1409   */\n      pop\n        /* \"--CODEGEN--\":1040:1419   */\n      swap3\n      pop\n      swap3\n      swap1\n      pop\n      jump\n        /* \"--CODEGEN--\":1426:1530   */\n    tag_66:\n        /* \"--CODEGEN--\":1503:1524   */\n      tag_68\n        /* \"--CODEGEN--\":1518:1523   */\n      dup2\n        /* \"--CODEGEN--\":1503:1524   */\n      jump(tag_69)\n    tag_68:\n        /* \"--CODEGEN--\":1498:1501   */\n      dup3\n        /* \"--CODEGEN--\":1491:1525   */\n      mstore\n        /* \"--CODEGEN--\":1485:1530   */\n      pop\n      pop\n      jump\n        /* \"--CODEGEN--\":1537:1897   */\n    tag_70:\n      0x00\n        /* \"--CODEGEN--\":1667:1706   */\n      tag_72\n        /* \"--CODEGEN--\":1700:1705   */\n      dup3\n        /* \"--CODEGEN--\":1667:1706   */\n      jump(tag_73)\n    tag_72:\n        /* \"--CODEGEN--\":1718:1807   */\n      tag_74\n        /* \"--CODEGEN--\":1800:1806   */\n      dup2\n        /* \"--CODEGEN--\":1795:1798   */\n      dup6\n        /* \"--CODEGEN--\":1718:1807   */\n      jump(tag_75)\n    tag_74:\n        /* \"--CODEGEN--\":1711:1807   */\n      swap4\n      pop\n        /* \"--CODEGEN--\":1812:1864   */\n      tag_76\n        /* \"--CODEGEN--\":1857:1863   */\n      dup2\n        /* \"--CODEGEN--\":1852:1855   */\n      dup6\n        /* \"--CODEGEN--\":1845:1849   */\n      0x20\n        /* \"--CODEGEN--\":1838:1843   */\n      dup7\n        /* \"--CODEGEN--\":1834:1850   */\n      add\n        /* \"--CODEGEN--\":1812:1864   */\n      jump(tag_77)\n    tag_76:\n        /* \"--CODEGEN--\":1885:1891   */\n      dup1\n        /* \"--CODEGEN--\":1880:1883   */\n      dup5\n        /* \"--CODEGEN--\":1876:1892   */\n      add\n        /* \"--CODEGEN--\":1869:1892   */\n      swap2\n      pop\n        /* \"--CODEGEN--\":1647:1897   */\n      pop\n      swap3\n      swap2\n      pop\n      pop\n      jump\n        /* \"--CODEGEN--\":1904:2170   */\n    tag_27:\n      0x00\n        /* \"--CODEGEN--\":2050:2145   */\n      tag_79\n        /* \"--CODEGEN--\":2141:2144   */\n      dup3\n        /* \"--CODEGEN--\":2132:2138   */\n      dup5\n        /* \"--CODEGEN--\":2050:2145   */\n      jump(tag_70)\n    tag_79:\n        /* \"--CODEGEN--\":2043:2145   */\n      swap2\n      pop\n        /* \"--CODEGEN--\":2162:2165   */\n      dup2\n        /* \"--CODEGEN--\":2155:2165   */\n      swap1\n      pop\n        /* \"--CODEGEN--\":2031:2170   */\n      swap3\n      swap2\n      pop\n      pop\n      jump\n        /* \"--CODEGEN--\":2177:2378   */\n    tag_19:\n      0x00\n        /* \"--CODEGEN--\":2289:2291   */\n      0x20\n        /* \"--CODEGEN--\":2278:2287   */\n      dup3\n        /* \"--CODEGEN--\":2274:2292   */\n      add\n        /* \"--CODEGEN--\":2266:2292   */\n      swap1\n      pop\n        /* \"--CODEGEN--\":2303:2368   */\n      tag_81\n        /* \"--CODEGEN--\":2365:2366   */\n      0x00\n        /* \"--CODEGEN--\":2354:2363   */\n      dup4\n        /* \"--CODEGEN--\":2350:2367   */\n      add\n        /* \"--CODEGEN--\":2341:2347   */\n      dup5\n        /* \"--CODEGEN--\":2303:2368   */\n      jump(tag_66)\n    tag_81:\n        /* \"--CODEGEN--\":2260:2378   */\n      swap3\n      swap2\n      pop\n      pop\n      jump\n        /* \"--CODEGEN--\":2385:2641   */\n    tag_49:\n      0x00\n        /* \"--CODEGEN--\":2447:2449   */\n      0x40\n        /* \"--CODEGEN--\":2441:2450   */\n      mload\n        /* \"--CODEGEN--\":2431:2450   */\n      swap1\n      pop\n        /* \"--CODEGEN--\":2485:2489   */\n      dup2\n        /* \"--CODEGEN--\":2477:2483   */\n      dup2\n        /* \"--CODEGEN--\":2473:2490   */\n      add\n        /* \"--CODEGEN--\":2584:2590   */\n      dup2\n        /* \"--CODEGEN--\":2572:2582   */\n      dup2\n        /* \"--CODEGEN--\":2569:2591   */\n      lt\n        /* \"--CODEGEN--\":2548:2566   */\n      0xffffffffffffffff\n        /* \"--CODEGEN--\":2536:2546   */\n      dup3\n        /* \"--CODEGEN--\":2533:2567   */\n      gt\n        /* \"--CODEGEN--\":2530:2592   */\n      or\n        /* \"--CODEGEN--\":2527:2529   */\n      iszero\n      tag_83\n      jumpi\n        /* \"--CODEGEN--\":2605:2606   */\n      0x00\n        /* \"--CODEGEN--\":2602:2603   */\n      dup1\n        /* \"--CODEGEN--\":2595:2607   */\n      revert\n        /* \"--CODEGEN--\":2527:2529   */\n    tag_83:\n        /* \"--CODEGEN--\":2625:2635   */\n      dup1\n        /* \"--CODEGEN--\":2621:2623   */\n      0x40\n        /* \"--CODEGEN--\":2614:2636   */\n      mstore\n        /* \"--CODEGEN--\":2425:2641   */\n      pop\n      swap2\n      swap1\n      pop\n      jump\n        /* \"--CODEGEN--\":2648:2970   */\n    tag_48:\n      0x00\n        /* \"--CODEGEN--\":2792:2810   */\n      0xffffffffffffffff\n        /* \"--CODEGEN--\":2784:2790   */\n      dup3\n        /* \"--CODEGEN--\":2781:2811   */\n      gt\n        /* \"--CODEGEN--\":2778:2780   */\n      iszero\n      tag_85\n      jumpi\n        /* \"--CODEGEN--\":2824:2825   */\n      0x00\n        /* \"--CODEGEN--\":2821:2822   */\n      dup1\n        /* \"--CODEGEN--\":2814:2826   */\n      revert\n        /* \"--CODEGEN--\":2778:2780   */\n    tag_85:\n        /* \"--CODEGEN--\":2891:2895   */\n      0x1f\n        /* \"--CODEGEN--\":2887:2896   */\n      not\n        /* \"--CODEGEN--\":2880:2884   */\n      0x1f\n        /* \"--CODEGEN--\":2872:2878   */\n      dup4\n        /* \"--CODEGEN--\":2868:2885   */\n      add\n        /* \"--CODEGEN--\":2864:2897   */\n      and\n        /* \"--CODEGEN--\":2856:2897   */\n      swap1\n      pop\n        /* \"--CODEGEN--\":2955:2959   */\n      0x20\n        /* \"--CODEGEN--\":2949:2953   */\n      dup2\n        /* \"--CODEGEN--\":2945:2960   */\n      add\n        /* \"--CODEGEN--\":2937:2960   */\n      swap1\n      pop\n        /* \"--CODEGEN--\":2715:2970   */\n      swap2\n      swap1\n      pop\n      jump\n        /* \"--CODEGEN--\":2977:3099   */\n    tag_73:\n      0x00\n        /* \"--CODEGEN--\":3071:3076   */\n      dup2\n        /* \"--CODEGEN--\":3065:3077   */\n      mload\n        /* \"--CODEGEN--\":3055:3077   */\n      swap1\n      pop\n        /* \"--CODEGEN--\":3036:3099   */\n      swap2\n      swap1\n      pop\n      jump\n        /* \"--CODEGEN--\":3107:3252   */\n    tag_75:\n      0x00\n        /* \"--CODEGEN--\":3243:3246   */\n      dup2\n        /* \"--CODEGEN--\":3228:3246   */\n      swap1\n      pop\n        /* \"--CODEGEN--\":3221:3252   */\n      swap3\n      swap2\n      pop\n      pop\n      jump\n        /* \"--CODEGEN--\":3260:3345   */\n    tag_69:\n      0x00\n        /* \"--CODEGEN--\":3333:3338   */\n      dup2\n        /* \"--CODEGEN--\":3326:3339   */\n      iszero\n        /* \"--CODEGEN--\":3319:3340   */\n      iszero\n        /* \"--CODEGEN--\":3308:3340   */\n      swap1\n      pop\n        /* \"--CODEGEN--\":3302:3345   */\n      swap2\n      swap1\n      pop\n      jump\n        /* \"--CODEGEN--\":3352:3424   */\n    tag_89:\n      0x00\n        /* \"--CODEGEN--\":3414:3419   */\n      dup2\n        /* \"--CODEGEN--\":3403:3419   */\n      swap1\n      pop\n        /* \"--CODEGEN--\":3397:3424   */\n      swap2\n      swap1\n      pop\n      jump\n        /* \"--CODEGEN--\":3432:3577   */\n    tag_52:\n        /* \"--CODEGEN--\":3513:3519   */\n      dup3\n        /* \"--CODEGEN--\":3508:3511   */\n      dup2\n        /* \"--CODEGEN--\":3503:3506   */\n      dup4\n        /* \"--CODEGEN--\":3490:3520   */\n      calldatacopy\n        /* \"--CODEGEN--\":3569:3570   */\n      0x00\n        /* \"--CODEGEN--\":3560:3566   */\n      dup4\n        /* \"--CODEGEN--\":3555:3558   */\n      dup4\n        /* \"--CODEGEN--\":3551:3567   */\n      add\n        /* \"--CODEGEN--\":3544:3571   */\n      mstore\n        /* \"--CODEGEN--\":3483:3577   */\n      pop\n      pop\n      pop\n      jump\n        /* \"--CODEGEN--\":3586:3854   */\n    tag_77:\n        /* \"--CODEGEN--\":3651:3652   */\n      0x00\n        /* \"--CODEGEN--\":3658:3759   */\n    tag_93:\n        /* \"--CODEGEN--\":3672:3678   */\n      dup4\n        /* \"--CODEGEN--\":3669:3670   */\n      dup2\n        /* \"--CODEGEN--\":3666:3679   */\n      lt\n        /* \"--CODEGEN--\":3658:3759   */\n      iszero\n      tag_95\n      jumpi\n        /* \"--CODEGEN--\":3748:3749   */\n      dup1\n        /* \"--CODEGEN--\":3743:3746   */\n      dup3\n        /* \"--CODEGEN--\":3739:3750   */\n      add\n        /* \"--CODEGEN--\":3733:3751   */\n      mload\n        /* \"--CODEGEN--\":3729:3730   */\n      dup2\n        /* \"--CODEGEN--\":3724:3727   */\n      dup5\n        /* \"--CODEGEN--\":3720:3731   */\n      add\n        /* \"--CODEGEN--\":3713:3752   */\n      mstore\n        /* \"--CODEGEN--\":3694:3696   */\n      0x20\n        /* \"--CODEGEN--\":3691:3692   */\n      dup2\n        /* \"--CODEGEN--\":3687:3697   */\n      add\n        /* \"--CODEGEN--\":3682:3697   */\n      swap1\n      pop\n        /* \"--CODEGEN--\":3658:3759   */\n      jump(tag_93)\n    tag_95:\n        /* \"--CODEGEN--\":3774:3780   */\n      dup4\n        /* \"--CODEGEN--\":3771:3772   */\n      dup2\n        /* \"--CODEGEN--\":3768:3781   */\n      gt\n        /* \"--CODEGEN--\":3765:3767   */\n      iszero\n      tag_96\n      jumpi\n        /* \"--CODEGEN--\":3839:3840   */\n      0x00\n        /* \"--CODEGEN--\":3830:3836   */\n      dup5\n        /* \"--CODEGEN--\":3825:3828   */\n      dup5\n        /* \"--CODEGEN--\":3821:3837   */\n      add\n        /* \"--CODEGEN--\":3814:3841   */\n      mstore\n        /* \"--CODEGEN--\":3765:3767   */\n    tag_96:\n        /* \"--CODEGEN--\":3635:3854   */\n      pop\n      pop\n      pop\n      pop\n      jump\n        /* \"--CODEGEN--\":3862:3979   */\n    tag_56:\n        /* \"--CODEGEN--\":3931:3955   */\n      tag_98\n        /* \"--CODEGEN--\":3949:3954   */\n      dup2\n        /* \"--CODEGEN--\":3931:3955   */\n      jump(tag_89)\n    tag_98:\n        /* \"--CODEGEN--\":3924:3929   */\n      dup2\n        /* \"--CODEGEN--\":3921:3956   */\n      eq\n        /* \"--CODEGEN--\":3911:3913   */\n      tag_99\n      jumpi\n        /* \"--CODEGEN--\":3970:3971   */\n      0x00\n        /* \"--CODEGEN--\":3967:3968   */\n      dup1\n        /* \"--CODEGEN--\":3960:3972   */\n      revert\n        /* \"--CODEGEN--\":3911:3913   */\n    tag_99:\n        /* \"--CODEGEN--\":3905:3979   */\n      pop\n      jump\n\n    auxdata: 0xa2646970667358221220b44ac8c68dbd2d4521043380b95a81225faaa25a3a688a824cd3e4aa81557cde64736f6c63430006000033\n}\n",
				"bytecode": {
					"linkReferences": {},
					"object": "608060405234801561001057600080fd5b50610509806100206000396000f3fe608060405234801561001057600080fd5b506004361061004c5760003560e01c8063084f9c3714610051578063276a05bf1461006d5780633b5c9dc41461008957806350eacac2146100b9575b600080fd5b61006b600480360361006691908101906102ee565b6100d5565b005b6100876004803603610082919081019061032f565b6100e1565b005b6100a3600480360361009e919081019061032f565b610114565b6040516100b091906103da565b60405180910390f35b6100d360048036036100ce91908101906102ee565b61011c565b005b6100de8161011c565b50565b806000836040516100f291906103c3565b9081526020016040518091039020600201600082825401925050819055505050565b600092915050565b60405180606001604052808281526020013373ffffffffffffffffffffffffffffffffffffffff168152602001600081525060008260405161015e91906103c3565b908152602001604051809103902060008201518160000190805190602001906101889291906101e0565b5060208201518160010160006101000a81548173ffffffffffffffffffffffffffffffffffffffff021916908373ffffffffffffffffffffffffffffffffffffffff1602179055506040820151816002015590505050565b828054600181600116156101000203166002900490600052602060002090601f016020900481019282601f1061022157805160ff191683800117855561024f565b8280016001018555821561024f579182015b8281111561024e578251825591602001919060010190610233565b5b50905061025c9190610260565b5090565b61028291905b8082111561027e576000816000905550600101610266565b5090565b90565b600082601f83011261029657600080fd5b81356102a96102a482610422565b6103f5565b915080825260208301602083018583830111156102c557600080fd5b6102d083828461047a565b50505092915050565b6000813590506102e8816104bc565b92915050565b60006020828403121561030057600080fd5b600082013567ffffffffffffffff81111561031a57600080fd5b61032684828501610285565b91505092915050565b6000806040838503121561034257600080fd5b600083013567ffffffffffffffff81111561035c57600080fd5b61036885828601610285565b9250506020610379858286016102d9565b9150509250929050565b61038c81610464565b82525050565b600061039d8261044e565b6103a78185610459565b93506103b7818560208601610489565b80840191505092915050565b60006103cf8284610392565b915081905092915050565b60006020820190506103ef6000830184610383565b92915050565b6000604051905081810181811067ffffffffffffffff8211171561041857600080fd5b8060405250919050565b600067ffffffffffffffff82111561043957600080fd5b601f19601f8301169050602081019050919050565b600081519050919050565b600081905092915050565b60008115159050919050565b6000819050919050565b82818337600083830152505050565b60005b838110156104a757808201518184015260208101905061048c565b838111156104b6576000848401525b50505050565b6104c581610470565b81146104d057600080fd5b5056fea2646970667358221220b44ac8c68dbd2d4521043380b95a81225faaa25a3a688a824cd3e4aa81557cde64736f6c63430006000033",
					"opcodes": "PUSH1 0x80 PUSH1 0x40 MSTORE CALLVALUE DUP1 ISZERO PUSH2 0x10 JUMPI PUSH1 0x0 DUP1 REVERT JUMPDEST POP PUSH2 0x509 DUP1 PUSH2 0x20 PUSH1 0x0 CODECOPY PUSH1 0x0 RETURN INVALID PUSH1 0x80 PUSH1 0x40 MSTORE CALLVALUE DUP1 ISZERO PUSH2 0x10 JUMPI PUSH1 0x0 DUP1 REVERT JUMPDEST POP PUSH1 0x4 CALLDATASIZE LT PUSH2 0x4C JUMPI PUSH1 0x0 CALLDATALOAD PUSH1 0xE0 SHR DUP1 PUSH4 0x84F9C37 EQ PUSH2 0x51 JUMPI DUP1 PUSH4 0x276A05BF EQ PUSH2 0x6D JUMPI DUP1 PUSH4 0x3B5C9DC4 EQ PUSH2 0x89 JUMPI DUP1 PUSH4 0x50EACAC2 EQ PUSH2 0xB9 JUMPI JUMPDEST PUSH1 0x0 DUP1 REVERT JUMPDEST PUSH2 0x6B PUSH1 0x4 DUP1 CALLDATASIZE SUB PUSH2 0x66 SWAP2 SWAP1 DUP2 ADD SWAP1 PUSH2 0x2EE JUMP JUMPDEST PUSH2 0xD5 JUMP JUMPDEST STOP JUMPDEST PUSH2 0x87 PUSH1 0x4 DUP1 CALLDATASIZE SUB PUSH2 0x82 SWAP2 SWAP1 DUP2 ADD SWAP1 PUSH2 0x32F JUMP JUMPDEST PUSH2 0xE1 JUMP JUMPDEST STOP JUMPDEST PUSH2 0xA3 PUSH1 0x4 DUP1 CALLDATASIZE SUB PUSH2 0x9E SWAP2 SWAP1 DUP2 ADD SWAP1 PUSH2 0x32F JUMP JUMPDEST PUSH2 0x114 JUMP JUMPDEST PUSH1 0x40 MLOAD PUSH2 0xB0 SWAP2 SWAP1 PUSH2 0x3DA JUMP JUMPDEST PUSH1 0x40 MLOAD DUP1 SWAP2 SUB SWAP1 RETURN JUMPDEST PUSH2 0xD3 PUSH1 0x4 DUP1 CALLDATASIZE SUB PUSH2 0xCE SWAP2 SWAP1 DUP2 ADD SWAP1 PUSH2 0x2EE JUMP JUMPDEST PUSH2 0x11C JUMP JUMPDEST STOP JUMPDEST PUSH2 0xDE DUP2 PUSH2 0x11C JUMP JUMPDEST POP JUMP JUMPDEST DUP1 PUSH1 0x0 DUP4 PUSH1 0x40 MLOAD PUSH2 0xF2 SWAP2 SWAP1 PUSH2 0x3C3 JUMP JUMPDEST SWAP1 DUP2 MSTORE PUSH1 0x20 ADD PUSH1 0x40 MLOAD DUP1 SWAP2 SUB SWAP1 KECCAK256 PUSH1 0x2 ADD PUSH1 0x0 DUP3 DUP3 SLOAD ADD SWAP3 POP POP DUP2 SWAP1 SSTORE POP POP POP JUMP JUMPDEST PUSH1 0x0 SWAP3 SWAP2 POP POP JUMP JUMPDEST PUSH1 0x40 MLOAD DUP1 PUSH1 0x60 ADD PUSH1 0x40 MSTORE DUP1 DUP3 DUP2 MSTORE PUSH1 0x20 ADD CALLER PUSH20 0xFFFFFFFFFFFFFFFFFFFFFFFFFFFFFFFFFFFFFFFF AND DUP2 MSTORE PUSH1 0x20 ADD PUSH1 0x0 DUP2 MSTORE POP PUSH1 0x0 DUP3 PUSH1 0x40 MLOAD PUSH2 0x15E SWAP2 SWAP1 PUSH2 0x3C3 JUMP JUMPDEST SWAP1 DUP2 MSTORE PUSH1 0x20 ADD PUSH1 0x40 MLOAD DUP1 SWAP2 SUB SWAP1 KECCAK256 PUSH1 0x0 DUP3 ADD MLOAD DUP2 PUSH1 0x0 ADD SWAP1 DUP1 MLOAD SWAP1 PUSH1 0x20 ADD SWAP1 PUSH2 0x188 SWAP3 SWAP2 SWAP1 PUSH2 0x1E0 JUMP JUMPDEST POP PUSH1 0x20 DUP3 ADD MLOAD DUP2 PUSH1 0x1 ADD PUSH1 0x0 PUSH2 0x100 EXP DUP2 SLOAD DUP2 PUSH20 0xFFFFFFFFFFFFFFFFFFFFFFFFFFFFFFFFFFFFFFFF MUL NOT AND SWAP1 DUP4 PUSH20 0xFFFFFFFFFFFFFFFFFFFFFFFFFFFFFFFFFFFFFFFF AND MUL OR SWAP1 SSTORE POP PUSH1 0x40 DUP3 ADD MLOAD DUP2 PUSH1 0x2 ADD SSTORE SWAP1 POP POP POP JUMP JUMPDEST DUP3 DUP1 SLOAD PUSH1 0x1 DUP2 PUSH1 0x1 AND ISZERO PUSH2 0x100 MUL SUB AND PUSH1 0x2 SWAP1 DIV SWAP1 PUSH1 0x0 MSTORE PUSH1 0x20 PUSH1 0x0 KECCAK256 SWAP1 PUSH1 0x1F ADD PUSH1 0x20 SWAP1 DIV DUP2 ADD SWAP3 DUP3 PUSH1 0x1F LT PUSH2 0x221 JUMPI DUP1 MLOAD PUSH1 0xFF NOT AND DUP4 DUP1 ADD OR DUP6 SSTORE PUSH2 0x24F JUMP JUMPDEST DUP3 DUP1 ADD PUSH1 0x1 ADD DUP6 SSTORE DUP3 ISZERO PUSH2 0x24F JUMPI SWAP2 DUP3 ADD JUMPDEST DUP3 DUP2 GT ISZERO PUSH2 0x24E JUMPI DUP3 MLOAD DUP3 SSTORE SWAP2 PUSH1 0x20 ADD SWAP2 SWAP1 PUSH1 0x1 ADD SWAP1 PUSH2 0x233 JUMP JUMPDEST JUMPDEST POP SWAP1 POP PUSH2 0x25C SWAP2 SWAP1 PUSH2 0x260 JUMP JUMPDEST POP SWAP1 JUMP JUMPDEST PUSH2 0x282 SWAP2 SWAP1 JUMPDEST DUP1 DUP3 GT ISZERO PUSH2 0x27E JUMPI PUSH1 0x0 DUP2 PUSH1 0x0 SWAP1 SSTORE POP PUSH1 0x1 ADD PUSH2 0x266 JUMP JUMPDEST POP SWAP1 JUMP JUMPDEST SWAP1 JUMP JUMPDEST PUSH1 0x0 DUP3 PUSH1 0x1F DUP4 ADD SLT PUSH2 0x296 JUMPI PUSH1 0x0 DUP1 REVERT JUMPDEST DUP2 CALLDATALOAD PUSH2 0x2A9 PUSH2 0x2A4 DUP3 PUSH2 0x422 JUMP JUMPDEST PUSH2 0x3F5 JUMP JUMPDEST SWAP2 POP DUP1 DUP3 MSTORE PUSH1 0x20 DUP4 ADD PUSH1 0x20 DUP4 ADD DUP6 DUP4 DUP4 ADD GT ISZERO PUSH2 0x2C5 JUMPI PUSH1 0x0 DUP1 REVERT JUMPDEST PUSH2 0x2D0 DUP4 DUP3 DUP5 PUSH2 0x47A JUMP JUMPDEST POP POP POP SWAP3 SWAP2 POP POP JUMP JUMPDEST PUSH1 0x0 DUP2 CALLDATALOAD SWAP1 POP PUSH2 0x2E8 DUP2 PUSH2 0x4BC JUMP JUMPDEST SWAP3 SWAP2 POP POP JUMP JUMPDEST PUSH1 0x0 PUSH1 0x20 DUP3 DUP5 SUB SLT ISZERO PUSH2 0x300 JUMPI PUSH1 0x0 DUP1 REVERT JUMPDEST PUSH1 0x0 DUP3 ADD CALLDATALOAD PUSH8 0xFFFFFFFFFFFFFFFF DUP2 GT ISZERO PUSH2 0x31A JUMPI PUSH1 0x0 DUP1 REVERT JUMPDEST PUSH2 0x326 DUP5 DUP3 DUP6 ADD PUSH2 0x285 JUMP JUMPDEST SWAP2 POP POP SWAP3 SWAP2 POP POP JUMP JUMPDEST PUSH1 0x0 DUP1 PUSH1 0x40 DUP4 DUP6 SUB SLT ISZERO PUSH2 0x342 JUMPI PUSH1 0x0 DUP1 REVERT JUMPDEST PUSH1 0x0 DUP4 ADD CALLDATALOAD PUSH8 0xFFFFFFFFFFFFFFFF DUP2 GT ISZERO PUSH2 0x35C JUMPI PUSH1 0x0 DUP1 REVERT JUMPDEST PUSH2 0x368 DUP6 DUP3 DUP7 ADD PUSH2 0x285 JUMP JUMPDEST SWAP3 POP POP PUSH1 0x20 PUSH2 0x379 DUP6 DUP3 DUP7 ADD PUSH2 0x2D9 JUMP JUMPDEST SWAP2 POP POP SWAP3 POP SWAP3 SWAP1 POP JUMP JUMPDEST PUSH2 0x38C DUP2 PUSH2 0x464 JUMP JUMPDEST DUP3 MSTORE POP POP JUMP JUMPDEST PUSH1 0x0 PUSH2 0x39D DUP3 PUSH2 0x44E JUMP JUMPDEST PUSH2 0x3A7 DUP2 DUP6 PUSH2 0x459 JUMP JUMPDEST SWAP4 POP PUSH2 0x3B7 DUP2 DUP6 PUSH1 0x20 DUP7 ADD PUSH2 0x489 JUMP JUMPDEST DUP1 DUP5 ADD SWAP2 POP POP SWAP3 SWAP2 POP POP JUMP JUMPDEST PUSH1 0x0 PUSH2 0x3CF DUP3 DUP5 PUSH2 0x392 JUMP JUMPDEST SWAP2 POP DUP2 SWAP1 POP SWAP3 SWAP2 POP POP JUMP JUMPDEST PUSH1 0x0 PUSH1 0x20 DUP3 ADD SWAP1 POP PUSH2 0x3EF PUSH1 0x0 DUP4 ADD DUP5 PUSH2 0x383 JUMP JUMPDEST SWAP3 SWAP2 POP POP JUMP JUMPDEST PUSH1 0x0 PUSH1 0x40 MLOAD SWAP1 POP DUP2 DUP2 ADD DUP2 DUP2 LT PUSH8 0xFFFFFFFFFFFFFFFF DUP3 GT OR ISZERO PUSH2 0x418 JUMPI PUSH1 0x0 DUP1 REVERT JUMPDEST DUP1 PUSH1 0x40 MSTORE POP SWAP2 SWAP1 POP JUMP JUMPDEST PUSH1 0x0 PUSH8 0xFFFFFFFFFFFFFFFF DUP3 GT ISZERO PUSH2 0x439 JUMPI PUSH1 0x0 DUP1 REVERT JUMPDEST PUSH1 0x1F NOT PUSH1 0x1F DUP4 ADD AND SWAP1 POP PUSH1 0x20 DUP2 ADD SWAP1 POP SWAP2 SWAP1 POP JUMP JUMPDEST PUSH1 0x0 DUP2 MLOAD SWAP1 POP SWAP2 SWAP1 POP JUMP JUMPDEST PUSH1 0x0 DUP2 SWAP1 POP SWAP3 SWAP2 POP POP JUMP JUMPDEST PUSH1 0x0 DUP2 ISZERO ISZERO SWAP1 POP SWAP2 SWAP1 POP JUMP JUMPDEST PUSH1 0x0 DUP2 SWAP1 POP SWAP2 SWAP1 POP JUMP JUMPDEST DUP3 DUP2 DUP4 CALLDATACOPY PUSH1 0x0 DUP4 DUP4 ADD MSTORE POP POP POP JUMP JUMPDEST PUSH1 0x0 JUMPDEST DUP4 DUP2 LT ISZERO PUSH2 0x4A7 JUMPI DUP1 DUP3 ADD MLOAD DUP2 DUP5 ADD MSTORE PUSH1 0x20 DUP2 ADD SWAP1 POP PUSH2 0x48C JUMP JUMPDEST DUP4 DUP2 GT ISZERO PUSH2 0x4B6 JUMPI PUSH1 0x0 DUP5 DUP5 ADD MSTORE JUMPDEST POP POP POP POP JUMP JUMPDEST PUSH2 0x4C5 DUP2 PUSH2 0x470 JUMP JUMPDEST DUP2 EQ PUSH2 0x4D0 JUMPI PUSH1 0x0 DUP1 REVERT JUMPDEST POP JUMP INVALID LOG2 PUSH5 0x6970667358 0x22 SLT KECCAK256 0xB4 0x4A 0xC8 0xC6 DUP14 0xBD 0x2D GASLIMIT 0x21 DIV CALLER DUP1 0xB9 GAS DUP2 0x22 0x5F 0xAA LOG2 GAS GASPRICE PUSH9 0x8A824CD3E4AA81557C 0xDE PUSH5 0x736F6C6343 STOP MOD STOP STOP CALLER "
				},
				"gasEstimates": {
					"creation": {
						"codeDepositCost": "257800",
						"executionCost": "300",
						"totalCost": "258100"
					},
					"external": {
						"altaCliente(string)": "infinite",
						"crearCliente(string)": "infinite",
						"ingresarDinero(string,uint256)": "infinite",
						"retirarDinero(string,uint256)": "infinite"
					}
				},
				"methodIdentifiers": {
					"altaCliente(string)": "084f9c37",
					"crearCliente(string)": "50eacac2",
					"ingresarDinero(string,uint256)": "276a05bf",
					"retirarDinero(string,uint256)": "3b5c9dc4"
				}
			},
			"storageLayout": {
				"storage": [
					{
						"astId": 13,
						"contract": "Interactuar con varios SC/herencia.sol:Cliente",
						"label": "clientes",
						"offset": 0,
						"slot": "0",
						"type": "t_mapping(t_string_memory,t_struct(cliente)9_storage)"
					}
				],
				"types": {
					"t_address": {
						"encoding": "inplace",
						"label": "address",
						"numberOfBytes": "20"
					},
					"t_mapping(t_string_memory,t_struct(cliente)9_storage)": {
						"encoding": "mapping",
						"key": "t_string_memory",
						"label": "mapping(string => struct Banco.cliente)",
						"numberOfBytes": "32",
						"value": "t_struct(cliente)9_storage"
					},
					"t_string_memory": {
						"encoding": "bytes",
						"label": "string",
						"numberOfBytes": "32"
					},
					"t_string_storage": {
						"encoding": "bytes",
						"label": "string",
						"numberOfBytes": "32"
					},
					"t_struct(cliente)9_storage": {
						"encoding": "inplace",
						"label": "struct Banco.cliente",
						"members": [
							{
								"astId": 4,
								"contract": "Interactuar con varios SC/herencia.sol:Cliente",
								"label": "_nombre",
								"offset": 0,
								"slot": "0",
								"type": "t_string_storage"
							},
							{
								"astId": 6,
								"contract": "Interactuar con varios SC/herencia.sol:Cliente",
								"label": "drieccion",
								"offset": 0,
								"slot": "1",
								"type": "t_address"
							},
							{
								"astId": 8,
								"contract": "Interactuar con varios SC/herencia.sol:Cliente",
								"label": "dinero",
								"offset": 0,
								"slot": "2",
								"type": "t_uint256"
							}
						],
						"numberOfBytes": "96"
					},
					"t_uint256": {
						"encoding": "inplace",
						"label": "uint256",
						"numberOfBytes": "32"
					}
				}
			},
			"userdoc": {
				"methods": {}
			}
		}
	}
}