{
	"Interactuar con varios SC/librerias.sol": {
		"Operaciones": {
			"abi": [
				{
					"inputs": [
						{
							"internalType": "uint256",
							"name": "_i",
							"type": "uint256"
						},
						{
							"internalType": "uint256",
							"name": "_j",
							"type": "uint256"
						}
					],
					"name": "division",
					"outputs": [
						{
							"internalType": "uint256",
							"name": "",
							"type": "uint256"
						}
					],
					"stateMutability": "pure",
					"type": "function"
				},
				{
					"inputs": [
						{
							"internalType": "uint256",
							"name": "_i",
							"type": "uint256"
						},
						{
							"internalType": "uint256",
							"name": "_j",
							"type": "uint256"
						}
					],
					"name": "mult",
					"outputs": [
						{
							"internalType": "uint256",
							"name": "",
							"type": "uint256"
						}
					],
					"stateMutability": "pure",
					"type": "function"
				}
			],
			"devdoc": {
				"methods": {}
			},
			"evm": {
				"assembly": "    /* \"Interactuar con varios SC/librerias.sol\":62:343  library Operaciones{\r... */\n  dataSize(sub_0)\n  dataOffset(sub_0)\n    /* \"--CODEGEN--\":132:134   */\n  0x0b\n    /* \"--CODEGEN--\":166:173   */\n  dup3\n    /* \"--CODEGEN--\":155:164   */\n  dup3\n    /* \"--CODEGEN--\":146:153   */\n  dup3\n    /* \"--CODEGEN--\":137:174   */\n  codecopy\n    /* \"--CODEGEN--\":255:262   */\n  dup1\n    /* \"--CODEGEN--\":249:263   */\n  mload\n    /* \"--CODEGEN--\":246:247   */\n  0x00\n    /* \"--CODEGEN--\":241:264   */\n  byte\n    /* \"--CODEGEN--\":235:239   */\n  0x73\n    /* \"--CODEGEN--\":232:265   */\n  eq\n    /* \"--CODEGEN--\":222:224   */\n  tag_1\n  jumpi\n    /* \"--CODEGEN--\":269:278   */\n  invalid\n    /* \"--CODEGEN--\":222:224   */\ntag_1:\n    /* \"--CODEGEN--\":293:302   */\n  address\n    /* \"--CODEGEN--\":290:291   */\n  0x00\n    /* \"--CODEGEN--\":283:303   */\n  mstore\n    /* \"--CODEGEN--\":323:327   */\n  0x73\n    /* \"--CODEGEN--\":314:321   */\n  dup2\n    /* \"--CODEGEN--\":306:328   */\n  mstore8\n    /* \"--CODEGEN--\":347:354   */\n  dup3\n    /* \"--CODEGEN--\":338:345   */\n  dup2\n    /* \"--CODEGEN--\":331:355   */\n  return\nstop\n\nsub_0: assembly {\n        /* \"Interactuar con varios SC/librerias.sol\":62:343  library Operaciones{\r... */\n      eq(address, deployTimeAddress())\n      mstore(0x40, 0x80)\n      jumpi(tag_1, lt(calldatasize, 0x04))\n      shr(0xe0, calldataload(0x00))\n      dup1\n      0x9aa727f6\n      eq\n      tag_2\n      jumpi\n      dup1\n      0xe0068052\n      eq\n      tag_3\n      jumpi\n    tag_1:\n      0x00\n      dup1\n      revert\n        /* \"Interactuar con varios SC/librerias.sol\":248:338  function mult(uint _i, uint _j) public pure returns(uint){\r... */\n    tag_2:\n      tag_4\n      0x04\n      dup1\n      calldatasize\n      sub\n      tag_5\n      swap2\n      swap1\n      dup2\n      add\n      swap1\n      jump(tag_6)\n    tag_5:\n      tag_7\n      jump\t// in\n    tag_4:\n      mload(0x40)\n      tag_8\n      swap2\n      swap1\n      jump(tag_9)\n    tag_8:\n      mload(0x40)\n      dup1\n      swap2\n      sub\n      swap1\n      return\n        /* \"Interactuar con varios SC/librerias.sol\":90:236  function division(uint _i, uint _j) public pure returns(uint){\r... */\n    tag_3:\n      tag_10\n      0x04\n      dup1\n      calldatasize\n      sub\n      tag_11\n      swap2\n      swap1\n      dup2\n      add\n      swap1\n      jump(tag_6)\n    tag_11:\n      tag_12\n      jump\t// in\n    tag_10:\n      mload(0x40)\n      tag_13\n      swap2\n      swap1\n      jump(tag_9)\n    tag_13:\n      mload(0x40)\n      dup1\n      swap2\n      sub\n      swap1\n      return\n        /* \"Interactuar con varios SC/librerias.sol\":248:338  function mult(uint _i, uint _j) public pure returns(uint){\r... */\n    tag_7:\n        /* \"Interactuar con varios SC/librerias.sol\":300:304  uint */\n      0x00\n        /* \"Interactuar con varios SC/librerias.sol\":328:330  _j */\n      dup2\n        /* \"Interactuar con varios SC/librerias.sol\":323:325  _i */\n      dup4\n        /* \"Interactuar con varios SC/librerias.sol\":323:330  _i * _j */\n      mul\n        /* \"Interactuar con varios SC/librerias.sol\":316:330  return _i * _j */\n      swap1\n      pop\n        /* \"Interactuar con varios SC/librerias.sol\":248:338  function mult(uint _i, uint _j) public pure returns(uint){\r... */\n      swap3\n      swap2\n      pop\n      pop\n      jump\t// out\n        /* \"Interactuar con varios SC/librerias.sol\":90:236  function division(uint _i, uint _j) public pure returns(uint){\r... */\n    tag_12:\n        /* \"Interactuar con varios SC/librerias.sol\":146:150  uint */\n      0x00\n        /* \"Interactuar con varios SC/librerias.sol\":175:176  0 */\n      dup1\n        /* \"Interactuar con varios SC/librerias.sol\":170:172  _j */\n      dup3\n        /* \"Interactuar con varios SC/librerias.sol\":170:176  _j > 0 */\n      gt\n        /* \"Interactuar con varios SC/librerias.sol\":162:205  require(_j > 0, \"No podemos dividir por 0\") */\n      tag_16\n      jumpi\n      mload(0x40)\n      0x08c379a000000000000000000000000000000000000000000000000000000000\n      dup2\n      mstore\n      0x04\n      add\n      tag_17\n      swap1\n      jump(tag_18)\n    tag_17:\n      mload(0x40)\n      dup1\n      swap2\n      sub\n      swap1\n      revert\n    tag_16:\n        /* \"Interactuar con varios SC/librerias.sol\":226:228  _j */\n      dup2\n        /* \"Interactuar con varios SC/librerias.sol\":223:225  _i */\n      dup4\n        /* \"Interactuar con varios SC/librerias.sol\":223:228  _i/_j */\n      dup2\n      tag_19\n      jumpi\n      invalid\n    tag_19:\n      div\n        /* \"Interactuar con varios SC/librerias.sol\":216:228  return _i/_j */\n      swap1\n      pop\n        /* \"Interactuar con varios SC/librerias.sol\":90:236  function division(uint _i, uint _j) public pure returns(uint){\r... */\n      swap3\n      swap2\n      pop\n      pop\n      jump\t// out\n        /* \"--CODEGEN--\":5:135   */\n    tag_21:\n      0x00\n        /* \"--CODEGEN--\":85:91   */\n      dup2\n        /* \"--CODEGEN--\":72:92   */\n      calldataload\n        /* \"--CODEGEN--\":63:92   */\n      swap1\n      pop\n        /* \"--CODEGEN--\":97:130   */\n      tag_23\n        /* \"--CODEGEN--\":124:129   */\n      dup2\n        /* \"--CODEGEN--\":97:130   */\n      jump(tag_24)\n    tag_23:\n        /* \"--CODEGEN--\":57:135   */\n      swap3\n      swap2\n      pop\n      pop\n      jump\n        /* \"--CODEGEN--\":142:508   */\n    tag_6:\n      0x00\n      dup1\n        /* \"--CODEGEN--\":263:265   */\n      0x40\n        /* \"--CODEGEN--\":251:260   */\n      dup4\n        /* \"--CODEGEN--\":242:249   */\n      dup6\n        /* \"--CODEGEN--\":238:261   */\n      sub\n        /* \"--CODEGEN--\":234:266   */\n      slt\n        /* \"--CODEGEN--\":231:233   */\n      iszero\n      tag_26\n      jumpi\n        /* \"--CODEGEN--\":279:280   */\n      0x00\n        /* \"--CODEGEN--\":276:277   */\n      dup1\n        /* \"--CODEGEN--\":269:281   */\n      revert\n        /* \"--CODEGEN--\":231:233   */\n    tag_26:\n        /* \"--CODEGEN--\":314:315   */\n      0x00\n        /* \"--CODEGEN--\":331:384   */\n      tag_27\n        /* \"--CODEGEN--\":376:383   */\n      dup6\n        /* \"--CODEGEN--\":367:373   */\n      dup3\n        /* \"--CODEGEN--\":356:365   */\n      dup7\n        /* \"--CODEGEN--\":352:374   */\n      add\n        /* \"--CODEGEN--\":331:384   */\n      jump(tag_21)\n    tag_27:\n        /* \"--CODEGEN--\":321:384   */\n      swap3\n      pop\n        /* \"--CODEGEN--\":293:390   */\n      pop\n        /* \"--CODEGEN--\":421:423   */\n      0x20\n        /* \"--CODEGEN--\":439:492   */\n      tag_28\n        /* \"--CODEGEN--\":484:491   */\n      dup6\n        /* \"--CODEGEN--\":475:481   */\n      dup3\n        /* \"--CODEGEN--\":464:473   */\n      dup7\n        /* \"--CODEGEN--\":460:482   */\n      add\n        /* \"--CODEGEN--\":439:492   */\n      jump(tag_21)\n    tag_28:\n        /* \"--CODEGEN--\":429:492   */\n      swap2\n      pop\n        /* \"--CODEGEN--\":400:498   */\n      pop\n        /* \"--CODEGEN--\":225:508   */\n      swap3\n      pop\n      swap3\n      swap1\n      pop\n      jump\n        /* \"--CODEGEN--\":516:840   */\n    tag_29:\n      0x00\n        /* \"--CODEGEN--\":676:743   */\n      tag_31\n        /* \"--CODEGEN--\":740:742   */\n      0x18\n        /* \"--CODEGEN--\":735:738   */\n      dup4\n        /* \"--CODEGEN--\":676:743   */\n      jump(tag_32)\n    tag_31:\n        /* \"--CODEGEN--\":669:743   */\n      swap2\n      pop\n        /* \"--CODEGEN--\":776:802   */\n      0x4e6f20706f64656d6f73206469766964697220706f7220300000000000000000\n        /* \"--CODEGEN--\":772:773   */\n      0x00\n        /* \"--CODEGEN--\":767:770   */\n      dup4\n        /* \"--CODEGEN--\":763:774   */\n      add\n        /* \"--CODEGEN--\":756:803   */\n      mstore\n        /* \"--CODEGEN--\":831:833   */\n      0x20\n        /* \"--CODEGEN--\":826:829   */\n      dup3\n        /* \"--CODEGEN--\":822:834   */\n      add\n        /* \"--CODEGEN--\":815:834   */\n      swap1\n      pop\n        /* \"--CODEGEN--\":662:840   */\n      swap2\n      swap1\n      pop\n      jump\n        /* \"--CODEGEN--\":848:969   */\n    tag_33:\n        /* \"--CODEGEN--\":939:963   */\n      tag_35\n        /* \"--CODEGEN--\":957:962   */\n      dup2\n        /* \"--CODEGEN--\":939:963   */\n      jump(tag_36)\n    tag_35:\n        /* \"--CODEGEN--\":934:937   */\n      dup3\n        /* \"--CODEGEN--\":927:964   */\n      mstore\n        /* \"--CODEGEN--\":921:969   */\n      pop\n      pop\n      jump\n        /* \"--CODEGEN--\":976:1383   */\n    tag_18:\n      0x00\n        /* \"--CODEGEN--\":1167:1169   */\n      0x20\n        /* \"--CODEGEN--\":1156:1165   */\n      dup3\n        /* \"--CODEGEN--\":1152:1170   */\n      add\n        /* \"--CODEGEN--\":1144:1170   */\n      swap1\n      pop\n        /* \"--CODEGEN--\":1217:1226   */\n      dup2\n        /* \"--CODEGEN--\":1211:1215   */\n      dup2\n        /* \"--CODEGEN--\":1207:1227   */\n      sub\n        /* \"--CODEGEN--\":1203:1204   */\n      0x00\n        /* \"--CODEGEN--\":1192:1201   */\n      dup4\n        /* \"--CODEGEN--\":1188:1205   */\n      add\n        /* \"--CODEGEN--\":1181:1228   */\n      mstore\n        /* \"--CODEGEN--\":1242:1373   */\n      tag_38\n        /* \"--CODEGEN--\":1368:1372   */\n      dup2\n        /* \"--CODEGEN--\":1242:1373   */\n      jump(tag_29)\n    tag_38:\n        /* \"--CODEGEN--\":1234:1373   */\n      swap1\n      pop\n        /* \"--CODEGEN--\":1138:1383   */\n      swap2\n      swap1\n      pop\n      jump\n        /* \"--CODEGEN--\":1390:1619   */\n    tag_9:\n      0x00\n        /* \"--CODEGEN--\":1516:1518   */\n      0x20\n        /* \"--CODEGEN--\":1505:1514   */\n      dup3\n        /* \"--CODEGEN--\":1501:1519   */\n      add\n        /* \"--CODEGEN--\":1493:1519   */\n      swap1\n      pop\n        /* \"--CODEGEN--\":1530:1609   */\n      tag_40\n        /* \"--CODEGEN--\":1606:1607   */\n      0x00\n        /* \"--CODEGEN--\":1595:1604   */\n      dup4\n        /* \"--CODEGEN--\":1591:1608   */\n      add\n        /* \"--CODEGEN--\":1582:1588   */\n      dup5\n        /* \"--CODEGEN--\":1530:1609   */\n      jump(tag_33)\n    tag_40:\n        /* \"--CODEGEN--\":1487:1619   */\n      swap3\n      swap2\n      pop\n      pop\n      jump\n        /* \"--CODEGEN--\":1627:1790   */\n    tag_32:\n      0x00\n        /* \"--CODEGEN--\":1742:1748   */\n      dup3\n        /* \"--CODEGEN--\":1737:1740   */\n      dup3\n        /* \"--CODEGEN--\":1730:1749   */\n      mstore\n        /* \"--CODEGEN--\":1779:1783   */\n      0x20\n        /* \"--CODEGEN--\":1774:1777   */\n      dup3\n        /* \"--CODEGEN--\":1770:1784   */\n      add\n        /* \"--CODEGEN--\":1755:1784   */\n      swap1\n      pop\n        /* \"--CODEGEN--\":1723:1790   */\n      swap3\n      swap2\n      pop\n      pop\n      jump\n        /* \"--CODEGEN--\":1798:1870   */\n    tag_36:\n      0x00\n        /* \"--CODEGEN--\":1860:1865   */\n      dup2\n        /* \"--CODEGEN--\":1849:1865   */\n      swap1\n      pop\n        /* \"--CODEGEN--\":1843:1870   */\n      swap2\n      swap1\n      pop\n      jump\n        /* \"--CODEGEN--\":1877:1994   */\n    tag_24:\n        /* \"--CODEGEN--\":1946:1970   */\n      tag_44\n        /* \"--CODEGEN--\":1964:1969   */\n      dup2\n        /* \"--CODEGEN--\":1946:1970   */\n      jump(tag_36)\n    tag_44:\n        /* \"--CODEGEN--\":1939:1944   */\n      dup2\n        /* \"--CODEGEN--\":1936:1971   */\n      eq\n        /* \"--CODEGEN--\":1926:1928   */\n      tag_45\n      jumpi\n        /* \"--CODEGEN--\":1985:1986   */\n      0x00\n        /* \"--CODEGEN--\":1982:1983   */\n      dup1\n        /* \"--CODEGEN--\":1975:1987   */\n      revert\n        /* \"--CODEGEN--\":1926:1928   */\n    tag_45:\n        /* \"--CODEGEN--\":1920:1994   */\n      pop\n      jump\n\n    auxdata: 0xa26469706673582212205cbd10d653d5a16ad7c18a2a4163aad123d251450dc7045a4be7bc4080c1501364736f6c63430006000033\n}\n",
				"bytecode": {
					"linkReferences": {},
					"object": "61024b610026600b82828239805160001a60731461001957fe5b30600052607381538281f3fe73000000000000000000000000000000000000000030146080604052600436106100405760003560e01c80639aa727f614610045578063e006805214610075575b600080fd5b61005f600480360361005a919081019061011d565b6100a5565b60405161006c91906101c8565b60405180910390f35b61008f600480360361008a919081019061011d565b6100b2565b60405161009c91906101c8565b60405180910390f35b6000818302905092915050565b60008082116100f6576040517f08c379a00000000000000000000000000000000000000000000000000000000081526004016100ed906101a8565b60405180910390fd5b8183816100ff57fe5b04905092915050565b600081359050610117816101fe565b92915050565b6000806040838503121561013057600080fd5b600061013e85828601610108565b925050602061014f85828601610108565b9150509250929050565b60006101666018836101e3565b91507f4e6f20706f64656d6f73206469766964697220706f72203000000000000000006000830152602082019050919050565b6101a2816101f4565b82525050565b600060208201905081810360008301526101c181610159565b9050919050565b60006020820190506101dd6000830184610199565b92915050565b600082825260208201905092915050565b6000819050919050565b610207816101f4565b811461021257600080fd5b5056fea26469706673582212205cbd10d653d5a16ad7c18a2a4163aad123d251450dc7045a4be7bc4080c1501364736f6c63430006000033",
					"opcodes": "PUSH2 0x24B PUSH2 0x26 PUSH1 0xB DUP3 DUP3 DUP3 CODECOPY DUP1 MLOAD PUSH1 0x0 BYTE PUSH1 0x73 EQ PUSH2 0x19 JUMPI INVALID JUMPDEST ADDRESS PUSH1 0x0 MSTORE PUSH1 0x73 DUP2 MSTORE8 DUP3 DUP2 RETURN INVALID PUSH20 0x0 ADDRESS EQ PUSH1 0x80 PUSH1 0x40 MSTORE PUSH1 0x4 CALLDATASIZE LT PUSH2 0x40 JUMPI PUSH1 0x0 CALLDATALOAD PUSH1 0xE0 SHR DUP1 PUSH4 0x9AA727F6 EQ PUSH2 0x45 JUMPI DUP1 PUSH4 0xE0068052 EQ PUSH2 0x75 JUMPI JUMPDEST PUSH1 0x0 DUP1 REVERT JUMPDEST PUSH2 0x5F PUSH1 0x4 DUP1 CALLDATASIZE SUB PUSH2 0x5A SWAP2 SWAP1 DUP2 ADD SWAP1 PUSH2 0x11D JUMP JUMPDEST PUSH2 0xA5 JUMP JUMPDEST PUSH1 0x40 MLOAD PUSH2 0x6C SWAP2 SWAP1 PUSH2 0x1C8 JUMP JUMPDEST PUSH1 0x40 MLOAD DUP1 SWAP2 SUB SWAP1 RETURN JUMPDEST PUSH2 0x8F PUSH1 0x4 DUP1 CALLDATASIZE SUB PUSH2 0x8A SWAP2 SWAP1 DUP2 ADD SWAP1 PUSH2 0x11D JUMP JUMPDEST PUSH2 0xB2 JUMP JUMPDEST PUSH1 0x40 MLOAD PUSH2 0x9C SWAP2 SWAP1 PUSH2 0x1C8 JUMP JUMPDEST PUSH1 0x40 MLOAD DUP1 SWAP2 SUB SWAP1 RETURN JUMPDEST PUSH1 0x0 DUP2 DUP4 MUL SWAP1 POP SWAP3 SWAP2 POP POP JUMP JUMPDEST PUSH1 0x0 DUP1 DUP3 GT PUSH2 0xF6 JUMPI PUSH1 0x40 MLOAD PUSH32 0x8C379A000000000000000000000000000000000000000000000000000000000 DUP2 MSTORE PUSH1 0x4 ADD PUSH2 0xED SWAP1 PUSH2 0x1A8 JUMP JUMPDEST PUSH1 0x40 MLOAD DUP1 SWAP2 SUB SWAP1 REVERT JUMPDEST DUP2 DUP4 DUP2 PUSH2 0xFF JUMPI INVALID JUMPDEST DIV SWAP1 POP SWAP3 SWAP2 POP POP JUMP JUMPDEST PUSH1 0x0 DUP2 CALLDATALOAD SWAP1 POP PUSH2 0x117 DUP2 PUSH2 0x1FE JUMP JUMPDEST SWAP3 SWAP2 POP POP JUMP JUMPDEST PUSH1 0x0 DUP1 PUSH1 0x40 DUP4 DUP6 SUB SLT ISZERO PUSH2 0x130 JUMPI PUSH1 0x0 DUP1 REVERT JUMPDEST PUSH1 0x0 PUSH2 0x13E DUP6 DUP3 DUP7 ADD PUSH2 0x108 JUMP JUMPDEST SWAP3 POP POP PUSH1 0x20 PUSH2 0x14F DUP6 DUP3 DUP7 ADD PUSH2 0x108 JUMP JUMPDEST SWAP2 POP POP SWAP3 POP SWAP3 SWAP1 POP JUMP JUMPDEST PUSH1 0x0 PUSH2 0x166 PUSH1 0x18 DUP4 PUSH2 0x1E3 JUMP JUMPDEST SWAP2 POP PUSH32 0x4E6F20706F64656D6F73206469766964697220706F7220300000000000000000 PUSH1 0x0 DUP4 ADD MSTORE PUSH1 0x20 DUP3 ADD SWAP1 POP SWAP2 SWAP1 POP JUMP JUMPDEST PUSH2 0x1A2 DUP2 PUSH2 0x1F4 JUMP JUMPDEST DUP3 MSTORE POP POP JUMP JUMPDEST PUSH1 0x0 PUSH1 0x20 DUP3 ADD SWAP1 POP DUP2 DUP2 SUB PUSH1 0x0 DUP4 ADD MSTORE PUSH2 0x1C1 DUP2 PUSH2 0x159 JUMP JUMPDEST SWAP1 POP SWAP2 SWAP1 POP JUMP JUMPDEST PUSH1 0x0 PUSH1 0x20 DUP3 ADD SWAP1 POP PUSH2 0x1DD PUSH1 0x0 DUP4 ADD DUP5 PUSH2 0x199 JUMP JUMPDEST SWAP3 SWAP2 POP POP JUMP JUMPDEST PUSH1 0x0 DUP3 DUP3 MSTORE PUSH1 0x20 DUP3 ADD SWAP1 POP SWAP3 SWAP2 POP POP JUMP JUMPDEST PUSH1 0x0 DUP2 SWAP1 POP SWAP2 SWAP1 POP JUMP JUMPDEST PUSH2 0x207 DUP2 PUSH2 0x1F4 JUMP JUMPDEST DUP2 EQ PUSH2 0x212 JUMPI PUSH1 0x0 DUP1 REVERT JUMPDEST POP JUMP INVALID LOG2 PUSH5 0x6970667358 0x22 SLT KECCAK256 0x5C 0xBD LT 0xD6 MSTORE8 0xD5 LOG1 PUSH11 0xD7C18A2A4163AAD123D251 GASLIMIT 0xD 0xC7 DIV GAS 0x4B 0xE7 0xBC BLOCKHASH DUP1 0xC1 POP SGT PUSH5 0x736F6C6343 STOP MOD STOP STOP CALLER "
				},
				"gasEstimates": {
					"creation": {
						"codeDepositCost": "117400",
						"executionCost": "190",
						"totalCost": "117590"
					},
					"external": {
						"division(uint256,uint256)": "infinite",
						"mult(uint256,uint256)": "infinite"
					}
				},
				"methodIdentifiers": {
					"division(uint256,uint256)": "e0068052",
					"mult(uint256,uint256)": "9aa727f6"
				}
			},
			"storageLayout": {
				"storage": [],
				"types": null
			},
			"userdoc": {
				"methods": {}
			}
		}
	}
}