{
	"Interactuar con varios SC/librerias.sol": {
		"Operaciones": {
			"abi": [
				{
					"inputs": [
						{
							"internalType": "uint256",
							"name": "_i",
							"type": "uint256"
						},
						{
							"internalType": "uint256",
							"name": "_j",
							"type": "uint256"
						}
					],
					"name": "division",
					"outputs": [
						{
							"internalType": "uint256",
							"name": "",
							"type": "uint256"
						}
					],
					"stateMutability": "pure",
					"type": "function"
				},
				{
					"inputs": [
						{
							"internalType": "uint256",
							"name": "_i",
							"type": "uint256"
						},
						{
							"internalType": "uint256",
							"name": "_j",
							"type": "uint256"
						}
					],
					"name": "mult",
					"outputs": [
						{
							"internalType": "uint256",
							"name": "",
							"type": "uint256"
						}
					],
					"stateMutability": "pure",
					"type": "function"
				}
			],
			"devdoc": {
				"methods": {}
			},
			"evm": {
				"assembly": "    /* \"Interactuar con varios SC/librerias.sol\":62:345  library Operaciones{\r... */\n  dataSize(sub_0)\n  dataOffset(sub_0)\n    /* \"--CODEGEN--\":132:134   */\n  0x0b\n    /* \"--CODEGEN--\":166:173   */\n  dup3\n    /* \"--CODEGEN--\":155:164   */\n  dup3\n    /* \"--CODEGEN--\":146:153   */\n  dup3\n    /* \"--CODEGEN--\":137:174   */\n  codecopy\n    /* \"--CODEGEN--\":255:262   */\n  dup1\n    /* \"--CODEGEN--\":249:263   */\n  mload\n    /* \"--CODEGEN--\":246:247   */\n  0x00\n    /* \"--CODEGEN--\":241:264   */\n  byte\n    /* \"--CODEGEN--\":235:239   */\n  0x73\n    /* \"--CODEGEN--\":232:265   */\n  eq\n    /* \"--CODEGEN--\":222:224   */\n  tag_1\n  jumpi\n    /* \"--CODEGEN--\":269:278   */\n  invalid\n    /* \"--CODEGEN--\":222:224   */\ntag_1:\n    /* \"--CODEGEN--\":293:302   */\n  address\n    /* \"--CODEGEN--\":290:291   */\n  0x00\n    /* \"--CODEGEN--\":283:303   */\n  mstore\n    /* \"--CODEGEN--\":323:327   */\n  0x73\n    /* \"--CODEGEN--\":314:321   */\n  dup2\n    /* \"--CODEGEN--\":306:328   */\n  mstore8\n    /* \"--CODEGEN--\":347:354   */\n  dup3\n    /* \"--CODEGEN--\":338:345   */\n  dup2\n    /* \"--CODEGEN--\":331:355   */\n  return\nstop\n\nsub_0: assembly {\n        /* \"Interactuar con varios SC/librerias.sol\":62:345  library Operaciones{\r... */\n      eq(address, deployTimeAddress())\n      mstore(0x40, 0x80)\n      jumpi(tag_1, lt(calldatasize, 0x04))\n      shr(0xe0, calldataload(0x00))\n      dup1\n      0x9aa727f6\n      eq\n      tag_2\n      jumpi\n      dup1\n      0xe0068052\n      eq\n      tag_3\n      jumpi\n    tag_1:\n      0x00\n      dup1\n      revert\n        /* \"Interactuar con varios SC/librerias.sol\":250:340  function mult(uint _i, uint _j) public pure returns(uint){\r... */\n    tag_2:\n      tag_4\n      0x04\n      dup1\n      calldatasize\n      sub\n      tag_5\n      swap2\n      swap1\n      dup2\n      add\n      swap1\n      jump(tag_6)\n    tag_5:\n      tag_7\n      jump\t// in\n    tag_4:\n      mload(0x40)\n      tag_8\n      swap2\n      swap1\n      jump(tag_9)\n    tag_8:\n      mload(0x40)\n      dup1\n      swap2\n      sub\n      swap1\n      return\n        /* \"Interactuar con varios SC/librerias.sol\":90:238  function division(uint _i, uint _j) public pure returns(uint){\r... */\n    tag_3:\n      tag_10\n      0x04\n      dup1\n      calldatasize\n      sub\n      tag_11\n      swap2\n      swap1\n      dup2\n      add\n      swap1\n      jump(tag_6)\n    tag_11:\n      tag_12\n      jump\t// in\n    tag_10:\n      mload(0x40)\n      tag_13\n      swap2\n      swap1\n      jump(tag_9)\n    tag_13:\n      mload(0x40)\n      dup1\n      swap2\n      sub\n      swap1\n      return\n        /* \"Interactuar con varios SC/librerias.sol\":250:340  function mult(uint _i, uint _j) public pure returns(uint){\r... */\n    tag_7:\n        /* \"Interactuar con varios SC/librerias.sol\":302:306  uint */\n      0x00\n        /* \"Interactuar con varios SC/librerias.sol\":330:332  _j */\n      dup2\n        /* \"Interactuar con varios SC/librerias.sol\":325:327  _i */\n      dup4\n        /* \"Interactuar con varios SC/librerias.sol\":325:332  _i * _j */\n      mul\n        /* \"Interactuar con varios SC/librerias.sol\":318:332  return _i * _j */\n      swap1\n      pop\n        /* \"Interactuar con varios SC/librerias.sol\":250:340  function mult(uint _i, uint _j) public pure returns(uint){\r... */\n      swap3\n      swap2\n      pop\n      pop\n      jump\t// out\n        /* \"Interactuar con varios SC/librerias.sol\":90:238  function division(uint _i, uint _j) public pure returns(uint){\r... */\n    tag_12:\n        /* \"Interactuar con varios SC/librerias.sol\":146:150  uint */\n      0x00\n        /* \"Interactuar con varios SC/librerias.sol\":228:230  _j */\n      dup2\n        /* \"Interactuar con varios SC/librerias.sol\":225:227  _i */\n      dup4\n        /* \"Interactuar con varios SC/librerias.sol\":225:230  _i/_j */\n      dup2\n      tag_16\n      jumpi\n      invalid\n    tag_16:\n      div\n        /* \"Interactuar con varios SC/librerias.sol\":218:230  return _i/_j */\n      swap1\n      pop\n        /* \"Interactuar con varios SC/librerias.sol\":90:238  function division(uint _i, uint _j) public pure returns(uint){\r... */\n      swap3\n      swap2\n      pop\n      pop\n      jump\t// out\n        /* \"--CODEGEN--\":5:135   */\n    tag_18:\n      0x00\n        /* \"--CODEGEN--\":85:91   */\n      dup2\n        /* \"--CODEGEN--\":72:92   */\n      calldataload\n        /* \"--CODEGEN--\":63:92   */\n      swap1\n      pop\n        /* \"--CODEGEN--\":97:130   */\n      tag_20\n        /* \"--CODEGEN--\":124:129   */\n      dup2\n        /* \"--CODEGEN--\":97:130   */\n      jump(tag_21)\n    tag_20:\n        /* \"--CODEGEN--\":57:135   */\n      swap3\n      swap2\n      pop\n      pop\n      jump\n        /* \"--CODEGEN--\":142:508   */\n    tag_6:\n      0x00\n      dup1\n        /* \"--CODEGEN--\":263:265   */\n      0x40\n        /* \"--CODEGEN--\":251:260   */\n      dup4\n        /* \"--CODEGEN--\":242:249   */\n      dup6\n        /* \"--CODEGEN--\":238:261   */\n      sub\n        /* \"--CODEGEN--\":234:266   */\n      slt\n        /* \"--CODEGEN--\":231:233   */\n      iszero\n      tag_23\n      jumpi\n        /* \"--CODEGEN--\":279:280   */\n      0x00\n        /* \"--CODEGEN--\":276:277   */\n      dup1\n        /* \"--CODEGEN--\":269:281   */\n      revert\n        /* \"--CODEGEN--\":231:233   */\n    tag_23:\n        /* \"--CODEGEN--\":314:315   */\n      0x00\n        /* \"--CODEGEN--\":331:384   */\n      tag_24\n        /* \"--CODEGEN--\":376:383   */\n      dup6\n        /* \"--CODEGEN--\":367:373   */\n      dup3\n        /* \"--CODEGEN--\":356:365   */\n      dup7\n        /* \"--CODEGEN--\":352:374   */\n      add\n        /* \"--CODEGEN--\":331:384   */\n      jump(tag_18)\n    tag_24:\n        /* \"--CODEGEN--\":321:384   */\n      swap3\n      pop\n        /* \"--CODEGEN--\":293:390   */\n      pop\n        /* \"--CODEGEN--\":421:423   */\n      0x20\n        /* \"--CODEGEN--\":439:492   */\n      tag_25\n        /* \"--CODEGEN--\":484:491   */\n      dup6\n        /* \"--CODEGEN--\":475:481   */\n      dup3\n        /* \"--CODEGEN--\":464:473   */\n      dup7\n        /* \"--CODEGEN--\":460:482   */\n      add\n        /* \"--CODEGEN--\":439:492   */\n      jump(tag_18)\n    tag_25:\n        /* \"--CODEGEN--\":429:492   */\n      swap2\n      pop\n        /* \"--CODEGEN--\":400:498   */\n      pop\n        /* \"--CODEGEN--\":225:508   */\n      swap3\n      pop\n      swap3\n      swap1\n      pop\n      jump\n        /* \"--CODEGEN--\":515:636   */\n    tag_26:\n        /* \"--CODEGEN--\":606:630   */\n      tag_28\n        /* \"--CODEGEN--\":624:629   */\n      dup2\n        /* \"--CODEGEN--\":606:630   */\n      jump(tag_29)\n    tag_28:\n        /* \"--CODEGEN--\":601:604   */\n      dup3\n        /* \"--CODEGEN--\":594:631   */\n      mstore\n        /* \"--CODEGEN--\":588:636   */\n      pop\n      pop\n      jump\n        /* \"--CODEGEN--\":643:872   */\n    tag_9:\n      0x00\n        /* \"--CODEGEN--\":769:771   */\n      0x20\n        /* \"--CODEGEN--\":758:767   */\n      dup3\n        /* \"--CODEGEN--\":754:772   */\n      add\n        /* \"--CODEGEN--\":746:772   */\n      swap1\n      pop\n        /* \"--CODEGEN--\":783:862   */\n      tag_31\n        /* \"--CODEGEN--\":859:860   */\n      0x00\n        /* \"--CODEGEN--\":848:857   */\n      dup4\n        /* \"--CODEGEN--\":844:861   */\n      add\n        /* \"--CODEGEN--\":835:841   */\n      dup5\n        /* \"--CODEGEN--\":783:862   */\n      jump(tag_26)\n    tag_31:\n        /* \"--CODEGEN--\":740:872   */\n      swap3\n      swap2\n      pop\n      pop\n      jump\n        /* \"--CODEGEN--\":879:951   */\n    tag_29:\n      0x00\n        /* \"--CODEGEN--\":941:946   */\n      dup2\n        /* \"--CODEGEN--\":930:946   */\n      swap1\n      pop\n        /* \"--CODEGEN--\":924:951   */\n      swap2\n      swap1\n      pop\n      jump\n        /* \"--CODEGEN--\":958:1075   */\n    tag_21:\n        /* \"--CODEGEN--\":1027:1051   */\n      tag_34\n        /* \"--CODEGEN--\":1045:1050   */\n      dup2\n        /* \"--CODEGEN--\":1027:1051   */\n      jump(tag_29)\n    tag_34:\n        /* \"--CODEGEN--\":1020:1025   */\n      dup2\n        /* \"--CODEGEN--\":1017:1052   */\n      eq\n        /* \"--CODEGEN--\":1007:1009   */\n      tag_35\n      jumpi\n        /* \"--CODEGEN--\":1066:1067   */\n      0x00\n        /* \"--CODEGEN--\":1063:1064   */\n      dup1\n        /* \"--CODEGEN--\":1056:1068   */\n      revert\n        /* \"--CODEGEN--\":1007:1009   */\n    tag_35:\n        /* \"--CODEGEN--\":1001:1075   */\n      pop\n      jump\n\n    auxdata: 0xa2646970667358221220c35b857b2efe7876821b1c9ff1e275d2ae89568bbaf12b1059cfb706ab25ce8764736f6c63430006000033\n}\n",
				"bytecode": {
					"linkReferences": {},
					"object": "610198610026600b82828239805160001a60731461001957fe5b30600052607381538281f3fe73000000000000000000000000000000000000000030146080604052600436106100405760003560e01c80639aa727f614610045578063e006805214610075575b600080fd5b61005f600480360361005a91908101906100db565b6100a5565b60405161006c9190610126565b60405180910390f35b61008f600480360361008a91908101906100db565b6100b2565b60405161009c9190610126565b60405180910390f35b6000818302905092915050565b60008183816100bd57fe5b04905092915050565b6000813590506100d58161014b565b92915050565b600080604083850312156100ee57600080fd5b60006100fc858286016100c6565b925050602061010d858286016100c6565b9150509250929050565b61012081610141565b82525050565b600060208201905061013b6000830184610117565b92915050565b6000819050919050565b61015481610141565b811461015f57600080fd5b5056fea2646970667358221220c35b857b2efe7876821b1c9ff1e275d2ae89568bbaf12b1059cfb706ab25ce8764736f6c63430006000033",
					"opcodes": "PUSH2 0x198 PUSH2 0x26 PUSH1 0xB DUP3 DUP3 DUP3 CODECOPY DUP1 MLOAD PUSH1 0x0 BYTE PUSH1 0x73 EQ PUSH2 0x19 JUMPI INVALID JUMPDEST ADDRESS PUSH1 0x0 MSTORE PUSH1 0x73 DUP2 MSTORE8 DUP3 DUP2 RETURN INVALID PUSH20 0x0 ADDRESS EQ PUSH1 0x80 PUSH1 0x40 MSTORE PUSH1 0x4 CALLDATASIZE LT PUSH2 0x40 JUMPI PUSH1 0x0 CALLDATALOAD PUSH1 0xE0 SHR DUP1 PUSH4 0x9AA727F6 EQ PUSH2 0x45 JUMPI DUP1 PUSH4 0xE0068052 EQ PUSH2 0x75 JUMPI JUMPDEST PUSH1 0x0 DUP1 REVERT JUMPDEST PUSH2 0x5F PUSH1 0x4 DUP1 CALLDATASIZE SUB PUSH2 0x5A SWAP2 SWAP1 DUP2 ADD SWAP1 PUSH2 0xDB JUMP JUMPDEST PUSH2 0xA5 JUMP JUMPDEST PUSH1 0x40 MLOAD PUSH2 0x6C SWAP2 SWAP1 PUSH2 0x126 JUMP JUMPDEST PUSH1 0x40 MLOAD DUP1 SWAP2 SUB SWAP1 RETURN JUMPDEST PUSH2 0x8F PUSH1 0x4 DUP1 CALLDATASIZE SUB PUSH2 0x8A SWAP2 SWAP1 DUP2 ADD SWAP1 PUSH2 0xDB JUMP JUMPDEST PUSH2 0xB2 JUMP JUMPDEST PUSH1 0x40 MLOAD PUSH2 0x9C SWAP2 SWAP1 PUSH2 0x126 JUMP JUMPDEST PUSH1 0x40 MLOAD DUP1 SWAP2 SUB SWAP1 RETURN JUMPDEST PUSH1 0x0 DUP2 DUP4 MUL SWAP1 POP SWAP3 SWAP2 POP POP JUMP JUMPDEST PUSH1 0x0 DUP2 DUP4 DUP2 PUSH2 0xBD JUMPI INVALID JUMPDEST DIV SWAP1 POP SWAP3 SWAP2 POP POP JUMP JUMPDEST PUSH1 0x0 DUP2 CALLDATALOAD SWAP1 POP PUSH2 0xD5 DUP2 PUSH2 0x14B JUMP JUMPDEST SWAP3 SWAP2 POP POP JUMP JUMPDEST PUSH1 0x0 DUP1 PUSH1 0x40 DUP4 DUP6 SUB SLT ISZERO PUSH2 0xEE JUMPI PUSH1 0x0 DUP1 REVERT JUMPDEST PUSH1 0x0 PUSH2 0xFC DUP6 DUP3 DUP7 ADD PUSH2 0xC6 JUMP JUMPDEST SWAP3 POP POP PUSH1 0x20 PUSH2 0x10D DUP6 DUP3 DUP7 ADD PUSH2 0xC6 JUMP JUMPDEST SWAP2 POP POP SWAP3 POP SWAP3 SWAP1 POP JUMP JUMPDEST PUSH2 0x120 DUP2 PUSH2 0x141 JUMP JUMPDEST DUP3 MSTORE POP POP JUMP JUMPDEST PUSH1 0x0 PUSH1 0x20 DUP3 ADD SWAP1 POP PUSH2 0x13B PUSH1 0x0 DUP4 ADD DUP5 PUSH2 0x117 JUMP JUMPDEST SWAP3 SWAP2 POP POP JUMP JUMPDEST PUSH1 0x0 DUP2 SWAP1 POP SWAP2 SWAP1 POP JUMP JUMPDEST PUSH2 0x154 DUP2 PUSH2 0x141 JUMP JUMPDEST DUP2 EQ PUSH2 0x15F JUMPI PUSH1 0x0 DUP1 REVERT JUMPDEST POP JUMP INVALID LOG2 PUSH5 0x6970667358 0x22 SLT KECCAK256 0xC3 JUMPDEST DUP6 PUSH28 0x2EFE7876821B1C9FF1E275D2AE89568BBAF12B1059CFB706AB25CE87 PUSH5 0x736F6C6343 STOP MOD STOP STOP CALLER "
				},
				"gasEstimates": {
					"creation": {
						"codeDepositCost": "81600",
						"executionCost": "157",
						"totalCost": "81757"
					},
					"external": {
						"division(uint256,uint256)": "infinite",
						"mult(uint256,uint256)": "infinite"
					}
				},
				"methodIdentifiers": {
					"division(uint256,uint256)": "e0068052",
					"mult(uint256,uint256)": "9aa727f6"
				}
			},
			"storageLayout": {
				"storage": [],
				"types": null
			},
			"userdoc": {
				"methods": {}
			}
		}
	}
}