{
	"data": {
		"bytecode": {
			"linkReferences": {},
			"object": "608060405234801561001057600080fd5b5061058b806100206000396000f3fe608060405234801561001057600080fd5b50600436106100415760003560e01c80636922e186146100465780637ef3023814610076578063d02c6205146100a6575b600080fd5b610060600480360361005b91908101906101f0565b6100d6565b60405161006d91906103da565b60405180910390f35b610090600480360361008b9190810190610231565b610106565b60405161009d91906103da565b60405180910390f35b6100c060048036036100bb9190810190610231565b61013c565b6040516100cd91906103da565b60405180910390f35b6000816040516020016100e99190610346565b604051602081830303815290604052805190602001209050919050565b600083838360405160200161011d93929190610396565b6040516020818303038152906040528051906020012090509392505050565b60008383836040516020016101539392919061035d565b6040516020818303038152906040528051906020012090509392505050565b60008135905061018181610527565b92915050565b600082601f83011261019857600080fd5b81356101ab6101a682610422565b6103f5565b915080825260208301602083018583830111156101c757600080fd5b6101d28382846104aa565b50505092915050565b6000813590506101ea8161053e565b92915050565b60006020828403121561020257600080fd5b600082013567ffffffffffffffff81111561021c57600080fd5b61022884828501610187565b91505092915050565b60008060006060848603121561024657600080fd5b600084013567ffffffffffffffff81111561026057600080fd5b61026c86828701610187565b935050602061027d868287016101db565b925050604061028e86828701610172565b9150509250925092565b6102a96102a482610464565b6104ec565b82525050565b6102b881610476565b82525050565b60006102c98261044e565b6102d38185610459565b93506102e38185602086016104b9565b80840191505092915050565b60006102fc600483610459565b91507f686f6c61000000000000000000000000000000000000000000000000000000006000830152600482019050919050565b61034061033b826104a0565b610510565b82525050565b600061035282846102be565b915081905092915050565b600061036982866102be565b9150610375828561032f565b6020820191506103858284610298565b601482019150819050949350505050565b60006103a282866102be565b91506103ae828561032f565b6020820191506103be8284610298565b6014820191506103cd826102ef565b9150819050949350505050565b60006020820190506103ef60008301846102af565b92915050565b6000604051905081810181811067ffffffffffffffff8211171561041857600080fd5b8060405250919050565b600067ffffffffffffffff82111561043957600080fd5b601f19601f8301169050602081019050919050565b600081519050919050565b600081905092915050565b600061046f82610480565b9050919050565b6000819050919050565b600073ffffffffffffffffffffffffffffffffffffffff82169050919050565b6000819050919050565b82818337600083830152505050565b60005b838110156104d75780820151818401526020810190506104bc565b838111156104e6576000848401525b50505050565b60006104f7826104fe565b9050919050565b60006105098261051a565b9050919050565b6000819050919050565b60008160601b9050919050565b61053081610464565b811461053b57600080fd5b50565b610547816104a0565b811461055257600080fd5b5056fea2646970667358221220a10947ae9afa00b23b4e16d7b56c7c1523a1266f118c701feb99571388985f5264736f6c63430006000033",
			"opcodes": "PUSH1 0x80 PUSH1 0x40 MSTORE CALLVALUE DUP1 ISZERO PUSH2 0x10 JUMPI PUSH1 0x0 DUP1 REVERT JUMPDEST POP PUSH2 0x58B DUP1 PUSH2 0x20 PUSH1 0x0 CODECOPY PUSH1 0x0 RETURN INVALID PUSH1 0x80 PUSH1 0x40 MSTORE CALLVALUE DUP1 ISZERO PUSH2 0x10 JUMPI PUSH1 0x0 DUP1 REVERT JUMPDEST POP PUSH1 0x4 CALLDATASIZE LT PUSH2 0x41 JUMPI PUSH1 0x0 CALLDATALOAD PUSH1 0xE0 SHR DUP1 PUSH4 0x6922E186 EQ PUSH2 0x46 JUMPI DUP1 PUSH4 0x7EF30238 EQ PUSH2 0x76 JUMPI DUP1 PUSH4 0xD02C6205 EQ PUSH2 0xA6 JUMPI JUMPDEST PUSH1 0x0 DUP1 REVERT JUMPDEST PUSH2 0x60 PUSH1 0x4 DUP1 CALLDATASIZE SUB PUSH2 0x5B SWAP2 SWAP1 DUP2 ADD SWAP1 PUSH2 0x1F0 JUMP JUMPDEST PUSH2 0xD6 JUMP JUMPDEST PUSH1 0x40 MLOAD PUSH2 0x6D SWAP2 SWAP1 PUSH2 0x3DA JUMP JUMPDEST PUSH1 0x40 MLOAD DUP1 SWAP2 SUB SWAP1 RETURN JUMPDEST PUSH2 0x90 PUSH1 0x4 DUP1 CALLDATASIZE SUB PUSH2 0x8B SWAP2 SWAP1 DUP2 ADD SWAP1 PUSH2 0x231 JUMP JUMPDEST PUSH2 0x106 JUMP JUMPDEST PUSH1 0x40 MLOAD PUSH2 0x9D SWAP2 SWAP1 PUSH2 0x3DA JUMP JUMPDEST PUSH1 0x40 MLOAD DUP1 SWAP2 SUB SWAP1 RETURN JUMPDEST PUSH2 0xC0 PUSH1 0x4 DUP1 CALLDATASIZE SUB PUSH2 0xBB SWAP2 SWAP1 DUP2 ADD SWAP1 PUSH2 0x231 JUMP JUMPDEST PUSH2 0x13C JUMP JUMPDEST PUSH1 0x40 MLOAD PUSH2 0xCD SWAP2 SWAP1 PUSH2 0x3DA JUMP JUMPDEST PUSH1 0x40 MLOAD DUP1 SWAP2 SUB SWAP1 RETURN JUMPDEST PUSH1 0x0 DUP2 PUSH1 0x40 MLOAD PUSH1 0x20 ADD PUSH2 0xE9 SWAP2 SWAP1 PUSH2 0x346 JUMP JUMPDEST PUSH1 0x40 MLOAD PUSH1 0x20 DUP2 DUP4 SUB SUB DUP2 MSTORE SWAP1 PUSH1 0x40 MSTORE DUP1 MLOAD SWAP1 PUSH1 0x20 ADD KECCAK256 SWAP1 POP SWAP2 SWAP1 POP JUMP JUMPDEST PUSH1 0x0 DUP4 DUP4 DUP4 PUSH1 0x40 MLOAD PUSH1 0x20 ADD PUSH2 0x11D SWAP4 SWAP3 SWAP2 SWAP1 PUSH2 0x396 JUMP JUMPDEST PUSH1 0x40 MLOAD PUSH1 0x20 DUP2 DUP4 SUB SUB DUP2 MSTORE SWAP1 PUSH1 0x40 MSTORE DUP1 MLOAD SWAP1 PUSH1 0x20 ADD KECCAK256 SWAP1 POP SWAP4 SWAP3 POP POP POP JUMP JUMPDEST PUSH1 0x0 DUP4 DUP4 DUP4 PUSH1 0x40 MLOAD PUSH1 0x20 ADD PUSH2 0x153 SWAP4 SWAP3 SWAP2 SWAP1 PUSH2 0x35D JUMP JUMPDEST PUSH1 0x40 MLOAD PUSH1 0x20 DUP2 DUP4 SUB SUB DUP2 MSTORE SWAP1 PUSH1 0x40 MSTORE DUP1 MLOAD SWAP1 PUSH1 0x20 ADD KECCAK256 SWAP1 POP SWAP4 SWAP3 POP POP POP JUMP JUMPDEST PUSH1 0x0 DUP2 CALLDATALOAD SWAP1 POP PUSH2 0x181 DUP2 PUSH2 0x527 JUMP JUMPDEST SWAP3 SWAP2 POP POP JUMP JUMPDEST PUSH1 0x0 DUP3 PUSH1 0x1F DUP4 ADD SLT PUSH2 0x198 JUMPI PUSH1 0x0 DUP1 REVERT JUMPDEST DUP2 CALLDATALOAD PUSH2 0x1AB PUSH2 0x1A6 DUP3 PUSH2 0x422 JUMP JUMPDEST PUSH2 0x3F5 JUMP JUMPDEST SWAP2 POP DUP1 DUP3 MSTORE PUSH1 0x20 DUP4 ADD PUSH1 0x20 DUP4 ADD DUP6 DUP4 DUP4 ADD GT ISZERO PUSH2 0x1C7 JUMPI PUSH1 0x0 DUP1 REVERT JUMPDEST PUSH2 0x1D2 DUP4 DUP3 DUP5 PUSH2 0x4AA JUMP JUMPDEST POP POP POP SWAP3 SWAP2 POP POP JUMP JUMPDEST PUSH1 0x0 DUP2 CALLDATALOAD SWAP1 POP PUSH2 0x1EA DUP2 PUSH2 0x53E JUMP JUMPDEST SWAP3 SWAP2 POP POP JUMP JUMPDEST PUSH1 0x0 PUSH1 0x20 DUP3 DUP5 SUB SLT ISZERO PUSH2 0x202 JUMPI PUSH1 0x0 DUP1 REVERT JUMPDEST PUSH1 0x0 DUP3 ADD CALLDATALOAD PUSH8 0xFFFFFFFFFFFFFFFF DUP2 GT ISZERO PUSH2 0x21C JUMPI PUSH1 0x0 DUP1 REVERT JUMPDEST PUSH2 0x228 DUP5 DUP3 DUP6 ADD PUSH2 0x187 JUMP JUMPDEST SWAP2 POP POP SWAP3 SWAP2 POP POP JUMP JUMPDEST PUSH1 0x0 DUP1 PUSH1 0x0 PUSH1 0x60 DUP5 DUP7 SUB SLT ISZERO PUSH2 0x246 JUMPI PUSH1 0x0 DUP1 REVERT JUMPDEST PUSH1 0x0 DUP5 ADD CALLDATALOAD PUSH8 0xFFFFFFFFFFFFFFFF DUP2 GT ISZERO PUSH2 0x260 JUMPI PUSH1 0x0 DUP1 REVERT JUMPDEST PUSH2 0x26C DUP7 DUP3 DUP8 ADD PUSH2 0x187 JUMP JUMPDEST SWAP4 POP POP PUSH1 0x20 PUSH2 0x27D DUP7 DUP3 DUP8 ADD PUSH2 0x1DB JUMP JUMPDEST SWAP3 POP POP PUSH1 0x40 PUSH2 0x28E DUP7 DUP3 DUP8 ADD PUSH2 0x172 JUMP JUMPDEST SWAP2 POP POP SWAP3 POP SWAP3 POP SWAP3 JUMP JUMPDEST PUSH2 0x2A9 PUSH2 0x2A4 DUP3 PUSH2 0x464 JUMP JUMPDEST PUSH2 0x4EC JUMP JUMPDEST DUP3 MSTORE POP POP JUMP JUMPDEST PUSH2 0x2B8 DUP2 PUSH2 0x476 JUMP JUMPDEST DUP3 MSTORE POP POP JUMP JUMPDEST PUSH1 0x0 PUSH2 0x2C9 DUP3 PUSH2 0x44E JUMP JUMPDEST PUSH2 0x2D3 DUP2 DUP6 PUSH2 0x459 JUMP JUMPDEST SWAP4 POP PUSH2 0x2E3 DUP2 DUP6 PUSH1 0x20 DUP7 ADD PUSH2 0x4B9 JUMP JUMPDEST DUP1 DUP5 ADD SWAP2 POP POP SWAP3 SWAP2 POP POP JUMP JUMPDEST PUSH1 0x0 PUSH2 0x2FC PUSH1 0x4 DUP4 PUSH2 0x459 JUMP JUMPDEST SWAP2 POP PUSH32 0x686F6C6100000000000000000000000000000000000000000000000000000000 PUSH1 0x0 DUP4 ADD MSTORE PUSH1 0x4 DUP3 ADD SWAP1 POP SWAP2 SWAP1 POP JUMP JUMPDEST PUSH2 0x340 PUSH2 0x33B DUP3 PUSH2 0x4A0 JUMP JUMPDEST PUSH2 0x510 JUMP JUMPDEST DUP3 MSTORE POP POP JUMP JUMPDEST PUSH1 0x0 PUSH2 0x352 DUP3 DUP5 PUSH2 0x2BE JUMP JUMPDEST SWAP2 POP DUP2 SWAP1 POP SWAP3 SWAP2 POP POP JUMP JUMPDEST PUSH1 0x0 PUSH2 0x369 DUP3 DUP7 PUSH2 0x2BE JUMP JUMPDEST SWAP2 POP PUSH2 0x375 DUP3 DUP6 PUSH2 0x32F JUMP JUMPDEST PUSH1 0x20 DUP3 ADD SWAP2 POP PUSH2 0x385 DUP3 DUP5 PUSH2 0x298 JUMP JUMPDEST PUSH1 0x14 DUP3 ADD SWAP2 POP DUP2 SWAP1 POP SWAP5 SWAP4 POP POP POP POP JUMP JUMPDEST PUSH1 0x0 PUSH2 0x3A2 DUP3 DUP7 PUSH2 0x2BE JUMP JUMPDEST SWAP2 POP PUSH2 0x3AE DUP3 DUP6 PUSH2 0x32F JUMP JUMPDEST PUSH1 0x20 DUP3 ADD SWAP2 POP PUSH2 0x3BE DUP3 DUP5 PUSH2 0x298 JUMP JUMPDEST PUSH1 0x14 DUP3 ADD SWAP2 POP PUSH2 0x3CD DUP3 PUSH2 0x2EF JUMP JUMPDEST SWAP2 POP DUP2 SWAP1 POP SWAP5 SWAP4 POP POP POP POP JUMP JUMPDEST PUSH1 0x0 PUSH1 0x20 DUP3 ADD SWAP1 POP PUSH2 0x3EF PUSH1 0x0 DUP4 ADD DUP5 PUSH2 0x2AF JUMP JUMPDEST SWAP3 SWAP2 POP POP JUMP JUMPDEST PUSH1 0x0 PUSH1 0x40 MLOAD SWAP1 POP DUP2 DUP2 ADD DUP2 DUP2 LT PUSH8 0xFFFFFFFFFFFFFFFF DUP3 GT OR ISZERO PUSH2 0x418 JUMPI PUSH1 0x0 DUP1 REVERT JUMPDEST DUP1 PUSH1 0x40 MSTORE POP SWAP2 SWAP1 POP JUMP JUMPDEST PUSH1 0x0 PUSH8 0xFFFFFFFFFFFFFFFF DUP3 GT ISZERO PUSH2 0x439 JUMPI PUSH1 0x0 DUP1 REVERT JUMPDEST PUSH1 0x1F NOT PUSH1 0x1F DUP4 ADD AND SWAP1 POP PUSH1 0x20 DUP2 ADD SWAP1 POP SWAP2 SWAP1 POP JUMP JUMPDEST PUSH1 0x0 DUP2 MLOAD SWAP1 POP SWAP2 SWAP1 POP JUMP JUMPDEST PUSH1 0x0 DUP2 SWAP1 POP SWAP3 SWAP2 POP POP JUMP JUMPDEST PUSH1 0x0 PUSH2 0x46F DUP3 PUSH2 0x480 JUMP JUMPDEST SWAP1 POP SWAP2 SWAP1 POP JUMP JUMPDEST PUSH1 0x0 DUP2 SWAP1 POP SWAP2 SWAP1 POP JUMP JUMPDEST PUSH1 0x0 PUSH20 0xFFFFFFFFFFFFFFFFFFFFFFFFFFFFFFFFFFFFFFFF DUP3 AND SWAP1 POP SWAP2 SWAP1 POP JUMP JUMPDEST PUSH1 0x0 DUP2 SWAP1 POP SWAP2 SWAP1 POP JUMP JUMPDEST DUP3 DUP2 DUP4 CALLDATACOPY PUSH1 0x0 DUP4 DUP4 ADD MSTORE POP POP POP JUMP JUMPDEST PUSH1 0x0 JUMPDEST DUP4 DUP2 LT ISZERO PUSH2 0x4D7 JUMPI DUP1 DUP3 ADD MLOAD DUP2 DUP5 ADD MSTORE PUSH1 0x20 DUP2 ADD SWAP1 POP PUSH2 0x4BC JUMP JUMPDEST DUP4 DUP2 GT ISZERO PUSH2 0x4E6 JUMPI PUSH1 0x0 DUP5 DUP5 ADD MSTORE JUMPDEST POP POP POP POP JUMP JUMPDEST PUSH1 0x0 PUSH2 0x4F7 DUP3 PUSH2 0x4FE JUMP JUMPDEST SWAP1 POP SWAP2 SWAP1 POP JUMP JUMPDEST PUSH1 0x0 PUSH2 0x509 DUP3 PUSH2 0x51A JUMP JUMPDEST SWAP1 POP SWAP2 SWAP1 POP JUMP JUMPDEST PUSH1 0x0 DUP2 SWAP1 POP SWAP2 SWAP1 POP JUMP JUMPDEST PUSH1 0x0 DUP2 PUSH1 0x60 SHL SWAP1 POP SWAP2 SWAP1 POP JUMP JUMPDEST PUSH2 0x530 DUP2 PUSH2 0x464 JUMP JUMPDEST DUP2 EQ PUSH2 0x53B JUMPI PUSH1 0x0 DUP1 REVERT JUMPDEST POP JUMP JUMPDEST PUSH2 0x547 DUP2 PUSH2 0x4A0 JUMP JUMPDEST DUP2 EQ PUSH2 0x552 JUMPI PUSH1 0x0 DUP1 REVERT JUMPDEST POP JUMP INVALID LOG2 PUSH5 0x6970667358 0x22 SLT KECCAK256 LOG1 MULMOD SELFBALANCE 0xAE SWAP11 STATICCALL STOP 0xB2 EXTCODESIZE 0x4E AND 0xD7 0xB5 PUSH13 0x7C1523A1266F118C701FEB9957 SGT DUP9 SWAP9 0x5F MSTORE PUSH5 0x736F6C6343 STOP MOD STOP STOP CALLER "
		},
		"gasEstimates": {
			"creation": {
				"codeDepositCost": "283800",
				"executionCost": "324",
				"totalCost": "284124"
			},
			"external": {
				"CalcularHash(string)": "infinite",
				"CalcularHash2(string,uint256,address)": "infinite",
				"CalcularHash3(string,uint256,address)": "infinite"
			}
		},
		"methodIdentifiers": {
			"CalcularHash(string)": "6922e186",
			"CalcularHash2(string,uint256,address)": "d02c6205",
			"CalcularHash3(string,uint256,address)": "7ef30238"
		}
	},
	"abi": [
		{
			"inputs": [
				{
					"internalType": "string",
					"name": "_cadena",
					"type": "string"
				}
			],
			"name": "CalcularHash",
			"outputs": [
				{
					"internalType": "bytes32",
					"name": "",
					"type": "bytes32"
				}
			],
			"stateMutability": "pure",
			"type": "function"
		},
		{
			"inputs": [
				{
					"internalType": "string",
					"name": "_cadena",
					"type": "string"
				},
				{
					"internalType": "uint256",
					"name": "_k",
					"type": "uint256"
				},
				{
					"internalType": "address",
					"name": "_direccion",
					"type": "address"
				}
			],
			"name": "CalcularHash2",
			"outputs": [
				{
					"internalType": "bytes32",
					"name": "",
					"type": "bytes32"
				}
			],
			"stateMutability": "pure",
			"type": "function"
		},
		{
			"inputs": [
				{
					"internalType": "string",
					"name": "_cadena",
					"type": "string"
				},
				{
					"internalType": "uint256",
					"name": "_k",
					"type": "uint256"
				},
				{
					"internalType": "address",
					"name": "_direccion",
					"type": "address"
				}
			],
			"name": "CalcularHash3",
			"outputs": [
				{
					"internalType": "bytes32",
					"name": "",
					"type": "bytes32"
				}
			],
			"stateMutability": "pure",
			"type": "function"
		}
	]
}